{
	"data": {
		"bytecode": {
			"linkReferences": {},
			"object": "608060405234801561001057600080fd5b50613b61806100206000396000f3fe608060405234801561001057600080fd5b50600436106101cf5760003560e01c8063a57e314111610104578063d3cac885116100a2578063e3676f8811610071578063e3676f8814610433578063eb80bdae14610446578063eeacf78614610459578063fd981c661461046c57600080fd5b8063d3cac8851461038b578063da1d8cff1461039e578063e0da83ce146103b1578063e1444fd6146103d157600080fd5b8063b3b9aa48116100de578063b3b9aa481461034a578063b982922e1461035d578063cb645e3214610365578063cd83eadc1461037857600080fd5b8063a57e314114610311578063aec640c614610324578063aef0e5401461033757600080fd5b80635a04fb69116101715780636dbdeab31161014b5780636dbdeab3146102ab57806376c12822146102be5780637e6706d3146102de578063a20b8c18146102fe57600080fd5b80635a04fb6914610270578063618df7a3146102855780636198e3391461029857600080fd5b80630d4f581a116101ad5780630d4f581a1461022d5780631982242c14610240578063332f26d714610248578063475831c81461026857600080fd5b806307279357146101d457806307873ef1146101fa57806308f124701461020d575b600080fd5b6101e76101e23660046131d6565b610474565b6040519081526020015b60405180910390f35b6101e761020836600461325c565b6105b9565b61022061021b366004613279565b6105e0565b6040516101f1919061338d565b61022061023b366004613279565b610732565b6101e761074d565b61025b6102563660046133a0565b61076e565b6040516101f191906133d5565b6101e76108b5565b61028361027e366004613437565b6108c1565b005b610220610293366004613467565b610a53565b6102836102a6366004613279565b610ac8565b6101e76102b9366004613279565b610b50565b6102d16102cc366004613493565b610b67565b6040516101f191906134b5565b6102f16102ec366004613279565b610cbd565b6040516101f19190613525565b6102f161030c366004613279565b610d34565b61028361031f366004613279565b610d60565b6102d1610332366004613493565b610d6e565b61025b61034536600461325c565b610eb9565b610283610358366004613554565b610f9f565b6101e7611235565b6101e7610373366004613580565b611241565b6101e761038636600461325c565b611488565b610283610399366004613625565b6114a6565b61025b6103ac36600461325c565b611555565b6103c46103bf3660046136b6565b611633565b6040516101f19190613794565b61040d6103df36600461325c565b6007602052600090815260409020805460018201546002909201546001600160a01b03918216929091169083565b604080516001600160a01b039485168152939092166020840152908201526060016101f1565b6101e761044136600461325c565b611842565b6101e761045436600461325c565b611863565b610220610467366004613467565b611884565b6000546101e7565b60006001600160a01b0386166104a55760405162461bcd60e51b815260040161049c906137cc565b60405180910390fd5b600084116104f55760405162461bcd60e51b815260206004820152601f60248201527f416d6f756e742073686f756c642062652067726561746572207468616e203000604482015260640161049c565b4283116105505760405162461bcd60e51b815260206004820152602360248201527f556e6c6f636b20646174652073686f756c6420626520696e207468652066757460448201526275726560e81b606482015260840161049c565b610563878787878760008060008a6118f9565b905061057186333087611945565b807f694af1cc8727cdd0afbdd53d9b87b69248bd490224e9dd090e788546506e076f878987876040516105a794939291906137f3565b60405180910390a29695505050505050565b6001600160a01b03811660009081526001602052604081206105da90611a9a565b92915050565b6105e861308a565b60006105f383611aa4565b815481106106035761060361381c565b60009182526020918290206040805161016081018252600b9093029091018054835260018101546001600160a01b03908116948401949094526002810154909316908201526003820154606082015260048201546080820152600582015460a0820152600682015460c0820152600782015460e082015260088201546101008201526009820154610120820152600a82018054919291610140840191906106a990613832565b80601f01602080910402602001604051908101604052809291908181526020018280546106d590613832565b80156107225780601f106106f757610100808354040283529160200191610722565b820191906000526020600020905b81548152906001019060200180831161070557829003601f168201915b5050505050815250509050919050565b61073a61308a565b600082815481106106035761060361381c565b60006107576108b5565b61075f611235565b6107699190613882565b905090565b6001600160a01b038316600090815260086020526040902060609061079290611a9a565b82106107c9576001600160a01b03841660009081526008602052604090206001906107bc90611a9a565b6107c69190613895565b91505b60006107d58484613895565b6107e0906001613882565b90506000816001600160401b038111156107fc576107fc613134565b60405190808252806020026020018201604052801561083557816020015b61082261308a565b81526020019060019003908161081a5790505b5090506000855b8581116108a7576001600160a01b03881660009081526008602052604090206108699061021b9083611b40565b83838151811061087b5761087b61381c565b60200260200101819052508180610891906138a8565b925050808061089f906138a8565b91505061083c565b5090925050505b9392505050565b60006107696005611a9a565b816108cb81611aa4565b506000806108d885611aa4565b815481106108e8576108e861381c565b60009182526020909120600b9091020160028101549091506001600160a01b03163381146109285760405162461bcd60e51b815260040161049c906138c1565b6002820180546001600160a01b0319166001600160a01b03868116919091179091556001808401548216600090815260076020526040902090810154909116158015906109ba576001600160a01b03831660009081526001602052604090206109919088611b4c565b506001600160a01b03861660009081526001602052604090206109b49088611b58565b50610a01565b6001600160a01b03831660009081526002602052604090206109dc9088611b4c565b506001600160a01b03861660009081526002602052604090206109ff9088611b58565b505b604080518881526001600160a01b03858116602083015288168183015290517f9075ad040756c0d8743a1fed927066a92c4755071615bf61e04b17583d961caf9181900360600190a150505050505050565b610a5b61308a565b81610a6584611863565b11610aa25760405162461bcd60e51b815260206004820152600d60248201526c092dcecc2d8d2c840d2dcc8caf609b1b604482015260640161049c565b6001600160a01b03831660009081526002602052604090206108ae9061021b9084611b40565b80610ad281611aa4565b50600080610adf84611aa4565b81548110610aef57610aef61381c565b600091825260209091206002600b90920201908101549091506001600160a01b03163314610b2f5760405162461bcd60e51b815260040161049c906138c1565b600681015415610b4757610b4281611b64565b505050565b610b4281611ef9565b600080610b5c836105e0565b90506108ae81612118565b6060610b736005611a9a565b8210610b92576001610b856005611a9a565b610b8f9190613895565b91505b6000610b9e8484613895565b610ba9906001613882565b90506000816001600160401b03811115610bc557610bc5613134565b604051908082528060200260200182016040528015610c1057816020015b6040805160608101825260008082526020808301829052928201528252600019909201910181610be35790505b5090506000855b858111610cb25760076000610c2d600584611b40565b6001600160a01b03908116825260208083019390935260409182016000208251606081018452815483168152600182015490921693820193909352600290920154908201528351849084908110610c8657610c8661381c565b60200260200101819052508180610c9c906138a8565b9250508080610caa906138a8565b915050610c17565b509095945050505050565b604080516060810182526000808252602082018190529181019190915260076000610ce9600585611b40565b6001600160a01b039081168252602080830193909352604091820160002082516060810184528154831681526001820154909216938201939093526002909201549082015292915050565b604080516060810182526000808252602082018190529181019190915260076000610ce9600385611b40565b610d6b8160006108c1565b50565b6060610d7a6003611a9a565b8210610d99576001610d8c6003611a9a565b610d969190613895565b91505b6000610da58484613895565b610db0906001613882565b90506000816001600160401b03811115610dcc57610dcc613134565b604051908082528060200260200182016040528015610e1757816020015b6040805160608101825260008082526020808301829052928201528252600019909201910181610dea5790505b5090506000855b858111610cb25760076000610e34600384611b40565b6001600160a01b03908116825260208083019390935260409182016000208251606081018452815483168152600182015490921693820193909352600290920154908201528351849084908110610e8d57610e8d61381c565b60200260200101819052508180610ea3906138a8565b9250508080610eb1906138a8565b915050610e1e565b6001600160a01b038116600090815260016020526040812060609190610ede90611a9a565b90506000816001600160401b03811115610efa57610efa613134565b604051908082528060200260200182016040528015610f3357816020015b610f2061308a565b815260200190600190039081610f185790505b50905060005b82811015610f97576001600160a01b0385166000908152600160205260409020610f679061021b9083611b40565b828281518110610f7957610f7961381c565b60200260200101819052508080610f8f906138a8565b915050610f39565b509392505050565b82610fa981611aa4565b50600080610fb686611aa4565b81548110610fc657610fc661381c565b600091825260209091206002600b90920201908101549091506001600160a01b031633146110065760405162461bcd60e51b815260040161049c906138c1565b60098101541561104c5760405162461bcd60e51b8152602060048201526011602482015270131bd8dac81dd85cc81d5b9b1bd8dad959607a1b604482015260640161049c565b82156110ed578060050154831015801561106557504283115b6110e55760405162461bcd60e51b8152602060048201526044602482018190527f4e657720756e6c6f636b2074696d652073686f756c64206e6f74206265206265908201527f666f7265206f6c6420756e6c6f636b2074696d65206f722063757272656e742060648201526374696d6560e01b608482015260a40161049c565b600581018390555b83156111d15780600301548410156111615760405162461bcd60e51b815260206004820152603160248201527f4e657720616d6f756e742073686f756c64206e6f74206265206c657373207468604482015270185b8818dd5c9c995b9d08185b5bdd5b9d607a1b606482015260840161049c565b60008160030154856111739190613895565b905080156111cf576003820185905560018201546001600160a01b0316600090815260076020526040902060028101546111ae908390613882565b600282015560018301546111cd906001600160a01b0316333085611945565b505b505b805460018201546002830154600384015460058501546040517fa8b26360df8d5e154ffa5a8a7e894e85f781acfbbef0b744fb9551d8fd0fd36c94611226946001600160a01b039182169491169290916137f3565b60405180910390a25050505050565b60006107696003611a9a565b60006001600160a01b0389166112695760405162461bcd60e51b815260040161049c906137cc565b600087116112b95760405162461bcd60e51b815260206004820152601f60248201527f416d6f756e742073686f756c642062652067726561746572207468616e203000604482015260640161049c565b4286116113085760405162461bcd60e51b815260206004820181905260248201527f54474520646174652073686f756c6420626520696e2074686520667574757265604482015260640161049c565b600084116113485760405162461bcd60e51b815260206004820152600d60248201526c496e76616c6964206379636c6560981b604482015260640161049c565b600085118015611359575061271085105b61139c5760405162461bcd60e51b8152602060048201526014602482015273496e76616c6964206269707320666f722054474560601b604482015260640161049c565b6000831180156113ad575061271083105b6113f25760405162461bcd60e51b8152602060048201526016602482015275496e76616c6964206269707320666f72206379636c6560501b604482015260640161049c565b6127106113ff8487613882565b111561141d5760405162461bcd60e51b815260040161049c90613903565b61142e8a8a8a8a8a8a8a8a8a6118f9565b905061143c8933308a611945565b807f694af1cc8727cdd0afbdd53d9b87b69248bd490224e9dd090e788546506e076f8a8c8a8a60405161147294939291906137f3565b60405180910390a25b9998505050505050505050565b6000611493826105b9565b61149c83611863565b6105da9190613882565b816114b081611aa4565b506000806114bd85611aa4565b815481106114cd576114cd61381c565b600091825260209091206002600b90920201908101549091506001600160a01b0316331461150d5760405162461bcd60e51b815260040161049c906138c1565b600a810161151b848261399b565b506040518481527fe4a1120fd509c50aec65802fd3c3c9a4b72bf746fe9a552396185c6de928e8aa9060200160405180910390a150505050565b6001600160a01b03811660009081526002602052604081206060919061157a90611a9a565b90506000816001600160401b0381111561159657611596613134565b6040519080825280602002602001820160405280156115cf57816020015b6115bc61308a565b8152602001906001900390816115b45790505b50905060005b82811015610f97576001600160a01b03851660009081526002602052604090206116039061021b9083611b40565b8282815181106116155761161561381c565b6020026020010181905250808061162b906138a8565b9150506115d5565b60606001600160a01b03881661165b5760405162461bcd60e51b815260040161049c906137cc565b8a891461169e5760405162461bcd60e51b815260206004820152601160248201527013195b99dd1a081b5a5cdb585d18da1959607a1b604482015260640161049c565b4286116116ed5760405162461bcd60e51b815260206004820181905260248201527f54474520646174652073686f756c6420626520696e2074686520667574757265604482015260640161049c565b6000841161172d5760405162461bcd60e51b815260206004820152600d60248201526c496e76616c6964206379636c6560981b604482015260640161049c565b60008511801561173e575061271085105b6117815760405162461bcd60e51b8152602060048201526014602482015273496e76616c6964206269707320666f722054474560601b604482015260640161049c565b600083118015611792575061271083105b6117d75760405162461bcd60e51b8152602060048201526016602482015275496e76616c6964206269707320666f72206379636c6560501b604482015260640161049c565b6127106117e48487613882565b11156118025760405162461bcd60e51b815260040161049c90613903565b6118328c8c8c8c8c8c60405180608001604052808e81526020018d81526020018c81526020018b8152508961222c565b9c9b505050505050505050505050565b6001600160a01b03811660009081526008602052604081206105da90611a9a565b6001600160a01b03811660009081526002602052604081206105da90611a9a565b61188c61308a565b81611896846105b9565b116118d35760405162461bcd60e51b815260206004820152600d60248201526c092dcecc2d8d2c840d2dcc8caf609b1b604482015260640161049c565b6001600160a01b03831660009081526001602052604090206108ae9061021b9084611b40565b6000871561192757600061190c8a612422565b905061191f8b8b838b8b8b8b8b8b612536565b91505061147b565b6119378a8a89898989898961260f565b9a9950505050505050505050565b6040516370a0823160e01b81526001600160a01b038381166004830152600091908616906370a0823190602401602060405180830381865afa15801561198f573d6000803e3d6000fd5b505050506040513d601f19601f820116820180604052508101906119b39190613a5a565b90506119ca6001600160a01b0386168585856126e1565b6040516370a0823160e01b81526001600160a01b038481166004830152600091908716906370a0823190602401602060405180830381865afa158015611a14573d6000803e3d6000fd5b505050506040513d601f19601f82011682018060405250810190611a389190613a5a565b905082611a458383613895565b14611a925760405162461bcd60e51b815260206004820152601f60248201527f4e6f7420656e6f75676820746f6b656e20776173207472616e73666572656400604482015260640161049c565b505050505050565b60006105da825490565b6000620f4240821015611aeb5760405162461bcd60e51b815260206004820152600f60248201526e125b9d985b1a59081b1bd8dac81a59608a1b604482015260640161049c565b6000611afa620f424084613895565b60005490915081106105da5760405162461bcd60e51b815260206004820152600f60248201526e125b9d985b1a59081b1bd8dac81a59608a1b604482015260640161049c565b60006108ae8383612752565b60006108ae838361277c565b60006108ae838361286f565b60408051610160810182528254815260018301546001600160a01b039081166020830152600284015416918101919091526003820154606082015260048201546080820152600582015460a0820152600682015460c0820152600782015460e082015260088201546101008201526009820154610120820152600a82018054600092611c849290918591610140840191611bfd90613832565b80601f0160208091040260200160405190810160405280929190818152602001828054611c2990613832565b8015611c765780601f10611c4b57610100808354040283529160200191611c76565b820191906000526020600020905b815481529060010190602001808311611c5957829003601f168201915b505050505081525050612118565b90506000818360090154611c989190613882565b9050600082118015611cae575082600301548111155b611cee5760405162461bcd60e51b81526020600482015260116024820152704e6f7468696e6720746f20756e6c6f636b60781b604482015260640161049c565b6001808401546001600160a01b03908116600090815260076020526040902091820154600386015491161515908303611ddb578015611d47578454336000908152600160205260409020611d4191611b4c565b50611d63565b8454336000908152600260205260409020611d6191611b4c565b505b845460018601546001600160a01b03166000908152600860205260409020611d8a91611b4c565b50845460018601546040517fc6532367992b32e42a62dd89fc3574876d97d081a263aa6e030f34b79b7e6e8b91611dd2916001600160a01b03909116903390889042906137f3565b60405180910390a25b83826002015411611df25760006002830155611e08565b838260020154611e029190613895565b60028301555b8160020154600003611e56578015611e3a576001850154611e34906003906001600160a01b03166128be565b50611e56565b6001850154611e54906005906001600160a01b03166128be565b505b6009850183905560028501546001860154611e7e916001600160a01b039182169116866128d3565b84546001860154600987015460038801547ff93385ffdf40b698b13993c059834b8e91d0ca8e7abf827a34001ca03c03f6ff926001600160a01b03169133918991611ec891613895565b604080516001600160a01b03958616815294909316602085015291830152606082015242608082015260a001611226565b8060050154421015611f4d5760405162461bcd60e51b815260206004820152601860248201527f4974206973206e6f742074696d6520746f20756e6c6f636b0000000000000000604482015260640161049c565b600981015415611f935760405162461bcd60e51b81526020600482015260116024820152704e6f7468696e6720746f20756e6c6f636b60781b604482015260640161049c565b6001808201546001600160a01b039081166000908152600760205260409020918201541615801590611fdf578254336000908152600160205260409020611fd991611b4c565b50611ffb565b8254336000908152600260205260409020611ff991611b4c565b505b600383015460028301548110612017576000600284015561202d565b8083600201546120279190613895565b60028401555b826002015460000361207b57811561205f576001840154612059906003906001600160a01b03166128be565b5061207b565b6001840154612079906005906001600160a01b03166128be565b505b60098401819055835460018501546001600160a01b031660009081526008602052604090206120a991611b4c565b5060018401546120c3906001600160a01b031633836128d3565b835460018501546040517fc6532367992b32e42a62dd89fc3574876d97d081a263aa6e030f34b79b7e6e8b9161210a916001600160a01b03909116903390869042906137f3565b60405180910390a250505050565b6000816060015160000361212e57506000919050565b81606001518261012001511061214657506000919050565b8160a0015142101561215a57506000919050565b8160e0015160000361216e57506000919050565b600061218583606001518460c00151612710612903565b9050600061219f8460600151856101000151612710612903565b905060008460a0015142106121e65782828660e001518760a00151426121c59190613895565b6121cf9190613a73565b6121d99190613a95565b6121e39190613882565b90505b600085606001518211156122105785610120015186606001516122099190613895565b9050612223565b6101208601516122209083613895565b90505b95945050505050565b60606001600160a01b0385166122545760405162461bcd60e51b815260040161049c906137cc565b600061226088886129b1565b9050886000816001600160401b0381111561227d5761227d613134565b6040519080825280602002602001820160405280156122a6578160200160208202803683370190505b50905060005b828110156124065761232a8d8d838181106122c9576122c961381c565b90506020020160208101906122de919061325c565b8a8a8e8e868181106122f2576122f261381c565b905060200201358b60006004811061230c5761230c61381c565b60209081029190910151908d015160408e015160608f01518e6118f9565b82828151811061233c5761233c61381c565b60200260200101818152505081818151811061235a5761235a61381c565b60200260200101517f694af1cc8727cdd0afbdd53d9b87b69248bd490224e9dd090e788546506e076f8a8f8f858181106123965761239661381c565b90506020020160208101906123ab919061325c565b8e8e868181106123bd576123bd61381c565b905060200201358b6000600481106123d7576123d761381c565b60200201516040516123ec94939291906137f3565b60405180910390a2806123fe816138a8565b9150506122ac565b5061241388333086611945565b9b9a5050505050505050505050565b600080826001600160a01b031663c45a01556040518163ffffffff1660e01b8152600401602060405180830381865afa92505050801561247f575060408051601f3d908101601f1916820190925261247c91810190613aac565b60015b6124cb5760405162461bcd60e51b815260206004820152601c60248201527f5468697320746f6b656e206973206e6f742061204c5020746f6b656e00000000604482015260640161049c565b90506001600160a01b038116158015906124ea57506124ea8382612a54565b6105da5760405162461bcd60e51b815260206004820152601d60248201527f5468697320746f6b656e206973206e6f742061204c5020746f6b656e2e000000604482015260640161049c565b60006125488a8a898989898989612bb7565b6001600160a01b038b16600090815260016020526040902090915061256d9082611b58565b5061257960038a612e22565b506001600160a01b03808a16600090815260076020526040902080549091166125c95780546001600160a01b03808c166001600160a01b0319928316178355600183018054918c16919092161790555b8781600201546125d99190613882565b60028201556001600160a01b038a1660009081526008602052604090206126009083611b58565b50509998505050505050505050565b60006126218989898989898989612bb7565b6001600160a01b038a1660009081526002602052604090209091506126469082611b58565b50612652600589612e22565b506001600160a01b038089166000908152600760205260409020805490911661269c5780546001600160a01b038a166001600160a01b031991821617825560018201805490911690555b8781600201546126ac9190613882565b60028201556001600160a01b03891660009081526008602052604090206126d39083611b58565b505098975050505050505050565b6040516001600160a01b038085166024830152831660448201526064810182905261274c9085906323b872dd60e01b906084015b60408051601f198184030181529190526020810180516001600160e01b03166001600160e01b031990931692909217909152612e37565b50505050565b60008260000182815481106127695761276961381c565b9060005260206000200154905092915050565b600081815260018301602052604081205480156128655760006127a0600183613895565b85549091506000906127b490600190613895565b90508181146128195760008660000182815481106127d4576127d461381c565b90600052602060002001549050808760000184815481106127f7576127f761381c565b6000918252602080832090910192909255918252600188019052604090208390555b855486908061282a5761282a613ac9565b6001900381819060005260206000200160009055905585600101600086815260200190815260200160002060009055600193505050506105da565b60009150506105da565b60008181526001830160205260408120546128b6575081546001818101845560008481526020808220909301849055845484825282860190935260409020919091556105da565b5060006105da565b60006108ae836001600160a01b03841661277c565b6040516001600160a01b038316602482015260448101829052610b4290849063a9059cbb60e01b90606401612715565b600080806000198587098587029250828110838203039150508060000361293c576000841161293157600080fd5b5082900490506108ae565b80841161294857600080fd5b60008486880960026001871981018816978890046003810283188082028403028082028403028082028403028082028403028082028403029081029092039091026000889003889004909101858311909403939093029303949094049190911702949350505050565b600080805b83811015610f97578484828181106129d0576129d061381c565b90506020020135600003612a1c5760405162461bcd60e51b8152602060048201526013602482015272416d6f756e742063616e74206265207a65726f60681b604482015260640161049c565b848482818110612a2e57612a2e61381c565b9050602002013582612a409190613882565b915080612a4c816138a8565b9150506129b6565b6000808390506000836001600160a01b031663e6a43905836001600160a01b0316630dfe16816040518163ffffffff1660e01b8152600401602060405180830381865afa158015612aa9573d6000803e3d6000fd5b505050506040513d601f19601f82011682018060405250810190612acd9190613aac565b846001600160a01b031663d21220a76040518163ffffffff1660e01b8152600401602060405180830381865afa158015612b0b573d6000803e3d6000fd5b505050506040513d601f19601f82011682018060405250810190612b2f9190613aac565b6040516001600160e01b031960e085901b1681526001600160a01b03928316600482015291166024820152604401602060405180830381865afa158015612b7a573d6000803e3d6000fd5b505050506040513d601f19601f82011682018060405250810190612b9e9190613aac565b6001600160a01b03908116908616149250505092915050565b60008054612bc990620f424090613882565b60408051610160810182528281526001600160a01b03808c16602083019081528d8216938301938452606083018c8152426080850190815260a085018d815260c086018d815260e087018d815261010088018d815260006101208a018181526101408b018f815282546001810184559280528b51600b9093027f290decd9548b62a8d60345a988386fc84ba6bc95484008f6362f93160ef3e563810193845599517f290decd9548b62a8d60345a988386fc84ba6bc95484008f6362f93160ef3e5648b018054918d166001600160a01b03199283161790559c517f290decd9548b62a8d60345a988386fc84ba6bc95484008f6362f93160ef3e5658b01805491909c169d169c909c1790995595517f290decd9548b62a8d60345a988386fc84ba6bc95484008f6362f93160ef3e56688015593517f290decd9548b62a8d60345a988386fc84ba6bc95484008f6362f93160ef3e56787015591517f290decd9548b62a8d60345a988386fc84ba6bc95484008f6362f93160ef3e568860155517f290decd9548b62a8d60345a988386fc84ba6bc95484008f6362f93160ef3e569850155517f290decd9548b62a8d60345a988386fc84ba6bc95484008f6362f93160ef3e56a840155517f290decd9548b62a8d60345a988386fc84ba6bc95484008f6362f93160ef3e56b83015591517f290decd9548b62a8d60345a988386fc84ba6bc95484008f6362f93160ef3e56c8201559251939450909283927f290decd9548b62a8d60345a988386fc84ba6bc95484008f6362f93160ef3e56d0190612e12908261399b565b5050505098975050505050505050565b60006108ae836001600160a01b03841661286f565b6000612e8c826040518060400160405280602081526020017f5361666545524332303a206c6f772d6c6576656c2063616c6c206661696c6564815250856001600160a01b0316612f099092919063ffffffff16565b805190915015610b425780806020019051810190612eaa9190613adf565b610b425760405162461bcd60e51b815260206004820152602a60248201527f5361666545524332303a204552433230206f7065726174696f6e20646964206e6044820152691bdd081cdd58d8d9595960b21b606482015260840161049c565b6060612f188484600085612f20565b949350505050565b606082471015612f815760405162461bcd60e51b815260206004820152602660248201527f416464726573733a20696e73756666696369656e742062616c616e636520666f6044820152651c8818d85b1b60d21b606482015260840161049c565b6001600160a01b0385163b612fd85760405162461bcd60e51b815260206004820152601d60248201527f416464726573733a2063616c6c20746f206e6f6e2d636f6e7472616374000000604482015260640161049c565b600080866001600160a01b03168587604051612ff49190613afc565b60006040518083038185875af1925050503d8060008114613031576040519150601f19603f3d011682016040523d82523d6000602084013e613036565b606091505b5091509150613046828286613051565b979650505050505050565b606083156130605750816108ae565b8251156130705782518084602001fd5b8160405162461bcd60e51b815260040161049c9190613b18565b6040518061016001604052806000815260200160006001600160a01b0316815260200160006001600160a01b0316815260200160008152602001600081526020016000815260200160008152602001600081526020016000815260200160008152602001606081525090565b6001600160a01b0381168114610d6b57600080fd5b8035613116816130f6565b919050565b8015158114610d6b57600080fd5b80356131168161311b565b634e487b7160e01b600052604160045260246000fd5b600082601f83011261315b57600080fd5b81356001600160401b038082111561317557613175613134565b604051601f8301601f19908116603f0116810190828211818310171561319d5761319d613134565b816040528381528660208588010111156131b657600080fd5b836020870160208301376000602085830101528094505050505092915050565b60008060008060008060c087890312156131ef57600080fd5b86356131fa816130f6565b9550602087013561320a816130f6565b9450604087013561321a8161311b565b9350606087013592506080870135915060a08701356001600160401b0381111561324357600080fd5b61324f89828a0161314a565b9150509295509295509295565b60006020828403121561326e57600080fd5b81356108ae816130f6565b60006020828403121561328b57600080fd5b5035919050565b60005b838110156132ad578181015183820152602001613295565b50506000910152565b600081518084526132ce816020860160208601613292565b601f01601f19169290920160200192915050565b600061016082518452602083015161330560208601826001600160a01b03169052565b50604083015161332060408601826001600160a01b03169052565b50606083015160608501526080830151608085015260a083015160a085015260c083015160c085015260e083015160e0850152610100808401518186015250610120808401518186015250610140808401518282870152613383838701826132b6565b9695505050505050565b6020815260006108ae60208301846132e2565b6000806000606084860312156133b557600080fd5b83356133c0816130f6565b95602085013595506040909401359392505050565b6000602080830181845280855180835260408601915060408160051b870101925083870160005b8281101561342a57603f198886030184526134188583516132e2565b945092850192908501906001016133fc565b5092979650505050505050565b6000806040838503121561344a57600080fd5b82359150602083013561345c816130f6565b809150509250929050565b6000806040838503121561347a57600080fd5b8235613485816130f6565b946020939093013593505050565b600080604083850312156134a657600080fd5b50508035926020909101359150565b6020808252825182820181905260009190848201906040850190845b818110156135195761350683855180516001600160a01b03908116835260208083015190911690830152604090810151910152565b92840192606092909201916001016134d1565b50909695505050505050565b81516001600160a01b0390811682526020808401519091169082015260408083015190820152606081016105da565b60008060006060848603121561356957600080fd5b505081359360208301359350604090920135919050565b60008060008060008060008060006101208a8c03121561359f57600080fd5b89356135aa816130f6565b985060208a01356135ba816130f6565b975060408a01356135ca8161311b565b965060608a0135955060808a0135945060a08a0135935060c08a0135925060e08a013591506101008a01356001600160401b0381111561360957600080fd5b6136158c828d0161314a565b9150509295985092959850929598565b6000806040838503121561363857600080fd5b8235915060208301356001600160401b0381111561365557600080fd5b6136618582860161314a565b9150509250929050565b60008083601f84011261367d57600080fd5b5081356001600160401b0381111561369457600080fd5b6020830191508360208260051b85010111156136af57600080fd5b9250929050565b60008060008060008060008060008060006101208c8e0312156136d857600080fd5b6001600160401b03808d3511156136ee57600080fd5b6136fb8e8e358f0161366b565b909c509a5060208d013581101561371157600080fd5b6137218e60208f01358f0161366b565b909a50985061373260408e0161310b565b975061374060608e01613129565b965060808d0135955060a08d0135945060c08d0135935060e08d01359250806101008e0135111561377057600080fd5b506137828d6101008e01358e0161314a565b90509295989b509295989b9093969950565b6020808252825182820181905260009190848201906040850190845b81811015613519578351835292840192918401916001016137b0565b6020808252600d908201526c24b73b30b634b2103a37b5b2b760991b604082015260600190565b6001600160a01b0394851681529290931660208301526040820152606081019190915260800190565b634e487b7160e01b600052603260045260246000fd5b600181811c9082168061384657607f821691505b60208210810361386657634e487b7160e01b600052602260045260246000fd5b50919050565b634e487b7160e01b600052601160045260246000fd5b808201808211156105da576105da61386c565b818103818111156105da576105da61386c565b6000600182016138ba576138ba61386c565b5060010190565b60208082526022908201527f596f7520617265206e6f7420746865206f776e6572206f662074686973206c6f604082015261636b60f01b606082015260800190565b60208082526032908201527f53756d206f66205447452062707320616e64206379636c652073686f756c642060408201527106265206c657373207468616e2031303030360741b606082015260800190565b601f821115610b4257600081815260208120601f850160051c8101602086101561397c5750805b601f850160051c820191505b81811015611a9257828155600101613988565b81516001600160401b038111156139b4576139b4613134565b6139c8816139c28454613832565b84613955565b602080601f8311600181146139fd57600084156139e55750858301515b600019600386901b1c1916600185901b178555611a92565b600085815260208120601f198616915b82811015613a2c57888601518255948401946001909101908401613a0d565b5085821015613a4a5787850151600019600388901b60f8161c191681555b5050505050600190811b01905550565b600060208284031215613a6c57600080fd5b5051919050565b600082613a9057634e487b7160e01b600052601260045260246000fd5b500490565b80820281158282048414176105da576105da61386c565b600060208284031215613abe57600080fd5b81516108ae816130f6565b634e487b7160e01b600052603160045260246000fd5b600060208284031215613af157600080fd5b81516108ae8161311b565b60008251613b0e818460208701613292565b9190910192915050565b6020815260006108ae60208301846132b656fea26469706673582212201864082b34471b11b3a1f58b73c05869117ebf81d6cb6c2170d1bdbcbe17eea564736f6c63430008110033",
			"opcodes": "PUSH1 0x80 PUSH1 0x40 MSTORE CALLVALUE DUP1 ISZERO PUSH2 0x10 JUMPI PUSH1 0x0 DUP1 REVERT JUMPDEST POP PUSH2 0x3B61 DUP1 PUSH2 0x20 PUSH1 0x0 CODECOPY PUSH1 0x0 RETURN INVALID PUSH1 0x80 PUSH1 0x40 MSTORE CALLVALUE DUP1 ISZERO PUSH2 0x10 JUMPI PUSH1 0x0 DUP1 REVERT JUMPDEST POP PUSH1 0x4 CALLDATASIZE LT PUSH2 0x1CF JUMPI PUSH1 0x0 CALLDATALOAD PUSH1 0xE0 SHR DUP1 PUSH4 0xA57E3141 GT PUSH2 0x104 JUMPI DUP1 PUSH4 0xD3CAC885 GT PUSH2 0xA2 JUMPI DUP1 PUSH4 0xE3676F88 GT PUSH2 0x71 JUMPI DUP1 PUSH4 0xE3676F88 EQ PUSH2 0x433 JUMPI DUP1 PUSH4 0xEB80BDAE EQ PUSH2 0x446 JUMPI DUP1 PUSH4 0xEEACF786 EQ PUSH2 0x459 JUMPI DUP1 PUSH4 0xFD981C66 EQ PUSH2 0x46C JUMPI PUSH1 0x0 DUP1 REVERT JUMPDEST DUP1 PUSH4 0xD3CAC885 EQ PUSH2 0x38B JUMPI DUP1 PUSH4 0xDA1D8CFF EQ PUSH2 0x39E JUMPI DUP1 PUSH4 0xE0DA83CE EQ PUSH2 0x3B1 JUMPI DUP1 PUSH4 0xE1444FD6 EQ PUSH2 0x3D1 JUMPI PUSH1 0x0 DUP1 REVERT JUMPDEST DUP1 PUSH4 0xB3B9AA48 GT PUSH2 0xDE JUMPI DUP1 PUSH4 0xB3B9AA48 EQ PUSH2 0x34A JUMPI DUP1 PUSH4 0xB982922E EQ PUSH2 0x35D JUMPI DUP1 PUSH4 0xCB645E32 EQ PUSH2 0x365 JUMPI DUP1 PUSH4 0xCD83EADC EQ PUSH2 0x378 JUMPI PUSH1 0x0 DUP1 REVERT JUMPDEST DUP1 PUSH4 0xA57E3141 EQ PUSH2 0x311 JUMPI DUP1 PUSH4 0xAEC640C6 EQ PUSH2 0x324 JUMPI DUP1 PUSH4 0xAEF0E540 EQ PUSH2 0x337 JUMPI PUSH1 0x0 DUP1 REVERT JUMPDEST DUP1 PUSH4 0x5A04FB69 GT PUSH2 0x171 JUMPI DUP1 PUSH4 0x6DBDEAB3 GT PUSH2 0x14B JUMPI DUP1 PUSH4 0x6DBDEAB3 EQ PUSH2 0x2AB JUMPI DUP1 PUSH4 0x76C12822 EQ PUSH2 0x2BE JUMPI DUP1 PUSH4 0x7E6706D3 EQ PUSH2 0x2DE JUMPI DUP1 PUSH4 0xA20B8C18 EQ PUSH2 0x2FE JUMPI PUSH1 0x0 DUP1 REVERT JUMPDEST DUP1 PUSH4 0x5A04FB69 EQ PUSH2 0x270 JUMPI DUP1 PUSH4 0x618DF7A3 EQ PUSH2 0x285 JUMPI DUP1 PUSH4 0x6198E339 EQ PUSH2 0x298 JUMPI PUSH1 0x0 DUP1 REVERT JUMPDEST DUP1 PUSH4 0xD4F581A GT PUSH2 0x1AD JUMPI DUP1 PUSH4 0xD4F581A EQ PUSH2 0x22D JUMPI DUP1 PUSH4 0x1982242C EQ PUSH2 0x240 JUMPI DUP1 PUSH4 0x332F26D7 EQ PUSH2 0x248 JUMPI DUP1 PUSH4 0x475831C8 EQ PUSH2 0x268 JUMPI PUSH1 0x0 DUP1 REVERT JUMPDEST DUP1 PUSH4 0x7279357 EQ PUSH2 0x1D4 JUMPI DUP1 PUSH4 0x7873EF1 EQ PUSH2 0x1FA JUMPI DUP1 PUSH4 0x8F12470 EQ PUSH2 0x20D JUMPI JUMPDEST PUSH1 0x0 DUP1 REVERT JUMPDEST PUSH2 0x1E7 PUSH2 0x1E2 CALLDATASIZE PUSH1 0x4 PUSH2 0x31D6 JUMP JUMPDEST PUSH2 0x474 JUMP JUMPDEST PUSH1 0x40 MLOAD SWAP1 DUP2 MSTORE PUSH1 0x20 ADD JUMPDEST PUSH1 0x40 MLOAD DUP1 SWAP2 SUB SWAP1 RETURN JUMPDEST PUSH2 0x1E7 PUSH2 0x208 CALLDATASIZE PUSH1 0x4 PUSH2 0x325C JUMP JUMPDEST PUSH2 0x5B9 JUMP JUMPDEST PUSH2 0x220 PUSH2 0x21B CALLDATASIZE PUSH1 0x4 PUSH2 0x3279 JUMP JUMPDEST PUSH2 0x5E0 JUMP JUMPDEST PUSH1 0x40 MLOAD PUSH2 0x1F1 SWAP2 SWAP1 PUSH2 0x338D JUMP JUMPDEST PUSH2 0x220 PUSH2 0x23B CALLDATASIZE PUSH1 0x4 PUSH2 0x3279 JUMP JUMPDEST PUSH2 0x732 JUMP JUMPDEST PUSH2 0x1E7 PUSH2 0x74D JUMP JUMPDEST PUSH2 0x25B PUSH2 0x256 CALLDATASIZE PUSH1 0x4 PUSH2 0x33A0 JUMP JUMPDEST PUSH2 0x76E JUMP JUMPDEST PUSH1 0x40 MLOAD PUSH2 0x1F1 SWAP2 SWAP1 PUSH2 0x33D5 JUMP JUMPDEST PUSH2 0x1E7 PUSH2 0x8B5 JUMP JUMPDEST PUSH2 0x283 PUSH2 0x27E CALLDATASIZE PUSH1 0x4 PUSH2 0x3437 JUMP JUMPDEST PUSH2 0x8C1 JUMP JUMPDEST STOP JUMPDEST PUSH2 0x220 PUSH2 0x293 CALLDATASIZE PUSH1 0x4 PUSH2 0x3467 JUMP JUMPDEST PUSH2 0xA53 JUMP JUMPDEST PUSH2 0x283 PUSH2 0x2A6 CALLDATASIZE PUSH1 0x4 PUSH2 0x3279 JUMP JUMPDEST PUSH2 0xAC8 JUMP JUMPDEST PUSH2 0x1E7 PUSH2 0x2B9 CALLDATASIZE PUSH1 0x4 PUSH2 0x3279 JUMP JUMPDEST PUSH2 0xB50 JUMP JUMPDEST PUSH2 0x2D1 PUSH2 0x2CC CALLDATASIZE PUSH1 0x4 PUSH2 0x3493 JUMP JUMPDEST PUSH2 0xB67 JUMP JUMPDEST PUSH1 0x40 MLOAD PUSH2 0x1F1 SWAP2 SWAP1 PUSH2 0x34B5 JUMP JUMPDEST PUSH2 0x2F1 PUSH2 0x2EC CALLDATASIZE PUSH1 0x4 PUSH2 0x3279 JUMP JUMPDEST PUSH2 0xCBD JUMP JUMPDEST PUSH1 0x40 MLOAD PUSH2 0x1F1 SWAP2 SWAP1 PUSH2 0x3525 JUMP JUMPDEST PUSH2 0x2F1 PUSH2 0x30C CALLDATASIZE PUSH1 0x4 PUSH2 0x3279 JUMP JUMPDEST PUSH2 0xD34 JUMP JUMPDEST PUSH2 0x283 PUSH2 0x31F CALLDATASIZE PUSH1 0x4 PUSH2 0x3279 JUMP JUMPDEST PUSH2 0xD60 JUMP JUMPDEST PUSH2 0x2D1 PUSH2 0x332 CALLDATASIZE PUSH1 0x4 PUSH2 0x3493 JUMP JUMPDEST PUSH2 0xD6E JUMP JUMPDEST PUSH2 0x25B PUSH2 0x345 CALLDATASIZE PUSH1 0x4 PUSH2 0x325C JUMP JUMPDEST PUSH2 0xEB9 JUMP JUMPDEST PUSH2 0x283 PUSH2 0x358 CALLDATASIZE PUSH1 0x4 PUSH2 0x3554 JUMP JUMPDEST PUSH2 0xF9F JUMP JUMPDEST PUSH2 0x1E7 PUSH2 0x1235 JUMP JUMPDEST PUSH2 0x1E7 PUSH2 0x373 CALLDATASIZE PUSH1 0x4 PUSH2 0x3580 JUMP JUMPDEST PUSH2 0x1241 JUMP JUMPDEST PUSH2 0x1E7 PUSH2 0x386 CALLDATASIZE PUSH1 0x4 PUSH2 0x325C JUMP JUMPDEST PUSH2 0x1488 JUMP JUMPDEST PUSH2 0x283 PUSH2 0x399 CALLDATASIZE PUSH1 0x4 PUSH2 0x3625 JUMP JUMPDEST PUSH2 0x14A6 JUMP JUMPDEST PUSH2 0x25B PUSH2 0x3AC CALLDATASIZE PUSH1 0x4 PUSH2 0x325C JUMP JUMPDEST PUSH2 0x1555 JUMP JUMPDEST PUSH2 0x3C4 PUSH2 0x3BF CALLDATASIZE PUSH1 0x4 PUSH2 0x36B6 JUMP JUMPDEST PUSH2 0x1633 JUMP JUMPDEST PUSH1 0x40 MLOAD PUSH2 0x1F1 SWAP2 SWAP1 PUSH2 0x3794 JUMP JUMPDEST PUSH2 0x40D PUSH2 0x3DF CALLDATASIZE PUSH1 0x4 PUSH2 0x325C JUMP JUMPDEST PUSH1 0x7 PUSH1 0x20 MSTORE PUSH1 0x0 SWAP1 DUP2 MSTORE PUSH1 0x40 SWAP1 KECCAK256 DUP1 SLOAD PUSH1 0x1 DUP3 ADD SLOAD PUSH1 0x2 SWAP1 SWAP3 ADD SLOAD PUSH1 0x1 PUSH1 0x1 PUSH1 0xA0 SHL SUB SWAP2 DUP3 AND SWAP3 SWAP1 SWAP2 AND SWAP1 DUP4 JUMP JUMPDEST PUSH1 0x40 DUP1 MLOAD PUSH1 0x1 PUSH1 0x1 PUSH1 0xA0 SHL SUB SWAP5 DUP6 AND DUP2 MSTORE SWAP4 SWAP1 SWAP3 AND PUSH1 0x20 DUP5 ADD MSTORE SWAP1 DUP3 ADD MSTORE PUSH1 0x60 ADD PUSH2 0x1F1 JUMP JUMPDEST PUSH2 0x1E7 PUSH2 0x441 CALLDATASIZE PUSH1 0x4 PUSH2 0x325C JUMP JUMPDEST PUSH2 0x1842 JUMP JUMPDEST PUSH2 0x1E7 PUSH2 0x454 CALLDATASIZE PUSH1 0x4 PUSH2 0x325C JUMP JUMPDEST PUSH2 0x1863 JUMP JUMPDEST PUSH2 0x220 PUSH2 0x467 CALLDATASIZE PUSH1 0x4 PUSH2 0x3467 JUMP JUMPDEST PUSH2 0x1884 JUMP JUMPDEST PUSH1 0x0 SLOAD PUSH2 0x1E7 JUMP JUMPDEST PUSH1 0x0 PUSH1 0x1 PUSH1 0x1 PUSH1 0xA0 SHL SUB DUP7 AND PUSH2 0x4A5 JUMPI PUSH1 0x40 MLOAD PUSH3 0x461BCD PUSH1 0xE5 SHL DUP2 MSTORE PUSH1 0x4 ADD PUSH2 0x49C SWAP1 PUSH2 0x37CC JUMP JUMPDEST PUSH1 0x40 MLOAD DUP1 SWAP2 SUB SWAP1 REVERT JUMPDEST PUSH1 0x0 DUP5 GT PUSH2 0x4F5 JUMPI PUSH1 0x40 MLOAD PUSH3 0x461BCD PUSH1 0xE5 SHL DUP2 MSTORE PUSH1 0x20 PUSH1 0x4 DUP3 ADD MSTORE PUSH1 0x1F PUSH1 0x24 DUP3 ADD MSTORE PUSH32 0x416D6F756E742073686F756C642062652067726561746572207468616E203000 PUSH1 0x44 DUP3 ADD MSTORE PUSH1 0x64 ADD PUSH2 0x49C JUMP JUMPDEST TIMESTAMP DUP4 GT PUSH2 0x550 JUMPI PUSH1 0x40 MLOAD PUSH3 0x461BCD PUSH1 0xE5 SHL DUP2 MSTORE PUSH1 0x20 PUSH1 0x4 DUP3 ADD MSTORE PUSH1 0x23 PUSH1 0x24 DUP3 ADD MSTORE PUSH32 0x556E6C6F636B20646174652073686F756C6420626520696E2074686520667574 PUSH1 0x44 DUP3 ADD MSTORE PUSH3 0x757265 PUSH1 0xE8 SHL PUSH1 0x64 DUP3 ADD MSTORE PUSH1 0x84 ADD PUSH2 0x49C JUMP JUMPDEST PUSH2 0x563 DUP8 DUP8 DUP8 DUP8 DUP8 PUSH1 0x0 DUP1 PUSH1 0x0 DUP11 PUSH2 0x18F9 JUMP JUMPDEST SWAP1 POP PUSH2 0x571 DUP7 CALLER ADDRESS DUP8 PUSH2 0x1945 JUMP JUMPDEST DUP1 PUSH32 0x694AF1CC8727CDD0AFBDD53D9B87B69248BD490224E9DD090E788546506E076F DUP8 DUP10 DUP8 DUP8 PUSH1 0x40 MLOAD PUSH2 0x5A7 SWAP5 SWAP4 SWAP3 SWAP2 SWAP1 PUSH2 0x37F3 JUMP JUMPDEST PUSH1 0x40 MLOAD DUP1 SWAP2 SUB SWAP1 LOG2 SWAP7 SWAP6 POP POP POP POP POP POP JUMP JUMPDEST PUSH1 0x1 PUSH1 0x1 PUSH1 0xA0 SHL SUB DUP2 AND PUSH1 0x0 SWAP1 DUP2 MSTORE PUSH1 0x1 PUSH1 0x20 MSTORE PUSH1 0x40 DUP2 KECCAK256 PUSH2 0x5DA SWAP1 PUSH2 0x1A9A JUMP JUMPDEST SWAP3 SWAP2 POP POP JUMP JUMPDEST PUSH2 0x5E8 PUSH2 0x308A JUMP JUMPDEST PUSH1 0x0 PUSH2 0x5F3 DUP4 PUSH2 0x1AA4 JUMP JUMPDEST DUP2 SLOAD DUP2 LT PUSH2 0x603 JUMPI PUSH2 0x603 PUSH2 0x381C JUMP JUMPDEST PUSH1 0x0 SWAP2 DUP3 MSTORE PUSH1 0x20 SWAP2 DUP3 SWAP1 KECCAK256 PUSH1 0x40 DUP1 MLOAD PUSH2 0x160 DUP2 ADD DUP3 MSTORE PUSH1 0xB SWAP1 SWAP4 MUL SWAP1 SWAP2 ADD DUP1 SLOAD DUP4 MSTORE PUSH1 0x1 DUP2 ADD SLOAD PUSH1 0x1 PUSH1 0x1 PUSH1 0xA0 SHL SUB SWAP1 DUP2 AND SWAP5 DUP5 ADD SWAP5 SWAP1 SWAP5 MSTORE PUSH1 0x2 DUP2 ADD SLOAD SWAP1 SWAP4 AND SWAP1 DUP3 ADD MSTORE PUSH1 0x3 DUP3 ADD SLOAD PUSH1 0x60 DUP3 ADD MSTORE PUSH1 0x4 DUP3 ADD SLOAD PUSH1 0x80 DUP3 ADD MSTORE PUSH1 0x5 DUP3 ADD SLOAD PUSH1 0xA0 DUP3 ADD MSTORE PUSH1 0x6 DUP3 ADD SLOAD PUSH1 0xC0 DUP3 ADD MSTORE PUSH1 0x7 DUP3 ADD SLOAD PUSH1 0xE0 DUP3 ADD MSTORE PUSH1 0x8 DUP3 ADD SLOAD PUSH2 0x100 DUP3 ADD MSTORE PUSH1 0x9 DUP3 ADD SLOAD PUSH2 0x120 DUP3 ADD MSTORE PUSH1 0xA DUP3 ADD DUP1 SLOAD SWAP2 SWAP3 SWAP2 PUSH2 0x140 DUP5 ADD SWAP2 SWAP1 PUSH2 0x6A9 SWAP1 PUSH2 0x3832 JUMP JUMPDEST DUP1 PUSH1 0x1F ADD PUSH1 0x20 DUP1 SWAP2 DIV MUL PUSH1 0x20 ADD PUSH1 0x40 MLOAD SWAP1 DUP2 ADD PUSH1 0x40 MSTORE DUP1 SWAP3 SWAP2 SWAP1 DUP2 DUP2 MSTORE PUSH1 0x20 ADD DUP3 DUP1 SLOAD PUSH2 0x6D5 SWAP1 PUSH2 0x3832 JUMP JUMPDEST DUP1 ISZERO PUSH2 0x722 JUMPI DUP1 PUSH1 0x1F LT PUSH2 0x6F7 JUMPI PUSH2 0x100 DUP1 DUP4 SLOAD DIV MUL DUP4 MSTORE SWAP2 PUSH1 0x20 ADD SWAP2 PUSH2 0x722 JUMP JUMPDEST DUP3 ADD SWAP2 SWAP1 PUSH1 0x0 MSTORE PUSH1 0x20 PUSH1 0x0 KECCAK256 SWAP1 JUMPDEST DUP2 SLOAD DUP2 MSTORE SWAP1 PUSH1 0x1 ADD SWAP1 PUSH1 0x20 ADD DUP1 DUP4 GT PUSH2 0x705 JUMPI DUP3 SWAP1 SUB PUSH1 0x1F AND DUP3 ADD SWAP2 JUMPDEST POP POP POP POP POP DUP2 MSTORE POP POP SWAP1 POP SWAP2 SWAP1 POP JUMP JUMPDEST PUSH2 0x73A PUSH2 0x308A JUMP JUMPDEST PUSH1 0x0 DUP3 DUP2 SLOAD DUP2 LT PUSH2 0x603 JUMPI PUSH2 0x603 PUSH2 0x381C JUMP JUMPDEST PUSH1 0x0 PUSH2 0x757 PUSH2 0x8B5 JUMP JUMPDEST PUSH2 0x75F PUSH2 0x1235 JUMP JUMPDEST PUSH2 0x769 SWAP2 SWAP1 PUSH2 0x3882 JUMP JUMPDEST SWAP1 POP SWAP1 JUMP JUMPDEST PUSH1 0x1 PUSH1 0x1 PUSH1 0xA0 SHL SUB DUP4 AND PUSH1 0x0 SWAP1 DUP2 MSTORE PUSH1 0x8 PUSH1 0x20 MSTORE PUSH1 0x40 SWAP1 KECCAK256 PUSH1 0x60 SWAP1 PUSH2 0x792 SWAP1 PUSH2 0x1A9A JUMP JUMPDEST DUP3 LT PUSH2 0x7C9 JUMPI PUSH1 0x1 PUSH1 0x1 PUSH1 0xA0 SHL SUB DUP5 AND PUSH1 0x0 SWAP1 DUP2 MSTORE PUSH1 0x8 PUSH1 0x20 MSTORE PUSH1 0x40 SWAP1 KECCAK256 PUSH1 0x1 SWAP1 PUSH2 0x7BC SWAP1 PUSH2 0x1A9A JUMP JUMPDEST PUSH2 0x7C6 SWAP2 SWAP1 PUSH2 0x3895 JUMP JUMPDEST SWAP2 POP JUMPDEST PUSH1 0x0 PUSH2 0x7D5 DUP5 DUP5 PUSH2 0x3895 JUMP JUMPDEST PUSH2 0x7E0 SWAP1 PUSH1 0x1 PUSH2 0x3882 JUMP JUMPDEST SWAP1 POP PUSH1 0x0 DUP2 PUSH1 0x1 PUSH1 0x1 PUSH1 0x40 SHL SUB DUP2 GT ISZERO PUSH2 0x7FC JUMPI PUSH2 0x7FC PUSH2 0x3134 JUMP JUMPDEST PUSH1 0x40 MLOAD SWAP1 DUP1 DUP3 MSTORE DUP1 PUSH1 0x20 MUL PUSH1 0x20 ADD DUP3 ADD PUSH1 0x40 MSTORE DUP1 ISZERO PUSH2 0x835 JUMPI DUP2 PUSH1 0x20 ADD JUMPDEST PUSH2 0x822 PUSH2 0x308A JUMP JUMPDEST DUP2 MSTORE PUSH1 0x20 ADD SWAP1 PUSH1 0x1 SWAP1 SUB SWAP1 DUP2 PUSH2 0x81A JUMPI SWAP1 POP JUMPDEST POP SWAP1 POP PUSH1 0x0 DUP6 JUMPDEST DUP6 DUP2 GT PUSH2 0x8A7 JUMPI PUSH1 0x1 PUSH1 0x1 PUSH1 0xA0 SHL SUB DUP9 AND PUSH1 0x0 SWAP1 DUP2 MSTORE PUSH1 0x8 PUSH1 0x20 MSTORE PUSH1 0x40 SWAP1 KECCAK256 PUSH2 0x869 SWAP1 PUSH2 0x21B SWAP1 DUP4 PUSH2 0x1B40 JUMP JUMPDEST DUP4 DUP4 DUP2 MLOAD DUP2 LT PUSH2 0x87B JUMPI PUSH2 0x87B PUSH2 0x381C JUMP JUMPDEST PUSH1 0x20 MUL PUSH1 0x20 ADD ADD DUP2 SWAP1 MSTORE POP DUP2 DUP1 PUSH2 0x891 SWAP1 PUSH2 0x38A8 JUMP JUMPDEST SWAP3 POP POP DUP1 DUP1 PUSH2 0x89F SWAP1 PUSH2 0x38A8 JUMP JUMPDEST SWAP2 POP POP PUSH2 0x83C JUMP JUMPDEST POP SWAP1 SWAP3 POP POP POP JUMPDEST SWAP4 SWAP3 POP POP POP JUMP JUMPDEST PUSH1 0x0 PUSH2 0x769 PUSH1 0x5 PUSH2 0x1A9A JUMP JUMPDEST DUP2 PUSH2 0x8CB DUP2 PUSH2 0x1AA4 JUMP JUMPDEST POP PUSH1 0x0 DUP1 PUSH2 0x8D8 DUP6 PUSH2 0x1AA4 JUMP JUMPDEST DUP2 SLOAD DUP2 LT PUSH2 0x8E8 JUMPI PUSH2 0x8E8 PUSH2 0x381C JUMP JUMPDEST PUSH1 0x0 SWAP2 DUP3 MSTORE PUSH1 0x20 SWAP1 SWAP2 KECCAK256 PUSH1 0xB SWAP1 SWAP2 MUL ADD PUSH1 0x2 DUP2 ADD SLOAD SWAP1 SWAP2 POP PUSH1 0x1 PUSH1 0x1 PUSH1 0xA0 SHL SUB AND CALLER DUP2 EQ PUSH2 0x928 JUMPI PUSH1 0x40 MLOAD PUSH3 0x461BCD PUSH1 0xE5 SHL DUP2 MSTORE PUSH1 0x4 ADD PUSH2 0x49C SWAP1 PUSH2 0x38C1 JUMP JUMPDEST PUSH1 0x2 DUP3 ADD DUP1 SLOAD PUSH1 0x1 PUSH1 0x1 PUSH1 0xA0 SHL SUB NOT AND PUSH1 0x1 PUSH1 0x1 PUSH1 0xA0 SHL SUB DUP7 DUP2 AND SWAP2 SWAP1 SWAP2 OR SWAP1 SWAP2 SSTORE PUSH1 0x1 DUP1 DUP5 ADD SLOAD DUP3 AND PUSH1 0x0 SWAP1 DUP2 MSTORE PUSH1 0x7 PUSH1 0x20 MSTORE PUSH1 0x40 SWAP1 KECCAK256 SWAP1 DUP2 ADD SLOAD SWAP1 SWAP2 AND ISZERO DUP1 ISZERO SWAP1 PUSH2 0x9BA JUMPI PUSH1 0x1 PUSH1 0x1 PUSH1 0xA0 SHL SUB DUP4 AND PUSH1 0x0 SWAP1 DUP2 MSTORE PUSH1 0x1 PUSH1 0x20 MSTORE PUSH1 0x40 SWAP1 KECCAK256 PUSH2 0x991 SWAP1 DUP9 PUSH2 0x1B4C JUMP JUMPDEST POP PUSH1 0x1 PUSH1 0x1 PUSH1 0xA0 SHL SUB DUP7 AND PUSH1 0x0 SWAP1 DUP2 MSTORE PUSH1 0x1 PUSH1 0x20 MSTORE PUSH1 0x40 SWAP1 KECCAK256 PUSH2 0x9B4 SWAP1 DUP9 PUSH2 0x1B58 JUMP JUMPDEST POP PUSH2 0xA01 JUMP JUMPDEST PUSH1 0x1 PUSH1 0x1 PUSH1 0xA0 SHL SUB DUP4 AND PUSH1 0x0 SWAP1 DUP2 MSTORE PUSH1 0x2 PUSH1 0x20 MSTORE PUSH1 0x40 SWAP1 KECCAK256 PUSH2 0x9DC SWAP1 DUP9 PUSH2 0x1B4C JUMP JUMPDEST POP PUSH1 0x1 PUSH1 0x1 PUSH1 0xA0 SHL SUB DUP7 AND PUSH1 0x0 SWAP1 DUP2 MSTORE PUSH1 0x2 PUSH1 0x20 MSTORE PUSH1 0x40 SWAP1 KECCAK256 PUSH2 0x9FF SWAP1 DUP9 PUSH2 0x1B58 JUMP JUMPDEST POP JUMPDEST PUSH1 0x40 DUP1 MLOAD DUP9 DUP2 MSTORE PUSH1 0x1 PUSH1 0x1 PUSH1 0xA0 SHL SUB DUP6 DUP2 AND PUSH1 0x20 DUP4 ADD MSTORE DUP9 AND DUP2 DUP4 ADD MSTORE SWAP1 MLOAD PUSH32 0x9075AD040756C0D8743A1FED927066A92C4755071615BF61E04B17583D961CAF SWAP2 DUP2 SWAP1 SUB PUSH1 0x60 ADD SWAP1 LOG1 POP POP POP POP POP POP POP JUMP JUMPDEST PUSH2 0xA5B PUSH2 0x308A JUMP JUMPDEST DUP2 PUSH2 0xA65 DUP5 PUSH2 0x1863 JUMP JUMPDEST GT PUSH2 0xAA2 JUMPI PUSH1 0x40 MLOAD PUSH3 0x461BCD PUSH1 0xE5 SHL DUP2 MSTORE PUSH1 0x20 PUSH1 0x4 DUP3 ADD MSTORE PUSH1 0xD PUSH1 0x24 DUP3 ADD MSTORE PUSH13 0x92DCECC2D8D2C840D2DCC8CAF PUSH1 0x9B SHL PUSH1 0x44 DUP3 ADD MSTORE PUSH1 0x64 ADD PUSH2 0x49C JUMP JUMPDEST PUSH1 0x1 PUSH1 0x1 PUSH1 0xA0 SHL SUB DUP4 AND PUSH1 0x0 SWAP1 DUP2 MSTORE PUSH1 0x2 PUSH1 0x20 MSTORE PUSH1 0x40 SWAP1 KECCAK256 PUSH2 0x8AE SWAP1 PUSH2 0x21B SWAP1 DUP5 PUSH2 0x1B40 JUMP JUMPDEST DUP1 PUSH2 0xAD2 DUP2 PUSH2 0x1AA4 JUMP JUMPDEST POP PUSH1 0x0 DUP1 PUSH2 0xADF DUP5 PUSH2 0x1AA4 JUMP JUMPDEST DUP2 SLOAD DUP2 LT PUSH2 0xAEF JUMPI PUSH2 0xAEF PUSH2 0x381C JUMP JUMPDEST PUSH1 0x0 SWAP2 DUP3 MSTORE PUSH1 0x20 SWAP1 SWAP2 KECCAK256 PUSH1 0x2 PUSH1 0xB SWAP1 SWAP3 MUL ADD SWAP1 DUP2 ADD SLOAD SWAP1 SWAP2 POP PUSH1 0x1 PUSH1 0x1 PUSH1 0xA0 SHL SUB AND CALLER EQ PUSH2 0xB2F JUMPI PUSH1 0x40 MLOAD PUSH3 0x461BCD PUSH1 0xE5 SHL DUP2 MSTORE PUSH1 0x4 ADD PUSH2 0x49C SWAP1 PUSH2 0x38C1 JUMP JUMPDEST PUSH1 0x6 DUP2 ADD SLOAD ISZERO PUSH2 0xB47 JUMPI PUSH2 0xB42 DUP2 PUSH2 0x1B64 JUMP JUMPDEST POP POP POP JUMP JUMPDEST PUSH2 0xB42 DUP2 PUSH2 0x1EF9 JUMP JUMPDEST PUSH1 0x0 DUP1 PUSH2 0xB5C DUP4 PUSH2 0x5E0 JUMP JUMPDEST SWAP1 POP PUSH2 0x8AE DUP2 PUSH2 0x2118 JUMP JUMPDEST PUSH1 0x60 PUSH2 0xB73 PUSH1 0x5 PUSH2 0x1A9A JUMP JUMPDEST DUP3 LT PUSH2 0xB92 JUMPI PUSH1 0x1 PUSH2 0xB85 PUSH1 0x5 PUSH2 0x1A9A JUMP JUMPDEST PUSH2 0xB8F SWAP2 SWAP1 PUSH2 0x3895 JUMP JUMPDEST SWAP2 POP JUMPDEST PUSH1 0x0 PUSH2 0xB9E DUP5 DUP5 PUSH2 0x3895 JUMP JUMPDEST PUSH2 0xBA9 SWAP1 PUSH1 0x1 PUSH2 0x3882 JUMP JUMPDEST SWAP1 POP PUSH1 0x0 DUP2 PUSH1 0x1 PUSH1 0x1 PUSH1 0x40 SHL SUB DUP2 GT ISZERO PUSH2 0xBC5 JUMPI PUSH2 0xBC5 PUSH2 0x3134 JUMP JUMPDEST PUSH1 0x40 MLOAD SWAP1 DUP1 DUP3 MSTORE DUP1 PUSH1 0x20 MUL PUSH1 0x20 ADD DUP3 ADD PUSH1 0x40 MSTORE DUP1 ISZERO PUSH2 0xC10 JUMPI DUP2 PUSH1 0x20 ADD JUMPDEST PUSH1 0x40 DUP1 MLOAD PUSH1 0x60 DUP2 ADD DUP3 MSTORE PUSH1 0x0 DUP1 DUP3 MSTORE PUSH1 0x20 DUP1 DUP4 ADD DUP3 SWAP1 MSTORE SWAP3 DUP3 ADD MSTORE DUP3 MSTORE PUSH1 0x0 NOT SWAP1 SWAP3 ADD SWAP2 ADD DUP2 PUSH2 0xBE3 JUMPI SWAP1 POP JUMPDEST POP SWAP1 POP PUSH1 0x0 DUP6 JUMPDEST DUP6 DUP2 GT PUSH2 0xCB2 JUMPI PUSH1 0x7 PUSH1 0x0 PUSH2 0xC2D PUSH1 0x5 DUP5 PUSH2 0x1B40 JUMP JUMPDEST PUSH1 0x1 PUSH1 0x1 PUSH1 0xA0 SHL SUB SWAP1 DUP2 AND DUP3 MSTORE PUSH1 0x20 DUP1 DUP4 ADD SWAP4 SWAP1 SWAP4 MSTORE PUSH1 0x40 SWAP2 DUP3 ADD PUSH1 0x0 KECCAK256 DUP3 MLOAD PUSH1 0x60 DUP2 ADD DUP5 MSTORE DUP2 SLOAD DUP4 AND DUP2 MSTORE PUSH1 0x1 DUP3 ADD SLOAD SWAP1 SWAP3 AND SWAP4 DUP3 ADD SWAP4 SWAP1 SWAP4 MSTORE PUSH1 0x2 SWAP1 SWAP3 ADD SLOAD SWAP1 DUP3 ADD MSTORE DUP4 MLOAD DUP5 SWAP1 DUP5 SWAP1 DUP2 LT PUSH2 0xC86 JUMPI PUSH2 0xC86 PUSH2 0x381C JUMP JUMPDEST PUSH1 0x20 MUL PUSH1 0x20 ADD ADD DUP2 SWAP1 MSTORE POP DUP2 DUP1 PUSH2 0xC9C SWAP1 PUSH2 0x38A8 JUMP JUMPDEST SWAP3 POP POP DUP1 DUP1 PUSH2 0xCAA SWAP1 PUSH2 0x38A8 JUMP JUMPDEST SWAP2 POP POP PUSH2 0xC17 JUMP JUMPDEST POP SWAP1 SWAP6 SWAP5 POP POP POP POP POP JUMP JUMPDEST PUSH1 0x40 DUP1 MLOAD PUSH1 0x60 DUP2 ADD DUP3 MSTORE PUSH1 0x0 DUP1 DUP3 MSTORE PUSH1 0x20 DUP3 ADD DUP2 SWAP1 MSTORE SWAP2 DUP2 ADD SWAP2 SWAP1 SWAP2 MSTORE PUSH1 0x7 PUSH1 0x0 PUSH2 0xCE9 PUSH1 0x5 DUP6 PUSH2 0x1B40 JUMP JUMPDEST PUSH1 0x1 PUSH1 0x1 PUSH1 0xA0 SHL SUB SWAP1 DUP2 AND DUP3 MSTORE PUSH1 0x20 DUP1 DUP4 ADD SWAP4 SWAP1 SWAP4 MSTORE PUSH1 0x40 SWAP2 DUP3 ADD PUSH1 0x0 KECCAK256 DUP3 MLOAD PUSH1 0x60 DUP2 ADD DUP5 MSTORE DUP2 SLOAD DUP4 AND DUP2 MSTORE PUSH1 0x1 DUP3 ADD SLOAD SWAP1 SWAP3 AND SWAP4 DUP3 ADD SWAP4 SWAP1 SWAP4 MSTORE PUSH1 0x2 SWAP1 SWAP3 ADD SLOAD SWAP1 DUP3 ADD MSTORE SWAP3 SWAP2 POP POP JUMP JUMPDEST PUSH1 0x40 DUP1 MLOAD PUSH1 0x60 DUP2 ADD DUP3 MSTORE PUSH1 0x0 DUP1 DUP3 MSTORE PUSH1 0x20 DUP3 ADD DUP2 SWAP1 MSTORE SWAP2 DUP2 ADD SWAP2 SWAP1 SWAP2 MSTORE PUSH1 0x7 PUSH1 0x0 PUSH2 0xCE9 PUSH1 0x3 DUP6 PUSH2 0x1B40 JUMP JUMPDEST PUSH2 0xD6B DUP2 PUSH1 0x0 PUSH2 0x8C1 JUMP JUMPDEST POP JUMP JUMPDEST PUSH1 0x60 PUSH2 0xD7A PUSH1 0x3 PUSH2 0x1A9A JUMP JUMPDEST DUP3 LT PUSH2 0xD99 JUMPI PUSH1 0x1 PUSH2 0xD8C PUSH1 0x3 PUSH2 0x1A9A JUMP JUMPDEST PUSH2 0xD96 SWAP2 SWAP1 PUSH2 0x3895 JUMP JUMPDEST SWAP2 POP JUMPDEST PUSH1 0x0 PUSH2 0xDA5 DUP5 DUP5 PUSH2 0x3895 JUMP JUMPDEST PUSH2 0xDB0 SWAP1 PUSH1 0x1 PUSH2 0x3882 JUMP JUMPDEST SWAP1 POP PUSH1 0x0 DUP2 PUSH1 0x1 PUSH1 0x1 PUSH1 0x40 SHL SUB DUP2 GT ISZERO PUSH2 0xDCC JUMPI PUSH2 0xDCC PUSH2 0x3134 JUMP JUMPDEST PUSH1 0x40 MLOAD SWAP1 DUP1 DUP3 MSTORE DUP1 PUSH1 0x20 MUL PUSH1 0x20 ADD DUP3 ADD PUSH1 0x40 MSTORE DUP1 ISZERO PUSH2 0xE17 JUMPI DUP2 PUSH1 0x20 ADD JUMPDEST PUSH1 0x40 DUP1 MLOAD PUSH1 0x60 DUP2 ADD DUP3 MSTORE PUSH1 0x0 DUP1 DUP3 MSTORE PUSH1 0x20 DUP1 DUP4 ADD DUP3 SWAP1 MSTORE SWAP3 DUP3 ADD MSTORE DUP3 MSTORE PUSH1 0x0 NOT SWAP1 SWAP3 ADD SWAP2 ADD DUP2 PUSH2 0xDEA JUMPI SWAP1 POP JUMPDEST POP SWAP1 POP PUSH1 0x0 DUP6 JUMPDEST DUP6 DUP2 GT PUSH2 0xCB2 JUMPI PUSH1 0x7 PUSH1 0x0 PUSH2 0xE34 PUSH1 0x3 DUP5 PUSH2 0x1B40 JUMP JUMPDEST PUSH1 0x1 PUSH1 0x1 PUSH1 0xA0 SHL SUB SWAP1 DUP2 AND DUP3 MSTORE PUSH1 0x20 DUP1 DUP4 ADD SWAP4 SWAP1 SWAP4 MSTORE PUSH1 0x40 SWAP2 DUP3 ADD PUSH1 0x0 KECCAK256 DUP3 MLOAD PUSH1 0x60 DUP2 ADD DUP5 MSTORE DUP2 SLOAD DUP4 AND DUP2 MSTORE PUSH1 0x1 DUP3 ADD SLOAD SWAP1 SWAP3 AND SWAP4 DUP3 ADD SWAP4 SWAP1 SWAP4 MSTORE PUSH1 0x2 SWAP1 SWAP3 ADD SLOAD SWAP1 DUP3 ADD MSTORE DUP4 MLOAD DUP5 SWAP1 DUP5 SWAP1 DUP2 LT PUSH2 0xE8D JUMPI PUSH2 0xE8D PUSH2 0x381C JUMP JUMPDEST PUSH1 0x20 MUL PUSH1 0x20 ADD ADD DUP2 SWAP1 MSTORE POP DUP2 DUP1 PUSH2 0xEA3 SWAP1 PUSH2 0x38A8 JUMP JUMPDEST SWAP3 POP POP DUP1 DUP1 PUSH2 0xEB1 SWAP1 PUSH2 0x38A8 JUMP JUMPDEST SWAP2 POP POP PUSH2 0xE1E JUMP JUMPDEST PUSH1 0x1 PUSH1 0x1 PUSH1 0xA0 SHL SUB DUP2 AND PUSH1 0x0 SWAP1 DUP2 MSTORE PUSH1 0x1 PUSH1 0x20 MSTORE PUSH1 0x40 DUP2 KECCAK256 PUSH1 0x60 SWAP2 SWAP1 PUSH2 0xEDE SWAP1 PUSH2 0x1A9A JUMP JUMPDEST SWAP1 POP PUSH1 0x0 DUP2 PUSH1 0x1 PUSH1 0x1 PUSH1 0x40 SHL SUB DUP2 GT ISZERO PUSH2 0xEFA JUMPI PUSH2 0xEFA PUSH2 0x3134 JUMP JUMPDEST PUSH1 0x40 MLOAD SWAP1 DUP1 DUP3 MSTORE DUP1 PUSH1 0x20 MUL PUSH1 0x20 ADD DUP3 ADD PUSH1 0x40 MSTORE DUP1 ISZERO PUSH2 0xF33 JUMPI DUP2 PUSH1 0x20 ADD JUMPDEST PUSH2 0xF20 PUSH2 0x308A JUMP JUMPDEST DUP2 MSTORE PUSH1 0x20 ADD SWAP1 PUSH1 0x1 SWAP1 SUB SWAP1 DUP2 PUSH2 0xF18 JUMPI SWAP1 POP JUMPDEST POP SWAP1 POP PUSH1 0x0 JUMPDEST DUP3 DUP2 LT ISZERO PUSH2 0xF97 JUMPI PUSH1 0x1 PUSH1 0x1 PUSH1 0xA0 SHL SUB DUP6 AND PUSH1 0x0 SWAP1 DUP2 MSTORE PUSH1 0x1 PUSH1 0x20 MSTORE PUSH1 0x40 SWAP1 KECCAK256 PUSH2 0xF67 SWAP1 PUSH2 0x21B SWAP1 DUP4 PUSH2 0x1B40 JUMP JUMPDEST DUP3 DUP3 DUP2 MLOAD DUP2 LT PUSH2 0xF79 JUMPI PUSH2 0xF79 PUSH2 0x381C JUMP JUMPDEST PUSH1 0x20 MUL PUSH1 0x20 ADD ADD DUP2 SWAP1 MSTORE POP DUP1 DUP1 PUSH2 0xF8F SWAP1 PUSH2 0x38A8 JUMP JUMPDEST SWAP2 POP POP PUSH2 0xF39 JUMP JUMPDEST POP SWAP4 SWAP3 POP POP POP JUMP JUMPDEST DUP3 PUSH2 0xFA9 DUP2 PUSH2 0x1AA4 JUMP JUMPDEST POP PUSH1 0x0 DUP1 PUSH2 0xFB6 DUP7 PUSH2 0x1AA4 JUMP JUMPDEST DUP2 SLOAD DUP2 LT PUSH2 0xFC6 JUMPI PUSH2 0xFC6 PUSH2 0x381C JUMP JUMPDEST PUSH1 0x0 SWAP2 DUP3 MSTORE PUSH1 0x20 SWAP1 SWAP2 KECCAK256 PUSH1 0x2 PUSH1 0xB SWAP1 SWAP3 MUL ADD SWAP1 DUP2 ADD SLOAD SWAP1 SWAP2 POP PUSH1 0x1 PUSH1 0x1 PUSH1 0xA0 SHL SUB AND CALLER EQ PUSH2 0x1006 JUMPI PUSH1 0x40 MLOAD PUSH3 0x461BCD PUSH1 0xE5 SHL DUP2 MSTORE PUSH1 0x4 ADD PUSH2 0x49C SWAP1 PUSH2 0x38C1 JUMP JUMPDEST PUSH1 0x9 DUP2 ADD SLOAD ISZERO PUSH2 0x104C JUMPI PUSH1 0x40 MLOAD PUSH3 0x461BCD PUSH1 0xE5 SHL DUP2 MSTORE PUSH1 0x20 PUSH1 0x4 DUP3 ADD MSTORE PUSH1 0x11 PUSH1 0x24 DUP3 ADD MSTORE PUSH17 0x131BD8DAC81DD85CC81D5B9B1BD8DAD959 PUSH1 0x7A SHL PUSH1 0x44 DUP3 ADD MSTORE PUSH1 0x64 ADD PUSH2 0x49C JUMP JUMPDEST DUP3 ISZERO PUSH2 0x10ED JUMPI DUP1 PUSH1 0x5 ADD SLOAD DUP4 LT ISZERO DUP1 ISZERO PUSH2 0x1065 JUMPI POP TIMESTAMP DUP4 GT JUMPDEST PUSH2 0x10E5 JUMPI PUSH1 0x40 MLOAD PUSH3 0x461BCD PUSH1 0xE5 SHL DUP2 MSTORE PUSH1 0x20 PUSH1 0x4 DUP3 ADD MSTORE PUSH1 0x44 PUSH1 0x24 DUP3 ADD DUP2 SWAP1 MSTORE PUSH32 0x4E657720756E6C6F636B2074696D652073686F756C64206E6F74206265206265 SWAP1 DUP3 ADD MSTORE PUSH32 0x666F7265206F6C6420756E6C6F636B2074696D65206F722063757272656E7420 PUSH1 0x64 DUP3 ADD MSTORE PUSH4 0x74696D65 PUSH1 0xE0 SHL PUSH1 0x84 DUP3 ADD MSTORE PUSH1 0xA4 ADD PUSH2 0x49C JUMP JUMPDEST PUSH1 0x5 DUP2 ADD DUP4 SWAP1 SSTORE JUMPDEST DUP4 ISZERO PUSH2 0x11D1 JUMPI DUP1 PUSH1 0x3 ADD SLOAD DUP5 LT ISZERO PUSH2 0x1161 JUMPI PUSH1 0x40 MLOAD PUSH3 0x461BCD PUSH1 0xE5 SHL DUP2 MSTORE PUSH1 0x20 PUSH1 0x4 DUP3 ADD MSTORE PUSH1 0x31 PUSH1 0x24 DUP3 ADD MSTORE PUSH32 0x4E657720616D6F756E742073686F756C64206E6F74206265206C657373207468 PUSH1 0x44 DUP3 ADD MSTORE PUSH17 0x185B8818DD5C9C995B9D08185B5BDD5B9D PUSH1 0x7A SHL PUSH1 0x64 DUP3 ADD MSTORE PUSH1 0x84 ADD PUSH2 0x49C JUMP JUMPDEST PUSH1 0x0 DUP2 PUSH1 0x3 ADD SLOAD DUP6 PUSH2 0x1173 SWAP2 SWAP1 PUSH2 0x3895 JUMP JUMPDEST SWAP1 POP DUP1 ISZERO PUSH2 0x11CF JUMPI PUSH1 0x3 DUP3 ADD DUP6 SWAP1 SSTORE PUSH1 0x1 DUP3 ADD SLOAD PUSH1 0x1 PUSH1 0x1 PUSH1 0xA0 SHL SUB AND PUSH1 0x0 SWAP1 DUP2 MSTORE PUSH1 0x7 PUSH1 0x20 MSTORE PUSH1 0x40 SWAP1 KECCAK256 PUSH1 0x2 DUP2 ADD SLOAD PUSH2 0x11AE SWAP1 DUP4 SWAP1 PUSH2 0x3882 JUMP JUMPDEST PUSH1 0x2 DUP3 ADD SSTORE PUSH1 0x1 DUP4 ADD SLOAD PUSH2 0x11CD SWAP1 PUSH1 0x1 PUSH1 0x1 PUSH1 0xA0 SHL SUB AND CALLER ADDRESS DUP6 PUSH2 0x1945 JUMP JUMPDEST POP JUMPDEST POP JUMPDEST DUP1 SLOAD PUSH1 0x1 DUP3 ADD SLOAD PUSH1 0x2 DUP4 ADD SLOAD PUSH1 0x3 DUP5 ADD SLOAD PUSH1 0x5 DUP6 ADD SLOAD PUSH1 0x40 MLOAD PUSH32 0xA8B26360DF8D5E154FFA5A8A7E894E85F781ACFBBEF0B744FB9551D8FD0FD36C SWAP5 PUSH2 0x1226 SWAP5 PUSH1 0x1 PUSH1 0x1 PUSH1 0xA0 SHL SUB SWAP2 DUP3 AND SWAP5 SWAP2 AND SWAP3 SWAP1 SWAP2 PUSH2 0x37F3 JUMP JUMPDEST PUSH1 0x40 MLOAD DUP1 SWAP2 SUB SWAP1 LOG2 POP POP POP POP POP JUMP JUMPDEST PUSH1 0x0 PUSH2 0x769 PUSH1 0x3 PUSH2 0x1A9A JUMP JUMPDEST PUSH1 0x0 PUSH1 0x1 PUSH1 0x1 PUSH1 0xA0 SHL SUB DUP10 AND PUSH2 0x1269 JUMPI PUSH1 0x40 MLOAD PUSH3 0x461BCD PUSH1 0xE5 SHL DUP2 MSTORE PUSH1 0x4 ADD PUSH2 0x49C SWAP1 PUSH2 0x37CC JUMP JUMPDEST PUSH1 0x0 DUP8 GT PUSH2 0x12B9 JUMPI PUSH1 0x40 MLOAD PUSH3 0x461BCD PUSH1 0xE5 SHL DUP2 MSTORE PUSH1 0x20 PUSH1 0x4 DUP3 ADD MSTORE PUSH1 0x1F PUSH1 0x24 DUP3 ADD MSTORE PUSH32 0x416D6F756E742073686F756C642062652067726561746572207468616E203000 PUSH1 0x44 DUP3 ADD MSTORE PUSH1 0x64 ADD PUSH2 0x49C JUMP JUMPDEST TIMESTAMP DUP7 GT PUSH2 0x1308 JUMPI PUSH1 0x40 MLOAD PUSH3 0x461BCD PUSH1 0xE5 SHL DUP2 MSTORE PUSH1 0x20 PUSH1 0x4 DUP3 ADD DUP2 SWAP1 MSTORE PUSH1 0x24 DUP3 ADD MSTORE PUSH32 0x54474520646174652073686F756C6420626520696E2074686520667574757265 PUSH1 0x44 DUP3 ADD MSTORE PUSH1 0x64 ADD PUSH2 0x49C JUMP JUMPDEST PUSH1 0x0 DUP5 GT PUSH2 0x1348 JUMPI PUSH1 0x40 MLOAD PUSH3 0x461BCD PUSH1 0xE5 SHL DUP2 MSTORE PUSH1 0x20 PUSH1 0x4 DUP3 ADD MSTORE PUSH1 0xD PUSH1 0x24 DUP3 ADD MSTORE PUSH13 0x496E76616C6964206379636C65 PUSH1 0x98 SHL PUSH1 0x44 DUP3 ADD MSTORE PUSH1 0x64 ADD PUSH2 0x49C JUMP JUMPDEST PUSH1 0x0 DUP6 GT DUP1 ISZERO PUSH2 0x1359 JUMPI POP PUSH2 0x2710 DUP6 LT JUMPDEST PUSH2 0x139C JUMPI PUSH1 0x40 MLOAD PUSH3 0x461BCD PUSH1 0xE5 SHL DUP2 MSTORE PUSH1 0x20 PUSH1 0x4 DUP3 ADD MSTORE PUSH1 0x14 PUSH1 0x24 DUP3 ADD MSTORE PUSH20 0x496E76616C6964206269707320666F7220544745 PUSH1 0x60 SHL PUSH1 0x44 DUP3 ADD MSTORE PUSH1 0x64 ADD PUSH2 0x49C JUMP JUMPDEST PUSH1 0x0 DUP4 GT DUP1 ISZERO PUSH2 0x13AD JUMPI POP PUSH2 0x2710 DUP4 LT JUMPDEST PUSH2 0x13F2 JUMPI PUSH1 0x40 MLOAD PUSH3 0x461BCD PUSH1 0xE5 SHL DUP2 MSTORE PUSH1 0x20 PUSH1 0x4 DUP3 ADD MSTORE PUSH1 0x16 PUSH1 0x24 DUP3 ADD MSTORE PUSH22 0x496E76616C6964206269707320666F72206379636C65 PUSH1 0x50 SHL PUSH1 0x44 DUP3 ADD MSTORE PUSH1 0x64 ADD PUSH2 0x49C JUMP JUMPDEST PUSH2 0x2710 PUSH2 0x13FF DUP5 DUP8 PUSH2 0x3882 JUMP JUMPDEST GT ISZERO PUSH2 0x141D JUMPI PUSH1 0x40 MLOAD PUSH3 0x461BCD PUSH1 0xE5 SHL DUP2 MSTORE PUSH1 0x4 ADD PUSH2 0x49C SWAP1 PUSH2 0x3903 JUMP JUMPDEST PUSH2 0x142E DUP11 DUP11 DUP11 DUP11 DUP11 DUP11 DUP11 DUP11 DUP11 PUSH2 0x18F9 JUMP JUMPDEST SWAP1 POP PUSH2 0x143C DUP10 CALLER ADDRESS DUP11 PUSH2 0x1945 JUMP JUMPDEST DUP1 PUSH32 0x694AF1CC8727CDD0AFBDD53D9B87B69248BD490224E9DD090E788546506E076F DUP11 DUP13 DUP11 DUP11 PUSH1 0x40 MLOAD PUSH2 0x1472 SWAP5 SWAP4 SWAP3 SWAP2 SWAP1 PUSH2 0x37F3 JUMP JUMPDEST PUSH1 0x40 MLOAD DUP1 SWAP2 SUB SWAP1 LOG2 JUMPDEST SWAP10 SWAP9 POP POP POP POP POP POP POP POP POP JUMP JUMPDEST PUSH1 0x0 PUSH2 0x1493 DUP3 PUSH2 0x5B9 JUMP JUMPDEST PUSH2 0x149C DUP4 PUSH2 0x1863 JUMP JUMPDEST PUSH2 0x5DA SWAP2 SWAP1 PUSH2 0x3882 JUMP JUMPDEST DUP2 PUSH2 0x14B0 DUP2 PUSH2 0x1AA4 JUMP JUMPDEST POP PUSH1 0x0 DUP1 PUSH2 0x14BD DUP6 PUSH2 0x1AA4 JUMP JUMPDEST DUP2 SLOAD DUP2 LT PUSH2 0x14CD JUMPI PUSH2 0x14CD PUSH2 0x381C JUMP JUMPDEST PUSH1 0x0 SWAP2 DUP3 MSTORE PUSH1 0x20 SWAP1 SWAP2 KECCAK256 PUSH1 0x2 PUSH1 0xB SWAP1 SWAP3 MUL ADD SWAP1 DUP2 ADD SLOAD SWAP1 SWAP2 POP PUSH1 0x1 PUSH1 0x1 PUSH1 0xA0 SHL SUB AND CALLER EQ PUSH2 0x150D JUMPI PUSH1 0x40 MLOAD PUSH3 0x461BCD PUSH1 0xE5 SHL DUP2 MSTORE PUSH1 0x4 ADD PUSH2 0x49C SWAP1 PUSH2 0x38C1 JUMP JUMPDEST PUSH1 0xA DUP2 ADD PUSH2 0x151B DUP5 DUP3 PUSH2 0x399B JUMP JUMPDEST POP PUSH1 0x40 MLOAD DUP5 DUP2 MSTORE PUSH32 0xE4A1120FD509C50AEC65802FD3C3C9A4B72BF746FE9A552396185C6DE928E8AA SWAP1 PUSH1 0x20 ADD PUSH1 0x40 MLOAD DUP1 SWAP2 SUB SWAP1 LOG1 POP POP POP POP JUMP JUMPDEST PUSH1 0x1 PUSH1 0x1 PUSH1 0xA0 SHL SUB DUP2 AND PUSH1 0x0 SWAP1 DUP2 MSTORE PUSH1 0x2 PUSH1 0x20 MSTORE PUSH1 0x40 DUP2 KECCAK256 PUSH1 0x60 SWAP2 SWAP1 PUSH2 0x157A SWAP1 PUSH2 0x1A9A JUMP JUMPDEST SWAP1 POP PUSH1 0x0 DUP2 PUSH1 0x1 PUSH1 0x1 PUSH1 0x40 SHL SUB DUP2 GT ISZERO PUSH2 0x1596 JUMPI PUSH2 0x1596 PUSH2 0x3134 JUMP JUMPDEST PUSH1 0x40 MLOAD SWAP1 DUP1 DUP3 MSTORE DUP1 PUSH1 0x20 MUL PUSH1 0x20 ADD DUP3 ADD PUSH1 0x40 MSTORE DUP1 ISZERO PUSH2 0x15CF JUMPI DUP2 PUSH1 0x20 ADD JUMPDEST PUSH2 0x15BC PUSH2 0x308A JUMP JUMPDEST DUP2 MSTORE PUSH1 0x20 ADD SWAP1 PUSH1 0x1 SWAP1 SUB SWAP1 DUP2 PUSH2 0x15B4 JUMPI SWAP1 POP JUMPDEST POP SWAP1 POP PUSH1 0x0 JUMPDEST DUP3 DUP2 LT ISZERO PUSH2 0xF97 JUMPI PUSH1 0x1 PUSH1 0x1 PUSH1 0xA0 SHL SUB DUP6 AND PUSH1 0x0 SWAP1 DUP2 MSTORE PUSH1 0x2 PUSH1 0x20 MSTORE PUSH1 0x40 SWAP1 KECCAK256 PUSH2 0x1603 SWAP1 PUSH2 0x21B SWAP1 DUP4 PUSH2 0x1B40 JUMP JUMPDEST DUP3 DUP3 DUP2 MLOAD DUP2 LT PUSH2 0x1615 JUMPI PUSH2 0x1615 PUSH2 0x381C JUMP JUMPDEST PUSH1 0x20 MUL PUSH1 0x20 ADD ADD DUP2 SWAP1 MSTORE POP DUP1 DUP1 PUSH2 0x162B SWAP1 PUSH2 0x38A8 JUMP JUMPDEST SWAP2 POP POP PUSH2 0x15D5 JUMP JUMPDEST PUSH1 0x60 PUSH1 0x1 PUSH1 0x1 PUSH1 0xA0 SHL SUB DUP9 AND PUSH2 0x165B JUMPI PUSH1 0x40 MLOAD PUSH3 0x461BCD PUSH1 0xE5 SHL DUP2 MSTORE PUSH1 0x4 ADD PUSH2 0x49C SWAP1 PUSH2 0x37CC JUMP JUMPDEST DUP11 DUP10 EQ PUSH2 0x169E JUMPI PUSH1 0x40 MLOAD PUSH3 0x461BCD PUSH1 0xE5 SHL DUP2 MSTORE PUSH1 0x20 PUSH1 0x4 DUP3 ADD MSTORE PUSH1 0x11 PUSH1 0x24 DUP3 ADD MSTORE PUSH17 0x13195B99DD1A081B5A5CDB585D18DA1959 PUSH1 0x7A SHL PUSH1 0x44 DUP3 ADD MSTORE PUSH1 0x64 ADD PUSH2 0x49C JUMP JUMPDEST TIMESTAMP DUP7 GT PUSH2 0x16ED JUMPI PUSH1 0x40 MLOAD PUSH3 0x461BCD PUSH1 0xE5 SHL DUP2 MSTORE PUSH1 0x20 PUSH1 0x4 DUP3 ADD DUP2 SWAP1 MSTORE PUSH1 0x24 DUP3 ADD MSTORE PUSH32 0x54474520646174652073686F756C6420626520696E2074686520667574757265 PUSH1 0x44 DUP3 ADD MSTORE PUSH1 0x64 ADD PUSH2 0x49C JUMP JUMPDEST PUSH1 0x0 DUP5 GT PUSH2 0x172D JUMPI PUSH1 0x40 MLOAD PUSH3 0x461BCD PUSH1 0xE5 SHL DUP2 MSTORE PUSH1 0x20 PUSH1 0x4 DUP3 ADD MSTORE PUSH1 0xD PUSH1 0x24 DUP3 ADD MSTORE PUSH13 0x496E76616C6964206379636C65 PUSH1 0x98 SHL PUSH1 0x44 DUP3 ADD MSTORE PUSH1 0x64 ADD PUSH2 0x49C JUMP JUMPDEST PUSH1 0x0 DUP6 GT DUP1 ISZERO PUSH2 0x173E JUMPI POP PUSH2 0x2710 DUP6 LT JUMPDEST PUSH2 0x1781 JUMPI PUSH1 0x40 MLOAD PUSH3 0x461BCD PUSH1 0xE5 SHL DUP2 MSTORE PUSH1 0x20 PUSH1 0x4 DUP3 ADD MSTORE PUSH1 0x14 PUSH1 0x24 DUP3 ADD MSTORE PUSH20 0x496E76616C6964206269707320666F7220544745 PUSH1 0x60 SHL PUSH1 0x44 DUP3 ADD MSTORE PUSH1 0x64 ADD PUSH2 0x49C JUMP JUMPDEST PUSH1 0x0 DUP4 GT DUP1 ISZERO PUSH2 0x1792 JUMPI POP PUSH2 0x2710 DUP4 LT JUMPDEST PUSH2 0x17D7 JUMPI PUSH1 0x40 MLOAD PUSH3 0x461BCD PUSH1 0xE5 SHL DUP2 MSTORE PUSH1 0x20 PUSH1 0x4 DUP3 ADD MSTORE PUSH1 0x16 PUSH1 0x24 DUP3 ADD MSTORE PUSH22 0x496E76616C6964206269707320666F72206379636C65 PUSH1 0x50 SHL PUSH1 0x44 DUP3 ADD MSTORE PUSH1 0x64 ADD PUSH2 0x49C JUMP JUMPDEST PUSH2 0x2710 PUSH2 0x17E4 DUP5 DUP8 PUSH2 0x3882 JUMP JUMPDEST GT ISZERO PUSH2 0x1802 JUMPI PUSH1 0x40 MLOAD PUSH3 0x461BCD PUSH1 0xE5 SHL DUP2 MSTORE PUSH1 0x4 ADD PUSH2 0x49C SWAP1 PUSH2 0x3903 JUMP JUMPDEST PUSH2 0x1832 DUP13 DUP13 DUP13 DUP13 DUP13 DUP13 PUSH1 0x40 MLOAD DUP1 PUSH1 0x80 ADD PUSH1 0x40 MSTORE DUP1 DUP15 DUP2 MSTORE PUSH1 0x20 ADD DUP14 DUP2 MSTORE PUSH1 0x20 ADD DUP13 DUP2 MSTORE PUSH1 0x20 ADD DUP12 DUP2 MSTORE POP DUP10 PUSH2 0x222C JUMP JUMPDEST SWAP13 SWAP12 POP POP POP POP POP POP POP POP POP POP POP POP JUMP JUMPDEST PUSH1 0x1 PUSH1 0x1 PUSH1 0xA0 SHL SUB DUP2 AND PUSH1 0x0 SWAP1 DUP2 MSTORE PUSH1 0x8 PUSH1 0x20 MSTORE PUSH1 0x40 DUP2 KECCAK256 PUSH2 0x5DA SWAP1 PUSH2 0x1A9A JUMP JUMPDEST PUSH1 0x1 PUSH1 0x1 PUSH1 0xA0 SHL SUB DUP2 AND PUSH1 0x0 SWAP1 DUP2 MSTORE PUSH1 0x2 PUSH1 0x20 MSTORE PUSH1 0x40 DUP2 KECCAK256 PUSH2 0x5DA SWAP1 PUSH2 0x1A9A JUMP JUMPDEST PUSH2 0x188C PUSH2 0x308A JUMP JUMPDEST DUP2 PUSH2 0x1896 DUP5 PUSH2 0x5B9 JUMP JUMPDEST GT PUSH2 0x18D3 JUMPI PUSH1 0x40 MLOAD PUSH3 0x461BCD PUSH1 0xE5 SHL DUP2 MSTORE PUSH1 0x20 PUSH1 0x4 DUP3 ADD MSTORE PUSH1 0xD PUSH1 0x24 DUP3 ADD MSTORE PUSH13 0x92DCECC2D8D2C840D2DCC8CAF PUSH1 0x9B SHL PUSH1 0x44 DUP3 ADD MSTORE PUSH1 0x64 ADD PUSH2 0x49C JUMP JUMPDEST PUSH1 0x1 PUSH1 0x1 PUSH1 0xA0 SHL SUB DUP4 AND PUSH1 0x0 SWAP1 DUP2 MSTORE PUSH1 0x1 PUSH1 0x20 MSTORE PUSH1 0x40 SWAP1 KECCAK256 PUSH2 0x8AE SWAP1 PUSH2 0x21B SWAP1 DUP5 PUSH2 0x1B40 JUMP JUMPDEST PUSH1 0x0 DUP8 ISZERO PUSH2 0x1927 JUMPI PUSH1 0x0 PUSH2 0x190C DUP11 PUSH2 0x2422 JUMP JUMPDEST SWAP1 POP PUSH2 0x191F DUP12 DUP12 DUP4 DUP12 DUP12 DUP12 DUP12 DUP12 DUP12 PUSH2 0x2536 JUMP JUMPDEST SWAP2 POP POP PUSH2 0x147B JUMP JUMPDEST PUSH2 0x1937 DUP11 DUP11 DUP10 DUP10 DUP10 DUP10 DUP10 DUP10 PUSH2 0x260F JUMP JUMPDEST SWAP11 SWAP10 POP POP POP POP POP POP POP POP POP POP JUMP JUMPDEST PUSH1 0x40 MLOAD PUSH4 0x70A08231 PUSH1 0xE0 SHL DUP2 MSTORE PUSH1 0x1 PUSH1 0x1 PUSH1 0xA0 SHL SUB DUP4 DUP2 AND PUSH1 0x4 DUP4 ADD MSTORE PUSH1 0x0 SWAP2 SWAP1 DUP7 AND SWAP1 PUSH4 0x70A08231 SWAP1 PUSH1 0x24 ADD PUSH1 0x20 PUSH1 0x40 MLOAD DUP1 DUP4 SUB DUP2 DUP7 GAS STATICCALL ISZERO DUP1 ISZERO PUSH2 0x198F JUMPI RETURNDATASIZE PUSH1 0x0 DUP1 RETURNDATACOPY RETURNDATASIZE PUSH1 0x0 REVERT JUMPDEST POP POP POP POP PUSH1 0x40 MLOAD RETURNDATASIZE PUSH1 0x1F NOT PUSH1 0x1F DUP3 ADD AND DUP3 ADD DUP1 PUSH1 0x40 MSTORE POP DUP2 ADD SWAP1 PUSH2 0x19B3 SWAP2 SWAP1 PUSH2 0x3A5A JUMP JUMPDEST SWAP1 POP PUSH2 0x19CA PUSH1 0x1 PUSH1 0x1 PUSH1 0xA0 SHL SUB DUP7 AND DUP6 DUP6 DUP6 PUSH2 0x26E1 JUMP JUMPDEST PUSH1 0x40 MLOAD PUSH4 0x70A08231 PUSH1 0xE0 SHL DUP2 MSTORE PUSH1 0x1 PUSH1 0x1 PUSH1 0xA0 SHL SUB DUP5 DUP2 AND PUSH1 0x4 DUP4 ADD MSTORE PUSH1 0x0 SWAP2 SWAP1 DUP8 AND SWAP1 PUSH4 0x70A08231 SWAP1 PUSH1 0x24 ADD PUSH1 0x20 PUSH1 0x40 MLOAD DUP1 DUP4 SUB DUP2 DUP7 GAS STATICCALL ISZERO DUP1 ISZERO PUSH2 0x1A14 JUMPI RETURNDATASIZE PUSH1 0x0 DUP1 RETURNDATACOPY RETURNDATASIZE PUSH1 0x0 REVERT JUMPDEST POP POP POP POP PUSH1 0x40 MLOAD RETURNDATASIZE PUSH1 0x1F NOT PUSH1 0x1F DUP3 ADD AND DUP3 ADD DUP1 PUSH1 0x40 MSTORE POP DUP2 ADD SWAP1 PUSH2 0x1A38 SWAP2 SWAP1 PUSH2 0x3A5A JUMP JUMPDEST SWAP1 POP DUP3 PUSH2 0x1A45 DUP4 DUP4 PUSH2 0x3895 JUMP JUMPDEST EQ PUSH2 0x1A92 JUMPI PUSH1 0x40 MLOAD PUSH3 0x461BCD PUSH1 0xE5 SHL DUP2 MSTORE PUSH1 0x20 PUSH1 0x4 DUP3 ADD MSTORE PUSH1 0x1F PUSH1 0x24 DUP3 ADD MSTORE PUSH32 0x4E6F7420656E6F75676820746F6B656E20776173207472616E73666572656400 PUSH1 0x44 DUP3 ADD MSTORE PUSH1 0x64 ADD PUSH2 0x49C JUMP JUMPDEST POP POP POP POP POP POP JUMP JUMPDEST PUSH1 0x0 PUSH2 0x5DA DUP3 SLOAD SWAP1 JUMP JUMPDEST PUSH1 0x0 PUSH3 0xF4240 DUP3 LT ISZERO PUSH2 0x1AEB JUMPI PUSH1 0x40 MLOAD PUSH3 0x461BCD PUSH1 0xE5 SHL DUP2 MSTORE PUSH1 0x20 PUSH1 0x4 DUP3 ADD MSTORE PUSH1 0xF PUSH1 0x24 DUP3 ADD MSTORE PUSH15 0x125B9D985B1A59081B1BD8DAC81A59 PUSH1 0x8A SHL PUSH1 0x44 DUP3 ADD MSTORE PUSH1 0x64 ADD PUSH2 0x49C JUMP JUMPDEST PUSH1 0x0 PUSH2 0x1AFA PUSH3 0xF4240 DUP5 PUSH2 0x3895 JUMP JUMPDEST PUSH1 0x0 SLOAD SWAP1 SWAP2 POP DUP2 LT PUSH2 0x5DA JUMPI PUSH1 0x40 MLOAD PUSH3 0x461BCD PUSH1 0xE5 SHL DUP2 MSTORE PUSH1 0x20 PUSH1 0x4 DUP3 ADD MSTORE PUSH1 0xF PUSH1 0x24 DUP3 ADD MSTORE PUSH15 0x125B9D985B1A59081B1BD8DAC81A59 PUSH1 0x8A SHL PUSH1 0x44 DUP3 ADD MSTORE PUSH1 0x64 ADD PUSH2 0x49C JUMP JUMPDEST PUSH1 0x0 PUSH2 0x8AE DUP4 DUP4 PUSH2 0x2752 JUMP JUMPDEST PUSH1 0x0 PUSH2 0x8AE DUP4 DUP4 PUSH2 0x277C JUMP JUMPDEST PUSH1 0x0 PUSH2 0x8AE DUP4 DUP4 PUSH2 0x286F JUMP JUMPDEST PUSH1 0x40 DUP1 MLOAD PUSH2 0x160 DUP2 ADD DUP3 MSTORE DUP3 SLOAD DUP2 MSTORE PUSH1 0x1 DUP4 ADD SLOAD PUSH1 0x1 PUSH1 0x1 PUSH1 0xA0 SHL SUB SWAP1 DUP2 AND PUSH1 0x20 DUP4 ADD MSTORE PUSH1 0x2 DUP5 ADD SLOAD AND SWAP2 DUP2 ADD SWAP2 SWAP1 SWAP2 MSTORE PUSH1 0x3 DUP3 ADD SLOAD PUSH1 0x60 DUP3 ADD MSTORE PUSH1 0x4 DUP3 ADD SLOAD PUSH1 0x80 DUP3 ADD MSTORE PUSH1 0x5 DUP3 ADD SLOAD PUSH1 0xA0 DUP3 ADD MSTORE PUSH1 0x6 DUP3 ADD SLOAD PUSH1 0xC0 DUP3 ADD MSTORE PUSH1 0x7 DUP3 ADD SLOAD PUSH1 0xE0 DUP3 ADD MSTORE PUSH1 0x8 DUP3 ADD SLOAD PUSH2 0x100 DUP3 ADD MSTORE PUSH1 0x9 DUP3 ADD SLOAD PUSH2 0x120 DUP3 ADD MSTORE PUSH1 0xA DUP3 ADD DUP1 SLOAD PUSH1 0x0 SWAP3 PUSH2 0x1C84 SWAP3 SWAP1 SWAP2 DUP6 SWAP2 PUSH2 0x140 DUP5 ADD SWAP2 PUSH2 0x1BFD SWAP1 PUSH2 0x3832 JUMP JUMPDEST DUP1 PUSH1 0x1F ADD PUSH1 0x20 DUP1 SWAP2 DIV MUL PUSH1 0x20 ADD PUSH1 0x40 MLOAD SWAP1 DUP2 ADD PUSH1 0x40 MSTORE DUP1 SWAP3 SWAP2 SWAP1 DUP2 DUP2 MSTORE PUSH1 0x20 ADD DUP3 DUP1 SLOAD PUSH2 0x1C29 SWAP1 PUSH2 0x3832 JUMP JUMPDEST DUP1 ISZERO PUSH2 0x1C76 JUMPI DUP1 PUSH1 0x1F LT PUSH2 0x1C4B JUMPI PUSH2 0x100 DUP1 DUP4 SLOAD DIV MUL DUP4 MSTORE SWAP2 PUSH1 0x20 ADD SWAP2 PUSH2 0x1C76 JUMP JUMPDEST DUP3 ADD SWAP2 SWAP1 PUSH1 0x0 MSTORE PUSH1 0x20 PUSH1 0x0 KECCAK256 SWAP1 JUMPDEST DUP2 SLOAD DUP2 MSTORE SWAP1 PUSH1 0x1 ADD SWAP1 PUSH1 0x20 ADD DUP1 DUP4 GT PUSH2 0x1C59 JUMPI DUP3 SWAP1 SUB PUSH1 0x1F AND DUP3 ADD SWAP2 JUMPDEST POP POP POP POP POP DUP2 MSTORE POP POP PUSH2 0x2118 JUMP JUMPDEST SWAP1 POP PUSH1 0x0 DUP2 DUP4 PUSH1 0x9 ADD SLOAD PUSH2 0x1C98 SWAP2 SWAP1 PUSH2 0x3882 JUMP JUMPDEST SWAP1 POP PUSH1 0x0 DUP3 GT DUP1 ISZERO PUSH2 0x1CAE JUMPI POP DUP3 PUSH1 0x3 ADD SLOAD DUP2 GT ISZERO JUMPDEST PUSH2 0x1CEE JUMPI PUSH1 0x40 MLOAD PUSH3 0x461BCD PUSH1 0xE5 SHL DUP2 MSTORE PUSH1 0x20 PUSH1 0x4 DUP3 ADD MSTORE PUSH1 0x11 PUSH1 0x24 DUP3 ADD MSTORE PUSH17 0x4E6F7468696E6720746F20756E6C6F636B PUSH1 0x78 SHL PUSH1 0x44 DUP3 ADD MSTORE PUSH1 0x64 ADD PUSH2 0x49C JUMP JUMPDEST PUSH1 0x1 DUP1 DUP5 ADD SLOAD PUSH1 0x1 PUSH1 0x1 PUSH1 0xA0 SHL SUB SWAP1 DUP2 AND PUSH1 0x0 SWAP1 DUP2 MSTORE PUSH1 0x7 PUSH1 0x20 MSTORE PUSH1 0x40 SWAP1 KECCAK256 SWAP2 DUP3 ADD SLOAD PUSH1 0x3 DUP7 ADD SLOAD SWAP2 AND ISZERO ISZERO SWAP1 DUP4 SUB PUSH2 0x1DDB JUMPI DUP1 ISZERO PUSH2 0x1D47 JUMPI DUP5 SLOAD CALLER PUSH1 0x0 SWAP1 DUP2 MSTORE PUSH1 0x1 PUSH1 0x20 MSTORE PUSH1 0x40 SWAP1 KECCAK256 PUSH2 0x1D41 SWAP2 PUSH2 0x1B4C JUMP JUMPDEST POP PUSH2 0x1D63 JUMP JUMPDEST DUP5 SLOAD CALLER PUSH1 0x0 SWAP1 DUP2 MSTORE PUSH1 0x2 PUSH1 0x20 MSTORE PUSH1 0x40 SWAP1 KECCAK256 PUSH2 0x1D61 SWAP2 PUSH2 0x1B4C JUMP JUMPDEST POP JUMPDEST DUP5 SLOAD PUSH1 0x1 DUP7 ADD SLOAD PUSH1 0x1 PUSH1 0x1 PUSH1 0xA0 SHL SUB AND PUSH1 0x0 SWAP1 DUP2 MSTORE PUSH1 0x8 PUSH1 0x20 MSTORE PUSH1 0x40 SWAP1 KECCAK256 PUSH2 0x1D8A SWAP2 PUSH2 0x1B4C JUMP JUMPDEST POP DUP5 SLOAD PUSH1 0x1 DUP7 ADD SLOAD PUSH1 0x40 MLOAD PUSH32 0xC6532367992B32E42A62DD89FC3574876D97D081A263AA6E030F34B79B7E6E8B SWAP2 PUSH2 0x1DD2 SWAP2 PUSH1 0x1 PUSH1 0x1 PUSH1 0xA0 SHL SUB SWAP1 SWAP2 AND SWAP1 CALLER SWAP1 DUP9 SWAP1 TIMESTAMP SWAP1 PUSH2 0x37F3 JUMP JUMPDEST PUSH1 0x40 MLOAD DUP1 SWAP2 SUB SWAP1 LOG2 JUMPDEST DUP4 DUP3 PUSH1 0x2 ADD SLOAD GT PUSH2 0x1DF2 JUMPI PUSH1 0x0 PUSH1 0x2 DUP4 ADD SSTORE PUSH2 0x1E08 JUMP JUMPDEST DUP4 DUP3 PUSH1 0x2 ADD SLOAD PUSH2 0x1E02 SWAP2 SWAP1 PUSH2 0x3895 JUMP JUMPDEST PUSH1 0x2 DUP4 ADD SSTORE JUMPDEST DUP2 PUSH1 0x2 ADD SLOAD PUSH1 0x0 SUB PUSH2 0x1E56 JUMPI DUP1 ISZERO PUSH2 0x1E3A JUMPI PUSH1 0x1 DUP6 ADD SLOAD PUSH2 0x1E34 SWAP1 PUSH1 0x3 SWAP1 PUSH1 0x1 PUSH1 0x1 PUSH1 0xA0 SHL SUB AND PUSH2 0x28BE JUMP JUMPDEST POP PUSH2 0x1E56 JUMP JUMPDEST PUSH1 0x1 DUP6 ADD SLOAD PUSH2 0x1E54 SWAP1 PUSH1 0x5 SWAP1 PUSH1 0x1 PUSH1 0x1 PUSH1 0xA0 SHL SUB AND PUSH2 0x28BE JUMP JUMPDEST POP JUMPDEST PUSH1 0x9 DUP6 ADD DUP4 SWAP1 SSTORE PUSH1 0x2 DUP6 ADD SLOAD PUSH1 0x1 DUP7 ADD SLOAD PUSH2 0x1E7E SWAP2 PUSH1 0x1 PUSH1 0x1 PUSH1 0xA0 SHL SUB SWAP2 DUP3 AND SWAP2 AND DUP7 PUSH2 0x28D3 JUMP JUMPDEST DUP5 SLOAD PUSH1 0x1 DUP7 ADD SLOAD PUSH1 0x9 DUP8 ADD SLOAD PUSH1 0x3 DUP9 ADD SLOAD PUSH32 0xF93385FFDF40B698B13993C059834B8E91D0CA8E7ABF827A34001CA03C03F6FF SWAP3 PUSH1 0x1 PUSH1 0x1 PUSH1 0xA0 SHL SUB AND SWAP2 CALLER SWAP2 DUP10 SWAP2 PUSH2 0x1EC8 SWAP2 PUSH2 0x3895 JUMP JUMPDEST PUSH1 0x40 DUP1 MLOAD PUSH1 0x1 PUSH1 0x1 PUSH1 0xA0 SHL SUB SWAP6 DUP7 AND DUP2 MSTORE SWAP5 SWAP1 SWAP4 AND PUSH1 0x20 DUP6 ADD MSTORE SWAP2 DUP4 ADD MSTORE PUSH1 0x60 DUP3 ADD MSTORE TIMESTAMP PUSH1 0x80 DUP3 ADD MSTORE PUSH1 0xA0 ADD PUSH2 0x1226 JUMP JUMPDEST DUP1 PUSH1 0x5 ADD SLOAD TIMESTAMP LT ISZERO PUSH2 0x1F4D JUMPI PUSH1 0x40 MLOAD PUSH3 0x461BCD PUSH1 0xE5 SHL DUP2 MSTORE PUSH1 0x20 PUSH1 0x4 DUP3 ADD MSTORE PUSH1 0x18 PUSH1 0x24 DUP3 ADD MSTORE PUSH32 0x4974206973206E6F742074696D6520746F20756E6C6F636B0000000000000000 PUSH1 0x44 DUP3 ADD MSTORE PUSH1 0x64 ADD PUSH2 0x49C JUMP JUMPDEST PUSH1 0x9 DUP2 ADD SLOAD ISZERO PUSH2 0x1F93 JUMPI PUSH1 0x40 MLOAD PUSH3 0x461BCD PUSH1 0xE5 SHL DUP2 MSTORE PUSH1 0x20 PUSH1 0x4 DUP3 ADD MSTORE PUSH1 0x11 PUSH1 0x24 DUP3 ADD MSTORE PUSH17 0x4E6F7468696E6720746F20756E6C6F636B PUSH1 0x78 SHL PUSH1 0x44 DUP3 ADD MSTORE PUSH1 0x64 ADD PUSH2 0x49C JUMP JUMPDEST PUSH1 0x1 DUP1 DUP3 ADD SLOAD PUSH1 0x1 PUSH1 0x1 PUSH1 0xA0 SHL SUB SWAP1 DUP2 AND PUSH1 0x0 SWAP1 DUP2 MSTORE PUSH1 0x7 PUSH1 0x20 MSTORE PUSH1 0x40 SWAP1 KECCAK256 SWAP2 DUP3 ADD SLOAD AND ISZERO DUP1 ISZERO SWAP1 PUSH2 0x1FDF JUMPI DUP3 SLOAD CALLER PUSH1 0x0 SWAP1 DUP2 MSTORE PUSH1 0x1 PUSH1 0x20 MSTORE PUSH1 0x40 SWAP1 KECCAK256 PUSH2 0x1FD9 SWAP2 PUSH2 0x1B4C JUMP JUMPDEST POP PUSH2 0x1FFB JUMP JUMPDEST DUP3 SLOAD CALLER PUSH1 0x0 SWAP1 DUP2 MSTORE PUSH1 0x2 PUSH1 0x20 MSTORE PUSH1 0x40 SWAP1 KECCAK256 PUSH2 0x1FF9 SWAP2 PUSH2 0x1B4C JUMP JUMPDEST POP JUMPDEST PUSH1 0x3 DUP4 ADD SLOAD PUSH1 0x2 DUP4 ADD SLOAD DUP2 LT PUSH2 0x2017 JUMPI PUSH1 0x0 PUSH1 0x2 DUP5 ADD SSTORE PUSH2 0x202D JUMP JUMPDEST DUP1 DUP4 PUSH1 0x2 ADD SLOAD PUSH2 0x2027 SWAP2 SWAP1 PUSH2 0x3895 JUMP JUMPDEST PUSH1 0x2 DUP5 ADD SSTORE JUMPDEST DUP3 PUSH1 0x2 ADD SLOAD PUSH1 0x0 SUB PUSH2 0x207B JUMPI DUP2 ISZERO PUSH2 0x205F JUMPI PUSH1 0x1 DUP5 ADD SLOAD PUSH2 0x2059 SWAP1 PUSH1 0x3 SWAP1 PUSH1 0x1 PUSH1 0x1 PUSH1 0xA0 SHL SUB AND PUSH2 0x28BE JUMP JUMPDEST POP PUSH2 0x207B JUMP JUMPDEST PUSH1 0x1 DUP5 ADD SLOAD PUSH2 0x2079 SWAP1 PUSH1 0x5 SWAP1 PUSH1 0x1 PUSH1 0x1 PUSH1 0xA0 SHL SUB AND PUSH2 0x28BE JUMP JUMPDEST POP JUMPDEST PUSH1 0x9 DUP5 ADD DUP2 SWAP1 SSTORE DUP4 SLOAD PUSH1 0x1 DUP6 ADD SLOAD PUSH1 0x1 PUSH1 0x1 PUSH1 0xA0 SHL SUB AND PUSH1 0x0 SWAP1 DUP2 MSTORE PUSH1 0x8 PUSH1 0x20 MSTORE PUSH1 0x40 SWAP1 KECCAK256 PUSH2 0x20A9 SWAP2 PUSH2 0x1B4C JUMP JUMPDEST POP PUSH1 0x1 DUP5 ADD SLOAD PUSH2 0x20C3 SWAP1 PUSH1 0x1 PUSH1 0x1 PUSH1 0xA0 SHL SUB AND CALLER DUP4 PUSH2 0x28D3 JUMP JUMPDEST DUP4 SLOAD PUSH1 0x1 DUP6 ADD SLOAD PUSH1 0x40 MLOAD PUSH32 0xC6532367992B32E42A62DD89FC3574876D97D081A263AA6E030F34B79B7E6E8B SWAP2 PUSH2 0x210A SWAP2 PUSH1 0x1 PUSH1 0x1 PUSH1 0xA0 SHL SUB SWAP1 SWAP2 AND SWAP1 CALLER SWAP1 DUP7 SWAP1 TIMESTAMP SWAP1 PUSH2 0x37F3 JUMP JUMPDEST PUSH1 0x40 MLOAD DUP1 SWAP2 SUB SWAP1 LOG2 POP POP POP POP JUMP JUMPDEST PUSH1 0x0 DUP2 PUSH1 0x60 ADD MLOAD PUSH1 0x0 SUB PUSH2 0x212E JUMPI POP PUSH1 0x0 SWAP2 SWAP1 POP JUMP JUMPDEST DUP2 PUSH1 0x60 ADD MLOAD DUP3 PUSH2 0x120 ADD MLOAD LT PUSH2 0x2146 JUMPI POP PUSH1 0x0 SWAP2 SWAP1 POP JUMP JUMPDEST DUP2 PUSH1 0xA0 ADD MLOAD TIMESTAMP LT ISZERO PUSH2 0x215A JUMPI POP PUSH1 0x0 SWAP2 SWAP1 POP JUMP JUMPDEST DUP2 PUSH1 0xE0 ADD MLOAD PUSH1 0x0 SUB PUSH2 0x216E JUMPI POP PUSH1 0x0 SWAP2 SWAP1 POP JUMP JUMPDEST PUSH1 0x0 PUSH2 0x2185 DUP4 PUSH1 0x60 ADD MLOAD DUP5 PUSH1 0xC0 ADD MLOAD PUSH2 0x2710 PUSH2 0x2903 JUMP JUMPDEST SWAP1 POP PUSH1 0x0 PUSH2 0x219F DUP5 PUSH1 0x60 ADD MLOAD DUP6 PUSH2 0x100 ADD MLOAD PUSH2 0x2710 PUSH2 0x2903 JUMP JUMPDEST SWAP1 POP PUSH1 0x0 DUP5 PUSH1 0xA0 ADD MLOAD TIMESTAMP LT PUSH2 0x21E6 JUMPI DUP3 DUP3 DUP7 PUSH1 0xE0 ADD MLOAD DUP8 PUSH1 0xA0 ADD MLOAD TIMESTAMP PUSH2 0x21C5 SWAP2 SWAP1 PUSH2 0x3895 JUMP JUMPDEST PUSH2 0x21CF SWAP2 SWAP1 PUSH2 0x3A73 JUMP JUMPDEST PUSH2 0x21D9 SWAP2 SWAP1 PUSH2 0x3A95 JUMP JUMPDEST PUSH2 0x21E3 SWAP2 SWAP1 PUSH2 0x3882 JUMP JUMPDEST SWAP1 POP JUMPDEST PUSH1 0x0 DUP6 PUSH1 0x60 ADD MLOAD DUP3 GT ISZERO PUSH2 0x2210 JUMPI DUP6 PUSH2 0x120 ADD MLOAD DUP7 PUSH1 0x60 ADD MLOAD PUSH2 0x2209 SWAP2 SWAP1 PUSH2 0x3895 JUMP JUMPDEST SWAP1 POP PUSH2 0x2223 JUMP JUMPDEST PUSH2 0x120 DUP7 ADD MLOAD PUSH2 0x2220 SWAP1 DUP4 PUSH2 0x3895 JUMP JUMPDEST SWAP1 POP JUMPDEST SWAP6 SWAP5 POP POP POP POP POP JUMP JUMPDEST PUSH1 0x60 PUSH1 0x1 PUSH1 0x1 PUSH1 0xA0 SHL SUB DUP6 AND PUSH2 0x2254 JUMPI PUSH1 0x40 MLOAD PUSH3 0x461BCD PUSH1 0xE5 SHL DUP2 MSTORE PUSH1 0x4 ADD PUSH2 0x49C SWAP1 PUSH2 0x37CC JUMP JUMPDEST PUSH1 0x0 PUSH2 0x2260 DUP9 DUP9 PUSH2 0x29B1 JUMP JUMPDEST SWAP1 POP DUP9 PUSH1 0x0 DUP2 PUSH1 0x1 PUSH1 0x1 PUSH1 0x40 SHL SUB DUP2 GT ISZERO PUSH2 0x227D JUMPI PUSH2 0x227D PUSH2 0x3134 JUMP JUMPDEST PUSH1 0x40 MLOAD SWAP1 DUP1 DUP3 MSTORE DUP1 PUSH1 0x20 MUL PUSH1 0x20 ADD DUP3 ADD PUSH1 0x40 MSTORE DUP1 ISZERO PUSH2 0x22A6 JUMPI DUP2 PUSH1 0x20 ADD PUSH1 0x20 DUP3 MUL DUP1 CALLDATASIZE DUP4 CALLDATACOPY ADD SWAP1 POP JUMPDEST POP SWAP1 POP PUSH1 0x0 JUMPDEST DUP3 DUP2 LT ISZERO PUSH2 0x2406 JUMPI PUSH2 0x232A DUP14 DUP14 DUP4 DUP2 DUP2 LT PUSH2 0x22C9 JUMPI PUSH2 0x22C9 PUSH2 0x381C JUMP JUMPDEST SWAP1 POP PUSH1 0x20 MUL ADD PUSH1 0x20 DUP2 ADD SWAP1 PUSH2 0x22DE SWAP2 SWAP1 PUSH2 0x325C JUMP JUMPDEST DUP11 DUP11 DUP15 DUP15 DUP7 DUP2 DUP2 LT PUSH2 0x22F2 JUMPI PUSH2 0x22F2 PUSH2 0x381C JUMP JUMPDEST SWAP1 POP PUSH1 0x20 MUL ADD CALLDATALOAD DUP12 PUSH1 0x0 PUSH1 0x4 DUP2 LT PUSH2 0x230C JUMPI PUSH2 0x230C PUSH2 0x381C JUMP JUMPDEST PUSH1 0x20 SWAP1 DUP2 MUL SWAP2 SWAP1 SWAP2 ADD MLOAD SWAP1 DUP14 ADD MLOAD PUSH1 0x40 DUP15 ADD MLOAD PUSH1 0x60 DUP16 ADD MLOAD DUP15 PUSH2 0x18F9 JUMP JUMPDEST DUP3 DUP3 DUP2 MLOAD DUP2 LT PUSH2 0x233C JUMPI PUSH2 0x233C PUSH2 0x381C JUMP JUMPDEST PUSH1 0x20 MUL PUSH1 0x20 ADD ADD DUP2 DUP2 MSTORE POP POP DUP2 DUP2 DUP2 MLOAD DUP2 LT PUSH2 0x235A JUMPI PUSH2 0x235A PUSH2 0x381C JUMP JUMPDEST PUSH1 0x20 MUL PUSH1 0x20 ADD ADD MLOAD PUSH32 0x694AF1CC8727CDD0AFBDD53D9B87B69248BD490224E9DD090E788546506E076F DUP11 DUP16 DUP16 DUP6 DUP2 DUP2 LT PUSH2 0x2396 JUMPI PUSH2 0x2396 PUSH2 0x381C JUMP JUMPDEST SWAP1 POP PUSH1 0x20 MUL ADD PUSH1 0x20 DUP2 ADD SWAP1 PUSH2 0x23AB SWAP2 SWAP1 PUSH2 0x325C JUMP JUMPDEST DUP15 DUP15 DUP7 DUP2 DUP2 LT PUSH2 0x23BD JUMPI PUSH2 0x23BD PUSH2 0x381C JUMP JUMPDEST SWAP1 POP PUSH1 0x20 MUL ADD CALLDATALOAD DUP12 PUSH1 0x0 PUSH1 0x4 DUP2 LT PUSH2 0x23D7 JUMPI PUSH2 0x23D7 PUSH2 0x381C JUMP JUMPDEST PUSH1 0x20 MUL ADD MLOAD PUSH1 0x40 MLOAD PUSH2 0x23EC SWAP5 SWAP4 SWAP3 SWAP2 SWAP1 PUSH2 0x37F3 JUMP JUMPDEST PUSH1 0x40 MLOAD DUP1 SWAP2 SUB SWAP1 LOG2 DUP1 PUSH2 0x23FE DUP2 PUSH2 0x38A8 JUMP JUMPDEST SWAP2 POP POP PUSH2 0x22AC JUMP JUMPDEST POP PUSH2 0x2413 DUP9 CALLER ADDRESS DUP7 PUSH2 0x1945 JUMP JUMPDEST SWAP12 SWAP11 POP POP POP POP POP POP POP POP POP POP POP JUMP JUMPDEST PUSH1 0x0 DUP1 DUP3 PUSH1 0x1 PUSH1 0x1 PUSH1 0xA0 SHL SUB AND PUSH4 0xC45A0155 PUSH1 0x40 MLOAD DUP2 PUSH4 0xFFFFFFFF AND PUSH1 0xE0 SHL DUP2 MSTORE PUSH1 0x4 ADD PUSH1 0x20 PUSH1 0x40 MLOAD DUP1 DUP4 SUB DUP2 DUP7 GAS STATICCALL SWAP3 POP POP POP DUP1 ISZERO PUSH2 0x247F JUMPI POP PUSH1 0x40 DUP1 MLOAD PUSH1 0x1F RETURNDATASIZE SWAP1 DUP2 ADD PUSH1 0x1F NOT AND DUP3 ADD SWAP1 SWAP3 MSTORE PUSH2 0x247C SWAP2 DUP2 ADD SWAP1 PUSH2 0x3AAC JUMP JUMPDEST PUSH1 0x1 JUMPDEST PUSH2 0x24CB JUMPI PUSH1 0x40 MLOAD PUSH3 0x461BCD PUSH1 0xE5 SHL DUP2 MSTORE PUSH1 0x20 PUSH1 0x4 DUP3 ADD MSTORE PUSH1 0x1C PUSH1 0x24 DUP3 ADD MSTORE PUSH32 0x5468697320746F6B656E206973206E6F742061204C5020746F6B656E00000000 PUSH1 0x44 DUP3 ADD MSTORE PUSH1 0x64 ADD PUSH2 0x49C JUMP JUMPDEST SWAP1 POP PUSH1 0x1 PUSH1 0x1 PUSH1 0xA0 SHL SUB DUP2 AND ISZERO DUP1 ISZERO SWAP1 PUSH2 0x24EA JUMPI POP PUSH2 0x24EA DUP4 DUP3 PUSH2 0x2A54 JUMP JUMPDEST PUSH2 0x5DA JUMPI PUSH1 0x40 MLOAD PUSH3 0x461BCD PUSH1 0xE5 SHL DUP2 MSTORE PUSH1 0x20 PUSH1 0x4 DUP3 ADD MSTORE PUSH1 0x1D PUSH1 0x24 DUP3 ADD MSTORE PUSH32 0x5468697320746F6B656E206973206E6F742061204C5020746F6B656E2E000000 PUSH1 0x44 DUP3 ADD MSTORE PUSH1 0x64 ADD PUSH2 0x49C JUMP JUMPDEST PUSH1 0x0 PUSH2 0x2548 DUP11 DUP11 DUP10 DUP10 DUP10 DUP10 DUP10 DUP10 PUSH2 0x2BB7 JUMP JUMPDEST PUSH1 0x1 PUSH1 0x1 PUSH1 0xA0 SHL SUB DUP12 AND PUSH1 0x0 SWAP1 DUP2 MSTORE PUSH1 0x1 PUSH1 0x20 MSTORE PUSH1 0x40 SWAP1 KECCAK256 SWAP1 SWAP2 POP PUSH2 0x256D SWAP1 DUP3 PUSH2 0x1B58 JUMP JUMPDEST POP PUSH2 0x2579 PUSH1 0x3 DUP11 PUSH2 0x2E22 JUMP JUMPDEST POP PUSH1 0x1 PUSH1 0x1 PUSH1 0xA0 SHL SUB DUP1 DUP11 AND PUSH1 0x0 SWAP1 DUP2 MSTORE PUSH1 0x7 PUSH1 0x20 MSTORE PUSH1 0x40 SWAP1 KECCAK256 DUP1 SLOAD SWAP1 SWAP2 AND PUSH2 0x25C9 JUMPI DUP1 SLOAD PUSH1 0x1 PUSH1 0x1 PUSH1 0xA0 SHL SUB DUP1 DUP13 AND PUSH1 0x1 PUSH1 0x1 PUSH1 0xA0 SHL SUB NOT SWAP3 DUP4 AND OR DUP4 SSTORE PUSH1 0x1 DUP4 ADD DUP1 SLOAD SWAP2 DUP13 AND SWAP2 SWAP1 SWAP3 AND OR SWAP1 SSTORE JUMPDEST DUP8 DUP2 PUSH1 0x2 ADD SLOAD PUSH2 0x25D9 SWAP2 SWAP1 PUSH2 0x3882 JUMP JUMPDEST PUSH1 0x2 DUP3 ADD SSTORE PUSH1 0x1 PUSH1 0x1 PUSH1 0xA0 SHL SUB DUP11 AND PUSH1 0x0 SWAP1 DUP2 MSTORE PUSH1 0x8 PUSH1 0x20 MSTORE PUSH1 0x40 SWAP1 KECCAK256 PUSH2 0x2600 SWAP1 DUP4 PUSH2 0x1B58 JUMP JUMPDEST POP POP SWAP10 SWAP9 POP POP POP POP POP POP POP POP POP JUMP JUMPDEST PUSH1 0x0 PUSH2 0x2621 DUP10 DUP10 DUP10 DUP10 DUP10 DUP10 DUP10 DUP10 PUSH2 0x2BB7 JUMP JUMPDEST PUSH1 0x1 PUSH1 0x1 PUSH1 0xA0 SHL SUB DUP11 AND PUSH1 0x0 SWAP1 DUP2 MSTORE PUSH1 0x2 PUSH1 0x20 MSTORE PUSH1 0x40 SWAP1 KECCAK256 SWAP1 SWAP2 POP PUSH2 0x2646 SWAP1 DUP3 PUSH2 0x1B58 JUMP JUMPDEST POP PUSH2 0x2652 PUSH1 0x5 DUP10 PUSH2 0x2E22 JUMP JUMPDEST POP PUSH1 0x1 PUSH1 0x1 PUSH1 0xA0 SHL SUB DUP1 DUP10 AND PUSH1 0x0 SWAP1 DUP2 MSTORE PUSH1 0x7 PUSH1 0x20 MSTORE PUSH1 0x40 SWAP1 KECCAK256 DUP1 SLOAD SWAP1 SWAP2 AND PUSH2 0x269C JUMPI DUP1 SLOAD PUSH1 0x1 PUSH1 0x1 PUSH1 0xA0 SHL SUB DUP11 AND PUSH1 0x1 PUSH1 0x1 PUSH1 0xA0 SHL SUB NOT SWAP2 DUP3 AND OR DUP3 SSTORE PUSH1 0x1 DUP3 ADD DUP1 SLOAD SWAP1 SWAP2 AND SWAP1 SSTORE JUMPDEST DUP8 DUP2 PUSH1 0x2 ADD SLOAD PUSH2 0x26AC SWAP2 SWAP1 PUSH2 0x3882 JUMP JUMPDEST PUSH1 0x2 DUP3 ADD SSTORE PUSH1 0x1 PUSH1 0x1 PUSH1 0xA0 SHL SUB DUP10 AND PUSH1 0x0 SWAP1 DUP2 MSTORE PUSH1 0x8 PUSH1 0x20 MSTORE PUSH1 0x40 SWAP1 KECCAK256 PUSH2 0x26D3 SWAP1 DUP4 PUSH2 0x1B58 JUMP JUMPDEST POP POP SWAP9 SWAP8 POP POP POP POP POP POP POP POP JUMP JUMPDEST PUSH1 0x40 MLOAD PUSH1 0x1 PUSH1 0x1 PUSH1 0xA0 SHL SUB DUP1 DUP6 AND PUSH1 0x24 DUP4 ADD MSTORE DUP4 AND PUSH1 0x44 DUP3 ADD MSTORE PUSH1 0x64 DUP2 ADD DUP3 SWAP1 MSTORE PUSH2 0x274C SWAP1 DUP6 SWAP1 PUSH4 0x23B872DD PUSH1 0xE0 SHL SWAP1 PUSH1 0x84 ADD JUMPDEST PUSH1 0x40 DUP1 MLOAD PUSH1 0x1F NOT DUP2 DUP5 SUB ADD DUP2 MSTORE SWAP2 SWAP1 MSTORE PUSH1 0x20 DUP2 ADD DUP1 MLOAD PUSH1 0x1 PUSH1 0x1 PUSH1 0xE0 SHL SUB AND PUSH1 0x1 PUSH1 0x1 PUSH1 0xE0 SHL SUB NOT SWAP1 SWAP4 AND SWAP3 SWAP1 SWAP3 OR SWAP1 SWAP2 MSTORE PUSH2 0x2E37 JUMP JUMPDEST POP POP POP POP JUMP JUMPDEST PUSH1 0x0 DUP3 PUSH1 0x0 ADD DUP3 DUP2 SLOAD DUP2 LT PUSH2 0x2769 JUMPI PUSH2 0x2769 PUSH2 0x381C JUMP JUMPDEST SWAP1 PUSH1 0x0 MSTORE PUSH1 0x20 PUSH1 0x0 KECCAK256 ADD SLOAD SWAP1 POP SWAP3 SWAP2 POP POP JUMP JUMPDEST PUSH1 0x0 DUP2 DUP2 MSTORE PUSH1 0x1 DUP4 ADD PUSH1 0x20 MSTORE PUSH1 0x40 DUP2 KECCAK256 SLOAD DUP1 ISZERO PUSH2 0x2865 JUMPI PUSH1 0x0 PUSH2 0x27A0 PUSH1 0x1 DUP4 PUSH2 0x3895 JUMP JUMPDEST DUP6 SLOAD SWAP1 SWAP2 POP PUSH1 0x0 SWAP1 PUSH2 0x27B4 SWAP1 PUSH1 0x1 SWAP1 PUSH2 0x3895 JUMP JUMPDEST SWAP1 POP DUP2 DUP2 EQ PUSH2 0x2819 JUMPI PUSH1 0x0 DUP7 PUSH1 0x0 ADD DUP3 DUP2 SLOAD DUP2 LT PUSH2 0x27D4 JUMPI PUSH2 0x27D4 PUSH2 0x381C JUMP JUMPDEST SWAP1 PUSH1 0x0 MSTORE PUSH1 0x20 PUSH1 0x0 KECCAK256 ADD SLOAD SWAP1 POP DUP1 DUP8 PUSH1 0x0 ADD DUP5 DUP2 SLOAD DUP2 LT PUSH2 0x27F7 JUMPI PUSH2 0x27F7 PUSH2 0x381C JUMP JUMPDEST PUSH1 0x0 SWAP2 DUP3 MSTORE PUSH1 0x20 DUP1 DUP4 KECCAK256 SWAP1 SWAP2 ADD SWAP3 SWAP1 SWAP3 SSTORE SWAP2 DUP3 MSTORE PUSH1 0x1 DUP9 ADD SWAP1 MSTORE PUSH1 0x40 SWAP1 KECCAK256 DUP4 SWAP1 SSTORE JUMPDEST DUP6 SLOAD DUP7 SWAP1 DUP1 PUSH2 0x282A JUMPI PUSH2 0x282A PUSH2 0x3AC9 JUMP JUMPDEST PUSH1 0x1 SWAP1 SUB DUP2 DUP2 SWAP1 PUSH1 0x0 MSTORE PUSH1 0x20 PUSH1 0x0 KECCAK256 ADD PUSH1 0x0 SWAP1 SSTORE SWAP1 SSTORE DUP6 PUSH1 0x1 ADD PUSH1 0x0 DUP7 DUP2 MSTORE PUSH1 0x20 ADD SWAP1 DUP2 MSTORE PUSH1 0x20 ADD PUSH1 0x0 KECCAK256 PUSH1 0x0 SWAP1 SSTORE PUSH1 0x1 SWAP4 POP POP POP POP PUSH2 0x5DA JUMP JUMPDEST PUSH1 0x0 SWAP2 POP POP PUSH2 0x5DA JUMP JUMPDEST PUSH1 0x0 DUP2 DUP2 MSTORE PUSH1 0x1 DUP4 ADD PUSH1 0x20 MSTORE PUSH1 0x40 DUP2 KECCAK256 SLOAD PUSH2 0x28B6 JUMPI POP DUP2 SLOAD PUSH1 0x1 DUP2 DUP2 ADD DUP5 SSTORE PUSH1 0x0 DUP5 DUP2 MSTORE PUSH1 0x20 DUP1 DUP3 KECCAK256 SWAP1 SWAP4 ADD DUP5 SWAP1 SSTORE DUP5 SLOAD DUP5 DUP3 MSTORE DUP3 DUP7 ADD SWAP1 SWAP4 MSTORE PUSH1 0x40 SWAP1 KECCAK256 SWAP2 SWAP1 SWAP2 SSTORE PUSH2 0x5DA JUMP JUMPDEST POP PUSH1 0x0 PUSH2 0x5DA JUMP JUMPDEST PUSH1 0x0 PUSH2 0x8AE DUP4 PUSH1 0x1 PUSH1 0x1 PUSH1 0xA0 SHL SUB DUP5 AND PUSH2 0x277C JUMP JUMPDEST PUSH1 0x40 MLOAD PUSH1 0x1 PUSH1 0x1 PUSH1 0xA0 SHL SUB DUP4 AND PUSH1 0x24 DUP3 ADD MSTORE PUSH1 0x44 DUP2 ADD DUP3 SWAP1 MSTORE PUSH2 0xB42 SWAP1 DUP5 SWAP1 PUSH4 0xA9059CBB PUSH1 0xE0 SHL SWAP1 PUSH1 0x64 ADD PUSH2 0x2715 JUMP JUMPDEST PUSH1 0x0 DUP1 DUP1 PUSH1 0x0 NOT DUP6 DUP8 MULMOD DUP6 DUP8 MUL SWAP3 POP DUP3 DUP2 LT DUP4 DUP3 SUB SUB SWAP2 POP POP DUP1 PUSH1 0x0 SUB PUSH2 0x293C JUMPI PUSH1 0x0 DUP5 GT PUSH2 0x2931 JUMPI PUSH1 0x0 DUP1 REVERT JUMPDEST POP DUP3 SWAP1 DIV SWAP1 POP PUSH2 0x8AE JUMP JUMPDEST DUP1 DUP5 GT PUSH2 0x2948 JUMPI PUSH1 0x0 DUP1 REVERT JUMPDEST PUSH1 0x0 DUP5 DUP7 DUP9 MULMOD PUSH1 0x2 PUSH1 0x1 DUP8 NOT DUP2 ADD DUP9 AND SWAP8 DUP9 SWAP1 DIV PUSH1 0x3 DUP2 MUL DUP4 XOR DUP1 DUP3 MUL DUP5 SUB MUL DUP1 DUP3 MUL DUP5 SUB MUL DUP1 DUP3 MUL DUP5 SUB MUL DUP1 DUP3 MUL DUP5 SUB MUL DUP1 DUP3 MUL DUP5 SUB MUL SWAP1 DUP2 MUL SWAP1 SWAP3 SUB SWAP1 SWAP2 MUL PUSH1 0x0 DUP9 SWAP1 SUB DUP9 SWAP1 DIV SWAP1 SWAP2 ADD DUP6 DUP4 GT SWAP1 SWAP5 SUB SWAP4 SWAP1 SWAP4 MUL SWAP4 SUB SWAP5 SWAP1 SWAP5 DIV SWAP2 SWAP1 SWAP2 OR MUL SWAP5 SWAP4 POP POP POP POP JUMP JUMPDEST PUSH1 0x0 DUP1 DUP1 JUMPDEST DUP4 DUP2 LT ISZERO PUSH2 0xF97 JUMPI DUP5 DUP5 DUP3 DUP2 DUP2 LT PUSH2 0x29D0 JUMPI PUSH2 0x29D0 PUSH2 0x381C JUMP JUMPDEST SWAP1 POP PUSH1 0x20 MUL ADD CALLDATALOAD PUSH1 0x0 SUB PUSH2 0x2A1C JUMPI PUSH1 0x40 MLOAD PUSH3 0x461BCD PUSH1 0xE5 SHL DUP2 MSTORE PUSH1 0x20 PUSH1 0x4 DUP3 ADD MSTORE PUSH1 0x13 PUSH1 0x24 DUP3 ADD MSTORE PUSH19 0x416D6F756E742063616E74206265207A65726F PUSH1 0x68 SHL PUSH1 0x44 DUP3 ADD MSTORE PUSH1 0x64 ADD PUSH2 0x49C JUMP JUMPDEST DUP5 DUP5 DUP3 DUP2 DUP2 LT PUSH2 0x2A2E JUMPI PUSH2 0x2A2E PUSH2 0x381C JUMP JUMPDEST SWAP1 POP PUSH1 0x20 MUL ADD CALLDATALOAD DUP3 PUSH2 0x2A40 SWAP2 SWAP1 PUSH2 0x3882 JUMP JUMPDEST SWAP2 POP DUP1 PUSH2 0x2A4C DUP2 PUSH2 0x38A8 JUMP JUMPDEST SWAP2 POP POP PUSH2 0x29B6 JUMP JUMPDEST PUSH1 0x0 DUP1 DUP4 SWAP1 POP PUSH1 0x0 DUP4 PUSH1 0x1 PUSH1 0x1 PUSH1 0xA0 SHL SUB AND PUSH4 0xE6A43905 DUP4 PUSH1 0x1 PUSH1 0x1 PUSH1 0xA0 SHL SUB AND PUSH4 0xDFE1681 PUSH1 0x40 MLOAD DUP2 PUSH4 0xFFFFFFFF AND PUSH1 0xE0 SHL DUP2 MSTORE PUSH1 0x4 ADD PUSH1 0x20 PUSH1 0x40 MLOAD DUP1 DUP4 SUB DUP2 DUP7 GAS STATICCALL ISZERO DUP1 ISZERO PUSH2 0x2AA9 JUMPI RETURNDATASIZE PUSH1 0x0 DUP1 RETURNDATACOPY RETURNDATASIZE PUSH1 0x0 REVERT JUMPDEST POP POP POP POP PUSH1 0x40 MLOAD RETURNDATASIZE PUSH1 0x1F NOT PUSH1 0x1F DUP3 ADD AND DUP3 ADD DUP1 PUSH1 0x40 MSTORE POP DUP2 ADD SWAP1 PUSH2 0x2ACD SWAP2 SWAP1 PUSH2 0x3AAC JUMP JUMPDEST DUP5 PUSH1 0x1 PUSH1 0x1 PUSH1 0xA0 SHL SUB AND PUSH4 0xD21220A7 PUSH1 0x40 MLOAD DUP2 PUSH4 0xFFFFFFFF AND PUSH1 0xE0 SHL DUP2 MSTORE PUSH1 0x4 ADD PUSH1 0x20 PUSH1 0x40 MLOAD DUP1 DUP4 SUB DUP2 DUP7 GAS STATICCALL ISZERO DUP1 ISZERO PUSH2 0x2B0B JUMPI RETURNDATASIZE PUSH1 0x0 DUP1 RETURNDATACOPY RETURNDATASIZE PUSH1 0x0 REVERT JUMPDEST POP POP POP POP PUSH1 0x40 MLOAD RETURNDATASIZE PUSH1 0x1F NOT PUSH1 0x1F DUP3 ADD AND DUP3 ADD DUP1 PUSH1 0x40 MSTORE POP DUP2 ADD SWAP1 PUSH2 0x2B2F SWAP2 SWAP1 PUSH2 0x3AAC JUMP JUMPDEST PUSH1 0x40 MLOAD PUSH1 0x1 PUSH1 0x1 PUSH1 0xE0 SHL SUB NOT PUSH1 0xE0 DUP6 SWAP1 SHL AND DUP2 MSTORE PUSH1 0x1 PUSH1 0x1 PUSH1 0xA0 SHL SUB SWAP3 DUP4 AND PUSH1 0x4 DUP3 ADD MSTORE SWAP2 AND PUSH1 0x24 DUP3 ADD MSTORE PUSH1 0x44 ADD PUSH1 0x20 PUSH1 0x40 MLOAD DUP1 DUP4 SUB DUP2 DUP7 GAS STATICCALL ISZERO DUP1 ISZERO PUSH2 0x2B7A JUMPI RETURNDATASIZE PUSH1 0x0 DUP1 RETURNDATACOPY RETURNDATASIZE PUSH1 0x0 REVERT JUMPDEST POP POP POP POP PUSH1 0x40 MLOAD RETURNDATASIZE PUSH1 0x1F NOT PUSH1 0x1F DUP3 ADD AND DUP3 ADD DUP1 PUSH1 0x40 MSTORE POP DUP2 ADD SWAP1 PUSH2 0x2B9E SWAP2 SWAP1 PUSH2 0x3AAC JUMP JUMPDEST PUSH1 0x1 PUSH1 0x1 PUSH1 0xA0 SHL SUB SWAP1 DUP2 AND SWAP1 DUP7 AND EQ SWAP3 POP POP POP SWAP3 SWAP2 POP POP JUMP JUMPDEST PUSH1 0x0 DUP1 SLOAD PUSH2 0x2BC9 SWAP1 PUSH3 0xF4240 SWAP1 PUSH2 0x3882 JUMP JUMPDEST PUSH1 0x40 DUP1 MLOAD PUSH2 0x160 DUP2 ADD DUP3 MSTORE DUP3 DUP2 MSTORE PUSH1 0x1 PUSH1 0x1 PUSH1 0xA0 SHL SUB DUP1 DUP13 AND PUSH1 0x20 DUP4 ADD SWAP1 DUP2 MSTORE DUP14 DUP3 AND SWAP4 DUP4 ADD SWAP4 DUP5 MSTORE PUSH1 0x60 DUP4 ADD DUP13 DUP2 MSTORE TIMESTAMP PUSH1 0x80 DUP6 ADD SWAP1 DUP2 MSTORE PUSH1 0xA0 DUP6 ADD DUP14 DUP2 MSTORE PUSH1 0xC0 DUP7 ADD DUP14 DUP2 MSTORE PUSH1 0xE0 DUP8 ADD DUP14 DUP2 MSTORE PUSH2 0x100 DUP9 ADD DUP14 DUP2 MSTORE PUSH1 0x0 PUSH2 0x120 DUP11 ADD DUP2 DUP2 MSTORE PUSH2 0x140 DUP12 ADD DUP16 DUP2 MSTORE DUP3 SLOAD PUSH1 0x1 DUP2 ADD DUP5 SSTORE SWAP3 DUP1 MSTORE DUP12 MLOAD PUSH1 0xB SWAP1 SWAP4 MUL PUSH32 0x290DECD9548B62A8D60345A988386FC84BA6BC95484008F6362F93160EF3E563 DUP2 ADD SWAP4 DUP5 SSTORE SWAP10 MLOAD PUSH32 0x290DECD9548B62A8D60345A988386FC84BA6BC95484008F6362F93160EF3E564 DUP12 ADD DUP1 SLOAD SWAP2 DUP14 AND PUSH1 0x1 PUSH1 0x1 PUSH1 0xA0 SHL SUB NOT SWAP3 DUP4 AND OR SWAP1 SSTORE SWAP13 MLOAD PUSH32 0x290DECD9548B62A8D60345A988386FC84BA6BC95484008F6362F93160EF3E565 DUP12 ADD DUP1 SLOAD SWAP2 SWAP1 SWAP13 AND SWAP14 AND SWAP13 SWAP1 SWAP13 OR SWAP1 SWAP10 SSTORE SWAP6 MLOAD PUSH32 0x290DECD9548B62A8D60345A988386FC84BA6BC95484008F6362F93160EF3E566 DUP9 ADD SSTORE SWAP4 MLOAD PUSH32 0x290DECD9548B62A8D60345A988386FC84BA6BC95484008F6362F93160EF3E567 DUP8 ADD SSTORE SWAP2 MLOAD PUSH32 0x290DECD9548B62A8D60345A988386FC84BA6BC95484008F6362F93160EF3E568 DUP7 ADD SSTORE MLOAD PUSH32 0x290DECD9548B62A8D60345A988386FC84BA6BC95484008F6362F93160EF3E569 DUP6 ADD SSTORE MLOAD PUSH32 0x290DECD9548B62A8D60345A988386FC84BA6BC95484008F6362F93160EF3E56A DUP5 ADD SSTORE MLOAD PUSH32 0x290DECD9548B62A8D60345A988386FC84BA6BC95484008F6362F93160EF3E56B DUP4 ADD SSTORE SWAP2 MLOAD PUSH32 0x290DECD9548B62A8D60345A988386FC84BA6BC95484008F6362F93160EF3E56C DUP3 ADD SSTORE SWAP3 MLOAD SWAP4 SWAP5 POP SWAP1 SWAP3 DUP4 SWAP3 PUSH32 0x290DECD9548B62A8D60345A988386FC84BA6BC95484008F6362F93160EF3E56D ADD SWAP1 PUSH2 0x2E12 SWAP1 DUP3 PUSH2 0x399B JUMP JUMPDEST POP POP POP POP SWAP9 SWAP8 POP POP POP POP POP POP POP POP JUMP JUMPDEST PUSH1 0x0 PUSH2 0x8AE DUP4 PUSH1 0x1 PUSH1 0x1 PUSH1 0xA0 SHL SUB DUP5 AND PUSH2 0x286F JUMP JUMPDEST PUSH1 0x0 PUSH2 0x2E8C DUP3 PUSH1 0x40 MLOAD DUP1 PUSH1 0x40 ADD PUSH1 0x40 MSTORE DUP1 PUSH1 0x20 DUP2 MSTORE PUSH1 0x20 ADD PUSH32 0x5361666545524332303A206C6F772D6C6576656C2063616C6C206661696C6564 DUP2 MSTORE POP DUP6 PUSH1 0x1 PUSH1 0x1 PUSH1 0xA0 SHL SUB AND PUSH2 0x2F09 SWAP1 SWAP3 SWAP2 SWAP1 PUSH4 0xFFFFFFFF AND JUMP JUMPDEST DUP1 MLOAD SWAP1 SWAP2 POP ISZERO PUSH2 0xB42 JUMPI DUP1 DUP1 PUSH1 0x20 ADD SWAP1 MLOAD DUP2 ADD SWAP1 PUSH2 0x2EAA SWAP2 SWAP1 PUSH2 0x3ADF JUMP JUMPDEST PUSH2 0xB42 JUMPI PUSH1 0x40 MLOAD PUSH3 0x461BCD PUSH1 0xE5 SHL DUP2 MSTORE PUSH1 0x20 PUSH1 0x4 DUP3 ADD MSTORE PUSH1 0x2A PUSH1 0x24 DUP3 ADD MSTORE PUSH32 0x5361666545524332303A204552433230206F7065726174696F6E20646964206E PUSH1 0x44 DUP3 ADD MSTORE PUSH10 0x1BDD081CDD58D8D95959 PUSH1 0xB2 SHL PUSH1 0x64 DUP3 ADD MSTORE PUSH1 0x84 ADD PUSH2 0x49C JUMP JUMPDEST PUSH1 0x60 PUSH2 0x2F18 DUP5 DUP5 PUSH1 0x0 DUP6 PUSH2 0x2F20 JUMP JUMPDEST SWAP5 SWAP4 POP POP POP POP JUMP JUMPDEST PUSH1 0x60 DUP3 SELFBALANCE LT ISZERO PUSH2 0x2F81 JUMPI PUSH1 0x40 MLOAD PUSH3 0x461BCD PUSH1 0xE5 SHL DUP2 MSTORE PUSH1 0x20 PUSH1 0x4 DUP3 ADD MSTORE PUSH1 0x26 PUSH1 0x24 DUP3 ADD MSTORE PUSH32 0x416464726573733A20696E73756666696369656E742062616C616E636520666F PUSH1 0x44 DUP3 ADD MSTORE PUSH6 0x1C8818D85B1B PUSH1 0xD2 SHL PUSH1 0x64 DUP3 ADD MSTORE PUSH1 0x84 ADD PUSH2 0x49C JUMP JUMPDEST PUSH1 0x1 PUSH1 0x1 PUSH1 0xA0 SHL SUB DUP6 AND EXTCODESIZE PUSH2 0x2FD8 JUMPI PUSH1 0x40 MLOAD PUSH3 0x461BCD PUSH1 0xE5 SHL DUP2 MSTORE PUSH1 0x20 PUSH1 0x4 DUP3 ADD MSTORE PUSH1 0x1D PUSH1 0x24 DUP3 ADD MSTORE PUSH32 0x416464726573733A2063616C6C20746F206E6F6E2D636F6E7472616374000000 PUSH1 0x44 DUP3 ADD MSTORE PUSH1 0x64 ADD PUSH2 0x49C JUMP JUMPDEST PUSH1 0x0 DUP1 DUP7 PUSH1 0x1 PUSH1 0x1 PUSH1 0xA0 SHL SUB AND DUP6 DUP8 PUSH1 0x40 MLOAD PUSH2 0x2FF4 SWAP2 SWAP1 PUSH2 0x3AFC JUMP JUMPDEST PUSH1 0x0 PUSH1 0x40 MLOAD DUP1 DUP4 SUB DUP2 DUP6 DUP8 GAS CALL SWAP3 POP POP POP RETURNDATASIZE DUP1 PUSH1 0x0 DUP2 EQ PUSH2 0x3031 JUMPI PUSH1 0x40 MLOAD SWAP2 POP PUSH1 0x1F NOT PUSH1 0x3F RETURNDATASIZE ADD AND DUP3 ADD PUSH1 0x40 MSTORE RETURNDATASIZE DUP3 MSTORE RETURNDATASIZE PUSH1 0x0 PUSH1 0x20 DUP5 ADD RETURNDATACOPY PUSH2 0x3036 JUMP JUMPDEST PUSH1 0x60 SWAP2 POP JUMPDEST POP SWAP2 POP SWAP2 POP PUSH2 0x3046 DUP3 DUP3 DUP7 PUSH2 0x3051 JUMP JUMPDEST SWAP8 SWAP7 POP POP POP POP POP POP POP JUMP JUMPDEST PUSH1 0x60 DUP4 ISZERO PUSH2 0x3060 JUMPI POP DUP2 PUSH2 0x8AE JUMP JUMPDEST DUP3 MLOAD ISZERO PUSH2 0x3070 JUMPI DUP3 MLOAD DUP1 DUP5 PUSH1 0x20 ADD REVERT JUMPDEST DUP2 PUSH1 0x40 MLOAD PUSH3 0x461BCD PUSH1 0xE5 SHL DUP2 MSTORE PUSH1 0x4 ADD PUSH2 0x49C SWAP2 SWAP1 PUSH2 0x3B18 JUMP JUMPDEST PUSH1 0x40 MLOAD DUP1 PUSH2 0x160 ADD PUSH1 0x40 MSTORE DUP1 PUSH1 0x0 DUP2 MSTORE PUSH1 0x20 ADD PUSH1 0x0 PUSH1 0x1 PUSH1 0x1 PUSH1 0xA0 SHL SUB AND DUP2 MSTORE PUSH1 0x20 ADD PUSH1 0x0 PUSH1 0x1 PUSH1 0x1 PUSH1 0xA0 SHL SUB AND DUP2 MSTORE PUSH1 0x20 ADD PUSH1 0x0 DUP2 MSTORE PUSH1 0x20 ADD PUSH1 0x0 DUP2 MSTORE PUSH1 0x20 ADD PUSH1 0x0 DUP2 MSTORE PUSH1 0x20 ADD PUSH1 0x0 DUP2 MSTORE PUSH1 0x20 ADD PUSH1 0x0 DUP2 MSTORE PUSH1 0x20 ADD PUSH1 0x0 DUP2 MSTORE PUSH1 0x20 ADD PUSH1 0x0 DUP2 MSTORE PUSH1 0x20 ADD PUSH1 0x60 DUP2 MSTORE POP SWAP1 JUMP JUMPDEST PUSH1 0x1 PUSH1 0x1 PUSH1 0xA0 SHL SUB DUP2 AND DUP2 EQ PUSH2 0xD6B JUMPI PUSH1 0x0 DUP1 REVERT JUMPDEST DUP1 CALLDATALOAD PUSH2 0x3116 DUP2 PUSH2 0x30F6 JUMP JUMPDEST SWAP2 SWAP1 POP JUMP JUMPDEST DUP1 ISZERO ISZERO DUP2 EQ PUSH2 0xD6B JUMPI PUSH1 0x0 DUP1 REVERT JUMPDEST DUP1 CALLDATALOAD PUSH2 0x3116 DUP2 PUSH2 0x311B JUMP JUMPDEST PUSH4 0x4E487B71 PUSH1 0xE0 SHL PUSH1 0x0 MSTORE PUSH1 0x41 PUSH1 0x4 MSTORE PUSH1 0x24 PUSH1 0x0 REVERT JUMPDEST PUSH1 0x0 DUP3 PUSH1 0x1F DUP4 ADD SLT PUSH2 0x315B JUMPI PUSH1 0x0 DUP1 REVERT JUMPDEST DUP2 CALLDATALOAD PUSH1 0x1 PUSH1 0x1 PUSH1 0x40 SHL SUB DUP1 DUP3 GT ISZERO PUSH2 0x3175 JUMPI PUSH2 0x3175 PUSH2 0x3134 JUMP JUMPDEST PUSH1 0x40 MLOAD PUSH1 0x1F DUP4 ADD PUSH1 0x1F NOT SWAP1 DUP2 AND PUSH1 0x3F ADD AND DUP2 ADD SWAP1 DUP3 DUP3 GT DUP2 DUP4 LT OR ISZERO PUSH2 0x319D JUMPI PUSH2 0x319D PUSH2 0x3134 JUMP JUMPDEST DUP2 PUSH1 0x40 MSTORE DUP4 DUP2 MSTORE DUP7 PUSH1 0x20 DUP6 DUP9 ADD ADD GT ISZERO PUSH2 0x31B6 JUMPI PUSH1 0x0 DUP1 REVERT JUMPDEST DUP4 PUSH1 0x20 DUP8 ADD PUSH1 0x20 DUP4 ADD CALLDATACOPY PUSH1 0x0 PUSH1 0x20 DUP6 DUP4 ADD ADD MSTORE DUP1 SWAP5 POP POP POP POP POP SWAP3 SWAP2 POP POP JUMP JUMPDEST PUSH1 0x0 DUP1 PUSH1 0x0 DUP1 PUSH1 0x0 DUP1 PUSH1 0xC0 DUP8 DUP10 SUB SLT ISZERO PUSH2 0x31EF JUMPI PUSH1 0x0 DUP1 REVERT JUMPDEST DUP7 CALLDATALOAD PUSH2 0x31FA DUP2 PUSH2 0x30F6 JUMP JUMPDEST SWAP6 POP PUSH1 0x20 DUP8 ADD CALLDATALOAD PUSH2 0x320A DUP2 PUSH2 0x30F6 JUMP JUMPDEST SWAP5 POP PUSH1 0x40 DUP8 ADD CALLDATALOAD PUSH2 0x321A DUP2 PUSH2 0x311B JUMP JUMPDEST SWAP4 POP PUSH1 0x60 DUP8 ADD CALLDATALOAD SWAP3 POP PUSH1 0x80 DUP8 ADD CALLDATALOAD SWAP2 POP PUSH1 0xA0 DUP8 ADD CALLDATALOAD PUSH1 0x1 PUSH1 0x1 PUSH1 0x40 SHL SUB DUP2 GT ISZERO PUSH2 0x3243 JUMPI PUSH1 0x0 DUP1 REVERT JUMPDEST PUSH2 0x324F DUP10 DUP3 DUP11 ADD PUSH2 0x314A JUMP JUMPDEST SWAP2 POP POP SWAP3 SWAP6 POP SWAP3 SWAP6 POP SWAP3 SWAP6 JUMP JUMPDEST PUSH1 0x0 PUSH1 0x20 DUP3 DUP5 SUB SLT ISZERO PUSH2 0x326E JUMPI PUSH1 0x0 DUP1 REVERT JUMPDEST DUP2 CALLDATALOAD PUSH2 0x8AE DUP2 PUSH2 0x30F6 JUMP JUMPDEST PUSH1 0x0 PUSH1 0x20 DUP3 DUP5 SUB SLT ISZERO PUSH2 0x328B JUMPI PUSH1 0x0 DUP1 REVERT JUMPDEST POP CALLDATALOAD SWAP2 SWAP1 POP JUMP JUMPDEST PUSH1 0x0 JUMPDEST DUP4 DUP2 LT ISZERO PUSH2 0x32AD JUMPI DUP2 DUP2 ADD MLOAD DUP4 DUP3 ADD MSTORE PUSH1 0x20 ADD PUSH2 0x3295 JUMP JUMPDEST POP POP PUSH1 0x0 SWAP2 ADD MSTORE JUMP JUMPDEST PUSH1 0x0 DUP2 MLOAD DUP1 DUP5 MSTORE PUSH2 0x32CE DUP2 PUSH1 0x20 DUP7 ADD PUSH1 0x20 DUP7 ADD PUSH2 0x3292 JUMP JUMPDEST PUSH1 0x1F ADD PUSH1 0x1F NOT AND SWAP3 SWAP1 SWAP3 ADD PUSH1 0x20 ADD SWAP3 SWAP2 POP POP JUMP JUMPDEST PUSH1 0x0 PUSH2 0x160 DUP3 MLOAD DUP5 MSTORE PUSH1 0x20 DUP4 ADD MLOAD PUSH2 0x3305 PUSH1 0x20 DUP7 ADD DUP3 PUSH1 0x1 PUSH1 0x1 PUSH1 0xA0 SHL SUB AND SWAP1 MSTORE JUMP JUMPDEST POP PUSH1 0x40 DUP4 ADD MLOAD PUSH2 0x3320 PUSH1 0x40 DUP7 ADD DUP3 PUSH1 0x1 PUSH1 0x1 PUSH1 0xA0 SHL SUB AND SWAP1 MSTORE JUMP JUMPDEST POP PUSH1 0x60 DUP4 ADD MLOAD PUSH1 0x60 DUP6 ADD MSTORE PUSH1 0x80 DUP4 ADD MLOAD PUSH1 0x80 DUP6 ADD MSTORE PUSH1 0xA0 DUP4 ADD MLOAD PUSH1 0xA0 DUP6 ADD MSTORE PUSH1 0xC0 DUP4 ADD MLOAD PUSH1 0xC0 DUP6 ADD MSTORE PUSH1 0xE0 DUP4 ADD MLOAD PUSH1 0xE0 DUP6 ADD MSTORE PUSH2 0x100 DUP1 DUP5 ADD MLOAD DUP2 DUP7 ADD MSTORE POP PUSH2 0x120 DUP1 DUP5 ADD MLOAD DUP2 DUP7 ADD MSTORE POP PUSH2 0x140 DUP1 DUP5 ADD MLOAD DUP3 DUP3 DUP8 ADD MSTORE PUSH2 0x3383 DUP4 DUP8 ADD DUP3 PUSH2 0x32B6 JUMP JUMPDEST SWAP7 SWAP6 POP POP POP POP POP POP JUMP JUMPDEST PUSH1 0x20 DUP2 MSTORE PUSH1 0x0 PUSH2 0x8AE PUSH1 0x20 DUP4 ADD DUP5 PUSH2 0x32E2 JUMP JUMPDEST PUSH1 0x0 DUP1 PUSH1 0x0 PUSH1 0x60 DUP5 DUP7 SUB SLT ISZERO PUSH2 0x33B5 JUMPI PUSH1 0x0 DUP1 REVERT JUMPDEST DUP4 CALLDATALOAD PUSH2 0x33C0 DUP2 PUSH2 0x30F6 JUMP JUMPDEST SWAP6 PUSH1 0x20 DUP6 ADD CALLDATALOAD SWAP6 POP PUSH1 0x40 SWAP1 SWAP5 ADD CALLDATALOAD SWAP4 SWAP3 POP POP POP JUMP JUMPDEST PUSH1 0x0 PUSH1 0x20 DUP1 DUP4 ADD DUP2 DUP5 MSTORE DUP1 DUP6 MLOAD DUP1 DUP4 MSTORE PUSH1 0x40 DUP7 ADD SWAP2 POP PUSH1 0x40 DUP2 PUSH1 0x5 SHL DUP8 ADD ADD SWAP3 POP DUP4 DUP8 ADD PUSH1 0x0 JUMPDEST DUP3 DUP2 LT ISZERO PUSH2 0x342A JUMPI PUSH1 0x3F NOT DUP9 DUP7 SUB ADD DUP5 MSTORE PUSH2 0x3418 DUP6 DUP4 MLOAD PUSH2 0x32E2 JUMP JUMPDEST SWAP5 POP SWAP3 DUP6 ADD SWAP3 SWAP1 DUP6 ADD SWAP1 PUSH1 0x1 ADD PUSH2 0x33FC JUMP JUMPDEST POP SWAP3 SWAP8 SWAP7 POP POP POP POP POP POP POP JUMP JUMPDEST PUSH1 0x0 DUP1 PUSH1 0x40 DUP4 DUP6 SUB SLT ISZERO PUSH2 0x344A JUMPI PUSH1 0x0 DUP1 REVERT JUMPDEST DUP3 CALLDATALOAD SWAP2 POP PUSH1 0x20 DUP4 ADD CALLDATALOAD PUSH2 0x345C DUP2 PUSH2 0x30F6 JUMP JUMPDEST DUP1 SWAP2 POP POP SWAP3 POP SWAP3 SWAP1 POP JUMP JUMPDEST PUSH1 0x0 DUP1 PUSH1 0x40 DUP4 DUP6 SUB SLT ISZERO PUSH2 0x347A JUMPI PUSH1 0x0 DUP1 REVERT JUMPDEST DUP3 CALLDATALOAD PUSH2 0x3485 DUP2 PUSH2 0x30F6 JUMP JUMPDEST SWAP5 PUSH1 0x20 SWAP4 SWAP1 SWAP4 ADD CALLDATALOAD SWAP4 POP POP POP JUMP JUMPDEST PUSH1 0x0 DUP1 PUSH1 0x40 DUP4 DUP6 SUB SLT ISZERO PUSH2 0x34A6 JUMPI PUSH1 0x0 DUP1 REVERT JUMPDEST POP POP DUP1 CALLDATALOAD SWAP3 PUSH1 0x20 SWAP1 SWAP2 ADD CALLDATALOAD SWAP2 POP JUMP JUMPDEST PUSH1 0x20 DUP1 DUP3 MSTORE DUP3 MLOAD DUP3 DUP3 ADD DUP2 SWAP1 MSTORE PUSH1 0x0 SWAP2 SWAP1 DUP5 DUP3 ADD SWAP1 PUSH1 0x40 DUP6 ADD SWAP1 DUP5 JUMPDEST DUP2 DUP2 LT ISZERO PUSH2 0x3519 JUMPI PUSH2 0x3506 DUP4 DUP6 MLOAD DUP1 MLOAD PUSH1 0x1 PUSH1 0x1 PUSH1 0xA0 SHL SUB SWAP1 DUP2 AND DUP4 MSTORE PUSH1 0x20 DUP1 DUP4 ADD MLOAD SWAP1 SWAP2 AND SWAP1 DUP4 ADD MSTORE PUSH1 0x40 SWAP1 DUP2 ADD MLOAD SWAP2 ADD MSTORE JUMP JUMPDEST SWAP3 DUP5 ADD SWAP3 PUSH1 0x60 SWAP3 SWAP1 SWAP3 ADD SWAP2 PUSH1 0x1 ADD PUSH2 0x34D1 JUMP JUMPDEST POP SWAP1 SWAP7 SWAP6 POP POP POP POP POP POP JUMP JUMPDEST DUP2 MLOAD PUSH1 0x1 PUSH1 0x1 PUSH1 0xA0 SHL SUB SWAP1 DUP2 AND DUP3 MSTORE PUSH1 0x20 DUP1 DUP5 ADD MLOAD SWAP1 SWAP2 AND SWAP1 DUP3 ADD MSTORE PUSH1 0x40 DUP1 DUP4 ADD MLOAD SWAP1 DUP3 ADD MSTORE PUSH1 0x60 DUP2 ADD PUSH2 0x5DA JUMP JUMPDEST PUSH1 0x0 DUP1 PUSH1 0x0 PUSH1 0x60 DUP5 DUP7 SUB SLT ISZERO PUSH2 0x3569 JUMPI PUSH1 0x0 DUP1 REVERT JUMPDEST POP POP DUP2 CALLDATALOAD SWAP4 PUSH1 0x20 DUP4 ADD CALLDATALOAD SWAP4 POP PUSH1 0x40 SWAP1 SWAP3 ADD CALLDATALOAD SWAP2 SWAP1 POP JUMP JUMPDEST PUSH1 0x0 DUP1 PUSH1 0x0 DUP1 PUSH1 0x0 DUP1 PUSH1 0x0 DUP1 PUSH1 0x0 PUSH2 0x120 DUP11 DUP13 SUB SLT ISZERO PUSH2 0x359F JUMPI PUSH1 0x0 DUP1 REVERT JUMPDEST DUP10 CALLDATALOAD PUSH2 0x35AA DUP2 PUSH2 0x30F6 JUMP JUMPDEST SWAP9 POP PUSH1 0x20 DUP11 ADD CALLDATALOAD PUSH2 0x35BA DUP2 PUSH2 0x30F6 JUMP JUMPDEST SWAP8 POP PUSH1 0x40 DUP11 ADD CALLDATALOAD PUSH2 0x35CA DUP2 PUSH2 0x311B JUMP JUMPDEST SWAP7 POP PUSH1 0x60 DUP11 ADD CALLDATALOAD SWAP6 POP PUSH1 0x80 DUP11 ADD CALLDATALOAD SWAP5 POP PUSH1 0xA0 DUP11 ADD CALLDATALOAD SWAP4 POP PUSH1 0xC0 DUP11 ADD CALLDATALOAD SWAP3 POP PUSH1 0xE0 DUP11 ADD CALLDATALOAD SWAP2 POP PUSH2 0x100 DUP11 ADD CALLDATALOAD PUSH1 0x1 PUSH1 0x1 PUSH1 0x40 SHL SUB DUP2 GT ISZERO PUSH2 0x3609 JUMPI PUSH1 0x0 DUP1 REVERT JUMPDEST PUSH2 0x3615 DUP13 DUP3 DUP14 ADD PUSH2 0x314A JUMP JUMPDEST SWAP2 POP POP SWAP3 SWAP6 SWAP9 POP SWAP3 SWAP6 SWAP9 POP SWAP3 SWAP6 SWAP9 JUMP JUMPDEST PUSH1 0x0 DUP1 PUSH1 0x40 DUP4 DUP6 SUB SLT ISZERO PUSH2 0x3638 JUMPI PUSH1 0x0 DUP1 REVERT JUMPDEST DUP3 CALLDATALOAD SWAP2 POP PUSH1 0x20 DUP4 ADD CALLDATALOAD PUSH1 0x1 PUSH1 0x1 PUSH1 0x40 SHL SUB DUP2 GT ISZERO PUSH2 0x3655 JUMPI PUSH1 0x0 DUP1 REVERT JUMPDEST PUSH2 0x3661 DUP6 DUP3 DUP7 ADD PUSH2 0x314A JUMP JUMPDEST SWAP2 POP POP SWAP3 POP SWAP3 SWAP1 POP JUMP JUMPDEST PUSH1 0x0 DUP1 DUP4 PUSH1 0x1F DUP5 ADD SLT PUSH2 0x367D JUMPI PUSH1 0x0 DUP1 REVERT JUMPDEST POP DUP2 CALLDATALOAD PUSH1 0x1 PUSH1 0x1 PUSH1 0x40 SHL SUB DUP2 GT ISZERO PUSH2 0x3694 JUMPI PUSH1 0x0 DUP1 REVERT JUMPDEST PUSH1 0x20 DUP4 ADD SWAP2 POP DUP4 PUSH1 0x20 DUP3 PUSH1 0x5 SHL DUP6 ADD ADD GT ISZERO PUSH2 0x36AF JUMPI PUSH1 0x0 DUP1 REVERT JUMPDEST SWAP3 POP SWAP3 SWAP1 POP JUMP JUMPDEST PUSH1 0x0 DUP1 PUSH1 0x0 DUP1 PUSH1 0x0 DUP1 PUSH1 0x0 DUP1 PUSH1 0x0 DUP1 PUSH1 0x0 PUSH2 0x120 DUP13 DUP15 SUB SLT ISZERO PUSH2 0x36D8 JUMPI PUSH1 0x0 DUP1 REVERT JUMPDEST PUSH1 0x1 PUSH1 0x1 PUSH1 0x40 SHL SUB DUP1 DUP14 CALLDATALOAD GT ISZERO PUSH2 0x36EE JUMPI PUSH1 0x0 DUP1 REVERT JUMPDEST PUSH2 0x36FB DUP15 DUP15 CALLDATALOAD DUP16 ADD PUSH2 0x366B JUMP JUMPDEST SWAP1 SWAP13 POP SWAP11 POP PUSH1 0x20 DUP14 ADD CALLDATALOAD DUP2 LT ISZERO PUSH2 0x3711 JUMPI PUSH1 0x0 DUP1 REVERT JUMPDEST PUSH2 0x3721 DUP15 PUSH1 0x20 DUP16 ADD CALLDATALOAD DUP16 ADD PUSH2 0x366B JUMP JUMPDEST SWAP1 SWAP11 POP SWAP9 POP PUSH2 0x3732 PUSH1 0x40 DUP15 ADD PUSH2 0x310B JUMP JUMPDEST SWAP8 POP PUSH2 0x3740 PUSH1 0x60 DUP15 ADD PUSH2 0x3129 JUMP JUMPDEST SWAP7 POP PUSH1 0x80 DUP14 ADD CALLDATALOAD SWAP6 POP PUSH1 0xA0 DUP14 ADD CALLDATALOAD SWAP5 POP PUSH1 0xC0 DUP14 ADD CALLDATALOAD SWAP4 POP PUSH1 0xE0 DUP14 ADD CALLDATALOAD SWAP3 POP DUP1 PUSH2 0x100 DUP15 ADD CALLDATALOAD GT ISZERO PUSH2 0x3770 JUMPI PUSH1 0x0 DUP1 REVERT JUMPDEST POP PUSH2 0x3782 DUP14 PUSH2 0x100 DUP15 ADD CALLDATALOAD DUP15 ADD PUSH2 0x314A JUMP JUMPDEST SWAP1 POP SWAP3 SWAP6 SWAP9 SWAP12 POP SWAP3 SWAP6 SWAP9 SWAP12 SWAP1 SWAP4 SWAP7 SWAP10 POP JUMP JUMPDEST PUSH1 0x20 DUP1 DUP3 MSTORE DUP3 MLOAD DUP3 DUP3 ADD DUP2 SWAP1 MSTORE PUSH1 0x0 SWAP2 SWAP1 DUP5 DUP3 ADD SWAP1 PUSH1 0x40 DUP6 ADD SWAP1 DUP5 JUMPDEST DUP2 DUP2 LT ISZERO PUSH2 0x3519 JUMPI DUP4 MLOAD DUP4 MSTORE SWAP3 DUP5 ADD SWAP3 SWAP2 DUP5 ADD SWAP2 PUSH1 0x1 ADD PUSH2 0x37B0 JUMP JUMPDEST PUSH1 0x20 DUP1 DUP3 MSTORE PUSH1 0xD SWAP1 DUP3 ADD MSTORE PUSH13 0x24B73B30B634B2103A37B5B2B7 PUSH1 0x99 SHL PUSH1 0x40 DUP3 ADD MSTORE PUSH1 0x60 ADD SWAP1 JUMP JUMPDEST PUSH1 0x1 PUSH1 0x1 PUSH1 0xA0 SHL SUB SWAP5 DUP6 AND DUP2 MSTORE SWAP3 SWAP1 SWAP4 AND PUSH1 0x20 DUP4 ADD MSTORE PUSH1 0x40 DUP3 ADD MSTORE PUSH1 0x60 DUP2 ADD SWAP2 SWAP1 SWAP2 MSTORE PUSH1 0x80 ADD SWAP1 JUMP JUMPDEST PUSH4 0x4E487B71 PUSH1 0xE0 SHL PUSH1 0x0 MSTORE PUSH1 0x32 PUSH1 0x4 MSTORE PUSH1 0x24 PUSH1 0x0 REVERT JUMPDEST PUSH1 0x1 DUP2 DUP2 SHR SWAP1 DUP3 AND DUP1 PUSH2 0x3846 JUMPI PUSH1 0x7F DUP3 AND SWAP2 POP JUMPDEST PUSH1 0x20 DUP3 LT DUP2 SUB PUSH2 0x3866 JUMPI PUSH4 0x4E487B71 PUSH1 0xE0 SHL PUSH1 0x0 MSTORE PUSH1 0x22 PUSH1 0x4 MSTORE PUSH1 0x24 PUSH1 0x0 REVERT JUMPDEST POP SWAP2 SWAP1 POP JUMP JUMPDEST PUSH4 0x4E487B71 PUSH1 0xE0 SHL PUSH1 0x0 MSTORE PUSH1 0x11 PUSH1 0x4 MSTORE PUSH1 0x24 PUSH1 0x0 REVERT JUMPDEST DUP1 DUP3 ADD DUP1 DUP3 GT ISZERO PUSH2 0x5DA JUMPI PUSH2 0x5DA PUSH2 0x386C JUMP JUMPDEST DUP2 DUP2 SUB DUP2 DUP2 GT ISZERO PUSH2 0x5DA JUMPI PUSH2 0x5DA PUSH2 0x386C JUMP JUMPDEST PUSH1 0x0 PUSH1 0x1 DUP3 ADD PUSH2 0x38BA JUMPI PUSH2 0x38BA PUSH2 0x386C JUMP JUMPDEST POP PUSH1 0x1 ADD SWAP1 JUMP JUMPDEST PUSH1 0x20 DUP1 DUP3 MSTORE PUSH1 0x22 SWAP1 DUP3 ADD MSTORE PUSH32 0x596F7520617265206E6F7420746865206F776E6572206F662074686973206C6F PUSH1 0x40 DUP3 ADD MSTORE PUSH2 0x636B PUSH1 0xF0 SHL PUSH1 0x60 DUP3 ADD MSTORE PUSH1 0x80 ADD SWAP1 JUMP JUMPDEST PUSH1 0x20 DUP1 DUP3 MSTORE PUSH1 0x32 SWAP1 DUP3 ADD MSTORE PUSH32 0x53756D206F66205447452062707320616E64206379636C652073686F756C6420 PUSH1 0x40 DUP3 ADD MSTORE PUSH18 0x6265206C657373207468616E20313030303 PUSH1 0x74 SHL PUSH1 0x60 DUP3 ADD MSTORE PUSH1 0x80 ADD SWAP1 JUMP JUMPDEST PUSH1 0x1F DUP3 GT ISZERO PUSH2 0xB42 JUMPI PUSH1 0x0 DUP2 DUP2 MSTORE PUSH1 0x20 DUP2 KECCAK256 PUSH1 0x1F DUP6 ADD PUSH1 0x5 SHR DUP2 ADD PUSH1 0x20 DUP7 LT ISZERO PUSH2 0x397C JUMPI POP DUP1 JUMPDEST PUSH1 0x1F DUP6 ADD PUSH1 0x5 SHR DUP3 ADD SWAP2 POP JUMPDEST DUP2 DUP2 LT ISZERO PUSH2 0x1A92 JUMPI DUP3 DUP2 SSTORE PUSH1 0x1 ADD PUSH2 0x3988 JUMP JUMPDEST DUP2 MLOAD PUSH1 0x1 PUSH1 0x1 PUSH1 0x40 SHL SUB DUP2 GT ISZERO PUSH2 0x39B4 JUMPI PUSH2 0x39B4 PUSH2 0x3134 JUMP JUMPDEST PUSH2 0x39C8 DUP2 PUSH2 0x39C2 DUP5 SLOAD PUSH2 0x3832 JUMP JUMPDEST DUP5 PUSH2 0x3955 JUMP JUMPDEST PUSH1 0x20 DUP1 PUSH1 0x1F DUP4 GT PUSH1 0x1 DUP2 EQ PUSH2 0x39FD JUMPI PUSH1 0x0 DUP5 ISZERO PUSH2 0x39E5 JUMPI POP DUP6 DUP4 ADD MLOAD JUMPDEST PUSH1 0x0 NOT PUSH1 0x3 DUP7 SWAP1 SHL SHR NOT AND PUSH1 0x1 DUP6 SWAP1 SHL OR DUP6 SSTORE PUSH2 0x1A92 JUMP JUMPDEST PUSH1 0x0 DUP6 DUP2 MSTORE PUSH1 0x20 DUP2 KECCAK256 PUSH1 0x1F NOT DUP7 AND SWAP2 JUMPDEST DUP3 DUP2 LT ISZERO PUSH2 0x3A2C JUMPI DUP9 DUP7 ADD MLOAD DUP3 SSTORE SWAP5 DUP5 ADD SWAP5 PUSH1 0x1 SWAP1 SWAP2 ADD SWAP1 DUP5 ADD PUSH2 0x3A0D JUMP JUMPDEST POP DUP6 DUP3 LT ISZERO PUSH2 0x3A4A JUMPI DUP8 DUP6 ADD MLOAD PUSH1 0x0 NOT PUSH1 0x3 DUP9 SWAP1 SHL PUSH1 0xF8 AND SHR NOT AND DUP2 SSTORE JUMPDEST POP POP POP POP POP PUSH1 0x1 SWAP1 DUP2 SHL ADD SWAP1 SSTORE POP JUMP JUMPDEST PUSH1 0x0 PUSH1 0x20 DUP3 DUP5 SUB SLT ISZERO PUSH2 0x3A6C JUMPI PUSH1 0x0 DUP1 REVERT JUMPDEST POP MLOAD SWAP2 SWAP1 POP JUMP JUMPDEST PUSH1 0x0 DUP3 PUSH2 0x3A90 JUMPI PUSH4 0x4E487B71 PUSH1 0xE0 SHL PUSH1 0x0 MSTORE PUSH1 0x12 PUSH1 0x4 MSTORE PUSH1 0x24 PUSH1 0x0 REVERT JUMPDEST POP DIV SWAP1 JUMP JUMPDEST DUP1 DUP3 MUL DUP2 ISZERO DUP3 DUP3 DIV DUP5 EQ OR PUSH2 0x5DA JUMPI PUSH2 0x5DA PUSH2 0x386C JUMP JUMPDEST PUSH1 0x0 PUSH1 0x20 DUP3 DUP5 SUB SLT ISZERO PUSH2 0x3ABE JUMPI PUSH1 0x0 DUP1 REVERT JUMPDEST DUP2 MLOAD PUSH2 0x8AE DUP2 PUSH2 0x30F6 JUMP JUMPDEST PUSH4 0x4E487B71 PUSH1 0xE0 SHL PUSH1 0x0 MSTORE PUSH1 0x31 PUSH1 0x4 MSTORE PUSH1 0x24 PUSH1 0x0 REVERT JUMPDEST PUSH1 0x0 PUSH1 0x20 DUP3 DUP5 SUB SLT ISZERO PUSH2 0x3AF1 JUMPI PUSH1 0x0 DUP1 REVERT JUMPDEST DUP2 MLOAD PUSH2 0x8AE DUP2 PUSH2 0x311B JUMP JUMPDEST PUSH1 0x0 DUP3 MLOAD PUSH2 0x3B0E DUP2 DUP5 PUSH1 0x20 DUP8 ADD PUSH2 0x3292 JUMP JUMPDEST SWAP2 SWAP1 SWAP2 ADD SWAP3 SWAP2 POP POP JUMP JUMPDEST PUSH1 0x20 DUP2 MSTORE PUSH1 0x0 PUSH2 0x8AE PUSH1 0x20 DUP4 ADD DUP5 PUSH2 0x32B6 JUMP INVALID LOG2 PUSH5 0x6970667358 0x22 SLT KECCAK256 XOR PUSH5 0x82B34471B GT 0xB3 LOG1 CREATE2 DUP12 PUSH20 0xC05869117EBF81D6CB6C2170D1BDBCBE17EEA564 PUSH20 0x6F6C634300081100330000000000000000000000 "
		},
		"gasEstimates": {
			"creation": {
				"codeDepositCost": "3040200",
				"executionCost": "3349",
				"totalCost": "3043549"
			},
			"external": {
				"allLpTokenLockedCount()": "2426",
				"allNormalTokenLockedCount()": "2471",
				"cumulativeLockInfo(address)": "6953",
				"editLock(uint256,uint256,uint256)": "infinite",
				"editLockDescription(uint256,string)": "infinite",
				"getCumulativeLpTokenLockInfo(uint256,uint256)": "infinite",
				"getCumulativeLpTokenLockInfoAt(uint256)": "11529",
				"getCumulativeNormalTokenLockInfo(uint256,uint256)": "infinite",
				"getCumulativeNormalTokenLockInfoAt(uint256)": "11507",
				"getLockAt(uint256)": "infinite",
				"getLockById(uint256)": "infinite",
				"getLocksForToken(address,uint256,uint256)": "infinite",
				"getTotalLockCount()": "2391",
				"lock(address,address,bool,uint256,uint256,string)": "infinite",
				"lpLockCountForUser(address)": "infinite",
				"lpLockForUserAtIndex(address,uint256)": "infinite",
				"lpLocksForUser(address)": "infinite",
				"multipleVestingLock(address[],uint256[],address,bool,uint256,uint256,uint256,uint256,string)": "infinite",
				"normalLockCountForUser(address)": "infinite",
				"normalLockForUserAtIndex(address,uint256)": "infinite",
				"normalLocksForUser(address)": "infinite",
				"renounceLockOwnership(uint256)": "infinite",
				"totalLockCountForToken(address)": "infinite",
				"totalLockCountForUser(address)": "infinite",
				"totalTokenLockedCount()": "infinite",
				"transferLockOwnership(uint256,address)": "infinite",
				"unlock(uint256)": "infinite",
				"vestingLock(address,address,bool,uint256,uint256,uint256,uint256,uint256,string)": "infinite",
				"withdrawableTokens(uint256)": "infinite"
			},
			"internal": {
				"_createLock(address,address,bool,uint256,uint256,uint256,uint256,uint256,string memory)": "infinite",
				"_getActualIndex(uint256)": "infinite",
				"_isValidLpToken(address,address)": "infinite",
				"_lockLpToken(address,address,address,uint256,uint256,uint256,uint256,uint256,string memory)": "infinite",
				"_lockNormalToken(address,address,uint256,uint256,uint256,uint256,uint256,string memory)": "infinite",
				"_multipleVestingLock(address[] calldata,uint256[] calldata,address,bool,uint256[4] memory,string memory)": "infinite",
				"_normalUnlock(struct RamzLock.Lock storage pointer)": "infinite",
				"_parseFactoryAddress(address)": "infinite",
				"_registerLock(address,address,uint256,uint256,uint256,uint256,uint256,string memory)": "infinite",
				"_safeTransferFromEnsureExactAmount(address,address,address,uint256)": "infinite",
				"_sumAmount(uint256[] calldata)": "infinite",
				"_vestingUnlock(struct RamzLock.Lock storage pointer)": "infinite",
				"_withdrawableTokens(struct RamzLock.Lock memory)": "infinite"
			}
		},
		"methodIdentifiers": {
			"allLpTokenLockedCount()": "b982922e",
			"allNormalTokenLockedCount()": "475831c8",
			"cumulativeLockInfo(address)": "e1444fd6",
			"editLock(uint256,uint256,uint256)": "b3b9aa48",
			"editLockDescription(uint256,string)": "d3cac885",
			"getCumulativeLpTokenLockInfo(uint256,uint256)": "aec640c6",
			"getCumulativeLpTokenLockInfoAt(uint256)": "a20b8c18",
			"getCumulativeNormalTokenLockInfo(uint256,uint256)": "76c12822",
			"getCumulativeNormalTokenLockInfoAt(uint256)": "7e6706d3",
			"getLockAt(uint256)": "0d4f581a",
			"getLockById(uint256)": "08f12470",
			"getLocksForToken(address,uint256,uint256)": "332f26d7",
			"getTotalLockCount()": "fd981c66",
			"lock(address,address,bool,uint256,uint256,string)": "07279357",
			"lpLockCountForUser(address)": "07873ef1",
			"lpLockForUserAtIndex(address,uint256)": "eeacf786",
			"lpLocksForUser(address)": "aef0e540",
			"multipleVestingLock(address[],uint256[],address,bool,uint256,uint256,uint256,uint256,string)": "e0da83ce",
			"normalLockCountForUser(address)": "eb80bdae",
			"normalLockForUserAtIndex(address,uint256)": "618df7a3",
			"normalLocksForUser(address)": "da1d8cff",
			"renounceLockOwnership(uint256)": "a57e3141",
			"totalLockCountForToken(address)": "e3676f88",
			"totalLockCountForUser(address)": "cd83eadc",
			"totalTokenLockedCount()": "1982242c",
			"transferLockOwnership(uint256,address)": "5a04fb69",
			"unlock(uint256)": "6198e339",
			"vestingLock(address,address,bool,uint256,uint256,uint256,uint256,uint256,string)": "cb645e32",
			"withdrawableTokens(uint256)": "6dbdeab3"
		}
	},
	"abi": [
		{
			"anonymous": false,
			"inputs": [
				{
					"indexed": true,
					"internalType": "uint256",
					"name": "id",
					"type": "uint256"
				},
				{
					"indexed": false,
					"internalType": "address",
					"name": "token",
					"type": "address"
				},
				{
					"indexed": false,
					"internalType": "address",
					"name": "owner",
					"type": "address"
				},
				{
					"indexed": false,
					"internalType": "uint256",
					"name": "amount",
					"type": "uint256"
				},
				{
					"indexed": false,
					"internalType": "uint256",
					"name": "unlockDate",
					"type": "uint256"
				}
			],
			"name": "LockAdded",
			"type": "event"
		},
		{
			"anonymous": false,
			"inputs": [
				{
					"indexed": false,
					"internalType": "uint256",
					"name": "lockId",
					"type": "uint256"
				}
			],
			"name": "LockDescriptionChanged",
			"type": "event"
		},
		{
			"anonymous": false,
			"inputs": [
				{
					"indexed": false,
					"internalType": "uint256",
					"name": "lockId",
					"type": "uint256"
				},
				{
					"indexed": false,
					"internalType": "address",
					"name": "owner",
					"type": "address"
				},
				{
					"indexed": false,
					"internalType": "address",
					"name": "newOwner",
					"type": "address"
				}
			],
			"name": "LockOwnerChanged",
			"type": "event"
		},
		{
			"anonymous": false,
			"inputs": [
				{
					"indexed": true,
					"internalType": "uint256",
					"name": "id",
					"type": "uint256"
				},
				{
					"indexed": false,
					"internalType": "address",
					"name": "token",
					"type": "address"
				},
				{
					"indexed": false,
					"internalType": "address",
					"name": "owner",
					"type": "address"
				},
				{
					"indexed": false,
					"internalType": "uint256",
					"name": "amount",
					"type": "uint256"
				},
				{
					"indexed": false,
					"internalType": "uint256",
					"name": "unlockedAt",
					"type": "uint256"
				}
			],
			"name": "LockRemoved",
			"type": "event"
		},
		{
			"anonymous": false,
			"inputs": [
				{
					"indexed": true,
					"internalType": "uint256",
					"name": "id",
					"type": "uint256"
				},
				{
					"indexed": false,
					"internalType": "address",
					"name": "token",
					"type": "address"
				},
				{
					"indexed": false,
					"internalType": "address",
					"name": "owner",
					"type": "address"
				},
				{
					"indexed": false,
					"internalType": "uint256",
					"name": "newAmount",
					"type": "uint256"
				},
				{
					"indexed": false,
					"internalType": "uint256",
					"name": "newUnlockDate",
					"type": "uint256"
				}
			],
			"name": "LockUpdated",
			"type": "event"
		},
		{
			"anonymous": false,
			"inputs": [
				{
					"indexed": true,
					"internalType": "uint256",
					"name": "id",
					"type": "uint256"
				},
				{
					"indexed": false,
					"internalType": "address",
					"name": "token",
					"type": "address"
				},
				{
					"indexed": false,
					"internalType": "address",
					"name": "owner",
					"type": "address"
				},
				{
					"indexed": false,
					"internalType": "uint256",
					"name": "amount",
					"type": "uint256"
				},
				{
					"indexed": false,
					"internalType": "uint256",
					"name": "remaining",
					"type": "uint256"
				},
				{
					"indexed": false,
					"internalType": "uint256",
					"name": "timestamp",
					"type": "uint256"
				}
			],
			"name": "LockVested",
			"type": "event"
		},
		{
			"inputs": [],
			"name": "allLpTokenLockedCount",
			"outputs": [
				{
					"internalType": "uint256",
					"name": "",
					"type": "uint256"
				}
			],
			"stateMutability": "view",
			"type": "function"
		},
		{
			"inputs": [],
			"name": "allNormalTokenLockedCount",
			"outputs": [
				{
					"internalType": "uint256",
					"name": "",
					"type": "uint256"
				}
			],
			"stateMutability": "view",
			"type": "function"
		},
		{
			"inputs": [
				{
					"internalType": "address",
					"name": "",
					"type": "address"
				}
			],
			"name": "cumulativeLockInfo",
			"outputs": [
				{
					"internalType": "address",
					"name": "token",
					"type": "address"
				},
				{
					"internalType": "address",
					"name": "factory",
					"type": "address"
				},
				{
					"internalType": "uint256",
					"name": "amount",
					"type": "uint256"
				}
			],
			"stateMutability": "view",
			"type": "function"
		},
		{
			"inputs": [
				{
					"internalType": "uint256",
					"name": "lockId",
					"type": "uint256"
				},
				{
					"internalType": "uint256",
					"name": "newAmount",
					"type": "uint256"
				},
				{
					"internalType": "uint256",
					"name": "newUnlockDate",
					"type": "uint256"
				}
			],
			"name": "editLock",
			"outputs": [],
			"stateMutability": "nonpayable",
			"type": "function"
		},
		{
			"inputs": [
				{
					"internalType": "uint256",
					"name": "lockId",
					"type": "uint256"
				},
				{
					"internalType": "string",
					"name": "description",
					"type": "string"
				}
			],
			"name": "editLockDescription",
			"outputs": [],
			"stateMutability": "nonpayable",
			"type": "function"
		},
		{
			"inputs": [
				{
					"internalType": "uint256",
					"name": "start",
					"type": "uint256"
				},
				{
					"internalType": "uint256",
					"name": "end",
					"type": "uint256"
				}
			],
			"name": "getCumulativeLpTokenLockInfo",
			"outputs": [
				{
					"components": [
						{
							"internalType": "address",
							"name": "token",
							"type": "address"
						},
						{
							"internalType": "address",
							"name": "factory",
							"type": "address"
						},
						{
							"internalType": "uint256",
							"name": "amount",
							"type": "uint256"
						}
					],
					"internalType": "struct RamzLock.CumulativeLockInfo[]",
					"name": "",
					"type": "tuple[]"
				}
			],
			"stateMutability": "view",
			"type": "function"
		},
		{
			"inputs": [
				{
					"internalType": "uint256",
					"name": "index",
					"type": "uint256"
				}
			],
			"name": "getCumulativeLpTokenLockInfoAt",
			"outputs": [
				{
					"components": [
						{
							"internalType": "address",
							"name": "token",
							"type": "address"
						},
						{
							"internalType": "address",
							"name": "factory",
							"type": "address"
						},
						{
							"internalType": "uint256",
							"name": "amount",
							"type": "uint256"
						}
					],
					"internalType": "struct RamzLock.CumulativeLockInfo",
					"name": "",
					"type": "tuple"
				}
			],
			"stateMutability": "view",
			"type": "function"
		},
		{
			"inputs": [
				{
					"internalType": "uint256",
					"name": "start",
					"type": "uint256"
				},
				{
					"internalType": "uint256",
					"name": "end",
					"type": "uint256"
				}
			],
			"name": "getCumulativeNormalTokenLockInfo",
			"outputs": [
				{
					"components": [
						{
							"internalType": "address",
							"name": "token",
							"type": "address"
						},
						{
							"internalType": "address",
							"name": "factory",
							"type": "address"
						},
						{
							"internalType": "uint256",
							"name": "amount",
							"type": "uint256"
						}
					],
					"internalType": "struct RamzLock.CumulativeLockInfo[]",
					"name": "",
					"type": "tuple[]"
				}
			],
			"stateMutability": "view",
			"type": "function"
		},
		{
			"inputs": [
				{
					"internalType": "uint256",
					"name": "index",
					"type": "uint256"
				}
			],
			"name": "getCumulativeNormalTokenLockInfoAt",
			"outputs": [
				{
					"components": [
						{
							"internalType": "address",
							"name": "token",
							"type": "address"
						},
						{
							"internalType": "address",
							"name": "factory",
							"type": "address"
						},
						{
							"internalType": "uint256",
							"name": "amount",
							"type": "uint256"
						}
					],
					"internalType": "struct RamzLock.CumulativeLockInfo",
					"name": "",
					"type": "tuple"
				}
			],
			"stateMutability": "view",
			"type": "function"
		},
		{
			"inputs": [
				{
					"internalType": "uint256",
					"name": "index",
					"type": "uint256"
				}
			],
			"name": "getLockAt",
			"outputs": [
				{
					"components": [
						{
							"internalType": "uint256",
							"name": "id",
							"type": "uint256"
						},
						{
							"internalType": "address",
							"name": "token",
							"type": "address"
						},
						{
							"internalType": "address",
							"name": "owner",
							"type": "address"
						},
						{
							"internalType": "uint256",
							"name": "amount",
							"type": "uint256"
						},
						{
							"internalType": "uint256",
							"name": "lockDate",
							"type": "uint256"
						},
						{
							"internalType": "uint256",
							"name": "tgeDate",
							"type": "uint256"
						},
						{
							"internalType": "uint256",
							"name": "tgeBps",
							"type": "uint256"
						},
						{
							"internalType": "uint256",
							"name": "cycle",
							"type": "uint256"
						},
						{
							"internalType": "uint256",
							"name": "cycleBps",
							"type": "uint256"
						},
						{
							"internalType": "uint256",
							"name": "unlockedAmount",
							"type": "uint256"
						},
						{
							"internalType": "string",
							"name": "description",
							"type": "string"
						}
					],
					"internalType": "struct RamzLock.Lock",
					"name": "",
					"type": "tuple"
				}
			],
			"stateMutability": "view",
			"type": "function"
		},
		{
			"inputs": [
				{
					"internalType": "uint256",
					"name": "lockId",
					"type": "uint256"
				}
			],
			"name": "getLockById",
			"outputs": [
				{
					"components": [
						{
							"internalType": "uint256",
							"name": "id",
							"type": "uint256"
						},
						{
							"internalType": "address",
							"name": "token",
							"type": "address"
						},
						{
							"internalType": "address",
							"name": "owner",
							"type": "address"
						},
						{
							"internalType": "uint256",
							"name": "amount",
							"type": "uint256"
						},
						{
							"internalType": "uint256",
							"name": "lockDate",
							"type": "uint256"
						},
						{
							"internalType": "uint256",
							"name": "tgeDate",
							"type": "uint256"
						},
						{
							"internalType": "uint256",
							"name": "tgeBps",
							"type": "uint256"
						},
						{
							"internalType": "uint256",
							"name": "cycle",
							"type": "uint256"
						},
						{
							"internalType": "uint256",
							"name": "cycleBps",
							"type": "uint256"
						},
						{
							"internalType": "uint256",
							"name": "unlockedAmount",
							"type": "uint256"
						},
						{
							"internalType": "string",
							"name": "description",
							"type": "string"
						}
					],
					"internalType": "struct RamzLock.Lock",
					"name": "",
					"type": "tuple"
				}
			],
			"stateMutability": "view",
			"type": "function"
		},
		{
			"inputs": [
				{
					"internalType": "address",
					"name": "token",
					"type": "address"
				},
				{
					"internalType": "uint256",
					"name": "start",
					"type": "uint256"
				},
				{
					"internalType": "uint256",
					"name": "end",
					"type": "uint256"
				}
			],
			"name": "getLocksForToken",
			"outputs": [
				{
					"components": [
						{
							"internalType": "uint256",
							"name": "id",
							"type": "uint256"
						},
						{
							"internalType": "address",
							"name": "token",
							"type": "address"
						},
						{
							"internalType": "address",
							"name": "owner",
							"type": "address"
						},
						{
							"internalType": "uint256",
							"name": "amount",
							"type": "uint256"
						},
						{
							"internalType": "uint256",
							"name": "lockDate",
							"type": "uint256"
						},
						{
							"internalType": "uint256",
							"name": "tgeDate",
							"type": "uint256"
						},
						{
							"internalType": "uint256",
							"name": "tgeBps",
							"type": "uint256"
						},
						{
							"internalType": "uint256",
							"name": "cycle",
							"type": "uint256"
						},
						{
							"internalType": "uint256",
							"name": "cycleBps",
							"type": "uint256"
						},
						{
							"internalType": "uint256",
							"name": "unlockedAmount",
							"type": "uint256"
						},
						{
							"internalType": "string",
							"name": "description",
							"type": "string"
						}
					],
					"internalType": "struct RamzLock.Lock[]",
					"name": "",
					"type": "tuple[]"
				}
			],
			"stateMutability": "view",
			"type": "function"
		},
		{
			"inputs": [],
			"name": "getTotalLockCount",
			"outputs": [
				{
					"internalType": "uint256",
					"name": "",
					"type": "uint256"
				}
			],
			"stateMutability": "view",
			"type": "function"
		},
		{
			"inputs": [
				{
					"internalType": "address",
					"name": "owner",
					"type": "address"
				},
				{
					"internalType": "address",
					"name": "token",
					"type": "address"
				},
				{
					"internalType": "bool",
					"name": "isLpToken",
					"type": "bool"
				},
				{
					"internalType": "uint256",
					"name": "amount",
					"type": "uint256"
				},
				{
					"internalType": "uint256",
					"name": "unlockDate",
					"type": "uint256"
				},
				{
					"internalType": "string",
					"name": "description",
					"type": "string"
				}
			],
			"name": "lock",
			"outputs": [
				{
					"internalType": "uint256",
					"name": "id",
					"type": "uint256"
				}
			],
			"stateMutability": "nonpayable",
			"type": "function"
		},
		{
			"inputs": [
				{
					"internalType": "address",
					"name": "user",
					"type": "address"
				}
			],
			"name": "lpLockCountForUser",
			"outputs": [
				{
					"internalType": "uint256",
					"name": "",
					"type": "uint256"
				}
			],
			"stateMutability": "view",
			"type": "function"
		},
		{
			"inputs": [
				{
					"internalType": "address",
					"name": "user",
					"type": "address"
				},
				{
					"internalType": "uint256",
					"name": "index",
					"type": "uint256"
				}
			],
			"name": "lpLockForUserAtIndex",
			"outputs": [
				{
					"components": [
						{
							"internalType": "uint256",
							"name": "id",
							"type": "uint256"
						},
						{
							"internalType": "address",
							"name": "token",
							"type": "address"
						},
						{
							"internalType": "address",
							"name": "owner",
							"type": "address"
						},
						{
							"internalType": "uint256",
							"name": "amount",
							"type": "uint256"
						},
						{
							"internalType": "uint256",
							"name": "lockDate",
							"type": "uint256"
						},
						{
							"internalType": "uint256",
							"name": "tgeDate",
							"type": "uint256"
						},
						{
							"internalType": "uint256",
							"name": "tgeBps",
							"type": "uint256"
						},
						{
							"internalType": "uint256",
							"name": "cycle",
							"type": "uint256"
						},
						{
							"internalType": "uint256",
							"name": "cycleBps",
							"type": "uint256"
						},
						{
							"internalType": "uint256",
							"name": "unlockedAmount",
							"type": "uint256"
						},
						{
							"internalType": "string",
							"name": "description",
							"type": "string"
						}
					],
					"internalType": "struct RamzLock.Lock",
					"name": "",
					"type": "tuple"
				}
			],
			"stateMutability": "view",
			"type": "function"
		},
		{
			"inputs": [
				{
					"internalType": "address",
					"name": "user",
					"type": "address"
				}
			],
			"name": "lpLocksForUser",
			"outputs": [
				{
					"components": [
						{
							"internalType": "uint256",
							"name": "id",
							"type": "uint256"
						},
						{
							"internalType": "address",
							"name": "token",
							"type": "address"
						},
						{
							"internalType": "address",
							"name": "owner",
							"type": "address"
						},
						{
							"internalType": "uint256",
							"name": "amount",
							"type": "uint256"
						},
						{
							"internalType": "uint256",
							"name": "lockDate",
							"type": "uint256"
						},
						{
							"internalType": "uint256",
							"name": "tgeDate",
							"type": "uint256"
						},
						{
							"internalType": "uint256",
							"name": "tgeBps",
							"type": "uint256"
						},
						{
							"internalType": "uint256",
							"name": "cycle",
							"type": "uint256"
						},
						{
							"internalType": "uint256",
							"name": "cycleBps",
							"type": "uint256"
						},
						{
							"internalType": "uint256",
							"name": "unlockedAmount",
							"type": "uint256"
						},
						{
							"internalType": "string",
							"name": "description",
							"type": "string"
						}
					],
					"internalType": "struct RamzLock.Lock[]",
					"name": "",
					"type": "tuple[]"
				}
			],
			"stateMutability": "view",
			"type": "function"
		},
		{
			"inputs": [
				{
					"internalType": "address[]",
					"name": "owners",
					"type": "address[]"
				},
				{
					"internalType": "uint256[]",
					"name": "amounts",
					"type": "uint256[]"
				},
				{
					"internalType": "address",
					"name": "token",
					"type": "address"
				},
				{
					"internalType": "bool",
					"name": "isLpToken",
					"type": "bool"
				},
				{
					"internalType": "uint256",
					"name": "tgeDate",
					"type": "uint256"
				},
				{
					"internalType": "uint256",
					"name": "tgeBps",
					"type": "uint256"
				},
				{
					"internalType": "uint256",
					"name": "cycle",
					"type": "uint256"
				},
				{
					"internalType": "uint256",
					"name": "cycleBps",
					"type": "uint256"
				},
				{
					"internalType": "string",
					"name": "description",
					"type": "string"
				}
			],
			"name": "multipleVestingLock",
			"outputs": [
				{
					"internalType": "uint256[]",
					"name": "",
					"type": "uint256[]"
				}
			],
			"stateMutability": "nonpayable",
			"type": "function"
		},
		{
			"inputs": [
				{
					"internalType": "address",
					"name": "user",
					"type": "address"
				}
			],
			"name": "normalLockCountForUser",
			"outputs": [
				{
					"internalType": "uint256",
					"name": "",
					"type": "uint256"
				}
			],
			"stateMutability": "view",
			"type": "function"
		},
		{
			"inputs": [
				{
					"internalType": "address",
					"name": "user",
					"type": "address"
				},
				{
					"internalType": "uint256",
					"name": "index",
					"type": "uint256"
				}
			],
			"name": "normalLockForUserAtIndex",
			"outputs": [
				{
					"components": [
						{
							"internalType": "uint256",
							"name": "id",
							"type": "uint256"
						},
						{
							"internalType": "address",
							"name": "token",
							"type": "address"
						},
						{
							"internalType": "address",
							"name": "owner",
							"type": "address"
						},
						{
							"internalType": "uint256",
							"name": "amount",
							"type": "uint256"
						},
						{
							"internalType": "uint256",
							"name": "lockDate",
							"type": "uint256"
						},
						{
							"internalType": "uint256",
							"name": "tgeDate",
							"type": "uint256"
						},
						{
							"internalType": "uint256",
							"name": "tgeBps",
							"type": "uint256"
						},
						{
							"internalType": "uint256",
							"name": "cycle",
							"type": "uint256"
						},
						{
							"internalType": "uint256",
							"name": "cycleBps",
							"type": "uint256"
						},
						{
							"internalType": "uint256",
							"name": "unlockedAmount",
							"type": "uint256"
						},
						{
							"internalType": "string",
							"name": "description",
							"type": "string"
						}
					],
					"internalType": "struct RamzLock.Lock",
					"name": "",
					"type": "tuple"
				}
			],
			"stateMutability": "view",
			"type": "function"
		},
		{
			"inputs": [
				{
					"internalType": "address",
					"name": "user",
					"type": "address"
				}
			],
			"name": "normalLocksForUser",
			"outputs": [
				{
					"components": [
						{
							"internalType": "uint256",
							"name": "id",
							"type": "uint256"
						},
						{
							"internalType": "address",
							"name": "token",
							"type": "address"
						},
						{
							"internalType": "address",
							"name": "owner",
							"type": "address"
						},
						{
							"internalType": "uint256",
							"name": "amount",
							"type": "uint256"
						},
						{
							"internalType": "uint256",
							"name": "lockDate",
							"type": "uint256"
						},
						{
							"internalType": "uint256",
							"name": "tgeDate",
							"type": "uint256"
						},
						{
							"internalType": "uint256",
							"name": "tgeBps",
							"type": "uint256"
						},
						{
							"internalType": "uint256",
							"name": "cycle",
							"type": "uint256"
						},
						{
							"internalType": "uint256",
							"name": "cycleBps",
							"type": "uint256"
						},
						{
							"internalType": "uint256",
							"name": "unlockedAmount",
							"type": "uint256"
						},
						{
							"internalType": "string",
							"name": "description",
							"type": "string"
						}
					],
					"internalType": "struct RamzLock.Lock[]",
					"name": "",
					"type": "tuple[]"
				}
			],
			"stateMutability": "view",
			"type": "function"
		},
		{
			"inputs": [
				{
					"internalType": "uint256",
					"name": "lockId",
					"type": "uint256"
				}
			],
			"name": "renounceLockOwnership",
			"outputs": [],
			"stateMutability": "nonpayable",
			"type": "function"
		},
		{
			"inputs": [
				{
					"internalType": "address",
					"name": "token",
					"type": "address"
				}
			],
			"name": "totalLockCountForToken",
			"outputs": [
				{
					"internalType": "uint256",
					"name": "",
					"type": "uint256"
				}
			],
			"stateMutability": "view",
			"type": "function"
		},
		{
			"inputs": [
				{
					"internalType": "address",
					"name": "user",
					"type": "address"
				}
			],
			"name": "totalLockCountForUser",
			"outputs": [
				{
					"internalType": "uint256",
					"name": "",
					"type": "uint256"
				}
			],
			"stateMutability": "view",
			"type": "function"
		},
		{
			"inputs": [],
			"name": "totalTokenLockedCount",
			"outputs": [
				{
					"internalType": "uint256",
					"name": "",
					"type": "uint256"
				}
			],
			"stateMutability": "view",
			"type": "function"
		},
		{
			"inputs": [
				{
					"internalType": "uint256",
					"name": "lockId",
					"type": "uint256"
				},
				{
					"internalType": "address",
					"name": "newOwner",
					"type": "address"
				}
			],
			"name": "transferLockOwnership",
			"outputs": [],
			"stateMutability": "nonpayable",
			"type": "function"
		},
		{
			"inputs": [
				{
					"internalType": "uint256",
					"name": "lockId",
					"type": "uint256"
				}
			],
			"name": "unlock",
			"outputs": [],
			"stateMutability": "nonpayable",
			"type": "function"
		},
		{
			"inputs": [
				{
					"internalType": "address",
					"name": "owner",
					"type": "address"
				},
				{
					"internalType": "address",
					"name": "token",
					"type": "address"
				},
				{
					"internalType": "bool",
					"name": "isLpToken",
					"type": "bool"
				},
				{
					"internalType": "uint256",
					"name": "amount",
					"type": "uint256"
				},
				{
					"internalType": "uint256",
					"name": "tgeDate",
					"type": "uint256"
				},
				{
					"internalType": "uint256",
					"name": "tgeBps",
					"type": "uint256"
				},
				{
					"internalType": "uint256",
					"name": "cycle",
					"type": "uint256"
				},
				{
					"internalType": "uint256",
					"name": "cycleBps",
					"type": "uint256"
				},
				{
					"internalType": "string",
					"name": "description",
					"type": "string"
				}
			],
			"name": "vestingLock",
			"outputs": [
				{
					"internalType": "uint256",
					"name": "id",
					"type": "uint256"
				}
			],
			"stateMutability": "nonpayable",
			"type": "function"
		},
		{
			"inputs": [
				{
					"internalType": "uint256",
					"name": "lockId",
					"type": "uint256"
				}
			],
			"name": "withdrawableTokens",
			"outputs": [
				{
					"internalType": "uint256",
					"name": "",
					"type": "uint256"
				}
			],
			"stateMutability": "view",
			"type": "function"
		}
	]
}