{
	"data": {
		"bytecode": {
			"linkReferences": {},
			"object": "608060405234801561001057600080fd5b5060405161081a38038061081a83398101604081905261002f916100c6565b600181116100835760405162461bcd60e51b815260206004820152601660248201527f4e65656420746f206265206174206c6561737420312500000000000000000000604482015260640160405180910390fd5b600080546001600160a01b0319166001600160a01b0386161790554260015560028390556100b2816064610111565b600455600591909155600655506101339050565b600080600080608085870312156100dc57600080fd5b84516001600160a01b03811681146100f357600080fd5b60208601516040870151606090970151919890975090945092505050565b60008261012e57634e487b7160e01b600052601260045260246000fd5b500490565b6106d8806101426000396000f3fe6080604052600436106100c65760003560e01c8063ad7a672f1161007f578063c1b544c111610059578063c1b544c114610278578063d0e30db01461028e578063d8270dce14610296578063ee82f3f4146102ac57600080fd5b8063ad7a672f14610222578063bb025a3f14610238578063bdc608d61461026257600080fd5b80630640d9411461012a5780634e71d92d146101535780635a9b0b89146101685780635f41e81d146101be5780638da5cb5b146101d457806391f3f0591461020c57600080fd5b36610125576000546001600160a01b031633146101235760405162461bcd60e51b815260206004820152601660248201527513db9b1e481bdddb995c8818d85b8819195c1bdcda5d60521b60448201526064015b60405180910390fd5b005b600080fd5b34801561013657600080fd5b5061014060055481565b6040519081526020015b60405180910390f35b34801561015f57600080fd5b506101236102c2565b34801561017457600080fd5b50600054600254600454600554600654600354604080516001600160a01b0390971687526020870195909552938501929092526060840152608083015260a082015260c00161014a565b3480156101ca57600080fd5b5061014060025481565b3480156101e057600080fd5b506000546101f4906001600160a01b031681565b6040516001600160a01b03909116815260200161014a565b34801561021857600080fd5b5061014060045481565b34801561022e57600080fd5b5061014060035481565b34801561024457600080fd5b506009546102529060ff1681565b604051901515815260200161014a565b34801561026e57600080fd5b5061014060065481565b34801561028457600080fd5b5061014060085481565b610123610553565b3480156102a257600080fd5b5061014060015481565b3480156102b857600080fd5b5061014060075481565b6000546001600160a01b0316331461031c5760405162461bcd60e51b815260206004820152601a60248201527f4f6e6c79206f776e65722063616e20636c61696d2066756e6473000000000000604482015260640161011a565b60055460085461032c9190610624565b60025460015461033c9190610641565b6103469190610641565b4210156103845760405162461bcd60e51b815260206004820152600c60248201526b139bdd081d1a5b59481e595d60a21b604482015260640161011a565b60095460ff16156103d35760405162461bcd60e51b8152602060048201526019602482015278151a1a5cc818dbdb9d1c9858dd081a185cc8195e1c1a5c9959603a1b604482015260640161011a565b60035460075403610425576009805460ff1916600117905560405162461bcd60e51b815260206004820152600f60248201526e105b1c9958591e4818db185a5b5959608a1b604482015260640161011a565b600060016004546104369190610654565b600854036104865760646006546008546104509190610624565b61045b906064610654565b6003546104689190610624565b6104729190610667565b6009805460ff1916600117905590506104a5565b60646006546003546104989190610624565b6104a29190610667565b90505b80600760008282546104b79190610641565b9091555050600880549060006104cc83610689565b9190505550804710156105165760405162461bcd60e51b81526020600482015260126024820152714e6f7420656e6f7567682062616c616e636560701b604482015260640161011a565b600080546040516001600160a01b039091169183156108fc02918491818181858888f1935050505015801561054f573d6000803e3d6000fd5b5050565b6000546001600160a01b031633146105a65760405162461bcd60e51b815260206004820152601660248201527513db9b1e481bdddb995c8818d85b8819195c1bdcda5d60521b604482015260640161011a565b60095460ff16156105f55760405162461bcd60e51b8152602060048201526019602482015278151a1a5cc818dbdb9d1c9858dd081a185cc8195e1c1a5c9959603a1b604482015260640161011a565b34600360008282546106079190610641565b9091555050565b634e487b7160e01b600052601160045260246000fd5b808202811582820484141761063b5761063b61060e565b92915050565b8082018082111561063b5761063b61060e565b8181038181111561063b5761063b61060e565b60008261068457634e487b7160e01b600052601260045260246000fd5b500490565b60006001820161069b5761069b61060e565b506001019056fea264697066735822122071957f8c1b8b88c5030220c99d066f870b263bd6375f3df13288f10b58a990ae64736f6c63430008110033",
			"opcodes": "PUSH1 0x80 PUSH1 0x40 MSTORE CALLVALUE DUP1 ISZERO PUSH2 0x10 JUMPI PUSH1 0x0 DUP1 REVERT JUMPDEST POP PUSH1 0x40 MLOAD PUSH2 0x81A CODESIZE SUB DUP1 PUSH2 0x81A DUP4 CODECOPY DUP2 ADD PUSH1 0x40 DUP2 SWAP1 MSTORE PUSH2 0x2F SWAP2 PUSH2 0xC6 JUMP JUMPDEST PUSH1 0x1 DUP2 GT PUSH2 0x83 JUMPI PUSH1 0x40 MLOAD PUSH3 0x461BCD PUSH1 0xE5 SHL DUP2 MSTORE PUSH1 0x20 PUSH1 0x4 DUP3 ADD MSTORE PUSH1 0x16 PUSH1 0x24 DUP3 ADD MSTORE PUSH32 0x4E65656420746F206265206174206C6561737420312500000000000000000000 PUSH1 0x44 DUP3 ADD MSTORE PUSH1 0x64 ADD PUSH1 0x40 MLOAD DUP1 SWAP2 SUB SWAP1 REVERT JUMPDEST PUSH1 0x0 DUP1 SLOAD PUSH1 0x1 PUSH1 0x1 PUSH1 0xA0 SHL SUB NOT AND PUSH1 0x1 PUSH1 0x1 PUSH1 0xA0 SHL SUB DUP7 AND OR SWAP1 SSTORE TIMESTAMP PUSH1 0x1 SSTORE PUSH1 0x2 DUP4 SWAP1 SSTORE PUSH2 0xB2 DUP2 PUSH1 0x64 PUSH2 0x111 JUMP JUMPDEST PUSH1 0x4 SSTORE PUSH1 0x5 SWAP2 SWAP1 SWAP2 SSTORE PUSH1 0x6 SSTORE POP PUSH2 0x133 SWAP1 POP JUMP JUMPDEST PUSH1 0x0 DUP1 PUSH1 0x0 DUP1 PUSH1 0x80 DUP6 DUP8 SUB SLT ISZERO PUSH2 0xDC JUMPI PUSH1 0x0 DUP1 REVERT JUMPDEST DUP5 MLOAD PUSH1 0x1 PUSH1 0x1 PUSH1 0xA0 SHL SUB DUP2 AND DUP2 EQ PUSH2 0xF3 JUMPI PUSH1 0x0 DUP1 REVERT JUMPDEST PUSH1 0x20 DUP7 ADD MLOAD PUSH1 0x40 DUP8 ADD MLOAD PUSH1 0x60 SWAP1 SWAP8 ADD MLOAD SWAP2 SWAP9 SWAP1 SWAP8 POP SWAP1 SWAP5 POP SWAP3 POP POP POP JUMP JUMPDEST PUSH1 0x0 DUP3 PUSH2 0x12E JUMPI PUSH4 0x4E487B71 PUSH1 0xE0 SHL PUSH1 0x0 MSTORE PUSH1 0x12 PUSH1 0x4 MSTORE PUSH1 0x24 PUSH1 0x0 REVERT JUMPDEST POP DIV SWAP1 JUMP JUMPDEST PUSH2 0x6D8 DUP1 PUSH2 0x142 PUSH1 0x0 CODECOPY PUSH1 0x0 RETURN INVALID PUSH1 0x80 PUSH1 0x40 MSTORE PUSH1 0x4 CALLDATASIZE LT PUSH2 0xC6 JUMPI PUSH1 0x0 CALLDATALOAD PUSH1 0xE0 SHR DUP1 PUSH4 0xAD7A672F GT PUSH2 0x7F JUMPI DUP1 PUSH4 0xC1B544C1 GT PUSH2 0x59 JUMPI DUP1 PUSH4 0xC1B544C1 EQ PUSH2 0x278 JUMPI DUP1 PUSH4 0xD0E30DB0 EQ PUSH2 0x28E JUMPI DUP1 PUSH4 0xD8270DCE EQ PUSH2 0x296 JUMPI DUP1 PUSH4 0xEE82F3F4 EQ PUSH2 0x2AC JUMPI PUSH1 0x0 DUP1 REVERT JUMPDEST DUP1 PUSH4 0xAD7A672F EQ PUSH2 0x222 JUMPI DUP1 PUSH4 0xBB025A3F EQ PUSH2 0x238 JUMPI DUP1 PUSH4 0xBDC608D6 EQ PUSH2 0x262 JUMPI PUSH1 0x0 DUP1 REVERT JUMPDEST DUP1 PUSH4 0x640D941 EQ PUSH2 0x12A JUMPI DUP1 PUSH4 0x4E71D92D EQ PUSH2 0x153 JUMPI DUP1 PUSH4 0x5A9B0B89 EQ PUSH2 0x168 JUMPI DUP1 PUSH4 0x5F41E81D EQ PUSH2 0x1BE JUMPI DUP1 PUSH4 0x8DA5CB5B EQ PUSH2 0x1D4 JUMPI DUP1 PUSH4 0x91F3F059 EQ PUSH2 0x20C JUMPI PUSH1 0x0 DUP1 REVERT JUMPDEST CALLDATASIZE PUSH2 0x125 JUMPI PUSH1 0x0 SLOAD PUSH1 0x1 PUSH1 0x1 PUSH1 0xA0 SHL SUB AND CALLER EQ PUSH2 0x123 JUMPI PUSH1 0x40 MLOAD PUSH3 0x461BCD PUSH1 0xE5 SHL DUP2 MSTORE PUSH1 0x20 PUSH1 0x4 DUP3 ADD MSTORE PUSH1 0x16 PUSH1 0x24 DUP3 ADD MSTORE PUSH22 0x13DB9B1E481BDDDB995C8818D85B8819195C1BDCDA5D PUSH1 0x52 SHL PUSH1 0x44 DUP3 ADD MSTORE PUSH1 0x64 ADD JUMPDEST PUSH1 0x40 MLOAD DUP1 SWAP2 SUB SWAP1 REVERT JUMPDEST STOP JUMPDEST PUSH1 0x0 DUP1 REVERT JUMPDEST CALLVALUE DUP1 ISZERO PUSH2 0x136 JUMPI PUSH1 0x0 DUP1 REVERT JUMPDEST POP PUSH2 0x140 PUSH1 0x5 SLOAD DUP2 JUMP JUMPDEST PUSH1 0x40 MLOAD SWAP1 DUP2 MSTORE PUSH1 0x20 ADD JUMPDEST PUSH1 0x40 MLOAD DUP1 SWAP2 SUB SWAP1 RETURN JUMPDEST CALLVALUE DUP1 ISZERO PUSH2 0x15F JUMPI PUSH1 0x0 DUP1 REVERT JUMPDEST POP PUSH2 0x123 PUSH2 0x2C2 JUMP JUMPDEST CALLVALUE DUP1 ISZERO PUSH2 0x174 JUMPI PUSH1 0x0 DUP1 REVERT JUMPDEST POP PUSH1 0x0 SLOAD PUSH1 0x2 SLOAD PUSH1 0x4 SLOAD PUSH1 0x5 SLOAD PUSH1 0x6 SLOAD PUSH1 0x3 SLOAD PUSH1 0x40 DUP1 MLOAD PUSH1 0x1 PUSH1 0x1 PUSH1 0xA0 SHL SUB SWAP1 SWAP8 AND DUP8 MSTORE PUSH1 0x20 DUP8 ADD SWAP6 SWAP1 SWAP6 MSTORE SWAP4 DUP6 ADD SWAP3 SWAP1 SWAP3 MSTORE PUSH1 0x60 DUP5 ADD MSTORE PUSH1 0x80 DUP4 ADD MSTORE PUSH1 0xA0 DUP3 ADD MSTORE PUSH1 0xC0 ADD PUSH2 0x14A JUMP JUMPDEST CALLVALUE DUP1 ISZERO PUSH2 0x1CA JUMPI PUSH1 0x0 DUP1 REVERT JUMPDEST POP PUSH2 0x140 PUSH1 0x2 SLOAD DUP2 JUMP JUMPDEST CALLVALUE DUP1 ISZERO PUSH2 0x1E0 JUMPI PUSH1 0x0 DUP1 REVERT JUMPDEST POP PUSH1 0x0 SLOAD PUSH2 0x1F4 SWAP1 PUSH1 0x1 PUSH1 0x1 PUSH1 0xA0 SHL SUB AND DUP2 JUMP JUMPDEST PUSH1 0x40 MLOAD PUSH1 0x1 PUSH1 0x1 PUSH1 0xA0 SHL SUB SWAP1 SWAP2 AND DUP2 MSTORE PUSH1 0x20 ADD PUSH2 0x14A JUMP JUMPDEST CALLVALUE DUP1 ISZERO PUSH2 0x218 JUMPI PUSH1 0x0 DUP1 REVERT JUMPDEST POP PUSH2 0x140 PUSH1 0x4 SLOAD DUP2 JUMP JUMPDEST CALLVALUE DUP1 ISZERO PUSH2 0x22E JUMPI PUSH1 0x0 DUP1 REVERT JUMPDEST POP PUSH2 0x140 PUSH1 0x3 SLOAD DUP2 JUMP JUMPDEST CALLVALUE DUP1 ISZERO PUSH2 0x244 JUMPI PUSH1 0x0 DUP1 REVERT JUMPDEST POP PUSH1 0x9 SLOAD PUSH2 0x252 SWAP1 PUSH1 0xFF AND DUP2 JUMP JUMPDEST PUSH1 0x40 MLOAD SWAP1 ISZERO ISZERO DUP2 MSTORE PUSH1 0x20 ADD PUSH2 0x14A JUMP JUMPDEST CALLVALUE DUP1 ISZERO PUSH2 0x26E JUMPI PUSH1 0x0 DUP1 REVERT JUMPDEST POP PUSH2 0x140 PUSH1 0x6 SLOAD DUP2 JUMP JUMPDEST CALLVALUE DUP1 ISZERO PUSH2 0x284 JUMPI PUSH1 0x0 DUP1 REVERT JUMPDEST POP PUSH2 0x140 PUSH1 0x8 SLOAD DUP2 JUMP JUMPDEST PUSH2 0x123 PUSH2 0x553 JUMP JUMPDEST CALLVALUE DUP1 ISZERO PUSH2 0x2A2 JUMPI PUSH1 0x0 DUP1 REVERT JUMPDEST POP PUSH2 0x140 PUSH1 0x1 SLOAD DUP2 JUMP JUMPDEST CALLVALUE DUP1 ISZERO PUSH2 0x2B8 JUMPI PUSH1 0x0 DUP1 REVERT JUMPDEST POP PUSH2 0x140 PUSH1 0x7 SLOAD DUP2 JUMP JUMPDEST PUSH1 0x0 SLOAD PUSH1 0x1 PUSH1 0x1 PUSH1 0xA0 SHL SUB AND CALLER EQ PUSH2 0x31C JUMPI PUSH1 0x40 MLOAD PUSH3 0x461BCD PUSH1 0xE5 SHL DUP2 MSTORE PUSH1 0x20 PUSH1 0x4 DUP3 ADD MSTORE PUSH1 0x1A PUSH1 0x24 DUP3 ADD MSTORE PUSH32 0x4F6E6C79206F776E65722063616E20636C61696D2066756E6473000000000000 PUSH1 0x44 DUP3 ADD MSTORE PUSH1 0x64 ADD PUSH2 0x11A JUMP JUMPDEST PUSH1 0x5 SLOAD PUSH1 0x8 SLOAD PUSH2 0x32C SWAP2 SWAP1 PUSH2 0x624 JUMP JUMPDEST PUSH1 0x2 SLOAD PUSH1 0x1 SLOAD PUSH2 0x33C SWAP2 SWAP1 PUSH2 0x641 JUMP JUMPDEST PUSH2 0x346 SWAP2 SWAP1 PUSH2 0x641 JUMP JUMPDEST TIMESTAMP LT ISZERO PUSH2 0x384 JUMPI PUSH1 0x40 MLOAD PUSH3 0x461BCD PUSH1 0xE5 SHL DUP2 MSTORE PUSH1 0x20 PUSH1 0x4 DUP3 ADD MSTORE PUSH1 0xC PUSH1 0x24 DUP3 ADD MSTORE PUSH12 0x139BDD081D1A5B59481E595D PUSH1 0xA2 SHL PUSH1 0x44 DUP3 ADD MSTORE PUSH1 0x64 ADD PUSH2 0x11A JUMP JUMPDEST PUSH1 0x9 SLOAD PUSH1 0xFF AND ISZERO PUSH2 0x3D3 JUMPI PUSH1 0x40 MLOAD PUSH3 0x461BCD PUSH1 0xE5 SHL DUP2 MSTORE PUSH1 0x20 PUSH1 0x4 DUP3 ADD MSTORE PUSH1 0x19 PUSH1 0x24 DUP3 ADD MSTORE PUSH25 0x151A1A5CC818DBDB9D1C9858DD081A185CC8195E1C1A5C9959 PUSH1 0x3A SHL PUSH1 0x44 DUP3 ADD MSTORE PUSH1 0x64 ADD PUSH2 0x11A JUMP JUMPDEST PUSH1 0x3 SLOAD PUSH1 0x7 SLOAD SUB PUSH2 0x425 JUMPI PUSH1 0x9 DUP1 SLOAD PUSH1 0xFF NOT AND PUSH1 0x1 OR SWAP1 SSTORE PUSH1 0x40 MLOAD PUSH3 0x461BCD PUSH1 0xE5 SHL DUP2 MSTORE PUSH1 0x20 PUSH1 0x4 DUP3 ADD MSTORE PUSH1 0xF PUSH1 0x24 DUP3 ADD MSTORE PUSH15 0x105B1C9958591E4818DB185A5B5959 PUSH1 0x8A SHL PUSH1 0x44 DUP3 ADD MSTORE PUSH1 0x64 ADD PUSH2 0x11A JUMP JUMPDEST PUSH1 0x0 PUSH1 0x1 PUSH1 0x4 SLOAD PUSH2 0x436 SWAP2 SWAP1 PUSH2 0x654 JUMP JUMPDEST PUSH1 0x8 SLOAD SUB PUSH2 0x486 JUMPI PUSH1 0x64 PUSH1 0x6 SLOAD PUSH1 0x8 SLOAD PUSH2 0x450 SWAP2 SWAP1 PUSH2 0x624 JUMP JUMPDEST PUSH2 0x45B SWAP1 PUSH1 0x64 PUSH2 0x654 JUMP JUMPDEST PUSH1 0x3 SLOAD PUSH2 0x468 SWAP2 SWAP1 PUSH2 0x624 JUMP JUMPDEST PUSH2 0x472 SWAP2 SWAP1 PUSH2 0x667 JUMP JUMPDEST PUSH1 0x9 DUP1 SLOAD PUSH1 0xFF NOT AND PUSH1 0x1 OR SWAP1 SSTORE SWAP1 POP PUSH2 0x4A5 JUMP JUMPDEST PUSH1 0x64 PUSH1 0x6 SLOAD PUSH1 0x3 SLOAD PUSH2 0x498 SWAP2 SWAP1 PUSH2 0x624 JUMP JUMPDEST PUSH2 0x4A2 SWAP2 SWAP1 PUSH2 0x667 JUMP JUMPDEST SWAP1 POP JUMPDEST DUP1 PUSH1 0x7 PUSH1 0x0 DUP3 DUP3 SLOAD PUSH2 0x4B7 SWAP2 SWAP1 PUSH2 0x641 JUMP JUMPDEST SWAP1 SWAP2 SSTORE POP POP PUSH1 0x8 DUP1 SLOAD SWAP1 PUSH1 0x0 PUSH2 0x4CC DUP4 PUSH2 0x689 JUMP JUMPDEST SWAP2 SWAP1 POP SSTORE POP DUP1 SELFBALANCE LT ISZERO PUSH2 0x516 JUMPI PUSH1 0x40 MLOAD PUSH3 0x461BCD PUSH1 0xE5 SHL DUP2 MSTORE PUSH1 0x20 PUSH1 0x4 DUP3 ADD MSTORE PUSH1 0x12 PUSH1 0x24 DUP3 ADD MSTORE PUSH18 0x4E6F7420656E6F7567682062616C616E6365 PUSH1 0x70 SHL PUSH1 0x44 DUP3 ADD MSTORE PUSH1 0x64 ADD PUSH2 0x11A JUMP JUMPDEST PUSH1 0x0 DUP1 SLOAD PUSH1 0x40 MLOAD PUSH1 0x1 PUSH1 0x1 PUSH1 0xA0 SHL SUB SWAP1 SWAP2 AND SWAP2 DUP4 ISZERO PUSH2 0x8FC MUL SWAP2 DUP5 SWAP2 DUP2 DUP2 DUP2 DUP6 DUP9 DUP9 CALL SWAP4 POP POP POP POP ISZERO DUP1 ISZERO PUSH2 0x54F JUMPI RETURNDATASIZE PUSH1 0x0 DUP1 RETURNDATACOPY RETURNDATASIZE PUSH1 0x0 REVERT JUMPDEST POP POP JUMP JUMPDEST PUSH1 0x0 SLOAD PUSH1 0x1 PUSH1 0x1 PUSH1 0xA0 SHL SUB AND CALLER EQ PUSH2 0x5A6 JUMPI PUSH1 0x40 MLOAD PUSH3 0x461BCD PUSH1 0xE5 SHL DUP2 MSTORE PUSH1 0x20 PUSH1 0x4 DUP3 ADD MSTORE PUSH1 0x16 PUSH1 0x24 DUP3 ADD MSTORE PUSH22 0x13DB9B1E481BDDDB995C8818D85B8819195C1BDCDA5D PUSH1 0x52 SHL PUSH1 0x44 DUP3 ADD MSTORE PUSH1 0x64 ADD PUSH2 0x11A JUMP JUMPDEST PUSH1 0x9 SLOAD PUSH1 0xFF AND ISZERO PUSH2 0x5F5 JUMPI PUSH1 0x40 MLOAD PUSH3 0x461BCD PUSH1 0xE5 SHL DUP2 MSTORE PUSH1 0x20 PUSH1 0x4 DUP3 ADD MSTORE PUSH1 0x19 PUSH1 0x24 DUP3 ADD MSTORE PUSH25 0x151A1A5CC818DBDB9D1C9858DD081A185CC8195E1C1A5C9959 PUSH1 0x3A SHL PUSH1 0x44 DUP3 ADD MSTORE PUSH1 0x64 ADD PUSH2 0x11A JUMP JUMPDEST CALLVALUE PUSH1 0x3 PUSH1 0x0 DUP3 DUP3 SLOAD PUSH2 0x607 SWAP2 SWAP1 PUSH2 0x641 JUMP JUMPDEST SWAP1 SWAP2 SSTORE POP POP JUMP JUMPDEST PUSH4 0x4E487B71 PUSH1 0xE0 SHL PUSH1 0x0 MSTORE PUSH1 0x11 PUSH1 0x4 MSTORE PUSH1 0x24 PUSH1 0x0 REVERT JUMPDEST DUP1 DUP3 MUL DUP2 ISZERO DUP3 DUP3 DIV DUP5 EQ OR PUSH2 0x63B JUMPI PUSH2 0x63B PUSH2 0x60E JUMP JUMPDEST SWAP3 SWAP2 POP POP JUMP JUMPDEST DUP1 DUP3 ADD DUP1 DUP3 GT ISZERO PUSH2 0x63B JUMPI PUSH2 0x63B PUSH2 0x60E JUMP JUMPDEST DUP2 DUP2 SUB DUP2 DUP2 GT ISZERO PUSH2 0x63B JUMPI PUSH2 0x63B PUSH2 0x60E JUMP JUMPDEST PUSH1 0x0 DUP3 PUSH2 0x684 JUMPI PUSH4 0x4E487B71 PUSH1 0xE0 SHL PUSH1 0x0 MSTORE PUSH1 0x12 PUSH1 0x4 MSTORE PUSH1 0x24 PUSH1 0x0 REVERT JUMPDEST POP DIV SWAP1 JUMP JUMPDEST PUSH1 0x0 PUSH1 0x1 DUP3 ADD PUSH2 0x69B JUMPI PUSH2 0x69B PUSH2 0x60E JUMP JUMPDEST POP PUSH1 0x1 ADD SWAP1 JUMP INVALID LOG2 PUSH5 0x6970667358 0x22 SLT KECCAK256 PUSH18 0x957F8C1B8B88C5030220C99D066F870B263B 0xD6 CALLDATACOPY 0x5F RETURNDATASIZE CALL ORIGIN DUP9 CALL SIGNEXTEND PC 0xA9 SWAP1 0xAE PUSH5 0x736F6C6343 STOP ADDMOD GT STOP CALLER "
		},
		"gasEstimates": {
			"creation": {
				"codeDepositCost": "350400",
				"executionCost": "infinite",
				"totalCost": "infinite"
			},
			"external": {
				"claim()": "infinite",
				"claimedBalance()": "2372",
				"creationTime()": "2350",
				"deposit()": "28729",
				"getInfo()": "12957",
				"lockExpired()": "2355",
				"numberOfVestingPeriods()": "2395",
				"owner()": "2426",
				"percentPerClaim()": "2351",
				"periodsClaimed()": "2306",
				"startWaitTime()": "2351",
				"totalBalance()": "2307",
				"vestingPeriodDuration()": "2285"
			}
		},
		"methodIdentifiers": {
			"claim()": "4e71d92d",
			"claimedBalance()": "ee82f3f4",
			"creationTime()": "d8270dce",
			"deposit()": "d0e30db0",
			"getInfo()": "5a9b0b89",
			"lockExpired()": "bb025a3f",
			"numberOfVestingPeriods()": "91f3f059",
			"owner()": "8da5cb5b",
			"percentPerClaim()": "bdc608d6",
			"periodsClaimed()": "c1b544c1",
			"startWaitTime()": "5f41e81d",
			"totalBalance()": "ad7a672f",
			"vestingPeriodDuration()": "0640d941"
		}
	},
	"abi": [
		{
			"inputs": [
				{
					"internalType": "address",
					"name": "_owner",
					"type": "address"
				},
				{
					"internalType": "uint256",
					"name": "_startWaitTime",
					"type": "uint256"
				},
				{
					"internalType": "uint256",
					"name": "_vestingPeriodDuration",
					"type": "uint256"
				},
				{
					"internalType": "uint256",
					"name": "_percentPerClaim",
					"type": "uint256"
				}
			],
			"stateMutability": "nonpayable",
			"type": "constructor"
		},
		{
			"inputs": [],
			"name": "claim",
			"outputs": [],
			"stateMutability": "nonpayable",
			"type": "function"
		},
		{
			"inputs": [],
			"name": "claimedBalance",
			"outputs": [
				{
					"internalType": "uint256",
					"name": "",
					"type": "uint256"
				}
			],
			"stateMutability": "view",
			"type": "function"
		},
		{
			"inputs": [],
			"name": "creationTime",
			"outputs": [
				{
					"internalType": "uint256",
					"name": "",
					"type": "uint256"
				}
			],
			"stateMutability": "view",
			"type": "function"
		},
		{
			"inputs": [],
			"name": "deposit",
			"outputs": [],
			"stateMutability": "payable",
			"type": "function"
		},
		{
			"inputs": [],
			"name": "getInfo",
			"outputs": [
				{
					"internalType": "address",
					"name": "",
					"type": "address"
				},
				{
					"internalType": "uint256",
					"name": "",
					"type": "uint256"
				},
				{
					"internalType": "uint256",
					"name": "",
					"type": "uint256"
				},
				{
					"internalType": "uint256",
					"name": "",
					"type": "uint256"
				},
				{
					"internalType": "uint256",
					"name": "",
					"type": "uint256"
				},
				{
					"internalType": "uint256",
					"name": "",
					"type": "uint256"
				}
			],
			"stateMutability": "view",
			"type": "function"
		},
		{
			"inputs": [],
			"name": "lockExpired",
			"outputs": [
				{
					"internalType": "bool",
					"name": "",
					"type": "bool"
				}
			],
			"stateMutability": "view",
			"type": "function"
		},
		{
			"inputs": [],
			"name": "numberOfVestingPeriods",
			"outputs": [
				{
					"internalType": "uint256",
					"name": "",
					"type": "uint256"
				}
			],
			"stateMutability": "view",
			"type": "function"
		},
		{
			"inputs": [],
			"name": "owner",
			"outputs": [
				{
					"internalType": "address",
					"name": "",
					"type": "address"
				}
			],
			"stateMutability": "view",
			"type": "function"
		},
		{
			"inputs": [],
			"name": "percentPerClaim",
			"outputs": [
				{
					"internalType": "uint256",
					"name": "",
					"type": "uint256"
				}
			],
			"stateMutability": "view",
			"type": "function"
		},
		{
			"inputs": [],
			"name": "periodsClaimed",
			"outputs": [
				{
					"internalType": "uint256",
					"name": "",
					"type": "uint256"
				}
			],
			"stateMutability": "view",
			"type": "function"
		},
		{
			"inputs": [],
			"name": "startWaitTime",
			"outputs": [
				{
					"internalType": "uint256",
					"name": "",
					"type": "uint256"
				}
			],
			"stateMutability": "view",
			"type": "function"
		},
		{
			"inputs": [],
			"name": "totalBalance",
			"outputs": [
				{
					"internalType": "uint256",
					"name": "",
					"type": "uint256"
				}
			],
			"stateMutability": "view",
			"type": "function"
		},
		{
			"inputs": [],
			"name": "vestingPeriodDuration",
			"outputs": [
				{
					"internalType": "uint256",
					"name": "",
					"type": "uint256"
				}
			],
			"stateMutability": "view",
			"type": "function"
		},
		{
			"stateMutability": "payable",
			"type": "receive"
		}
	]
}