{
	"RamzSwap/TImeLockedWalletFactory.sol": {
		"TimeLockedWallet": {
			"abi": [
				{
					"inputs": [
						{
							"internalType": "address",
							"name": "_owner",
							"type": "address"
						},
						{
							"internalType": "uint256",
							"name": "_startWaitTime",
							"type": "uint256"
						},
						{
							"internalType": "uint256",
							"name": "_vestingPeriodDuration",
							"type": "uint256"
						},
						{
							"internalType": "uint256",
							"name": "_percentPerClaim",
							"type": "uint256"
						}
					],
					"stateMutability": "nonpayable",
					"type": "constructor"
				},
				{
					"inputs": [],
					"name": "claim",
					"outputs": [],
					"stateMutability": "nonpayable",
					"type": "function"
				},
				{
					"inputs": [],
					"name": "claimedBalance",
					"outputs": [
						{
							"internalType": "uint256",
							"name": "",
							"type": "uint256"
						}
					],
					"stateMutability": "view",
					"type": "function"
				},
				{
					"inputs": [],
					"name": "creationTime",
					"outputs": [
						{
							"internalType": "uint256",
							"name": "",
							"type": "uint256"
						}
					],
					"stateMutability": "view",
					"type": "function"
				},
				{
					"inputs": [],
					"name": "deposit",
					"outputs": [],
					"stateMutability": "payable",
					"type": "function"
				},
				{
					"inputs": [],
					"name": "getInfo",
					"outputs": [
						{
							"internalType": "address",
							"name": "",
							"type": "address"
						},
						{
							"internalType": "uint256",
							"name": "",
							"type": "uint256"
						},
						{
							"internalType": "uint256",
							"name": "",
							"type": "uint256"
						},
						{
							"internalType": "uint256",
							"name": "",
							"type": "uint256"
						},
						{
							"internalType": "uint256",
							"name": "",
							"type": "uint256"
						},
						{
							"internalType": "uint256",
							"name": "",
							"type": "uint256"
						}
					],
					"stateMutability": "view",
					"type": "function"
				},
				{
					"inputs": [],
					"name": "lockExpired",
					"outputs": [
						{
							"internalType": "bool",
							"name": "",
							"type": "bool"
						}
					],
					"stateMutability": "view",
					"type": "function"
				},
				{
					"inputs": [],
					"name": "numberOfVestingPeriods",
					"outputs": [
						{
							"internalType": "uint256",
							"name": "",
							"type": "uint256"
						}
					],
					"stateMutability": "view",
					"type": "function"
				},
				{
					"inputs": [],
					"name": "owner",
					"outputs": [
						{
							"internalType": "address",
							"name": "",
							"type": "address"
						}
					],
					"stateMutability": "view",
					"type": "function"
				},
				{
					"inputs": [],
					"name": "percentPerClaim",
					"outputs": [
						{
							"internalType": "uint256",
							"name": "",
							"type": "uint256"
						}
					],
					"stateMutability": "view",
					"type": "function"
				},
				{
					"inputs": [],
					"name": "periodsClaimed",
					"outputs": [
						{
							"internalType": "uint256",
							"name": "",
							"type": "uint256"
						}
					],
					"stateMutability": "view",
					"type": "function"
				},
				{
					"inputs": [],
					"name": "startWaitTime",
					"outputs": [
						{
							"internalType": "uint256",
							"name": "",
							"type": "uint256"
						}
					],
					"stateMutability": "view",
					"type": "function"
				},
				{
					"inputs": [],
					"name": "totalBalance",
					"outputs": [
						{
							"internalType": "uint256",
							"name": "",
							"type": "uint256"
						}
					],
					"stateMutability": "view",
					"type": "function"
				},
				{
					"inputs": [],
					"name": "vestingPeriodDuration",
					"outputs": [
						{
							"internalType": "uint256",
							"name": "",
							"type": "uint256"
						}
					],
					"stateMutability": "view",
					"type": "function"
				},
				{
					"stateMutability": "payable",
					"type": "receive"
				}
			],
			"devdoc": {
				"kind": "dev",
				"methods": {},
				"version": 1
			},
			"evm": {
				"assembly": "    /* \"RamzSwap/TImeLockedWalletFactory.sol\":57:2660  contract TimeLockedWallet {... */\n  mstore(0x40, 0x80)\n    /* \"RamzSwap/TImeLockedWalletFactory.sol\":438:955  constructor(... */\n  callvalue\n  dup1\n  iszero\n  tag_1\n  jumpi\n  0x00\n  dup1\n  revert\ntag_1:\n  pop\n  mload(0x40)\n  sub(codesize, bytecodeSize)\n  dup1\n  bytecodeSize\n  dup4\n  codecopy\n  dup2\n  add\n  0x40\n  dup2\n  swap1\n  mstore\n  tag_2\n  swap2\n  tag_3\n  jump\t// in\ntag_2:\n    /* \"RamzSwap/TImeLockedWalletFactory.sol\":623:624  1 */\n  0x01\n    /* \"RamzSwap/TImeLockedWalletFactory.sol\":604:620  _percentPerClaim */\n  dup2\n    /* \"RamzSwap/TImeLockedWalletFactory.sol\":604:624  _percentPerClaim > 1 */\n  gt\n    /* \"RamzSwap/TImeLockedWalletFactory.sol\":596:651  require(_percentPerClaim > 1, \"Need to be at least 1%\") */\n  tag_6\n  jumpi\n  mload(0x40)\n  shl(0xe5, 0x461bcd)\n  dup2\n  mstore\n    /* \"#utility.yul\":695:697   */\n  0x20\n    /* \"RamzSwap/TImeLockedWalletFactory.sol\":596:651  require(_percentPerClaim > 1, \"Need to be at least 1%\") */\n  0x04\n  dup3\n  add\n    /* \"#utility.yul\":677:698   */\n  mstore\n    /* \"#utility.yul\":734:736   */\n  0x16\n    /* \"#utility.yul\":714:732   */\n  0x24\n  dup3\n  add\n    /* \"#utility.yul\":707:737   */\n  mstore\n    /* \"#utility.yul\":773:797   */\n  0x4e65656420746f206265206174206c6561737420312500000000000000000000\n    /* \"#utility.yul\":753:771   */\n  0x44\n  dup3\n  add\n    /* \"#utility.yul\":746:798   */\n  mstore\n    /* \"#utility.yul\":815:833   */\n  0x64\n  add\n    /* \"RamzSwap/TImeLockedWalletFactory.sol\":596:651  require(_percentPerClaim > 1, \"Need to be at least 1%\") */\n  mload(0x40)\n  dup1\n  swap2\n  sub\n  swap1\n  revert\ntag_6:\n    /* \"RamzSwap/TImeLockedWalletFactory.sol\":661:666  owner */\n  0x00\n    /* \"RamzSwap/TImeLockedWalletFactory.sol\":661:675  owner = _owner */\n  dup1\n  sload\n  not(sub(shl(0xa0, 0x01), 0x01))\n  and\n  sub(shl(0xa0, 0x01), 0x01)\n  dup7\n  and\n  or\n  swap1\n  sstore\n    /* \"RamzSwap/TImeLockedWalletFactory.sol\":700:715  block.timestamp */\n  timestamp\n  0x01\n    /* \"RamzSwap/TImeLockedWalletFactory.sol\":685:715  creationTime = block.timestamp */\n  sstore\n    /* \"RamzSwap/TImeLockedWalletFactory.sol\":725:738  startWaitTime */\n  0x02\n    /* \"RamzSwap/TImeLockedWalletFactory.sol\":725:755  startWaitTime = _startWaitTime */\n  dup4\n  swap1\n  sstore\n    /* \"RamzSwap/TImeLockedWalletFactory.sol\":803:825  100 / _percentPerClaim */\n  tag_9\n    /* \"RamzSwap/TImeLockedWalletFactory.sol\":809:825  _percentPerClaim */\n  dup2\n    /* \"RamzSwap/TImeLockedWalletFactory.sol\":803:806  100 */\n  0x64\n    /* \"RamzSwap/TImeLockedWalletFactory.sol\":803:825  100 / _percentPerClaim */\n  tag_10\n  jump\t// in\ntag_9:\n    /* \"RamzSwap/TImeLockedWalletFactory.sol\":778:800  numberOfVestingPeriods */\n  0x04\n    /* \"RamzSwap/TImeLockedWalletFactory.sol\":778:825  numberOfVestingPeriods = 100 / _percentPerClaim */\n  sstore\n    /* \"RamzSwap/TImeLockedWalletFactory.sol\":835:856  vestingPeriodDuration */\n  0x05\n    /* \"RamzSwap/TImeLockedWalletFactory.sol\":835:881  vestingPeriodDuration = _vestingPeriodDuration */\n  swap2\n  swap1\n  swap2\n  sstore\n    /* \"RamzSwap/TImeLockedWalletFactory.sol\":904:919  percentPerClaim */\n  0x06\n    /* \"RamzSwap/TImeLockedWalletFactory.sol\":904:938  percentPerClaim = _percentPerClaim */\n  sstore\n  pop\n    /* \"RamzSwap/TImeLockedWalletFactory.sol\":57:2660  contract TimeLockedWallet {... */\n  tag_12\n  swap1\n  pop\n  jump\n    /* \"#utility.yul\":14:488   */\ntag_3:\n    /* \"#utility.yul\":111:117   */\n  0x00\n    /* \"#utility.yul\":119:125   */\n  dup1\n    /* \"#utility.yul\":127:133   */\n  0x00\n    /* \"#utility.yul\":135:141   */\n  dup1\n    /* \"#utility.yul\":188:191   */\n  0x80\n    /* \"#utility.yul\":176:185   */\n  dup6\n    /* \"#utility.yul\":167:174   */\n  dup8\n    /* \"#utility.yul\":163:186   */\n  sub\n    /* \"#utility.yul\":159:192   */\n  slt\n    /* \"#utility.yul\":156:209   */\n  iszero\n  tag_14\n  jumpi\n    /* \"#utility.yul\":205:206   */\n  0x00\n    /* \"#utility.yul\":202:203   */\n  dup1\n    /* \"#utility.yul\":195:207   */\n  revert\n    /* \"#utility.yul\":156:209   */\ntag_14:\n    /* \"#utility.yul\":231:247   */\n  dup5\n  mload\n  sub(shl(0xa0, 0x01), 0x01)\n    /* \"#utility.yul\":276:307   */\n  dup2\n  and\n    /* \"#utility.yul\":266:308   */\n  dup2\n  eq\n    /* \"#utility.yul\":256:326   */\n  tag_15\n  jumpi\n    /* \"#utility.yul\":322:323   */\n  0x00\n    /* \"#utility.yul\":319:320   */\n  dup1\n    /* \"#utility.yul\":312:324   */\n  revert\n    /* \"#utility.yul\":256:326   */\ntag_15:\n    /* \"#utility.yul\":390:392   */\n  0x20\n    /* \"#utility.yul\":375:393   */\n  dup7\n  add\n    /* \"#utility.yul\":369:394   */\n  mload\n    /* \"#utility.yul\":434:436   */\n  0x40\n    /* \"#utility.yul\":419:437   */\n  dup8\n  add\n    /* \"#utility.yul\":413:438   */\n  mload\n    /* \"#utility.yul\":478:480   */\n  0x60\n    /* \"#utility.yul\":463:481   */\n  swap1\n  swap8\n  add\n    /* \"#utility.yul\":457:482   */\n  mload\n    /* \"#utility.yul\":345:350   */\n  swap2\n  swap9\n    /* \"#utility.yul\":369:394   */\n  swap1\n  swap8\n  pop\n    /* \"#utility.yul\":457:482   */\n  swap1\n  swap5\n  pop\n    /* \"#utility.yul\":14:488   */\n  swap3\n  pop\n  pop\n  pop\n  jump\t// out\n    /* \"#utility.yul\":844:1061   */\ntag_10:\n    /* \"#utility.yul\":884:885   */\n  0x00\n    /* \"#utility.yul\":910:911   */\n  dup3\n    /* \"#utility.yul\":900:1032   */\n  tag_18\n  jumpi\n    /* \"#utility.yul\":954:964   */\n  0x4e487b71\n    /* \"#utility.yul\":949:952   */\n  0xe0\n    /* \"#utility.yul\":945:965   */\n  shl\n    /* \"#utility.yul\":942:943   */\n  0x00\n    /* \"#utility.yul\":935:966   */\n  mstore\n    /* \"#utility.yul\":989:993   */\n  0x12\n    /* \"#utility.yul\":986:987   */\n  0x04\n    /* \"#utility.yul\":979:994   */\n  mstore\n    /* \"#utility.yul\":1017:1021   */\n  0x24\n    /* \"#utility.yul\":1014:1015   */\n  0x00\n    /* \"#utility.yul\":1007:1022   */\n  revert\n    /* \"#utility.yul\":900:1032   */\ntag_18:\n  pop\n    /* \"#utility.yul\":1046:1055   */\n  div\n  swap1\n    /* \"#utility.yul\":844:1061   */\n  jump\t// out\ntag_12:\n    /* \"RamzSwap/TImeLockedWalletFactory.sol\":57:2660  contract TimeLockedWallet {... */\n  dataSize(sub_0)\n  dup1\n  dataOffset(sub_0)\n  0x00\n  codecopy\n  0x00\n  return\nstop\n\nsub_0: assembly {\n        /* \"RamzSwap/TImeLockedWalletFactory.sol\":57:2660  contract TimeLockedWallet {... */\n      mstore(0x40, 0x80)\n      jumpi(tag_1, lt(calldatasize, 0x04))\n      shr(0xe0, calldataload(0x00))\n      dup1\n      0xad7a672f\n      gt\n      tag_16\n      jumpi\n      dup1\n      0xc1b544c1\n      gt\n      tag_17\n      jumpi\n      dup1\n      0xc1b544c1\n      eq\n      tag_12\n      jumpi\n      dup1\n      0xd0e30db0\n      eq\n      tag_13\n      jumpi\n      dup1\n      0xd8270dce\n      eq\n      tag_14\n      jumpi\n      dup1\n      0xee82f3f4\n      eq\n      tag_15\n      jumpi\n      0x00\n      dup1\n      revert\n    tag_17:\n      dup1\n      0xad7a672f\n      eq\n      tag_9\n      jumpi\n      dup1\n      0xbb025a3f\n      eq\n      tag_10\n      jumpi\n      dup1\n      0xbdc608d6\n      eq\n      tag_11\n      jumpi\n      0x00\n      dup1\n      revert\n    tag_16:\n      dup1\n      0x0640d941\n      eq\n      tag_3\n      jumpi\n      dup1\n      0x4e71d92d\n      eq\n      tag_4\n      jumpi\n      dup1\n      0x5a9b0b89\n      eq\n      tag_5\n      jumpi\n      dup1\n      0x5f41e81d\n      eq\n      tag_6\n      jumpi\n      dup1\n      0x8da5cb5b\n      eq\n      tag_7\n      jumpi\n      dup1\n      0x91f3f059\n      eq\n      tag_8\n      jumpi\n      0x00\n      dup1\n      revert\n    tag_1:\n      jumpi(tag_2, calldatasize)\n        /* \"RamzSwap/TImeLockedWalletFactory.sol\":1020:1025  owner */\n      and(sub(shl(0xa0, 0x01), 0x01), sload(0x00))\n        /* \"RamzSwap/TImeLockedWalletFactory.sol\":1006:1016  msg.sender */\n      caller\n        /* \"RamzSwap/TImeLockedWalletFactory.sol\":1006:1025  msg.sender == owner */\n      eq\n        /* \"RamzSwap/TImeLockedWalletFactory.sol\":998:1052  require(msg.sender == owner, \"Only owner can deposit\") */\n      tag_20\n      jumpi\n      mload(0x40)\n      shl(0xe5, 0x461bcd)\n      dup2\n      mstore\n        /* \"#utility.yul\":216:218   */\n      0x20\n        /* \"RamzSwap/TImeLockedWalletFactory.sol\":998:1052  require(msg.sender == owner, \"Only owner can deposit\") */\n      0x04\n      dup3\n      add\n        /* \"#utility.yul\":198:219   */\n      mstore\n        /* \"#utility.yul\":255:257   */\n      0x16\n        /* \"#utility.yul\":235:253   */\n      0x24\n      dup3\n      add\n        /* \"#utility.yul\":228:258   */\n      mstore\n      shl(0x52, 0x13db9b1e481bdddb995c8818d85b8819195c1bdcda5d)\n        /* \"#utility.yul\":274:292   */\n      0x44\n      dup3\n      add\n        /* \"#utility.yul\":267:319   */\n      mstore\n        /* \"#utility.yul\":336:354   */\n      0x64\n      add\n        /* \"RamzSwap/TImeLockedWalletFactory.sol\":998:1052  require(msg.sender == owner, \"Only owner can deposit\") */\n    tag_21:\n      mload(0x40)\n      dup1\n      swap2\n      sub\n      swap1\n      revert\n    tag_20:\n        /* \"RamzSwap/TImeLockedWalletFactory.sol\":57:2660  contract TimeLockedWallet {... */\n      stop\n    tag_2:\n      0x00\n      dup1\n      revert\n        /* \"RamzSwap/TImeLockedWalletFactory.sol\":258:294  uint256 public vestingPeriodDuration */\n    tag_3:\n      callvalue\n      dup1\n      iszero\n      tag_23\n      jumpi\n      0x00\n      dup1\n      revert\n    tag_23:\n      pop\n      tag_24\n      sload(0x05)\n      dup2\n      jump\n    tag_24:\n      mload(0x40)\n        /* \"#utility.yul\":511:536   */\n      swap1\n      dup2\n      mstore\n        /* \"#utility.yul\":499:501   */\n      0x20\n        /* \"#utility.yul\":484:502   */\n      add\n        /* \"RamzSwap/TImeLockedWalletFactory.sol\":258:294  uint256 public vestingPeriodDuration */\n    tag_26:\n      mload(0x40)\n      dup1\n      swap2\n      sub\n      swap1\n      return\n        /* \"RamzSwap/TImeLockedWalletFactory.sol\":1273:2240  function claim() external {... */\n    tag_4:\n      callvalue\n      dup1\n      iszero\n      tag_28\n      jumpi\n      0x00\n      dup1\n      revert\n    tag_28:\n      pop\n      tag_20\n      tag_30\n      jump\t// in\n        /* \"RamzSwap/TImeLockedWalletFactory.sol\":2246:2658  function getInfo()... */\n    tag_5:\n      callvalue\n      dup1\n      iszero\n      tag_31\n      jumpi\n      0x00\n      dup1\n      revert\n    tag_31:\n      pop\n        /* \"RamzSwap/TImeLockedWalletFactory.sol\":2325:2332  address */\n      0x00\n        /* \"RamzSwap/TImeLockedWalletFactory.sol\":2483:2488  owner */\n      sload\n        /* \"RamzSwap/TImeLockedWalletFactory.sol\":2502:2515  startWaitTime */\n      sload(0x02)\n        /* \"RamzSwap/TImeLockedWalletFactory.sol\":2529:2551  numberOfVestingPeriods */\n      sload(0x04)\n        /* \"RamzSwap/TImeLockedWalletFactory.sol\":2565:2586  vestingPeriodDuration */\n      sload(0x05)\n        /* \"RamzSwap/TImeLockedWalletFactory.sol\":2600:2615  percentPerClaim */\n      sload(0x06)\n        /* \"RamzSwap/TImeLockedWalletFactory.sol\":2629:2641  totalBalance */\n      sload(0x03)\n        /* \"RamzSwap/TImeLockedWalletFactory.sol\":2246:2658  function getInfo()... */\n      0x40\n      dup1\n      mload\n      sub(shl(0xa0, 0x01), 0x01)\n        /* \"RamzSwap/TImeLockedWalletFactory.sol\":2483:2488  owner */\n      swap1\n      swap8\n      and\n        /* \"#utility.yul\":834:885   */\n      dup8\n      mstore\n        /* \"#utility.yul\":916:918   */\n      0x20\n        /* \"#utility.yul\":901:919   */\n      dup8\n      add\n        /* \"#utility.yul\":894:928   */\n      swap6\n      swap1\n      swap6\n      mstore\n        /* \"#utility.yul\":944:962   */\n      swap4\n      dup6\n      add\n        /* \"#utility.yul\":937:971   */\n      swap3\n      swap1\n      swap3\n      mstore\n        /* \"#utility.yul\":1002:1004   */\n      0x60\n        /* \"#utility.yul\":987:1005   */\n      dup5\n      add\n        /* \"#utility.yul\":980:1014   */\n      mstore\n        /* \"#utility.yul\":1045:1048   */\n      0x80\n        /* \"#utility.yul\":1030:1049   */\n      dup4\n      add\n        /* \"#utility.yul\":1023:1058   */\n      mstore\n        /* \"#utility.yul\":872:875   */\n      0xa0\n        /* \"#utility.yul\":1074:1093   */\n      dup3\n      add\n        /* \"#utility.yul\":1067:1102   */\n      mstore\n        /* \"#utility.yul\":821:824   */\n      0xc0\n        /* \"#utility.yul\":806:825   */\n      add\n        /* \"RamzSwap/TImeLockedWalletFactory.sol\":2246:2658  function getInfo()... */\n      tag_26\n        /* \"#utility.yul\":547:1108   */\n      jump\n        /* \"RamzSwap/TImeLockedWalletFactory.sol\":148:176  uint256 public startWaitTime */\n    tag_6:\n      callvalue\n      dup1\n      iszero\n      tag_36\n      jumpi\n      0x00\n      dup1\n      revert\n    tag_36:\n      pop\n      tag_24\n      sload(0x02)\n      dup2\n      jump\n        /* \"RamzSwap/TImeLockedWalletFactory.sol\":89:109  address public owner */\n    tag_7:\n      callvalue\n      dup1\n      iszero\n      tag_40\n      jumpi\n      0x00\n      dup1\n      revert\n    tag_40:\n      pop\n      sload(0x00)\n      tag_41\n      swap1\n      sub(shl(0xa0, 0x01), 0x01)\n      and\n      dup2\n      jump\n    tag_41:\n      mload(0x40)\n      sub(shl(0xa0, 0x01), 0x01)\n        /* \"#utility.yul\":1277:1309   */\n      swap1\n      swap2\n      and\n        /* \"#utility.yul\":1259:1310   */\n      dup2\n      mstore\n        /* \"#utility.yul\":1247:1249   */\n      0x20\n        /* \"#utility.yul\":1232:1250   */\n      add\n        /* \"RamzSwap/TImeLockedWalletFactory.sol\":89:109  address public owner */\n      tag_26\n        /* \"#utility.yul\":1113:1316   */\n      jump\n        /* \"RamzSwap/TImeLockedWalletFactory.sol\":215:252  uint256 public numberOfVestingPeriods */\n    tag_8:\n      callvalue\n      dup1\n      iszero\n      tag_45\n      jumpi\n      0x00\n      dup1\n      revert\n    tag_45:\n      pop\n      tag_24\n      sload(0x04)\n      dup2\n      jump\n        /* \"RamzSwap/TImeLockedWalletFactory.sol\":182:209  uint256 public totalBalance */\n    tag_9:\n      callvalue\n      dup1\n      iszero\n      tag_49\n      jumpi\n      0x00\n      dup1\n      revert\n    tag_49:\n      pop\n      tag_24\n      sload(0x03)\n      dup2\n      jump\n        /* \"RamzSwap/TImeLockedWalletFactory.sol\":408:431  bool public lockExpired */\n    tag_10:\n      callvalue\n      dup1\n      iszero\n      tag_53\n      jumpi\n      0x00\n      dup1\n      revert\n    tag_53:\n      pop\n      sload(0x09)\n      tag_54\n      swap1\n      0xff\n      and\n      dup2\n      jump\n    tag_54:\n      mload(0x40)\n        /* \"#utility.yul\":1486:1500   */\n      swap1\n      iszero\n        /* \"#utility.yul\":1479:1501   */\n      iszero\n        /* \"#utility.yul\":1461:1502   */\n      dup2\n      mstore\n        /* \"#utility.yul\":1449:1451   */\n      0x20\n        /* \"#utility.yul\":1434:1452   */\n      add\n        /* \"RamzSwap/TImeLockedWalletFactory.sol\":408:431  bool public lockExpired */\n      tag_26\n        /* \"#utility.yul\":1321:1508   */\n      jump\n        /* \"RamzSwap/TImeLockedWalletFactory.sol\":300:330  uint256 public percentPerClaim */\n    tag_11:\n      callvalue\n      dup1\n      iszero\n      tag_58\n      jumpi\n      0x00\n      dup1\n      revert\n    tag_58:\n      pop\n      tag_24\n      sload(0x06)\n      dup2\n      jump\n        /* \"RamzSwap/TImeLockedWalletFactory.sol\":372:401  uint256 public periodsClaimed */\n    tag_12:\n      callvalue\n      dup1\n      iszero\n      tag_62\n      jumpi\n      0x00\n      dup1\n      revert\n    tag_62:\n      pop\n      tag_24\n      sload(0x08)\n      dup2\n      jump\n        /* \"RamzSwap/TImeLockedWalletFactory.sol\":1065:1267  function deposit() external payable {... */\n    tag_13:\n      tag_20\n      tag_67\n      jump\t// in\n        /* \"RamzSwap/TImeLockedWalletFactory.sol\":115:142  uint256 public creationTime */\n    tag_14:\n      callvalue\n      dup1\n      iszero\n      tag_68\n      jumpi\n      0x00\n      dup1\n      revert\n    tag_68:\n      pop\n      tag_24\n      sload(0x01)\n      dup2\n      jump\n        /* \"RamzSwap/TImeLockedWalletFactory.sol\":337:366  uint256 public claimedBalance */\n    tag_15:\n      callvalue\n      dup1\n      iszero\n      tag_72\n      jumpi\n      0x00\n      dup1\n      revert\n    tag_72:\n      pop\n      tag_24\n      sload(0x07)\n      dup2\n      jump\n        /* \"RamzSwap/TImeLockedWalletFactory.sol\":1273:2240  function claim() external {... */\n    tag_30:\n        /* \"RamzSwap/TImeLockedWalletFactory.sol\":1331:1336  owner */\n      and(sub(shl(0xa0, 0x01), 0x01), sload(0x00))\n        /* \"RamzSwap/TImeLockedWalletFactory.sol\":1317:1327  msg.sender */\n      caller\n        /* \"RamzSwap/TImeLockedWalletFactory.sol\":1317:1336  msg.sender == owner */\n      eq\n        /* \"RamzSwap/TImeLockedWalletFactory.sol\":1309:1367  require(msg.sender == owner, \"Only owner can claim funds\") */\n      tag_77\n      jumpi\n      mload(0x40)\n      shl(0xe5, 0x461bcd)\n      dup2\n      mstore\n        /* \"#utility.yul\":1715:1717   */\n      0x20\n        /* \"RamzSwap/TImeLockedWalletFactory.sol\":1309:1367  require(msg.sender == owner, \"Only owner can claim funds\") */\n      0x04\n      dup3\n      add\n        /* \"#utility.yul\":1697:1718   */\n      mstore\n        /* \"#utility.yul\":1754:1756   */\n      0x1a\n        /* \"#utility.yul\":1734:1752   */\n      0x24\n      dup3\n      add\n        /* \"#utility.yul\":1727:1757   */\n      mstore\n        /* \"#utility.yul\":1793:1821   */\n      0x4f6e6c79206f776e65722063616e20636c61696d2066756e6473000000000000\n        /* \"#utility.yul\":1773:1791   */\n      0x44\n      dup3\n      add\n        /* \"#utility.yul\":1766:1822   */\n      mstore\n        /* \"#utility.yul\":1839:1857   */\n      0x64\n      add\n        /* \"RamzSwap/TImeLockedWalletFactory.sol\":1309:1367  require(msg.sender == owner, \"Only owner can claim funds\") */\n      tag_21\n        /* \"#utility.yul\":1513:1863   */\n      jump\n        /* \"RamzSwap/TImeLockedWalletFactory.sol\":1309:1367  require(msg.sender == owner, \"Only owner can claim funds\") */\n    tag_77:\n        /* \"RamzSwap/TImeLockedWalletFactory.sol\":1452:1473  vestingPeriodDuration */\n      sload(0x05)\n        /* \"RamzSwap/TImeLockedWalletFactory.sol\":1435:1449  periodsClaimed */\n      sload(0x08)\n        /* \"RamzSwap/TImeLockedWalletFactory.sol\":1435:1473  periodsClaimed * vestingPeriodDuration */\n      tag_80\n      swap2\n      swap1\n      tag_81\n      jump\t// in\n    tag_80:\n        /* \"RamzSwap/TImeLockedWalletFactory.sol\":1419:1432  startWaitTime */\n      sload(0x02)\n        /* \"RamzSwap/TImeLockedWalletFactory.sol\":1404:1416  creationTime */\n      sload(0x01)\n        /* \"RamzSwap/TImeLockedWalletFactory.sol\":1404:1432  creationTime + startWaitTime */\n      tag_82\n      swap2\n      swap1\n      tag_83\n      jump\t// in\n    tag_82:\n        /* \"RamzSwap/TImeLockedWalletFactory.sol\":1404:1473  creationTime + startWaitTime + periodsClaimed * vestingPeriodDuration */\n      tag_84\n      swap2\n      swap1\n      tag_83\n      jump\t// in\n    tag_84:\n        /* \"RamzSwap/TImeLockedWalletFactory.sol\":1385:1400  block.timestamp */\n      timestamp\n        /* \"RamzSwap/TImeLockedWalletFactory.sol\":1385:1473  block.timestamp >= creationTime + startWaitTime + periodsClaimed * vestingPeriodDuration */\n      lt\n      iszero\n        /* \"RamzSwap/TImeLockedWalletFactory.sol\":1377:1490  require(block.timestamp >= creationTime + startWaitTime + periodsClaimed * vestingPeriodDuration, \"Not time yet\") */\n      tag_85\n      jumpi\n      mload(0x40)\n      shl(0xe5, 0x461bcd)\n      dup2\n      mstore\n        /* \"#utility.yul\":2505:2507   */\n      0x20\n        /* \"RamzSwap/TImeLockedWalletFactory.sol\":1377:1490  require(block.timestamp >= creationTime + startWaitTime + periodsClaimed * vestingPeriodDuration, \"Not time yet\") */\n      0x04\n      dup3\n      add\n        /* \"#utility.yul\":2487:2508   */\n      mstore\n        /* \"#utility.yul\":2544:2546   */\n      0x0c\n        /* \"#utility.yul\":2524:2542   */\n      0x24\n      dup3\n      add\n        /* \"#utility.yul\":2517:2547   */\n      mstore\n      shl(0xa2, 0x139bdd081d1a5b59481e595d)\n        /* \"#utility.yul\":2563:2581   */\n      0x44\n      dup3\n      add\n        /* \"#utility.yul\":2556:2598   */\n      mstore\n        /* \"#utility.yul\":2615:2633   */\n      0x64\n      add\n        /* \"RamzSwap/TImeLockedWalletFactory.sol\":1377:1490  require(block.timestamp >= creationTime + startWaitTime + periodsClaimed * vestingPeriodDuration, \"Not time yet\") */\n      tag_21\n        /* \"#utility.yul\":2303:2639   */\n      jump\n        /* \"RamzSwap/TImeLockedWalletFactory.sol\":1377:1490  require(block.timestamp >= creationTime + startWaitTime + periodsClaimed * vestingPeriodDuration, \"Not time yet\") */\n    tag_85:\n        /* \"RamzSwap/TImeLockedWalletFactory.sol\":1509:1520  lockExpired */\n      and(0xff, sload(0x09))\n        /* \"RamzSwap/TImeLockedWalletFactory.sol\":1508:1520  !lockExpired */\n      iszero\n        /* \"RamzSwap/TImeLockedWalletFactory.sol\":1500:1550  require(!lockExpired, \"This contract has expired\") */\n      tag_88\n      jumpi\n      mload(0x40)\n      shl(0xe5, 0x461bcd)\n      dup2\n      mstore\n        /* \"#utility.yul\":2846:2848   */\n      0x20\n        /* \"RamzSwap/TImeLockedWalletFactory.sol\":1500:1550  require(!lockExpired, \"This contract has expired\") */\n      0x04\n      dup3\n      add\n        /* \"#utility.yul\":2828:2849   */\n      mstore\n        /* \"#utility.yul\":2885:2887   */\n      0x19\n        /* \"#utility.yul\":2865:2883   */\n      0x24\n      dup3\n      add\n        /* \"#utility.yul\":2858:2888   */\n      mstore\n      shl(0x3a, 0x151a1a5cc818dbdb9d1c9858dd081a185cc8195e1c1a5c9959)\n        /* \"#utility.yul\":2904:2922   */\n      0x44\n      dup3\n      add\n        /* \"#utility.yul\":2897:2952   */\n      mstore\n        /* \"#utility.yul\":2969:2987   */\n      0x64\n      add\n        /* \"RamzSwap/TImeLockedWalletFactory.sol\":1500:1550  require(!lockExpired, \"This contract has expired\") */\n      tag_21\n        /* \"#utility.yul\":2644:2993   */\n      jump\n        /* \"RamzSwap/TImeLockedWalletFactory.sol\":1500:1550  require(!lockExpired, \"This contract has expired\") */\n    tag_88:\n        /* \"RamzSwap/TImeLockedWalletFactory.sol\":1583:1595  totalBalance */\n      sload(0x03)\n        /* \"RamzSwap/TImeLockedWalletFactory.sol\":1565:1579  claimedBalance */\n      sload(0x07)\n        /* \"RamzSwap/TImeLockedWalletFactory.sol\":1565:1595  claimedBalance == totalBalance */\n      sub\n        /* \"RamzSwap/TImeLockedWalletFactory.sol\":1561:1679  if (claimedBalance == totalBalance) {... */\n      tag_91\n      jumpi\n        /* \"RamzSwap/TImeLockedWalletFactory.sol\":1611:1622  lockExpired */\n      0x09\n        /* \"RamzSwap/TImeLockedWalletFactory.sol\":1611:1629  lockExpired = true */\n      dup1\n      sload\n      not(0xff)\n      and\n        /* \"RamzSwap/TImeLockedWalletFactory.sol\":1625:1629  true */\n      0x01\n        /* \"RamzSwap/TImeLockedWalletFactory.sol\":1611:1629  lockExpired = true */\n      or\n      swap1\n      sstore\n        /* \"RamzSwap/TImeLockedWalletFactory.sol\":1643:1668  revert(\"Already claimed\") */\n      mload(0x40)\n      shl(0xe5, 0x461bcd)\n      dup2\n      mstore\n        /* \"#utility.yul\":3200:3202   */\n      0x20\n        /* \"RamzSwap/TImeLockedWalletFactory.sol\":1643:1668  revert(\"Already claimed\") */\n      0x04\n      dup3\n      add\n        /* \"#utility.yul\":3182:3203   */\n      mstore\n        /* \"#utility.yul\":3239:3241   */\n      0x0f\n        /* \"#utility.yul\":3219:3237   */\n      0x24\n      dup3\n      add\n        /* \"#utility.yul\":3212:3242   */\n      mstore\n      shl(0x8a, 0x105b1c9958591e4818db185a5b5959)\n        /* \"#utility.yul\":3258:3276   */\n      0x44\n      dup3\n      add\n        /* \"#utility.yul\":3251:3296   */\n      mstore\n        /* \"#utility.yul\":3313:3331   */\n      0x64\n      add\n        /* \"RamzSwap/TImeLockedWalletFactory.sol\":1643:1668  revert(\"Already claimed\") */\n      tag_21\n        /* \"#utility.yul\":2998:3337   */\n      jump\n        /* \"RamzSwap/TImeLockedWalletFactory.sol\":1561:1679  if (claimedBalance == totalBalance) {... */\n    tag_91:\n        /* \"RamzSwap/TImeLockedWalletFactory.sol\":1689:1712  uint256 claimableAmount */\n      0x00\n        /* \"RamzSwap/TImeLockedWalletFactory.sol\":1770:1771  1 */\n      0x01\n        /* \"RamzSwap/TImeLockedWalletFactory.sol\":1745:1767  numberOfVestingPeriods */\n      sload(0x04)\n        /* \"RamzSwap/TImeLockedWalletFactory.sol\":1745:1771  numberOfVestingPeriods - 1 */\n      tag_94\n      swap2\n      swap1\n      tag_95\n      jump\t// in\n    tag_94:\n        /* \"RamzSwap/TImeLockedWalletFactory.sol\":1727:1741  periodsClaimed */\n      sload(0x08)\n        /* \"RamzSwap/TImeLockedWalletFactory.sol\":1727:1771  periodsClaimed == numberOfVestingPeriods - 1 */\n      sub\n        /* \"RamzSwap/TImeLockedWalletFactory.sol\":1723:2032  if (periodsClaimed == numberOfVestingPeriods - 1) {... */\n      tag_96\n      jumpi\n        /* \"RamzSwap/TImeLockedWalletFactory.sol\":1899:1902  100 */\n      0x64\n        /* \"RamzSwap/TImeLockedWalletFactory.sol\":1862:1877  percentPerClaim */\n      sload(0x06)\n        /* \"RamzSwap/TImeLockedWalletFactory.sol\":1845:1859  periodsClaimed */\n      sload(0x08)\n        /* \"RamzSwap/TImeLockedWalletFactory.sol\":1845:1877  periodsClaimed * percentPerClaim */\n      tag_97\n      swap2\n      swap1\n      tag_81\n      jump\t// in\n    tag_97:\n        /* \"RamzSwap/TImeLockedWalletFactory.sol\":1838:1878  100 - (periodsClaimed * percentPerClaim) */\n      tag_98\n      swap1\n        /* \"RamzSwap/TImeLockedWalletFactory.sol\":1838:1841  100 */\n      0x64\n        /* \"RamzSwap/TImeLockedWalletFactory.sol\":1838:1878  100 - (periodsClaimed * percentPerClaim) */\n      tag_95\n      jump\t// in\n    tag_98:\n        /* \"RamzSwap/TImeLockedWalletFactory.sol\":1822:1834  totalBalance */\n      sload(0x03)\n        /* \"RamzSwap/TImeLockedWalletFactory.sol\":1822:1879  totalBalance * (100 - (periodsClaimed * percentPerClaim)) */\n      tag_99\n      swap2\n      swap1\n      tag_81\n      jump\t// in\n    tag_99:\n        /* \"RamzSwap/TImeLockedWalletFactory.sol\":1821:1902  (totalBalance * (100 - (periodsClaimed * percentPerClaim))) /... */\n      tag_100\n      swap2\n      swap1\n      tag_101\n      jump\t// in\n    tag_100:\n        /* \"RamzSwap/TImeLockedWalletFactory.sol\":1916:1927  lockExpired */\n      0x09\n        /* \"RamzSwap/TImeLockedWalletFactory.sol\":1916:1934  lockExpired = true */\n      dup1\n      sload\n      not(0xff)\n      and\n        /* \"RamzSwap/TImeLockedWalletFactory.sol\":1930:1934  true */\n      0x01\n        /* \"RamzSwap/TImeLockedWalletFactory.sol\":1916:1934  lockExpired = true */\n      or\n      swap1\n      sstore\n        /* \"RamzSwap/TImeLockedWalletFactory.sol\":1787:1902  claimableAmount =... */\n      swap1\n      pop\n        /* \"RamzSwap/TImeLockedWalletFactory.sol\":1723:2032  if (periodsClaimed == numberOfVestingPeriods - 1) {... */\n      jump(tag_102)\n    tag_96:\n        /* \"RamzSwap/TImeLockedWalletFactory.sol\":2018:2021  100 */\n      0x64\n        /* \"RamzSwap/TImeLockedWalletFactory.sol\":1999:2014  percentPerClaim */\n      sload(0x06)\n        /* \"RamzSwap/TImeLockedWalletFactory.sol\":1984:1996  totalBalance */\n      sload(0x03)\n        /* \"RamzSwap/TImeLockedWalletFactory.sol\":1984:2014  totalBalance * percentPerClaim */\n      tag_103\n      swap2\n      swap1\n      tag_81\n      jump\t// in\n    tag_103:\n        /* \"RamzSwap/TImeLockedWalletFactory.sol\":1983:2021  (totalBalance * percentPerClaim) / 100 */\n      tag_104\n      swap2\n      swap1\n      tag_101\n      jump\t// in\n    tag_104:\n        /* \"RamzSwap/TImeLockedWalletFactory.sol\":1965:2021  claimableAmount = (totalBalance * percentPerClaim) / 100 */\n      swap1\n      pop\n        /* \"RamzSwap/TImeLockedWalletFactory.sol\":1723:2032  if (periodsClaimed == numberOfVestingPeriods - 1) {... */\n    tag_102:\n        /* \"RamzSwap/TImeLockedWalletFactory.sol\":2060:2075  claimableAmount */\n      dup1\n        /* \"RamzSwap/TImeLockedWalletFactory.sol\":2042:2056  claimedBalance */\n      0x07\n      0x00\n        /* \"RamzSwap/TImeLockedWalletFactory.sol\":2042:2075  claimedBalance += claimableAmount */\n      dup3\n      dup3\n      sload\n      tag_105\n      swap2\n      swap1\n      tag_83\n      jump\t// in\n    tag_105:\n      swap1\n      swap2\n      sstore\n      pop\n      pop\n        /* \"RamzSwap/TImeLockedWalletFactory.sol\":2085:2099  periodsClaimed */\n      0x08\n        /* \"RamzSwap/TImeLockedWalletFactory.sol\":2085:2101  periodsClaimed++ */\n      dup1\n      sload\n      swap1\n        /* \"RamzSwap/TImeLockedWalletFactory.sol\":2085:2099  periodsClaimed */\n      0x00\n        /* \"RamzSwap/TImeLockedWalletFactory.sol\":2085:2101  periodsClaimed++ */\n      tag_106\n      dup4\n      tag_107\n      jump\t// in\n    tag_106:\n      swap2\n      swap1\n      pop\n      sstore\n      pop\n        /* \"RamzSwap/TImeLockedWalletFactory.sol\":2145:2160  claimableAmount */\n      dup1\n        /* \"RamzSwap/TImeLockedWalletFactory.sol\":2120:2141  address(this).balance */\n      selfbalance\n        /* \"RamzSwap/TImeLockedWalletFactory.sol\":2120:2160  address(this).balance >= claimableAmount */\n      lt\n      iszero\n        /* \"RamzSwap/TImeLockedWalletFactory.sol\":2112:2183  require(address(this).balance >= claimableAmount, \"Not enough balance\") */\n      tag_108\n      jumpi\n      mload(0x40)\n      shl(0xe5, 0x461bcd)\n      dup2\n      mstore\n        /* \"#utility.yul\":4039:4041   */\n      0x20\n        /* \"RamzSwap/TImeLockedWalletFactory.sol\":2112:2183  require(address(this).balance >= claimableAmount, \"Not enough balance\") */\n      0x04\n      dup3\n      add\n        /* \"#utility.yul\":4021:4042   */\n      mstore\n        /* \"#utility.yul\":4078:4080   */\n      0x12\n        /* \"#utility.yul\":4058:4076   */\n      0x24\n      dup3\n      add\n        /* \"#utility.yul\":4051:4081   */\n      mstore\n      shl(0x70, 0x4e6f7420656e6f7567682062616c616e6365)\n        /* \"#utility.yul\":4097:4115   */\n      0x44\n      dup3\n      add\n        /* \"#utility.yul\":4090:4138   */\n      mstore\n        /* \"#utility.yul\":4155:4173   */\n      0x64\n      add\n        /* \"RamzSwap/TImeLockedWalletFactory.sol\":2112:2183  require(address(this).balance >= claimableAmount, \"Not enough balance\") */\n      tag_21\n        /* \"#utility.yul\":3837:4179   */\n      jump\n        /* \"RamzSwap/TImeLockedWalletFactory.sol\":2112:2183  require(address(this).balance >= claimableAmount, \"Not enough balance\") */\n    tag_108:\n        /* \"RamzSwap/TImeLockedWalletFactory.sol\":2201:2206  owner */\n      0x00\n      dup1\n      sload\n        /* \"RamzSwap/TImeLockedWalletFactory.sol\":2193:2233  payable(owner).transfer(claimableAmount) */\n      mload(0x40)\n      sub(shl(0xa0, 0x01), 0x01)\n        /* \"RamzSwap/TImeLockedWalletFactory.sol\":2201:2206  owner */\n      swap1\n      swap2\n      and\n      swap2\n        /* \"RamzSwap/TImeLockedWalletFactory.sol\":2193:2233  payable(owner).transfer(claimableAmount) */\n      dup4\n      iszero\n      0x08fc\n      mul\n      swap2\n        /* \"RamzSwap/TImeLockedWalletFactory.sol\":2217:2232  claimableAmount */\n      dup5\n      swap2\n        /* \"RamzSwap/TImeLockedWalletFactory.sol\":2193:2233  payable(owner).transfer(claimableAmount) */\n      dup2\n        /* \"RamzSwap/TImeLockedWalletFactory.sol\":2201:2206  owner */\n      dup2\n        /* \"RamzSwap/TImeLockedWalletFactory.sol\":2193:2233  payable(owner).transfer(claimableAmount) */\n      dup2\n        /* \"RamzSwap/TImeLockedWalletFactory.sol\":2217:2232  claimableAmount */\n      dup6\n        /* \"RamzSwap/TImeLockedWalletFactory.sol\":2201:2206  owner */\n      dup9\n        /* \"RamzSwap/TImeLockedWalletFactory.sol\":2193:2233  payable(owner).transfer(claimableAmount) */\n      dup9\n      call\n      swap4\n      pop\n      pop\n      pop\n      pop\n      iszero\n      dup1\n      iszero\n      tag_112\n      jumpi\n      returndatasize\n      0x00\n      dup1\n      returndatacopy\n      revert(0x00, returndatasize)\n    tag_112:\n      pop\n        /* \"RamzSwap/TImeLockedWalletFactory.sol\":1299:2240  {... */\n      pop\n        /* \"RamzSwap/TImeLockedWalletFactory.sol\":1273:2240  function claim() external {... */\n      jump\t// out\n        /* \"RamzSwap/TImeLockedWalletFactory.sol\":1065:1267  function deposit() external payable {... */\n    tag_67:\n        /* \"RamzSwap/TImeLockedWalletFactory.sol\":1133:1138  owner */\n      and(sub(shl(0xa0, 0x01), 0x01), sload(0x00))\n        /* \"RamzSwap/TImeLockedWalletFactory.sol\":1119:1129  msg.sender */\n      caller\n        /* \"RamzSwap/TImeLockedWalletFactory.sol\":1119:1138  msg.sender == owner */\n      eq\n        /* \"RamzSwap/TImeLockedWalletFactory.sol\":1111:1165  require(msg.sender == owner, \"Only owner can deposit\") */\n      tag_115\n      jumpi\n      mload(0x40)\n      shl(0xe5, 0x461bcd)\n      dup2\n      mstore\n        /* \"#utility.yul\":216:218   */\n      0x20\n        /* \"RamzSwap/TImeLockedWalletFactory.sol\":1111:1165  require(msg.sender == owner, \"Only owner can deposit\") */\n      0x04\n      dup3\n      add\n        /* \"#utility.yul\":198:219   */\n      mstore\n        /* \"#utility.yul\":255:257   */\n      0x16\n        /* \"#utility.yul\":235:253   */\n      0x24\n      dup3\n      add\n        /* \"#utility.yul\":228:258   */\n      mstore\n      shl(0x52, 0x13db9b1e481bdddb995c8818d85b8819195c1bdcda5d)\n        /* \"#utility.yul\":274:292   */\n      0x44\n      dup3\n      add\n        /* \"#utility.yul\":267:319   */\n      mstore\n        /* \"#utility.yul\":336:354   */\n      0x64\n      add\n        /* \"RamzSwap/TImeLockedWalletFactory.sol\":1111:1165  require(msg.sender == owner, \"Only owner can deposit\") */\n      tag_21\n        /* \"#utility.yul\":14:360   */\n      jump\n        /* \"RamzSwap/TImeLockedWalletFactory.sol\":1111:1165  require(msg.sender == owner, \"Only owner can deposit\") */\n    tag_115:\n        /* \"RamzSwap/TImeLockedWalletFactory.sol\":1184:1195  lockExpired */\n      and(0xff, sload(0x09))\n        /* \"RamzSwap/TImeLockedWalletFactory.sol\":1183:1195  !lockExpired */\n      iszero\n        /* \"RamzSwap/TImeLockedWalletFactory.sol\":1175:1225  require(!lockExpired, \"This contract has expired\") */\n      tag_117\n      jumpi\n      mload(0x40)\n      shl(0xe5, 0x461bcd)\n      dup2\n      mstore\n        /* \"#utility.yul\":2846:2848   */\n      0x20\n        /* \"RamzSwap/TImeLockedWalletFactory.sol\":1175:1225  require(!lockExpired, \"This contract has expired\") */\n      0x04\n      dup3\n      add\n        /* \"#utility.yul\":2828:2849   */\n      mstore\n        /* \"#utility.yul\":2885:2887   */\n      0x19\n        /* \"#utility.yul\":2865:2883   */\n      0x24\n      dup3\n      add\n        /* \"#utility.yul\":2858:2888   */\n      mstore\n      shl(0x3a, 0x151a1a5cc818dbdb9d1c9858dd081a185cc8195e1c1a5c9959)\n        /* \"#utility.yul\":2904:2922   */\n      0x44\n      dup3\n      add\n        /* \"#utility.yul\":2897:2952   */\n      mstore\n        /* \"#utility.yul\":2969:2987   */\n      0x64\n      add\n        /* \"RamzSwap/TImeLockedWalletFactory.sol\":1175:1225  require(!lockExpired, \"This contract has expired\") */\n      tag_21\n        /* \"#utility.yul\":2644:2993   */\n      jump\n        /* \"RamzSwap/TImeLockedWalletFactory.sol\":1175:1225  require(!lockExpired, \"This contract has expired\") */\n    tag_117:\n        /* \"RamzSwap/TImeLockedWalletFactory.sol\":1251:1260  msg.value */\n      callvalue\n        /* \"RamzSwap/TImeLockedWalletFactory.sol\":1235:1247  totalBalance */\n      0x03\n      0x00\n        /* \"RamzSwap/TImeLockedWalletFactory.sol\":1235:1260  totalBalance += msg.value */\n      dup3\n      dup3\n      sload\n      tag_119\n      swap2\n      swap1\n      tag_83\n      jump\t// in\n    tag_119:\n      swap1\n      swap2\n      sstore\n      pop\n      pop\n        /* \"RamzSwap/TImeLockedWalletFactory.sol\":1065:1267  function deposit() external payable {... */\n      jump\t// out\n        /* \"#utility.yul\":1868:1995   */\n    tag_120:\n        /* \"#utility.yul\":1929:1939   */\n      0x4e487b71\n        /* \"#utility.yul\":1924:1927   */\n      0xe0\n        /* \"#utility.yul\":1920:1940   */\n      shl\n        /* \"#utility.yul\":1917:1918   */\n      0x00\n        /* \"#utility.yul\":1910:1941   */\n      mstore\n        /* \"#utility.yul\":1960:1964   */\n      0x11\n        /* \"#utility.yul\":1957:1958   */\n      0x04\n        /* \"#utility.yul\":1950:1965   */\n      mstore\n        /* \"#utility.yul\":1984:1988   */\n      0x24\n        /* \"#utility.yul\":1981:1982   */\n      0x00\n        /* \"#utility.yul\":1974:1989   */\n      revert\n        /* \"#utility.yul\":2000:2168   */\n    tag_81:\n        /* \"#utility.yul\":2073:2082   */\n      dup1\n      dup3\n      mul\n        /* \"#utility.yul\":2104:2113   */\n      dup2\n      iszero\n        /* \"#utility.yul\":2121:2136   */\n      dup3\n      dup3\n      div\n        /* \"#utility.yul\":2115:2137   */\n      dup5\n      eq\n        /* \"#utility.yul\":2101:2138   */\n      or\n        /* \"#utility.yul\":2091:2162   */\n      tag_131\n      jumpi\n        /* \"#utility.yul\":2142:2160   */\n      tag_131\n      tag_120\n      jump\t// in\n    tag_131:\n        /* \"#utility.yul\":2000:2168   */\n      swap3\n      swap2\n      pop\n      pop\n      jump\t// out\n        /* \"#utility.yul\":2173:2298   */\n    tag_83:\n        /* \"#utility.yul\":2238:2247   */\n      dup1\n      dup3\n      add\n        /* \"#utility.yul\":2259:2269   */\n      dup1\n      dup3\n      gt\n        /* \"#utility.yul\":2256:2292   */\n      iszero\n      tag_131\n      jumpi\n        /* \"#utility.yul\":2272:2290   */\n      tag_131\n      tag_120\n      jump\t// in\n        /* \"#utility.yul\":3342:3470   */\n    tag_95:\n        /* \"#utility.yul\":3409:3418   */\n      dup2\n      dup2\n      sub\n        /* \"#utility.yul\":3430:3441   */\n      dup2\n      dup2\n      gt\n        /* \"#utility.yul\":3427:3464   */\n      iszero\n      tag_131\n      jumpi\n        /* \"#utility.yul\":3444:3462   */\n      tag_131\n      tag_120\n      jump\t// in\n        /* \"#utility.yul\":3475:3692   */\n    tag_101:\n        /* \"#utility.yul\":3515:3516   */\n      0x00\n        /* \"#utility.yul\":3541:3542   */\n      dup3\n        /* \"#utility.yul\":3531:3663   */\n      tag_142\n      jumpi\n        /* \"#utility.yul\":3585:3595   */\n      0x4e487b71\n        /* \"#utility.yul\":3580:3583   */\n      0xe0\n        /* \"#utility.yul\":3576:3596   */\n      shl\n        /* \"#utility.yul\":3573:3574   */\n      0x00\n        /* \"#utility.yul\":3566:3597   */\n      mstore\n        /* \"#utility.yul\":3620:3624   */\n      0x12\n        /* \"#utility.yul\":3617:3618   */\n      0x04\n        /* \"#utility.yul\":3610:3625   */\n      mstore\n        /* \"#utility.yul\":3648:3652   */\n      0x24\n        /* \"#utility.yul\":3645:3646   */\n      0x00\n        /* \"#utility.yul\":3638:3653   */\n      revert\n        /* \"#utility.yul\":3531:3663   */\n    tag_142:\n      pop\n        /* \"#utility.yul\":3677:3686   */\n      div\n      swap1\n        /* \"#utility.yul\":3475:3692   */\n      jump\t// out\n        /* \"#utility.yul\":3697:3832   */\n    tag_107:\n        /* \"#utility.yul\":3736:3739   */\n      0x00\n        /* \"#utility.yul\":3757:3774   */\n      0x01\n      dup3\n      add\n        /* \"#utility.yul\":3754:3797   */\n      tag_145\n      jumpi\n        /* \"#utility.yul\":3777:3795   */\n      tag_145\n      tag_120\n      jump\t// in\n    tag_145:\n      pop\n        /* \"#utility.yul\":3824:3825   */\n      0x01\n        /* \"#utility.yul\":3813:3826   */\n      add\n      swap1\n        /* \"#utility.yul\":3697:3832   */\n      jump\t// out\n\n    auxdata: 0xa2646970667358221220e84a9de2df00f150f84d32a1a63f20740ae52847825b9199501c8d6e075f5d0564736f6c63430008110033\n}\n",
				"bytecode": {
					"linkReferences": {},
					"object": "608060405234801561001057600080fd5b5060405161081a38038061081a83398101604081905261002f916100c6565b600181116100835760405162461bcd60e51b815260206004820152601660248201527f4e65656420746f206265206174206c6561737420312500000000000000000000604482015260640160405180910390fd5b600080546001600160a01b0319166001600160a01b0386161790554260015560028390556100b2816064610111565b600455600591909155600655506101339050565b600080600080608085870312156100dc57600080fd5b84516001600160a01b03811681146100f357600080fd5b60208601516040870151606090970151919890975090945092505050565b60008261012e57634e487b7160e01b600052601260045260246000fd5b500490565b6106d8806101426000396000f3fe6080604052600436106100c65760003560e01c8063ad7a672f1161007f578063c1b544c111610059578063c1b544c114610278578063d0e30db01461028e578063d8270dce14610296578063ee82f3f4146102ac57600080fd5b8063ad7a672f14610222578063bb025a3f14610238578063bdc608d61461026257600080fd5b80630640d9411461012a5780634e71d92d146101535780635a9b0b89146101685780635f41e81d146101be5780638da5cb5b146101d457806391f3f0591461020c57600080fd5b36610125576000546001600160a01b031633146101235760405162461bcd60e51b815260206004820152601660248201527513db9b1e481bdddb995c8818d85b8819195c1bdcda5d60521b60448201526064015b60405180910390fd5b005b600080fd5b34801561013657600080fd5b5061014060055481565b6040519081526020015b60405180910390f35b34801561015f57600080fd5b506101236102c2565b34801561017457600080fd5b50600054600254600454600554600654600354604080516001600160a01b0390971687526020870195909552938501929092526060840152608083015260a082015260c00161014a565b3480156101ca57600080fd5b5061014060025481565b3480156101e057600080fd5b506000546101f4906001600160a01b031681565b6040516001600160a01b03909116815260200161014a565b34801561021857600080fd5b5061014060045481565b34801561022e57600080fd5b5061014060035481565b34801561024457600080fd5b506009546102529060ff1681565b604051901515815260200161014a565b34801561026e57600080fd5b5061014060065481565b34801561028457600080fd5b5061014060085481565b610123610553565b3480156102a257600080fd5b5061014060015481565b3480156102b857600080fd5b5061014060075481565b6000546001600160a01b0316331461031c5760405162461bcd60e51b815260206004820152601a60248201527f4f6e6c79206f776e65722063616e20636c61696d2066756e6473000000000000604482015260640161011a565b60055460085461032c9190610624565b60025460015461033c9190610641565b6103469190610641565b4210156103845760405162461bcd60e51b815260206004820152600c60248201526b139bdd081d1a5b59481e595d60a21b604482015260640161011a565b60095460ff16156103d35760405162461bcd60e51b8152602060048201526019602482015278151a1a5cc818dbdb9d1c9858dd081a185cc8195e1c1a5c9959603a1b604482015260640161011a565b60035460075403610425576009805460ff1916600117905560405162461bcd60e51b815260206004820152600f60248201526e105b1c9958591e4818db185a5b5959608a1b604482015260640161011a565b600060016004546104369190610654565b600854036104865760646006546008546104509190610624565b61045b906064610654565b6003546104689190610624565b6104729190610667565b6009805460ff1916600117905590506104a5565b60646006546003546104989190610624565b6104a29190610667565b90505b80600760008282546104b79190610641565b9091555050600880549060006104cc83610689565b9190505550804710156105165760405162461bcd60e51b81526020600482015260126024820152714e6f7420656e6f7567682062616c616e636560701b604482015260640161011a565b600080546040516001600160a01b039091169183156108fc02918491818181858888f1935050505015801561054f573d6000803e3d6000fd5b5050565b6000546001600160a01b031633146105a65760405162461bcd60e51b815260206004820152601660248201527513db9b1e481bdddb995c8818d85b8819195c1bdcda5d60521b604482015260640161011a565b60095460ff16156105f55760405162461bcd60e51b8152602060048201526019602482015278151a1a5cc818dbdb9d1c9858dd081a185cc8195e1c1a5c9959603a1b604482015260640161011a565b34600360008282546106079190610641565b9091555050565b634e487b7160e01b600052601160045260246000fd5b808202811582820484141761063b5761063b61060e565b92915050565b8082018082111561063b5761063b61060e565b8181038181111561063b5761063b61060e565b60008261068457634e487b7160e01b600052601260045260246000fd5b500490565b60006001820161069b5761069b61060e565b506001019056fea2646970667358221220e84a9de2df00f150f84d32a1a63f20740ae52847825b9199501c8d6e075f5d0564736f6c63430008110033",
					"opcodes": "PUSH1 0x80 PUSH1 0x40 MSTORE CALLVALUE DUP1 ISZERO PUSH2 0x10 JUMPI PUSH1 0x0 DUP1 REVERT JUMPDEST POP PUSH1 0x40 MLOAD PUSH2 0x81A CODESIZE SUB DUP1 PUSH2 0x81A DUP4 CODECOPY DUP2 ADD PUSH1 0x40 DUP2 SWAP1 MSTORE PUSH2 0x2F SWAP2 PUSH2 0xC6 JUMP JUMPDEST PUSH1 0x1 DUP2 GT PUSH2 0x83 JUMPI PUSH1 0x40 MLOAD PUSH3 0x461BCD PUSH1 0xE5 SHL DUP2 MSTORE PUSH1 0x20 PUSH1 0x4 DUP3 ADD MSTORE PUSH1 0x16 PUSH1 0x24 DUP3 ADD MSTORE PUSH32 0x4E65656420746F206265206174206C6561737420312500000000000000000000 PUSH1 0x44 DUP3 ADD MSTORE PUSH1 0x64 ADD PUSH1 0x40 MLOAD DUP1 SWAP2 SUB SWAP1 REVERT JUMPDEST PUSH1 0x0 DUP1 SLOAD PUSH1 0x1 PUSH1 0x1 PUSH1 0xA0 SHL SUB NOT AND PUSH1 0x1 PUSH1 0x1 PUSH1 0xA0 SHL SUB DUP7 AND OR SWAP1 SSTORE TIMESTAMP PUSH1 0x1 SSTORE PUSH1 0x2 DUP4 SWAP1 SSTORE PUSH2 0xB2 DUP2 PUSH1 0x64 PUSH2 0x111 JUMP JUMPDEST PUSH1 0x4 SSTORE PUSH1 0x5 SWAP2 SWAP1 SWAP2 SSTORE PUSH1 0x6 SSTORE POP PUSH2 0x133 SWAP1 POP JUMP JUMPDEST PUSH1 0x0 DUP1 PUSH1 0x0 DUP1 PUSH1 0x80 DUP6 DUP8 SUB SLT ISZERO PUSH2 0xDC JUMPI PUSH1 0x0 DUP1 REVERT JUMPDEST DUP5 MLOAD PUSH1 0x1 PUSH1 0x1 PUSH1 0xA0 SHL SUB DUP2 AND DUP2 EQ PUSH2 0xF3 JUMPI PUSH1 0x0 DUP1 REVERT JUMPDEST PUSH1 0x20 DUP7 ADD MLOAD PUSH1 0x40 DUP8 ADD MLOAD PUSH1 0x60 SWAP1 SWAP8 ADD MLOAD SWAP2 SWAP9 SWAP1 SWAP8 POP SWAP1 SWAP5 POP SWAP3 POP POP POP JUMP JUMPDEST PUSH1 0x0 DUP3 PUSH2 0x12E JUMPI PUSH4 0x4E487B71 PUSH1 0xE0 SHL PUSH1 0x0 MSTORE PUSH1 0x12 PUSH1 0x4 MSTORE PUSH1 0x24 PUSH1 0x0 REVERT JUMPDEST POP DIV SWAP1 JUMP JUMPDEST PUSH2 0x6D8 DUP1 PUSH2 0x142 PUSH1 0x0 CODECOPY PUSH1 0x0 RETURN INVALID PUSH1 0x80 PUSH1 0x40 MSTORE PUSH1 0x4 CALLDATASIZE LT PUSH2 0xC6 JUMPI PUSH1 0x0 CALLDATALOAD PUSH1 0xE0 SHR DUP1 PUSH4 0xAD7A672F GT PUSH2 0x7F JUMPI DUP1 PUSH4 0xC1B544C1 GT PUSH2 0x59 JUMPI DUP1 PUSH4 0xC1B544C1 EQ PUSH2 0x278 JUMPI DUP1 PUSH4 0xD0E30DB0 EQ PUSH2 0x28E JUMPI DUP1 PUSH4 0xD8270DCE EQ PUSH2 0x296 JUMPI DUP1 PUSH4 0xEE82F3F4 EQ PUSH2 0x2AC JUMPI PUSH1 0x0 DUP1 REVERT JUMPDEST DUP1 PUSH4 0xAD7A672F EQ PUSH2 0x222 JUMPI DUP1 PUSH4 0xBB025A3F EQ PUSH2 0x238 JUMPI DUP1 PUSH4 0xBDC608D6 EQ PUSH2 0x262 JUMPI PUSH1 0x0 DUP1 REVERT JUMPDEST DUP1 PUSH4 0x640D941 EQ PUSH2 0x12A JUMPI DUP1 PUSH4 0x4E71D92D EQ PUSH2 0x153 JUMPI DUP1 PUSH4 0x5A9B0B89 EQ PUSH2 0x168 JUMPI DUP1 PUSH4 0x5F41E81D EQ PUSH2 0x1BE JUMPI DUP1 PUSH4 0x8DA5CB5B EQ PUSH2 0x1D4 JUMPI DUP1 PUSH4 0x91F3F059 EQ PUSH2 0x20C JUMPI PUSH1 0x0 DUP1 REVERT JUMPDEST CALLDATASIZE PUSH2 0x125 JUMPI PUSH1 0x0 SLOAD PUSH1 0x1 PUSH1 0x1 PUSH1 0xA0 SHL SUB AND CALLER EQ PUSH2 0x123 JUMPI PUSH1 0x40 MLOAD PUSH3 0x461BCD PUSH1 0xE5 SHL DUP2 MSTORE PUSH1 0x20 PUSH1 0x4 DUP3 ADD MSTORE PUSH1 0x16 PUSH1 0x24 DUP3 ADD MSTORE PUSH22 0x13DB9B1E481BDDDB995C8818D85B8819195C1BDCDA5D PUSH1 0x52 SHL PUSH1 0x44 DUP3 ADD MSTORE PUSH1 0x64 ADD JUMPDEST PUSH1 0x40 MLOAD DUP1 SWAP2 SUB SWAP1 REVERT JUMPDEST STOP JUMPDEST PUSH1 0x0 DUP1 REVERT JUMPDEST CALLVALUE DUP1 ISZERO PUSH2 0x136 JUMPI PUSH1 0x0 DUP1 REVERT JUMPDEST POP PUSH2 0x140 PUSH1 0x5 SLOAD DUP2 JUMP JUMPDEST PUSH1 0x40 MLOAD SWAP1 DUP2 MSTORE PUSH1 0x20 ADD JUMPDEST PUSH1 0x40 MLOAD DUP1 SWAP2 SUB SWAP1 RETURN JUMPDEST CALLVALUE DUP1 ISZERO PUSH2 0x15F JUMPI PUSH1 0x0 DUP1 REVERT JUMPDEST POP PUSH2 0x123 PUSH2 0x2C2 JUMP JUMPDEST CALLVALUE DUP1 ISZERO PUSH2 0x174 JUMPI PUSH1 0x0 DUP1 REVERT JUMPDEST POP PUSH1 0x0 SLOAD PUSH1 0x2 SLOAD PUSH1 0x4 SLOAD PUSH1 0x5 SLOAD PUSH1 0x6 SLOAD PUSH1 0x3 SLOAD PUSH1 0x40 DUP1 MLOAD PUSH1 0x1 PUSH1 0x1 PUSH1 0xA0 SHL SUB SWAP1 SWAP8 AND DUP8 MSTORE PUSH1 0x20 DUP8 ADD SWAP6 SWAP1 SWAP6 MSTORE SWAP4 DUP6 ADD SWAP3 SWAP1 SWAP3 MSTORE PUSH1 0x60 DUP5 ADD MSTORE PUSH1 0x80 DUP4 ADD MSTORE PUSH1 0xA0 DUP3 ADD MSTORE PUSH1 0xC0 ADD PUSH2 0x14A JUMP JUMPDEST CALLVALUE DUP1 ISZERO PUSH2 0x1CA JUMPI PUSH1 0x0 DUP1 REVERT JUMPDEST POP PUSH2 0x140 PUSH1 0x2 SLOAD DUP2 JUMP JUMPDEST CALLVALUE DUP1 ISZERO PUSH2 0x1E0 JUMPI PUSH1 0x0 DUP1 REVERT JUMPDEST POP PUSH1 0x0 SLOAD PUSH2 0x1F4 SWAP1 PUSH1 0x1 PUSH1 0x1 PUSH1 0xA0 SHL SUB AND DUP2 JUMP JUMPDEST PUSH1 0x40 MLOAD PUSH1 0x1 PUSH1 0x1 PUSH1 0xA0 SHL SUB SWAP1 SWAP2 AND DUP2 MSTORE PUSH1 0x20 ADD PUSH2 0x14A JUMP JUMPDEST CALLVALUE DUP1 ISZERO PUSH2 0x218 JUMPI PUSH1 0x0 DUP1 REVERT JUMPDEST POP PUSH2 0x140 PUSH1 0x4 SLOAD DUP2 JUMP JUMPDEST CALLVALUE DUP1 ISZERO PUSH2 0x22E JUMPI PUSH1 0x0 DUP1 REVERT JUMPDEST POP PUSH2 0x140 PUSH1 0x3 SLOAD DUP2 JUMP JUMPDEST CALLVALUE DUP1 ISZERO PUSH2 0x244 JUMPI PUSH1 0x0 DUP1 REVERT JUMPDEST POP PUSH1 0x9 SLOAD PUSH2 0x252 SWAP1 PUSH1 0xFF AND DUP2 JUMP JUMPDEST PUSH1 0x40 MLOAD SWAP1 ISZERO ISZERO DUP2 MSTORE PUSH1 0x20 ADD PUSH2 0x14A JUMP JUMPDEST CALLVALUE DUP1 ISZERO PUSH2 0x26E JUMPI PUSH1 0x0 DUP1 REVERT JUMPDEST POP PUSH2 0x140 PUSH1 0x6 SLOAD DUP2 JUMP JUMPDEST CALLVALUE DUP1 ISZERO PUSH2 0x284 JUMPI PUSH1 0x0 DUP1 REVERT JUMPDEST POP PUSH2 0x140 PUSH1 0x8 SLOAD DUP2 JUMP JUMPDEST PUSH2 0x123 PUSH2 0x553 JUMP JUMPDEST CALLVALUE DUP1 ISZERO PUSH2 0x2A2 JUMPI PUSH1 0x0 DUP1 REVERT JUMPDEST POP PUSH2 0x140 PUSH1 0x1 SLOAD DUP2 JUMP JUMPDEST CALLVALUE DUP1 ISZERO PUSH2 0x2B8 JUMPI PUSH1 0x0 DUP1 REVERT JUMPDEST POP PUSH2 0x140 PUSH1 0x7 SLOAD DUP2 JUMP JUMPDEST PUSH1 0x0 SLOAD PUSH1 0x1 PUSH1 0x1 PUSH1 0xA0 SHL SUB AND CALLER EQ PUSH2 0x31C JUMPI PUSH1 0x40 MLOAD PUSH3 0x461BCD PUSH1 0xE5 SHL DUP2 MSTORE PUSH1 0x20 PUSH1 0x4 DUP3 ADD MSTORE PUSH1 0x1A PUSH1 0x24 DUP3 ADD MSTORE PUSH32 0x4F6E6C79206F776E65722063616E20636C61696D2066756E6473000000000000 PUSH1 0x44 DUP3 ADD MSTORE PUSH1 0x64 ADD PUSH2 0x11A JUMP JUMPDEST PUSH1 0x5 SLOAD PUSH1 0x8 SLOAD PUSH2 0x32C SWAP2 SWAP1 PUSH2 0x624 JUMP JUMPDEST PUSH1 0x2 SLOAD PUSH1 0x1 SLOAD PUSH2 0x33C SWAP2 SWAP1 PUSH2 0x641 JUMP JUMPDEST PUSH2 0x346 SWAP2 SWAP1 PUSH2 0x641 JUMP JUMPDEST TIMESTAMP LT ISZERO PUSH2 0x384 JUMPI PUSH1 0x40 MLOAD PUSH3 0x461BCD PUSH1 0xE5 SHL DUP2 MSTORE PUSH1 0x20 PUSH1 0x4 DUP3 ADD MSTORE PUSH1 0xC PUSH1 0x24 DUP3 ADD MSTORE PUSH12 0x139BDD081D1A5B59481E595D PUSH1 0xA2 SHL PUSH1 0x44 DUP3 ADD MSTORE PUSH1 0x64 ADD PUSH2 0x11A JUMP JUMPDEST PUSH1 0x9 SLOAD PUSH1 0xFF AND ISZERO PUSH2 0x3D3 JUMPI PUSH1 0x40 MLOAD PUSH3 0x461BCD PUSH1 0xE5 SHL DUP2 MSTORE PUSH1 0x20 PUSH1 0x4 DUP3 ADD MSTORE PUSH1 0x19 PUSH1 0x24 DUP3 ADD MSTORE PUSH25 0x151A1A5CC818DBDB9D1C9858DD081A185CC8195E1C1A5C9959 PUSH1 0x3A SHL PUSH1 0x44 DUP3 ADD MSTORE PUSH1 0x64 ADD PUSH2 0x11A JUMP JUMPDEST PUSH1 0x3 SLOAD PUSH1 0x7 SLOAD SUB PUSH2 0x425 JUMPI PUSH1 0x9 DUP1 SLOAD PUSH1 0xFF NOT AND PUSH1 0x1 OR SWAP1 SSTORE PUSH1 0x40 MLOAD PUSH3 0x461BCD PUSH1 0xE5 SHL DUP2 MSTORE PUSH1 0x20 PUSH1 0x4 DUP3 ADD MSTORE PUSH1 0xF PUSH1 0x24 DUP3 ADD MSTORE PUSH15 0x105B1C9958591E4818DB185A5B5959 PUSH1 0x8A SHL PUSH1 0x44 DUP3 ADD MSTORE PUSH1 0x64 ADD PUSH2 0x11A JUMP JUMPDEST PUSH1 0x0 PUSH1 0x1 PUSH1 0x4 SLOAD PUSH2 0x436 SWAP2 SWAP1 PUSH2 0x654 JUMP JUMPDEST PUSH1 0x8 SLOAD SUB PUSH2 0x486 JUMPI PUSH1 0x64 PUSH1 0x6 SLOAD PUSH1 0x8 SLOAD PUSH2 0x450 SWAP2 SWAP1 PUSH2 0x624 JUMP JUMPDEST PUSH2 0x45B SWAP1 PUSH1 0x64 PUSH2 0x654 JUMP JUMPDEST PUSH1 0x3 SLOAD PUSH2 0x468 SWAP2 SWAP1 PUSH2 0x624 JUMP JUMPDEST PUSH2 0x472 SWAP2 SWAP1 PUSH2 0x667 JUMP JUMPDEST PUSH1 0x9 DUP1 SLOAD PUSH1 0xFF NOT AND PUSH1 0x1 OR SWAP1 SSTORE SWAP1 POP PUSH2 0x4A5 JUMP JUMPDEST PUSH1 0x64 PUSH1 0x6 SLOAD PUSH1 0x3 SLOAD PUSH2 0x498 SWAP2 SWAP1 PUSH2 0x624 JUMP JUMPDEST PUSH2 0x4A2 SWAP2 SWAP1 PUSH2 0x667 JUMP JUMPDEST SWAP1 POP JUMPDEST DUP1 PUSH1 0x7 PUSH1 0x0 DUP3 DUP3 SLOAD PUSH2 0x4B7 SWAP2 SWAP1 PUSH2 0x641 JUMP JUMPDEST SWAP1 SWAP2 SSTORE POP POP PUSH1 0x8 DUP1 SLOAD SWAP1 PUSH1 0x0 PUSH2 0x4CC DUP4 PUSH2 0x689 JUMP JUMPDEST SWAP2 SWAP1 POP SSTORE POP DUP1 SELFBALANCE LT ISZERO PUSH2 0x516 JUMPI PUSH1 0x40 MLOAD PUSH3 0x461BCD PUSH1 0xE5 SHL DUP2 MSTORE PUSH1 0x20 PUSH1 0x4 DUP3 ADD MSTORE PUSH1 0x12 PUSH1 0x24 DUP3 ADD MSTORE PUSH18 0x4E6F7420656E6F7567682062616C616E6365 PUSH1 0x70 SHL PUSH1 0x44 DUP3 ADD MSTORE PUSH1 0x64 ADD PUSH2 0x11A JUMP JUMPDEST PUSH1 0x0 DUP1 SLOAD PUSH1 0x40 MLOAD PUSH1 0x1 PUSH1 0x1 PUSH1 0xA0 SHL SUB SWAP1 SWAP2 AND SWAP2 DUP4 ISZERO PUSH2 0x8FC MUL SWAP2 DUP5 SWAP2 DUP2 DUP2 DUP2 DUP6 DUP9 DUP9 CALL SWAP4 POP POP POP POP ISZERO DUP1 ISZERO PUSH2 0x54F JUMPI RETURNDATASIZE PUSH1 0x0 DUP1 RETURNDATACOPY RETURNDATASIZE PUSH1 0x0 REVERT JUMPDEST POP POP JUMP JUMPDEST PUSH1 0x0 SLOAD PUSH1 0x1 PUSH1 0x1 PUSH1 0xA0 SHL SUB AND CALLER EQ PUSH2 0x5A6 JUMPI PUSH1 0x40 MLOAD PUSH3 0x461BCD PUSH1 0xE5 SHL DUP2 MSTORE PUSH1 0x20 PUSH1 0x4 DUP3 ADD MSTORE PUSH1 0x16 PUSH1 0x24 DUP3 ADD MSTORE PUSH22 0x13DB9B1E481BDDDB995C8818D85B8819195C1BDCDA5D PUSH1 0x52 SHL PUSH1 0x44 DUP3 ADD MSTORE PUSH1 0x64 ADD PUSH2 0x11A JUMP JUMPDEST PUSH1 0x9 SLOAD PUSH1 0xFF AND ISZERO PUSH2 0x5F5 JUMPI PUSH1 0x40 MLOAD PUSH3 0x461BCD PUSH1 0xE5 SHL DUP2 MSTORE PUSH1 0x20 PUSH1 0x4 DUP3 ADD MSTORE PUSH1 0x19 PUSH1 0x24 DUP3 ADD MSTORE PUSH25 0x151A1A5CC818DBDB9D1C9858DD081A185CC8195E1C1A5C9959 PUSH1 0x3A SHL PUSH1 0x44 DUP3 ADD MSTORE PUSH1 0x64 ADD PUSH2 0x11A JUMP JUMPDEST CALLVALUE PUSH1 0x3 PUSH1 0x0 DUP3 DUP3 SLOAD PUSH2 0x607 SWAP2 SWAP1 PUSH2 0x641 JUMP JUMPDEST SWAP1 SWAP2 SSTORE POP POP JUMP JUMPDEST PUSH4 0x4E487B71 PUSH1 0xE0 SHL PUSH1 0x0 MSTORE PUSH1 0x11 PUSH1 0x4 MSTORE PUSH1 0x24 PUSH1 0x0 REVERT JUMPDEST DUP1 DUP3 MUL DUP2 ISZERO DUP3 DUP3 DIV DUP5 EQ OR PUSH2 0x63B JUMPI PUSH2 0x63B PUSH2 0x60E JUMP JUMPDEST SWAP3 SWAP2 POP POP JUMP JUMPDEST DUP1 DUP3 ADD DUP1 DUP3 GT ISZERO PUSH2 0x63B JUMPI PUSH2 0x63B PUSH2 0x60E JUMP JUMPDEST DUP2 DUP2 SUB DUP2 DUP2 GT ISZERO PUSH2 0x63B JUMPI PUSH2 0x63B PUSH2 0x60E JUMP JUMPDEST PUSH1 0x0 DUP3 PUSH2 0x684 JUMPI PUSH4 0x4E487B71 PUSH1 0xE0 SHL PUSH1 0x0 MSTORE PUSH1 0x12 PUSH1 0x4 MSTORE PUSH1 0x24 PUSH1 0x0 REVERT JUMPDEST POP DIV SWAP1 JUMP JUMPDEST PUSH1 0x0 PUSH1 0x1 DUP3 ADD PUSH2 0x69B JUMPI PUSH2 0x69B PUSH2 0x60E JUMP JUMPDEST POP PUSH1 0x1 ADD SWAP1 JUMP INVALID LOG2 PUSH5 0x6970667358 0x22 SLT KECCAK256 0xE8 0x4A SWAP14 0xE2 0xDF STOP CALL POP 0xF8 0x4D ORIGIN LOG1 0xA6 EXTCODEHASH KECCAK256 PUSH21 0xAE52847825B9199501C8D6E075F5D0564736F6C63 NUMBER STOP ADDMOD GT STOP CALLER "
				},
				"gasEstimates": {
					"creation": {
						"codeDepositCost": "350400",
						"executionCost": "infinite",
						"totalCost": "infinite"
					},
					"external": {
						"claim()": "infinite",
						"claimedBalance()": "2372",
						"creationTime()": "2350",
						"deposit()": "28729",
						"getInfo()": "12957",
						"lockExpired()": "2355",
						"numberOfVestingPeriods()": "2395",
						"owner()": "2426",
						"percentPerClaim()": "2351",
						"periodsClaimed()": "2306",
						"startWaitTime()": "2351",
						"totalBalance()": "2307",
						"vestingPeriodDuration()": "2285"
					}
				},
				"methodIdentifiers": {
					"claim()": "4e71d92d",
					"claimedBalance()": "ee82f3f4",
					"creationTime()": "d8270dce",
					"deposit()": "d0e30db0",
					"getInfo()": "5a9b0b89",
					"lockExpired()": "bb025a3f",
					"numberOfVestingPeriods()": "91f3f059",
					"owner()": "8da5cb5b",
					"percentPerClaim()": "bdc608d6",
					"periodsClaimed()": "c1b544c1",
					"startWaitTime()": "5f41e81d",
					"totalBalance()": "ad7a672f",
					"vestingPeriodDuration()": "0640d941"
				}
			},
			"storageLayout": {
				"storage": [
					{
						"astId": 3,
						"contract": "RamzSwap/TImeLockedWalletFactory.sol:TimeLockedWallet",
						"label": "owner",
						"offset": 0,
						"slot": "0",
						"type": "t_address"
					},
					{
						"astId": 5,
						"contract": "RamzSwap/TImeLockedWalletFactory.sol:TimeLockedWallet",
						"label": "creationTime",
						"offset": 0,
						"slot": "1",
						"type": "t_uint256"
					},
					{
						"astId": 7,
						"contract": "RamzSwap/TImeLockedWalletFactory.sol:TimeLockedWallet",
						"label": "startWaitTime",
						"offset": 0,
						"slot": "2",
						"type": "t_uint256"
					},
					{
						"astId": 9,
						"contract": "RamzSwap/TImeLockedWalletFactory.sol:TimeLockedWallet",
						"label": "totalBalance",
						"offset": 0,
						"slot": "3",
						"type": "t_uint256"
					},
					{
						"astId": 11,
						"contract": "RamzSwap/TImeLockedWalletFactory.sol:TimeLockedWallet",
						"label": "numberOfVestingPeriods",
						"offset": 0,
						"slot": "4",
						"type": "t_uint256"
					},
					{
						"astId": 13,
						"contract": "RamzSwap/TImeLockedWalletFactory.sol:TimeLockedWallet",
						"label": "vestingPeriodDuration",
						"offset": 0,
						"slot": "5",
						"type": "t_uint256"
					},
					{
						"astId": 15,
						"contract": "RamzSwap/TImeLockedWalletFactory.sol:TimeLockedWallet",
						"label": "percentPerClaim",
						"offset": 0,
						"slot": "6",
						"type": "t_uint256"
					},
					{
						"astId": 17,
						"contract": "RamzSwap/TImeLockedWalletFactory.sol:TimeLockedWallet",
						"label": "claimedBalance",
						"offset": 0,
						"slot": "7",
						"type": "t_uint256"
					},
					{
						"astId": 19,
						"contract": "RamzSwap/TImeLockedWalletFactory.sol:TimeLockedWallet",
						"label": "periodsClaimed",
						"offset": 0,
						"slot": "8",
						"type": "t_uint256"
					},
					{
						"astId": 21,
						"contract": "RamzSwap/TImeLockedWalletFactory.sol:TimeLockedWallet",
						"label": "lockExpired",
						"offset": 0,
						"slot": "9",
						"type": "t_bool"
					}
				],
				"types": {
					"t_address": {
						"encoding": "inplace",
						"label": "address",
						"numberOfBytes": "20"
					},
					"t_bool": {
						"encoding": "inplace",
						"label": "bool",
						"numberOfBytes": "1"
					},
					"t_uint256": {
						"encoding": "inplace",
						"label": "uint256",
						"numberOfBytes": "32"
					}
				}
			},
			"userdoc": {
				"kind": "user",
				"methods": {},
				"version": 1
			}
		}
	}
}