{
	"RamzSwap/TImeLockedWalletFactory.sol": {
		"TimeLockedWalletFactory": {
			"abi": [
				{
					"anonymous": false,
					"inputs": [
						{
							"indexed": false,
							"internalType": "address",
							"name": "owner",
							"type": "address"
						},
						{
							"indexed": false,
							"internalType": "address",
							"name": "newWallet",
							"type": "address"
						},
						{
							"indexed": false,
							"internalType": "uint256",
							"name": "startWaitTime",
							"type": "uint256"
						},
						{
							"indexed": false,
							"internalType": "uint256",
							"name": "vestingDuration",
							"type": "uint256"
						},
						{
							"indexed": false,
							"internalType": "uint256",
							"name": "percentPerClaim",
							"type": "uint256"
						}
					],
					"name": "WalletCreated",
					"type": "event"
				},
				{
					"inputs": [
						{
							"internalType": "uint256",
							"name": "_startWaitTime",
							"type": "uint256"
						},
						{
							"internalType": "uint256",
							"name": "_vestingPeriodDuration",
							"type": "uint256"
						},
						{
							"internalType": "uint256",
							"name": "_percentPerClaim",
							"type": "uint256"
						}
					],
					"name": "createTimeLockedWallet",
					"outputs": [],
					"stateMutability": "nonpayable",
					"type": "function"
				},
				{
					"inputs": [],
					"name": "currentWalletId",
					"outputs": [
						{
							"internalType": "uint256",
							"name": "",
							"type": "uint256"
						}
					],
					"stateMutability": "view",
					"type": "function"
				},
				{
					"inputs": [
						{
							"internalType": "address",
							"name": "_user",
							"type": "address"
						}
					],
					"name": "getWallets",
					"outputs": [
						{
							"internalType": "address[]",
							"name": "",
							"type": "address[]"
						}
					],
					"stateMutability": "view",
					"type": "function"
				},
				{
					"inputs": [
						{
							"internalType": "uint256",
							"name": "",
							"type": "uint256"
						}
					],
					"name": "timeLockedWallets",
					"outputs": [
						{
							"internalType": "address",
							"name": "",
							"type": "address"
						}
					],
					"stateMutability": "view",
					"type": "function"
				},
				{
					"inputs": [
						{
							"internalType": "address",
							"name": "",
							"type": "address"
						},
						{
							"internalType": "uint256",
							"name": "",
							"type": "uint256"
						}
					],
					"name": "userWallets",
					"outputs": [
						{
							"internalType": "address",
							"name": "",
							"type": "address"
						}
					],
					"stateMutability": "view",
					"type": "function"
				}
			],
			"devdoc": {
				"kind": "dev",
				"methods": {},
				"version": 1
			},
			"evm": {
				"assembly": "    /* \"RamzSwap/TImeLockedWalletFactory.sol\":2662:3839  contract TimeLockedWalletFactory {... */\n  mstore(0x40, 0x80)\n  callvalue\n  dup1\n  iszero\n  tag_1\n  jumpi\n  0x00\n  dup1\n  revert\ntag_1:\n  pop\n  dataSize(sub_0)\n  dup1\n  dataOffset(sub_0)\n  0x00\n  codecopy\n  0x00\n  return\nstop\n\nsub_0: assembly {\n        /* \"RamzSwap/TImeLockedWalletFactory.sol\":2662:3839  contract TimeLockedWalletFactory {... */\n      mstore(0x40, 0x80)\n      callvalue\n      dup1\n      iszero\n      tag_1\n      jumpi\n      0x00\n      dup1\n      revert\n    tag_1:\n      pop\n      jumpi(tag_2, lt(calldatasize, 0x04))\n      shr(0xe0, calldataload(0x00))\n      dup1\n      0x0155e098\n      eq\n      tag_3\n      jumpi\n      dup1\n      0x422c29a4\n      eq\n      tag_4\n      jumpi\n      dup1\n      0x449a4762\n      eq\n      tag_5\n      jumpi\n      dup1\n      0x9d025485\n      eq\n      tag_6\n      jumpi\n      dup1\n      0xd25739e8\n      eq\n      tag_7\n      jumpi\n    tag_2:\n      0x00\n      dup1\n      revert\n        /* \"RamzSwap/TImeLockedWalletFactory.sol\":2738:2786  mapping(address => address[]) public userWallets */\n    tag_3:\n      tag_8\n      tag_9\n      calldatasize\n      0x04\n      tag_10\n      jump\t// in\n    tag_9:\n      tag_11\n      jump\t// in\n    tag_8:\n      mload(0x40)\n      sub(shl(0xa0, 0x01), 0x01)\n        /* \"#utility.yul\":615:647   */\n      swap1\n      swap2\n      and\n        /* \"#utility.yul\":597:648   */\n      dup2\n      mstore\n        /* \"#utility.yul\":585:587   */\n      0x20\n        /* \"#utility.yul\":570:588   */\n      add\n        /* \"RamzSwap/TImeLockedWalletFactory.sol\":2738:2786  mapping(address => address[]) public userWallets */\n    tag_12:\n      mload(0x40)\n      dup1\n      swap2\n      sub\n      swap1\n      return\n        /* \"RamzSwap/TImeLockedWalletFactory.sol\":3031:3147  function getWallets(address _user) public view returns (address[] memory) {... */\n    tag_4:\n      tag_14\n      tag_15\n      calldatasize\n      0x04\n      tag_16\n      jump\t// in\n    tag_15:\n      tag_17\n      jump\t// in\n    tag_14:\n      mload(0x40)\n      tag_12\n      swap2\n      swap1\n      tag_19\n      jump\t// in\n        /* \"RamzSwap/TImeLockedWalletFactory.sol\":3153:3837  function createTimeLockedWallet(... */\n    tag_5:\n      tag_20\n      tag_21\n      calldatasize\n      0x04\n      tag_22\n      jump\t// in\n    tag_21:\n      tag_23\n      jump\t// in\n    tag_20:\n      stop\n        /* \"RamzSwap/TImeLockedWalletFactory.sol\":2701:2731  uint256 public currentWalletId */\n    tag_6:\n      tag_24\n      sload(0x00)\n      dup2\n      jump\n    tag_24:\n      mload(0x40)\n        /* \"#utility.yul\":1980:2005   */\n      swap1\n      dup2\n      mstore\n        /* \"#utility.yul\":1968:1970   */\n      0x20\n        /* \"#utility.yul\":1953:1971   */\n      add\n        /* \"RamzSwap/TImeLockedWalletFactory.sol\":2701:2731  uint256 public currentWalletId */\n      tag_12\n        /* \"#utility.yul\":1834:2011   */\n      jump\n        /* \"RamzSwap/TImeLockedWalletFactory.sol\":2793:2845  mapping(uint256 => address) public timeLockedWallets */\n    tag_7:\n      tag_8\n      tag_29\n      calldatasize\n      0x04\n      tag_30\n      jump\t// in\n    tag_29:\n      mstore(0x20, 0x02)\n      0x00\n      swap1\n      dup2\n      mstore\n      0x40\n      swap1\n      keccak256\n      sload\n      sub(shl(0xa0, 0x01), 0x01)\n      and\n      dup2\n      jump\n        /* \"RamzSwap/TImeLockedWalletFactory.sol\":2738:2786  mapping(address => address[]) public userWallets */\n    tag_11:\n      mstore(0x20, 0x01)\n      dup2\n      0x00\n      mstore\n      keccak256(0x00, 0x40)\n      dup2\n      dup2\n      sload\n      dup2\n      lt\n      tag_33\n      jumpi\n      0x00\n      dup1\n      revert\n    tag_33:\n      0x00\n      swap2\n      dup3\n      mstore\n      0x20\n      swap1\n      swap2\n      keccak256\n      add\n      sload\n      sub(shl(0xa0, 0x01), 0x01)\n      and\n      swap2\n      pop\n      dup3\n      swap1\n      pop\n      jump\t// out\n        /* \"RamzSwap/TImeLockedWalletFactory.sol\":3031:3147  function getWallets(address _user) public view returns (address[] memory) {... */\n    tag_17:\n      sub(shl(0xa0, 0x01), 0x01)\n        /* \"RamzSwap/TImeLockedWalletFactory.sol\":3122:3140  userWallets[_user] */\n      dup2\n      and\n      0x00\n      swap1\n      dup2\n      mstore\n        /* \"RamzSwap/TImeLockedWalletFactory.sol\":3122:3133  userWallets */\n      0x01\n        /* \"RamzSwap/TImeLockedWalletFactory.sol\":3122:3140  userWallets[_user] */\n      0x20\n      swap1\n      dup2\n      mstore\n      0x40\n      swap2\n      dup3\n      swap1\n      keccak256\n        /* \"RamzSwap/TImeLockedWalletFactory.sol\":3115:3140  return userWallets[_user] */\n      dup1\n      sload\n      dup4\n      mload\n      dup2\n      dup5\n      mul\n      dup2\n      add\n      dup5\n      add\n      swap1\n      swap5\n      mstore\n      dup1\n      dup5\n      mstore\n        /* \"RamzSwap/TImeLockedWalletFactory.sol\":3087:3103  address[] memory */\n      0x60\n      swap4\n        /* \"RamzSwap/TImeLockedWalletFactory.sol\":3115:3140  return userWallets[_user] */\n      swap3\n      dup4\n      add\n        /* \"RamzSwap/TImeLockedWalletFactory.sol\":3122:3140  userWallets[_user] */\n      dup3\n        /* \"RamzSwap/TImeLockedWalletFactory.sol\":3115:3140  return userWallets[_user] */\n      dup3\n      dup1\n      iszero\n      tag_36\n      jumpi\n      0x20\n      mul\n      dup3\n      add\n      swap2\n      swap1\n      0x00\n      mstore\n      keccak256(0x00, 0x20)\n      swap1\n    tag_37:\n      dup2\n      sload\n      sub(shl(0xa0, 0x01), 0x01)\n      and\n      dup2\n      mstore\n      0x01\n      swap1\n      swap2\n      add\n      swap1\n      0x20\n      add\n      dup1\n      dup4\n      gt\n      tag_37\n      jumpi\n    tag_36:\n      pop\n      pop\n      pop\n      pop\n      pop\n      swap1\n      pop\n        /* \"RamzSwap/TImeLockedWalletFactory.sol\":3031:3147  function getWallets(address _user) public view returns (address[] memory) {... */\n      swap2\n      swap1\n      pop\n      jump\t// out\n        /* \"RamzSwap/TImeLockedWalletFactory.sol\":3153:3837  function createTimeLockedWallet(... */\n    tag_23:\n        /* \"RamzSwap/TImeLockedWalletFactory.sol\":3314:3340  TimeLockedWallet newWallet */\n      0x00\n        /* \"RamzSwap/TImeLockedWalletFactory.sol\":3377:3387  msg.sender */\n      caller\n        /* \"RamzSwap/TImeLockedWalletFactory.sol\":3401:3415  _startWaitTime */\n      dup5\n        /* \"RamzSwap/TImeLockedWalletFactory.sol\":3429:3451  _vestingPeriodDuration */\n      dup5\n        /* \"RamzSwap/TImeLockedWalletFactory.sol\":3465:3481  _percentPerClaim */\n      dup5\n        /* \"RamzSwap/TImeLockedWalletFactory.sol\":3343:3491  new TimeLockedWallet(... */\n      mload(0x40)\n      tag_39\n      swap1\n      tag_40\n      jump\t// in\n    tag_39:\n      sub(shl(0xa0, 0x01), 0x01)\n        /* \"#utility.yul\":2450:2482   */\n      swap1\n      swap5\n      and\n        /* \"#utility.yul\":2432:2483   */\n      dup5\n      mstore\n        /* \"#utility.yul\":2514:2516   */\n      0x20\n        /* \"#utility.yul\":2499:2517   */\n      dup5\n      add\n        /* \"#utility.yul\":2492:2526   */\n      swap3\n      swap1\n      swap3\n      mstore\n        /* \"#utility.yul\":2557:2559   */\n      0x40\n        /* \"#utility.yul\":2542:2560   */\n      dup4\n      add\n        /* \"#utility.yul\":2535:2569   */\n      mstore\n        /* \"#utility.yul\":2600:2602   */\n      0x60\n        /* \"#utility.yul\":2585:2603   */\n      dup3\n      add\n        /* \"#utility.yul\":2578:2612   */\n      mstore\n        /* \"#utility.yul\":2419:2422   */\n      0x80\n        /* \"#utility.yul\":2404:2423   */\n      add\n        /* \"RamzSwap/TImeLockedWalletFactory.sol\":3343:3491  new TimeLockedWallet(... */\n      mload(0x40)\n      dup1\n      swap2\n      sub\n      swap1\n      0x00\n      create\n      dup1\n      iszero\n      dup1\n      iszero\n      tag_43\n      jumpi\n      returndatasize\n      0x00\n      dup1\n      returndatacopy\n      revert(0x00, returndatasize)\n    tag_43:\n      pop\n        /* \"RamzSwap/TImeLockedWalletFactory.sol\":3513:3523  msg.sender */\n      caller\n        /* \"RamzSwap/TImeLockedWalletFactory.sol\":3501:3524  userWallets[msg.sender] */\n      0x00\n      swap1\n      dup2\n      mstore\n        /* \"RamzSwap/TImeLockedWalletFactory.sol\":3501:3512  userWallets */\n      0x01\n        /* \"RamzSwap/TImeLockedWalletFactory.sol\":3501:3524  userWallets[msg.sender] */\n      0x20\n      dup2\n      dup2\n      mstore\n      0x40\n      dup4\n      keccak256\n        /* \"RamzSwap/TImeLockedWalletFactory.sol\":3501:3549  userWallets[msg.sender].push(address(newWallet)) */\n      dup1\n      sload\n      swap3\n      dup4\n      add\n      dup2\n      sstore\n      dup4\n      mstore\n      dup3\n      keccak256\n      add\n      dup1\n      sload\n      not(sub(shl(0xa0, 0x01), 0x01))\n      and\n      sub(shl(0xa0, 0x01), 0x01)\n      dup5\n      and\n      or\n      swap1\n      sstore\n        /* \"RamzSwap/TImeLockedWalletFactory.sol\":3559:3576  currentWalletId++ */\n      dup1\n      sload\n        /* \"RamzSwap/TImeLockedWalletFactory.sol\":3501:3549  userWallets[msg.sender].push(address(newWallet)) */\n      swap2\n      swap3\n      pop\n        /* \"RamzSwap/TImeLockedWalletFactory.sol\":3501:3524  userWallets[msg.sender] */\n      dup1\n        /* \"RamzSwap/TImeLockedWalletFactory.sol\":3559:3576  currentWalletId++ */\n      tag_45\n      dup4\n      tag_46\n      jump\t// in\n    tag_45:\n      swap1\n      swap2\n      sstore\n      pop\n      pop\n        /* \"RamzSwap/TImeLockedWalletFactory.sol\":3586:3620  timeLockedWallets[currentWalletId] */\n      0x00\n        /* \"RamzSwap/TImeLockedWalletFactory.sol\":3604:3619  currentWalletId */\n      dup1\n      sload\n        /* \"RamzSwap/TImeLockedWalletFactory.sol\":3586:3620  timeLockedWallets[currentWalletId] */\n      dup2\n      mstore\n        /* \"RamzSwap/TImeLockedWalletFactory.sol\":3586:3603  timeLockedWallets */\n      0x02\n        /* \"RamzSwap/TImeLockedWalletFactory.sol\":3586:3620  timeLockedWallets[currentWalletId] */\n      0x20\n      swap1\n      dup2\n      mstore\n      0x40\n      swap2\n      dup3\n      swap1\n      keccak256\n        /* \"RamzSwap/TImeLockedWalletFactory.sol\":3586:3641  timeLockedWallets[currentWalletId] = address(newWallet) */\n      dup1\n      sload\n      not(sub(shl(0xa0, 0x01), 0x01))\n      and\n      sub(shl(0xa0, 0x01), 0x01)\n      dup6\n      and\n      swap1\n      dup2\n      or\n      swap1\n      swap2\n      sstore\n        /* \"RamzSwap/TImeLockedWalletFactory.sol\":3657:3830  WalletCreated(... */\n      dup3\n      mload\n        /* \"RamzSwap/TImeLockedWalletFactory.sol\":3684:3694  msg.sender */\n      caller\n        /* \"#utility.yul\":3157:3191   */\n      dup2\n      mstore\n        /* \"#utility.yul\":3207:3225   */\n      swap2\n      dup3\n      add\n        /* \"#utility.yul\":3200:3243   */\n      mstore\n        /* \"#utility.yul\":3259:3277   */\n      swap1\n      dup2\n      add\n        /* \"#utility.yul\":3252:3286   */\n      dup6\n      swap1\n      mstore\n        /* \"#utility.yul\":3317:3319   */\n      0x60\n        /* \"#utility.yul\":3302:3320   */\n      dup2\n      add\n        /* \"#utility.yul\":3295:3329   */\n      dup5\n      swap1\n      mstore\n        /* \"#utility.yul\":3360:3363   */\n      0x80\n        /* \"#utility.yul\":3345:3364   */\n      dup2\n      add\n        /* \"#utility.yul\":3338:3373   */\n      dup4\n      swap1\n      mstore\n        /* \"RamzSwap/TImeLockedWalletFactory.sol\":3657:3830  WalletCreated(... */\n      0x288a9688990049230568e550fa1be867231c9ae905a829db998fc0dcf223b88a\n      swap1\n        /* \"#utility.yul\":3106:3109   */\n      0xa0\n        /* \"#utility.yul\":3091:3110   */\n      add\n        /* \"RamzSwap/TImeLockedWalletFactory.sol\":3657:3830  WalletCreated(... */\n      mload(0x40)\n      dup1\n      swap2\n      sub\n      swap1\n      log1\n        /* \"RamzSwap/TImeLockedWalletFactory.sol\":3304:3837  {... */\n      pop\n        /* \"RamzSwap/TImeLockedWalletFactory.sol\":3153:3837  function createTimeLockedWallet(... */\n      pop\n      pop\n      pop\n      jump\t// out\n    tag_40:\n      dataSize(sub_0)\n      dup1\n      dataOffset(sub_0)\n      dup4\n      codecopy\n      add\n      swap1\n      jump\t// out\n        /* \"#utility.yul\":14:187   */\n    tag_49:\n        /* \"#utility.yul\":82:102   */\n      dup1\n      calldataload\n      sub(shl(0xa0, 0x01), 0x01)\n        /* \"#utility.yul\":131:162   */\n      dup2\n      and\n        /* \"#utility.yul\":121:163   */\n      dup2\n      eq\n        /* \"#utility.yul\":111:181   */\n      tag_52\n      jumpi\n        /* \"#utility.yul\":177:178   */\n      0x00\n        /* \"#utility.yul\":174:175   */\n      dup1\n        /* \"#utility.yul\":167:179   */\n      revert\n        /* \"#utility.yul\":111:181   */\n    tag_52:\n        /* \"#utility.yul\":14:187   */\n      swap2\n      swap1\n      pop\n      jump\t// out\n        /* \"#utility.yul\":192:446   */\n    tag_10:\n        /* \"#utility.yul\":260:266   */\n      0x00\n        /* \"#utility.yul\":268:274   */\n      dup1\n        /* \"#utility.yul\":321:323   */\n      0x40\n        /* \"#utility.yul\":309:318   */\n      dup4\n        /* \"#utility.yul\":300:307   */\n      dup6\n        /* \"#utility.yul\":296:319   */\n      sub\n        /* \"#utility.yul\":292:324   */\n      slt\n        /* \"#utility.yul\":289:341   */\n      iszero\n      tag_54\n      jumpi\n        /* \"#utility.yul\":337:338   */\n      0x00\n        /* \"#utility.yul\":334:335   */\n      dup1\n        /* \"#utility.yul\":327:339   */\n      revert\n        /* \"#utility.yul\":289:341   */\n    tag_54:\n        /* \"#utility.yul\":360:389   */\n      tag_55\n        /* \"#utility.yul\":379:388   */\n      dup4\n        /* \"#utility.yul\":360:389   */\n      tag_49\n      jump\t// in\n    tag_55:\n        /* \"#utility.yul\":350:389   */\n      swap5\n        /* \"#utility.yul\":436:438   */\n      0x20\n        /* \"#utility.yul\":421:439   */\n      swap4\n      swap1\n      swap4\n      add\n        /* \"#utility.yul\":408:440   */\n      calldataload\n      swap4\n      pop\n      pop\n      pop\n        /* \"#utility.yul\":192:446   */\n      jump\t// out\n        /* \"#utility.yul\":659:845   */\n    tag_16:\n        /* \"#utility.yul\":718:724   */\n      0x00\n        /* \"#utility.yul\":771:773   */\n      0x20\n        /* \"#utility.yul\":759:768   */\n      dup3\n        /* \"#utility.yul\":750:757   */\n      dup5\n        /* \"#utility.yul\":746:769   */\n      sub\n        /* \"#utility.yul\":742:774   */\n      slt\n        /* \"#utility.yul\":739:791   */\n      iszero\n      tag_58\n      jumpi\n        /* \"#utility.yul\":787:788   */\n      0x00\n        /* \"#utility.yul\":784:785   */\n      dup1\n        /* \"#utility.yul\":777:789   */\n      revert\n        /* \"#utility.yul\":739:791   */\n    tag_58:\n        /* \"#utility.yul\":810:839   */\n      tag_59\n        /* \"#utility.yul\":829:838   */\n      dup3\n        /* \"#utility.yul\":810:839   */\n      tag_49\n      jump\t// in\n    tag_59:\n        /* \"#utility.yul\":800:839   */\n      swap4\n        /* \"#utility.yul\":659:845   */\n      swap3\n      pop\n      pop\n      pop\n      jump\t// out\n        /* \"#utility.yul\":850:1508   */\n    tag_19:\n        /* \"#utility.yul\":1021:1023   */\n      0x20\n        /* \"#utility.yul\":1073:1094   */\n      dup1\n      dup3\n      mstore\n        /* \"#utility.yul\":1143:1156   */\n      dup3\n      mload\n        /* \"#utility.yul\":1046:1064   */\n      dup3\n      dup3\n      add\n        /* \"#utility.yul\":1165:1187   */\n      dup2\n      swap1\n      mstore\n        /* \"#utility.yul\":992:996   */\n      0x00\n      swap2\n        /* \"#utility.yul\":1021:1023   */\n      swap1\n        /* \"#utility.yul\":1244:1259   */\n      dup5\n      dup3\n      add\n      swap1\n        /* \"#utility.yul\":1218:1220   */\n      0x40\n        /* \"#utility.yul\":1203:1221   */\n      dup6\n      add\n      swap1\n        /* \"#utility.yul\":992:996   */\n      dup5\n        /* \"#utility.yul\":1287:1482   */\n    tag_61:\n        /* \"#utility.yul\":1301:1307   */\n      dup2\n        /* \"#utility.yul\":1298:1299   */\n      dup2\n        /* \"#utility.yul\":1295:1308   */\n      lt\n        /* \"#utility.yul\":1287:1482   */\n      iszero\n      tag_63\n      jumpi\n        /* \"#utility.yul\":1366:1379   */\n      dup4\n      mload\n      sub(shl(0xa0, 0x01), 0x01)\n        /* \"#utility.yul\":1362:1401   */\n      and\n        /* \"#utility.yul\":1350:1402   */\n      dup4\n      mstore\n        /* \"#utility.yul\":1457:1472   */\n      swap3\n      dup5\n      add\n      swap3\n        /* \"#utility.yul\":1422:1434   */\n      swap2\n      dup5\n      add\n      swap2\n        /* \"#utility.yul\":1398:1399   */\n      0x01\n        /* \"#utility.yul\":1316:1325   */\n      add\n        /* \"#utility.yul\":1287:1482   */\n      jump(tag_61)\n    tag_63:\n      pop\n        /* \"#utility.yul\":1499:1502   */\n      swap1\n      swap7\n        /* \"#utility.yul\":850:1508   */\n      swap6\n      pop\n      pop\n      pop\n      pop\n      pop\n      pop\n      jump\t// out\n        /* \"#utility.yul\":1513:1829   */\n    tag_22:\n        /* \"#utility.yul\":1590:1596   */\n      0x00\n        /* \"#utility.yul\":1598:1604   */\n      dup1\n        /* \"#utility.yul\":1606:1612   */\n      0x00\n        /* \"#utility.yul\":1659:1661   */\n      0x60\n        /* \"#utility.yul\":1647:1656   */\n      dup5\n        /* \"#utility.yul\":1638:1645   */\n      dup7\n        /* \"#utility.yul\":1634:1657   */\n      sub\n        /* \"#utility.yul\":1630:1662   */\n      slt\n        /* \"#utility.yul\":1627:1679   */\n      iszero\n      tag_65\n      jumpi\n        /* \"#utility.yul\":1675:1676   */\n      0x00\n        /* \"#utility.yul\":1672:1673   */\n      dup1\n        /* \"#utility.yul\":1665:1677   */\n      revert\n        /* \"#utility.yul\":1627:1679   */\n    tag_65:\n      pop\n      pop\n        /* \"#utility.yul\":1698:1721   */\n      dup2\n      calldataload\n      swap4\n        /* \"#utility.yul\":1768:1770   */\n      0x20\n        /* \"#utility.yul\":1753:1771   */\n      dup4\n      add\n        /* \"#utility.yul\":1740:1772   */\n      calldataload\n      swap4\n      pop\n        /* \"#utility.yul\":1819:1821   */\n      0x40\n        /* \"#utility.yul\":1804:1822   */\n      swap1\n      swap3\n      add\n        /* \"#utility.yul\":1791:1823   */\n      calldataload\n      swap2\n        /* \"#utility.yul\":1513:1829   */\n      swap1\n      pop\n      jump\t// out\n        /* \"#utility.yul\":2016:2196   */\n    tag_30:\n        /* \"#utility.yul\":2075:2081   */\n      0x00\n        /* \"#utility.yul\":2128:2130   */\n      0x20\n        /* \"#utility.yul\":2116:2125   */\n      dup3\n        /* \"#utility.yul\":2107:2114   */\n      dup5\n        /* \"#utility.yul\":2103:2126   */\n      sub\n        /* \"#utility.yul\":2099:2131   */\n      slt\n        /* \"#utility.yul\":2096:2148   */\n      iszero\n      tag_68\n      jumpi\n        /* \"#utility.yul\":2144:2145   */\n      0x00\n        /* \"#utility.yul\":2141:2142   */\n      dup1\n        /* \"#utility.yul\":2134:2146   */\n      revert\n        /* \"#utility.yul\":2096:2148   */\n    tag_68:\n      pop\n        /* \"#utility.yul\":2167:2190   */\n      calldataload\n      swap2\n        /* \"#utility.yul\":2016:2196   */\n      swap1\n      pop\n      jump\t// out\n        /* \"#utility.yul\":2623:2855   */\n    tag_46:\n        /* \"#utility.yul\":2662:2665   */\n      0x00\n        /* \"#utility.yul\":2683:2700   */\n      0x01\n      dup3\n      add\n        /* \"#utility.yul\":2680:2820   */\n      tag_71\n      jumpi\n        /* \"#utility.yul\":2742:2752   */\n      0x4e487b71\n        /* \"#utility.yul\":2737:2740   */\n      0xe0\n        /* \"#utility.yul\":2733:2753   */\n      shl\n        /* \"#utility.yul\":2730:2731   */\n      0x00\n        /* \"#utility.yul\":2723:2754   */\n      mstore\n        /* \"#utility.yul\":2777:2781   */\n      0x11\n        /* \"#utility.yul\":2774:2775   */\n      0x04\n        /* \"#utility.yul\":2767:2782   */\n      mstore\n        /* \"#utility.yul\":2805:2809   */\n      0x24\n        /* \"#utility.yul\":2802:2803   */\n      0x00\n        /* \"#utility.yul\":2795:2810   */\n      revert\n        /* \"#utility.yul\":2680:2820   */\n    tag_71:\n      pop\n        /* \"#utility.yul\":2847:2848   */\n      0x01\n        /* \"#utility.yul\":2836:2849   */\n      add\n      swap1\n        /* \"#utility.yul\":2623:2855   */\n      jump\t// out\n    stop\n\n    sub_0: assembly {\n            /* \"RamzSwap/TImeLockedWalletFactory.sol\":57:2660  contract TimeLockedWallet {... */\n          mstore(0x40, 0x80)\n            /* \"RamzSwap/TImeLockedWalletFactory.sol\":438:955  constructor(... */\n          callvalue\n          dup1\n          iszero\n          tag_1\n          jumpi\n          0x00\n          dup1\n          revert\n        tag_1:\n          pop\n          mload(0x40)\n          sub(codesize, bytecodeSize)\n          dup1\n          bytecodeSize\n          dup4\n          codecopy\n          dup2\n          add\n          0x40\n          dup2\n          swap1\n          mstore\n          tag_2\n          swap2\n          tag_3\n          jump\t// in\n        tag_2:\n            /* \"RamzSwap/TImeLockedWalletFactory.sol\":623:624  1 */\n          0x01\n            /* \"RamzSwap/TImeLockedWalletFactory.sol\":604:620  _percentPerClaim */\n          dup2\n            /* \"RamzSwap/TImeLockedWalletFactory.sol\":604:624  _percentPerClaim > 1 */\n          gt\n            /* \"RamzSwap/TImeLockedWalletFactory.sol\":596:651  require(_percentPerClaim > 1, \"Need to be at least 1%\") */\n          tag_6\n          jumpi\n          mload(0x40)\n          shl(0xe5, 0x461bcd)\n          dup2\n          mstore\n            /* \"#utility.yul\":695:697   */\n          0x20\n            /* \"RamzSwap/TImeLockedWalletFactory.sol\":596:651  require(_percentPerClaim > 1, \"Need to be at least 1%\") */\n          0x04\n          dup3\n          add\n            /* \"#utility.yul\":677:698   */\n          mstore\n            /* \"#utility.yul\":734:736   */\n          0x16\n            /* \"#utility.yul\":714:732   */\n          0x24\n          dup3\n          add\n            /* \"#utility.yul\":707:737   */\n          mstore\n            /* \"#utility.yul\":773:797   */\n          0x4e65656420746f206265206174206c6561737420312500000000000000000000\n            /* \"#utility.yul\":753:771   */\n          0x44\n          dup3\n          add\n            /* \"#utility.yul\":746:798   */\n          mstore\n            /* \"#utility.yul\":815:833   */\n          0x64\n          add\n            /* \"RamzSwap/TImeLockedWalletFactory.sol\":596:651  require(_percentPerClaim > 1, \"Need to be at least 1%\") */\n          mload(0x40)\n          dup1\n          swap2\n          sub\n          swap1\n          revert\n        tag_6:\n            /* \"RamzSwap/TImeLockedWalletFactory.sol\":661:666  owner */\n          0x00\n            /* \"RamzSwap/TImeLockedWalletFactory.sol\":661:675  owner = _owner */\n          dup1\n          sload\n          not(sub(shl(0xa0, 0x01), 0x01))\n          and\n          sub(shl(0xa0, 0x01), 0x01)\n          dup7\n          and\n          or\n          swap1\n          sstore\n            /* \"RamzSwap/TImeLockedWalletFactory.sol\":700:715  block.timestamp */\n          timestamp\n          0x01\n            /* \"RamzSwap/TImeLockedWalletFactory.sol\":685:715  creationTime = block.timestamp */\n          sstore\n            /* \"RamzSwap/TImeLockedWalletFactory.sol\":725:738  startWaitTime */\n          0x02\n            /* \"RamzSwap/TImeLockedWalletFactory.sol\":725:755  startWaitTime = _startWaitTime */\n          dup4\n          swap1\n          sstore\n            /* \"RamzSwap/TImeLockedWalletFactory.sol\":803:825  100 / _percentPerClaim */\n          tag_9\n            /* \"RamzSwap/TImeLockedWalletFactory.sol\":809:825  _percentPerClaim */\n          dup2\n            /* \"RamzSwap/TImeLockedWalletFactory.sol\":803:806  100 */\n          0x64\n            /* \"RamzSwap/TImeLockedWalletFactory.sol\":803:825  100 / _percentPerClaim */\n          tag_10\n          jump\t// in\n        tag_9:\n            /* \"RamzSwap/TImeLockedWalletFactory.sol\":778:800  numberOfVestingPeriods */\n          0x04\n            /* \"RamzSwap/TImeLockedWalletFactory.sol\":778:825  numberOfVestingPeriods = 100 / _percentPerClaim */\n          sstore\n            /* \"RamzSwap/TImeLockedWalletFactory.sol\":835:856  vestingPeriodDuration */\n          0x05\n            /* \"RamzSwap/TImeLockedWalletFactory.sol\":835:881  vestingPeriodDuration = _vestingPeriodDuration */\n          swap2\n          swap1\n          swap2\n          sstore\n            /* \"RamzSwap/TImeLockedWalletFactory.sol\":904:919  percentPerClaim */\n          0x06\n            /* \"RamzSwap/TImeLockedWalletFactory.sol\":904:938  percentPerClaim = _percentPerClaim */\n          sstore\n          pop\n            /* \"RamzSwap/TImeLockedWalletFactory.sol\":57:2660  contract TimeLockedWallet {... */\n          tag_12\n          swap1\n          pop\n          jump\n            /* \"#utility.yul\":14:488   */\n        tag_3:\n            /* \"#utility.yul\":111:117   */\n          0x00\n            /* \"#utility.yul\":119:125   */\n          dup1\n            /* \"#utility.yul\":127:133   */\n          0x00\n            /* \"#utility.yul\":135:141   */\n          dup1\n            /* \"#utility.yul\":188:191   */\n          0x80\n            /* \"#utility.yul\":176:185   */\n          dup6\n            /* \"#utility.yul\":167:174   */\n          dup8\n            /* \"#utility.yul\":163:186   */\n          sub\n            /* \"#utility.yul\":159:192   */\n          slt\n            /* \"#utility.yul\":156:209   */\n          iszero\n          tag_14\n          jumpi\n            /* \"#utility.yul\":205:206   */\n          0x00\n            /* \"#utility.yul\":202:203   */\n          dup1\n            /* \"#utility.yul\":195:207   */\n          revert\n            /* \"#utility.yul\":156:209   */\n        tag_14:\n            /* \"#utility.yul\":231:247   */\n          dup5\n          mload\n          sub(shl(0xa0, 0x01), 0x01)\n            /* \"#utility.yul\":276:307   */\n          dup2\n          and\n            /* \"#utility.yul\":266:308   */\n          dup2\n          eq\n            /* \"#utility.yul\":256:326   */\n          tag_15\n          jumpi\n            /* \"#utility.yul\":322:323   */\n          0x00\n            /* \"#utility.yul\":319:320   */\n          dup1\n            /* \"#utility.yul\":312:324   */\n          revert\n            /* \"#utility.yul\":256:326   */\n        tag_15:\n            /* \"#utility.yul\":390:392   */\n          0x20\n            /* \"#utility.yul\":375:393   */\n          dup7\n          add\n            /* \"#utility.yul\":369:394   */\n          mload\n            /* \"#utility.yul\":434:436   */\n          0x40\n            /* \"#utility.yul\":419:437   */\n          dup8\n          add\n            /* \"#utility.yul\":413:438   */\n          mload\n            /* \"#utility.yul\":478:480   */\n          0x60\n            /* \"#utility.yul\":463:481   */\n          swap1\n          swap8\n          add\n            /* \"#utility.yul\":457:482   */\n          mload\n            /* \"#utility.yul\":345:350   */\n          swap2\n          swap9\n            /* \"#utility.yul\":369:394   */\n          swap1\n          swap8\n          pop\n            /* \"#utility.yul\":457:482   */\n          swap1\n          swap5\n          pop\n            /* \"#utility.yul\":14:488   */\n          swap3\n          pop\n          pop\n          pop\n          jump\t// out\n            /* \"#utility.yul\":844:1061   */\n        tag_10:\n            /* \"#utility.yul\":884:885   */\n          0x00\n            /* \"#utility.yul\":910:911   */\n          dup3\n            /* \"#utility.yul\":900:1032   */\n          tag_18\n          jumpi\n            /* \"#utility.yul\":954:964   */\n          0x4e487b71\n            /* \"#utility.yul\":949:952   */\n          0xe0\n            /* \"#utility.yul\":945:965   */\n          shl\n            /* \"#utility.yul\":942:943   */\n          0x00\n            /* \"#utility.yul\":935:966   */\n          mstore\n            /* \"#utility.yul\":989:993   */\n          0x12\n            /* \"#utility.yul\":986:987   */\n          0x04\n            /* \"#utility.yul\":979:994   */\n          mstore\n            /* \"#utility.yul\":1017:1021   */\n          0x24\n            /* \"#utility.yul\":1014:1015   */\n          0x00\n            /* \"#utility.yul\":1007:1022   */\n          revert\n            /* \"#utility.yul\":900:1032   */\n        tag_18:\n          pop\n            /* \"#utility.yul\":1046:1055   */\n          div\n          swap1\n            /* \"#utility.yul\":844:1061   */\n          jump\t// out\n        tag_12:\n            /* \"RamzSwap/TImeLockedWalletFactory.sol\":57:2660  contract TimeLockedWallet {... */\n          dataSize(sub_0)\n          dup1\n          dataOffset(sub_0)\n          0x00\n          codecopy\n          0x00\n          return\n        stop\n\n        sub_0: assembly {\n                /* \"RamzSwap/TImeLockedWalletFactory.sol\":57:2660  contract TimeLockedWallet {... */\n              mstore(0x40, 0x80)\n              jumpi(tag_1, lt(calldatasize, 0x04))\n              shr(0xe0, calldataload(0x00))\n              dup1\n              0xad7a672f\n              gt\n              tag_16\n              jumpi\n              dup1\n              0xc1b544c1\n              gt\n              tag_17\n              jumpi\n              dup1\n              0xc1b544c1\n              eq\n              tag_12\n              jumpi\n              dup1\n              0xd0e30db0\n              eq\n              tag_13\n              jumpi\n              dup1\n              0xd8270dce\n              eq\n              tag_14\n              jumpi\n              dup1\n              0xee82f3f4\n              eq\n              tag_15\n              jumpi\n              0x00\n              dup1\n              revert\n            tag_17:\n              dup1\n              0xad7a672f\n              eq\n              tag_9\n              jumpi\n              dup1\n              0xbb025a3f\n              eq\n              tag_10\n              jumpi\n              dup1\n              0xbdc608d6\n              eq\n              tag_11\n              jumpi\n              0x00\n              dup1\n              revert\n            tag_16:\n              dup1\n              0x0640d941\n              eq\n              tag_3\n              jumpi\n              dup1\n              0x4e71d92d\n              eq\n              tag_4\n              jumpi\n              dup1\n              0x5a9b0b89\n              eq\n              tag_5\n              jumpi\n              dup1\n              0x5f41e81d\n              eq\n              tag_6\n              jumpi\n              dup1\n              0x8da5cb5b\n              eq\n              tag_7\n              jumpi\n              dup1\n              0x91f3f059\n              eq\n              tag_8\n              jumpi\n              0x00\n              dup1\n              revert\n            tag_1:\n              jumpi(tag_2, calldatasize)\n                /* \"RamzSwap/TImeLockedWalletFactory.sol\":1020:1025  owner */\n              and(sub(shl(0xa0, 0x01), 0x01), sload(0x00))\n                /* \"RamzSwap/TImeLockedWalletFactory.sol\":1006:1016  msg.sender */\n              caller\n                /* \"RamzSwap/TImeLockedWalletFactory.sol\":1006:1025  msg.sender == owner */\n              eq\n                /* \"RamzSwap/TImeLockedWalletFactory.sol\":998:1052  require(msg.sender == owner, \"Only owner can deposit\") */\n              tag_20\n              jumpi\n              mload(0x40)\n              shl(0xe5, 0x461bcd)\n              dup2\n              mstore\n                /* \"#utility.yul\":216:218   */\n              0x20\n                /* \"RamzSwap/TImeLockedWalletFactory.sol\":998:1052  require(msg.sender == owner, \"Only owner can deposit\") */\n              0x04\n              dup3\n              add\n                /* \"#utility.yul\":198:219   */\n              mstore\n                /* \"#utility.yul\":255:257   */\n              0x16\n                /* \"#utility.yul\":235:253   */\n              0x24\n              dup3\n              add\n                /* \"#utility.yul\":228:258   */\n              mstore\n              shl(0x52, 0x13db9b1e481bdddb995c8818d85b8819195c1bdcda5d)\n                /* \"#utility.yul\":274:292   */\n              0x44\n              dup3\n              add\n                /* \"#utility.yul\":267:319   */\n              mstore\n                /* \"#utility.yul\":336:354   */\n              0x64\n              add\n                /* \"RamzSwap/TImeLockedWalletFactory.sol\":998:1052  require(msg.sender == owner, \"Only owner can deposit\") */\n            tag_21:\n              mload(0x40)\n              dup1\n              swap2\n              sub\n              swap1\n              revert\n            tag_20:\n                /* \"RamzSwap/TImeLockedWalletFactory.sol\":57:2660  contract TimeLockedWallet {... */\n              stop\n            tag_2:\n              0x00\n              dup1\n              revert\n                /* \"RamzSwap/TImeLockedWalletFactory.sol\":258:294  uint256 public vestingPeriodDuration */\n            tag_3:\n              callvalue\n              dup1\n              iszero\n              tag_23\n              jumpi\n              0x00\n              dup1\n              revert\n            tag_23:\n              pop\n              tag_24\n              sload(0x05)\n              dup2\n              jump\n            tag_24:\n              mload(0x40)\n                /* \"#utility.yul\":511:536   */\n              swap1\n              dup2\n              mstore\n                /* \"#utility.yul\":499:501   */\n              0x20\n                /* \"#utility.yul\":484:502   */\n              add\n                /* \"RamzSwap/TImeLockedWalletFactory.sol\":258:294  uint256 public vestingPeriodDuration */\n            tag_26:\n              mload(0x40)\n              dup1\n              swap2\n              sub\n              swap1\n              return\n                /* \"RamzSwap/TImeLockedWalletFactory.sol\":1273:2240  function claim() external {... */\n            tag_4:\n              callvalue\n              dup1\n              iszero\n              tag_28\n              jumpi\n              0x00\n              dup1\n              revert\n            tag_28:\n              pop\n              tag_20\n              tag_30\n              jump\t// in\n                /* \"RamzSwap/TImeLockedWalletFactory.sol\":2246:2658  function getInfo()... */\n            tag_5:\n              callvalue\n              dup1\n              iszero\n              tag_31\n              jumpi\n              0x00\n              dup1\n              revert\n            tag_31:\n              pop\n                /* \"RamzSwap/TImeLockedWalletFactory.sol\":2325:2332  address */\n              0x00\n                /* \"RamzSwap/TImeLockedWalletFactory.sol\":2483:2488  owner */\n              sload\n                /* \"RamzSwap/TImeLockedWalletFactory.sol\":2502:2515  startWaitTime */\n              sload(0x02)\n                /* \"RamzSwap/TImeLockedWalletFactory.sol\":2529:2551  numberOfVestingPeriods */\n              sload(0x04)\n                /* \"RamzSwap/TImeLockedWalletFactory.sol\":2565:2586  vestingPeriodDuration */\n              sload(0x05)\n                /* \"RamzSwap/TImeLockedWalletFactory.sol\":2600:2615  percentPerClaim */\n              sload(0x06)\n                /* \"RamzSwap/TImeLockedWalletFactory.sol\":2629:2641  totalBalance */\n              sload(0x03)\n                /* \"RamzSwap/TImeLockedWalletFactory.sol\":2246:2658  function getInfo()... */\n              0x40\n              dup1\n              mload\n              sub(shl(0xa0, 0x01), 0x01)\n                /* \"RamzSwap/TImeLockedWalletFactory.sol\":2483:2488  owner */\n              swap1\n              swap8\n              and\n                /* \"#utility.yul\":834:885   */\n              dup8\n              mstore\n                /* \"#utility.yul\":916:918   */\n              0x20\n                /* \"#utility.yul\":901:919   */\n              dup8\n              add\n                /* \"#utility.yul\":894:928   */\n              swap6\n              swap1\n              swap6\n              mstore\n                /* \"#utility.yul\":944:962   */\n              swap4\n              dup6\n              add\n                /* \"#utility.yul\":937:971   */\n              swap3\n              swap1\n              swap3\n              mstore\n                /* \"#utility.yul\":1002:1004   */\n              0x60\n                /* \"#utility.yul\":987:1005   */\n              dup5\n              add\n                /* \"#utility.yul\":980:1014   */\n              mstore\n                /* \"#utility.yul\":1045:1048   */\n              0x80\n                /* \"#utility.yul\":1030:1049   */\n              dup4\n              add\n                /* \"#utility.yul\":1023:1058   */\n              mstore\n                /* \"#utility.yul\":872:875   */\n              0xa0\n                /* \"#utility.yul\":1074:1093   */\n              dup3\n              add\n                /* \"#utility.yul\":1067:1102   */\n              mstore\n                /* \"#utility.yul\":821:824   */\n              0xc0\n                /* \"#utility.yul\":806:825   */\n              add\n                /* \"RamzSwap/TImeLockedWalletFactory.sol\":2246:2658  function getInfo()... */\n              tag_26\n                /* \"#utility.yul\":547:1108   */\n              jump\n                /* \"RamzSwap/TImeLockedWalletFactory.sol\":148:176  uint256 public startWaitTime */\n            tag_6:\n              callvalue\n              dup1\n              iszero\n              tag_36\n              jumpi\n              0x00\n              dup1\n              revert\n            tag_36:\n              pop\n              tag_24\n              sload(0x02)\n              dup2\n              jump\n                /* \"RamzSwap/TImeLockedWalletFactory.sol\":89:109  address public owner */\n            tag_7:\n              callvalue\n              dup1\n              iszero\n              tag_40\n              jumpi\n              0x00\n              dup1\n              revert\n            tag_40:\n              pop\n              sload(0x00)\n              tag_41\n              swap1\n              sub(shl(0xa0, 0x01), 0x01)\n              and\n              dup2\n              jump\n            tag_41:\n              mload(0x40)\n              sub(shl(0xa0, 0x01), 0x01)\n                /* \"#utility.yul\":1277:1309   */\n              swap1\n              swap2\n              and\n                /* \"#utility.yul\":1259:1310   */\n              dup2\n              mstore\n                /* \"#utility.yul\":1247:1249   */\n              0x20\n                /* \"#utility.yul\":1232:1250   */\n              add\n                /* \"RamzSwap/TImeLockedWalletFactory.sol\":89:109  address public owner */\n              tag_26\n                /* \"#utility.yul\":1113:1316   */\n              jump\n                /* \"RamzSwap/TImeLockedWalletFactory.sol\":215:252  uint256 public numberOfVestingPeriods */\n            tag_8:\n              callvalue\n              dup1\n              iszero\n              tag_45\n              jumpi\n              0x00\n              dup1\n              revert\n            tag_45:\n              pop\n              tag_24\n              sload(0x04)\n              dup2\n              jump\n                /* \"RamzSwap/TImeLockedWalletFactory.sol\":182:209  uint256 public totalBalance */\n            tag_9:\n              callvalue\n              dup1\n              iszero\n              tag_49\n              jumpi\n              0x00\n              dup1\n              revert\n            tag_49:\n              pop\n              tag_24\n              sload(0x03)\n              dup2\n              jump\n                /* \"RamzSwap/TImeLockedWalletFactory.sol\":408:431  bool public lockExpired */\n            tag_10:\n              callvalue\n              dup1\n              iszero\n              tag_53\n              jumpi\n              0x00\n              dup1\n              revert\n            tag_53:\n              pop\n              sload(0x09)\n              tag_54\n              swap1\n              0xff\n              and\n              dup2\n              jump\n            tag_54:\n              mload(0x40)\n                /* \"#utility.yul\":1486:1500   */\n              swap1\n              iszero\n                /* \"#utility.yul\":1479:1501   */\n              iszero\n                /* \"#utility.yul\":1461:1502   */\n              dup2\n              mstore\n                /* \"#utility.yul\":1449:1451   */\n              0x20\n                /* \"#utility.yul\":1434:1452   */\n              add\n                /* \"RamzSwap/TImeLockedWalletFactory.sol\":408:431  bool public lockExpired */\n              tag_26\n                /* \"#utility.yul\":1321:1508   */\n              jump\n                /* \"RamzSwap/TImeLockedWalletFactory.sol\":300:330  uint256 public percentPerClaim */\n            tag_11:\n              callvalue\n              dup1\n              iszero\n              tag_58\n              jumpi\n              0x00\n              dup1\n              revert\n            tag_58:\n              pop\n              tag_24\n              sload(0x06)\n              dup2\n              jump\n                /* \"RamzSwap/TImeLockedWalletFactory.sol\":372:401  uint256 public periodsClaimed */\n            tag_12:\n              callvalue\n              dup1\n              iszero\n              tag_62\n              jumpi\n              0x00\n              dup1\n              revert\n            tag_62:\n              pop\n              tag_24\n              sload(0x08)\n              dup2\n              jump\n                /* \"RamzSwap/TImeLockedWalletFactory.sol\":1065:1267  function deposit() external payable {... */\n            tag_13:\n              tag_20\n              tag_67\n              jump\t// in\n                /* \"RamzSwap/TImeLockedWalletFactory.sol\":115:142  uint256 public creationTime */\n            tag_14:\n              callvalue\n              dup1\n              iszero\n              tag_68\n              jumpi\n              0x00\n              dup1\n              revert\n            tag_68:\n              pop\n              tag_24\n              sload(0x01)\n              dup2\n              jump\n                /* \"RamzSwap/TImeLockedWalletFactory.sol\":337:366  uint256 public claimedBalance */\n            tag_15:\n              callvalue\n              dup1\n              iszero\n              tag_72\n              jumpi\n              0x00\n              dup1\n              revert\n            tag_72:\n              pop\n              tag_24\n              sload(0x07)\n              dup2\n              jump\n                /* \"RamzSwap/TImeLockedWalletFactory.sol\":1273:2240  function claim() external {... */\n            tag_30:\n                /* \"RamzSwap/TImeLockedWalletFactory.sol\":1331:1336  owner */\n              and(sub(shl(0xa0, 0x01), 0x01), sload(0x00))\n                /* \"RamzSwap/TImeLockedWalletFactory.sol\":1317:1327  msg.sender */\n              caller\n                /* \"RamzSwap/TImeLockedWalletFactory.sol\":1317:1336  msg.sender == owner */\n              eq\n                /* \"RamzSwap/TImeLockedWalletFactory.sol\":1309:1367  require(msg.sender == owner, \"Only owner can claim funds\") */\n              tag_77\n              jumpi\n              mload(0x40)\n              shl(0xe5, 0x461bcd)\n              dup2\n              mstore\n                /* \"#utility.yul\":1715:1717   */\n              0x20\n                /* \"RamzSwap/TImeLockedWalletFactory.sol\":1309:1367  require(msg.sender == owner, \"Only owner can claim funds\") */\n              0x04\n              dup3\n              add\n                /* \"#utility.yul\":1697:1718   */\n              mstore\n                /* \"#utility.yul\":1754:1756   */\n              0x1a\n                /* \"#utility.yul\":1734:1752   */\n              0x24\n              dup3\n              add\n                /* \"#utility.yul\":1727:1757   */\n              mstore\n                /* \"#utility.yul\":1793:1821   */\n              0x4f6e6c79206f776e65722063616e20636c61696d2066756e6473000000000000\n                /* \"#utility.yul\":1773:1791   */\n              0x44\n              dup3\n              add\n                /* \"#utility.yul\":1766:1822   */\n              mstore\n                /* \"#utility.yul\":1839:1857   */\n              0x64\n              add\n                /* \"RamzSwap/TImeLockedWalletFactory.sol\":1309:1367  require(msg.sender == owner, \"Only owner can claim funds\") */\n              tag_21\n                /* \"#utility.yul\":1513:1863   */\n              jump\n                /* \"RamzSwap/TImeLockedWalletFactory.sol\":1309:1367  require(msg.sender == owner, \"Only owner can claim funds\") */\n            tag_77:\n                /* \"RamzSwap/TImeLockedWalletFactory.sol\":1452:1473  vestingPeriodDuration */\n              sload(0x05)\n                /* \"RamzSwap/TImeLockedWalletFactory.sol\":1435:1449  periodsClaimed */\n              sload(0x08)\n                /* \"RamzSwap/TImeLockedWalletFactory.sol\":1435:1473  periodsClaimed * vestingPeriodDuration */\n              tag_80\n              swap2\n              swap1\n              tag_81\n              jump\t// in\n            tag_80:\n                /* \"RamzSwap/TImeLockedWalletFactory.sol\":1419:1432  startWaitTime */\n              sload(0x02)\n                /* \"RamzSwap/TImeLockedWalletFactory.sol\":1404:1416  creationTime */\n              sload(0x01)\n                /* \"RamzSwap/TImeLockedWalletFactory.sol\":1404:1432  creationTime + startWaitTime */\n              tag_82\n              swap2\n              swap1\n              tag_83\n              jump\t// in\n            tag_82:\n                /* \"RamzSwap/TImeLockedWalletFactory.sol\":1404:1473  creationTime + startWaitTime + periodsClaimed * vestingPeriodDuration */\n              tag_84\n              swap2\n              swap1\n              tag_83\n              jump\t// in\n            tag_84:\n                /* \"RamzSwap/TImeLockedWalletFactory.sol\":1385:1400  block.timestamp */\n              timestamp\n                /* \"RamzSwap/TImeLockedWalletFactory.sol\":1385:1473  block.timestamp >= creationTime + startWaitTime + periodsClaimed * vestingPeriodDuration */\n              lt\n              iszero\n                /* \"RamzSwap/TImeLockedWalletFactory.sol\":1377:1490  require(block.timestamp >= creationTime + startWaitTime + periodsClaimed * vestingPeriodDuration, \"Not time yet\") */\n              tag_85\n              jumpi\n              mload(0x40)\n              shl(0xe5, 0x461bcd)\n              dup2\n              mstore\n                /* \"#utility.yul\":2505:2507   */\n              0x20\n                /* \"RamzSwap/TImeLockedWalletFactory.sol\":1377:1490  require(block.timestamp >= creationTime + startWaitTime + periodsClaimed * vestingPeriodDuration, \"Not time yet\") */\n              0x04\n              dup3\n              add\n                /* \"#utility.yul\":2487:2508   */\n              mstore\n                /* \"#utility.yul\":2544:2546   */\n              0x0c\n                /* \"#utility.yul\":2524:2542   */\n              0x24\n              dup3\n              add\n                /* \"#utility.yul\":2517:2547   */\n              mstore\n              shl(0xa2, 0x139bdd081d1a5b59481e595d)\n                /* \"#utility.yul\":2563:2581   */\n              0x44\n              dup3\n              add\n                /* \"#utility.yul\":2556:2598   */\n              mstore\n                /* \"#utility.yul\":2615:2633   */\n              0x64\n              add\n                /* \"RamzSwap/TImeLockedWalletFactory.sol\":1377:1490  require(block.timestamp >= creationTime + startWaitTime + periodsClaimed * vestingPeriodDuration, \"Not time yet\") */\n              tag_21\n                /* \"#utility.yul\":2303:2639   */\n              jump\n                /* \"RamzSwap/TImeLockedWalletFactory.sol\":1377:1490  require(block.timestamp >= creationTime + startWaitTime + periodsClaimed * vestingPeriodDuration, \"Not time yet\") */\n            tag_85:\n                /* \"RamzSwap/TImeLockedWalletFactory.sol\":1509:1520  lockExpired */\n              and(0xff, sload(0x09))\n                /* \"RamzSwap/TImeLockedWalletFactory.sol\":1508:1520  !lockExpired */\n              iszero\n                /* \"RamzSwap/TImeLockedWalletFactory.sol\":1500:1550  require(!lockExpired, \"This contract has expired\") */\n              tag_88\n              jumpi\n              mload(0x40)\n              shl(0xe5, 0x461bcd)\n              dup2\n              mstore\n                /* \"#utility.yul\":2846:2848   */\n              0x20\n                /* \"RamzSwap/TImeLockedWalletFactory.sol\":1500:1550  require(!lockExpired, \"This contract has expired\") */\n              0x04\n              dup3\n              add\n                /* \"#utility.yul\":2828:2849   */\n              mstore\n                /* \"#utility.yul\":2885:2887   */\n              0x19\n                /* \"#utility.yul\":2865:2883   */\n              0x24\n              dup3\n              add\n                /* \"#utility.yul\":2858:2888   */\n              mstore\n              shl(0x3a, 0x151a1a5cc818dbdb9d1c9858dd081a185cc8195e1c1a5c9959)\n                /* \"#utility.yul\":2904:2922   */\n              0x44\n              dup3\n              add\n                /* \"#utility.yul\":2897:2952   */\n              mstore\n                /* \"#utility.yul\":2969:2987   */\n              0x64\n              add\n                /* \"RamzSwap/TImeLockedWalletFactory.sol\":1500:1550  require(!lockExpired, \"This contract has expired\") */\n              tag_21\n                /* \"#utility.yul\":2644:2993   */\n              jump\n                /* \"RamzSwap/TImeLockedWalletFactory.sol\":1500:1550  require(!lockExpired, \"This contract has expired\") */\n            tag_88:\n                /* \"RamzSwap/TImeLockedWalletFactory.sol\":1583:1595  totalBalance */\n              sload(0x03)\n                /* \"RamzSwap/TImeLockedWalletFactory.sol\":1565:1579  claimedBalance */\n              sload(0x07)\n                /* \"RamzSwap/TImeLockedWalletFactory.sol\":1565:1595  claimedBalance == totalBalance */\n              sub\n                /* \"RamzSwap/TImeLockedWalletFactory.sol\":1561:1679  if (claimedBalance == totalBalance) {... */\n              tag_91\n              jumpi\n                /* \"RamzSwap/TImeLockedWalletFactory.sol\":1611:1622  lockExpired */\n              0x09\n                /* \"RamzSwap/TImeLockedWalletFactory.sol\":1611:1629  lockExpired = true */\n              dup1\n              sload\n              not(0xff)\n              and\n                /* \"RamzSwap/TImeLockedWalletFactory.sol\":1625:1629  true */\n              0x01\n                /* \"RamzSwap/TImeLockedWalletFactory.sol\":1611:1629  lockExpired = true */\n              or\n              swap1\n              sstore\n                /* \"RamzSwap/TImeLockedWalletFactory.sol\":1643:1668  revert(\"Already claimed\") */\n              mload(0x40)\n              shl(0xe5, 0x461bcd)\n              dup2\n              mstore\n                /* \"#utility.yul\":3200:3202   */\n              0x20\n                /* \"RamzSwap/TImeLockedWalletFactory.sol\":1643:1668  revert(\"Already claimed\") */\n              0x04\n              dup3\n              add\n                /* \"#utility.yul\":3182:3203   */\n              mstore\n                /* \"#utility.yul\":3239:3241   */\n              0x0f\n                /* \"#utility.yul\":3219:3237   */\n              0x24\n              dup3\n              add\n                /* \"#utility.yul\":3212:3242   */\n              mstore\n              shl(0x8a, 0x105b1c9958591e4818db185a5b5959)\n                /* \"#utility.yul\":3258:3276   */\n              0x44\n              dup3\n              add\n                /* \"#utility.yul\":3251:3296   */\n              mstore\n                /* \"#utility.yul\":3313:3331   */\n              0x64\n              add\n                /* \"RamzSwap/TImeLockedWalletFactory.sol\":1643:1668  revert(\"Already claimed\") */\n              tag_21\n                /* \"#utility.yul\":2998:3337   */\n              jump\n                /* \"RamzSwap/TImeLockedWalletFactory.sol\":1561:1679  if (claimedBalance == totalBalance) {... */\n            tag_91:\n                /* \"RamzSwap/TImeLockedWalletFactory.sol\":1689:1712  uint256 claimableAmount */\n              0x00\n                /* \"RamzSwap/TImeLockedWalletFactory.sol\":1770:1771  1 */\n              0x01\n                /* \"RamzSwap/TImeLockedWalletFactory.sol\":1745:1767  numberOfVestingPeriods */\n              sload(0x04)\n                /* \"RamzSwap/TImeLockedWalletFactory.sol\":1745:1771  numberOfVestingPeriods - 1 */\n              tag_94\n              swap2\n              swap1\n              tag_95\n              jump\t// in\n            tag_94:\n                /* \"RamzSwap/TImeLockedWalletFactory.sol\":1727:1741  periodsClaimed */\n              sload(0x08)\n                /* \"RamzSwap/TImeLockedWalletFactory.sol\":1727:1771  periodsClaimed == numberOfVestingPeriods - 1 */\n              sub\n                /* \"RamzSwap/TImeLockedWalletFactory.sol\":1723:2032  if (periodsClaimed == numberOfVestingPeriods - 1) {... */\n              tag_96\n              jumpi\n                /* \"RamzSwap/TImeLockedWalletFactory.sol\":1899:1902  100 */\n              0x64\n                /* \"RamzSwap/TImeLockedWalletFactory.sol\":1862:1877  percentPerClaim */\n              sload(0x06)\n                /* \"RamzSwap/TImeLockedWalletFactory.sol\":1845:1859  periodsClaimed */\n              sload(0x08)\n                /* \"RamzSwap/TImeLockedWalletFactory.sol\":1845:1877  periodsClaimed * percentPerClaim */\n              tag_97\n              swap2\n              swap1\n              tag_81\n              jump\t// in\n            tag_97:\n                /* \"RamzSwap/TImeLockedWalletFactory.sol\":1838:1878  100 - (periodsClaimed * percentPerClaim) */\n              tag_98\n              swap1\n                /* \"RamzSwap/TImeLockedWalletFactory.sol\":1838:1841  100 */\n              0x64\n                /* \"RamzSwap/TImeLockedWalletFactory.sol\":1838:1878  100 - (periodsClaimed * percentPerClaim) */\n              tag_95\n              jump\t// in\n            tag_98:\n                /* \"RamzSwap/TImeLockedWalletFactory.sol\":1822:1834  totalBalance */\n              sload(0x03)\n                /* \"RamzSwap/TImeLockedWalletFactory.sol\":1822:1879  totalBalance * (100 - (periodsClaimed * percentPerClaim)) */\n              tag_99\n              swap2\n              swap1\n              tag_81\n              jump\t// in\n            tag_99:\n                /* \"RamzSwap/TImeLockedWalletFactory.sol\":1821:1902  (totalBalance * (100 - (periodsClaimed * percentPerClaim))) /... */\n              tag_100\n              swap2\n              swap1\n              tag_101\n              jump\t// in\n            tag_100:\n                /* \"RamzSwap/TImeLockedWalletFactory.sol\":1916:1927  lockExpired */\n              0x09\n                /* \"RamzSwap/TImeLockedWalletFactory.sol\":1916:1934  lockExpired = true */\n              dup1\n              sload\n              not(0xff)\n              and\n                /* \"RamzSwap/TImeLockedWalletFactory.sol\":1930:1934  true */\n              0x01\n                /* \"RamzSwap/TImeLockedWalletFactory.sol\":1916:1934  lockExpired = true */\n              or\n              swap1\n              sstore\n                /* \"RamzSwap/TImeLockedWalletFactory.sol\":1787:1902  claimableAmount =... */\n              swap1\n              pop\n                /* \"RamzSwap/TImeLockedWalletFactory.sol\":1723:2032  if (periodsClaimed == numberOfVestingPeriods - 1) {... */\n              jump(tag_102)\n            tag_96:\n                /* \"RamzSwap/TImeLockedWalletFactory.sol\":2018:2021  100 */\n              0x64\n                /* \"RamzSwap/TImeLockedWalletFactory.sol\":1999:2014  percentPerClaim */\n              sload(0x06)\n                /* \"RamzSwap/TImeLockedWalletFactory.sol\":1984:1996  totalBalance */\n              sload(0x03)\n                /* \"RamzSwap/TImeLockedWalletFactory.sol\":1984:2014  totalBalance * percentPerClaim */\n              tag_103\n              swap2\n              swap1\n              tag_81\n              jump\t// in\n            tag_103:\n                /* \"RamzSwap/TImeLockedWalletFactory.sol\":1983:2021  (totalBalance * percentPerClaim) / 100 */\n              tag_104\n              swap2\n              swap1\n              tag_101\n              jump\t// in\n            tag_104:\n                /* \"RamzSwap/TImeLockedWalletFactory.sol\":1965:2021  claimableAmount = (totalBalance * percentPerClaim) / 100 */\n              swap1\n              pop\n                /* \"RamzSwap/TImeLockedWalletFactory.sol\":1723:2032  if (periodsClaimed == numberOfVestingPeriods - 1) {... */\n            tag_102:\n                /* \"RamzSwap/TImeLockedWalletFactory.sol\":2060:2075  claimableAmount */\n              dup1\n                /* \"RamzSwap/TImeLockedWalletFactory.sol\":2042:2056  claimedBalance */\n              0x07\n              0x00\n                /* \"RamzSwap/TImeLockedWalletFactory.sol\":2042:2075  claimedBalance += claimableAmount */\n              dup3\n              dup3\n              sload\n              tag_105\n              swap2\n              swap1\n              tag_83\n              jump\t// in\n            tag_105:\n              swap1\n              swap2\n              sstore\n              pop\n              pop\n                /* \"RamzSwap/TImeLockedWalletFactory.sol\":2085:2099  periodsClaimed */\n              0x08\n                /* \"RamzSwap/TImeLockedWalletFactory.sol\":2085:2101  periodsClaimed++ */\n              dup1\n              sload\n              swap1\n                /* \"RamzSwap/TImeLockedWalletFactory.sol\":2085:2099  periodsClaimed */\n              0x00\n                /* \"RamzSwap/TImeLockedWalletFactory.sol\":2085:2101  periodsClaimed++ */\n              tag_106\n              dup4\n              tag_107\n              jump\t// in\n            tag_106:\n              swap2\n              swap1\n              pop\n              sstore\n              pop\n                /* \"RamzSwap/TImeLockedWalletFactory.sol\":2145:2160  claimableAmount */\n              dup1\n                /* \"RamzSwap/TImeLockedWalletFactory.sol\":2120:2141  address(this).balance */\n              selfbalance\n                /* \"RamzSwap/TImeLockedWalletFactory.sol\":2120:2160  address(this).balance >= claimableAmount */\n              lt\n              iszero\n                /* \"RamzSwap/TImeLockedWalletFactory.sol\":2112:2183  require(address(this).balance >= claimableAmount, \"Not enough balance\") */\n              tag_108\n              jumpi\n              mload(0x40)\n              shl(0xe5, 0x461bcd)\n              dup2\n              mstore\n                /* \"#utility.yul\":4039:4041   */\n              0x20\n                /* \"RamzSwap/TImeLockedWalletFactory.sol\":2112:2183  require(address(this).balance >= claimableAmount, \"Not enough balance\") */\n              0x04\n              dup3\n              add\n                /* \"#utility.yul\":4021:4042   */\n              mstore\n                /* \"#utility.yul\":4078:4080   */\n              0x12\n                /* \"#utility.yul\":4058:4076   */\n              0x24\n              dup3\n              add\n                /* \"#utility.yul\":4051:4081   */\n              mstore\n              shl(0x70, 0x4e6f7420656e6f7567682062616c616e6365)\n                /* \"#utility.yul\":4097:4115   */\n              0x44\n              dup3\n              add\n                /* \"#utility.yul\":4090:4138   */\n              mstore\n                /* \"#utility.yul\":4155:4173   */\n              0x64\n              add\n                /* \"RamzSwap/TImeLockedWalletFactory.sol\":2112:2183  require(address(this).balance >= claimableAmount, \"Not enough balance\") */\n              tag_21\n                /* \"#utility.yul\":3837:4179   */\n              jump\n                /* \"RamzSwap/TImeLockedWalletFactory.sol\":2112:2183  require(address(this).balance >= claimableAmount, \"Not enough balance\") */\n            tag_108:\n                /* \"RamzSwap/TImeLockedWalletFactory.sol\":2201:2206  owner */\n              0x00\n              dup1\n              sload\n                /* \"RamzSwap/TImeLockedWalletFactory.sol\":2193:2233  payable(owner).transfer(claimableAmount) */\n              mload(0x40)\n              sub(shl(0xa0, 0x01), 0x01)\n                /* \"RamzSwap/TImeLockedWalletFactory.sol\":2201:2206  owner */\n              swap1\n              swap2\n              and\n              swap2\n                /* \"RamzSwap/TImeLockedWalletFactory.sol\":2193:2233  payable(owner).transfer(claimableAmount) */\n              dup4\n              iszero\n              0x08fc\n              mul\n              swap2\n                /* \"RamzSwap/TImeLockedWalletFactory.sol\":2217:2232  claimableAmount */\n              dup5\n              swap2\n                /* \"RamzSwap/TImeLockedWalletFactory.sol\":2193:2233  payable(owner).transfer(claimableAmount) */\n              dup2\n                /* \"RamzSwap/TImeLockedWalletFactory.sol\":2201:2206  owner */\n              dup2\n                /* \"RamzSwap/TImeLockedWalletFactory.sol\":2193:2233  payable(owner).transfer(claimableAmount) */\n              dup2\n                /* \"RamzSwap/TImeLockedWalletFactory.sol\":2217:2232  claimableAmount */\n              dup6\n                /* \"RamzSwap/TImeLockedWalletFactory.sol\":2201:2206  owner */\n              dup9\n                /* \"RamzSwap/TImeLockedWalletFactory.sol\":2193:2233  payable(owner).transfer(claimableAmount) */\n              dup9\n              call\n              swap4\n              pop\n              pop\n              pop\n              pop\n              iszero\n              dup1\n              iszero\n              tag_112\n              jumpi\n              returndatasize\n              0x00\n              dup1\n              returndatacopy\n              revert(0x00, returndatasize)\n            tag_112:\n              pop\n                /* \"RamzSwap/TImeLockedWalletFactory.sol\":1299:2240  {... */\n              pop\n                /* \"RamzSwap/TImeLockedWalletFactory.sol\":1273:2240  function claim() external {... */\n              jump\t// out\n                /* \"RamzSwap/TImeLockedWalletFactory.sol\":1065:1267  function deposit() external payable {... */\n            tag_67:\n                /* \"RamzSwap/TImeLockedWalletFactory.sol\":1133:1138  owner */\n              and(sub(shl(0xa0, 0x01), 0x01), sload(0x00))\n                /* \"RamzSwap/TImeLockedWalletFactory.sol\":1119:1129  msg.sender */\n              caller\n                /* \"RamzSwap/TImeLockedWalletFactory.sol\":1119:1138  msg.sender == owner */\n              eq\n                /* \"RamzSwap/TImeLockedWalletFactory.sol\":1111:1165  require(msg.sender == owner, \"Only owner can deposit\") */\n              tag_115\n              jumpi\n              mload(0x40)\n              shl(0xe5, 0x461bcd)\n              dup2\n              mstore\n                /* \"#utility.yul\":216:218   */\n              0x20\n                /* \"RamzSwap/TImeLockedWalletFactory.sol\":1111:1165  require(msg.sender == owner, \"Only owner can deposit\") */\n              0x04\n              dup3\n              add\n                /* \"#utility.yul\":198:219   */\n              mstore\n                /* \"#utility.yul\":255:257   */\n              0x16\n                /* \"#utility.yul\":235:253   */\n              0x24\n              dup3\n              add\n                /* \"#utility.yul\":228:258   */\n              mstore\n              shl(0x52, 0x13db9b1e481bdddb995c8818d85b8819195c1bdcda5d)\n                /* \"#utility.yul\":274:292   */\n              0x44\n              dup3\n              add\n                /* \"#utility.yul\":267:319   */\n              mstore\n                /* \"#utility.yul\":336:354   */\n              0x64\n              add\n                /* \"RamzSwap/TImeLockedWalletFactory.sol\":1111:1165  require(msg.sender == owner, \"Only owner can deposit\") */\n              tag_21\n                /* \"#utility.yul\":14:360   */\n              jump\n                /* \"RamzSwap/TImeLockedWalletFactory.sol\":1111:1165  require(msg.sender == owner, \"Only owner can deposit\") */\n            tag_115:\n                /* \"RamzSwap/TImeLockedWalletFactory.sol\":1184:1195  lockExpired */\n              and(0xff, sload(0x09))\n                /* \"RamzSwap/TImeLockedWalletFactory.sol\":1183:1195  !lockExpired */\n              iszero\n                /* \"RamzSwap/TImeLockedWalletFactory.sol\":1175:1225  require(!lockExpired, \"This contract has expired\") */\n              tag_117\n              jumpi\n              mload(0x40)\n              shl(0xe5, 0x461bcd)\n              dup2\n              mstore\n                /* \"#utility.yul\":2846:2848   */\n              0x20\n                /* \"RamzSwap/TImeLockedWalletFactory.sol\":1175:1225  require(!lockExpired, \"This contract has expired\") */\n              0x04\n              dup3\n              add\n                /* \"#utility.yul\":2828:2849   */\n              mstore\n                /* \"#utility.yul\":2885:2887   */\n              0x19\n                /* \"#utility.yul\":2865:2883   */\n              0x24\n              dup3\n              add\n                /* \"#utility.yul\":2858:2888   */\n              mstore\n              shl(0x3a, 0x151a1a5cc818dbdb9d1c9858dd081a185cc8195e1c1a5c9959)\n                /* \"#utility.yul\":2904:2922   */\n              0x44\n              dup3\n              add\n                /* \"#utility.yul\":2897:2952   */\n              mstore\n                /* \"#utility.yul\":2969:2987   */\n              0x64\n              add\n                /* \"RamzSwap/TImeLockedWalletFactory.sol\":1175:1225  require(!lockExpired, \"This contract has expired\") */\n              tag_21\n                /* \"#utility.yul\":2644:2993   */\n              jump\n                /* \"RamzSwap/TImeLockedWalletFactory.sol\":1175:1225  require(!lockExpired, \"This contract has expired\") */\n            tag_117:\n                /* \"RamzSwap/TImeLockedWalletFactory.sol\":1251:1260  msg.value */\n              callvalue\n                /* \"RamzSwap/TImeLockedWalletFactory.sol\":1235:1247  totalBalance */\n              0x03\n              0x00\n                /* \"RamzSwap/TImeLockedWalletFactory.sol\":1235:1260  totalBalance += msg.value */\n              dup3\n              dup3\n              sload\n              tag_119\n              swap2\n              swap1\n              tag_83\n              jump\t// in\n            tag_119:\n              swap1\n              swap2\n              sstore\n              pop\n              pop\n                /* \"RamzSwap/TImeLockedWalletFactory.sol\":1065:1267  function deposit() external payable {... */\n              jump\t// out\n                /* \"#utility.yul\":1868:1995   */\n            tag_120:\n                /* \"#utility.yul\":1929:1939   */\n              0x4e487b71\n                /* \"#utility.yul\":1924:1927   */\n              0xe0\n                /* \"#utility.yul\":1920:1940   */\n              shl\n                /* \"#utility.yul\":1917:1918   */\n              0x00\n                /* \"#utility.yul\":1910:1941   */\n              mstore\n                /* \"#utility.yul\":1960:1964   */\n              0x11\n                /* \"#utility.yul\":1957:1958   */\n              0x04\n                /* \"#utility.yul\":1950:1965   */\n              mstore\n                /* \"#utility.yul\":1984:1988   */\n              0x24\n                /* \"#utility.yul\":1981:1982   */\n              0x00\n                /* \"#utility.yul\":1974:1989   */\n              revert\n                /* \"#utility.yul\":2000:2168   */\n            tag_81:\n                /* \"#utility.yul\":2073:2082   */\n              dup1\n              dup3\n              mul\n                /* \"#utility.yul\":2104:2113   */\n              dup2\n              iszero\n                /* \"#utility.yul\":2121:2136   */\n              dup3\n              dup3\n              div\n                /* \"#utility.yul\":2115:2137   */\n              dup5\n              eq\n                /* \"#utility.yul\":2101:2138   */\n              or\n                /* \"#utility.yul\":2091:2162   */\n              tag_131\n              jumpi\n                /* \"#utility.yul\":2142:2160   */\n              tag_131\n              tag_120\n              jump\t// in\n            tag_131:\n                /* \"#utility.yul\":2000:2168   */\n              swap3\n              swap2\n              pop\n              pop\n              jump\t// out\n                /* \"#utility.yul\":2173:2298   */\n            tag_83:\n                /* \"#utility.yul\":2238:2247   */\n              dup1\n              dup3\n              add\n                /* \"#utility.yul\":2259:2269   */\n              dup1\n              dup3\n              gt\n                /* \"#utility.yul\":2256:2292   */\n              iszero\n              tag_131\n              jumpi\n                /* \"#utility.yul\":2272:2290   */\n              tag_131\n              tag_120\n              jump\t// in\n                /* \"#utility.yul\":3342:3470   */\n            tag_95:\n                /* \"#utility.yul\":3409:3418   */\n              dup2\n              dup2\n              sub\n                /* \"#utility.yul\":3430:3441   */\n              dup2\n              dup2\n              gt\n                /* \"#utility.yul\":3427:3464   */\n              iszero\n              tag_131\n              jumpi\n                /* \"#utility.yul\":3444:3462   */\n              tag_131\n              tag_120\n              jump\t// in\n                /* \"#utility.yul\":3475:3692   */\n            tag_101:\n                /* \"#utility.yul\":3515:3516   */\n              0x00\n                /* \"#utility.yul\":3541:3542   */\n              dup3\n                /* \"#utility.yul\":3531:3663   */\n              tag_142\n              jumpi\n                /* \"#utility.yul\":3585:3595   */\n              0x4e487b71\n                /* \"#utility.yul\":3580:3583   */\n              0xe0\n                /* \"#utility.yul\":3576:3596   */\n              shl\n                /* \"#utility.yul\":3573:3574   */\n              0x00\n                /* \"#utility.yul\":3566:3597   */\n              mstore\n                /* \"#utility.yul\":3620:3624   */\n              0x12\n                /* \"#utility.yul\":3617:3618   */\n              0x04\n                /* \"#utility.yul\":3610:3625   */\n              mstore\n                /* \"#utility.yul\":3648:3652   */\n              0x24\n                /* \"#utility.yul\":3645:3646   */\n              0x00\n                /* \"#utility.yul\":3638:3653   */\n              revert\n                /* \"#utility.yul\":3531:3663   */\n            tag_142:\n              pop\n                /* \"#utility.yul\":3677:3686   */\n              div\n              swap1\n                /* \"#utility.yul\":3475:3692   */\n              jump\t// out\n                /* \"#utility.yul\":3697:3832   */\n            tag_107:\n                /* \"#utility.yul\":3736:3739   */\n              0x00\n                /* \"#utility.yul\":3757:3774   */\n              0x01\n              dup3\n              add\n                /* \"#utility.yul\":3754:3797   */\n              tag_145\n              jumpi\n                /* \"#utility.yul\":3777:3795   */\n              tag_145\n              tag_120\n              jump\t// in\n            tag_145:\n              pop\n                /* \"#utility.yul\":3824:3825   */\n              0x01\n                /* \"#utility.yul\":3813:3826   */\n              add\n              swap1\n                /* \"#utility.yul\":3697:3832   */\n              jump\t// out\n\n            auxdata: 0xa2646970667358221220e84a9de2df00f150f84d32a1a63f20740ae52847825b9199501c8d6e075f5d0564736f6c63430008110033\n        }\n    }\n\n    auxdata: 0xa26469706673582212200f028a92f399d18fecb64c8bb286c47c2afd0e0470169a939a5729fc4e6adcea64736f6c63430008110033\n}\n",
				"bytecode": {
					"linkReferences": {},
					"object": "608060405234801561001057600080fd5b50610c47806100206000396000f3fe608060405234801561001057600080fd5b50600436106100575760003560e01c80630155e0981461005c578063422c29a41461008c578063449a4762146100ac5780639d025485146100c1578063d25739e8146100d8575b600080fd5b61006f61006a3660046102f2565b610101565b6040516001600160a01b0390911681526020015b60405180910390f35b61009f61009a36600461031c565b610139565b604051610083919061033e565b6100bf6100ba36600461038b565b6101af565b005b6100ca60005481565b604051908152602001610083565b61006f6100e63660046103b7565b6002602052600090815260409020546001600160a01b031681565b6001602052816000526040600020818154811061011d57600080fd5b6000918252602090912001546001600160a01b03169150829050565b6001600160a01b0381166000908152600160209081526040918290208054835181840281018401909452808452606093928301828280156101a357602002820191906000526020600020905b81546001600160a01b03168152600190910190602001808311610185575b50505050509050919050565b6000338484846040516101c1906102c9565b6001600160a01b039094168452602084019290925260408301526060820152608001604051809103906000f0801580156101ff573d6000803e3d6000fd5b50336000908152600160208181526040832080549283018155835282200180546001600160a01b0319166001600160a01b038416179055805491925080610245836103d0565b90915550506000805481526002602090815260409182902080546001600160a01b0319166001600160a01b03851690811790915582513381529182015290810185905260608101849052608081018390527f288a9688990049230568e550fa1be867231c9ae905a829db998fc0dcf223b88a9060a00160405180910390a150505050565b61081a806103f883390190565b80356001600160a01b03811681146102ed57600080fd5b919050565b6000806040838503121561030557600080fd5b61030e836102d6565b946020939093013593505050565b60006020828403121561032e57600080fd5b610337826102d6565b9392505050565b6020808252825182820181905260009190848201906040850190845b8181101561037f5783516001600160a01b03168352928401929184019160010161035a565b50909695505050505050565b6000806000606084860312156103a057600080fd5b505081359360208301359350604090920135919050565b6000602082840312156103c957600080fd5b5035919050565b6000600182016103f057634e487b7160e01b600052601160045260246000fd5b506001019056fe608060405234801561001057600080fd5b5060405161081a38038061081a83398101604081905261002f916100c6565b600181116100835760405162461bcd60e51b815260206004820152601660248201527f4e65656420746f206265206174206c6561737420312500000000000000000000604482015260640160405180910390fd5b600080546001600160a01b0319166001600160a01b0386161790554260015560028390556100b2816064610111565b600455600591909155600655506101339050565b600080600080608085870312156100dc57600080fd5b84516001600160a01b03811681146100f357600080fd5b60208601516040870151606090970151919890975090945092505050565b60008261012e57634e487b7160e01b600052601260045260246000fd5b500490565b6106d8806101426000396000f3fe6080604052600436106100c65760003560e01c8063ad7a672f1161007f578063c1b544c111610059578063c1b544c114610278578063d0e30db01461028e578063d8270dce14610296578063ee82f3f4146102ac57600080fd5b8063ad7a672f14610222578063bb025a3f14610238578063bdc608d61461026257600080fd5b80630640d9411461012a5780634e71d92d146101535780635a9b0b89146101685780635f41e81d146101be5780638da5cb5b146101d457806391f3f0591461020c57600080fd5b36610125576000546001600160a01b031633146101235760405162461bcd60e51b815260206004820152601660248201527513db9b1e481bdddb995c8818d85b8819195c1bdcda5d60521b60448201526064015b60405180910390fd5b005b600080fd5b34801561013657600080fd5b5061014060055481565b6040519081526020015b60405180910390f35b34801561015f57600080fd5b506101236102c2565b34801561017457600080fd5b50600054600254600454600554600654600354604080516001600160a01b0390971687526020870195909552938501929092526060840152608083015260a082015260c00161014a565b3480156101ca57600080fd5b5061014060025481565b3480156101e057600080fd5b506000546101f4906001600160a01b031681565b6040516001600160a01b03909116815260200161014a565b34801561021857600080fd5b5061014060045481565b34801561022e57600080fd5b5061014060035481565b34801561024457600080fd5b506009546102529060ff1681565b604051901515815260200161014a565b34801561026e57600080fd5b5061014060065481565b34801561028457600080fd5b5061014060085481565b610123610553565b3480156102a257600080fd5b5061014060015481565b3480156102b857600080fd5b5061014060075481565b6000546001600160a01b0316331461031c5760405162461bcd60e51b815260206004820152601a60248201527f4f6e6c79206f776e65722063616e20636c61696d2066756e6473000000000000604482015260640161011a565b60055460085461032c9190610624565b60025460015461033c9190610641565b6103469190610641565b4210156103845760405162461bcd60e51b815260206004820152600c60248201526b139bdd081d1a5b59481e595d60a21b604482015260640161011a565b60095460ff16156103d35760405162461bcd60e51b8152602060048201526019602482015278151a1a5cc818dbdb9d1c9858dd081a185cc8195e1c1a5c9959603a1b604482015260640161011a565b60035460075403610425576009805460ff1916600117905560405162461bcd60e51b815260206004820152600f60248201526e105b1c9958591e4818db185a5b5959608a1b604482015260640161011a565b600060016004546104369190610654565b600854036104865760646006546008546104509190610624565b61045b906064610654565b6003546104689190610624565b6104729190610667565b6009805460ff1916600117905590506104a5565b60646006546003546104989190610624565b6104a29190610667565b90505b80600760008282546104b79190610641565b9091555050600880549060006104cc83610689565b9190505550804710156105165760405162461bcd60e51b81526020600482015260126024820152714e6f7420656e6f7567682062616c616e636560701b604482015260640161011a565b600080546040516001600160a01b039091169183156108fc02918491818181858888f1935050505015801561054f573d6000803e3d6000fd5b5050565b6000546001600160a01b031633146105a65760405162461bcd60e51b815260206004820152601660248201527513db9b1e481bdddb995c8818d85b8819195c1bdcda5d60521b604482015260640161011a565b60095460ff16156105f55760405162461bcd60e51b8152602060048201526019602482015278151a1a5cc818dbdb9d1c9858dd081a185cc8195e1c1a5c9959603a1b604482015260640161011a565b34600360008282546106079190610641565b9091555050565b634e487b7160e01b600052601160045260246000fd5b808202811582820484141761063b5761063b61060e565b92915050565b8082018082111561063b5761063b61060e565b8181038181111561063b5761063b61060e565b60008261068457634e487b7160e01b600052601260045260246000fd5b500490565b60006001820161069b5761069b61060e565b506001019056fea2646970667358221220e84a9de2df00f150f84d32a1a63f20740ae52847825b9199501c8d6e075f5d0564736f6c63430008110033a26469706673582212200f028a92f399d18fecb64c8bb286c47c2afd0e0470169a939a5729fc4e6adcea64736f6c63430008110033",
					"opcodes": "PUSH1 0x80 PUSH1 0x40 MSTORE CALLVALUE DUP1 ISZERO PUSH2 0x10 JUMPI PUSH1 0x0 DUP1 REVERT JUMPDEST POP PUSH2 0xC47 DUP1 PUSH2 0x20 PUSH1 0x0 CODECOPY PUSH1 0x0 RETURN INVALID PUSH1 0x80 PUSH1 0x40 MSTORE CALLVALUE DUP1 ISZERO PUSH2 0x10 JUMPI PUSH1 0x0 DUP1 REVERT JUMPDEST POP PUSH1 0x4 CALLDATASIZE LT PUSH2 0x57 JUMPI PUSH1 0x0 CALLDATALOAD PUSH1 0xE0 SHR DUP1 PUSH4 0x155E098 EQ PUSH2 0x5C JUMPI DUP1 PUSH4 0x422C29A4 EQ PUSH2 0x8C JUMPI DUP1 PUSH4 0x449A4762 EQ PUSH2 0xAC JUMPI DUP1 PUSH4 0x9D025485 EQ PUSH2 0xC1 JUMPI DUP1 PUSH4 0xD25739E8 EQ PUSH2 0xD8 JUMPI JUMPDEST PUSH1 0x0 DUP1 REVERT JUMPDEST PUSH2 0x6F PUSH2 0x6A CALLDATASIZE PUSH1 0x4 PUSH2 0x2F2 JUMP JUMPDEST PUSH2 0x101 JUMP JUMPDEST PUSH1 0x40 MLOAD PUSH1 0x1 PUSH1 0x1 PUSH1 0xA0 SHL SUB SWAP1 SWAP2 AND DUP2 MSTORE PUSH1 0x20 ADD JUMPDEST PUSH1 0x40 MLOAD DUP1 SWAP2 SUB SWAP1 RETURN JUMPDEST PUSH2 0x9F PUSH2 0x9A CALLDATASIZE PUSH1 0x4 PUSH2 0x31C JUMP JUMPDEST PUSH2 0x139 JUMP JUMPDEST PUSH1 0x40 MLOAD PUSH2 0x83 SWAP2 SWAP1 PUSH2 0x33E JUMP JUMPDEST PUSH2 0xBF PUSH2 0xBA CALLDATASIZE PUSH1 0x4 PUSH2 0x38B JUMP JUMPDEST PUSH2 0x1AF JUMP JUMPDEST STOP JUMPDEST PUSH2 0xCA PUSH1 0x0 SLOAD DUP2 JUMP JUMPDEST PUSH1 0x40 MLOAD SWAP1 DUP2 MSTORE PUSH1 0x20 ADD PUSH2 0x83 JUMP JUMPDEST PUSH2 0x6F PUSH2 0xE6 CALLDATASIZE PUSH1 0x4 PUSH2 0x3B7 JUMP JUMPDEST PUSH1 0x2 PUSH1 0x20 MSTORE PUSH1 0x0 SWAP1 DUP2 MSTORE PUSH1 0x40 SWAP1 KECCAK256 SLOAD PUSH1 0x1 PUSH1 0x1 PUSH1 0xA0 SHL SUB AND DUP2 JUMP JUMPDEST PUSH1 0x1 PUSH1 0x20 MSTORE DUP2 PUSH1 0x0 MSTORE PUSH1 0x40 PUSH1 0x0 KECCAK256 DUP2 DUP2 SLOAD DUP2 LT PUSH2 0x11D JUMPI PUSH1 0x0 DUP1 REVERT JUMPDEST PUSH1 0x0 SWAP2 DUP3 MSTORE PUSH1 0x20 SWAP1 SWAP2 KECCAK256 ADD SLOAD PUSH1 0x1 PUSH1 0x1 PUSH1 0xA0 SHL SUB AND SWAP2 POP DUP3 SWAP1 POP JUMP JUMPDEST PUSH1 0x1 PUSH1 0x1 PUSH1 0xA0 SHL SUB DUP2 AND PUSH1 0x0 SWAP1 DUP2 MSTORE PUSH1 0x1 PUSH1 0x20 SWAP1 DUP2 MSTORE PUSH1 0x40 SWAP2 DUP3 SWAP1 KECCAK256 DUP1 SLOAD DUP4 MLOAD DUP2 DUP5 MUL DUP2 ADD DUP5 ADD SWAP1 SWAP5 MSTORE DUP1 DUP5 MSTORE PUSH1 0x60 SWAP4 SWAP3 DUP4 ADD DUP3 DUP3 DUP1 ISZERO PUSH2 0x1A3 JUMPI PUSH1 0x20 MUL DUP3 ADD SWAP2 SWAP1 PUSH1 0x0 MSTORE PUSH1 0x20 PUSH1 0x0 KECCAK256 SWAP1 JUMPDEST DUP2 SLOAD PUSH1 0x1 PUSH1 0x1 PUSH1 0xA0 SHL SUB AND DUP2 MSTORE PUSH1 0x1 SWAP1 SWAP2 ADD SWAP1 PUSH1 0x20 ADD DUP1 DUP4 GT PUSH2 0x185 JUMPI JUMPDEST POP POP POP POP POP SWAP1 POP SWAP2 SWAP1 POP JUMP JUMPDEST PUSH1 0x0 CALLER DUP5 DUP5 DUP5 PUSH1 0x40 MLOAD PUSH2 0x1C1 SWAP1 PUSH2 0x2C9 JUMP JUMPDEST PUSH1 0x1 PUSH1 0x1 PUSH1 0xA0 SHL SUB SWAP1 SWAP5 AND DUP5 MSTORE PUSH1 0x20 DUP5 ADD SWAP3 SWAP1 SWAP3 MSTORE PUSH1 0x40 DUP4 ADD MSTORE PUSH1 0x60 DUP3 ADD MSTORE PUSH1 0x80 ADD PUSH1 0x40 MLOAD DUP1 SWAP2 SUB SWAP1 PUSH1 0x0 CREATE DUP1 ISZERO DUP1 ISZERO PUSH2 0x1FF JUMPI RETURNDATASIZE PUSH1 0x0 DUP1 RETURNDATACOPY RETURNDATASIZE PUSH1 0x0 REVERT JUMPDEST POP CALLER PUSH1 0x0 SWAP1 DUP2 MSTORE PUSH1 0x1 PUSH1 0x20 DUP2 DUP2 MSTORE PUSH1 0x40 DUP4 KECCAK256 DUP1 SLOAD SWAP3 DUP4 ADD DUP2 SSTORE DUP4 MSTORE DUP3 KECCAK256 ADD DUP1 SLOAD PUSH1 0x1 PUSH1 0x1 PUSH1 0xA0 SHL SUB NOT AND PUSH1 0x1 PUSH1 0x1 PUSH1 0xA0 SHL SUB DUP5 AND OR SWAP1 SSTORE DUP1 SLOAD SWAP2 SWAP3 POP DUP1 PUSH2 0x245 DUP4 PUSH2 0x3D0 JUMP JUMPDEST SWAP1 SWAP2 SSTORE POP POP PUSH1 0x0 DUP1 SLOAD DUP2 MSTORE PUSH1 0x2 PUSH1 0x20 SWAP1 DUP2 MSTORE PUSH1 0x40 SWAP2 DUP3 SWAP1 KECCAK256 DUP1 SLOAD PUSH1 0x1 PUSH1 0x1 PUSH1 0xA0 SHL SUB NOT AND PUSH1 0x1 PUSH1 0x1 PUSH1 0xA0 SHL SUB DUP6 AND SWAP1 DUP2 OR SWAP1 SWAP2 SSTORE DUP3 MLOAD CALLER DUP2 MSTORE SWAP2 DUP3 ADD MSTORE SWAP1 DUP2 ADD DUP6 SWAP1 MSTORE PUSH1 0x60 DUP2 ADD DUP5 SWAP1 MSTORE PUSH1 0x80 DUP2 ADD DUP4 SWAP1 MSTORE PUSH32 0x288A9688990049230568E550FA1BE867231C9AE905A829DB998FC0DCF223B88A SWAP1 PUSH1 0xA0 ADD PUSH1 0x40 MLOAD DUP1 SWAP2 SUB SWAP1 LOG1 POP POP POP POP JUMP JUMPDEST PUSH2 0x81A DUP1 PUSH2 0x3F8 DUP4 CODECOPY ADD SWAP1 JUMP JUMPDEST DUP1 CALLDATALOAD PUSH1 0x1 PUSH1 0x1 PUSH1 0xA0 SHL SUB DUP2 AND DUP2 EQ PUSH2 0x2ED JUMPI PUSH1 0x0 DUP1 REVERT JUMPDEST SWAP2 SWAP1 POP JUMP JUMPDEST PUSH1 0x0 DUP1 PUSH1 0x40 DUP4 DUP6 SUB SLT ISZERO PUSH2 0x305 JUMPI PUSH1 0x0 DUP1 REVERT JUMPDEST PUSH2 0x30E DUP4 PUSH2 0x2D6 JUMP JUMPDEST SWAP5 PUSH1 0x20 SWAP4 SWAP1 SWAP4 ADD CALLDATALOAD SWAP4 POP POP POP JUMP JUMPDEST PUSH1 0x0 PUSH1 0x20 DUP3 DUP5 SUB SLT ISZERO PUSH2 0x32E JUMPI PUSH1 0x0 DUP1 REVERT JUMPDEST PUSH2 0x337 DUP3 PUSH2 0x2D6 JUMP JUMPDEST SWAP4 SWAP3 POP POP POP JUMP JUMPDEST PUSH1 0x20 DUP1 DUP3 MSTORE DUP3 MLOAD DUP3 DUP3 ADD DUP2 SWAP1 MSTORE PUSH1 0x0 SWAP2 SWAP1 DUP5 DUP3 ADD SWAP1 PUSH1 0x40 DUP6 ADD SWAP1 DUP5 JUMPDEST DUP2 DUP2 LT ISZERO PUSH2 0x37F JUMPI DUP4 MLOAD PUSH1 0x1 PUSH1 0x1 PUSH1 0xA0 SHL SUB AND DUP4 MSTORE SWAP3 DUP5 ADD SWAP3 SWAP2 DUP5 ADD SWAP2 PUSH1 0x1 ADD PUSH2 0x35A JUMP JUMPDEST POP SWAP1 SWAP7 SWAP6 POP POP POP POP POP POP JUMP JUMPDEST PUSH1 0x0 DUP1 PUSH1 0x0 PUSH1 0x60 DUP5 DUP7 SUB SLT ISZERO PUSH2 0x3A0 JUMPI PUSH1 0x0 DUP1 REVERT JUMPDEST POP POP DUP2 CALLDATALOAD SWAP4 PUSH1 0x20 DUP4 ADD CALLDATALOAD SWAP4 POP PUSH1 0x40 SWAP1 SWAP3 ADD CALLDATALOAD SWAP2 SWAP1 POP JUMP JUMPDEST PUSH1 0x0 PUSH1 0x20 DUP3 DUP5 SUB SLT ISZERO PUSH2 0x3C9 JUMPI PUSH1 0x0 DUP1 REVERT JUMPDEST POP CALLDATALOAD SWAP2 SWAP1 POP JUMP JUMPDEST PUSH1 0x0 PUSH1 0x1 DUP3 ADD PUSH2 0x3F0 JUMPI PUSH4 0x4E487B71 PUSH1 0xE0 SHL PUSH1 0x0 MSTORE PUSH1 0x11 PUSH1 0x4 MSTORE PUSH1 0x24 PUSH1 0x0 REVERT JUMPDEST POP PUSH1 0x1 ADD SWAP1 JUMP INVALID PUSH1 0x80 PUSH1 0x40 MSTORE CALLVALUE DUP1 ISZERO PUSH2 0x10 JUMPI PUSH1 0x0 DUP1 REVERT JUMPDEST POP PUSH1 0x40 MLOAD PUSH2 0x81A CODESIZE SUB DUP1 PUSH2 0x81A DUP4 CODECOPY DUP2 ADD PUSH1 0x40 DUP2 SWAP1 MSTORE PUSH2 0x2F SWAP2 PUSH2 0xC6 JUMP JUMPDEST PUSH1 0x1 DUP2 GT PUSH2 0x83 JUMPI PUSH1 0x40 MLOAD PUSH3 0x461BCD PUSH1 0xE5 SHL DUP2 MSTORE PUSH1 0x20 PUSH1 0x4 DUP3 ADD MSTORE PUSH1 0x16 PUSH1 0x24 DUP3 ADD MSTORE PUSH32 0x4E65656420746F206265206174206C6561737420312500000000000000000000 PUSH1 0x44 DUP3 ADD MSTORE PUSH1 0x64 ADD PUSH1 0x40 MLOAD DUP1 SWAP2 SUB SWAP1 REVERT JUMPDEST PUSH1 0x0 DUP1 SLOAD PUSH1 0x1 PUSH1 0x1 PUSH1 0xA0 SHL SUB NOT AND PUSH1 0x1 PUSH1 0x1 PUSH1 0xA0 SHL SUB DUP7 AND OR SWAP1 SSTORE TIMESTAMP PUSH1 0x1 SSTORE PUSH1 0x2 DUP4 SWAP1 SSTORE PUSH2 0xB2 DUP2 PUSH1 0x64 PUSH2 0x111 JUMP JUMPDEST PUSH1 0x4 SSTORE PUSH1 0x5 SWAP2 SWAP1 SWAP2 SSTORE PUSH1 0x6 SSTORE POP PUSH2 0x133 SWAP1 POP JUMP JUMPDEST PUSH1 0x0 DUP1 PUSH1 0x0 DUP1 PUSH1 0x80 DUP6 DUP8 SUB SLT ISZERO PUSH2 0xDC JUMPI PUSH1 0x0 DUP1 REVERT JUMPDEST DUP5 MLOAD PUSH1 0x1 PUSH1 0x1 PUSH1 0xA0 SHL SUB DUP2 AND DUP2 EQ PUSH2 0xF3 JUMPI PUSH1 0x0 DUP1 REVERT JUMPDEST PUSH1 0x20 DUP7 ADD MLOAD PUSH1 0x40 DUP8 ADD MLOAD PUSH1 0x60 SWAP1 SWAP8 ADD MLOAD SWAP2 SWAP9 SWAP1 SWAP8 POP SWAP1 SWAP5 POP SWAP3 POP POP POP JUMP JUMPDEST PUSH1 0x0 DUP3 PUSH2 0x12E JUMPI PUSH4 0x4E487B71 PUSH1 0xE0 SHL PUSH1 0x0 MSTORE PUSH1 0x12 PUSH1 0x4 MSTORE PUSH1 0x24 PUSH1 0x0 REVERT JUMPDEST POP DIV SWAP1 JUMP JUMPDEST PUSH2 0x6D8 DUP1 PUSH2 0x142 PUSH1 0x0 CODECOPY PUSH1 0x0 RETURN INVALID PUSH1 0x80 PUSH1 0x40 MSTORE PUSH1 0x4 CALLDATASIZE LT PUSH2 0xC6 JUMPI PUSH1 0x0 CALLDATALOAD PUSH1 0xE0 SHR DUP1 PUSH4 0xAD7A672F GT PUSH2 0x7F JUMPI DUP1 PUSH4 0xC1B544C1 GT PUSH2 0x59 JUMPI DUP1 PUSH4 0xC1B544C1 EQ PUSH2 0x278 JUMPI DUP1 PUSH4 0xD0E30DB0 EQ PUSH2 0x28E JUMPI DUP1 PUSH4 0xD8270DCE EQ PUSH2 0x296 JUMPI DUP1 PUSH4 0xEE82F3F4 EQ PUSH2 0x2AC JUMPI PUSH1 0x0 DUP1 REVERT JUMPDEST DUP1 PUSH4 0xAD7A672F EQ PUSH2 0x222 JUMPI DUP1 PUSH4 0xBB025A3F EQ PUSH2 0x238 JUMPI DUP1 PUSH4 0xBDC608D6 EQ PUSH2 0x262 JUMPI PUSH1 0x0 DUP1 REVERT JUMPDEST DUP1 PUSH4 0x640D941 EQ PUSH2 0x12A JUMPI DUP1 PUSH4 0x4E71D92D EQ PUSH2 0x153 JUMPI DUP1 PUSH4 0x5A9B0B89 EQ PUSH2 0x168 JUMPI DUP1 PUSH4 0x5F41E81D EQ PUSH2 0x1BE JUMPI DUP1 PUSH4 0x8DA5CB5B EQ PUSH2 0x1D4 JUMPI DUP1 PUSH4 0x91F3F059 EQ PUSH2 0x20C JUMPI PUSH1 0x0 DUP1 REVERT JUMPDEST CALLDATASIZE PUSH2 0x125 JUMPI PUSH1 0x0 SLOAD PUSH1 0x1 PUSH1 0x1 PUSH1 0xA0 SHL SUB AND CALLER EQ PUSH2 0x123 JUMPI PUSH1 0x40 MLOAD PUSH3 0x461BCD PUSH1 0xE5 SHL DUP2 MSTORE PUSH1 0x20 PUSH1 0x4 DUP3 ADD MSTORE PUSH1 0x16 PUSH1 0x24 DUP3 ADD MSTORE PUSH22 0x13DB9B1E481BDDDB995C8818D85B8819195C1BDCDA5D PUSH1 0x52 SHL PUSH1 0x44 DUP3 ADD MSTORE PUSH1 0x64 ADD JUMPDEST PUSH1 0x40 MLOAD DUP1 SWAP2 SUB SWAP1 REVERT JUMPDEST STOP JUMPDEST PUSH1 0x0 DUP1 REVERT JUMPDEST CALLVALUE DUP1 ISZERO PUSH2 0x136 JUMPI PUSH1 0x0 DUP1 REVERT JUMPDEST POP PUSH2 0x140 PUSH1 0x5 SLOAD DUP2 JUMP JUMPDEST PUSH1 0x40 MLOAD SWAP1 DUP2 MSTORE PUSH1 0x20 ADD JUMPDEST PUSH1 0x40 MLOAD DUP1 SWAP2 SUB SWAP1 RETURN JUMPDEST CALLVALUE DUP1 ISZERO PUSH2 0x15F JUMPI PUSH1 0x0 DUP1 REVERT JUMPDEST POP PUSH2 0x123 PUSH2 0x2C2 JUMP JUMPDEST CALLVALUE DUP1 ISZERO PUSH2 0x174 JUMPI PUSH1 0x0 DUP1 REVERT JUMPDEST POP PUSH1 0x0 SLOAD PUSH1 0x2 SLOAD PUSH1 0x4 SLOAD PUSH1 0x5 SLOAD PUSH1 0x6 SLOAD PUSH1 0x3 SLOAD PUSH1 0x40 DUP1 MLOAD PUSH1 0x1 PUSH1 0x1 PUSH1 0xA0 SHL SUB SWAP1 SWAP8 AND DUP8 MSTORE PUSH1 0x20 DUP8 ADD SWAP6 SWAP1 SWAP6 MSTORE SWAP4 DUP6 ADD SWAP3 SWAP1 SWAP3 MSTORE PUSH1 0x60 DUP5 ADD MSTORE PUSH1 0x80 DUP4 ADD MSTORE PUSH1 0xA0 DUP3 ADD MSTORE PUSH1 0xC0 ADD PUSH2 0x14A JUMP JUMPDEST CALLVALUE DUP1 ISZERO PUSH2 0x1CA JUMPI PUSH1 0x0 DUP1 REVERT JUMPDEST POP PUSH2 0x140 PUSH1 0x2 SLOAD DUP2 JUMP JUMPDEST CALLVALUE DUP1 ISZERO PUSH2 0x1E0 JUMPI PUSH1 0x0 DUP1 REVERT JUMPDEST POP PUSH1 0x0 SLOAD PUSH2 0x1F4 SWAP1 PUSH1 0x1 PUSH1 0x1 PUSH1 0xA0 SHL SUB AND DUP2 JUMP JUMPDEST PUSH1 0x40 MLOAD PUSH1 0x1 PUSH1 0x1 PUSH1 0xA0 SHL SUB SWAP1 SWAP2 AND DUP2 MSTORE PUSH1 0x20 ADD PUSH2 0x14A JUMP JUMPDEST CALLVALUE DUP1 ISZERO PUSH2 0x218 JUMPI PUSH1 0x0 DUP1 REVERT JUMPDEST POP PUSH2 0x140 PUSH1 0x4 SLOAD DUP2 JUMP JUMPDEST CALLVALUE DUP1 ISZERO PUSH2 0x22E JUMPI PUSH1 0x0 DUP1 REVERT JUMPDEST POP PUSH2 0x140 PUSH1 0x3 SLOAD DUP2 JUMP JUMPDEST CALLVALUE DUP1 ISZERO PUSH2 0x244 JUMPI PUSH1 0x0 DUP1 REVERT JUMPDEST POP PUSH1 0x9 SLOAD PUSH2 0x252 SWAP1 PUSH1 0xFF AND DUP2 JUMP JUMPDEST PUSH1 0x40 MLOAD SWAP1 ISZERO ISZERO DUP2 MSTORE PUSH1 0x20 ADD PUSH2 0x14A JUMP JUMPDEST CALLVALUE DUP1 ISZERO PUSH2 0x26E JUMPI PUSH1 0x0 DUP1 REVERT JUMPDEST POP PUSH2 0x140 PUSH1 0x6 SLOAD DUP2 JUMP JUMPDEST CALLVALUE DUP1 ISZERO PUSH2 0x284 JUMPI PUSH1 0x0 DUP1 REVERT JUMPDEST POP PUSH2 0x140 PUSH1 0x8 SLOAD DUP2 JUMP JUMPDEST PUSH2 0x123 PUSH2 0x553 JUMP JUMPDEST CALLVALUE DUP1 ISZERO PUSH2 0x2A2 JUMPI PUSH1 0x0 DUP1 REVERT JUMPDEST POP PUSH2 0x140 PUSH1 0x1 SLOAD DUP2 JUMP JUMPDEST CALLVALUE DUP1 ISZERO PUSH2 0x2B8 JUMPI PUSH1 0x0 DUP1 REVERT JUMPDEST POP PUSH2 0x140 PUSH1 0x7 SLOAD DUP2 JUMP JUMPDEST PUSH1 0x0 SLOAD PUSH1 0x1 PUSH1 0x1 PUSH1 0xA0 SHL SUB AND CALLER EQ PUSH2 0x31C JUMPI PUSH1 0x40 MLOAD PUSH3 0x461BCD PUSH1 0xE5 SHL DUP2 MSTORE PUSH1 0x20 PUSH1 0x4 DUP3 ADD MSTORE PUSH1 0x1A PUSH1 0x24 DUP3 ADD MSTORE PUSH32 0x4F6E6C79206F776E65722063616E20636C61696D2066756E6473000000000000 PUSH1 0x44 DUP3 ADD MSTORE PUSH1 0x64 ADD PUSH2 0x11A JUMP JUMPDEST PUSH1 0x5 SLOAD PUSH1 0x8 SLOAD PUSH2 0x32C SWAP2 SWAP1 PUSH2 0x624 JUMP JUMPDEST PUSH1 0x2 SLOAD PUSH1 0x1 SLOAD PUSH2 0x33C SWAP2 SWAP1 PUSH2 0x641 JUMP JUMPDEST PUSH2 0x346 SWAP2 SWAP1 PUSH2 0x641 JUMP JUMPDEST TIMESTAMP LT ISZERO PUSH2 0x384 JUMPI PUSH1 0x40 MLOAD PUSH3 0x461BCD PUSH1 0xE5 SHL DUP2 MSTORE PUSH1 0x20 PUSH1 0x4 DUP3 ADD MSTORE PUSH1 0xC PUSH1 0x24 DUP3 ADD MSTORE PUSH12 0x139BDD081D1A5B59481E595D PUSH1 0xA2 SHL PUSH1 0x44 DUP3 ADD MSTORE PUSH1 0x64 ADD PUSH2 0x11A JUMP JUMPDEST PUSH1 0x9 SLOAD PUSH1 0xFF AND ISZERO PUSH2 0x3D3 JUMPI PUSH1 0x40 MLOAD PUSH3 0x461BCD PUSH1 0xE5 SHL DUP2 MSTORE PUSH1 0x20 PUSH1 0x4 DUP3 ADD MSTORE PUSH1 0x19 PUSH1 0x24 DUP3 ADD MSTORE PUSH25 0x151A1A5CC818DBDB9D1C9858DD081A185CC8195E1C1A5C9959 PUSH1 0x3A SHL PUSH1 0x44 DUP3 ADD MSTORE PUSH1 0x64 ADD PUSH2 0x11A JUMP JUMPDEST PUSH1 0x3 SLOAD PUSH1 0x7 SLOAD SUB PUSH2 0x425 JUMPI PUSH1 0x9 DUP1 SLOAD PUSH1 0xFF NOT AND PUSH1 0x1 OR SWAP1 SSTORE PUSH1 0x40 MLOAD PUSH3 0x461BCD PUSH1 0xE5 SHL DUP2 MSTORE PUSH1 0x20 PUSH1 0x4 DUP3 ADD MSTORE PUSH1 0xF PUSH1 0x24 DUP3 ADD MSTORE PUSH15 0x105B1C9958591E4818DB185A5B5959 PUSH1 0x8A SHL PUSH1 0x44 DUP3 ADD MSTORE PUSH1 0x64 ADD PUSH2 0x11A JUMP JUMPDEST PUSH1 0x0 PUSH1 0x1 PUSH1 0x4 SLOAD PUSH2 0x436 SWAP2 SWAP1 PUSH2 0x654 JUMP JUMPDEST PUSH1 0x8 SLOAD SUB PUSH2 0x486 JUMPI PUSH1 0x64 PUSH1 0x6 SLOAD PUSH1 0x8 SLOAD PUSH2 0x450 SWAP2 SWAP1 PUSH2 0x624 JUMP JUMPDEST PUSH2 0x45B SWAP1 PUSH1 0x64 PUSH2 0x654 JUMP JUMPDEST PUSH1 0x3 SLOAD PUSH2 0x468 SWAP2 SWAP1 PUSH2 0x624 JUMP JUMPDEST PUSH2 0x472 SWAP2 SWAP1 PUSH2 0x667 JUMP JUMPDEST PUSH1 0x9 DUP1 SLOAD PUSH1 0xFF NOT AND PUSH1 0x1 OR SWAP1 SSTORE SWAP1 POP PUSH2 0x4A5 JUMP JUMPDEST PUSH1 0x64 PUSH1 0x6 SLOAD PUSH1 0x3 SLOAD PUSH2 0x498 SWAP2 SWAP1 PUSH2 0x624 JUMP JUMPDEST PUSH2 0x4A2 SWAP2 SWAP1 PUSH2 0x667 JUMP JUMPDEST SWAP1 POP JUMPDEST DUP1 PUSH1 0x7 PUSH1 0x0 DUP3 DUP3 SLOAD PUSH2 0x4B7 SWAP2 SWAP1 PUSH2 0x641 JUMP JUMPDEST SWAP1 SWAP2 SSTORE POP POP PUSH1 0x8 DUP1 SLOAD SWAP1 PUSH1 0x0 PUSH2 0x4CC DUP4 PUSH2 0x689 JUMP JUMPDEST SWAP2 SWAP1 POP SSTORE POP DUP1 SELFBALANCE LT ISZERO PUSH2 0x516 JUMPI PUSH1 0x40 MLOAD PUSH3 0x461BCD PUSH1 0xE5 SHL DUP2 MSTORE PUSH1 0x20 PUSH1 0x4 DUP3 ADD MSTORE PUSH1 0x12 PUSH1 0x24 DUP3 ADD MSTORE PUSH18 0x4E6F7420656E6F7567682062616C616E6365 PUSH1 0x70 SHL PUSH1 0x44 DUP3 ADD MSTORE PUSH1 0x64 ADD PUSH2 0x11A JUMP JUMPDEST PUSH1 0x0 DUP1 SLOAD PUSH1 0x40 MLOAD PUSH1 0x1 PUSH1 0x1 PUSH1 0xA0 SHL SUB SWAP1 SWAP2 AND SWAP2 DUP4 ISZERO PUSH2 0x8FC MUL SWAP2 DUP5 SWAP2 DUP2 DUP2 DUP2 DUP6 DUP9 DUP9 CALL SWAP4 POP POP POP POP ISZERO DUP1 ISZERO PUSH2 0x54F JUMPI RETURNDATASIZE PUSH1 0x0 DUP1 RETURNDATACOPY RETURNDATASIZE PUSH1 0x0 REVERT JUMPDEST POP POP JUMP JUMPDEST PUSH1 0x0 SLOAD PUSH1 0x1 PUSH1 0x1 PUSH1 0xA0 SHL SUB AND CALLER EQ PUSH2 0x5A6 JUMPI PUSH1 0x40 MLOAD PUSH3 0x461BCD PUSH1 0xE5 SHL DUP2 MSTORE PUSH1 0x20 PUSH1 0x4 DUP3 ADD MSTORE PUSH1 0x16 PUSH1 0x24 DUP3 ADD MSTORE PUSH22 0x13DB9B1E481BDDDB995C8818D85B8819195C1BDCDA5D PUSH1 0x52 SHL PUSH1 0x44 DUP3 ADD MSTORE PUSH1 0x64 ADD PUSH2 0x11A JUMP JUMPDEST PUSH1 0x9 SLOAD PUSH1 0xFF AND ISZERO PUSH2 0x5F5 JUMPI PUSH1 0x40 MLOAD PUSH3 0x461BCD PUSH1 0xE5 SHL DUP2 MSTORE PUSH1 0x20 PUSH1 0x4 DUP3 ADD MSTORE PUSH1 0x19 PUSH1 0x24 DUP3 ADD MSTORE PUSH25 0x151A1A5CC818DBDB9D1C9858DD081A185CC8195E1C1A5C9959 PUSH1 0x3A SHL PUSH1 0x44 DUP3 ADD MSTORE PUSH1 0x64 ADD PUSH2 0x11A JUMP JUMPDEST CALLVALUE PUSH1 0x3 PUSH1 0x0 DUP3 DUP3 SLOAD PUSH2 0x607 SWAP2 SWAP1 PUSH2 0x641 JUMP JUMPDEST SWAP1 SWAP2 SSTORE POP POP JUMP JUMPDEST PUSH4 0x4E487B71 PUSH1 0xE0 SHL PUSH1 0x0 MSTORE PUSH1 0x11 PUSH1 0x4 MSTORE PUSH1 0x24 PUSH1 0x0 REVERT JUMPDEST DUP1 DUP3 MUL DUP2 ISZERO DUP3 DUP3 DIV DUP5 EQ OR PUSH2 0x63B JUMPI PUSH2 0x63B PUSH2 0x60E JUMP JUMPDEST SWAP3 SWAP2 POP POP JUMP JUMPDEST DUP1 DUP3 ADD DUP1 DUP3 GT ISZERO PUSH2 0x63B JUMPI PUSH2 0x63B PUSH2 0x60E JUMP JUMPDEST DUP2 DUP2 SUB DUP2 DUP2 GT ISZERO PUSH2 0x63B JUMPI PUSH2 0x63B PUSH2 0x60E JUMP JUMPDEST PUSH1 0x0 DUP3 PUSH2 0x684 JUMPI PUSH4 0x4E487B71 PUSH1 0xE0 SHL PUSH1 0x0 MSTORE PUSH1 0x12 PUSH1 0x4 MSTORE PUSH1 0x24 PUSH1 0x0 REVERT JUMPDEST POP DIV SWAP1 JUMP JUMPDEST PUSH1 0x0 PUSH1 0x1 DUP3 ADD PUSH2 0x69B JUMPI PUSH2 0x69B PUSH2 0x60E JUMP JUMPDEST POP PUSH1 0x1 ADD SWAP1 JUMP INVALID LOG2 PUSH5 0x6970667358 0x22 SLT KECCAK256 0xE8 0x4A SWAP14 0xE2 0xDF STOP CALL POP 0xF8 0x4D ORIGIN LOG1 0xA6 EXTCODEHASH KECCAK256 PUSH21 0xAE52847825B9199501C8D6E075F5D0564736F6C63 NUMBER STOP ADDMOD GT STOP CALLER LOG2 PUSH5 0x6970667358 0x22 SLT KECCAK256 0xF MUL DUP11 SWAP3 RETURN SWAP10 0xD1 DUP16 0xEC 0xB6 0x4C DUP12 0xB2 DUP7 0xC4 PUSH29 0x2AFD0E0470169A939A5729FC4E6ADCEA64736F6C634300081100330000 "
				},
				"gasEstimates": {
					"creation": {
						"codeDepositCost": "628600",
						"executionCost": "664",
						"totalCost": "629264"
					},
					"external": {
						"createTimeLockedWallet(uint256,uint256,uint256)": "infinite",
						"currentWalletId()": "2339",
						"getWallets(address)": "infinite",
						"timeLockedWallets(uint256)": "2532",
						"userWallets(address,uint256)": "4751"
					}
				},
				"methodIdentifiers": {
					"createTimeLockedWallet(uint256,uint256,uint256)": "449a4762",
					"currentWalletId()": "9d025485",
					"getWallets(address)": "422c29a4",
					"timeLockedWallets(uint256)": "d25739e8",
					"userWallets(address,uint256)": "0155e098"
				}
			},
			"storageLayout": {
				"storage": [
					{
						"astId": 239,
						"contract": "RamzSwap/TImeLockedWalletFactory.sol:TimeLockedWalletFactory",
						"label": "currentWalletId",
						"offset": 0,
						"slot": "0",
						"type": "t_uint256"
					},
					{
						"astId": 244,
						"contract": "RamzSwap/TImeLockedWalletFactory.sol:TimeLockedWalletFactory",
						"label": "userWallets",
						"offset": 0,
						"slot": "1",
						"type": "t_mapping(t_address,t_array(t_address)dyn_storage)"
					},
					{
						"astId": 248,
						"contract": "RamzSwap/TImeLockedWalletFactory.sol:TimeLockedWalletFactory",
						"label": "timeLockedWallets",
						"offset": 0,
						"slot": "2",
						"type": "t_mapping(t_uint256,t_address)"
					}
				],
				"types": {
					"t_address": {
						"encoding": "inplace",
						"label": "address",
						"numberOfBytes": "20"
					},
					"t_array(t_address)dyn_storage": {
						"base": "t_address",
						"encoding": "dynamic_array",
						"label": "address[]",
						"numberOfBytes": "32"
					},
					"t_mapping(t_address,t_array(t_address)dyn_storage)": {
						"encoding": "mapping",
						"key": "t_address",
						"label": "mapping(address => address[])",
						"numberOfBytes": "32",
						"value": "t_array(t_address)dyn_storage"
					},
					"t_mapping(t_uint256,t_address)": {
						"encoding": "mapping",
						"key": "t_uint256",
						"label": "mapping(uint256 => address)",
						"numberOfBytes": "32",
						"value": "t_address"
					},
					"t_uint256": {
						"encoding": "inplace",
						"label": "uint256",
						"numberOfBytes": "32"
					}
				}
			},
			"userdoc": {
				"kind": "user",
				"methods": {},
				"version": 1
			}
		}
	}
}