{
	"RamzSwapRouter.sol": {
		"RamzSwapRouter": {
			"abi": [
				{
					"inputs": [
						{
							"internalType": "address",
							"name": "_factory",
							"type": "address"
						},
						{
							"internalType": "address",
							"name": "_WMAAL",
							"type": "address"
						}
					],
					"stateMutability": "nonpayable",
					"type": "constructor"
				},
				{
					"inputs": [],
					"name": "WMAAL",
					"outputs": [
						{
							"internalType": "address",
							"name": "",
							"type": "address"
						}
					],
					"stateMutability": "view",
					"type": "function"
				},
				{
					"inputs": [
						{
							"internalType": "address",
							"name": "tokenA",
							"type": "address"
						},
						{
							"internalType": "address",
							"name": "tokenB",
							"type": "address"
						},
						{
							"internalType": "uint256",
							"name": "amountADesired",
							"type": "uint256"
						},
						{
							"internalType": "uint256",
							"name": "amountBDesired",
							"type": "uint256"
						},
						{
							"internalType": "uint256",
							"name": "amountAMin",
							"type": "uint256"
						},
						{
							"internalType": "uint256",
							"name": "amountBMin",
							"type": "uint256"
						},
						{
							"internalType": "address",
							"name": "to",
							"type": "address"
						},
						{
							"internalType": "uint256",
							"name": "deadline",
							"type": "uint256"
						}
					],
					"name": "addLiquidity",
					"outputs": [
						{
							"internalType": "uint256",
							"name": "amountA",
							"type": "uint256"
						},
						{
							"internalType": "uint256",
							"name": "amountB",
							"type": "uint256"
						},
						{
							"internalType": "uint256",
							"name": "liquidity",
							"type": "uint256"
						}
					],
					"stateMutability": "nonpayable",
					"type": "function"
				},
				{
					"inputs": [
						{
							"internalType": "address",
							"name": "token",
							"type": "address"
						},
						{
							"internalType": "uint256",
							"name": "amountTokenDesired",
							"type": "uint256"
						},
						{
							"internalType": "uint256",
							"name": "amountTokenMin",
							"type": "uint256"
						},
						{
							"internalType": "uint256",
							"name": "amountMAALMin",
							"type": "uint256"
						},
						{
							"internalType": "address",
							"name": "to",
							"type": "address"
						},
						{
							"internalType": "uint256",
							"name": "deadline",
							"type": "uint256"
						}
					],
					"name": "addLiquidityMAAL",
					"outputs": [
						{
							"internalType": "uint256",
							"name": "amountToken",
							"type": "uint256"
						},
						{
							"internalType": "uint256",
							"name": "amountMAAL",
							"type": "uint256"
						},
						{
							"internalType": "uint256",
							"name": "liquidity",
							"type": "uint256"
						}
					],
					"stateMutability": "payable",
					"type": "function"
				},
				{
					"inputs": [],
					"name": "factory",
					"outputs": [
						{
							"internalType": "address",
							"name": "",
							"type": "address"
						}
					],
					"stateMutability": "view",
					"type": "function"
				},
				{
					"inputs": [
						{
							"internalType": "uint256",
							"name": "amountOut",
							"type": "uint256"
						},
						{
							"internalType": "uint256",
							"name": "reserveIn",
							"type": "uint256"
						},
						{
							"internalType": "uint256",
							"name": "reserveOut",
							"type": "uint256"
						}
					],
					"name": "getAmountIn",
					"outputs": [
						{
							"internalType": "uint256",
							"name": "amountIn",
							"type": "uint256"
						}
					],
					"stateMutability": "pure",
					"type": "function"
				},
				{
					"inputs": [
						{
							"internalType": "uint256",
							"name": "amountIn",
							"type": "uint256"
						},
						{
							"internalType": "uint256",
							"name": "reserveIn",
							"type": "uint256"
						},
						{
							"internalType": "uint256",
							"name": "reserveOut",
							"type": "uint256"
						}
					],
					"name": "getAmountOut",
					"outputs": [
						{
							"internalType": "uint256",
							"name": "amountOut",
							"type": "uint256"
						}
					],
					"stateMutability": "pure",
					"type": "function"
				},
				{
					"inputs": [
						{
							"internalType": "uint256",
							"name": "amountOut",
							"type": "uint256"
						},
						{
							"internalType": "address[]",
							"name": "path",
							"type": "address[]"
						}
					],
					"name": "getAmountsIn",
					"outputs": [
						{
							"internalType": "uint256[]",
							"name": "amounts",
							"type": "uint256[]"
						}
					],
					"stateMutability": "view",
					"type": "function"
				},
				{
					"inputs": [
						{
							"internalType": "uint256",
							"name": "amountIn",
							"type": "uint256"
						},
						{
							"internalType": "address[]",
							"name": "path",
							"type": "address[]"
						}
					],
					"name": "getAmountsOut",
					"outputs": [
						{
							"internalType": "uint256[]",
							"name": "amounts",
							"type": "uint256[]"
						}
					],
					"stateMutability": "view",
					"type": "function"
				},
				{
					"inputs": [
						{
							"internalType": "uint256",
							"name": "amountA",
							"type": "uint256"
						},
						{
							"internalType": "uint256",
							"name": "reserveA",
							"type": "uint256"
						},
						{
							"internalType": "uint256",
							"name": "reserveB",
							"type": "uint256"
						}
					],
					"name": "quote",
					"outputs": [
						{
							"internalType": "uint256",
							"name": "amountB",
							"type": "uint256"
						}
					],
					"stateMutability": "pure",
					"type": "function"
				},
				{
					"inputs": [
						{
							"internalType": "address",
							"name": "tokenA",
							"type": "address"
						},
						{
							"internalType": "address",
							"name": "tokenB",
							"type": "address"
						},
						{
							"internalType": "uint256",
							"name": "liquidity",
							"type": "uint256"
						},
						{
							"internalType": "uint256",
							"name": "amountAMin",
							"type": "uint256"
						},
						{
							"internalType": "uint256",
							"name": "amountBMin",
							"type": "uint256"
						},
						{
							"internalType": "address",
							"name": "to",
							"type": "address"
						},
						{
							"internalType": "uint256",
							"name": "deadline",
							"type": "uint256"
						}
					],
					"name": "removeLiquidity",
					"outputs": [
						{
							"internalType": "uint256",
							"name": "amountA",
							"type": "uint256"
						},
						{
							"internalType": "uint256",
							"name": "amountB",
							"type": "uint256"
						}
					],
					"stateMutability": "nonpayable",
					"type": "function"
				},
				{
					"inputs": [
						{
							"internalType": "address",
							"name": "token",
							"type": "address"
						},
						{
							"internalType": "uint256",
							"name": "liquidity",
							"type": "uint256"
						},
						{
							"internalType": "uint256",
							"name": "amountTokenMin",
							"type": "uint256"
						},
						{
							"internalType": "uint256",
							"name": "amountMAALMin",
							"type": "uint256"
						},
						{
							"internalType": "address",
							"name": "to",
							"type": "address"
						},
						{
							"internalType": "uint256",
							"name": "deadline",
							"type": "uint256"
						}
					],
					"name": "removeLiquidityMAAL",
					"outputs": [
						{
							"internalType": "uint256",
							"name": "amountToken",
							"type": "uint256"
						},
						{
							"internalType": "uint256",
							"name": "amountMAAL",
							"type": "uint256"
						}
					],
					"stateMutability": "nonpayable",
					"type": "function"
				},
				{
					"inputs": [
						{
							"internalType": "address",
							"name": "token",
							"type": "address"
						},
						{
							"internalType": "uint256",
							"name": "liquidity",
							"type": "uint256"
						},
						{
							"internalType": "uint256",
							"name": "amountTokenMin",
							"type": "uint256"
						},
						{
							"internalType": "uint256",
							"name": "amountMAALMin",
							"type": "uint256"
						},
						{
							"internalType": "address",
							"name": "to",
							"type": "address"
						},
						{
							"internalType": "uint256",
							"name": "deadline",
							"type": "uint256"
						}
					],
					"name": "removeLiquidityMAALSupportingFeeOnTransferTokens",
					"outputs": [
						{
							"internalType": "uint256",
							"name": "amountMAAL",
							"type": "uint256"
						}
					],
					"stateMutability": "nonpayable",
					"type": "function"
				},
				{
					"inputs": [
						{
							"internalType": "address",
							"name": "token",
							"type": "address"
						},
						{
							"internalType": "uint256",
							"name": "liquidity",
							"type": "uint256"
						},
						{
							"internalType": "uint256",
							"name": "amountTokenMin",
							"type": "uint256"
						},
						{
							"internalType": "uint256",
							"name": "amountMAALMin",
							"type": "uint256"
						},
						{
							"internalType": "address",
							"name": "to",
							"type": "address"
						},
						{
							"internalType": "uint256",
							"name": "deadline",
							"type": "uint256"
						},
						{
							"internalType": "bool",
							"name": "approveMax",
							"type": "bool"
						},
						{
							"internalType": "uint8",
							"name": "v",
							"type": "uint8"
						},
						{
							"internalType": "bytes32",
							"name": "r",
							"type": "bytes32"
						},
						{
							"internalType": "bytes32",
							"name": "s",
							"type": "bytes32"
						}
					],
					"name": "removeLiquidityMAALWithPermit",
					"outputs": [
						{
							"internalType": "uint256",
							"name": "amountToken",
							"type": "uint256"
						},
						{
							"internalType": "uint256",
							"name": "amountMAAL",
							"type": "uint256"
						}
					],
					"stateMutability": "nonpayable",
					"type": "function"
				},
				{
					"inputs": [
						{
							"internalType": "address",
							"name": "token",
							"type": "address"
						},
						{
							"internalType": "uint256",
							"name": "liquidity",
							"type": "uint256"
						},
						{
							"internalType": "uint256",
							"name": "amountTokenMin",
							"type": "uint256"
						},
						{
							"internalType": "uint256",
							"name": "amountMAALMin",
							"type": "uint256"
						},
						{
							"internalType": "address",
							"name": "to",
							"type": "address"
						},
						{
							"internalType": "uint256",
							"name": "deadline",
							"type": "uint256"
						},
						{
							"internalType": "bool",
							"name": "approveMax",
							"type": "bool"
						},
						{
							"internalType": "uint8",
							"name": "v",
							"type": "uint8"
						},
						{
							"internalType": "bytes32",
							"name": "r",
							"type": "bytes32"
						},
						{
							"internalType": "bytes32",
							"name": "s",
							"type": "bytes32"
						}
					],
					"name": "removeLiquidityMAALWithPermitSupportingFeeOnTransferTokens",
					"outputs": [
						{
							"internalType": "uint256",
							"name": "amountMAAL",
							"type": "uint256"
						}
					],
					"stateMutability": "nonpayable",
					"type": "function"
				},
				{
					"inputs": [
						{
							"internalType": "address",
							"name": "tokenA",
							"type": "address"
						},
						{
							"internalType": "address",
							"name": "tokenB",
							"type": "address"
						},
						{
							"internalType": "uint256",
							"name": "liquidity",
							"type": "uint256"
						},
						{
							"internalType": "uint256",
							"name": "amountAMin",
							"type": "uint256"
						},
						{
							"internalType": "uint256",
							"name": "amountBMin",
							"type": "uint256"
						},
						{
							"internalType": "address",
							"name": "to",
							"type": "address"
						},
						{
							"internalType": "uint256",
							"name": "deadline",
							"type": "uint256"
						},
						{
							"internalType": "bool",
							"name": "approveMax",
							"type": "bool"
						},
						{
							"internalType": "uint8",
							"name": "v",
							"type": "uint8"
						},
						{
							"internalType": "bytes32",
							"name": "r",
							"type": "bytes32"
						},
						{
							"internalType": "bytes32",
							"name": "s",
							"type": "bytes32"
						}
					],
					"name": "removeLiquidityWithPermit",
					"outputs": [
						{
							"internalType": "uint256",
							"name": "amountA",
							"type": "uint256"
						},
						{
							"internalType": "uint256",
							"name": "amountB",
							"type": "uint256"
						}
					],
					"stateMutability": "nonpayable",
					"type": "function"
				},
				{
					"inputs": [
						{
							"internalType": "uint256",
							"name": "amountOutMin",
							"type": "uint256"
						},
						{
							"internalType": "address[]",
							"name": "path",
							"type": "address[]"
						},
						{
							"internalType": "address",
							"name": "to",
							"type": "address"
						},
						{
							"internalType": "uint256",
							"name": "deadline",
							"type": "uint256"
						}
					],
					"name": "swapExactMAALForTokens",
					"outputs": [
						{
							"internalType": "uint256[]",
							"name": "amounts",
							"type": "uint256[]"
						}
					],
					"stateMutability": "payable",
					"type": "function"
				},
				{
					"inputs": [
						{
							"internalType": "uint256",
							"name": "amountOutMin",
							"type": "uint256"
						},
						{
							"internalType": "address[]",
							"name": "path",
							"type": "address[]"
						},
						{
							"internalType": "address",
							"name": "to",
							"type": "address"
						},
						{
							"internalType": "uint256",
							"name": "deadline",
							"type": "uint256"
						}
					],
					"name": "swapExactMAALForTokensSupportingFeeOnTransferTokens",
					"outputs": [],
					"stateMutability": "payable",
					"type": "function"
				},
				{
					"inputs": [
						{
							"internalType": "uint256",
							"name": "amountIn",
							"type": "uint256"
						},
						{
							"internalType": "uint256",
							"name": "amountOutMin",
							"type": "uint256"
						},
						{
							"internalType": "address[]",
							"name": "path",
							"type": "address[]"
						},
						{
							"internalType": "address",
							"name": "to",
							"type": "address"
						},
						{
							"internalType": "uint256",
							"name": "deadline",
							"type": "uint256"
						}
					],
					"name": "swapExactTokensForMAAL",
					"outputs": [
						{
							"internalType": "uint256[]",
							"name": "amounts",
							"type": "uint256[]"
						}
					],
					"stateMutability": "nonpayable",
					"type": "function"
				},
				{
					"inputs": [
						{
							"internalType": "uint256",
							"name": "amountIn",
							"type": "uint256"
						},
						{
							"internalType": "uint256",
							"name": "amountOutMin",
							"type": "uint256"
						},
						{
							"internalType": "address[]",
							"name": "path",
							"type": "address[]"
						},
						{
							"internalType": "address",
							"name": "to",
							"type": "address"
						},
						{
							"internalType": "uint256",
							"name": "deadline",
							"type": "uint256"
						}
					],
					"name": "swapExactTokensForMAALSupportingFeeOnTransferTokens",
					"outputs": [],
					"stateMutability": "nonpayable",
					"type": "function"
				},
				{
					"inputs": [
						{
							"internalType": "uint256",
							"name": "amountIn",
							"type": "uint256"
						},
						{
							"internalType": "uint256",
							"name": "amountOutMin",
							"type": "uint256"
						},
						{
							"internalType": "address[]",
							"name": "path",
							"type": "address[]"
						},
						{
							"internalType": "address",
							"name": "to",
							"type": "address"
						},
						{
							"internalType": "uint256",
							"name": "deadline",
							"type": "uint256"
						}
					],
					"name": "swapExactTokensForTokens",
					"outputs": [
						{
							"internalType": "uint256[]",
							"name": "amounts",
							"type": "uint256[]"
						}
					],
					"stateMutability": "nonpayable",
					"type": "function"
				},
				{
					"inputs": [
						{
							"internalType": "uint256",
							"name": "amountIn",
							"type": "uint256"
						},
						{
							"internalType": "uint256",
							"name": "amountOutMin",
							"type": "uint256"
						},
						{
							"internalType": "address[]",
							"name": "path",
							"type": "address[]"
						},
						{
							"internalType": "address",
							"name": "to",
							"type": "address"
						},
						{
							"internalType": "uint256",
							"name": "deadline",
							"type": "uint256"
						}
					],
					"name": "swapExactTokensForTokensSupportingFeeOnTransferTokens",
					"outputs": [],
					"stateMutability": "nonpayable",
					"type": "function"
				},
				{
					"inputs": [
						{
							"internalType": "uint256",
							"name": "amountOut",
							"type": "uint256"
						},
						{
							"internalType": "address[]",
							"name": "path",
							"type": "address[]"
						},
						{
							"internalType": "address",
							"name": "to",
							"type": "address"
						},
						{
							"internalType": "uint256",
							"name": "deadline",
							"type": "uint256"
						}
					],
					"name": "swapMAALForExactTokens",
					"outputs": [
						{
							"internalType": "uint256[]",
							"name": "amounts",
							"type": "uint256[]"
						}
					],
					"stateMutability": "payable",
					"type": "function"
				},
				{
					"inputs": [
						{
							"internalType": "uint256",
							"name": "amountOut",
							"type": "uint256"
						},
						{
							"internalType": "uint256",
							"name": "amountInMax",
							"type": "uint256"
						},
						{
							"internalType": "address[]",
							"name": "path",
							"type": "address[]"
						},
						{
							"internalType": "address",
							"name": "to",
							"type": "address"
						},
						{
							"internalType": "uint256",
							"name": "deadline",
							"type": "uint256"
						}
					],
					"name": "swapTokensForExactMAAL",
					"outputs": [
						{
							"internalType": "uint256[]",
							"name": "amounts",
							"type": "uint256[]"
						}
					],
					"stateMutability": "nonpayable",
					"type": "function"
				},
				{
					"inputs": [
						{
							"internalType": "uint256",
							"name": "amountOut",
							"type": "uint256"
						},
						{
							"internalType": "uint256",
							"name": "amountInMax",
							"type": "uint256"
						},
						{
							"internalType": "address[]",
							"name": "path",
							"type": "address[]"
						},
						{
							"internalType": "address",
							"name": "to",
							"type": "address"
						},
						{
							"internalType": "uint256",
							"name": "deadline",
							"type": "uint256"
						}
					],
					"name": "swapTokensForExactTokens",
					"outputs": [
						{
							"internalType": "uint256[]",
							"name": "amounts",
							"type": "uint256[]"
						}
					],
					"stateMutability": "nonpayable",
					"type": "function"
				},
				{
					"stateMutability": "payable",
					"type": "receive"
				}
			],
			"devdoc": {
				"methods": {}
			},
			"evm": {
				"assembly": "    /* \"RamzSwapRouter.sol\":15371:33514  contract RamzSwapRouter is IRamzSwapRouter {... */\n  mstore(0x40, 0xc0)\n    /* \"RamzSwapRouter.sol\":15671:15783  constructor(address _factory, address _WMAAL) public {... */\n  callvalue\n    /* \"--CODEGEN--\":5:14   */\n  dup1\n    /* \"--CODEGEN--\":2:4   */\n  iszero\n  tag_1\n  jumpi\n    /* \"--CODEGEN--\":27:28   */\n  0x00\n    /* \"--CODEGEN--\":24:25   */\n  dup1\n    /* \"--CODEGEN--\":17:29   */\n  revert\n    /* \"--CODEGEN--\":2:4   */\ntag_1:\n    /* \"RamzSwapRouter.sol\":15671:15783  constructor(address _factory, address _WMAAL) public {... */\n  pop\n  mload(0x40)\n  sub(codesize, bytecodeSize)\n  dup1\n  bytecodeSize\n  dup4\n  codecopy\n  dup2\n  dup2\n  add\n  0x40\n  mstore\n    /* \"--CODEGEN--\":15:17   */\n  0x40\n    /* \"--CODEGEN--\":10:13   */\n  dup2\n    /* \"--CODEGEN--\":7:18   */\n  lt\n    /* \"--CODEGEN--\":4:6   */\n  iszero\n  tag_2\n  jumpi\n    /* \"--CODEGEN--\":31:32   */\n  0x00\n    /* \"--CODEGEN--\":28:29   */\n  dup1\n    /* \"--CODEGEN--\":21:33   */\n  revert\n    /* \"--CODEGEN--\":4:6   */\ntag_2:\n  pop\n    /* \"RamzSwapRouter.sol\":15671:15783  constructor(address _factory, address _WMAAL) public {... */\n  dup1\n  mload\n  0x20\n  swap1\n  swap2\n  add\n  mload\n  not(sub(shl(0x60, 0x01), 0x01))\n    /* \"RamzSwapRouter.sol\":15734:15752  factory = _factory */\n  0x60\n  swap3\n  dup4\n  shl\n  dup2\n  and\n  0x80\n  mstore\n    /* \"RamzSwapRouter.sol\":15762:15776  WMAAL = _WMAAL */\n  swap2\n  shl\n  and\n  0xa0\n  mstore\n    /* \"RamzSwapRouter.sol\":15371:33514  contract RamzSwapRouter is IRamzSwapRouter {... */\n  shr(0x60, mload(0x80))\n  shr(0x60, mload(0xa0))\n  codecopy(0x00, dataOffset(sub_0), dataSize(sub_0))\n  assignImmutable(\"0x139b5474829a1a438527d6f3b7cb075ea9353c362b5b7082a6a6627c27b040e8\")\n  assignImmutable(\"0x173bb80bf7ae3dde444a25d8c84de4e84891034d416e0f0ffbc56cab6043ec24\")\n  return(0x00, dataSize(sub_0))\nstop\n\nsub_0: assembly {\n        /* \"RamzSwapRouter.sol\":15371:33514  contract RamzSwapRouter is IRamzSwapRouter {... */\n      mstore(0x40, 0x80)\n      jumpi(tag_1, lt(calldatasize, 0x04))\n      shr(0xe0, calldataload(0x00))\n      dup1\n      0x75075a06\n      gt\n      tag_27\n      jumpi\n      dup1\n      0xc45a0155\n      gt\n      tag_28\n      jumpi\n      dup1\n      0xc45a0155\n      eq\n      tag_21\n      jumpi\n      dup1\n      0xc4eab65c\n      eq\n      tag_22\n      jumpi\n      dup1\n      0xd06ca61f\n      eq\n      tag_23\n      jumpi\n      dup1\n      0xe5e481e6\n      eq\n      tag_24\n      jumpi\n      dup1\n      0xe8e33700\n      eq\n      tag_25\n      jumpi\n      dup1\n      0xef08efd0\n      eq\n      tag_26\n      jumpi\n      jump(tag_2)\n    tag_28:\n      dup1\n      0x75075a06\n      eq\n      tag_15\n      jumpi\n      dup1\n      0x85f8c259\n      eq\n      tag_16\n      jumpi\n      dup1\n      0x8803dbee\n      eq\n      tag_17\n      jumpi\n      dup1\n      0xad615dec\n      eq\n      tag_18\n      jumpi\n      dup1\n      0xbaa2abde\n      eq\n      tag_19\n      jumpi\n      dup1\n      0xbfb8b723\n      eq\n      tag_20\n      jumpi\n      jump(tag_2)\n    tag_27:\n      dup1\n      0x32c46c91\n      gt\n      tag_29\n      jumpi\n      dup1\n      0x32c46c91\n      eq\n      tag_9\n      jumpi\n      dup1\n      0x38ed1739\n      eq\n      tag_10\n      jumpi\n      dup1\n      0x51a5114e\n      eq\n      tag_11\n      jumpi\n      dup1\n      0x5c11d795\n      eq\n      tag_12\n      jumpi\n      dup1\n      0x63e700ce\n      eq\n      tag_13\n      jumpi\n      dup1\n      0x6b3b3576\n      eq\n      tag_14\n      jumpi\n      jump(tag_2)\n    tag_29:\n      dup1\n      0x054d50d4\n      eq\n      tag_3\n      jumpi\n      dup1\n      0x161a1994\n      eq\n      tag_4\n      jumpi\n      dup1\n      0x1f00ca74\n      eq\n      tag_5\n      jumpi\n      dup1\n      0x2195995c\n      eq\n      tag_6\n      jumpi\n      dup1\n      0x2b4b3835\n      eq\n      tag_7\n      jumpi\n      dup1\n      0x2d9fc6d9\n      eq\n      tag_8\n      jumpi\n      jump(tag_2)\n    tag_1:\n      jumpi(tag_2, calldatasize)\n        /* \"RamzSwapRouter.sol\":15833:15843  msg.sender */\n      caller\n      sub(shl(0xa0, 0x01), 0x01)\n        /* \"RamzSwapRouter.sol\":15847:15852  WMAAL */\n      immutable(\"0x139b5474829a1a438527d6f3b7cb075ea9353c362b5b7082a6a6627c27b040e8\")\n        /* \"RamzSwapRouter.sol\":15833:15852  msg.sender == WMAAL */\n      and\n      eq\n        /* \"RamzSwapRouter.sol\":15826:15853  assert(msg.sender == WMAAL) */\n      tag_32\n      jumpi\n      invalid\n    tag_32:\n        /* \"RamzSwapRouter.sol\":15371:33514  contract RamzSwapRouter is IRamzSwapRouter {... */\n      stop\n    tag_2:\n        /* \"--CODEGEN--\":12:13   */\n      0x00\n        /* \"--CODEGEN--\":9:10   */\n      dup1\n        /* \"--CODEGEN--\":2:14   */\n      revert\n        /* \"RamzSwapRouter.sol\":32501:32754  function getAmountOut(uint amountIn, uint reserveIn, uint reserveOut)... */\n    tag_3:\n      callvalue\n        /* \"--CODEGEN--\":5:14   */\n      dup1\n        /* \"--CODEGEN--\":2:4   */\n      iszero\n      tag_33\n      jumpi\n        /* \"--CODEGEN--\":27:28   */\n      0x00\n        /* \"--CODEGEN--\":24:25   */\n      dup1\n        /* \"--CODEGEN--\":17:29   */\n      revert\n        /* \"--CODEGEN--\":2:4   */\n    tag_33:\n        /* \"RamzSwapRouter.sol\":32501:32754  function getAmountOut(uint amountIn, uint reserveIn, uint reserveOut)... */\n      pop\n      tag_34\n      0x04\n      dup1\n      calldatasize\n      sub\n        /* \"--CODEGEN--\":15:17   */\n      0x60\n        /* \"--CODEGEN--\":10:13   */\n      dup2\n        /* \"--CODEGEN--\":7:18   */\n      lt\n        /* \"--CODEGEN--\":4:6   */\n      iszero\n      tag_35\n      jumpi\n        /* \"--CODEGEN--\":31:32   */\n      0x00\n        /* \"--CODEGEN--\":28:29   */\n      dup1\n        /* \"--CODEGEN--\":21:33   */\n      revert\n        /* \"--CODEGEN--\":4:6   */\n    tag_35:\n      pop\n        /* \"RamzSwapRouter.sol\":32501:32754  function getAmountOut(uint amountIn, uint reserveIn, uint reserveOut)... */\n      dup1\n      calldataload\n      swap1\n      0x20\n      dup2\n      add\n      calldataload\n      swap1\n      0x40\n      add\n      calldataload\n      tag_36\n      jump\t// in\n    tag_34:\n      0x40\n      dup1\n      mload\n      swap2\n      dup3\n      mstore\n      mload\n      swap1\n      dup2\n      swap1\n      sub\n      0x20\n      add\n      swap1\n      return\n        /* \"RamzSwapRouter.sol\":26106:26919  function swapTokensForExactMAAL(uint amountOut, uint amountInMax, address[] calldata path, address to, uint deadline)... */\n    tag_4:\n      callvalue\n        /* \"--CODEGEN--\":5:14   */\n      dup1\n        /* \"--CODEGEN--\":2:4   */\n      iszero\n      tag_37\n      jumpi\n        /* \"--CODEGEN--\":27:28   */\n      0x00\n        /* \"--CODEGEN--\":24:25   */\n      dup1\n        /* \"--CODEGEN--\":17:29   */\n      revert\n        /* \"--CODEGEN--\":2:4   */\n    tag_37:\n        /* \"RamzSwapRouter.sol\":26106:26919  function swapTokensForExactMAAL(uint amountOut, uint amountInMax, address[] calldata path, address to, uint deadline)... */\n      pop\n      tag_38\n      0x04\n      dup1\n      calldatasize\n      sub\n        /* \"--CODEGEN--\":15:18   */\n      0xa0\n        /* \"--CODEGEN--\":10:13   */\n      dup2\n        /* \"--CODEGEN--\":7:19   */\n      lt\n        /* \"--CODEGEN--\":4:6   */\n      iszero\n      tag_39\n      jumpi\n        /* \"--CODEGEN--\":32:33   */\n      0x00\n        /* \"--CODEGEN--\":29:30   */\n      dup1\n        /* \"--CODEGEN--\":22:34   */\n      revert\n        /* \"--CODEGEN--\":4:6   */\n    tag_39:\n        /* \"RamzSwapRouter.sol\":26106:26919  function swapTokensForExactMAAL(uint amountOut, uint amountInMax, address[] calldata path, address to, uint deadline)... */\n      dup2\n      calldataload\n      swap2\n      0x20\n      dup2\n      add\n      calldataload\n      swap2\n      dup2\n      add\n      swap1\n      0x60\n      dup2\n      add\n      0x40\n      dup3\n      add\n      calldataload\n      shl(0x20, 0x01)\n        /* \"--CODEGEN--\":11:39   */\n      dup2\n      gt\n        /* \"--CODEGEN--\":8:10   */\n      iszero\n      tag_40\n      jumpi\n        /* \"--CODEGEN--\":52:53   */\n      0x00\n        /* \"--CODEGEN--\":49:50   */\n      dup1\n        /* \"--CODEGEN--\":42:54   */\n      revert\n        /* \"--CODEGEN--\":8:10   */\n    tag_40:\n        /* \"RamzSwapRouter.sol\":26106:26919  function swapTokensForExactMAAL(uint amountOut, uint amountInMax, address[] calldata path, address to, uint deadline)... */\n      dup3\n      add\n        /* \"--CODEGEN--\":41:50   */\n      dup4\n        /* \"--CODEGEN--\":34:38   */\n      0x20\n        /* \"--CODEGEN--\":18:32   */\n      dup3\n        /* \"--CODEGEN--\":14:39   */\n      add\n        /* \"--CODEGEN--\":11:51   */\n      gt\n        /* \"--CODEGEN--\":8:10   */\n      iszero\n      tag_41\n      jumpi\n        /* \"--CODEGEN--\":64:65   */\n      0x00\n        /* \"--CODEGEN--\":61:62   */\n      dup1\n        /* \"--CODEGEN--\":54:66   */\n      revert\n        /* \"--CODEGEN--\":8:10   */\n    tag_41:\n        /* \"RamzSwapRouter.sol\":26106:26919  function swapTokensForExactMAAL(uint amountOut, uint amountInMax, address[] calldata path, address to, uint deadline)... */\n      dup1\n      calldataload\n      swap1\n      0x20\n      add\n      swap2\n        /* \"--CODEGEN--\":101:110   */\n      dup5\n        /* \"--CODEGEN--\":95:97   */\n      0x20\n        /* \"--CODEGEN--\":81:93   */\n      dup4\n        /* \"--CODEGEN--\":77:98   */\n      mul\n        /* \"--CODEGEN--\":67:75   */\n      dup5\n        /* \"--CODEGEN--\":63:99   */\n      add\n        /* \"--CODEGEN--\":60:111   */\n      gt\n      shl(0x20, 0x01)\n        /* \"--CODEGEN--\":25:37   */\n      dup4\n        /* \"--CODEGEN--\":22:51   */\n      gt\n        /* \"--CODEGEN--\":11:119   */\n      or\n        /* \"--CODEGEN--\":8:10   */\n      iszero\n      tag_42\n      jumpi\n        /* \"--CODEGEN--\":132:133   */\n      0x00\n        /* \"--CODEGEN--\":129:130   */\n      dup1\n        /* \"--CODEGEN--\":122:134   */\n      revert\n        /* \"--CODEGEN--\":8:10   */\n    tag_42:\n        /* \"RamzSwapRouter.sol\":26106:26919  function swapTokensForExactMAAL(uint amountOut, uint amountInMax, address[] calldata path, address to, uint deadline)... */\n      swap2\n      swap4\n      pop\n      swap2\n      pop\n      sub(shl(0xa0, 0x01), 0x01)\n      dup2\n      calldataload\n      and\n      swap1\n      0x20\n      add\n      calldataload\n      tag_43\n      jump\t// in\n    tag_38:\n      0x40\n      dup1\n      mload\n      0x20\n      dup1\n      dup3\n      mstore\n      dup4\n      mload\n      dup2\n      dup4\n      add\n      mstore\n      dup4\n      mload\n      swap2\n      swap3\n      dup4\n      swap3\n      swap1\n      dup4\n      add\n      swap2\n      dup6\n      dup2\n      add\n      swap2\n      mul\n      dup1\n      dup4\n      dup4\n      0x00\n        /* \"--CODEGEN--\":8:108   */\n    tag_44:\n        /* \"--CODEGEN--\":33:36   */\n      dup4\n        /* \"--CODEGEN--\":30:31   */\n      dup2\n        /* \"--CODEGEN--\":27:37   */\n      lt\n        /* \"--CODEGEN--\":8:108   */\n      iszero\n      tag_46\n      jumpi\n        /* \"--CODEGEN--\":90:101   */\n      dup2\n      dup2\n      add\n        /* \"--CODEGEN--\":84:102   */\n      mload\n        /* \"--CODEGEN--\":71:82   */\n      dup4\n      dup3\n      add\n        /* \"--CODEGEN--\":64:103   */\n      mstore\n        /* \"--CODEGEN--\":52:54   */\n      0x20\n        /* \"--CODEGEN--\":45:55   */\n      add\n        /* \"--CODEGEN--\":8:108   */\n      jump(tag_44)\n    tag_46:\n        /* \"--CODEGEN--\":12:26   */\n      pop\n        /* \"RamzSwapRouter.sol\":26106:26919  function swapTokensForExactMAAL(uint amountOut, uint amountInMax, address[] calldata path, address to, uint deadline)... */\n      pop\n      pop\n      pop\n      swap1\n      pop\n      add\n      swap3\n      pop\n      pop\n      pop\n      mload(0x40)\n      dup1\n      swap2\n      sub\n      swap1\n      return\n        /* \"RamzSwapRouter.sol\":33268:33512  function getAmountsIn(uint amountOut, address[] memory path)... */\n    tag_5:\n      callvalue\n        /* \"--CODEGEN--\":5:14   */\n      dup1\n        /* \"--CODEGEN--\":2:4   */\n      iszero\n      tag_47\n      jumpi\n        /* \"--CODEGEN--\":27:28   */\n      0x00\n        /* \"--CODEGEN--\":24:25   */\n      dup1\n        /* \"--CODEGEN--\":17:29   */\n      revert\n        /* \"--CODEGEN--\":2:4   */\n    tag_47:\n        /* \"RamzSwapRouter.sol\":33268:33512  function getAmountsIn(uint amountOut, address[] memory path)... */\n      pop\n      tag_38\n      0x04\n      dup1\n      calldatasize\n      sub\n        /* \"--CODEGEN--\":15:17   */\n      0x40\n        /* \"--CODEGEN--\":10:13   */\n      dup2\n        /* \"--CODEGEN--\":7:18   */\n      lt\n        /* \"--CODEGEN--\":4:6   */\n      iszero\n      tag_49\n      jumpi\n        /* \"--CODEGEN--\":31:32   */\n      0x00\n        /* \"--CODEGEN--\":28:29   */\n      dup1\n        /* \"--CODEGEN--\":21:33   */\n      revert\n        /* \"--CODEGEN--\":4:6   */\n    tag_49:\n        /* \"RamzSwapRouter.sol\":33268:33512  function getAmountsIn(uint amountOut, address[] memory path)... */\n      dup2\n      calldataload\n      swap2\n      swap1\n      dup2\n      add\n      swap1\n      0x40\n      dup2\n      add\n      0x20\n      dup3\n      add\n      calldataload\n      shl(0x20, 0x01)\n        /* \"--CODEGEN--\":11:39   */\n      dup2\n      gt\n        /* \"--CODEGEN--\":8:10   */\n      iszero\n      tag_50\n      jumpi\n        /* \"--CODEGEN--\":52:53   */\n      0x00\n        /* \"--CODEGEN--\":49:50   */\n      dup1\n        /* \"--CODEGEN--\":42:54   */\n      revert\n        /* \"--CODEGEN--\":8:10   */\n    tag_50:\n        /* \"RamzSwapRouter.sol\":33268:33512  function getAmountsIn(uint amountOut, address[] memory path)... */\n      dup3\n      add\n        /* \"--CODEGEN--\":41:50   */\n      dup4\n        /* \"--CODEGEN--\":34:38   */\n      0x20\n        /* \"--CODEGEN--\":18:32   */\n      dup3\n        /* \"--CODEGEN--\":14:39   */\n      add\n        /* \"--CODEGEN--\":11:51   */\n      gt\n        /* \"--CODEGEN--\":8:10   */\n      iszero\n      tag_51\n      jumpi\n        /* \"--CODEGEN--\":64:65   */\n      0x00\n        /* \"--CODEGEN--\":61:62   */\n      dup1\n        /* \"--CODEGEN--\":54:66   */\n      revert\n        /* \"--CODEGEN--\":8:10   */\n    tag_51:\n        /* \"RamzSwapRouter.sol\":33268:33512  function getAmountsIn(uint amountOut, address[] memory path)... */\n      dup1\n      calldataload\n      swap1\n      0x20\n      add\n      swap2\n        /* \"--CODEGEN--\":101:110   */\n      dup5\n        /* \"--CODEGEN--\":95:97   */\n      0x20\n        /* \"--CODEGEN--\":81:93   */\n      dup4\n        /* \"--CODEGEN--\":77:98   */\n      mul\n        /* \"--CODEGEN--\":67:75   */\n      dup5\n        /* \"--CODEGEN--\":63:99   */\n      add\n        /* \"--CODEGEN--\":60:111   */\n      gt\n      shl(0x20, 0x01)\n        /* \"--CODEGEN--\":25:37   */\n      dup4\n        /* \"--CODEGEN--\":22:51   */\n      gt\n        /* \"--CODEGEN--\":11:119   */\n      or\n        /* \"--CODEGEN--\":8:10   */\n      iszero\n      tag_52\n      jumpi\n        /* \"--CODEGEN--\":132:133   */\n      0x00\n        /* \"--CODEGEN--\":129:130   */\n      dup1\n        /* \"--CODEGEN--\":122:134   */\n      revert\n        /* \"--CODEGEN--\":8:10   */\n    tag_52:\n        /* \"RamzSwapRouter.sol\":33268:33512  function getAmountsIn(uint amountOut, address[] memory path)... */\n      swap2\n      swap1\n      dup1\n      dup1\n      0x20\n      mul\n      0x20\n      add\n      mload(0x40)\n      swap1\n      dup2\n      add\n      0x40\n      mstore\n      dup1\n      swap4\n      swap3\n      swap2\n      swap1\n      dup2\n      dup2\n      mstore\n      0x20\n      add\n      dup4\n      dup4\n      0x20\n      mul\n        /* \"--CODEGEN--\":30:33   */\n      dup1\n        /* \"--CODEGEN--\":22:28   */\n      dup3\n        /* \"--CODEGEN--\":14:20   */\n      dup5\n        /* \"--CODEGEN--\":1:34   */\n      calldatacopy\n        /* \"--CODEGEN--\":99:100   */\n      0x00\n        /* \"--CODEGEN--\":81:97   */\n      swap3\n      add\n        /* \"--CODEGEN--\":74:101   */\n      swap2\n      swap1\n      swap2\n      mstore\n      pop\n        /* \"RamzSwapRouter.sol\":33268:33512  function getAmountsIn(uint amountOut, address[] memory path)... */\n      swap3\n      swap6\n      pop\n      tag_53\n      swap5\n      pop\n      pop\n      pop\n      pop\n      pop\n      jump\t// in\n        /* \"RamzSwapRouter.sol\":20564:21225  function removeLiquidityWithPermit(... */\n    tag_6:\n      callvalue\n        /* \"--CODEGEN--\":5:14   */\n      dup1\n        /* \"--CODEGEN--\":2:4   */\n      iszero\n      tag_57\n      jumpi\n        /* \"--CODEGEN--\":27:28   */\n      0x00\n        /* \"--CODEGEN--\":24:25   */\n      dup1\n        /* \"--CODEGEN--\":17:29   */\n      revert\n        /* \"--CODEGEN--\":2:4   */\n    tag_57:\n        /* \"RamzSwapRouter.sol\":20564:21225  function removeLiquidityWithPermit(... */\n      pop\n      tag_58\n      0x04\n      dup1\n      calldatasize\n      sub\n        /* \"--CODEGEN--\":15:18   */\n      0x0160\n        /* \"--CODEGEN--\":10:13   */\n      dup2\n        /* \"--CODEGEN--\":7:19   */\n      lt\n        /* \"--CODEGEN--\":4:6   */\n      iszero\n      tag_59\n      jumpi\n        /* \"--CODEGEN--\":32:33   */\n      0x00\n        /* \"--CODEGEN--\":29:30   */\n      dup1\n        /* \"--CODEGEN--\":22:34   */\n      revert\n        /* \"--CODEGEN--\":4:6   */\n    tag_59:\n      pop\n      sub(shl(0xa0, 0x01), 0x01)\n        /* \"RamzSwapRouter.sol\":20564:21225  function removeLiquidityWithPermit(... */\n      dup2\n      calldataload\n      dup2\n      and\n      swap2\n      0x20\n      dup2\n      add\n      calldataload\n      dup3\n      and\n      swap2\n      0x40\n      dup3\n      add\n      calldataload\n      swap2\n      0x60\n      dup2\n      add\n      calldataload\n      swap2\n      0x80\n      dup3\n      add\n      calldataload\n      swap2\n      0xa0\n      dup2\n      add\n      calldataload\n      swap1\n      swap2\n      and\n      swap1\n      0xc0\n      dup2\n      add\n      calldataload\n      swap1\n      0xe0\n      dup2\n      add\n      calldataload\n      iszero\n      iszero\n      swap1\n      0xff\n      0x0100\n      dup3\n      add\n      calldataload\n      and\n      swap1\n      0x0120\n      dup2\n      add\n      calldataload\n      swap1\n      0x0140\n      add\n      calldataload\n      tag_60\n      jump\t// in\n    tag_58:\n      0x40\n      dup1\n      mload\n      swap3\n      dup4\n      mstore\n      0x20\n      dup4\n      add\n      swap2\n      swap1\n      swap2\n      mstore\n      dup1\n      mload\n      swap2\n      dup3\n      swap1\n      sub\n      add\n      swap1\n      return\n        /* \"RamzSwapRouter.sol\":22664:23372  function removeLiquidityMAALWithPermitSupportingFeeOnTransferTokens(... */\n    tag_7:\n      callvalue\n        /* \"--CODEGEN--\":5:14   */\n      dup1\n        /* \"--CODEGEN--\":2:4   */\n      iszero\n      tag_61\n      jumpi\n        /* \"--CODEGEN--\":27:28   */\n      0x00\n        /* \"--CODEGEN--\":24:25   */\n      dup1\n        /* \"--CODEGEN--\":17:29   */\n      revert\n        /* \"--CODEGEN--\":2:4   */\n    tag_61:\n        /* \"RamzSwapRouter.sol\":22664:23372  function removeLiquidityMAALWithPermitSupportingFeeOnTransferTokens(... */\n      pop\n      tag_34\n      0x04\n      dup1\n      calldatasize\n      sub\n        /* \"--CODEGEN--\":15:18   */\n      0x0140\n        /* \"--CODEGEN--\":10:13   */\n      dup2\n        /* \"--CODEGEN--\":7:19   */\n      lt\n        /* \"--CODEGEN--\":4:6   */\n      iszero\n      tag_63\n      jumpi\n        /* \"--CODEGEN--\":32:33   */\n      0x00\n        /* \"--CODEGEN--\":29:30   */\n      dup1\n        /* \"--CODEGEN--\":22:34   */\n      revert\n        /* \"--CODEGEN--\":4:6   */\n    tag_63:\n      pop\n      sub(shl(0xa0, 0x01), 0x01)\n        /* \"RamzSwapRouter.sol\":22664:23372  function removeLiquidityMAALWithPermitSupportingFeeOnTransferTokens(... */\n      dup2\n      calldataload\n      dup2\n      and\n      swap2\n      0x20\n      dup2\n      add\n      calldataload\n      swap2\n      0x40\n      dup3\n      add\n      calldataload\n      swap2\n      0x60\n      dup2\n      add\n      calldataload\n      swap2\n      0x80\n      dup3\n      add\n      calldataload\n      and\n      swap1\n      0xa0\n      dup2\n      add\n      calldataload\n      swap1\n      0xc0\n      dup2\n      add\n      calldataload\n      iszero\n      iszero\n      swap1\n      0xff\n      0xe0\n      dup3\n      add\n      calldataload\n      and\n      swap1\n      0x0100\n      dup2\n      add\n      calldataload\n      swap1\n      0x0120\n      add\n      calldataload\n      tag_64\n      jump\t// in\n        /* \"RamzSwapRouter.sol\":19895:20559  function removeLiquidityMAAL(... */\n    tag_8:\n      callvalue\n        /* \"--CODEGEN--\":5:14   */\n      dup1\n        /* \"--CODEGEN--\":2:4   */\n      iszero\n      tag_65\n      jumpi\n        /* \"--CODEGEN--\":27:28   */\n      0x00\n        /* \"--CODEGEN--\":24:25   */\n      dup1\n        /* \"--CODEGEN--\":17:29   */\n      revert\n        /* \"--CODEGEN--\":2:4   */\n    tag_65:\n        /* \"RamzSwapRouter.sol\":19895:20559  function removeLiquidityMAAL(... */\n      pop\n      tag_58\n      0x04\n      dup1\n      calldatasize\n      sub\n        /* \"--CODEGEN--\":15:18   */\n      0xc0\n        /* \"--CODEGEN--\":10:13   */\n      dup2\n        /* \"--CODEGEN--\":7:19   */\n      lt\n        /* \"--CODEGEN--\":4:6   */\n      iszero\n      tag_67\n      jumpi\n        /* \"--CODEGEN--\":32:33   */\n      0x00\n        /* \"--CODEGEN--\":29:30   */\n      dup1\n        /* \"--CODEGEN--\":22:34   */\n      revert\n        /* \"--CODEGEN--\":4:6   */\n    tag_67:\n      pop\n      sub(shl(0xa0, 0x01), 0x01)\n        /* \"RamzSwapRouter.sol\":19895:20559  function removeLiquidityMAAL(... */\n      dup2\n      calldataload\n      dup2\n      and\n      swap2\n      0x20\n      dup2\n      add\n      calldataload\n      swap2\n      0x40\n      dup3\n      add\n      calldataload\n      swap2\n      0x60\n      dup2\n      add\n      calldataload\n      swap2\n      0x80\n      dup3\n      add\n      calldataload\n      and\n      swap1\n      0xa0\n      add\n      calldataload\n      tag_68\n      jump\t// in\n        /* \"RamzSwapRouter.sol\":31443:32269  function swapExactTokensForMAALSupportingFeeOnTransferTokens(... */\n    tag_9:\n      callvalue\n        /* \"--CODEGEN--\":5:14   */\n      dup1\n        /* \"--CODEGEN--\":2:4   */\n      iszero\n      tag_69\n      jumpi\n        /* \"--CODEGEN--\":27:28   */\n      0x00\n        /* \"--CODEGEN--\":24:25   */\n      dup1\n        /* \"--CODEGEN--\":17:29   */\n      revert\n        /* \"--CODEGEN--\":2:4   */\n    tag_69:\n        /* \"RamzSwapRouter.sol\":31443:32269  function swapExactTokensForMAALSupportingFeeOnTransferTokens(... */\n      pop\n      tag_32\n      0x04\n      dup1\n      calldatasize\n      sub\n        /* \"--CODEGEN--\":15:18   */\n      0xa0\n        /* \"--CODEGEN--\":10:13   */\n      dup2\n        /* \"--CODEGEN--\":7:19   */\n      lt\n        /* \"--CODEGEN--\":4:6   */\n      iszero\n      tag_71\n      jumpi\n        /* \"--CODEGEN--\":32:33   */\n      0x00\n        /* \"--CODEGEN--\":29:30   */\n      dup1\n        /* \"--CODEGEN--\":22:34   */\n      revert\n        /* \"--CODEGEN--\":4:6   */\n    tag_71:\n        /* \"RamzSwapRouter.sol\":31443:32269  function swapExactTokensForMAALSupportingFeeOnTransferTokens(... */\n      dup2\n      calldataload\n      swap2\n      0x20\n      dup2\n      add\n      calldataload\n      swap2\n      dup2\n      add\n      swap1\n      0x60\n      dup2\n      add\n      0x40\n      dup3\n      add\n      calldataload\n      shl(0x20, 0x01)\n        /* \"--CODEGEN--\":11:39   */\n      dup2\n      gt\n        /* \"--CODEGEN--\":8:10   */\n      iszero\n      tag_72\n      jumpi\n        /* \"--CODEGEN--\":52:53   */\n      0x00\n        /* \"--CODEGEN--\":49:50   */\n      dup1\n        /* \"--CODEGEN--\":42:54   */\n      revert\n        /* \"--CODEGEN--\":8:10   */\n    tag_72:\n        /* \"RamzSwapRouter.sol\":31443:32269  function swapExactTokensForMAALSupportingFeeOnTransferTokens(... */\n      dup3\n      add\n        /* \"--CODEGEN--\":41:50   */\n      dup4\n        /* \"--CODEGEN--\":34:38   */\n      0x20\n        /* \"--CODEGEN--\":18:32   */\n      dup3\n        /* \"--CODEGEN--\":14:39   */\n      add\n        /* \"--CODEGEN--\":11:51   */\n      gt\n        /* \"--CODEGEN--\":8:10   */\n      iszero\n      tag_73\n      jumpi\n        /* \"--CODEGEN--\":64:65   */\n      0x00\n        /* \"--CODEGEN--\":61:62   */\n      dup1\n        /* \"--CODEGEN--\":54:66   */\n      revert\n        /* \"--CODEGEN--\":8:10   */\n    tag_73:\n        /* \"RamzSwapRouter.sol\":31443:32269  function swapExactTokensForMAALSupportingFeeOnTransferTokens(... */\n      dup1\n      calldataload\n      swap1\n      0x20\n      add\n      swap2\n        /* \"--CODEGEN--\":101:110   */\n      dup5\n        /* \"--CODEGEN--\":95:97   */\n      0x20\n        /* \"--CODEGEN--\":81:93   */\n      dup4\n        /* \"--CODEGEN--\":77:98   */\n      mul\n        /* \"--CODEGEN--\":67:75   */\n      dup5\n        /* \"--CODEGEN--\":63:99   */\n      add\n        /* \"--CODEGEN--\":60:111   */\n      gt\n      shl(0x20, 0x01)\n        /* \"--CODEGEN--\":25:37   */\n      dup4\n        /* \"--CODEGEN--\":22:51   */\n      gt\n        /* \"--CODEGEN--\":11:119   */\n      or\n        /* \"--CODEGEN--\":8:10   */\n      iszero\n      tag_74\n      jumpi\n        /* \"--CODEGEN--\":132:133   */\n      0x00\n        /* \"--CODEGEN--\":129:130   */\n      dup1\n        /* \"--CODEGEN--\":122:134   */\n      revert\n        /* \"--CODEGEN--\":8:10   */\n    tag_74:\n        /* \"RamzSwapRouter.sol\":31443:32269  function swapExactTokensForMAALSupportingFeeOnTransferTokens(... */\n      swap2\n      swap4\n      pop\n      swap2\n      pop\n      sub(shl(0xa0, 0x01), 0x01)\n      dup2\n      calldataload\n      and\n      swap1\n      0x20\n      add\n      calldataload\n      tag_75\n      jump\t// in\n        /* \"RamzSwapRouter.sol\":24204:24816  function swapExactTokensForTokens(... */\n    tag_10:\n      callvalue\n        /* \"--CODEGEN--\":5:14   */\n      dup1\n        /* \"--CODEGEN--\":2:4   */\n      iszero\n      tag_76\n      jumpi\n        /* \"--CODEGEN--\":27:28   */\n      0x00\n        /* \"--CODEGEN--\":24:25   */\n      dup1\n        /* \"--CODEGEN--\":17:29   */\n      revert\n        /* \"--CODEGEN--\":2:4   */\n    tag_76:\n        /* \"RamzSwapRouter.sol\":24204:24816  function swapExactTokensForTokens(... */\n      pop\n      tag_38\n      0x04\n      dup1\n      calldatasize\n      sub\n        /* \"--CODEGEN--\":15:18   */\n      0xa0\n        /* \"--CODEGEN--\":10:13   */\n      dup2\n        /* \"--CODEGEN--\":7:19   */\n      lt\n        /* \"--CODEGEN--\":4:6   */\n      iszero\n      tag_78\n      jumpi\n        /* \"--CODEGEN--\":32:33   */\n      0x00\n        /* \"--CODEGEN--\":29:30   */\n      dup1\n        /* \"--CODEGEN--\":22:34   */\n      revert\n        /* \"--CODEGEN--\":4:6   */\n    tag_78:\n        /* \"RamzSwapRouter.sol\":24204:24816  function swapExactTokensForTokens(... */\n      dup2\n      calldataload\n      swap2\n      0x20\n      dup2\n      add\n      calldataload\n      swap2\n      dup2\n      add\n      swap1\n      0x60\n      dup2\n      add\n      0x40\n      dup3\n      add\n      calldataload\n      shl(0x20, 0x01)\n        /* \"--CODEGEN--\":11:39   */\n      dup2\n      gt\n        /* \"--CODEGEN--\":8:10   */\n      iszero\n      tag_79\n      jumpi\n        /* \"--CODEGEN--\":52:53   */\n      0x00\n        /* \"--CODEGEN--\":49:50   */\n      dup1\n        /* \"--CODEGEN--\":42:54   */\n      revert\n        /* \"--CODEGEN--\":8:10   */\n    tag_79:\n        /* \"RamzSwapRouter.sol\":24204:24816  function swapExactTokensForTokens(... */\n      dup3\n      add\n        /* \"--CODEGEN--\":41:50   */\n      dup4\n        /* \"--CODEGEN--\":34:38   */\n      0x20\n        /* \"--CODEGEN--\":18:32   */\n      dup3\n        /* \"--CODEGEN--\":14:39   */\n      add\n        /* \"--CODEGEN--\":11:51   */\n      gt\n        /* \"--CODEGEN--\":8:10   */\n      iszero\n      tag_80\n      jumpi\n        /* \"--CODEGEN--\":64:65   */\n      0x00\n        /* \"--CODEGEN--\":61:62   */\n      dup1\n        /* \"--CODEGEN--\":54:66   */\n      revert\n        /* \"--CODEGEN--\":8:10   */\n    tag_80:\n        /* \"RamzSwapRouter.sol\":24204:24816  function swapExactTokensForTokens(... */\n      dup1\n      calldataload\n      swap1\n      0x20\n      add\n      swap2\n        /* \"--CODEGEN--\":101:110   */\n      dup5\n        /* \"--CODEGEN--\":95:97   */\n      0x20\n        /* \"--CODEGEN--\":81:93   */\n      dup4\n        /* \"--CODEGEN--\":77:98   */\n      mul\n        /* \"--CODEGEN--\":67:75   */\n      dup5\n        /* \"--CODEGEN--\":63:99   */\n      add\n        /* \"--CODEGEN--\":60:111   */\n      gt\n      shl(0x20, 0x01)\n        /* \"--CODEGEN--\":25:37   */\n      dup4\n        /* \"--CODEGEN--\":22:51   */\n      gt\n        /* \"--CODEGEN--\":11:119   */\n      or\n        /* \"--CODEGEN--\":8:10   */\n      iszero\n      tag_81\n      jumpi\n        /* \"--CODEGEN--\":132:133   */\n      0x00\n        /* \"--CODEGEN--\":129:130   */\n      dup1\n        /* \"--CODEGEN--\":122:134   */\n      revert\n        /* \"--CODEGEN--\":8:10   */\n    tag_81:\n        /* \"RamzSwapRouter.sol\":24204:24816  function swapExactTokensForTokens(... */\n      swap2\n      swap4\n      pop\n      swap2\n      pop\n      sub(shl(0xa0, 0x01), 0x01)\n      dup2\n      calldataload\n      and\n      swap1\n      0x20\n      add\n      calldataload\n      tag_82\n      jump\t// in\n        /* \"RamzSwapRouter.sol\":25416:26101  function swapExactMAALForTokens(uint amountOutMin, address[] calldata path, address to, uint deadline)... */\n    tag_11:\n      tag_38\n      0x04\n      dup1\n      calldatasize\n      sub\n        /* \"--CODEGEN--\":15:18   */\n      0x80\n        /* \"--CODEGEN--\":10:13   */\n      dup2\n        /* \"--CODEGEN--\":7:19   */\n      lt\n        /* \"--CODEGEN--\":4:6   */\n      iszero\n      tag_87\n      jumpi\n        /* \"--CODEGEN--\":32:33   */\n      0x00\n        /* \"--CODEGEN--\":29:30   */\n      dup1\n        /* \"--CODEGEN--\":22:34   */\n      revert\n        /* \"--CODEGEN--\":4:6   */\n    tag_87:\n        /* \"RamzSwapRouter.sol\":25416:26101  function swapExactMAALForTokens(uint amountOutMin, address[] calldata path, address to, uint deadline)... */\n      dup2\n      calldataload\n      swap2\n      swap1\n      dup2\n      add\n      swap1\n      0x40\n      dup2\n      add\n      0x20\n      dup3\n      add\n      calldataload\n      shl(0x20, 0x01)\n        /* \"--CODEGEN--\":11:39   */\n      dup2\n      gt\n        /* \"--CODEGEN--\":8:10   */\n      iszero\n      tag_88\n      jumpi\n        /* \"--CODEGEN--\":52:53   */\n      0x00\n        /* \"--CODEGEN--\":49:50   */\n      dup1\n        /* \"--CODEGEN--\":42:54   */\n      revert\n        /* \"--CODEGEN--\":8:10   */\n    tag_88:\n        /* \"RamzSwapRouter.sol\":25416:26101  function swapExactMAALForTokens(uint amountOutMin, address[] calldata path, address to, uint deadline)... */\n      dup3\n      add\n        /* \"--CODEGEN--\":41:50   */\n      dup4\n        /* \"--CODEGEN--\":34:38   */\n      0x20\n        /* \"--CODEGEN--\":18:32   */\n      dup3\n        /* \"--CODEGEN--\":14:39   */\n      add\n        /* \"--CODEGEN--\":11:51   */\n      gt\n        /* \"--CODEGEN--\":8:10   */\n      iszero\n      tag_89\n      jumpi\n        /* \"--CODEGEN--\":64:65   */\n      0x00\n        /* \"--CODEGEN--\":61:62   */\n      dup1\n        /* \"--CODEGEN--\":54:66   */\n      revert\n        /* \"--CODEGEN--\":8:10   */\n    tag_89:\n        /* \"RamzSwapRouter.sol\":25416:26101  function swapExactMAALForTokens(uint amountOutMin, address[] calldata path, address to, uint deadline)... */\n      dup1\n      calldataload\n      swap1\n      0x20\n      add\n      swap2\n        /* \"--CODEGEN--\":101:110   */\n      dup5\n        /* \"--CODEGEN--\":95:97   */\n      0x20\n        /* \"--CODEGEN--\":81:93   */\n      dup4\n        /* \"--CODEGEN--\":77:98   */\n      mul\n        /* \"--CODEGEN--\":67:75   */\n      dup5\n        /* \"--CODEGEN--\":63:99   */\n      add\n        /* \"--CODEGEN--\":60:111   */\n      gt\n      shl(0x20, 0x01)\n        /* \"--CODEGEN--\":25:37   */\n      dup4\n        /* \"--CODEGEN--\":22:51   */\n      gt\n        /* \"--CODEGEN--\":11:119   */\n      or\n        /* \"--CODEGEN--\":8:10   */\n      iszero\n      tag_90\n      jumpi\n        /* \"--CODEGEN--\":132:133   */\n      0x00\n        /* \"--CODEGEN--\":129:130   */\n      dup1\n        /* \"--CODEGEN--\":122:134   */\n      revert\n        /* \"--CODEGEN--\":8:10   */\n    tag_90:\n        /* \"RamzSwapRouter.sol\":25416:26101  function swapExactMAALForTokens(uint amountOutMin, address[] calldata path, address to, uint deadline)... */\n      swap2\n      swap4\n      pop\n      swap2\n      pop\n      sub(shl(0xa0, 0x01), 0x01)\n      dup2\n      calldataload\n      and\n      swap1\n      0x20\n      add\n      calldataload\n      tag_91\n      jump\t// in\n        /* \"RamzSwapRouter.sol\":29902:30600  function swapExactTokensForTokensSupportingFeeOnTransferTokens(... */\n    tag_12:\n      callvalue\n        /* \"--CODEGEN--\":5:14   */\n      dup1\n        /* \"--CODEGEN--\":2:4   */\n      iszero\n      tag_95\n      jumpi\n        /* \"--CODEGEN--\":27:28   */\n      0x00\n        /* \"--CODEGEN--\":24:25   */\n      dup1\n        /* \"--CODEGEN--\":17:29   */\n      revert\n        /* \"--CODEGEN--\":2:4   */\n    tag_95:\n        /* \"RamzSwapRouter.sol\":29902:30600  function swapExactTokensForTokensSupportingFeeOnTransferTokens(... */\n      pop\n      tag_32\n      0x04\n      dup1\n      calldatasize\n      sub\n        /* \"--CODEGEN--\":15:18   */\n      0xa0\n        /* \"--CODEGEN--\":10:13   */\n      dup2\n        /* \"--CODEGEN--\":7:19   */\n      lt\n        /* \"--CODEGEN--\":4:6   */\n      iszero\n      tag_97\n      jumpi\n        /* \"--CODEGEN--\":32:33   */\n      0x00\n        /* \"--CODEGEN--\":29:30   */\n      dup1\n        /* \"--CODEGEN--\":22:34   */\n      revert\n        /* \"--CODEGEN--\":4:6   */\n    tag_97:\n        /* \"RamzSwapRouter.sol\":29902:30600  function swapExactTokensForTokensSupportingFeeOnTransferTokens(... */\n      dup2\n      calldataload\n      swap2\n      0x20\n      dup2\n      add\n      calldataload\n      swap2\n      dup2\n      add\n      swap1\n      0x60\n      dup2\n      add\n      0x40\n      dup3\n      add\n      calldataload\n      shl(0x20, 0x01)\n        /* \"--CODEGEN--\":11:39   */\n      dup2\n      gt\n        /* \"--CODEGEN--\":8:10   */\n      iszero\n      tag_98\n      jumpi\n        /* \"--CODEGEN--\":52:53   */\n      0x00\n        /* \"--CODEGEN--\":49:50   */\n      dup1\n        /* \"--CODEGEN--\":42:54   */\n      revert\n        /* \"--CODEGEN--\":8:10   */\n    tag_98:\n        /* \"RamzSwapRouter.sol\":29902:30600  function swapExactTokensForTokensSupportingFeeOnTransferTokens(... */\n      dup3\n      add\n        /* \"--CODEGEN--\":41:50   */\n      dup4\n        /* \"--CODEGEN--\":34:38   */\n      0x20\n        /* \"--CODEGEN--\":18:32   */\n      dup3\n        /* \"--CODEGEN--\":14:39   */\n      add\n        /* \"--CODEGEN--\":11:51   */\n      gt\n        /* \"--CODEGEN--\":8:10   */\n      iszero\n      tag_99\n      jumpi\n        /* \"--CODEGEN--\":64:65   */\n      0x00\n        /* \"--CODEGEN--\":61:62   */\n      dup1\n        /* \"--CODEGEN--\":54:66   */\n      revert\n        /* \"--CODEGEN--\":8:10   */\n    tag_99:\n        /* \"RamzSwapRouter.sol\":29902:30600  function swapExactTokensForTokensSupportingFeeOnTransferTokens(... */\n      dup1\n      calldataload\n      swap1\n      0x20\n      add\n      swap2\n        /* \"--CODEGEN--\":101:110   */\n      dup5\n        /* \"--CODEGEN--\":95:97   */\n      0x20\n        /* \"--CODEGEN--\":81:93   */\n      dup4\n        /* \"--CODEGEN--\":77:98   */\n      mul\n        /* \"--CODEGEN--\":67:75   */\n      dup5\n        /* \"--CODEGEN--\":63:99   */\n      add\n        /* \"--CODEGEN--\":60:111   */\n      gt\n      shl(0x20, 0x01)\n        /* \"--CODEGEN--\":25:37   */\n      dup4\n        /* \"--CODEGEN--\":22:51   */\n      gt\n        /* \"--CODEGEN--\":11:119   */\n      or\n        /* \"--CODEGEN--\":8:10   */\n      iszero\n      tag_100\n      jumpi\n        /* \"--CODEGEN--\":132:133   */\n      0x00\n        /* \"--CODEGEN--\":129:130   */\n      dup1\n        /* \"--CODEGEN--\":122:134   */\n      revert\n        /* \"--CODEGEN--\":8:10   */\n    tag_100:\n        /* \"RamzSwapRouter.sol\":29902:30600  function swapExactTokensForTokensSupportingFeeOnTransferTokens(... */\n      swap2\n      swap4\n      pop\n      swap2\n      pop\n      sub(shl(0xa0, 0x01), 0x01)\n      dup2\n      calldataload\n      and\n      swap1\n      0x20\n      add\n      calldataload\n      tag_101\n      jump\t// in\n        /* \"RamzSwapRouter.sol\":27764:28562  function swapMAALForExactTokens(uint amountOut, address[] calldata path, address to, uint deadline)... */\n    tag_13:\n      tag_38\n      0x04\n      dup1\n      calldatasize\n      sub\n        /* \"--CODEGEN--\":15:18   */\n      0x80\n        /* \"--CODEGEN--\":10:13   */\n      dup2\n        /* \"--CODEGEN--\":7:19   */\n      lt\n        /* \"--CODEGEN--\":4:6   */\n      iszero\n      tag_103\n      jumpi\n        /* \"--CODEGEN--\":32:33   */\n      0x00\n        /* \"--CODEGEN--\":29:30   */\n      dup1\n        /* \"--CODEGEN--\":22:34   */\n      revert\n        /* \"--CODEGEN--\":4:6   */\n    tag_103:\n        /* \"RamzSwapRouter.sol\":27764:28562  function swapMAALForExactTokens(uint amountOut, address[] calldata path, address to, uint deadline)... */\n      dup2\n      calldataload\n      swap2\n      swap1\n      dup2\n      add\n      swap1\n      0x40\n      dup2\n      add\n      0x20\n      dup3\n      add\n      calldataload\n      shl(0x20, 0x01)\n        /* \"--CODEGEN--\":11:39   */\n      dup2\n      gt\n        /* \"--CODEGEN--\":8:10   */\n      iszero\n      tag_104\n      jumpi\n        /* \"--CODEGEN--\":52:53   */\n      0x00\n        /* \"--CODEGEN--\":49:50   */\n      dup1\n        /* \"--CODEGEN--\":42:54   */\n      revert\n        /* \"--CODEGEN--\":8:10   */\n    tag_104:\n        /* \"RamzSwapRouter.sol\":27764:28562  function swapMAALForExactTokens(uint amountOut, address[] calldata path, address to, uint deadline)... */\n      dup3\n      add\n        /* \"--CODEGEN--\":41:50   */\n      dup4\n        /* \"--CODEGEN--\":34:38   */\n      0x20\n        /* \"--CODEGEN--\":18:32   */\n      dup3\n        /* \"--CODEGEN--\":14:39   */\n      add\n        /* \"--CODEGEN--\":11:51   */\n      gt\n        /* \"--CODEGEN--\":8:10   */\n      iszero\n      tag_105\n      jumpi\n        /* \"--CODEGEN--\":64:65   */\n      0x00\n        /* \"--CODEGEN--\":61:62   */\n      dup1\n        /* \"--CODEGEN--\":54:66   */\n      revert\n        /* \"--CODEGEN--\":8:10   */\n    tag_105:\n        /* \"RamzSwapRouter.sol\":27764:28562  function swapMAALForExactTokens(uint amountOut, address[] calldata path, address to, uint deadline)... */\n      dup1\n      calldataload\n      swap1\n      0x20\n      add\n      swap2\n        /* \"--CODEGEN--\":101:110   */\n      dup5\n        /* \"--CODEGEN--\":95:97   */\n      0x20\n        /* \"--CODEGEN--\":81:93   */\n      dup4\n        /* \"--CODEGEN--\":77:98   */\n      mul\n        /* \"--CODEGEN--\":67:75   */\n      dup5\n        /* \"--CODEGEN--\":63:99   */\n      add\n        /* \"--CODEGEN--\":60:111   */\n      gt\n      shl(0x20, 0x01)\n        /* \"--CODEGEN--\":25:37   */\n      dup4\n        /* \"--CODEGEN--\":22:51   */\n      gt\n        /* \"--CODEGEN--\":11:119   */\n      or\n        /* \"--CODEGEN--\":8:10   */\n      iszero\n      tag_106\n      jumpi\n        /* \"--CODEGEN--\":132:133   */\n      0x00\n        /* \"--CODEGEN--\":129:130   */\n      dup1\n        /* \"--CODEGEN--\":122:134   */\n      revert\n        /* \"--CODEGEN--\":8:10   */\n    tag_106:\n        /* \"RamzSwapRouter.sol\":27764:28562  function swapMAALForExactTokens(uint amountOut, address[] calldata path, address to, uint deadline)... */\n      swap2\n      swap4\n      pop\n      swap2\n      pop\n      sub(shl(0xa0, 0x01), 0x01)\n      dup2\n      calldataload\n      and\n      swap1\n      0x20\n      add\n      calldataload\n      tag_107\n      jump\t// in\n        /* \"RamzSwapRouter.sol\":18041:19007  function addLiquidityMAAL(... */\n    tag_14:\n      tag_111\n      0x04\n      dup1\n      calldatasize\n      sub\n        /* \"--CODEGEN--\":15:18   */\n      0xc0\n        /* \"--CODEGEN--\":10:13   */\n      dup2\n        /* \"--CODEGEN--\":7:19   */\n      lt\n        /* \"--CODEGEN--\":4:6   */\n      iszero\n      tag_112\n      jumpi\n        /* \"--CODEGEN--\":32:33   */\n      0x00\n        /* \"--CODEGEN--\":29:30   */\n      dup1\n        /* \"--CODEGEN--\":22:34   */\n      revert\n        /* \"--CODEGEN--\":4:6   */\n    tag_112:\n      pop\n      sub(shl(0xa0, 0x01), 0x01)\n        /* \"RamzSwapRouter.sol\":18041:19007  function addLiquidityMAAL(... */\n      dup2\n      calldataload\n      dup2\n      and\n      swap2\n      0x20\n      dup2\n      add\n      calldataload\n      swap2\n      0x40\n      dup3\n      add\n      calldataload\n      swap2\n      0x60\n      dup2\n      add\n      calldataload\n      swap2\n      0x80\n      dup3\n      add\n      calldataload\n      and\n      swap1\n      0xa0\n      add\n      calldataload\n      tag_113\n      jump\t// in\n    tag_111:\n      0x40\n      dup1\n      mload\n      swap4\n      dup5\n      mstore\n      0x20\n      dup5\n      add\n      swap3\n      swap1\n      swap3\n      mstore\n      dup3\n      dup3\n      add\n      mstore\n      mload\n      swap1\n      dup2\n      swap1\n      sub\n      0x60\n      add\n      swap1\n      return\n        /* \"RamzSwapRouter.sol\":15497:15536  address public immutable override WMAAL */\n    tag_15:\n      callvalue\n        /* \"--CODEGEN--\":5:14   */\n      dup1\n        /* \"--CODEGEN--\":2:4   */\n      iszero\n      tag_114\n      jumpi\n        /* \"--CODEGEN--\":27:28   */\n      0x00\n        /* \"--CODEGEN--\":24:25   */\n      dup1\n        /* \"--CODEGEN--\":17:29   */\n      revert\n        /* \"--CODEGEN--\":2:4   */\n    tag_114:\n        /* \"RamzSwapRouter.sol\":15497:15536  address public immutable override WMAAL */\n      pop\n      tag_115\n      tag_116\n      jump\t// in\n    tag_115:\n      0x40\n      dup1\n      mload\n      sub(shl(0xa0, 0x01), 0x01)\n      swap1\n      swap3\n      and\n      dup3\n      mstore\n      mload\n      swap1\n      dup2\n      swap1\n      sub\n      0x20\n      add\n      swap1\n      return\n        /* \"RamzSwapRouter.sol\":32760:33012  function getAmountIn(uint amountOut, uint reserveIn, uint reserveOut)... */\n    tag_16:\n      callvalue\n        /* \"--CODEGEN--\":5:14   */\n      dup1\n        /* \"--CODEGEN--\":2:4   */\n      iszero\n      tag_117\n      jumpi\n        /* \"--CODEGEN--\":27:28   */\n      0x00\n        /* \"--CODEGEN--\":24:25   */\n      dup1\n        /* \"--CODEGEN--\":17:29   */\n      revert\n        /* \"--CODEGEN--\":2:4   */\n    tag_117:\n        /* \"RamzSwapRouter.sol\":32760:33012  function getAmountIn(uint amountOut, uint reserveIn, uint reserveOut)... */\n      pop\n      tag_34\n      0x04\n      dup1\n      calldatasize\n      sub\n        /* \"--CODEGEN--\":15:17   */\n      0x60\n        /* \"--CODEGEN--\":10:13   */\n      dup2\n        /* \"--CODEGEN--\":7:18   */\n      lt\n        /* \"--CODEGEN--\":4:6   */\n      iszero\n      tag_119\n      jumpi\n        /* \"--CODEGEN--\":31:32   */\n      0x00\n        /* \"--CODEGEN--\":28:29   */\n      dup1\n        /* \"--CODEGEN--\":21:33   */\n      revert\n        /* \"--CODEGEN--\":4:6   */\n    tag_119:\n      pop\n        /* \"RamzSwapRouter.sol\":32760:33012  function getAmountIn(uint amountOut, uint reserveIn, uint reserveOut)... */\n      dup1\n      calldataload\n      swap1\n      0x20\n      dup2\n      add\n      calldataload\n      swap1\n      0x40\n      add\n      calldataload\n      tag_120\n      jump\t// in\n        /* \"RamzSwapRouter.sol\":24821:25411  function swapTokensForExactTokens(... */\n    tag_17:\n      callvalue\n        /* \"--CODEGEN--\":5:14   */\n      dup1\n        /* \"--CODEGEN--\":2:4   */\n      iszero\n      tag_121\n      jumpi\n        /* \"--CODEGEN--\":27:28   */\n      0x00\n        /* \"--CODEGEN--\":24:25   */\n      dup1\n        /* \"--CODEGEN--\":17:29   */\n      revert\n        /* \"--CODEGEN--\":2:4   */\n    tag_121:\n        /* \"RamzSwapRouter.sol\":24821:25411  function swapTokensForExactTokens(... */\n      pop\n      tag_38\n      0x04\n      dup1\n      calldatasize\n      sub\n        /* \"--CODEGEN--\":15:18   */\n      0xa0\n        /* \"--CODEGEN--\":10:13   */\n      dup2\n        /* \"--CODEGEN--\":7:19   */\n      lt\n        /* \"--CODEGEN--\":4:6   */\n      iszero\n      tag_123\n      jumpi\n        /* \"--CODEGEN--\":32:33   */\n      0x00\n        /* \"--CODEGEN--\":29:30   */\n      dup1\n        /* \"--CODEGEN--\":22:34   */\n      revert\n        /* \"--CODEGEN--\":4:6   */\n    tag_123:\n        /* \"RamzSwapRouter.sol\":24821:25411  function swapTokensForExactTokens(... */\n      dup2\n      calldataload\n      swap2\n      0x20\n      dup2\n      add\n      calldataload\n      swap2\n      dup2\n      add\n      swap1\n      0x60\n      dup2\n      add\n      0x40\n      dup3\n      add\n      calldataload\n      shl(0x20, 0x01)\n        /* \"--CODEGEN--\":11:39   */\n      dup2\n      gt\n        /* \"--CODEGEN--\":8:10   */\n      iszero\n      tag_124\n      jumpi\n        /* \"--CODEGEN--\":52:53   */\n      0x00\n        /* \"--CODEGEN--\":49:50   */\n      dup1\n        /* \"--CODEGEN--\":42:54   */\n      revert\n        /* \"--CODEGEN--\":8:10   */\n    tag_124:\n        /* \"RamzSwapRouter.sol\":24821:25411  function swapTokensForExactTokens(... */\n      dup3\n      add\n        /* \"--CODEGEN--\":41:50   */\n      dup4\n        /* \"--CODEGEN--\":34:38   */\n      0x20\n        /* \"--CODEGEN--\":18:32   */\n      dup3\n        /* \"--CODEGEN--\":14:39   */\n      add\n        /* \"--CODEGEN--\":11:51   */\n      gt\n        /* \"--CODEGEN--\":8:10   */\n      iszero\n      tag_125\n      jumpi\n        /* \"--CODEGEN--\":64:65   */\n      0x00\n        /* \"--CODEGEN--\":61:62   */\n      dup1\n        /* \"--CODEGEN--\":54:66   */\n      revert\n        /* \"--CODEGEN--\":8:10   */\n    tag_125:\n        /* \"RamzSwapRouter.sol\":24821:25411  function swapTokensForExactTokens(... */\n      dup1\n      calldataload\n      swap1\n      0x20\n      add\n      swap2\n        /* \"--CODEGEN--\":101:110   */\n      dup5\n        /* \"--CODEGEN--\":95:97   */\n      0x20\n        /* \"--CODEGEN--\":81:93   */\n      dup4\n        /* \"--CODEGEN--\":77:98   */\n      mul\n        /* \"--CODEGEN--\":67:75   */\n      dup5\n        /* \"--CODEGEN--\":63:99   */\n      add\n        /* \"--CODEGEN--\":60:111   */\n      gt\n      shl(0x20, 0x01)\n        /* \"--CODEGEN--\":25:37   */\n      dup4\n        /* \"--CODEGEN--\":22:51   */\n      gt\n        /* \"--CODEGEN--\":11:119   */\n      or\n        /* \"--CODEGEN--\":8:10   */\n      iszero\n      tag_126\n      jumpi\n        /* \"--CODEGEN--\":132:133   */\n      0x00\n        /* \"--CODEGEN--\":129:130   */\n      dup1\n        /* \"--CODEGEN--\":122:134   */\n      revert\n        /* \"--CODEGEN--\":8:10   */\n    tag_126:\n        /* \"RamzSwapRouter.sol\":24821:25411  function swapTokensForExactTokens(... */\n      swap2\n      swap4\n      pop\n      swap2\n      pop\n      sub(shl(0xa0, 0x01), 0x01)\n      dup2\n      calldataload\n      and\n      swap1\n      0x20\n      add\n      calldataload\n      tag_127\n      jump\t// in\n        /* \"RamzSwapRouter.sol\":32310:32495  function quote(uint amountA, uint reserveA, uint reserveB) public pure virtual override returns (uint amountB) {... */\n    tag_18:\n      callvalue\n        /* \"--CODEGEN--\":5:14   */\n      dup1\n        /* \"--CODEGEN--\":2:4   */\n      iszero\n      tag_131\n      jumpi\n        /* \"--CODEGEN--\":27:28   */\n      0x00\n        /* \"--CODEGEN--\":24:25   */\n      dup1\n        /* \"--CODEGEN--\":17:29   */\n      revert\n        /* \"--CODEGEN--\":2:4   */\n    tag_131:\n        /* \"RamzSwapRouter.sol\":32310:32495  function quote(uint amountA, uint reserveA, uint reserveB) public pure virtual override returns (uint amountB) {... */\n      pop\n      tag_34\n      0x04\n      dup1\n      calldatasize\n      sub\n        /* \"--CODEGEN--\":15:17   */\n      0x60\n        /* \"--CODEGEN--\":10:13   */\n      dup2\n        /* \"--CODEGEN--\":7:18   */\n      lt\n        /* \"--CODEGEN--\":4:6   */\n      iszero\n      tag_133\n      jumpi\n        /* \"--CODEGEN--\":31:32   */\n      0x00\n        /* \"--CODEGEN--\":28:29   */\n      dup1\n        /* \"--CODEGEN--\":21:33   */\n      revert\n        /* \"--CODEGEN--\":4:6   */\n    tag_133:\n      pop\n        /* \"RamzSwapRouter.sol\":32310:32495  function quote(uint amountA, uint reserveA, uint reserveB) public pure virtual override returns (uint amountB) {... */\n      dup1\n      calldataload\n      swap1\n      0x20\n      dup2\n      add\n      calldataload\n      swap1\n      0x40\n      add\n      calldataload\n      tag_134\n      jump\t// in\n        /* \"RamzSwapRouter.sol\":19047:19890  function removeLiquidity(... */\n    tag_19:\n      callvalue\n        /* \"--CODEGEN--\":5:14   */\n      dup1\n        /* \"--CODEGEN--\":2:4   */\n      iszero\n      tag_135\n      jumpi\n        /* \"--CODEGEN--\":27:28   */\n      0x00\n        /* \"--CODEGEN--\":24:25   */\n      dup1\n        /* \"--CODEGEN--\":17:29   */\n      revert\n        /* \"--CODEGEN--\":2:4   */\n    tag_135:\n        /* \"RamzSwapRouter.sol\":19047:19890  function removeLiquidity(... */\n      pop\n      tag_58\n      0x04\n      dup1\n      calldatasize\n      sub\n        /* \"--CODEGEN--\":15:18   */\n      0xe0\n        /* \"--CODEGEN--\":10:13   */\n      dup2\n        /* \"--CODEGEN--\":7:19   */\n      lt\n        /* \"--CODEGEN--\":4:6   */\n      iszero\n      tag_137\n      jumpi\n        /* \"--CODEGEN--\":32:33   */\n      0x00\n        /* \"--CODEGEN--\":29:30   */\n      dup1\n        /* \"--CODEGEN--\":22:34   */\n      revert\n        /* \"--CODEGEN--\":4:6   */\n    tag_137:\n      pop\n      sub(shl(0xa0, 0x01), 0x01)\n        /* \"RamzSwapRouter.sol\":19047:19890  function removeLiquidity(... */\n      dup2\n      calldataload\n      dup2\n      and\n      swap2\n      0x20\n      dup2\n      add\n      calldataload\n      dup3\n      and\n      swap2\n      0x40\n      dup3\n      add\n      calldataload\n      swap2\n      0x60\n      dup2\n      add\n      calldataload\n      swap2\n      0x80\n      dup3\n      add\n      calldataload\n      swap2\n      0xa0\n      dup2\n      add\n      calldataload\n      swap1\n      swap2\n      and\n      swap1\n      0xc0\n      add\n      calldataload\n      tag_138\n      jump\t// in\n        /* \"RamzSwapRouter.sol\":21230:21891  function removeLiquidityMAALWithPermit(... */\n    tag_20:\n      callvalue\n        /* \"--CODEGEN--\":5:14   */\n      dup1\n        /* \"--CODEGEN--\":2:4   */\n      iszero\n      tag_139\n      jumpi\n        /* \"--CODEGEN--\":27:28   */\n      0x00\n        /* \"--CODEGEN--\":24:25   */\n      dup1\n        /* \"--CODEGEN--\":17:29   */\n      revert\n        /* \"--CODEGEN--\":2:4   */\n    tag_139:\n        /* \"RamzSwapRouter.sol\":21230:21891  function removeLiquidityMAALWithPermit(... */\n      pop\n      tag_58\n      0x04\n      dup1\n      calldatasize\n      sub\n        /* \"--CODEGEN--\":15:18   */\n      0x0140\n        /* \"--CODEGEN--\":10:13   */\n      dup2\n        /* \"--CODEGEN--\":7:19   */\n      lt\n        /* \"--CODEGEN--\":4:6   */\n      iszero\n      tag_141\n      jumpi\n        /* \"--CODEGEN--\":32:33   */\n      0x00\n        /* \"--CODEGEN--\":29:30   */\n      dup1\n        /* \"--CODEGEN--\":22:34   */\n      revert\n        /* \"--CODEGEN--\":4:6   */\n    tag_141:\n      pop\n      sub(shl(0xa0, 0x01), 0x01)\n        /* \"RamzSwapRouter.sol\":21230:21891  function removeLiquidityMAALWithPermit(... */\n      dup2\n      calldataload\n      dup2\n      and\n      swap2\n      0x20\n      dup2\n      add\n      calldataload\n      swap2\n      0x40\n      dup3\n      add\n      calldataload\n      swap2\n      0x60\n      dup2\n      add\n      calldataload\n      swap2\n      0x80\n      dup3\n      add\n      calldataload\n      and\n      swap1\n      0xa0\n      dup2\n      add\n      calldataload\n      swap1\n      0xc0\n      dup2\n      add\n      calldataload\n      iszero\n      iszero\n      swap1\n      0xff\n      0xe0\n      dup3\n      add\n      calldataload\n      and\n      swap1\n      0x0100\n      dup2\n      add\n      calldataload\n      swap1\n      0x0120\n      add\n      calldataload\n      tag_142\n      jump\t// in\n        /* \"RamzSwapRouter.sol\":15450:15491  address public immutable override factory */\n    tag_21:\n      callvalue\n        /* \"--CODEGEN--\":5:14   */\n      dup1\n        /* \"--CODEGEN--\":2:4   */\n      iszero\n      tag_143\n      jumpi\n        /* \"--CODEGEN--\":27:28   */\n      0x00\n        /* \"--CODEGEN--\":24:25   */\n      dup1\n        /* \"--CODEGEN--\":17:29   */\n      revert\n        /* \"--CODEGEN--\":2:4   */\n    tag_143:\n        /* \"RamzSwapRouter.sol\":15450:15491  address public immutable override factory */\n      pop\n      tag_115\n      tag_145\n      jump\t// in\n        /* \"RamzSwapRouter.sol\":26924:27759  function swapExactTokensForMAAL(uint amountIn, uint amountOutMin, address[] calldata path, address to, uint deadline)... */\n    tag_22:\n      callvalue\n        /* \"--CODEGEN--\":5:14   */\n      dup1\n        /* \"--CODEGEN--\":2:4   */\n      iszero\n      tag_146\n      jumpi\n        /* \"--CODEGEN--\":27:28   */\n      0x00\n        /* \"--CODEGEN--\":24:25   */\n      dup1\n        /* \"--CODEGEN--\":17:29   */\n      revert\n        /* \"--CODEGEN--\":2:4   */\n    tag_146:\n        /* \"RamzSwapRouter.sol\":26924:27759  function swapExactTokensForMAAL(uint amountIn, uint amountOutMin, address[] calldata path, address to, uint deadline)... */\n      pop\n      tag_38\n      0x04\n      dup1\n      calldatasize\n      sub\n        /* \"--CODEGEN--\":15:18   */\n      0xa0\n        /* \"--CODEGEN--\":10:13   */\n      dup2\n        /* \"--CODEGEN--\":7:19   */\n      lt\n        /* \"--CODEGEN--\":4:6   */\n      iszero\n      tag_148\n      jumpi\n        /* \"--CODEGEN--\":32:33   */\n      0x00\n        /* \"--CODEGEN--\":29:30   */\n      dup1\n        /* \"--CODEGEN--\":22:34   */\n      revert\n        /* \"--CODEGEN--\":4:6   */\n    tag_148:\n        /* \"RamzSwapRouter.sol\":26924:27759  function swapExactTokensForMAAL(uint amountIn, uint amountOutMin, address[] calldata path, address to, uint deadline)... */\n      dup2\n      calldataload\n      swap2\n      0x20\n      dup2\n      add\n      calldataload\n      swap2\n      dup2\n      add\n      swap1\n      0x60\n      dup2\n      add\n      0x40\n      dup3\n      add\n      calldataload\n      shl(0x20, 0x01)\n        /* \"--CODEGEN--\":11:39   */\n      dup2\n      gt\n        /* \"--CODEGEN--\":8:10   */\n      iszero\n      tag_149\n      jumpi\n        /* \"--CODEGEN--\":52:53   */\n      0x00\n        /* \"--CODEGEN--\":49:50   */\n      dup1\n        /* \"--CODEGEN--\":42:54   */\n      revert\n        /* \"--CODEGEN--\":8:10   */\n    tag_149:\n        /* \"RamzSwapRouter.sol\":26924:27759  function swapExactTokensForMAAL(uint amountIn, uint amountOutMin, address[] calldata path, address to, uint deadline)... */\n      dup3\n      add\n        /* \"--CODEGEN--\":41:50   */\n      dup4\n        /* \"--CODEGEN--\":34:38   */\n      0x20\n        /* \"--CODEGEN--\":18:32   */\n      dup3\n        /* \"--CODEGEN--\":14:39   */\n      add\n        /* \"--CODEGEN--\":11:51   */\n      gt\n        /* \"--CODEGEN--\":8:10   */\n      iszero\n      tag_150\n      jumpi\n        /* \"--CODEGEN--\":64:65   */\n      0x00\n        /* \"--CODEGEN--\":61:62   */\n      dup1\n        /* \"--CODEGEN--\":54:66   */\n      revert\n        /* \"--CODEGEN--\":8:10   */\n    tag_150:\n        /* \"RamzSwapRouter.sol\":26924:27759  function swapExactTokensForMAAL(uint amountIn, uint amountOutMin, address[] calldata path, address to, uint deadline)... */\n      dup1\n      calldataload\n      swap1\n      0x20\n      add\n      swap2\n        /* \"--CODEGEN--\":101:110   */\n      dup5\n        /* \"--CODEGEN--\":95:97   */\n      0x20\n        /* \"--CODEGEN--\":81:93   */\n      dup4\n        /* \"--CODEGEN--\":77:98   */\n      mul\n        /* \"--CODEGEN--\":67:75   */\n      dup5\n        /* \"--CODEGEN--\":63:99   */\n      add\n        /* \"--CODEGEN--\":60:111   */\n      gt\n      shl(0x20, 0x01)\n        /* \"--CODEGEN--\":25:37   */\n      dup4\n        /* \"--CODEGEN--\":22:51   */\n      gt\n        /* \"--CODEGEN--\":11:119   */\n      or\n        /* \"--CODEGEN--\":8:10   */\n      iszero\n      tag_151\n      jumpi\n        /* \"--CODEGEN--\":132:133   */\n      0x00\n        /* \"--CODEGEN--\":129:130   */\n      dup1\n        /* \"--CODEGEN--\":122:134   */\n      revert\n        /* \"--CODEGEN--\":8:10   */\n    tag_151:\n        /* \"RamzSwapRouter.sol\":26924:27759  function swapExactTokensForMAAL(uint amountIn, uint amountOutMin, address[] calldata path, address to, uint deadline)... */\n      swap2\n      swap4\n      pop\n      swap2\n      pop\n      sub(shl(0xa0, 0x01), 0x01)\n      dup2\n      calldataload\n      and\n      swap1\n      0x20\n      add\n      calldataload\n      tag_152\n      jump\t// in\n        /* \"RamzSwapRouter.sol\":33018:33262  function getAmountsOut(uint amountIn, address[] memory path)... */\n    tag_23:\n      callvalue\n        /* \"--CODEGEN--\":5:14   */\n      dup1\n        /* \"--CODEGEN--\":2:4   */\n      iszero\n      tag_156\n      jumpi\n        /* \"--CODEGEN--\":27:28   */\n      0x00\n        /* \"--CODEGEN--\":24:25   */\n      dup1\n        /* \"--CODEGEN--\":17:29   */\n      revert\n        /* \"--CODEGEN--\":2:4   */\n    tag_156:\n        /* \"RamzSwapRouter.sol\":33018:33262  function getAmountsOut(uint amountIn, address[] memory path)... */\n      pop\n      tag_38\n      0x04\n      dup1\n      calldatasize\n      sub\n        /* \"--CODEGEN--\":15:17   */\n      0x40\n        /* \"--CODEGEN--\":10:13   */\n      dup2\n        /* \"--CODEGEN--\":7:18   */\n      lt\n        /* \"--CODEGEN--\":4:6   */\n      iszero\n      tag_158\n      jumpi\n        /* \"--CODEGEN--\":31:32   */\n      0x00\n        /* \"--CODEGEN--\":28:29   */\n      dup1\n        /* \"--CODEGEN--\":21:33   */\n      revert\n        /* \"--CODEGEN--\":4:6   */\n    tag_158:\n        /* \"RamzSwapRouter.sol\":33018:33262  function getAmountsOut(uint amountIn, address[] memory path)... */\n      dup2\n      calldataload\n      swap2\n      swap1\n      dup2\n      add\n      swap1\n      0x40\n      dup2\n      add\n      0x20\n      dup3\n      add\n      calldataload\n      shl(0x20, 0x01)\n        /* \"--CODEGEN--\":11:39   */\n      dup2\n      gt\n        /* \"--CODEGEN--\":8:10   */\n      iszero\n      tag_159\n      jumpi\n        /* \"--CODEGEN--\":52:53   */\n      0x00\n        /* \"--CODEGEN--\":49:50   */\n      dup1\n        /* \"--CODEGEN--\":42:54   */\n      revert\n        /* \"--CODEGEN--\":8:10   */\n    tag_159:\n        /* \"RamzSwapRouter.sol\":33018:33262  function getAmountsOut(uint amountIn, address[] memory path)... */\n      dup3\n      add\n        /* \"--CODEGEN--\":41:50   */\n      dup4\n        /* \"--CODEGEN--\":34:38   */\n      0x20\n        /* \"--CODEGEN--\":18:32   */\n      dup3\n        /* \"--CODEGEN--\":14:39   */\n      add\n        /* \"--CODEGEN--\":11:51   */\n      gt\n        /* \"--CODEGEN--\":8:10   */\n      iszero\n      tag_160\n      jumpi\n        /* \"--CODEGEN--\":64:65   */\n      0x00\n        /* \"--CODEGEN--\":61:62   */\n      dup1\n        /* \"--CODEGEN--\":54:66   */\n      revert\n        /* \"--CODEGEN--\":8:10   */\n    tag_160:\n        /* \"RamzSwapRouter.sol\":33018:33262  function getAmountsOut(uint amountIn, address[] memory path)... */\n      dup1\n      calldataload\n      swap1\n      0x20\n      add\n      swap2\n        /* \"--CODEGEN--\":101:110   */\n      dup5\n        /* \"--CODEGEN--\":95:97   */\n      0x20\n        /* \"--CODEGEN--\":81:93   */\n      dup4\n        /* \"--CODEGEN--\":77:98   */\n      mul\n        /* \"--CODEGEN--\":67:75   */\n      dup5\n        /* \"--CODEGEN--\":63:99   */\n      add\n        /* \"--CODEGEN--\":60:111   */\n      gt\n      shl(0x20, 0x01)\n        /* \"--CODEGEN--\":25:37   */\n      dup4\n        /* \"--CODEGEN--\":22:51   */\n      gt\n        /* \"--CODEGEN--\":11:119   */\n      or\n        /* \"--CODEGEN--\":8:10   */\n      iszero\n      tag_161\n      jumpi\n        /* \"--CODEGEN--\":132:133   */\n      0x00\n        /* \"--CODEGEN--\":129:130   */\n      dup1\n        /* \"--CODEGEN--\":122:134   */\n      revert\n        /* \"--CODEGEN--\":8:10   */\n    tag_161:\n        /* \"RamzSwapRouter.sol\":33018:33262  function getAmountsOut(uint amountIn, address[] memory path)... */\n      swap2\n      swap1\n      dup1\n      dup1\n      0x20\n      mul\n      0x20\n      add\n      mload(0x40)\n      swap1\n      dup2\n      add\n      0x40\n      mstore\n      dup1\n      swap4\n      swap3\n      swap2\n      swap1\n      dup2\n      dup2\n      mstore\n      0x20\n      add\n      dup4\n      dup4\n      0x20\n      mul\n        /* \"--CODEGEN--\":30:33   */\n      dup1\n        /* \"--CODEGEN--\":22:28   */\n      dup3\n        /* \"--CODEGEN--\":14:20   */\n      dup5\n        /* \"--CODEGEN--\":1:34   */\n      calldatacopy\n        /* \"--CODEGEN--\":99:100   */\n      0x00\n        /* \"--CODEGEN--\":81:97   */\n      swap3\n      add\n        /* \"--CODEGEN--\":74:101   */\n      swap2\n      swap1\n      swap2\n      mstore\n      pop\n        /* \"RamzSwapRouter.sol\":33018:33262  function getAmountsOut(uint amountIn, address[] memory path)... */\n      swap3\n      swap6\n      pop\n      tag_162\n      swap5\n      pop\n      pop\n      pop\n      pop\n      pop\n      jump\t// in\n        /* \"RamzSwapRouter.sol\":30605:31438  function swapExactMAALForTokensSupportingFeeOnTransferTokens(... */\n    tag_24:\n      tag_32\n      0x04\n      dup1\n      calldatasize\n      sub\n        /* \"--CODEGEN--\":15:18   */\n      0x80\n        /* \"--CODEGEN--\":10:13   */\n      dup2\n        /* \"--CODEGEN--\":7:19   */\n      lt\n        /* \"--CODEGEN--\":4:6   */\n      iszero\n      tag_167\n      jumpi\n        /* \"--CODEGEN--\":32:33   */\n      0x00\n        /* \"--CODEGEN--\":29:30   */\n      dup1\n        /* \"--CODEGEN--\":22:34   */\n      revert\n        /* \"--CODEGEN--\":4:6   */\n    tag_167:\n        /* \"RamzSwapRouter.sol\":30605:31438  function swapExactMAALForTokensSupportingFeeOnTransferTokens(... */\n      dup2\n      calldataload\n      swap2\n      swap1\n      dup2\n      add\n      swap1\n      0x40\n      dup2\n      add\n      0x20\n      dup3\n      add\n      calldataload\n      shl(0x20, 0x01)\n        /* \"--CODEGEN--\":11:39   */\n      dup2\n      gt\n        /* \"--CODEGEN--\":8:10   */\n      iszero\n      tag_168\n      jumpi\n        /* \"--CODEGEN--\":52:53   */\n      0x00\n        /* \"--CODEGEN--\":49:50   */\n      dup1\n        /* \"--CODEGEN--\":42:54   */\n      revert\n        /* \"--CODEGEN--\":8:10   */\n    tag_168:\n        /* \"RamzSwapRouter.sol\":30605:31438  function swapExactMAALForTokensSupportingFeeOnTransferTokens(... */\n      dup3\n      add\n        /* \"--CODEGEN--\":41:50   */\n      dup4\n        /* \"--CODEGEN--\":34:38   */\n      0x20\n        /* \"--CODEGEN--\":18:32   */\n      dup3\n        /* \"--CODEGEN--\":14:39   */\n      add\n        /* \"--CODEGEN--\":11:51   */\n      gt\n        /* \"--CODEGEN--\":8:10   */\n      iszero\n      tag_169\n      jumpi\n        /* \"--CODEGEN--\":64:65   */\n      0x00\n        /* \"--CODEGEN--\":61:62   */\n      dup1\n        /* \"--CODEGEN--\":54:66   */\n      revert\n        /* \"--CODEGEN--\":8:10   */\n    tag_169:\n        /* \"RamzSwapRouter.sol\":30605:31438  function swapExactMAALForTokensSupportingFeeOnTransferTokens(... */\n      dup1\n      calldataload\n      swap1\n      0x20\n      add\n      swap2\n        /* \"--CODEGEN--\":101:110   */\n      dup5\n        /* \"--CODEGEN--\":95:97   */\n      0x20\n        /* \"--CODEGEN--\":81:93   */\n      dup4\n        /* \"--CODEGEN--\":77:98   */\n      mul\n        /* \"--CODEGEN--\":67:75   */\n      dup5\n        /* \"--CODEGEN--\":63:99   */\n      add\n        /* \"--CODEGEN--\":60:111   */\n      gt\n      shl(0x20, 0x01)\n        /* \"--CODEGEN--\":25:37   */\n      dup4\n        /* \"--CODEGEN--\":22:51   */\n      gt\n        /* \"--CODEGEN--\":11:119   */\n      or\n        /* \"--CODEGEN--\":8:10   */\n      iszero\n      tag_170\n      jumpi\n        /* \"--CODEGEN--\":132:133   */\n      0x00\n        /* \"--CODEGEN--\":129:130   */\n      dup1\n        /* \"--CODEGEN--\":122:134   */\n      revert\n        /* \"--CODEGEN--\":8:10   */\n    tag_170:\n        /* \"RamzSwapRouter.sol\":30605:31438  function swapExactMAALForTokensSupportingFeeOnTransferTokens(... */\n      swap2\n      swap4\n      pop\n      swap2\n      pop\n      sub(shl(0xa0, 0x01), 0x01)\n      dup2\n      calldataload\n      and\n      swap1\n      0x20\n      add\n      calldataload\n      tag_171\n      jump\t// in\n        /* \"RamzSwapRouter.sol\":17315:18036  function addLiquidity(... */\n    tag_25:\n      callvalue\n        /* \"--CODEGEN--\":5:14   */\n      dup1\n        /* \"--CODEGEN--\":2:4   */\n      iszero\n      tag_172\n      jumpi\n        /* \"--CODEGEN--\":27:28   */\n      0x00\n        /* \"--CODEGEN--\":24:25   */\n      dup1\n        /* \"--CODEGEN--\":17:29   */\n      revert\n        /* \"--CODEGEN--\":2:4   */\n    tag_172:\n        /* \"RamzSwapRouter.sol\":17315:18036  function addLiquidity(... */\n      pop\n      tag_111\n      0x04\n      dup1\n      calldatasize\n      sub\n        /* \"--CODEGEN--\":15:18   */\n      0x0100\n        /* \"--CODEGEN--\":10:13   */\n      dup2\n        /* \"--CODEGEN--\":7:19   */\n      lt\n        /* \"--CODEGEN--\":4:6   */\n      iszero\n      tag_174\n      jumpi\n        /* \"--CODEGEN--\":32:33   */\n      0x00\n        /* \"--CODEGEN--\":29:30   */\n      dup1\n        /* \"--CODEGEN--\":22:34   */\n      revert\n        /* \"--CODEGEN--\":4:6   */\n    tag_174:\n      pop\n      sub(shl(0xa0, 0x01), 0x01)\n        /* \"RamzSwapRouter.sol\":17315:18036  function addLiquidity(... */\n      dup2\n      calldataload\n      dup2\n      and\n      swap2\n      0x20\n      dup2\n      add\n      calldataload\n      dup3\n      and\n      swap2\n      0x40\n      dup3\n      add\n      calldataload\n      swap2\n      0x60\n      dup2\n      add\n      calldataload\n      swap2\n      0x80\n      dup3\n      add\n      calldataload\n      swap2\n      0xa0\n      dup2\n      add\n      calldataload\n      swap2\n      0xc0\n      dup3\n      add\n      calldataload\n      and\n      swap1\n      0xe0\n      add\n      calldataload\n      tag_175\n      jump\t// in\n        /* \"RamzSwapRouter.sol\":21967:22659  function removeLiquidityMAALSupportingFeeOnTransferTokens(... */\n    tag_26:\n      callvalue\n        /* \"--CODEGEN--\":5:14   */\n      dup1\n        /* \"--CODEGEN--\":2:4   */\n      iszero\n      tag_176\n      jumpi\n        /* \"--CODEGEN--\":27:28   */\n      0x00\n        /* \"--CODEGEN--\":24:25   */\n      dup1\n        /* \"--CODEGEN--\":17:29   */\n      revert\n        /* \"--CODEGEN--\":2:4   */\n    tag_176:\n        /* \"RamzSwapRouter.sol\":21967:22659  function removeLiquidityMAALSupportingFeeOnTransferTokens(... */\n      pop\n      tag_34\n      0x04\n      dup1\n      calldatasize\n      sub\n        /* \"--CODEGEN--\":15:18   */\n      0xc0\n        /* \"--CODEGEN--\":10:13   */\n      dup2\n        /* \"--CODEGEN--\":7:19   */\n      lt\n        /* \"--CODEGEN--\":4:6   */\n      iszero\n      tag_178\n      jumpi\n        /* \"--CODEGEN--\":32:33   */\n      0x00\n        /* \"--CODEGEN--\":29:30   */\n      dup1\n        /* \"--CODEGEN--\":22:34   */\n      revert\n        /* \"--CODEGEN--\":4:6   */\n    tag_178:\n      pop\n      sub(shl(0xa0, 0x01), 0x01)\n        /* \"RamzSwapRouter.sol\":21967:22659  function removeLiquidityMAALSupportingFeeOnTransferTokens(... */\n      dup2\n      calldataload\n      dup2\n      and\n      swap2\n      0x20\n      dup2\n      add\n      calldataload\n      swap2\n      0x40\n      dup3\n      add\n      calldataload\n      swap2\n      0x60\n      dup2\n      add\n      calldataload\n      swap2\n      0x80\n      dup3\n      add\n      calldataload\n      and\n      swap1\n      0xa0\n      add\n      calldataload\n      tag_179\n      jump\t// in\n        /* \"RamzSwapRouter.sol\":32501:32754  function getAmountOut(uint amountIn, uint reserveIn, uint reserveOut)... */\n    tag_36:\n        /* \"RamzSwapRouter.sol\":32649:32663  uint amountOut */\n      0x00\n        /* \"RamzSwapRouter.sol\":32686:32747  RamzSwapLibrary.getAmountOut(amountIn, reserveIn, reserveOut) */\n      tag_181\n        /* \"RamzSwapRouter.sol\":32715:32723  amountIn */\n      dup5\n        /* \"RamzSwapRouter.sol\":32725:32734  reserveIn */\n      dup5\n        /* \"RamzSwapRouter.sol\":32736:32746  reserveOut */\n      dup5\n        /* \"RamzSwapRouter.sol\":32686:32714  RamzSwapLibrary.getAmountOut */\n      tag_182\n        /* \"RamzSwapRouter.sol\":32686:32747  RamzSwapLibrary.getAmountOut(amountIn, reserveIn, reserveOut) */\n      jump\t// in\n    tag_181:\n        /* \"RamzSwapRouter.sol\":32679:32747  return RamzSwapLibrary.getAmountOut(amountIn, reserveIn, reserveOut) */\n      swap5\n        /* \"RamzSwapRouter.sol\":32501:32754  function getAmountOut(uint amountIn, uint reserveIn, uint reserveOut)... */\n      swap4\n      pop\n      pop\n      pop\n      pop\n      jump\t// out\n        /* \"RamzSwapRouter.sol\":26106:26919  function swapTokensForExactMAAL(uint amountOut, uint amountInMax, address[] calldata path, address to, uint deadline)... */\n    tag_43:\n        /* \"RamzSwapRouter.sol\":26316:26337  uint[] memory amounts */\n      0x60\n        /* \"RamzSwapRouter.sol\":26289:26297  deadline */\n      dup2\n        /* \"RamzSwapRouter.sol\":15604:15619  block.timestamp */\n      timestamp\n        /* \"RamzSwapRouter.sol\":15592:15600  deadline */\n      dup2\n        /* \"RamzSwapRouter.sol\":15592:15619  deadline >= block.timestamp */\n      lt\n      iszero\n        /* \"RamzSwapRouter.sol\":15584:15647  require(deadline >= block.timestamp, 'RamzSwapRouter: EXPIRED') */\n      tag_184\n      jumpi\n      0x40\n      dup1\n      mload\n      shl(0xe5, 0x461bcd)\n      dup2\n      mstore\n      0x20\n      0x04\n      dup3\n      add\n      mstore\n      0x17\n      0x24\n      dup3\n      add\n      mstore\n      0x00\n      dup1\n      mload\n      0x20\n      data_abe419f277ac6b272f0968a9f490f07eeccba4f306ed4de5548b5f8f76aeb85a\n      dup4\n      codecopy\n      dup2\n      mload\n      swap2\n      mstore\n      0x44\n      dup3\n      add\n      mstore\n      swap1\n      mload\n      swap1\n      dup2\n      swap1\n      sub\n      0x64\n      add\n      swap1\n      revert\n    tag_184:\n      sub(shl(0xa0, 0x01), 0x01)\n        /* \"RamzSwapRouter.sol\":26386:26391  WMAAL */\n      immutable(\"0x139b5474829a1a438527d6f3b7cb075ea9353c362b5b7082a6a6627c27b040e8\")\n        /* \"RamzSwapRouter.sol\":26361:26391  path[path.length - 1] == WMAAL */\n      and\n        /* \"RamzSwapRouter.sol\":26361:26365  path */\n      dup7\n      dup7\n      not(0x00)\n        /* \"RamzSwapRouter.sol\":26366:26381  path.length - 1 */\n      dup2\n      add\n        /* \"RamzSwapRouter.sol\":26361:26382  path[path.length - 1] */\n      dup2\n      dup2\n      lt\n      tag_186\n      jumpi\n      invalid\n    tag_186:\n      swap1\n      pop\n      0x20\n      mul\n      add\n      calldataload\n      sub(shl(0xa0, 0x01), 0x01)\n      and\n      sub(shl(0xa0, 0x01), 0x01)\n        /* \"RamzSwapRouter.sol\":26361:26391  path[path.length - 1] == WMAAL */\n      and\n      eq\n        /* \"RamzSwapRouter.sol\":26353:26424  require(path[path.length - 1] == WMAAL, 'RamzSwapRouter: INVALID_PATH') */\n      tag_187\n      jumpi\n      0x40\n      dup1\n      mload\n      shl(0xe5, 0x461bcd)\n      dup2\n      mstore\n      0x20\n      0x04\n      dup3\n      add\n      mstore\n      0x1c\n      0x24\n      dup3\n      add\n      mstore\n      0x00\n      dup1\n      mload\n      0x20\n      data_a3f1373089ee7b4837b906391b8993e750ecc2d2c744f3f58b38560998fe2d12\n      dup4\n      codecopy\n      dup2\n      mload\n      swap2\n      mstore\n      0x44\n      dup3\n      add\n      mstore\n      swap1\n      mload\n      swap1\n      dup2\n      swap1\n      sub\n      0x64\n      add\n      swap1\n      revert\n    tag_187:\n        /* \"RamzSwapRouter.sol\":26444:26498  RamzSwapLibrary.getAmountsIn(factory, amountOut, path) */\n      tag_188\n        /* \"RamzSwapRouter.sol\":26473:26480  factory */\n      immutable(\"0x173bb80bf7ae3dde444a25d8c84de4e84891034d416e0f0ffbc56cab6043ec24\")\n        /* \"RamzSwapRouter.sol\":26482:26491  amountOut */\n      dup10\n        /* \"RamzSwapRouter.sol\":26493:26497  path */\n      dup9\n      dup9\n        /* \"RamzSwapRouter.sol\":26444:26498  RamzSwapLibrary.getAmountsIn(factory, amountOut, path) */\n      dup1\n      dup1\n      0x20\n      mul\n      0x20\n      add\n      mload(0x40)\n      swap1\n      dup2\n      add\n      0x40\n      mstore\n      dup1\n      swap4\n      swap3\n      swap2\n      swap1\n      dup2\n      dup2\n      mstore\n      0x20\n      add\n      dup4\n      dup4\n      0x20\n      mul\n        /* \"--CODEGEN--\":30:33   */\n      dup1\n        /* \"--CODEGEN--\":22:28   */\n      dup3\n        /* \"--CODEGEN--\":14:20   */\n      dup5\n        /* \"--CODEGEN--\":1:34   */\n      calldatacopy\n        /* \"--CODEGEN--\":99:100   */\n      0x00\n        /* \"--CODEGEN--\":81:97   */\n      swap3\n      add\n        /* \"--CODEGEN--\":74:101   */\n      swap2\n      swap1\n      swap2\n      mstore\n      pop\n        /* \"RamzSwapRouter.sol\":26444:26472  RamzSwapLibrary.getAmountsIn */\n      tag_189\n      swap3\n      pop\n      pop\n      pop\n        /* \"RamzSwapRouter.sol\":26444:26498  RamzSwapLibrary.getAmountsIn(factory, amountOut, path) */\n      jump\t// in\n    tag_188:\n        /* \"RamzSwapRouter.sol\":26434:26498  amounts = RamzSwapLibrary.getAmountsIn(factory, amountOut, path) */\n      swap2\n      pop\n        /* \"RamzSwapRouter.sol\":26530:26541  amountInMax */\n      dup7\n        /* \"RamzSwapRouter.sol\":26516:26523  amounts */\n      dup3\n        /* \"RamzSwapRouter.sol\":26524:26525  0 */\n      0x00\n        /* \"RamzSwapRouter.sol\":26516:26526  amounts[0] */\n      dup2\n      mload\n      dup2\n      lt\n      tag_190\n      jumpi\n      invalid\n    tag_190:\n      0x20\n      mul\n      0x20\n      add\n      add\n      mload\n        /* \"RamzSwapRouter.sol\":26516:26541  amounts[0] <= amountInMax */\n      gt\n      iszero\n        /* \"RamzSwapRouter.sol\":26508:26584  require(amounts[0] <= amountInMax, 'RamzSwapRouter: EXCESSIVE_INPUT_AMOUNT') */\n      tag_191\n      jumpi\n      mload(0x40)\n      shl(0xe5, 0x461bcd)\n      dup2\n      mstore\n      0x04\n      add\n      dup1\n      dup1\n      0x20\n      add\n      dup3\n      dup2\n      sub\n      dup3\n      mstore\n      0x26\n      dup2\n      mstore\n      0x20\n      add\n      dup1\n      data_5e897f34b03c6c0a30277e01a5a4f60eb9482a487ba0f763282084ccb4259511\n      0x26\n      swap2\n      codecopy\n      0x40\n      add\n      swap2\n      pop\n      pop\n      mload(0x40)\n      dup1\n      swap2\n      sub\n      swap1\n      revert\n    tag_191:\n        /* \"RamzSwapRouter.sol\":26594:26732  TransferHelper.safeTransferFrom(... */\n      tag_192\n        /* \"RamzSwapRouter.sol\":26639:26643  path */\n      dup7\n      dup7\n        /* \"RamzSwapRouter.sol\":26644:26645  0 */\n      0x00\n        /* \"RamzSwapRouter.sol\":26639:26646  path[0] */\n      dup2\n      dup2\n      lt\n      tag_193\n      jumpi\n      invalid\n    tag_193:\n      swap1\n      pop\n      0x20\n      mul\n      add\n      calldataload\n      sub(shl(0xa0, 0x01), 0x01)\n      and\n        /* \"RamzSwapRouter.sol\":26648:26658  msg.sender */\n      caller\n        /* \"RamzSwapRouter.sol\":26660:26710  RamzSwapLibrary.pairFor(factory, path[0], path[1]) */\n      tag_194\n        /* \"RamzSwapRouter.sol\":26684:26691  factory */\n      immutable(\"0x173bb80bf7ae3dde444a25d8c84de4e84891034d416e0f0ffbc56cab6043ec24\")\n        /* \"RamzSwapRouter.sol\":26693:26697  path */\n      dup11\n      dup11\n        /* \"RamzSwapRouter.sol\":26698:26699  0 */\n      0x00\n        /* \"RamzSwapRouter.sol\":26693:26700  path[0] */\n      dup2\n      dup2\n      lt\n      tag_195\n      jumpi\n      invalid\n    tag_195:\n      swap1\n      pop\n      0x20\n      mul\n      add\n      calldataload\n      sub(shl(0xa0, 0x01), 0x01)\n      and\n        /* \"RamzSwapRouter.sol\":26702:26706  path */\n      dup12\n      dup12\n        /* \"RamzSwapRouter.sol\":26707:26708  1 */\n      0x01\n        /* \"RamzSwapRouter.sol\":26702:26709  path[1] */\n      dup2\n      dup2\n      lt\n      tag_196\n      jumpi\n      invalid\n    tag_196:\n      swap1\n      pop\n      0x20\n      mul\n      add\n      calldataload\n      sub(shl(0xa0, 0x01), 0x01)\n      and\n        /* \"RamzSwapRouter.sol\":26660:26683  RamzSwapLibrary.pairFor */\n      tag_197\n        /* \"RamzSwapRouter.sol\":26660:26710  RamzSwapLibrary.pairFor(factory, path[0], path[1]) */\n      jump\t// in\n    tag_194:\n        /* \"RamzSwapRouter.sol\":26712:26719  amounts */\n      dup6\n        /* \"RamzSwapRouter.sol\":26720:26721  0 */\n      0x00\n        /* \"RamzSwapRouter.sol\":26712:26722  amounts[0] */\n      dup2\n      mload\n      dup2\n      lt\n      tag_198\n      jumpi\n      invalid\n    tag_198:\n      0x20\n      mul\n      0x20\n      add\n      add\n      mload\n        /* \"RamzSwapRouter.sol\":26594:26625  TransferHelper.safeTransferFrom */\n      tag_199\n        /* \"RamzSwapRouter.sol\":26594:26732  TransferHelper.safeTransferFrom(... */\n      jump\t// in\n    tag_192:\n        /* \"RamzSwapRouter.sol\":26742:26777  _swap(amounts, path, address(this)) */\n      tag_200\n        /* \"RamzSwapRouter.sol\":26748:26755  amounts */\n      dup3\n        /* \"RamzSwapRouter.sol\":26757:26761  path */\n      dup8\n      dup8\n        /* \"RamzSwapRouter.sol\":26742:26777  _swap(amounts, path, address(this)) */\n      dup1\n      dup1\n      0x20\n      mul\n      0x20\n      add\n      mload(0x40)\n      swap1\n      dup2\n      add\n      0x40\n      mstore\n      dup1\n      swap4\n      swap3\n      swap2\n      swap1\n      dup2\n      dup2\n      mstore\n      0x20\n      add\n      dup4\n      dup4\n      0x20\n      mul\n        /* \"--CODEGEN--\":30:33   */\n      dup1\n        /* \"--CODEGEN--\":22:28   */\n      dup3\n        /* \"--CODEGEN--\":14:20   */\n      dup5\n        /* \"--CODEGEN--\":1:34   */\n      calldatacopy\n        /* \"--CODEGEN--\":99:100   */\n      0x00\n        /* \"--CODEGEN--\":81:97   */\n      swap3\n      add\n        /* \"--CODEGEN--\":74:101   */\n      swap2\n      swap1\n      swap2\n      mstore\n      pop\n        /* \"RamzSwapRouter.sol\":26771:26775  this */\n      address\n      swap3\n      pop\n        /* \"RamzSwapRouter.sol\":26742:26747  _swap */\n      tag_201\n      swap2\n      pop\n      pop\n        /* \"RamzSwapRouter.sol\":26742:26777  _swap(amounts, path, address(this)) */\n      jump\t// in\n    tag_200:\n        /* \"RamzSwapRouter.sol\":26794:26799  WMAAL */\n      immutable(\"0x139b5474829a1a438527d6f3b7cb075ea9353c362b5b7082a6a6627c27b040e8\")\n      sub(shl(0xa0, 0x01), 0x01)\n        /* \"RamzSwapRouter.sol\":26787:26809  IWMAAL(WMAAL).withdraw */\n      and\n      0x2e1a7d4d\n        /* \"RamzSwapRouter.sol\":26810:26817  amounts */\n      dup4\n        /* \"RamzSwapRouter.sol\":26835:26836  1 */\n      0x01\n        /* \"RamzSwapRouter.sol\":26818:26825  amounts */\n      dup6\n        /* \"RamzSwapRouter.sol\":26818:26832  amounts.length */\n      mload\n        /* \"RamzSwapRouter.sol\":26818:26836  amounts.length - 1 */\n      sub\n        /* \"RamzSwapRouter.sol\":26810:26837  amounts[amounts.length - 1] */\n      dup2\n      mload\n      dup2\n      lt\n      tag_202\n      jumpi\n      invalid\n    tag_202:\n      0x20\n      mul\n      0x20\n      add\n      add\n      mload\n        /* \"RamzSwapRouter.sol\":26787:26838  IWMAAL(WMAAL).withdraw(amounts[amounts.length - 1]) */\n      mload(0x40)\n      dup3\n      0xffffffff\n      and\n      0xe0\n      shl\n      dup2\n      mstore\n      0x04\n      add\n      dup1\n      dup3\n      dup2\n      mstore\n      0x20\n      add\n      swap2\n      pop\n      pop\n      0x00\n      mload(0x40)\n      dup1\n      dup4\n      sub\n      dup2\n      0x00\n      dup8\n      dup1\n      extcodesize\n      iszero\n        /* \"--CODEGEN--\":5:14   */\n      dup1\n        /* \"--CODEGEN--\":2:4   */\n      iszero\n      tag_203\n      jumpi\n        /* \"--CODEGEN--\":27:28   */\n      0x00\n        /* \"--CODEGEN--\":24:25   */\n      dup1\n        /* \"--CODEGEN--\":17:29   */\n      revert\n        /* \"--CODEGEN--\":2:4   */\n    tag_203:\n        /* \"RamzSwapRouter.sol\":26787:26838  IWMAAL(WMAAL).withdraw(amounts[amounts.length - 1]) */\n      pop\n      gas\n      call\n      iszero\n        /* \"--CODEGEN--\":8:17   */\n      dup1\n        /* \"--CODEGEN--\":5:7   */\n      iszero\n      tag_205\n      jumpi\n        /* \"--CODEGEN--\":45:61   */\n      returndatasize\n        /* \"--CODEGEN--\":42:43   */\n      0x00\n        /* \"--CODEGEN--\":39:40   */\n      dup1\n        /* \"--CODEGEN--\":24:62   */\n      returndatacopy\n        /* \"--CODEGEN--\":77:93   */\n      returndatasize\n        /* \"--CODEGEN--\":74:75   */\n      0x00\n        /* \"--CODEGEN--\":67:94   */\n      revert\n        /* \"--CODEGEN--\":5:7   */\n    tag_205:\n        /* \"RamzSwapRouter.sol\":26787:26838  IWMAAL(WMAAL).withdraw(amounts[amounts.length - 1]) */\n      pop\n      pop\n      pop\n      pop\n        /* \"RamzSwapRouter.sol\":26848:26912  TransferHelper.safeTransferMAAL(to, amounts[amounts.length - 1]) */\n      tag_206\n        /* \"RamzSwapRouter.sol\":26880:26882  to */\n      dup5\n        /* \"RamzSwapRouter.sol\":26884:26891  amounts */\n      dup4\n        /* \"RamzSwapRouter.sol\":26909:26910  1 */\n      0x01\n        /* \"RamzSwapRouter.sol\":26892:26899  amounts */\n      dup6\n        /* \"RamzSwapRouter.sol\":26892:26906  amounts.length */\n      mload\n        /* \"RamzSwapRouter.sol\":26892:26910  amounts.length - 1 */\n      sub\n        /* \"RamzSwapRouter.sol\":26884:26911  amounts[amounts.length - 1] */\n      dup2\n      mload\n      dup2\n      lt\n      tag_207\n      jumpi\n      invalid\n    tag_207:\n      0x20\n      mul\n      0x20\n      add\n      add\n      mload\n        /* \"RamzSwapRouter.sol\":26848:26879  TransferHelper.safeTransferMAAL */\n      tag_208\n        /* \"RamzSwapRouter.sol\":26848:26912  TransferHelper.safeTransferMAAL(to, amounts[amounts.length - 1]) */\n      jump\t// in\n    tag_206:\n        /* \"RamzSwapRouter.sol\":26106:26919  function swapTokensForExactMAAL(uint amountOut, uint amountInMax, address[] calldata path, address to, uint deadline)... */\n      pop\n      swap7\n      swap6\n      pop\n      pop\n      pop\n      pop\n      pop\n      pop\n      jump\t// out\n        /* \"RamzSwapRouter.sol\":33268:33512  function getAmountsIn(uint amountOut, address[] memory path)... */\n    tag_53:\n        /* \"RamzSwapRouter.sol\":33407:33428  uint[] memory amounts */\n      0x60\n        /* \"RamzSwapRouter.sol\":33451:33505  RamzSwapLibrary.getAmountsIn(factory, amountOut, path) */\n      tag_210\n        /* \"RamzSwapRouter.sol\":33480:33487  factory */\n      immutable(\"0x173bb80bf7ae3dde444a25d8c84de4e84891034d416e0f0ffbc56cab6043ec24\")\n        /* \"RamzSwapRouter.sol\":33489:33498  amountOut */\n      dup5\n        /* \"RamzSwapRouter.sol\":33500:33504  path */\n      dup5\n        /* \"RamzSwapRouter.sol\":33451:33479  RamzSwapLibrary.getAmountsIn */\n      tag_189\n        /* \"RamzSwapRouter.sol\":33451:33505  RamzSwapLibrary.getAmountsIn(factory, amountOut, path) */\n      jump\t// in\n    tag_210:\n        /* \"RamzSwapRouter.sol\":33444:33505  return RamzSwapLibrary.getAmountsIn(factory, amountOut, path) */\n      swap1\n      pop\n        /* \"RamzSwapRouter.sol\":33268:33512  function getAmountsIn(uint amountOut, address[] memory path)... */\n    tag_209:\n      swap3\n      swap2\n      pop\n      pop\n      jump\t// out\n        /* \"RamzSwapRouter.sol\":20564:21225  function removeLiquidityWithPermit(... */\n    tag_60:\n        /* \"RamzSwapRouter.sol\":20861:20873  uint amountA */\n      0x00\n        /* \"RamzSwapRouter.sol\":20875:20887  uint amountB */\n      dup1\n        /* \"RamzSwapRouter.sol\":20899:20911  address pair */\n      0x00\n        /* \"RamzSwapRouter.sol\":20914:20962  RamzSwapLibrary.pairFor(factory, tokenA, tokenB) */\n      tag_212\n        /* \"RamzSwapRouter.sol\":20938:20945  factory */\n      immutable(\"0x173bb80bf7ae3dde444a25d8c84de4e84891034d416e0f0ffbc56cab6043ec24\")\n        /* \"RamzSwapRouter.sol\":20947:20953  tokenA */\n      dup16\n        /* \"RamzSwapRouter.sol\":20955:20961  tokenB */\n      dup16\n        /* \"RamzSwapRouter.sol\":20914:20937  RamzSwapLibrary.pairFor */\n      tag_197\n        /* \"RamzSwapRouter.sol\":20914:20962  RamzSwapLibrary.pairFor(factory, tokenA, tokenB) */\n      jump\t// in\n    tag_212:\n        /* \"RamzSwapRouter.sol\":20899:20962  address pair = RamzSwapLibrary.pairFor(factory, tokenA, tokenB) */\n      swap1\n      pop\n        /* \"RamzSwapRouter.sol\":20972:20982  uint value */\n      0x00\n        /* \"RamzSwapRouter.sol\":20985:20995  approveMax */\n      dup8\n        /* \"RamzSwapRouter.sol\":20985:21018  approveMax ? uint(-1) : liquidity */\n      tag_213\n      jumpi\n        /* \"RamzSwapRouter.sol\":21009:21018  liquidity */\n      dup13\n        /* \"RamzSwapRouter.sol\":20985:21018  approveMax ? uint(-1) : liquidity */\n      jump(tag_214)\n    tag_213:\n      not(0x00)\n    tag_214:\n        /* \"RamzSwapRouter.sol\":21028:21107  IRamzSwapPair(pair).permit(msg.sender, address(this), value, deadline, v, r, s) */\n      0x40\n      dup1\n      mload\n      shl(0xe0, 0xd505accf)\n      dup2\n      mstore\n        /* \"RamzSwapRouter.sol\":21055:21065  msg.sender */\n      caller\n        /* \"RamzSwapRouter.sol\":21028:21107  IRamzSwapPair(pair).permit(msg.sender, address(this), value, deadline, v, r, s) */\n      0x04\n      dup3\n      add\n      mstore\n        /* \"RamzSwapRouter.sol\":21075:21079  this */\n      address\n        /* \"RamzSwapRouter.sol\":21028:21107  IRamzSwapPair(pair).permit(msg.sender, address(this), value, deadline, v, r, s) */\n      0x24\n      dup3\n      add\n      mstore\n      0x44\n      dup2\n      add\n      dup4\n      swap1\n      mstore\n      0x64\n      dup2\n      add\n      dup13\n      swap1\n      mstore\n      0xff\n      dup11\n      and\n      0x84\n      dup3\n      add\n      mstore\n      0xa4\n      dup2\n      add\n      dup10\n      swap1\n      mstore\n      0xc4\n      dup2\n      add\n      dup9\n      swap1\n      mstore\n      swap1\n      mload\n        /* \"RamzSwapRouter.sol\":20972:21018  uint value = approveMax ? uint(-1) : liquidity */\n      swap2\n      swap3\n      pop\n      sub(shl(0xa0, 0x01), 0x01)\n        /* \"RamzSwapRouter.sol\":21028:21054  IRamzSwapPair(pair).permit */\n      dup5\n      and\n      swap2\n      0xd505accf\n      swap2\n        /* \"RamzSwapRouter.sol\":21028:21107  IRamzSwapPair(pair).permit(msg.sender, address(this), value, deadline, v, r, s) */\n      0xe4\n      dup1\n      dup3\n      add\n      swap3\n      0x00\n      swap3\n      swap1\n      swap2\n      swap1\n      dup3\n      swap1\n      sub\n      add\n      dup2\n      dup4\n        /* \"RamzSwapRouter.sol\":21028:21054  IRamzSwapPair(pair).permit */\n      dup8\n        /* \"RamzSwapRouter.sol\":21028:21107  IRamzSwapPair(pair).permit(msg.sender, address(this), value, deadline, v, r, s) */\n      dup1\n      extcodesize\n      iszero\n        /* \"--CODEGEN--\":2:4   */\n      dup1\n      iszero\n      tag_215\n      jumpi\n        /* \"--CODEGEN--\":27:28   */\n      0x00\n        /* \"--CODEGEN--\":24:25   */\n      dup1\n        /* \"--CODEGEN--\":17:29   */\n      revert\n        /* \"--CODEGEN--\":2:4   */\n    tag_215:\n        /* \"RamzSwapRouter.sol\":21028:21107  IRamzSwapPair(pair).permit(msg.sender, address(this), value, deadline, v, r, s) */\n      pop\n      gas\n      call\n      iszero\n        /* \"--CODEGEN--\":8:17   */\n      dup1\n        /* \"--CODEGEN--\":5:7   */\n      iszero\n      tag_217\n      jumpi\n        /* \"--CODEGEN--\":45:61   */\n      returndatasize\n        /* \"--CODEGEN--\":42:43   */\n      0x00\n        /* \"--CODEGEN--\":39:40   */\n      dup1\n        /* \"--CODEGEN--\":24:62   */\n      returndatacopy\n        /* \"--CODEGEN--\":77:93   */\n      returndatasize\n        /* \"--CODEGEN--\":74:75   */\n      0x00\n        /* \"--CODEGEN--\":67:94   */\n      revert\n        /* \"--CODEGEN--\":5:7   */\n    tag_217:\n        /* \"RamzSwapRouter.sol\":21028:21107  IRamzSwapPair(pair).permit(msg.sender, address(this), value, deadline, v, r, s) */\n      pop\n      pop\n      pop\n      pop\n        /* \"RamzSwapRouter.sol\":21138:21218  removeLiquidity(tokenA, tokenB, liquidity, amountAMin, amountBMin, to, deadline) */\n      tag_218\n        /* \"RamzSwapRouter.sol\":21154:21160  tokenA */\n      dup16\n        /* \"RamzSwapRouter.sol\":21162:21168  tokenB */\n      dup16\n        /* \"RamzSwapRouter.sol\":21170:21179  liquidity */\n      dup16\n        /* \"RamzSwapRouter.sol\":21181:21191  amountAMin */\n      dup16\n        /* \"RamzSwapRouter.sol\":21193:21203  amountBMin */\n      dup16\n        /* \"RamzSwapRouter.sol\":21205:21207  to */\n      dup16\n        /* \"RamzSwapRouter.sol\":21209:21217  deadline */\n      dup16\n        /* \"RamzSwapRouter.sol\":21138:21153  removeLiquidity */\n      tag_138\n        /* \"RamzSwapRouter.sol\":21138:21218  removeLiquidity(tokenA, tokenB, liquidity, amountAMin, amountBMin, to, deadline) */\n      jump\t// in\n    tag_218:\n        /* \"RamzSwapRouter.sol\":21117:21218  (amountA, amountB) = removeLiquidity(tokenA, tokenB, liquidity, amountAMin, amountBMin, to, deadline) */\n      dup1\n      swap5\n      pop\n      dup2\n      swap6\n      pop\n      pop\n      pop\n        /* \"RamzSwapRouter.sol\":20564:21225  function removeLiquidityWithPermit(... */\n      pop\n      pop\n      swap12\n      pop\n      swap12\n      swap10\n      pop\n      pop\n      pop\n      pop\n      pop\n      pop\n      pop\n      pop\n      pop\n      pop\n      jump\t// out\n        /* \"RamzSwapRouter.sol\":22664:23372  function removeLiquidityMAALWithPermitSupportingFeeOnTransferTokens(... */\n    tag_64:\n        /* \"RamzSwapRouter.sol\":22976:22991  uint amountMAAL */\n      0x00\n        /* \"RamzSwapRouter.sol\":23003:23015  address pair */\n      dup1\n        /* \"RamzSwapRouter.sol\":23018:23064  RamzSwapLibrary.pairFor(factory, token, WMAAL) */\n      tag_220\n        /* \"RamzSwapRouter.sol\":23042:23049  factory */\n      immutable(\"0x173bb80bf7ae3dde444a25d8c84de4e84891034d416e0f0ffbc56cab6043ec24\")\n        /* \"RamzSwapRouter.sol\":23051:23056  token */\n      dup14\n        /* \"RamzSwapRouter.sol\":23058:23063  WMAAL */\n      immutable(\"0x139b5474829a1a438527d6f3b7cb075ea9353c362b5b7082a6a6627c27b040e8\")\n        /* \"RamzSwapRouter.sol\":23018:23041  RamzSwapLibrary.pairFor */\n      tag_197\n        /* \"RamzSwapRouter.sol\":23018:23064  RamzSwapLibrary.pairFor(factory, token, WMAAL) */\n      jump\t// in\n    tag_220:\n        /* \"RamzSwapRouter.sol\":23003:23064  address pair = RamzSwapLibrary.pairFor(factory, token, WMAAL) */\n      swap1\n      pop\n        /* \"RamzSwapRouter.sol\":23074:23084  uint value */\n      0x00\n        /* \"RamzSwapRouter.sol\":23087:23097  approveMax */\n      dup7\n        /* \"RamzSwapRouter.sol\":23087:23120  approveMax ? uint(-1) : liquidity */\n      tag_221\n      jumpi\n        /* \"RamzSwapRouter.sol\":23111:23120  liquidity */\n      dup12\n        /* \"RamzSwapRouter.sol\":23087:23120  approveMax ? uint(-1) : liquidity */\n      jump(tag_222)\n    tag_221:\n      not(0x00)\n    tag_222:\n        /* \"RamzSwapRouter.sol\":23130:23209  IRamzSwapPair(pair).permit(msg.sender, address(this), value, deadline, v, r, s) */\n      0x40\n      dup1\n      mload\n      shl(0xe0, 0xd505accf)\n      dup2\n      mstore\n        /* \"RamzSwapRouter.sol\":23157:23167  msg.sender */\n      caller\n        /* \"RamzSwapRouter.sol\":23130:23209  IRamzSwapPair(pair).permit(msg.sender, address(this), value, deadline, v, r, s) */\n      0x04\n      dup3\n      add\n      mstore\n        /* \"RamzSwapRouter.sol\":23177:23181  this */\n      address\n        /* \"RamzSwapRouter.sol\":23130:23209  IRamzSwapPair(pair).permit(msg.sender, address(this), value, deadline, v, r, s) */\n      0x24\n      dup3\n      add\n      mstore\n      0x44\n      dup2\n      add\n      dup4\n      swap1\n      mstore\n      0x64\n      dup2\n      add\n      dup12\n      swap1\n      mstore\n      0xff\n      dup10\n      and\n      0x84\n      dup3\n      add\n      mstore\n      0xa4\n      dup2\n      add\n      dup9\n      swap1\n      mstore\n      0xc4\n      dup2\n      add\n      dup8\n      swap1\n      mstore\n      swap1\n      mload\n        /* \"RamzSwapRouter.sol\":23074:23120  uint value = approveMax ? uint(-1) : liquidity */\n      swap2\n      swap3\n      pop\n      sub(shl(0xa0, 0x01), 0x01)\n        /* \"RamzSwapRouter.sol\":23130:23156  IRamzSwapPair(pair).permit */\n      dup5\n      and\n      swap2\n      0xd505accf\n      swap2\n        /* \"RamzSwapRouter.sol\":23130:23209  IRamzSwapPair(pair).permit(msg.sender, address(this), value, deadline, v, r, s) */\n      0xe4\n      dup1\n      dup3\n      add\n      swap3\n      0x00\n      swap3\n      swap1\n      swap2\n      swap1\n      dup3\n      swap1\n      sub\n      add\n      dup2\n      dup4\n        /* \"RamzSwapRouter.sol\":23130:23156  IRamzSwapPair(pair).permit */\n      dup8\n        /* \"RamzSwapRouter.sol\":23130:23209  IRamzSwapPair(pair).permit(msg.sender, address(this), value, deadline, v, r, s) */\n      dup1\n      extcodesize\n      iszero\n        /* \"--CODEGEN--\":2:4   */\n      dup1\n      iszero\n      tag_223\n      jumpi\n        /* \"--CODEGEN--\":27:28   */\n      0x00\n        /* \"--CODEGEN--\":24:25   */\n      dup1\n        /* \"--CODEGEN--\":17:29   */\n      revert\n        /* \"--CODEGEN--\":2:4   */\n    tag_223:\n        /* \"RamzSwapRouter.sol\":23130:23209  IRamzSwapPair(pair).permit(msg.sender, address(this), value, deadline, v, r, s) */\n      pop\n      gas\n      call\n      iszero\n        /* \"--CODEGEN--\":8:17   */\n      dup1\n        /* \"--CODEGEN--\":5:7   */\n      iszero\n      tag_225\n      jumpi\n        /* \"--CODEGEN--\":45:61   */\n      returndatasize\n        /* \"--CODEGEN--\":42:43   */\n      0x00\n        /* \"--CODEGEN--\":39:40   */\n      dup1\n        /* \"--CODEGEN--\":24:62   */\n      returndatacopy\n        /* \"--CODEGEN--\":77:93   */\n      returndatasize\n        /* \"--CODEGEN--\":74:75   */\n      0x00\n        /* \"--CODEGEN--\":67:94   */\n      revert\n        /* \"--CODEGEN--\":5:7   */\n    tag_225:\n        /* \"RamzSwapRouter.sol\":23130:23209  IRamzSwapPair(pair).permit(msg.sender, address(this), value, deadline, v, r, s) */\n      pop\n      pop\n      pop\n      pop\n        /* \"RamzSwapRouter.sol\":23232:23365  removeLiquidityMAALSupportingFeeOnTransferTokens(... */\n      tag_226\n        /* \"RamzSwapRouter.sol\":23294:23299  token */\n      dup14\n        /* \"RamzSwapRouter.sol\":23301:23310  liquidity */\n      dup14\n        /* \"RamzSwapRouter.sol\":23312:23326  amountTokenMin */\n      dup14\n        /* \"RamzSwapRouter.sol\":23328:23341  amountMAALMin */\n      dup14\n        /* \"RamzSwapRouter.sol\":23343:23345  to */\n      dup14\n        /* \"RamzSwapRouter.sol\":23347:23355  deadline */\n      dup14\n        /* \"RamzSwapRouter.sol\":23232:23280  removeLiquidityMAALSupportingFeeOnTransferTokens */\n      tag_179\n        /* \"RamzSwapRouter.sol\":23232:23365  removeLiquidityMAALSupportingFeeOnTransferTokens(... */\n      jump\t// in\n    tag_226:\n        /* \"RamzSwapRouter.sol\":23219:23365  amountMAAL = removeLiquidityMAALSupportingFeeOnTransferTokens(... */\n      swap14\n        /* \"RamzSwapRouter.sol\":22664:23372  function removeLiquidityMAALWithPermitSupportingFeeOnTransferTokens(... */\n      swap13\n      pop\n      pop\n      pop\n      pop\n      pop\n      pop\n      pop\n      pop\n      pop\n      pop\n      pop\n      pop\n      pop\n      jump\t// out\n        /* \"RamzSwapRouter.sol\":19895:20559  function removeLiquidityMAAL(... */\n    tag_68:\n        /* \"RamzSwapRouter.sol\":20127:20143  uint amountToken */\n      0x00\n        /* \"RamzSwapRouter.sol\":20145:20160  uint amountMAAL */\n      dup1\n        /* \"RamzSwapRouter.sol\":20108:20116  deadline */\n      dup3\n        /* \"RamzSwapRouter.sol\":15604:15619  block.timestamp */\n      timestamp\n        /* \"RamzSwapRouter.sol\":15592:15600  deadline */\n      dup2\n        /* \"RamzSwapRouter.sol\":15592:15619  deadline >= block.timestamp */\n      lt\n      iszero\n        /* \"RamzSwapRouter.sol\":15584:15647  require(deadline >= block.timestamp, 'RamzSwapRouter: EXPIRED') */\n      tag_228\n      jumpi\n      0x40\n      dup1\n      mload\n      shl(0xe5, 0x461bcd)\n      dup2\n      mstore\n      0x20\n      0x04\n      dup3\n      add\n      mstore\n      0x17\n      0x24\n      dup3\n      add\n      mstore\n      0x00\n      dup1\n      mload\n      0x20\n      data_abe419f277ac6b272f0968a9f490f07eeccba4f306ed4de5548b5f8f76aeb85a\n      dup4\n      codecopy\n      dup2\n      mload\n      swap2\n      mstore\n      0x44\n      dup3\n      add\n      mstore\n      swap1\n      mload\n      swap1\n      dup2\n      swap1\n      sub\n      0x64\n      add\n      swap1\n      revert\n    tag_228:\n        /* \"RamzSwapRouter.sol\":20200:20390  removeLiquidity(... */\n      tag_230\n        /* \"RamzSwapRouter.sol\":20229:20234  token */\n      dup10\n        /* \"RamzSwapRouter.sol\":20248:20253  WMAAL */\n      immutable(\"0x139b5474829a1a438527d6f3b7cb075ea9353c362b5b7082a6a6627c27b040e8\")\n        /* \"RamzSwapRouter.sol\":20267:20276  liquidity */\n      dup11\n        /* \"RamzSwapRouter.sol\":20290:20304  amountTokenMin */\n      dup11\n        /* \"RamzSwapRouter.sol\":20318:20331  amountMAALMin */\n      dup11\n        /* \"RamzSwapRouter.sol\":20353:20357  this */\n      address\n        /* \"RamzSwapRouter.sol\":20372:20380  deadline */\n      dup11\n        /* \"RamzSwapRouter.sol\":20200:20215  removeLiquidity */\n      tag_138\n        /* \"RamzSwapRouter.sol\":20200:20390  removeLiquidity(... */\n      jump\t// in\n    tag_230:\n        /* \"RamzSwapRouter.sol\":20172:20390  (amountToken, amountMAAL) = removeLiquidity(... */\n      swap1\n      swap4\n      pop\n      swap2\n      pop\n        /* \"RamzSwapRouter.sol\":20400:20451  TransferHelper.safeTransfer(token, to, amountToken) */\n      tag_231\n        /* \"RamzSwapRouter.sol\":20428:20433  token */\n      dup10\n        /* \"RamzSwapRouter.sol\":20435:20437  to */\n      dup7\n        /* \"RamzSwapRouter.sol\":20172:20390  (amountToken, amountMAAL) = removeLiquidity(... */\n      dup6\n        /* \"RamzSwapRouter.sol\":20400:20427  TransferHelper.safeTransfer */\n      tag_232\n        /* \"RamzSwapRouter.sol\":20400:20451  TransferHelper.safeTransfer(token, to, amountToken) */\n      jump\t// in\n    tag_231:\n        /* \"RamzSwapRouter.sol\":20468:20473  WMAAL */\n      immutable(\"0x139b5474829a1a438527d6f3b7cb075ea9353c362b5b7082a6a6627c27b040e8\")\n      sub(shl(0xa0, 0x01), 0x01)\n        /* \"RamzSwapRouter.sol\":20461:20483  IWMAAL(WMAAL).withdraw */\n      and\n      0x2e1a7d4d\n        /* \"RamzSwapRouter.sol\":20484:20494  amountMAAL */\n      dup4\n        /* \"RamzSwapRouter.sol\":20461:20495  IWMAAL(WMAAL).withdraw(amountMAAL) */\n      mload(0x40)\n      dup3\n      0xffffffff\n      and\n      0xe0\n      shl\n      dup2\n      mstore\n      0x04\n      add\n      dup1\n      dup3\n      dup2\n      mstore\n      0x20\n      add\n      swap2\n      pop\n      pop\n      0x00\n      mload(0x40)\n      dup1\n      dup4\n      sub\n      dup2\n      0x00\n      dup8\n      dup1\n      extcodesize\n      iszero\n        /* \"--CODEGEN--\":5:14   */\n      dup1\n        /* \"--CODEGEN--\":2:4   */\n      iszero\n      tag_233\n      jumpi\n        /* \"--CODEGEN--\":27:28   */\n      0x00\n        /* \"--CODEGEN--\":24:25   */\n      dup1\n        /* \"--CODEGEN--\":17:29   */\n      revert\n        /* \"--CODEGEN--\":2:4   */\n    tag_233:\n        /* \"RamzSwapRouter.sol\":20461:20495  IWMAAL(WMAAL).withdraw(amountMAAL) */\n      pop\n      gas\n      call\n      iszero\n        /* \"--CODEGEN--\":8:17   */\n      dup1\n        /* \"--CODEGEN--\":5:7   */\n      iszero\n      tag_235\n      jumpi\n        /* \"--CODEGEN--\":45:61   */\n      returndatasize\n        /* \"--CODEGEN--\":42:43   */\n      0x00\n        /* \"--CODEGEN--\":39:40   */\n      dup1\n        /* \"--CODEGEN--\":24:62   */\n      returndatacopy\n        /* \"--CODEGEN--\":77:93   */\n      returndatasize\n        /* \"--CODEGEN--\":74:75   */\n      0x00\n        /* \"--CODEGEN--\":67:94   */\n      revert\n        /* \"--CODEGEN--\":5:7   */\n    tag_235:\n        /* \"RamzSwapRouter.sol\":20461:20495  IWMAAL(WMAAL).withdraw(amountMAAL) */\n      pop\n      pop\n      pop\n      pop\n        /* \"RamzSwapRouter.sol\":20505:20552  TransferHelper.safeTransferMAAL(to, amountMAAL) */\n      tag_236\n        /* \"RamzSwapRouter.sol\":20537:20539  to */\n      dup6\n        /* \"RamzSwapRouter.sol\":20541:20551  amountMAAL */\n      dup4\n        /* \"RamzSwapRouter.sol\":20505:20536  TransferHelper.safeTransferMAAL */\n      tag_208\n        /* \"RamzSwapRouter.sol\":20505:20552  TransferHelper.safeTransferMAAL(to, amountMAAL) */\n      jump\t// in\n    tag_236:\n        /* \"RamzSwapRouter.sol\":19895:20559  function removeLiquidityMAAL(... */\n      pop\n      swap7\n      pop\n      swap7\n      swap5\n      pop\n      pop\n      pop\n      pop\n      pop\n      jump\t// out\n        /* \"RamzSwapRouter.sol\":31443:32269  function swapExactTokensForMAALSupportingFeeOnTransferTokens(... */\n    tag_75:\n        /* \"RamzSwapRouter.sol\":31701:31709  deadline */\n      dup1\n        /* \"RamzSwapRouter.sol\":15604:15619  block.timestamp */\n      timestamp\n        /* \"RamzSwapRouter.sol\":15592:15600  deadline */\n      dup2\n        /* \"RamzSwapRouter.sol\":15592:15619  deadline >= block.timestamp */\n      lt\n      iszero\n        /* \"RamzSwapRouter.sol\":15584:15647  require(deadline >= block.timestamp, 'RamzSwapRouter: EXPIRED') */\n      tag_238\n      jumpi\n      0x40\n      dup1\n      mload\n      shl(0xe5, 0x461bcd)\n      dup2\n      mstore\n      0x20\n      0x04\n      dup3\n      add\n      mstore\n      0x17\n      0x24\n      dup3\n      add\n      mstore\n      0x00\n      dup1\n      mload\n      0x20\n      data_abe419f277ac6b272f0968a9f490f07eeccba4f306ed4de5548b5f8f76aeb85a\n      dup4\n      codecopy\n      dup2\n      mload\n      swap2\n      mstore\n      0x44\n      dup3\n      add\n      mstore\n      swap1\n      mload\n      swap1\n      dup2\n      swap1\n      sub\n      0x64\n      add\n      swap1\n      revert\n    tag_238:\n      sub(shl(0xa0, 0x01), 0x01)\n        /* \"RamzSwapRouter.sol\":31758:31763  WMAAL */\n      immutable(\"0x139b5474829a1a438527d6f3b7cb075ea9353c362b5b7082a6a6627c27b040e8\")\n        /* \"RamzSwapRouter.sol\":31733:31763  path[path.length - 1] == WMAAL */\n      and\n        /* \"RamzSwapRouter.sol\":31733:31737  path */\n      dup6\n      dup6\n      not(0x00)\n        /* \"RamzSwapRouter.sol\":31738:31753  path.length - 1 */\n      dup2\n      add\n        /* \"RamzSwapRouter.sol\":31733:31754  path[path.length - 1] */\n      dup2\n      dup2\n      lt\n      tag_240\n      jumpi\n      invalid\n    tag_240:\n      swap1\n      pop\n      0x20\n      mul\n      add\n      calldataload\n      sub(shl(0xa0, 0x01), 0x01)\n      and\n      sub(shl(0xa0, 0x01), 0x01)\n        /* \"RamzSwapRouter.sol\":31733:31763  path[path.length - 1] == WMAAL */\n      and\n      eq\n        /* \"RamzSwapRouter.sol\":31725:31796  require(path[path.length - 1] == WMAAL, 'RamzSwapRouter: INVALID_PATH') */\n      tag_241\n      jumpi\n      0x40\n      dup1\n      mload\n      shl(0xe5, 0x461bcd)\n      dup2\n      mstore\n      0x20\n      0x04\n      dup3\n      add\n      mstore\n      0x1c\n      0x24\n      dup3\n      add\n      mstore\n      0x00\n      dup1\n      mload\n      0x20\n      data_a3f1373089ee7b4837b906391b8993e750ecc2d2c744f3f58b38560998fe2d12\n      dup4\n      codecopy\n      dup2\n      mload\n      swap2\n      mstore\n      0x44\n      dup3\n      add\n      mstore\n      swap1\n      mload\n      swap1\n      dup2\n      swap1\n      sub\n      0x64\n      add\n      swap1\n      revert\n    tag_241:\n        /* \"RamzSwapRouter.sol\":31806:31942  TransferHelper.safeTransferFrom(... */\n      tag_242\n        /* \"RamzSwapRouter.sol\":31851:31855  path */\n      dup6\n      dup6\n        /* \"RamzSwapRouter.sol\":31856:31857  0 */\n      0x00\n        /* \"RamzSwapRouter.sol\":31851:31858  path[0] */\n      dup2\n      dup2\n      lt\n      tag_243\n      jumpi\n      invalid\n    tag_243:\n      swap1\n      pop\n      0x20\n      mul\n      add\n      calldataload\n      sub(shl(0xa0, 0x01), 0x01)\n      and\n        /* \"RamzSwapRouter.sol\":31860:31870  msg.sender */\n      caller\n        /* \"RamzSwapRouter.sol\":31872:31922  RamzSwapLibrary.pairFor(factory, path[0], path[1]) */\n      tag_244\n        /* \"RamzSwapRouter.sol\":31896:31903  factory */\n      immutable(\"0x173bb80bf7ae3dde444a25d8c84de4e84891034d416e0f0ffbc56cab6043ec24\")\n        /* \"RamzSwapRouter.sol\":31905:31909  path */\n      dup10\n      dup10\n        /* \"RamzSwapRouter.sol\":31910:31911  0 */\n      0x00\n        /* \"RamzSwapRouter.sol\":31905:31912  path[0] */\n      dup2\n      dup2\n      lt\n      tag_245\n      jumpi\n      invalid\n    tag_245:\n      swap1\n      pop\n      0x20\n      mul\n      add\n      calldataload\n      sub(shl(0xa0, 0x01), 0x01)\n      and\n        /* \"RamzSwapRouter.sol\":31914:31918  path */\n      dup11\n      dup11\n        /* \"RamzSwapRouter.sol\":31919:31920  1 */\n      0x01\n        /* \"RamzSwapRouter.sol\":31914:31921  path[1] */\n      dup2\n      dup2\n      lt\n      tag_196\n      jumpi\n      invalid\n        /* \"RamzSwapRouter.sol\":31872:31922  RamzSwapLibrary.pairFor(factory, path[0], path[1]) */\n    tag_244:\n        /* \"RamzSwapRouter.sol\":31924:31932  amountIn */\n      dup11\n        /* \"RamzSwapRouter.sol\":31806:31837  TransferHelper.safeTransferFrom */\n      tag_199\n        /* \"RamzSwapRouter.sol\":31806:31942  TransferHelper.safeTransferFrom(... */\n      jump\t// in\n    tag_242:\n        /* \"RamzSwapRouter.sol\":31952:32007  _swapSupportingFeeOnTransferTokens(path, address(this)) */\n      tag_247\n        /* \"RamzSwapRouter.sol\":31987:31991  path */\n      dup6\n      dup6\n        /* \"RamzSwapRouter.sol\":31952:32007  _swapSupportingFeeOnTransferTokens(path, address(this)) */\n      dup1\n      dup1\n      0x20\n      mul\n      0x20\n      add\n      mload(0x40)\n      swap1\n      dup2\n      add\n      0x40\n      mstore\n      dup1\n      swap4\n      swap3\n      swap2\n      swap1\n      dup2\n      dup2\n      mstore\n      0x20\n      add\n      dup4\n      dup4\n      0x20\n      mul\n        /* \"--CODEGEN--\":30:33   */\n      dup1\n        /* \"--CODEGEN--\":22:28   */\n      dup3\n        /* \"--CODEGEN--\":14:20   */\n      dup5\n        /* \"--CODEGEN--\":1:34   */\n      calldatacopy\n        /* \"--CODEGEN--\":99:100   */\n      0x00\n        /* \"--CODEGEN--\":81:97   */\n      swap3\n      add\n        /* \"--CODEGEN--\":74:101   */\n      swap2\n      swap1\n      swap2\n      mstore\n      pop\n        /* \"RamzSwapRouter.sol\":32001:32005  this */\n      address\n      swap3\n      pop\n        /* \"RamzSwapRouter.sol\":31952:31986  _swapSupportingFeeOnTransferTokens */\n      tag_248\n      swap2\n      pop\n      pop\n        /* \"RamzSwapRouter.sol\":31952:32007  _swapSupportingFeeOnTransferTokens(path, address(this)) */\n      jump\t// in\n    tag_247:\n        /* \"RamzSwapRouter.sol\":32034:32073  IMAAL20(WMAAL).balanceOf(address(this)) */\n      0x40\n      dup1\n      mload\n      shl(0xe0, 0x70a08231)\n      dup2\n      mstore\n        /* \"RamzSwapRouter.sol\":32067:32071  this */\n      address\n        /* \"RamzSwapRouter.sol\":32034:32073  IMAAL20(WMAAL).balanceOf(address(this)) */\n      0x04\n      dup3\n      add\n      mstore\n      swap1\n      mload\n        /* \"RamzSwapRouter.sol\":32017:32031  uint amountOut */\n      0x00\n      swap2\n      sub(shl(0xa0, 0x01), 0x01)\n        /* \"RamzSwapRouter.sol\":32042:32047  WMAAL */\n      immutable(\"0x139b5474829a1a438527d6f3b7cb075ea9353c362b5b7082a6a6627c27b040e8\")\n        /* \"RamzSwapRouter.sol\":32034:32058  IMAAL20(WMAAL).balanceOf */\n      and\n      swap2\n      0x70a08231\n      swap2\n        /* \"RamzSwapRouter.sol\":32034:32073  IMAAL20(WMAAL).balanceOf(address(this)) */\n      0x24\n      dup1\n      dup3\n      add\n      swap3\n      0x20\n      swap3\n      swap1\n      swap2\n      swap1\n      dup3\n      swap1\n      sub\n      add\n      dup2\n        /* \"RamzSwapRouter.sol\":32034:32058  IMAAL20(WMAAL).balanceOf */\n      dup7\n        /* \"RamzSwapRouter.sol\":32034:32073  IMAAL20(WMAAL).balanceOf(address(this)) */\n      dup1\n      extcodesize\n      iszero\n        /* \"--CODEGEN--\":2:4   */\n      dup1\n      iszero\n      tag_249\n      jumpi\n        /* \"--CODEGEN--\":27:28   */\n      0x00\n        /* \"--CODEGEN--\":24:25   */\n      dup1\n        /* \"--CODEGEN--\":17:29   */\n      revert\n        /* \"--CODEGEN--\":2:4   */\n    tag_249:\n        /* \"RamzSwapRouter.sol\":32034:32073  IMAAL20(WMAAL).balanceOf(address(this)) */\n      pop\n      gas\n      staticcall\n      iszero\n        /* \"--CODEGEN--\":8:17   */\n      dup1\n        /* \"--CODEGEN--\":5:7   */\n      iszero\n      tag_251\n      jumpi\n        /* \"--CODEGEN--\":45:61   */\n      returndatasize\n        /* \"--CODEGEN--\":42:43   */\n      0x00\n        /* \"--CODEGEN--\":39:40   */\n      dup1\n        /* \"--CODEGEN--\":24:62   */\n      returndatacopy\n        /* \"--CODEGEN--\":77:93   */\n      returndatasize\n        /* \"--CODEGEN--\":74:75   */\n      0x00\n        /* \"--CODEGEN--\":67:94   */\n      revert\n        /* \"--CODEGEN--\":5:7   */\n    tag_251:\n        /* \"RamzSwapRouter.sol\":32034:32073  IMAAL20(WMAAL).balanceOf(address(this)) */\n      pop\n      pop\n      pop\n      pop\n      mload(0x40)\n      returndatasize\n        /* \"--CODEGEN--\":15:17   */\n      0x20\n        /* \"--CODEGEN--\":10:13   */\n      dup2\n        /* \"--CODEGEN--\":7:18   */\n      lt\n        /* \"--CODEGEN--\":4:6   */\n      iszero\n      tag_252\n      jumpi\n        /* \"--CODEGEN--\":31:32   */\n      0x00\n        /* \"--CODEGEN--\":28:29   */\n      dup1\n        /* \"--CODEGEN--\":21:33   */\n      revert\n        /* \"--CODEGEN--\":4:6   */\n    tag_252:\n      pop\n        /* \"RamzSwapRouter.sol\":32034:32073  IMAAL20(WMAAL).balanceOf(address(this)) */\n      mload\n      swap1\n      pop\n        /* \"RamzSwapRouter.sol\":32091:32116  amountOut >= amountOutMin */\n      dup7\n      dup2\n      lt\n      iszero\n        /* \"RamzSwapRouter.sol\":32083:32163  require(amountOut >= amountOutMin, 'RamzSwapRouter: INSUFFICIENT_OUTPUT_AMOUNT') */\n      tag_253\n      jumpi\n      mload(0x40)\n      shl(0xe5, 0x461bcd)\n      dup2\n      mstore\n      0x04\n      add\n      dup1\n      dup1\n      0x20\n      add\n      dup3\n      dup2\n      sub\n      dup3\n      mstore\n      0x2a\n      dup2\n      mstore\n      0x20\n      add\n      dup1\n      data_92bed72301af54fb94c0614e27e3644454feb1e53de0a0abd95beca76cd63fa9\n      0x2a\n      swap2\n      codecopy\n      0x40\n      add\n      swap2\n      pop\n      pop\n      mload(0x40)\n      dup1\n      swap2\n      sub\n      swap1\n      revert\n    tag_253:\n        /* \"RamzSwapRouter.sol\":32180:32185  WMAAL */\n      immutable(\"0x139b5474829a1a438527d6f3b7cb075ea9353c362b5b7082a6a6627c27b040e8\")\n      sub(shl(0xa0, 0x01), 0x01)\n        /* \"RamzSwapRouter.sol\":32173:32195  IWMAAL(WMAAL).withdraw */\n      and\n      0x2e1a7d4d\n        /* \"RamzSwapRouter.sol\":32196:32205  amountOut */\n      dup3\n        /* \"RamzSwapRouter.sol\":32173:32206  IWMAAL(WMAAL).withdraw(amountOut) */\n      mload(0x40)\n      dup3\n      0xffffffff\n      and\n      0xe0\n      shl\n      dup2\n      mstore\n      0x04\n      add\n      dup1\n      dup3\n      dup2\n      mstore\n      0x20\n      add\n      swap2\n      pop\n      pop\n      0x00\n      mload(0x40)\n      dup1\n      dup4\n      sub\n      dup2\n      0x00\n      dup8\n      dup1\n      extcodesize\n      iszero\n        /* \"--CODEGEN--\":5:14   */\n      dup1\n        /* \"--CODEGEN--\":2:4   */\n      iszero\n      tag_254\n      jumpi\n        /* \"--CODEGEN--\":27:28   */\n      0x00\n        /* \"--CODEGEN--\":24:25   */\n      dup1\n        /* \"--CODEGEN--\":17:29   */\n      revert\n        /* \"--CODEGEN--\":2:4   */\n    tag_254:\n        /* \"RamzSwapRouter.sol\":32173:32206  IWMAAL(WMAAL).withdraw(amountOut) */\n      pop\n      gas\n      call\n      iszero\n        /* \"--CODEGEN--\":8:17   */\n      dup1\n        /* \"--CODEGEN--\":5:7   */\n      iszero\n      tag_256\n      jumpi\n        /* \"--CODEGEN--\":45:61   */\n      returndatasize\n        /* \"--CODEGEN--\":42:43   */\n      0x00\n        /* \"--CODEGEN--\":39:40   */\n      dup1\n        /* \"--CODEGEN--\":24:62   */\n      returndatacopy\n        /* \"--CODEGEN--\":77:93   */\n      returndatasize\n        /* \"--CODEGEN--\":74:75   */\n      0x00\n        /* \"--CODEGEN--\":67:94   */\n      revert\n        /* \"--CODEGEN--\":5:7   */\n    tag_256:\n        /* \"RamzSwapRouter.sol\":32173:32206  IWMAAL(WMAAL).withdraw(amountOut) */\n      pop\n      pop\n      pop\n      pop\n        /* \"RamzSwapRouter.sol\":32216:32262  TransferHelper.safeTransferMAAL(to, amountOut) */\n      tag_257\n        /* \"RamzSwapRouter.sol\":32248:32250  to */\n      dup5\n        /* \"RamzSwapRouter.sol\":32252:32261  amountOut */\n      dup3\n        /* \"RamzSwapRouter.sol\":32216:32247  TransferHelper.safeTransferMAAL */\n      tag_208\n        /* \"RamzSwapRouter.sol\":32216:32262  TransferHelper.safeTransferMAAL(to, amountOut) */\n      jump\t// in\n    tag_257:\n        /* \"RamzSwapRouter.sol\":15657:15658  _ */\n      pop\n        /* \"RamzSwapRouter.sol\":31443:32269  function swapExactTokensForMAALSupportingFeeOnTransferTokens(... */\n      pop\n      pop\n      pop\n      pop\n      pop\n      pop\n      pop\n      jump\t// out\n        /* \"RamzSwapRouter.sol\":24204:24816  function swapExactTokensForTokens(... */\n    tag_82:\n        /* \"RamzSwapRouter.sol\":24422:24443  uint[] memory amounts */\n      0x60\n        /* \"RamzSwapRouter.sol\":24403:24411  deadline */\n      dup2\n        /* \"RamzSwapRouter.sol\":15604:15619  block.timestamp */\n      timestamp\n        /* \"RamzSwapRouter.sol\":15592:15600  deadline */\n      dup2\n        /* \"RamzSwapRouter.sol\":15592:15619  deadline >= block.timestamp */\n      lt\n      iszero\n        /* \"RamzSwapRouter.sol\":15584:15647  require(deadline >= block.timestamp, 'RamzSwapRouter: EXPIRED') */\n      tag_259\n      jumpi\n      0x40\n      dup1\n      mload\n      shl(0xe5, 0x461bcd)\n      dup2\n      mstore\n      0x20\n      0x04\n      dup3\n      add\n      mstore\n      0x17\n      0x24\n      dup3\n      add\n      mstore\n      0x00\n      dup1\n      mload\n      0x20\n      data_abe419f277ac6b272f0968a9f490f07eeccba4f306ed4de5548b5f8f76aeb85a\n      dup4\n      codecopy\n      dup2\n      mload\n      swap2\n      mstore\n      0x44\n      dup3\n      add\n      mstore\n      swap1\n      mload\n      swap1\n      dup2\n      swap1\n      sub\n      0x64\n      add\n      swap1\n      revert\n    tag_259:\n        /* \"RamzSwapRouter.sol\":24465:24519  RamzSwapLibrary.getAmountsOut(factory, amountIn, path) */\n      tag_261\n        /* \"RamzSwapRouter.sol\":24495:24502  factory */\n      immutable(\"0x173bb80bf7ae3dde444a25d8c84de4e84891034d416e0f0ffbc56cab6043ec24\")\n        /* \"RamzSwapRouter.sol\":24504:24512  amountIn */\n      dup10\n        /* \"RamzSwapRouter.sol\":24514:24518  path */\n      dup9\n      dup9\n        /* \"RamzSwapRouter.sol\":24465:24519  RamzSwapLibrary.getAmountsOut(factory, amountIn, path) */\n      dup1\n      dup1\n      0x20\n      mul\n      0x20\n      add\n      mload(0x40)\n      swap1\n      dup2\n      add\n      0x40\n      mstore\n      dup1\n      swap4\n      swap3\n      swap2\n      swap1\n      dup2\n      dup2\n      mstore\n      0x20\n      add\n      dup4\n      dup4\n      0x20\n      mul\n        /* \"--CODEGEN--\":30:33   */\n      dup1\n        /* \"--CODEGEN--\":22:28   */\n      dup3\n        /* \"--CODEGEN--\":14:20   */\n      dup5\n        /* \"--CODEGEN--\":1:34   */\n      calldatacopy\n        /* \"--CODEGEN--\":99:100   */\n      0x00\n        /* \"--CODEGEN--\":81:97   */\n      swap3\n      add\n        /* \"--CODEGEN--\":74:101   */\n      swap2\n      swap1\n      swap2\n      mstore\n      pop\n        /* \"RamzSwapRouter.sol\":24465:24494  RamzSwapLibrary.getAmountsOut */\n      tag_262\n      swap3\n      pop\n      pop\n      pop\n        /* \"RamzSwapRouter.sol\":24465:24519  RamzSwapLibrary.getAmountsOut(factory, amountIn, path) */\n      jump\t// in\n    tag_261:\n        /* \"RamzSwapRouter.sol\":24455:24519  amounts = RamzSwapLibrary.getAmountsOut(factory, amountIn, path) */\n      swap2\n      pop\n        /* \"RamzSwapRouter.sol\":24568:24580  amountOutMin */\n      dup7\n        /* \"RamzSwapRouter.sol\":24537:24544  amounts */\n      dup3\n        /* \"RamzSwapRouter.sol\":24562:24563  1 */\n      0x01\n        /* \"RamzSwapRouter.sol\":24545:24552  amounts */\n      dup5\n        /* \"RamzSwapRouter.sol\":24545:24559  amounts.length */\n      mload\n        /* \"RamzSwapRouter.sol\":24545:24563  amounts.length - 1 */\n      sub\n        /* \"RamzSwapRouter.sol\":24537:24564  amounts[amounts.length - 1] */\n      dup2\n      mload\n      dup2\n      lt\n      tag_263\n      jumpi\n      invalid\n    tag_263:\n      0x20\n      mul\n      0x20\n      add\n      add\n      mload\n        /* \"RamzSwapRouter.sol\":24537:24580  amounts[amounts.length - 1] >= amountOutMin */\n      lt\n      iszero\n        /* \"RamzSwapRouter.sol\":24529:24627  require(amounts[amounts.length - 1] >= amountOutMin, 'RamzSwapRouter: INSUFFICIENT_OUTPUT_AMOUNT') */\n      tag_264\n      jumpi\n      mload(0x40)\n      shl(0xe5, 0x461bcd)\n      dup2\n      mstore\n      0x04\n      add\n      dup1\n      dup1\n      0x20\n      add\n      dup3\n      dup2\n      sub\n      dup3\n      mstore\n      0x2a\n      dup2\n      mstore\n      0x20\n      add\n      dup1\n      data_92bed72301af54fb94c0614e27e3644454feb1e53de0a0abd95beca76cd63fa9\n      0x2a\n      swap2\n      codecopy\n      0x40\n      add\n      swap2\n      pop\n      pop\n      mload(0x40)\n      dup1\n      swap2\n      sub\n      swap1\n      revert\n    tag_264:\n        /* \"RamzSwapRouter.sol\":24637:24775  TransferHelper.safeTransferFrom(... */\n      tag_265\n        /* \"RamzSwapRouter.sol\":24682:24686  path */\n      dup7\n      dup7\n        /* \"RamzSwapRouter.sol\":24687:24688  0 */\n      0x00\n        /* \"RamzSwapRouter.sol\":24682:24689  path[0] */\n      dup2\n      dup2\n      lt\n      tag_193\n      jumpi\n      invalid\n        /* \"RamzSwapRouter.sol\":24637:24775  TransferHelper.safeTransferFrom(... */\n    tag_265:\n        /* \"RamzSwapRouter.sol\":24785:24809  _swap(amounts, path, to) */\n      tag_206\n        /* \"RamzSwapRouter.sol\":24791:24798  amounts */\n      dup3\n        /* \"RamzSwapRouter.sol\":24800:24804  path */\n      dup8\n      dup8\n        /* \"RamzSwapRouter.sol\":24785:24809  _swap(amounts, path, to) */\n      dup1\n      dup1\n      0x20\n      mul\n      0x20\n      add\n      mload(0x40)\n      swap1\n      dup2\n      add\n      0x40\n      mstore\n      dup1\n      swap4\n      swap3\n      swap2\n      swap1\n      dup2\n      dup2\n      mstore\n      0x20\n      add\n      dup4\n      dup4\n      0x20\n      mul\n        /* \"--CODEGEN--\":30:33   */\n      dup1\n        /* \"--CODEGEN--\":22:28   */\n      dup3\n        /* \"--CODEGEN--\":14:20   */\n      dup5\n        /* \"--CODEGEN--\":1:34   */\n      calldatacopy\n        /* \"--CODEGEN--\":99:100   */\n      0x00\n        /* \"--CODEGEN--\":81:97   */\n      swap3\n      add\n        /* \"--CODEGEN--\":74:101   */\n      swap2\n      swap1\n      swap2\n      mstore\n      pop\n        /* \"RamzSwapRouter.sol\":24806:24808  to */\n      dup10\n      swap3\n      pop\n        /* \"RamzSwapRouter.sol\":24785:24790  _swap */\n      tag_201\n      swap2\n      pop\n      pop\n        /* \"RamzSwapRouter.sol\":24785:24809  _swap(amounts, path, to) */\n      jump\t// in\n        /* \"RamzSwapRouter.sol\":25416:26101  function swapExactMAALForTokens(uint amountOutMin, address[] calldata path, address to, uint deadline)... */\n    tag_91:\n        /* \"RamzSwapRouter.sol\":25627:25648  uint[] memory amounts */\n      0x60\n        /* \"RamzSwapRouter.sol\":25600:25608  deadline */\n      dup2\n        /* \"RamzSwapRouter.sol\":15604:15619  block.timestamp */\n      timestamp\n        /* \"RamzSwapRouter.sol\":15592:15600  deadline */\n      dup2\n        /* \"RamzSwapRouter.sol\":15592:15619  deadline >= block.timestamp */\n      lt\n      iszero\n        /* \"RamzSwapRouter.sol\":15584:15647  require(deadline >= block.timestamp, 'RamzSwapRouter: EXPIRED') */\n      tag_273\n      jumpi\n      0x40\n      dup1\n      mload\n      shl(0xe5, 0x461bcd)\n      dup2\n      mstore\n      0x20\n      0x04\n      dup3\n      add\n      mstore\n      0x17\n      0x24\n      dup3\n      add\n      mstore\n      0x00\n      dup1\n      mload\n      0x20\n      data_abe419f277ac6b272f0968a9f490f07eeccba4f306ed4de5548b5f8f76aeb85a\n      dup4\n      codecopy\n      dup2\n      mload\n      swap2\n      mstore\n      0x44\n      dup3\n      add\n      mstore\n      swap1\n      mload\n      swap1\n      dup2\n      swap1\n      sub\n      0x64\n      add\n      swap1\n      revert\n    tag_273:\n        /* \"RamzSwapRouter.sol\":25683:25688  WMAAL */\n      immutable(\"0x139b5474829a1a438527d6f3b7cb075ea9353c362b5b7082a6a6627c27b040e8\")\n      sub(shl(0xa0, 0x01), 0x01)\n        /* \"RamzSwapRouter.sol\":25672:25688  path[0] == WMAAL */\n      and\n        /* \"RamzSwapRouter.sol\":25672:25676  path */\n      dup7\n      dup7\n        /* \"RamzSwapRouter.sol\":25677:25678  0 */\n      0x00\n        /* \"RamzSwapRouter.sol\":25672:25679  path[0] */\n      dup2\n      dup2\n      lt\n      tag_275\n      jumpi\n      invalid\n    tag_275:\n      swap1\n      pop\n      0x20\n      mul\n      add\n      calldataload\n      sub(shl(0xa0, 0x01), 0x01)\n      and\n      sub(shl(0xa0, 0x01), 0x01)\n        /* \"RamzSwapRouter.sol\":25672:25688  path[0] == WMAAL */\n      and\n      eq\n        /* \"RamzSwapRouter.sol\":25664:25721  require(path[0] == WMAAL, 'RamzSwapRouter: INVALID_PATH') */\n      tag_276\n      jumpi\n      0x40\n      dup1\n      mload\n      shl(0xe5, 0x461bcd)\n      dup2\n      mstore\n      0x20\n      0x04\n      dup3\n      add\n      mstore\n      0x1c\n      0x24\n      dup3\n      add\n      mstore\n      0x00\n      dup1\n      mload\n      0x20\n      data_a3f1373089ee7b4837b906391b8993e750ecc2d2c744f3f58b38560998fe2d12\n      dup4\n      codecopy\n      dup2\n      mload\n      swap2\n      mstore\n      0x44\n      dup3\n      add\n      mstore\n      swap1\n      mload\n      swap1\n      dup2\n      swap1\n      sub\n      0x64\n      add\n      swap1\n      revert\n    tag_276:\n        /* \"RamzSwapRouter.sol\":25741:25796  RamzSwapLibrary.getAmountsOut(factory, msg.value, path) */\n      tag_277\n        /* \"RamzSwapRouter.sol\":25771:25778  factory */\n      immutable(\"0x173bb80bf7ae3dde444a25d8c84de4e84891034d416e0f0ffbc56cab6043ec24\")\n        /* \"RamzSwapRouter.sol\":25780:25789  msg.value */\n      callvalue\n        /* \"RamzSwapRouter.sol\":25791:25795  path */\n      dup9\n      dup9\n        /* \"RamzSwapRouter.sol\":25741:25796  RamzSwapLibrary.getAmountsOut(factory, msg.value, path) */\n      dup1\n      dup1\n      0x20\n      mul\n      0x20\n      add\n      mload(0x40)\n      swap1\n      dup2\n      add\n      0x40\n      mstore\n      dup1\n      swap4\n      swap3\n      swap2\n      swap1\n      dup2\n      dup2\n      mstore\n      0x20\n      add\n      dup4\n      dup4\n      0x20\n      mul\n        /* \"--CODEGEN--\":30:33   */\n      dup1\n        /* \"--CODEGEN--\":22:28   */\n      dup3\n        /* \"--CODEGEN--\":14:20   */\n      dup5\n        /* \"--CODEGEN--\":1:34   */\n      calldatacopy\n        /* \"--CODEGEN--\":99:100   */\n      0x00\n        /* \"--CODEGEN--\":81:97   */\n      swap3\n      add\n        /* \"--CODEGEN--\":74:101   */\n      swap2\n      swap1\n      swap2\n      mstore\n      pop\n        /* \"RamzSwapRouter.sol\":25741:25770  RamzSwapLibrary.getAmountsOut */\n      tag_262\n      swap3\n      pop\n      pop\n      pop\n        /* \"RamzSwapRouter.sol\":25741:25796  RamzSwapLibrary.getAmountsOut(factory, msg.value, path) */\n      jump\t// in\n    tag_277:\n        /* \"RamzSwapRouter.sol\":25731:25796  amounts = RamzSwapLibrary.getAmountsOut(factory, msg.value, path) */\n      swap2\n      pop\n        /* \"RamzSwapRouter.sol\":25845:25857  amountOutMin */\n      dup7\n        /* \"RamzSwapRouter.sol\":25814:25821  amounts */\n      dup3\n        /* \"RamzSwapRouter.sol\":25839:25840  1 */\n      0x01\n        /* \"RamzSwapRouter.sol\":25822:25829  amounts */\n      dup5\n        /* \"RamzSwapRouter.sol\":25822:25836  amounts.length */\n      mload\n        /* \"RamzSwapRouter.sol\":25822:25840  amounts.length - 1 */\n      sub\n        /* \"RamzSwapRouter.sol\":25814:25841  amounts[amounts.length - 1] */\n      dup2\n      mload\n      dup2\n      lt\n      tag_278\n      jumpi\n      invalid\n    tag_278:\n      0x20\n      mul\n      0x20\n      add\n      add\n      mload\n        /* \"RamzSwapRouter.sol\":25814:25857  amounts[amounts.length - 1] >= amountOutMin */\n      lt\n      iszero\n        /* \"RamzSwapRouter.sol\":25806:25904  require(amounts[amounts.length - 1] >= amountOutMin, 'RamzSwapRouter: INSUFFICIENT_OUTPUT_AMOUNT') */\n      tag_279\n      jumpi\n      mload(0x40)\n      shl(0xe5, 0x461bcd)\n      dup2\n      mstore\n      0x04\n      add\n      dup1\n      dup1\n      0x20\n      add\n      dup3\n      dup2\n      sub\n      dup3\n      mstore\n      0x2a\n      dup2\n      mstore\n      0x20\n      add\n      dup1\n      data_92bed72301af54fb94c0614e27e3644454feb1e53de0a0abd95beca76cd63fa9\n      0x2a\n      swap2\n      codecopy\n      0x40\n      add\n      swap2\n      pop\n      pop\n      mload(0x40)\n      dup1\n      swap2\n      sub\n      swap1\n      revert\n    tag_279:\n        /* \"RamzSwapRouter.sol\":25921:25926  WMAAL */\n      immutable(\"0x139b5474829a1a438527d6f3b7cb075ea9353c362b5b7082a6a6627c27b040e8\")\n      sub(shl(0xa0, 0x01), 0x01)\n        /* \"RamzSwapRouter.sol\":25914:25935  IWMAAL(WMAAL).deposit */\n      and\n      0xd0e30db0\n        /* \"RamzSwapRouter.sol\":25943:25950  amounts */\n      dup4\n        /* \"RamzSwapRouter.sol\":25951:25952  0 */\n      0x00\n        /* \"RamzSwapRouter.sol\":25943:25953  amounts[0] */\n      dup2\n      mload\n      dup2\n      lt\n      tag_280\n      jumpi\n      invalid\n    tag_280:\n      0x20\n      mul\n      0x20\n      add\n      add\n      mload\n        /* \"RamzSwapRouter.sol\":25914:25956  IWMAAL(WMAAL).deposit{value: amounts[0]}() */\n      mload(0x40)\n      dup3\n      0xffffffff\n      and\n      0xe0\n      shl\n      dup2\n      mstore\n      0x04\n      add\n      0x00\n      mload(0x40)\n      dup1\n      dup4\n      sub\n      dup2\n      dup6\n      dup9\n      dup1\n      extcodesize\n      iszero\n        /* \"--CODEGEN--\":5:14   */\n      dup1\n        /* \"--CODEGEN--\":2:4   */\n      iszero\n      tag_281\n      jumpi\n        /* \"--CODEGEN--\":27:28   */\n      0x00\n        /* \"--CODEGEN--\":24:25   */\n      dup1\n        /* \"--CODEGEN--\":17:29   */\n      revert\n        /* \"--CODEGEN--\":2:4   */\n    tag_281:\n        /* \"RamzSwapRouter.sol\":25914:25956  IWMAAL(WMAAL).deposit{value: amounts[0]}() */\n      pop\n      gas\n      call\n      iszero\n        /* \"--CODEGEN--\":8:17   */\n      dup1\n        /* \"--CODEGEN--\":5:7   */\n      iszero\n      tag_283\n      jumpi\n        /* \"--CODEGEN--\":45:61   */\n      returndatasize\n        /* \"--CODEGEN--\":42:43   */\n      0x00\n        /* \"--CODEGEN--\":39:40   */\n      dup1\n        /* \"--CODEGEN--\":24:62   */\n      returndatacopy\n        /* \"--CODEGEN--\":77:93   */\n      returndatasize\n        /* \"--CODEGEN--\":74:75   */\n      0x00\n        /* \"--CODEGEN--\":67:94   */\n      revert\n        /* \"--CODEGEN--\":5:7   */\n    tag_283:\n        /* \"RamzSwapRouter.sol\":25914:25956  IWMAAL(WMAAL).deposit{value: amounts[0]}() */\n      pop\n      pop\n      pop\n      pop\n      pop\n        /* \"RamzSwapRouter.sol\":25980:25985  WMAAL */\n      immutable(\"0x139b5474829a1a438527d6f3b7cb075ea9353c362b5b7082a6a6627c27b040e8\")\n      sub(shl(0xa0, 0x01), 0x01)\n        /* \"RamzSwapRouter.sol\":25973:25995  IWMAAL(WMAAL).transfer */\n      and\n      0xa9059cbb\n        /* \"RamzSwapRouter.sol\":25996:26046  RamzSwapLibrary.pairFor(factory, path[0], path[1]) */\n      tag_284\n        /* \"RamzSwapRouter.sol\":26020:26027  factory */\n      immutable(\"0x173bb80bf7ae3dde444a25d8c84de4e84891034d416e0f0ffbc56cab6043ec24\")\n        /* \"RamzSwapRouter.sol\":26029:26033  path */\n      dup10\n      dup10\n        /* \"RamzSwapRouter.sol\":26034:26035  0 */\n      0x00\n        /* \"RamzSwapRouter.sol\":26029:26036  path[0] */\n      dup2\n      dup2\n      lt\n      tag_245\n      jumpi\n      invalid\n        /* \"RamzSwapRouter.sol\":25996:26046  RamzSwapLibrary.pairFor(factory, path[0], path[1]) */\n    tag_284:\n        /* \"RamzSwapRouter.sol\":26048:26055  amounts */\n      dup5\n        /* \"RamzSwapRouter.sol\":26056:26057  0 */\n      0x00\n        /* \"RamzSwapRouter.sol\":26048:26058  amounts[0] */\n      dup2\n      mload\n      dup2\n      lt\n      tag_287\n      jumpi\n      invalid\n    tag_287:\n      0x20\n      mul\n      0x20\n      add\n      add\n      mload\n        /* \"RamzSwapRouter.sol\":25973:26059  IWMAAL(WMAAL).transfer(RamzSwapLibrary.pairFor(factory, path[0], path[1]), amounts[0]) */\n      mload(0x40)\n      dup4\n      0xffffffff\n      and\n      0xe0\n      shl\n      dup2\n      mstore\n      0x04\n      add\n      dup1\n      dup4\n      sub(shl(0xa0, 0x01), 0x01)\n      and\n      sub(shl(0xa0, 0x01), 0x01)\n      and\n      dup2\n      mstore\n      0x20\n      add\n      dup3\n      dup2\n      mstore\n      0x20\n      add\n      swap3\n      pop\n      pop\n      pop\n      0x20\n      mload(0x40)\n      dup1\n      dup4\n      sub\n      dup2\n      0x00\n      dup8\n      dup1\n      extcodesize\n      iszero\n        /* \"--CODEGEN--\":5:14   */\n      dup1\n        /* \"--CODEGEN--\":2:4   */\n      iszero\n      tag_288\n      jumpi\n        /* \"--CODEGEN--\":27:28   */\n      0x00\n        /* \"--CODEGEN--\":24:25   */\n      dup1\n        /* \"--CODEGEN--\":17:29   */\n      revert\n        /* \"--CODEGEN--\":2:4   */\n    tag_288:\n        /* \"RamzSwapRouter.sol\":25973:26059  IWMAAL(WMAAL).transfer(RamzSwapLibrary.pairFor(factory, path[0], path[1]), amounts[0]) */\n      pop\n      gas\n      call\n      iszero\n        /* \"--CODEGEN--\":8:17   */\n      dup1\n        /* \"--CODEGEN--\":5:7   */\n      iszero\n      tag_290\n      jumpi\n        /* \"--CODEGEN--\":45:61   */\n      returndatasize\n        /* \"--CODEGEN--\":42:43   */\n      0x00\n        /* \"--CODEGEN--\":39:40   */\n      dup1\n        /* \"--CODEGEN--\":24:62   */\n      returndatacopy\n        /* \"--CODEGEN--\":77:93   */\n      returndatasize\n        /* \"--CODEGEN--\":74:75   */\n      0x00\n        /* \"--CODEGEN--\":67:94   */\n      revert\n        /* \"--CODEGEN--\":5:7   */\n    tag_290:\n        /* \"RamzSwapRouter.sol\":25973:26059  IWMAAL(WMAAL).transfer(RamzSwapLibrary.pairFor(factory, path[0], path[1]), amounts[0]) */\n      pop\n      pop\n      pop\n      pop\n      mload(0x40)\n      returndatasize\n        /* \"--CODEGEN--\":15:17   */\n      0x20\n        /* \"--CODEGEN--\":10:13   */\n      dup2\n        /* \"--CODEGEN--\":7:18   */\n      lt\n        /* \"--CODEGEN--\":4:6   */\n      iszero\n      tag_291\n      jumpi\n        /* \"--CODEGEN--\":31:32   */\n      0x00\n        /* \"--CODEGEN--\":28:29   */\n      dup1\n        /* \"--CODEGEN--\":21:33   */\n      revert\n        /* \"--CODEGEN--\":4:6   */\n    tag_291:\n      pop\n        /* \"RamzSwapRouter.sol\":25973:26059  IWMAAL(WMAAL).transfer(RamzSwapLibrary.pairFor(factory, path[0], path[1]), amounts[0]) */\n      mload\n        /* \"RamzSwapRouter.sol\":25966:26060  assert(IWMAAL(WMAAL).transfer(RamzSwapLibrary.pairFor(factory, path[0], path[1]), amounts[0])) */\n      tag_292\n      jumpi\n      invalid\n    tag_292:\n        /* \"RamzSwapRouter.sol\":26070:26094  _swap(amounts, path, to) */\n      tag_293\n        /* \"RamzSwapRouter.sol\":26076:26083  amounts */\n      dup3\n        /* \"RamzSwapRouter.sol\":26085:26089  path */\n      dup8\n      dup8\n        /* \"RamzSwapRouter.sol\":26070:26094  _swap(amounts, path, to) */\n      dup1\n      dup1\n      0x20\n      mul\n      0x20\n      add\n      mload(0x40)\n      swap1\n      dup2\n      add\n      0x40\n      mstore\n      dup1\n      swap4\n      swap3\n      swap2\n      swap1\n      dup2\n      dup2\n      mstore\n      0x20\n      add\n      dup4\n      dup4\n      0x20\n      mul\n        /* \"--CODEGEN--\":30:33   */\n      dup1\n        /* \"--CODEGEN--\":22:28   */\n      dup3\n        /* \"--CODEGEN--\":14:20   */\n      dup5\n        /* \"--CODEGEN--\":1:34   */\n      calldatacopy\n        /* \"--CODEGEN--\":99:100   */\n      0x00\n        /* \"--CODEGEN--\":81:97   */\n      swap3\n      add\n        /* \"--CODEGEN--\":74:101   */\n      swap2\n      swap1\n      swap2\n      mstore\n      pop\n        /* \"RamzSwapRouter.sol\":26091:26093  to */\n      dup10\n      swap3\n      pop\n        /* \"RamzSwapRouter.sol\":26070:26075  _swap */\n      tag_201\n      swap2\n      pop\n      pop\n        /* \"RamzSwapRouter.sol\":26070:26094  _swap(amounts, path, to) */\n      jump\t// in\n    tag_293:\n        /* \"RamzSwapRouter.sol\":25416:26101  function swapExactMAALForTokens(uint amountOutMin, address[] calldata path, address to, uint deadline)... */\n      pop\n      swap6\n      swap5\n      pop\n      pop\n      pop\n      pop\n      pop\n      jump\t// out\n        /* \"RamzSwapRouter.sol\":29902:30600  function swapExactTokensForTokensSupportingFeeOnTransferTokens(... */\n    tag_101:\n        /* \"RamzSwapRouter.sol\":30130:30138  deadline */\n      dup1\n        /* \"RamzSwapRouter.sol\":15604:15619  block.timestamp */\n      timestamp\n        /* \"RamzSwapRouter.sol\":15592:15600  deadline */\n      dup2\n        /* \"RamzSwapRouter.sol\":15592:15619  deadline >= block.timestamp */\n      lt\n      iszero\n        /* \"RamzSwapRouter.sol\":15584:15647  require(deadline >= block.timestamp, 'RamzSwapRouter: EXPIRED') */\n      tag_295\n      jumpi\n      0x40\n      dup1\n      mload\n      shl(0xe5, 0x461bcd)\n      dup2\n      mstore\n      0x20\n      0x04\n      dup3\n      add\n      mstore\n      0x17\n      0x24\n      dup3\n      add\n      mstore\n      0x00\n      dup1\n      mload\n      0x20\n      data_abe419f277ac6b272f0968a9f490f07eeccba4f306ed4de5548b5f8f76aeb85a\n      dup4\n      codecopy\n      dup2\n      mload\n      swap2\n      mstore\n      0x44\n      dup3\n      add\n      mstore\n      swap1\n      mload\n      swap1\n      dup2\n      swap1\n      sub\n      0x64\n      add\n      swap1\n      revert\n    tag_295:\n        /* \"RamzSwapRouter.sol\":30150:30286  TransferHelper.safeTransferFrom(... */\n      tag_297\n        /* \"RamzSwapRouter.sol\":30195:30199  path */\n      dup6\n      dup6\n        /* \"RamzSwapRouter.sol\":30200:30201  0 */\n      0x00\n        /* \"RamzSwapRouter.sol\":30195:30202  path[0] */\n      dup2\n      dup2\n      lt\n      tag_243\n      jumpi\n      invalid\n        /* \"RamzSwapRouter.sol\":30150:30286  TransferHelper.safeTransferFrom(... */\n    tag_297:\n        /* \"RamzSwapRouter.sol\":30296:30314  uint balanceBefore */\n      0x00\n        /* \"RamzSwapRouter.sol\":30325:30329  path */\n      dup6\n      dup6\n      not(0x00)\n        /* \"RamzSwapRouter.sol\":30330:30345  path.length - 1 */\n      dup2\n      add\n        /* \"RamzSwapRouter.sol\":30325:30346  path[path.length - 1] */\n      dup2\n      dup2\n      lt\n      tag_302\n      jumpi\n      invalid\n    tag_302:\n      swap1\n      pop\n      0x20\n      mul\n      add\n      calldataload\n      sub(shl(0xa0, 0x01), 0x01)\n      and\n      sub(shl(0xa0, 0x01), 0x01)\n        /* \"RamzSwapRouter.sol\":30317:30357  IMAAL20(path[path.length - 1]).balanceOf */\n      and\n      0x70a08231\n        /* \"RamzSwapRouter.sol\":30358:30360  to */\n      dup6\n        /* \"RamzSwapRouter.sol\":30317:30361  IMAAL20(path[path.length - 1]).balanceOf(to) */\n      mload(0x40)\n      dup3\n      0xffffffff\n      and\n      0xe0\n      shl\n      dup2\n      mstore\n      0x04\n      add\n      dup1\n      dup3\n      sub(shl(0xa0, 0x01), 0x01)\n      and\n      sub(shl(0xa0, 0x01), 0x01)\n      and\n      dup2\n      mstore\n      0x20\n      add\n      swap2\n      pop\n      pop\n      0x20\n      mload(0x40)\n      dup1\n      dup4\n      sub\n      dup2\n      dup7\n      dup1\n      extcodesize\n      iszero\n        /* \"--CODEGEN--\":5:14   */\n      dup1\n        /* \"--CODEGEN--\":2:4   */\n      iszero\n      tag_303\n      jumpi\n        /* \"--CODEGEN--\":27:28   */\n      0x00\n        /* \"--CODEGEN--\":24:25   */\n      dup1\n        /* \"--CODEGEN--\":17:29   */\n      revert\n        /* \"--CODEGEN--\":2:4   */\n    tag_303:\n        /* \"RamzSwapRouter.sol\":30317:30361  IMAAL20(path[path.length - 1]).balanceOf(to) */\n      pop\n      gas\n      staticcall\n      iszero\n        /* \"--CODEGEN--\":8:17   */\n      dup1\n        /* \"--CODEGEN--\":5:7   */\n      iszero\n      tag_305\n      jumpi\n        /* \"--CODEGEN--\":45:61   */\n      returndatasize\n        /* \"--CODEGEN--\":42:43   */\n      0x00\n        /* \"--CODEGEN--\":39:40   */\n      dup1\n        /* \"--CODEGEN--\":24:62   */\n      returndatacopy\n        /* \"--CODEGEN--\":77:93   */\n      returndatasize\n        /* \"--CODEGEN--\":74:75   */\n      0x00\n        /* \"--CODEGEN--\":67:94   */\n      revert\n        /* \"--CODEGEN--\":5:7   */\n    tag_305:\n        /* \"RamzSwapRouter.sol\":30317:30361  IMAAL20(path[path.length - 1]).balanceOf(to) */\n      pop\n      pop\n      pop\n      pop\n      mload(0x40)\n      returndatasize\n        /* \"--CODEGEN--\":15:17   */\n      0x20\n        /* \"--CODEGEN--\":10:13   */\n      dup2\n        /* \"--CODEGEN--\":7:18   */\n      lt\n        /* \"--CODEGEN--\":4:6   */\n      iszero\n      tag_306\n      jumpi\n        /* \"--CODEGEN--\":31:32   */\n      0x00\n        /* \"--CODEGEN--\":28:29   */\n      dup1\n        /* \"--CODEGEN--\":21:33   */\n      revert\n        /* \"--CODEGEN--\":4:6   */\n    tag_306:\n      pop\n        /* \"RamzSwapRouter.sol\":30317:30361  IMAAL20(path[path.length - 1]).balanceOf(to) */\n      mload\n        /* \"RamzSwapRouter.sol\":30371:30415  _swapSupportingFeeOnTransferTokens(path, to) */\n      0x40\n      dup1\n      mload\n        /* \"RamzSwapRouter.sol\":30317:30361  IMAAL20(path[path.length - 1]).balanceOf(to) */\n      0x20\n        /* \"RamzSwapRouter.sol\":30371:30415  _swapSupportingFeeOnTransferTokens(path, to) */\n      dup9\n      dup2\n      mul\n      dup3\n      dup2\n      add\n      dup3\n      add\n      swap1\n      swap4\n      mstore\n      dup9\n      dup3\n      mstore\n        /* \"RamzSwapRouter.sol\":30317:30361  IMAAL20(path[path.length - 1]).balanceOf(to) */\n      swap3\n      swap4\n      pop\n        /* \"RamzSwapRouter.sol\":30371:30415  _swapSupportingFeeOnTransferTokens(path, to) */\n      tag_307\n      swap3\n      swap1\n      swap2\n        /* \"RamzSwapRouter.sol\":30406:30410  path */\n      dup10\n      swap2\n      dup10\n      swap2\n      dup3\n      swap2\n        /* \"RamzSwapRouter.sol\":30371:30415  _swapSupportingFeeOnTransferTokens(path, to) */\n      dup6\n      add\n      swap1\n        /* \"RamzSwapRouter.sol\":30406:30410  path */\n      dup5\n      swap1\n        /* \"RamzSwapRouter.sol\":30371:30415  _swapSupportingFeeOnTransferTokens(path, to) */\n      dup1\n        /* \"RamzSwapRouter.sol\":30406:30410  path */\n      dup3\n        /* \"RamzSwapRouter.sol\":30371:30415  _swapSupportingFeeOnTransferTokens(path, to) */\n      dup5\n        /* \"--CODEGEN--\":1:34   */\n      calldatacopy\n        /* \"--CODEGEN--\":99:100   */\n      0x00\n        /* \"--CODEGEN--\":81:97   */\n      swap3\n      add\n        /* \"--CODEGEN--\":74:101   */\n      swap2\n      swap1\n      swap2\n      mstore\n      pop\n        /* \"RamzSwapRouter.sol\":30412:30414  to */\n      dup9\n      swap3\n      pop\n        /* \"RamzSwapRouter.sol\":30371:30405  _swapSupportingFeeOnTransferTokens */\n      tag_248\n      swap2\n      pop\n      pop\n        /* \"RamzSwapRouter.sol\":30371:30415  _swapSupportingFeeOnTransferTokens(path, to) */\n      jump\t// in\n    tag_307:\n        /* \"RamzSwapRouter.sol\":30513:30525  amountOutMin */\n      dup7\n        /* \"RamzSwapRouter.sol\":30446:30509  IMAAL20(path[path.length - 1]).balanceOf(to).sub(balanceBefore) */\n      tag_308\n        /* \"RamzSwapRouter.sol\":30495:30508  balanceBefore */\n      dup3\n        /* \"RamzSwapRouter.sol\":30454:30458  path */\n      dup9\n      dup9\n      not(0x00)\n        /* \"RamzSwapRouter.sol\":30459:30474  path.length - 1 */\n      dup2\n      add\n        /* \"RamzSwapRouter.sol\":30454:30475  path[path.length - 1] */\n      dup2\n      dup2\n      lt\n      tag_309\n      jumpi\n      invalid\n    tag_309:\n      swap1\n      pop\n      0x20\n      mul\n      add\n      calldataload\n      sub(shl(0xa0, 0x01), 0x01)\n      and\n      sub(shl(0xa0, 0x01), 0x01)\n        /* \"RamzSwapRouter.sol\":30446:30486  IMAAL20(path[path.length - 1]).balanceOf */\n      and\n      0x70a08231\n        /* \"RamzSwapRouter.sol\":30487:30489  to */\n      dup9\n        /* \"RamzSwapRouter.sol\":30446:30490  IMAAL20(path[path.length - 1]).balanceOf(to) */\n      mload(0x40)\n      dup3\n      0xffffffff\n      and\n      0xe0\n      shl\n      dup2\n      mstore\n      0x04\n      add\n      dup1\n      dup3\n      sub(shl(0xa0, 0x01), 0x01)\n      and\n      sub(shl(0xa0, 0x01), 0x01)\n      and\n      dup2\n      mstore\n      0x20\n      add\n      swap2\n      pop\n      pop\n      0x20\n      mload(0x40)\n      dup1\n      dup4\n      sub\n      dup2\n      dup7\n      dup1\n      extcodesize\n      iszero\n        /* \"--CODEGEN--\":5:14   */\n      dup1\n        /* \"--CODEGEN--\":2:4   */\n      iszero\n      tag_310\n      jumpi\n        /* \"--CODEGEN--\":27:28   */\n      0x00\n        /* \"--CODEGEN--\":24:25   */\n      dup1\n        /* \"--CODEGEN--\":17:29   */\n      revert\n        /* \"--CODEGEN--\":2:4   */\n    tag_310:\n        /* \"RamzSwapRouter.sol\":30446:30490  IMAAL20(path[path.length - 1]).balanceOf(to) */\n      pop\n      gas\n      staticcall\n      iszero\n        /* \"--CODEGEN--\":8:17   */\n      dup1\n        /* \"--CODEGEN--\":5:7   */\n      iszero\n      tag_312\n      jumpi\n        /* \"--CODEGEN--\":45:61   */\n      returndatasize\n        /* \"--CODEGEN--\":42:43   */\n      0x00\n        /* \"--CODEGEN--\":39:40   */\n      dup1\n        /* \"--CODEGEN--\":24:62   */\n      returndatacopy\n        /* \"--CODEGEN--\":77:93   */\n      returndatasize\n        /* \"--CODEGEN--\":74:75   */\n      0x00\n        /* \"--CODEGEN--\":67:94   */\n      revert\n        /* \"--CODEGEN--\":5:7   */\n    tag_312:\n        /* \"RamzSwapRouter.sol\":30446:30490  IMAAL20(path[path.length - 1]).balanceOf(to) */\n      pop\n      pop\n      pop\n      pop\n      mload(0x40)\n      returndatasize\n        /* \"--CODEGEN--\":15:17   */\n      0x20\n        /* \"--CODEGEN--\":10:13   */\n      dup2\n        /* \"--CODEGEN--\":7:18   */\n      lt\n        /* \"--CODEGEN--\":4:6   */\n      iszero\n      tag_313\n      jumpi\n        /* \"--CODEGEN--\":31:32   */\n      0x00\n        /* \"--CODEGEN--\":28:29   */\n      dup1\n        /* \"--CODEGEN--\":21:33   */\n      revert\n        /* \"--CODEGEN--\":4:6   */\n    tag_313:\n      pop\n        /* \"RamzSwapRouter.sol\":30446:30490  IMAAL20(path[path.length - 1]).balanceOf(to) */\n      mload\n      swap1\n        /* \"RamzSwapRouter.sol\":30446:30509  IMAAL20(path[path.length - 1]).balanceOf(to).sub(balanceBefore) */\n      0xffffffff\n        /* \"RamzSwapRouter.sol\":30446:30494  IMAAL20(path[path.length - 1]).balanceOf(to).sub */\n      tag_314\n        /* \"RamzSwapRouter.sol\":30446:30509  IMAAL20(path[path.length - 1]).balanceOf(to).sub(balanceBefore) */\n      and\n      jump\t// in\n    tag_308:\n        /* \"RamzSwapRouter.sol\":30446:30525  IMAAL20(path[path.length - 1]).balanceOf(to).sub(balanceBefore) >= amountOutMin */\n      lt\n      iszero\n        /* \"RamzSwapRouter.sol\":30425:30593  require(... */\n      tag_257\n      jumpi\n      mload(0x40)\n      shl(0xe5, 0x461bcd)\n      dup2\n      mstore\n      0x04\n      add\n      dup1\n      dup1\n      0x20\n      add\n      dup3\n      dup2\n      sub\n      dup3\n      mstore\n      0x2a\n      dup2\n      mstore\n      0x20\n      add\n      dup1\n      data_92bed72301af54fb94c0614e27e3644454feb1e53de0a0abd95beca76cd63fa9\n      0x2a\n      swap2\n      codecopy\n      0x40\n      add\n      swap2\n      pop\n      pop\n      mload(0x40)\n      dup1\n      swap2\n      sub\n      swap1\n      revert\n        /* \"RamzSwapRouter.sol\":27764:28562  function swapMAALForExactTokens(uint amountOut, address[] calldata path, address to, uint deadline)... */\n    tag_107:\n        /* \"RamzSwapRouter.sol\":27972:27993  uint[] memory amounts */\n      0x60\n        /* \"RamzSwapRouter.sol\":27945:27953  deadline */\n      dup2\n        /* \"RamzSwapRouter.sol\":15604:15619  block.timestamp */\n      timestamp\n        /* \"RamzSwapRouter.sol\":15592:15600  deadline */\n      dup2\n        /* \"RamzSwapRouter.sol\":15592:15619  deadline >= block.timestamp */\n      lt\n      iszero\n        /* \"RamzSwapRouter.sol\":15584:15647  require(deadline >= block.timestamp, 'RamzSwapRouter: EXPIRED') */\n      tag_317\n      jumpi\n      0x40\n      dup1\n      mload\n      shl(0xe5, 0x461bcd)\n      dup2\n      mstore\n      0x20\n      0x04\n      dup3\n      add\n      mstore\n      0x17\n      0x24\n      dup3\n      add\n      mstore\n      0x00\n      dup1\n      mload\n      0x20\n      data_abe419f277ac6b272f0968a9f490f07eeccba4f306ed4de5548b5f8f76aeb85a\n      dup4\n      codecopy\n      dup2\n      mload\n      swap2\n      mstore\n      0x44\n      dup3\n      add\n      mstore\n      swap1\n      mload\n      swap1\n      dup2\n      swap1\n      sub\n      0x64\n      add\n      swap1\n      revert\n    tag_317:\n        /* \"RamzSwapRouter.sol\":28028:28033  WMAAL */\n      immutable(\"0x139b5474829a1a438527d6f3b7cb075ea9353c362b5b7082a6a6627c27b040e8\")\n      sub(shl(0xa0, 0x01), 0x01)\n        /* \"RamzSwapRouter.sol\":28017:28033  path[0] == WMAAL */\n      and\n        /* \"RamzSwapRouter.sol\":28017:28021  path */\n      dup7\n      dup7\n        /* \"RamzSwapRouter.sol\":28022:28023  0 */\n      0x00\n        /* \"RamzSwapRouter.sol\":28017:28024  path[0] */\n      dup2\n      dup2\n      lt\n      tag_319\n      jumpi\n      invalid\n    tag_319:\n      swap1\n      pop\n      0x20\n      mul\n      add\n      calldataload\n      sub(shl(0xa0, 0x01), 0x01)\n      and\n      sub(shl(0xa0, 0x01), 0x01)\n        /* \"RamzSwapRouter.sol\":28017:28033  path[0] == WMAAL */\n      and\n      eq\n        /* \"RamzSwapRouter.sol\":28009:28066  require(path[0] == WMAAL, 'RamzSwapRouter: INVALID_PATH') */\n      tag_320\n      jumpi\n      0x40\n      dup1\n      mload\n      shl(0xe5, 0x461bcd)\n      dup2\n      mstore\n      0x20\n      0x04\n      dup3\n      add\n      mstore\n      0x1c\n      0x24\n      dup3\n      add\n      mstore\n      0x00\n      dup1\n      mload\n      0x20\n      data_a3f1373089ee7b4837b906391b8993e750ecc2d2c744f3f58b38560998fe2d12\n      dup4\n      codecopy\n      dup2\n      mload\n      swap2\n      mstore\n      0x44\n      dup3\n      add\n      mstore\n      swap1\n      mload\n      swap1\n      dup2\n      swap1\n      sub\n      0x64\n      add\n      swap1\n      revert\n    tag_320:\n        /* \"RamzSwapRouter.sol\":28086:28140  RamzSwapLibrary.getAmountsIn(factory, amountOut, path) */\n      tag_321\n        /* \"RamzSwapRouter.sol\":28115:28122  factory */\n      immutable(\"0x173bb80bf7ae3dde444a25d8c84de4e84891034d416e0f0ffbc56cab6043ec24\")\n        /* \"RamzSwapRouter.sol\":28124:28133  amountOut */\n      dup9\n        /* \"RamzSwapRouter.sol\":28135:28139  path */\n      dup9\n      dup9\n        /* \"RamzSwapRouter.sol\":28086:28140  RamzSwapLibrary.getAmountsIn(factory, amountOut, path) */\n      dup1\n      dup1\n      0x20\n      mul\n      0x20\n      add\n      mload(0x40)\n      swap1\n      dup2\n      add\n      0x40\n      mstore\n      dup1\n      swap4\n      swap3\n      swap2\n      swap1\n      dup2\n      dup2\n      mstore\n      0x20\n      add\n      dup4\n      dup4\n      0x20\n      mul\n        /* \"--CODEGEN--\":30:33   */\n      dup1\n        /* \"--CODEGEN--\":22:28   */\n      dup3\n        /* \"--CODEGEN--\":14:20   */\n      dup5\n        /* \"--CODEGEN--\":1:34   */\n      calldatacopy\n        /* \"--CODEGEN--\":99:100   */\n      0x00\n        /* \"--CODEGEN--\":81:97   */\n      swap3\n      add\n        /* \"--CODEGEN--\":74:101   */\n      swap2\n      swap1\n      swap2\n      mstore\n      pop\n        /* \"RamzSwapRouter.sol\":28086:28114  RamzSwapLibrary.getAmountsIn */\n      tag_189\n      swap3\n      pop\n      pop\n      pop\n        /* \"RamzSwapRouter.sol\":28086:28140  RamzSwapLibrary.getAmountsIn(factory, amountOut, path) */\n      jump\t// in\n    tag_321:\n        /* \"RamzSwapRouter.sol\":28076:28140  amounts = RamzSwapLibrary.getAmountsIn(factory, amountOut, path) */\n      swap2\n      pop\n        /* \"RamzSwapRouter.sol\":28172:28181  msg.value */\n      callvalue\n        /* \"RamzSwapRouter.sol\":28158:28165  amounts */\n      dup3\n        /* \"RamzSwapRouter.sol\":28166:28167  0 */\n      0x00\n        /* \"RamzSwapRouter.sol\":28158:28168  amounts[0] */\n      dup2\n      mload\n      dup2\n      lt\n      tag_322\n      jumpi\n      invalid\n    tag_322:\n      0x20\n      mul\n      0x20\n      add\n      add\n      mload\n        /* \"RamzSwapRouter.sol\":28158:28181  amounts[0] <= msg.value */\n      gt\n      iszero\n        /* \"RamzSwapRouter.sol\":28150:28224  require(amounts[0] <= msg.value, 'RamzSwapRouter: EXCESSIVE_INPUT_AMOUNT') */\n      tag_323\n      jumpi\n      mload(0x40)\n      shl(0xe5, 0x461bcd)\n      dup2\n      mstore\n      0x04\n      add\n      dup1\n      dup1\n      0x20\n      add\n      dup3\n      dup2\n      sub\n      dup3\n      mstore\n      0x26\n      dup2\n      mstore\n      0x20\n      add\n      dup1\n      data_5e897f34b03c6c0a30277e01a5a4f60eb9482a487ba0f763282084ccb4259511\n      0x26\n      swap2\n      codecopy\n      0x40\n      add\n      swap2\n      pop\n      pop\n      mload(0x40)\n      dup1\n      swap2\n      sub\n      swap1\n      revert\n    tag_323:\n        /* \"RamzSwapRouter.sol\":28241:28246  WMAAL */\n      immutable(\"0x139b5474829a1a438527d6f3b7cb075ea9353c362b5b7082a6a6627c27b040e8\")\n      sub(shl(0xa0, 0x01), 0x01)\n        /* \"RamzSwapRouter.sol\":28234:28255  IWMAAL(WMAAL).deposit */\n      and\n      0xd0e30db0\n        /* \"RamzSwapRouter.sol\":28263:28270  amounts */\n      dup4\n        /* \"RamzSwapRouter.sol\":28271:28272  0 */\n      0x00\n        /* \"RamzSwapRouter.sol\":28263:28273  amounts[0] */\n      dup2\n      mload\n      dup2\n      lt\n      tag_324\n      jumpi\n      invalid\n    tag_324:\n      0x20\n      mul\n      0x20\n      add\n      add\n      mload\n        /* \"RamzSwapRouter.sol\":28234:28276  IWMAAL(WMAAL).deposit{value: amounts[0]}() */\n      mload(0x40)\n      dup3\n      0xffffffff\n      and\n      0xe0\n      shl\n      dup2\n      mstore\n      0x04\n      add\n      0x00\n      mload(0x40)\n      dup1\n      dup4\n      sub\n      dup2\n      dup6\n      dup9\n      dup1\n      extcodesize\n      iszero\n        /* \"--CODEGEN--\":5:14   */\n      dup1\n        /* \"--CODEGEN--\":2:4   */\n      iszero\n      tag_325\n      jumpi\n        /* \"--CODEGEN--\":27:28   */\n      0x00\n        /* \"--CODEGEN--\":24:25   */\n      dup1\n        /* \"--CODEGEN--\":17:29   */\n      revert\n        /* \"--CODEGEN--\":2:4   */\n    tag_325:\n        /* \"RamzSwapRouter.sol\":28234:28276  IWMAAL(WMAAL).deposit{value: amounts[0]}() */\n      pop\n      gas\n      call\n      iszero\n        /* \"--CODEGEN--\":8:17   */\n      dup1\n        /* \"--CODEGEN--\":5:7   */\n      iszero\n      tag_327\n      jumpi\n        /* \"--CODEGEN--\":45:61   */\n      returndatasize\n        /* \"--CODEGEN--\":42:43   */\n      0x00\n        /* \"--CODEGEN--\":39:40   */\n      dup1\n        /* \"--CODEGEN--\":24:62   */\n      returndatacopy\n        /* \"--CODEGEN--\":77:93   */\n      returndatasize\n        /* \"--CODEGEN--\":74:75   */\n      0x00\n        /* \"--CODEGEN--\":67:94   */\n      revert\n        /* \"--CODEGEN--\":5:7   */\n    tag_327:\n        /* \"RamzSwapRouter.sol\":28234:28276  IWMAAL(WMAAL).deposit{value: amounts[0]}() */\n      pop\n      pop\n      pop\n      pop\n      pop\n        /* \"RamzSwapRouter.sol\":28300:28305  WMAAL */\n      immutable(\"0x139b5474829a1a438527d6f3b7cb075ea9353c362b5b7082a6a6627c27b040e8\")\n      sub(shl(0xa0, 0x01), 0x01)\n        /* \"RamzSwapRouter.sol\":28293:28315  IWMAAL(WMAAL).transfer */\n      and\n      0xa9059cbb\n        /* \"RamzSwapRouter.sol\":28316:28366  RamzSwapLibrary.pairFor(factory, path[0], path[1]) */\n      tag_328\n        /* \"RamzSwapRouter.sol\":28340:28347  factory */\n      immutable(\"0x173bb80bf7ae3dde444a25d8c84de4e84891034d416e0f0ffbc56cab6043ec24\")\n        /* \"RamzSwapRouter.sol\":28349:28353  path */\n      dup10\n      dup10\n        /* \"RamzSwapRouter.sol\":28354:28355  0 */\n      0x00\n        /* \"RamzSwapRouter.sol\":28349:28356  path[0] */\n      dup2\n      dup2\n      lt\n      tag_245\n      jumpi\n      invalid\n        /* \"RamzSwapRouter.sol\":28316:28366  RamzSwapLibrary.pairFor(factory, path[0], path[1]) */\n    tag_328:\n        /* \"RamzSwapRouter.sol\":28368:28375  amounts */\n      dup5\n        /* \"RamzSwapRouter.sol\":28376:28377  0 */\n      0x00\n        /* \"RamzSwapRouter.sol\":28368:28378  amounts[0] */\n      dup2\n      mload\n      dup2\n      lt\n      tag_331\n      jumpi\n      invalid\n    tag_331:\n      0x20\n      mul\n      0x20\n      add\n      add\n      mload\n        /* \"RamzSwapRouter.sol\":28293:28379  IWMAAL(WMAAL).transfer(RamzSwapLibrary.pairFor(factory, path[0], path[1]), amounts[0]) */\n      mload(0x40)\n      dup4\n      0xffffffff\n      and\n      0xe0\n      shl\n      dup2\n      mstore\n      0x04\n      add\n      dup1\n      dup4\n      sub(shl(0xa0, 0x01), 0x01)\n      and\n      sub(shl(0xa0, 0x01), 0x01)\n      and\n      dup2\n      mstore\n      0x20\n      add\n      dup3\n      dup2\n      mstore\n      0x20\n      add\n      swap3\n      pop\n      pop\n      pop\n      0x20\n      mload(0x40)\n      dup1\n      dup4\n      sub\n      dup2\n      0x00\n      dup8\n      dup1\n      extcodesize\n      iszero\n        /* \"--CODEGEN--\":5:14   */\n      dup1\n        /* \"--CODEGEN--\":2:4   */\n      iszero\n      tag_332\n      jumpi\n        /* \"--CODEGEN--\":27:28   */\n      0x00\n        /* \"--CODEGEN--\":24:25   */\n      dup1\n        /* \"--CODEGEN--\":17:29   */\n      revert\n        /* \"--CODEGEN--\":2:4   */\n    tag_332:\n        /* \"RamzSwapRouter.sol\":28293:28379  IWMAAL(WMAAL).transfer(RamzSwapLibrary.pairFor(factory, path[0], path[1]), amounts[0]) */\n      pop\n      gas\n      call\n      iszero\n        /* \"--CODEGEN--\":8:17   */\n      dup1\n        /* \"--CODEGEN--\":5:7   */\n      iszero\n      tag_334\n      jumpi\n        /* \"--CODEGEN--\":45:61   */\n      returndatasize\n        /* \"--CODEGEN--\":42:43   */\n      0x00\n        /* \"--CODEGEN--\":39:40   */\n      dup1\n        /* \"--CODEGEN--\":24:62   */\n      returndatacopy\n        /* \"--CODEGEN--\":77:93   */\n      returndatasize\n        /* \"--CODEGEN--\":74:75   */\n      0x00\n        /* \"--CODEGEN--\":67:94   */\n      revert\n        /* \"--CODEGEN--\":5:7   */\n    tag_334:\n        /* \"RamzSwapRouter.sol\":28293:28379  IWMAAL(WMAAL).transfer(RamzSwapLibrary.pairFor(factory, path[0], path[1]), amounts[0]) */\n      pop\n      pop\n      pop\n      pop\n      mload(0x40)\n      returndatasize\n        /* \"--CODEGEN--\":15:17   */\n      0x20\n        /* \"--CODEGEN--\":10:13   */\n      dup2\n        /* \"--CODEGEN--\":7:18   */\n      lt\n        /* \"--CODEGEN--\":4:6   */\n      iszero\n      tag_335\n      jumpi\n        /* \"--CODEGEN--\":31:32   */\n      0x00\n        /* \"--CODEGEN--\":28:29   */\n      dup1\n        /* \"--CODEGEN--\":21:33   */\n      revert\n        /* \"--CODEGEN--\":4:6   */\n    tag_335:\n      pop\n        /* \"RamzSwapRouter.sol\":28293:28379  IWMAAL(WMAAL).transfer(RamzSwapLibrary.pairFor(factory, path[0], path[1]), amounts[0]) */\n      mload\n        /* \"RamzSwapRouter.sol\":28286:28380  assert(IWMAAL(WMAAL).transfer(RamzSwapLibrary.pairFor(factory, path[0], path[1]), amounts[0])) */\n      tag_336\n      jumpi\n      invalid\n    tag_336:\n        /* \"RamzSwapRouter.sol\":28390:28414  _swap(amounts, path, to) */\n      tag_337\n        /* \"RamzSwapRouter.sol\":28396:28403  amounts */\n      dup3\n        /* \"RamzSwapRouter.sol\":28405:28409  path */\n      dup8\n      dup8\n        /* \"RamzSwapRouter.sol\":28390:28414  _swap(amounts, path, to) */\n      dup1\n      dup1\n      0x20\n      mul\n      0x20\n      add\n      mload(0x40)\n      swap1\n      dup2\n      add\n      0x40\n      mstore\n      dup1\n      swap4\n      swap3\n      swap2\n      swap1\n      dup2\n      dup2\n      mstore\n      0x20\n      add\n      dup4\n      dup4\n      0x20\n      mul\n        /* \"--CODEGEN--\":30:33   */\n      dup1\n        /* \"--CODEGEN--\":22:28   */\n      dup3\n        /* \"--CODEGEN--\":14:20   */\n      dup5\n        /* \"--CODEGEN--\":1:34   */\n      calldatacopy\n        /* \"--CODEGEN--\":99:100   */\n      0x00\n        /* \"--CODEGEN--\":81:97   */\n      swap3\n      add\n        /* \"--CODEGEN--\":74:101   */\n      swap2\n      swap1\n      swap2\n      mstore\n      pop\n        /* \"RamzSwapRouter.sol\":28411:28413  to */\n      dup10\n      swap3\n      pop\n        /* \"RamzSwapRouter.sol\":28390:28395  _swap */\n      tag_201\n      swap2\n      pop\n      pop\n        /* \"RamzSwapRouter.sol\":28390:28414  _swap(amounts, path, to) */\n      jump\t// in\n    tag_337:\n        /* \"RamzSwapRouter.sol\":28476:28483  amounts */\n      dup2\n        /* \"RamzSwapRouter.sol\":28484:28485  0 */\n      0x00\n        /* \"RamzSwapRouter.sol\":28476:28486  amounts[0] */\n      dup2\n      mload\n      dup2\n      lt\n      tag_338\n      jumpi\n      invalid\n    tag_338:\n      0x20\n      mul\n      0x20\n      add\n      add\n      mload\n        /* \"RamzSwapRouter.sol\":28464:28473  msg.value */\n      callvalue\n        /* \"RamzSwapRouter.sol\":28464:28486  msg.value > amounts[0] */\n      gt\n        /* \"RamzSwapRouter.sol\":28460:28555  if (msg.value > amounts[0]) TransferHelper.safeTransferMAAL(msg.sender, msg.value - amounts[0]) */\n      iszero\n      tag_293\n      jumpi\n        /* \"RamzSwapRouter.sol\":28488:28555  TransferHelper.safeTransferMAAL(msg.sender, msg.value - amounts[0]) */\n      tag_293\n        /* \"RamzSwapRouter.sol\":28520:28530  msg.sender */\n      caller\n        /* \"RamzSwapRouter.sol\":28544:28551  amounts */\n      dup4\n        /* \"RamzSwapRouter.sol\":28552:28553  0 */\n      0x00\n        /* \"RamzSwapRouter.sol\":28544:28554  amounts[0] */\n      dup2\n      mload\n      dup2\n      lt\n      tag_341\n      jumpi\n      invalid\n    tag_341:\n      0x20\n      mul\n      0x20\n      add\n      add\n      mload\n        /* \"RamzSwapRouter.sol\":28532:28541  msg.value */\n      callvalue\n        /* \"RamzSwapRouter.sol\":28532:28554  msg.value - amounts[0] */\n      sub\n        /* \"RamzSwapRouter.sol\":28488:28519  TransferHelper.safeTransferMAAL */\n      tag_208\n        /* \"RamzSwapRouter.sol\":28488:28555  TransferHelper.safeTransferMAAL(msg.sender, msg.value - amounts[0]) */\n      jump\t// in\n        /* \"RamzSwapRouter.sol\":18041:19007  function addLiquidityMAAL(... */\n    tag_113:\n        /* \"RamzSwapRouter.sol\":18289:18305  uint amountToken */\n      0x00\n        /* \"RamzSwapRouter.sol\":18307:18322  uint amountMAAL */\n      dup1\n        /* \"RamzSwapRouter.sol\":18324:18338  uint liquidity */\n      0x00\n        /* \"RamzSwapRouter.sol\":18270:18278  deadline */\n      dup4\n        /* \"RamzSwapRouter.sol\":15604:15619  block.timestamp */\n      timestamp\n        /* \"RamzSwapRouter.sol\":15592:15600  deadline */\n      dup2\n        /* \"RamzSwapRouter.sol\":15592:15619  deadline >= block.timestamp */\n      lt\n      iszero\n        /* \"RamzSwapRouter.sol\":15584:15647  require(deadline >= block.timestamp, 'RamzSwapRouter: EXPIRED') */\n      tag_343\n      jumpi\n      0x40\n      dup1\n      mload\n      shl(0xe5, 0x461bcd)\n      dup2\n      mstore\n      0x20\n      0x04\n      dup3\n      add\n      mstore\n      0x17\n      0x24\n      dup3\n      add\n      mstore\n      0x00\n      dup1\n      mload\n      0x20\n      data_abe419f277ac6b272f0968a9f490f07eeccba4f306ed4de5548b5f8f76aeb85a\n      dup4\n      codecopy\n      dup2\n      mload\n      swap2\n      mstore\n      0x44\n      dup3\n      add\n      mstore\n      swap1\n      mload\n      swap1\n      dup2\n      swap1\n      sub\n      0x64\n      add\n      swap1\n      revert\n    tag_343:\n        /* \"RamzSwapRouter.sol\":18378:18549  _addLiquidity(... */\n      tag_345\n        /* \"RamzSwapRouter.sol\":18405:18410  token */\n      dup11\n        /* \"RamzSwapRouter.sol\":18424:18429  WMAAL */\n      immutable(\"0x139b5474829a1a438527d6f3b7cb075ea9353c362b5b7082a6a6627c27b040e8\")\n        /* \"RamzSwapRouter.sol\":18443:18461  amountTokenDesired */\n      dup12\n        /* \"RamzSwapRouter.sol\":18475:18484  msg.value */\n      callvalue\n        /* \"RamzSwapRouter.sol\":18498:18512  amountTokenMin */\n      dup13\n        /* \"RamzSwapRouter.sol\":18526:18539  amountMAALMin */\n      dup13\n        /* \"RamzSwapRouter.sol\":18378:18391  _addLiquidity */\n      tag_346\n        /* \"RamzSwapRouter.sol\":18378:18549  _addLiquidity(... */\n      jump\t// in\n    tag_345:\n        /* \"RamzSwapRouter.sol\":18350:18549  (amountToken, amountMAAL) = _addLiquidity(... */\n      swap1\n      swap5\n      pop\n      swap3\n      pop\n        /* \"RamzSwapRouter.sol\":18559:18571  address pair */\n      0x00\n        /* \"RamzSwapRouter.sol\":18574:18620  RamzSwapLibrary.pairFor(factory, token, WMAAL) */\n      tag_347\n        /* \"RamzSwapRouter.sol\":18598:18605  factory */\n      immutable(\"0x173bb80bf7ae3dde444a25d8c84de4e84891034d416e0f0ffbc56cab6043ec24\")\n        /* \"RamzSwapRouter.sol\":18607:18612  token */\n      dup13\n        /* \"RamzSwapRouter.sol\":18614:18619  WMAAL */\n      immutable(\"0x139b5474829a1a438527d6f3b7cb075ea9353c362b5b7082a6a6627c27b040e8\")\n        /* \"RamzSwapRouter.sol\":18574:18597  RamzSwapLibrary.pairFor */\n      tag_197\n        /* \"RamzSwapRouter.sol\":18574:18620  RamzSwapLibrary.pairFor(factory, token, WMAAL) */\n      jump\t// in\n    tag_347:\n        /* \"RamzSwapRouter.sol\":18559:18620  address pair = RamzSwapLibrary.pairFor(factory, token, WMAAL) */\n      swap1\n      pop\n        /* \"RamzSwapRouter.sol\":18630:18699  TransferHelper.safeTransferFrom(token, msg.sender, pair, amountToken) */\n      tag_348\n        /* \"RamzSwapRouter.sol\":18662:18667  token */\n      dup12\n        /* \"RamzSwapRouter.sol\":18669:18679  msg.sender */\n      caller\n        /* \"RamzSwapRouter.sol\":18681:18685  pair */\n      dup4\n        /* \"RamzSwapRouter.sol\":18687:18698  amountToken */\n      dup9\n        /* \"RamzSwapRouter.sol\":18630:18661  TransferHelper.safeTransferFrom */\n      tag_199\n        /* \"RamzSwapRouter.sol\":18630:18699  TransferHelper.safeTransferFrom(token, msg.sender, pair, amountToken) */\n      jump\t// in\n    tag_348:\n        /* \"RamzSwapRouter.sol\":18716:18721  WMAAL */\n      immutable(\"0x139b5474829a1a438527d6f3b7cb075ea9353c362b5b7082a6a6627c27b040e8\")\n      sub(shl(0xa0, 0x01), 0x01)\n        /* \"RamzSwapRouter.sol\":18709:18730  IWMAAL(WMAAL).deposit */\n      and\n      0xd0e30db0\n        /* \"RamzSwapRouter.sol\":18738:18748  amountMAAL */\n      dup6\n        /* \"RamzSwapRouter.sol\":18709:18751  IWMAAL(WMAAL).deposit{value: amountMAAL}() */\n      mload(0x40)\n      dup3\n      0xffffffff\n      and\n      0xe0\n      shl\n      dup2\n      mstore\n      0x04\n      add\n      0x00\n      mload(0x40)\n      dup1\n      dup4\n      sub\n      dup2\n      dup6\n      dup9\n      dup1\n      extcodesize\n      iszero\n        /* \"--CODEGEN--\":5:14   */\n      dup1\n        /* \"--CODEGEN--\":2:4   */\n      iszero\n      tag_349\n      jumpi\n        /* \"--CODEGEN--\":27:28   */\n      0x00\n        /* \"--CODEGEN--\":24:25   */\n      dup1\n        /* \"--CODEGEN--\":17:29   */\n      revert\n        /* \"--CODEGEN--\":2:4   */\n    tag_349:\n        /* \"RamzSwapRouter.sol\":18709:18751  IWMAAL(WMAAL).deposit{value: amountMAAL}() */\n      pop\n      gas\n      call\n      iszero\n        /* \"--CODEGEN--\":8:17   */\n      dup1\n        /* \"--CODEGEN--\":5:7   */\n      iszero\n      tag_351\n      jumpi\n        /* \"--CODEGEN--\":45:61   */\n      returndatasize\n        /* \"--CODEGEN--\":42:43   */\n      0x00\n        /* \"--CODEGEN--\":39:40   */\n      dup1\n        /* \"--CODEGEN--\":24:62   */\n      returndatacopy\n        /* \"--CODEGEN--\":77:93   */\n      returndatasize\n        /* \"--CODEGEN--\":74:75   */\n      0x00\n        /* \"--CODEGEN--\":67:94   */\n      revert\n        /* \"--CODEGEN--\":5:7   */\n    tag_351:\n        /* \"RamzSwapRouter.sol\":18709:18751  IWMAAL(WMAAL).deposit{value: amountMAAL}() */\n      pop\n      pop\n      pop\n      pop\n      pop\n        /* \"RamzSwapRouter.sol\":18775:18780  WMAAL */\n      immutable(\"0x139b5474829a1a438527d6f3b7cb075ea9353c362b5b7082a6a6627c27b040e8\")\n      sub(shl(0xa0, 0x01), 0x01)\n        /* \"RamzSwapRouter.sol\":18768:18790  IWMAAL(WMAAL).transfer */\n      and\n      0xa9059cbb\n        /* \"RamzSwapRouter.sol\":18791:18795  pair */\n      dup3\n        /* \"RamzSwapRouter.sol\":18797:18807  amountMAAL */\n      dup7\n        /* \"RamzSwapRouter.sol\":18768:18808  IWMAAL(WMAAL).transfer(pair, amountMAAL) */\n      mload(0x40)\n      dup4\n      0xffffffff\n      and\n      0xe0\n      shl\n      dup2\n      mstore\n      0x04\n      add\n      dup1\n      dup4\n      sub(shl(0xa0, 0x01), 0x01)\n      and\n      sub(shl(0xa0, 0x01), 0x01)\n      and\n      dup2\n      mstore\n      0x20\n      add\n      dup3\n      dup2\n      mstore\n      0x20\n      add\n      swap3\n      pop\n      pop\n      pop\n      0x20\n      mload(0x40)\n      dup1\n      dup4\n      sub\n      dup2\n      0x00\n      dup8\n      dup1\n      extcodesize\n      iszero\n        /* \"--CODEGEN--\":5:14   */\n      dup1\n        /* \"--CODEGEN--\":2:4   */\n      iszero\n      tag_352\n      jumpi\n        /* \"--CODEGEN--\":27:28   */\n      0x00\n        /* \"--CODEGEN--\":24:25   */\n      dup1\n        /* \"--CODEGEN--\":17:29   */\n      revert\n        /* \"--CODEGEN--\":2:4   */\n    tag_352:\n        /* \"RamzSwapRouter.sol\":18768:18808  IWMAAL(WMAAL).transfer(pair, amountMAAL) */\n      pop\n      gas\n      call\n      iszero\n        /* \"--CODEGEN--\":8:17   */\n      dup1\n        /* \"--CODEGEN--\":5:7   */\n      iszero\n      tag_354\n      jumpi\n        /* \"--CODEGEN--\":45:61   */\n      returndatasize\n        /* \"--CODEGEN--\":42:43   */\n      0x00\n        /* \"--CODEGEN--\":39:40   */\n      dup1\n        /* \"--CODEGEN--\":24:62   */\n      returndatacopy\n        /* \"--CODEGEN--\":77:93   */\n      returndatasize\n        /* \"--CODEGEN--\":74:75   */\n      0x00\n        /* \"--CODEGEN--\":67:94   */\n      revert\n        /* \"--CODEGEN--\":5:7   */\n    tag_354:\n        /* \"RamzSwapRouter.sol\":18768:18808  IWMAAL(WMAAL).transfer(pair, amountMAAL) */\n      pop\n      pop\n      pop\n      pop\n      mload(0x40)\n      returndatasize\n        /* \"--CODEGEN--\":15:17   */\n      0x20\n        /* \"--CODEGEN--\":10:13   */\n      dup2\n        /* \"--CODEGEN--\":7:18   */\n      lt\n        /* \"--CODEGEN--\":4:6   */\n      iszero\n      tag_355\n      jumpi\n        /* \"--CODEGEN--\":31:32   */\n      0x00\n        /* \"--CODEGEN--\":28:29   */\n      dup1\n        /* \"--CODEGEN--\":21:33   */\n      revert\n        /* \"--CODEGEN--\":4:6   */\n    tag_355:\n      pop\n        /* \"RamzSwapRouter.sol\":18768:18808  IWMAAL(WMAAL).transfer(pair, amountMAAL) */\n      mload\n        /* \"RamzSwapRouter.sol\":18761:18809  assert(IWMAAL(WMAAL).transfer(pair, amountMAAL)) */\n      tag_356\n      jumpi\n      invalid\n    tag_356:\n        /* \"RamzSwapRouter.sol\":18845:18849  pair */\n      dup1\n      sub(shl(0xa0, 0x01), 0x01)\n        /* \"RamzSwapRouter.sol\":18831:18855  IRamzSwapPair(pair).mint */\n      and\n      0x6a627842\n        /* \"RamzSwapRouter.sol\":18856:18858  to */\n      dup9\n        /* \"RamzSwapRouter.sol\":18831:18859  IRamzSwapPair(pair).mint(to) */\n      mload(0x40)\n      dup3\n      0xffffffff\n      and\n      0xe0\n      shl\n      dup2\n      mstore\n      0x04\n      add\n      dup1\n      dup3\n      sub(shl(0xa0, 0x01), 0x01)\n      and\n      sub(shl(0xa0, 0x01), 0x01)\n      and\n      dup2\n      mstore\n      0x20\n      add\n      swap2\n      pop\n      pop\n      0x20\n      mload(0x40)\n      dup1\n      dup4\n      sub\n      dup2\n      0x00\n      dup8\n      dup1\n      extcodesize\n      iszero\n        /* \"--CODEGEN--\":5:14   */\n      dup1\n        /* \"--CODEGEN--\":2:4   */\n      iszero\n      tag_357\n      jumpi\n        /* \"--CODEGEN--\":27:28   */\n      0x00\n        /* \"--CODEGEN--\":24:25   */\n      dup1\n        /* \"--CODEGEN--\":17:29   */\n      revert\n        /* \"--CODEGEN--\":2:4   */\n    tag_357:\n        /* \"RamzSwapRouter.sol\":18831:18859  IRamzSwapPair(pair).mint(to) */\n      pop\n      gas\n      call\n      iszero\n        /* \"--CODEGEN--\":8:17   */\n      dup1\n        /* \"--CODEGEN--\":5:7   */\n      iszero\n      tag_359\n      jumpi\n        /* \"--CODEGEN--\":45:61   */\n      returndatasize\n        /* \"--CODEGEN--\":42:43   */\n      0x00\n        /* \"--CODEGEN--\":39:40   */\n      dup1\n        /* \"--CODEGEN--\":24:62   */\n      returndatacopy\n        /* \"--CODEGEN--\":77:93   */\n      returndatasize\n        /* \"--CODEGEN--\":74:75   */\n      0x00\n        /* \"--CODEGEN--\":67:94   */\n      revert\n        /* \"--CODEGEN--\":5:7   */\n    tag_359:\n        /* \"RamzSwapRouter.sol\":18831:18859  IRamzSwapPair(pair).mint(to) */\n      pop\n      pop\n      pop\n      pop\n      mload(0x40)\n      returndatasize\n        /* \"--CODEGEN--\":15:17   */\n      0x20\n        /* \"--CODEGEN--\":10:13   */\n      dup2\n        /* \"--CODEGEN--\":7:18   */\n      lt\n        /* \"--CODEGEN--\":4:6   */\n      iszero\n      tag_360\n      jumpi\n        /* \"--CODEGEN--\":31:32   */\n      0x00\n        /* \"--CODEGEN--\":28:29   */\n      dup1\n        /* \"--CODEGEN--\":21:33   */\n      revert\n        /* \"--CODEGEN--\":4:6   */\n    tag_360:\n      pop\n        /* \"RamzSwapRouter.sol\":18831:18859  IRamzSwapPair(pair).mint(to) */\n      mload\n      swap3\n      pop\n        /* \"RamzSwapRouter.sol\":18909:18918  msg.value */\n      callvalue\n        /* \"RamzSwapRouter.sol\":18909:18931  msg.value > amountMAAL */\n      dup5\n      lt\n        /* \"RamzSwapRouter.sol\":18905:19000  if (msg.value > amountMAAL) TransferHelper.safeTransferMAAL(msg.sender, msg.value - amountMAAL) */\n      iszero\n      tag_362\n      jumpi\n        /* \"RamzSwapRouter.sol\":18933:19000  TransferHelper.safeTransferMAAL(msg.sender, msg.value - amountMAAL) */\n      tag_362\n        /* \"RamzSwapRouter.sol\":18965:18975  msg.sender */\n      caller\n        /* \"RamzSwapRouter.sol\":18989:18999  amountMAAL */\n      dup6\n        /* \"RamzSwapRouter.sol\":18977:18986  msg.value */\n      callvalue\n        /* \"RamzSwapRouter.sol\":18977:18999  msg.value - amountMAAL */\n      sub\n        /* \"RamzSwapRouter.sol\":18933:18964  TransferHelper.safeTransferMAAL */\n      tag_208\n        /* \"RamzSwapRouter.sol\":18933:19000  TransferHelper.safeTransferMAAL(msg.sender, msg.value - amountMAAL) */\n      jump\t// in\n    tag_362:\n        /* \"RamzSwapRouter.sol\":15657:15658  _ */\n      pop\n        /* \"RamzSwapRouter.sol\":18041:19007  function addLiquidityMAAL(... */\n      pop\n      swap7\n      pop\n      swap7\n      pop\n      swap7\n      swap4\n      pop\n      pop\n      pop\n      pop\n      jump\t// out\n        /* \"RamzSwapRouter.sol\":15497:15536  address public immutable override WMAAL */\n    tag_116:\n      immutable(\"0x139b5474829a1a438527d6f3b7cb075ea9353c362b5b7082a6a6627c27b040e8\")\n      dup2\n      jump\t// out\n        /* \"RamzSwapRouter.sol\":32760:33012  function getAmountIn(uint amountOut, uint reserveIn, uint reserveOut)... */\n    tag_120:\n        /* \"RamzSwapRouter.sol\":32908:32921  uint amountIn */\n      0x00\n        /* \"RamzSwapRouter.sol\":32944:33005  RamzSwapLibrary.getAmountIn(amountOut, reserveIn, reserveOut) */\n      tag_181\n        /* \"RamzSwapRouter.sol\":32972:32981  amountOut */\n      dup5\n        /* \"RamzSwapRouter.sol\":32983:32992  reserveIn */\n      dup5\n        /* \"RamzSwapRouter.sol\":32994:33004  reserveOut */\n      dup5\n        /* \"RamzSwapRouter.sol\":32944:32971  RamzSwapLibrary.getAmountIn */\n      tag_365\n        /* \"RamzSwapRouter.sol\":32944:33005  RamzSwapLibrary.getAmountIn(amountOut, reserveIn, reserveOut) */\n      jump\t// in\n        /* \"RamzSwapRouter.sol\":24821:25411  function swapTokensForExactTokens(... */\n    tag_127:\n        /* \"RamzSwapRouter.sol\":25039:25060  uint[] memory amounts */\n      0x60\n        /* \"RamzSwapRouter.sol\":25020:25028  deadline */\n      dup2\n        /* \"RamzSwapRouter.sol\":15604:15619  block.timestamp */\n      timestamp\n        /* \"RamzSwapRouter.sol\":15592:15600  deadline */\n      dup2\n        /* \"RamzSwapRouter.sol\":15592:15619  deadline >= block.timestamp */\n      lt\n      iszero\n        /* \"RamzSwapRouter.sol\":15584:15647  require(deadline >= block.timestamp, 'RamzSwapRouter: EXPIRED') */\n      tag_367\n      jumpi\n      0x40\n      dup1\n      mload\n      shl(0xe5, 0x461bcd)\n      dup2\n      mstore\n      0x20\n      0x04\n      dup3\n      add\n      mstore\n      0x17\n      0x24\n      dup3\n      add\n      mstore\n      0x00\n      dup1\n      mload\n      0x20\n      data_abe419f277ac6b272f0968a9f490f07eeccba4f306ed4de5548b5f8f76aeb85a\n      dup4\n      codecopy\n      dup2\n      mload\n      swap2\n      mstore\n      0x44\n      dup3\n      add\n      mstore\n      swap1\n      mload\n      swap1\n      dup2\n      swap1\n      sub\n      0x64\n      add\n      swap1\n      revert\n    tag_367:\n        /* \"RamzSwapRouter.sol\":25082:25136  RamzSwapLibrary.getAmountsIn(factory, amountOut, path) */\n      tag_369\n        /* \"RamzSwapRouter.sol\":25111:25118  factory */\n      immutable(\"0x173bb80bf7ae3dde444a25d8c84de4e84891034d416e0f0ffbc56cab6043ec24\")\n        /* \"RamzSwapRouter.sol\":25120:25129  amountOut */\n      dup10\n        /* \"RamzSwapRouter.sol\":25131:25135  path */\n      dup9\n      dup9\n        /* \"RamzSwapRouter.sol\":25082:25136  RamzSwapLibrary.getAmountsIn(factory, amountOut, path) */\n      dup1\n      dup1\n      0x20\n      mul\n      0x20\n      add\n      mload(0x40)\n      swap1\n      dup2\n      add\n      0x40\n      mstore\n      dup1\n      swap4\n      swap3\n      swap2\n      swap1\n      dup2\n      dup2\n      mstore\n      0x20\n      add\n      dup4\n      dup4\n      0x20\n      mul\n        /* \"--CODEGEN--\":30:33   */\n      dup1\n        /* \"--CODEGEN--\":22:28   */\n      dup3\n        /* \"--CODEGEN--\":14:20   */\n      dup5\n        /* \"--CODEGEN--\":1:34   */\n      calldatacopy\n        /* \"--CODEGEN--\":99:100   */\n      0x00\n        /* \"--CODEGEN--\":81:97   */\n      swap3\n      add\n        /* \"--CODEGEN--\":74:101   */\n      swap2\n      swap1\n      swap2\n      mstore\n      pop\n        /* \"RamzSwapRouter.sol\":25082:25110  RamzSwapLibrary.getAmountsIn */\n      tag_189\n      swap3\n      pop\n      pop\n      pop\n        /* \"RamzSwapRouter.sol\":25082:25136  RamzSwapLibrary.getAmountsIn(factory, amountOut, path) */\n      jump\t// in\n    tag_369:\n        /* \"RamzSwapRouter.sol\":25072:25136  amounts = RamzSwapLibrary.getAmountsIn(factory, amountOut, path) */\n      swap2\n      pop\n        /* \"RamzSwapRouter.sol\":25168:25179  amountInMax */\n      dup7\n        /* \"RamzSwapRouter.sol\":25154:25161  amounts */\n      dup3\n        /* \"RamzSwapRouter.sol\":25162:25163  0 */\n      0x00\n        /* \"RamzSwapRouter.sol\":25154:25164  amounts[0] */\n      dup2\n      mload\n      dup2\n      lt\n      tag_370\n      jumpi\n      invalid\n    tag_370:\n      0x20\n      mul\n      0x20\n      add\n      add\n      mload\n        /* \"RamzSwapRouter.sol\":25154:25179  amounts[0] <= amountInMax */\n      gt\n      iszero\n        /* \"RamzSwapRouter.sol\":25146:25222  require(amounts[0] <= amountInMax, 'RamzSwapRouter: EXCESSIVE_INPUT_AMOUNT') */\n      tag_264\n      jumpi\n      mload(0x40)\n      shl(0xe5, 0x461bcd)\n      dup2\n      mstore\n      0x04\n      add\n      dup1\n      dup1\n      0x20\n      add\n      dup3\n      dup2\n      sub\n      dup3\n      mstore\n      0x26\n      dup2\n      mstore\n      0x20\n      add\n      dup1\n      data_5e897f34b03c6c0a30277e01a5a4f60eb9482a487ba0f763282084ccb4259511\n      0x26\n      swap2\n      codecopy\n      0x40\n      add\n      swap2\n      pop\n      pop\n      mload(0x40)\n      dup1\n      swap2\n      sub\n      swap1\n      revert\n        /* \"RamzSwapRouter.sol\":32310:32495  function quote(uint amountA, uint reserveA, uint reserveB) public pure virtual override returns (uint amountB) {... */\n    tag_134:\n        /* \"RamzSwapRouter.sol\":32407:32419  uint amountB */\n      0x00\n        /* \"RamzSwapRouter.sol\":32438:32488  RamzSwapLibrary.quote(amountA, reserveA, reserveB) */\n      tag_181\n        /* \"RamzSwapRouter.sol\":32460:32467  amountA */\n      dup5\n        /* \"RamzSwapRouter.sol\":32469:32477  reserveA */\n      dup5\n        /* \"RamzSwapRouter.sol\":32479:32487  reserveB */\n      dup5\n        /* \"RamzSwapRouter.sol\":32438:32459  RamzSwapLibrary.quote */\n      tag_381\n        /* \"RamzSwapRouter.sol\":32438:32488  RamzSwapLibrary.quote(amountA, reserveA, reserveB) */\n      jump\t// in\n        /* \"RamzSwapRouter.sol\":19047:19890  function removeLiquidity(... */\n    tag_138:\n        /* \"RamzSwapRouter.sol\":19293:19305  uint amountA */\n      0x00\n        /* \"RamzSwapRouter.sol\":19307:19319  uint amountB */\n      dup1\n        /* \"RamzSwapRouter.sol\":19274:19282  deadline */\n      dup3\n        /* \"RamzSwapRouter.sol\":15604:15619  block.timestamp */\n      timestamp\n        /* \"RamzSwapRouter.sol\":15592:15600  deadline */\n      dup2\n        /* \"RamzSwapRouter.sol\":15592:15619  deadline >= block.timestamp */\n      lt\n      iszero\n        /* \"RamzSwapRouter.sol\":15584:15647  require(deadline >= block.timestamp, 'RamzSwapRouter: EXPIRED') */\n      tag_383\n      jumpi\n      0x40\n      dup1\n      mload\n      shl(0xe5, 0x461bcd)\n      dup2\n      mstore\n      0x20\n      0x04\n      dup3\n      add\n      mstore\n      0x17\n      0x24\n      dup3\n      add\n      mstore\n      0x00\n      dup1\n      mload\n      0x20\n      data_abe419f277ac6b272f0968a9f490f07eeccba4f306ed4de5548b5f8f76aeb85a\n      dup4\n      codecopy\n      dup2\n      mload\n      swap2\n      mstore\n      0x44\n      dup3\n      add\n      mstore\n      swap1\n      mload\n      swap1\n      dup2\n      swap1\n      sub\n      0x64\n      add\n      swap1\n      revert\n    tag_383:\n        /* \"RamzSwapRouter.sol\":19331:19343  address pair */\n      0x00\n        /* \"RamzSwapRouter.sol\":19346:19394  RamzSwapLibrary.pairFor(factory, tokenA, tokenB) */\n      tag_385\n        /* \"RamzSwapRouter.sol\":19370:19377  factory */\n      immutable(\"0x173bb80bf7ae3dde444a25d8c84de4e84891034d416e0f0ffbc56cab6043ec24\")\n        /* \"RamzSwapRouter.sol\":19379:19385  tokenA */\n      dup13\n        /* \"RamzSwapRouter.sol\":19387:19393  tokenB */\n      dup13\n        /* \"RamzSwapRouter.sol\":19346:19369  RamzSwapLibrary.pairFor */\n      tag_197\n        /* \"RamzSwapRouter.sol\":19346:19394  RamzSwapLibrary.pairFor(factory, tokenA, tokenB) */\n      jump\t// in\n    tag_385:\n        /* \"RamzSwapRouter.sol\":19404:19465  IRamzSwapPair(pair).transferFrom(msg.sender, pair, liquidity) */\n      0x40\n      dup1\n      mload\n      shl(0xe0, 0x23b872dd)\n      dup2\n      mstore\n        /* \"RamzSwapRouter.sol\":19437:19447  msg.sender */\n      caller\n        /* \"RamzSwapRouter.sol\":19404:19465  IRamzSwapPair(pair).transferFrom(msg.sender, pair, liquidity) */\n      0x04\n      dup3\n      add\n      mstore\n      sub(shl(0xa0, 0x01), 0x01)\n        /* \"RamzSwapRouter.sol\":19404:19436  IRamzSwapPair(pair).transferFrom */\n      dup4\n      and\n        /* \"RamzSwapRouter.sol\":19404:19465  IRamzSwapPair(pair).transferFrom(msg.sender, pair, liquidity) */\n      0x24\n      dup3\n      add\n      dup2\n      swap1\n      mstore\n      0x44\n      dup3\n      add\n      dup14\n      swap1\n      mstore\n      swap2\n      mload\n        /* \"RamzSwapRouter.sol\":19331:19394  address pair = RamzSwapLibrary.pairFor(factory, tokenA, tokenB) */\n      swap3\n      swap4\n      pop\n        /* \"RamzSwapRouter.sol\":19404:19436  IRamzSwapPair(pair).transferFrom */\n      swap1\n      swap2\n      0x23b872dd\n      swap2\n        /* \"RamzSwapRouter.sol\":19404:19465  IRamzSwapPair(pair).transferFrom(msg.sender, pair, liquidity) */\n      0x64\n      dup1\n      dup3\n      add\n      swap3\n      0x20\n      swap3\n      swap1\n      swap2\n      swap1\n      dup3\n      swap1\n      sub\n      add\n      dup2\n      0x00\n        /* \"RamzSwapRouter.sol\":19404:19436  IRamzSwapPair(pair).transferFrom */\n      dup8\n        /* \"RamzSwapRouter.sol\":19404:19465  IRamzSwapPair(pair).transferFrom(msg.sender, pair, liquidity) */\n      dup1\n      extcodesize\n      iszero\n        /* \"--CODEGEN--\":2:4   */\n      dup1\n      iszero\n      tag_386\n      jumpi\n        /* \"--CODEGEN--\":27:28   */\n      0x00\n        /* \"--CODEGEN--\":24:25   */\n      dup1\n        /* \"--CODEGEN--\":17:29   */\n      revert\n        /* \"--CODEGEN--\":2:4   */\n    tag_386:\n        /* \"RamzSwapRouter.sol\":19404:19465  IRamzSwapPair(pair).transferFrom(msg.sender, pair, liquidity) */\n      pop\n      gas\n      call\n      iszero\n        /* \"--CODEGEN--\":8:17   */\n      dup1\n        /* \"--CODEGEN--\":5:7   */\n      iszero\n      tag_388\n      jumpi\n        /* \"--CODEGEN--\":45:61   */\n      returndatasize\n        /* \"--CODEGEN--\":42:43   */\n      0x00\n        /* \"--CODEGEN--\":39:40   */\n      dup1\n        /* \"--CODEGEN--\":24:62   */\n      returndatacopy\n        /* \"--CODEGEN--\":77:93   */\n      returndatasize\n        /* \"--CODEGEN--\":74:75   */\n      0x00\n        /* \"--CODEGEN--\":67:94   */\n      revert\n        /* \"--CODEGEN--\":5:7   */\n    tag_388:\n        /* \"RamzSwapRouter.sol\":19404:19465  IRamzSwapPair(pair).transferFrom(msg.sender, pair, liquidity) */\n      pop\n      pop\n      pop\n      pop\n      mload(0x40)\n      returndatasize\n        /* \"--CODEGEN--\":15:17   */\n      0x20\n        /* \"--CODEGEN--\":10:13   */\n      dup2\n        /* \"--CODEGEN--\":7:18   */\n      lt\n        /* \"--CODEGEN--\":4:6   */\n      iszero\n      tag_389\n      jumpi\n        /* \"--CODEGEN--\":31:32   */\n      0x00\n        /* \"--CODEGEN--\":28:29   */\n      dup1\n        /* \"--CODEGEN--\":21:33   */\n      revert\n        /* \"--CODEGEN--\":4:6   */\n    tag_389:\n      pop\n      pop\n        /* \"RamzSwapRouter.sol\":19532:19560  IRamzSwapPair(pair).burn(to) */\n      0x40\n      dup1\n      mload\n      shl(0xe2, 0x226bf2d1)\n      dup2\n      mstore\n      sub(shl(0xa0, 0x01), 0x01)\n      dup9\n      dup2\n      and\n      0x04\n      dup4\n      add\n      mstore\n      dup3\n      mload\n        /* \"RamzSwapRouter.sol\":19502:19514  uint amount0 */\n      0x00\n      swap4\n      dup5\n      swap4\n        /* \"RamzSwapRouter.sol\":19532:19556  IRamzSwapPair(pair).burn */\n      swap3\n      dup7\n      and\n      swap3\n      0x89afcb44\n      swap3\n        /* \"RamzSwapRouter.sol\":19532:19560  IRamzSwapPair(pair).burn(to) */\n      0x24\n      dup1\n      dup4\n      add\n      swap4\n      swap3\n      dup3\n      swap1\n      sub\n      add\n      dup2\n        /* \"RamzSwapRouter.sol\":19502:19514  uint amount0 */\n      dup8\n        /* \"RamzSwapRouter.sol\":19532:19556  IRamzSwapPair(pair).burn */\n      dup8\n        /* \"RamzSwapRouter.sol\":19532:19560  IRamzSwapPair(pair).burn(to) */\n      dup1\n      extcodesize\n      iszero\n        /* \"--CODEGEN--\":2:4   */\n      dup1\n      iszero\n      tag_390\n      jumpi\n        /* \"--CODEGEN--\":27:28   */\n      0x00\n        /* \"--CODEGEN--\":24:25   */\n      dup1\n        /* \"--CODEGEN--\":17:29   */\n      revert\n        /* \"--CODEGEN--\":2:4   */\n    tag_390:\n        /* \"RamzSwapRouter.sol\":19532:19560  IRamzSwapPair(pair).burn(to) */\n      pop\n      gas\n      call\n      iszero\n        /* \"--CODEGEN--\":8:17   */\n      dup1\n        /* \"--CODEGEN--\":5:7   */\n      iszero\n      tag_392\n      jumpi\n        /* \"--CODEGEN--\":45:61   */\n      returndatasize\n        /* \"--CODEGEN--\":42:43   */\n      0x00\n        /* \"--CODEGEN--\":39:40   */\n      dup1\n        /* \"--CODEGEN--\":24:62   */\n      returndatacopy\n        /* \"--CODEGEN--\":77:93   */\n      returndatasize\n        /* \"--CODEGEN--\":74:75   */\n      0x00\n        /* \"--CODEGEN--\":67:94   */\n      revert\n        /* \"--CODEGEN--\":5:7   */\n    tag_392:\n        /* \"RamzSwapRouter.sol\":19532:19560  IRamzSwapPair(pair).burn(to) */\n      pop\n      pop\n      pop\n      pop\n      mload(0x40)\n      returndatasize\n        /* \"--CODEGEN--\":15:17   */\n      0x40\n        /* \"--CODEGEN--\":10:13   */\n      dup2\n        /* \"--CODEGEN--\":7:18   */\n      lt\n        /* \"--CODEGEN--\":4:6   */\n      iszero\n      tag_393\n      jumpi\n        /* \"--CODEGEN--\":31:32   */\n      0x00\n        /* \"--CODEGEN--\":28:29   */\n      dup1\n        /* \"--CODEGEN--\":21:33   */\n      revert\n        /* \"--CODEGEN--\":4:6   */\n    tag_393:\n      pop\n        /* \"RamzSwapRouter.sol\":19532:19560  IRamzSwapPair(pair).burn(to) */\n      dup1\n      mload\n      0x20\n      swap1\n      swap2\n      add\n      mload\n      swap1\n      swap3\n      pop\n      swap1\n      pop\n        /* \"RamzSwapRouter.sol\":19571:19585  address token0 */\n      0x00\n        /* \"RamzSwapRouter.sol\":19590:19632  RamzSwapLibrary.sortTokens(tokenA, tokenB) */\n      tag_394\n        /* \"RamzSwapRouter.sol\":19617:19623  tokenA */\n      dup15\n        /* \"RamzSwapRouter.sol\":19625:19631  tokenB */\n      dup15\n        /* \"RamzSwapRouter.sol\":19590:19616  RamzSwapLibrary.sortTokens */\n      tag_395\n        /* \"RamzSwapRouter.sol\":19590:19632  RamzSwapLibrary.sortTokens(tokenA, tokenB) */\n      jump\t// in\n    tag_394:\n        /* \"RamzSwapRouter.sol\":19570:19632  (address token0,) = RamzSwapLibrary.sortTokens(tokenA, tokenB) */\n      pop\n      swap1\n      pop\n        /* \"RamzSwapRouter.sol\":19673:19679  token0 */\n      dup1\n      sub(shl(0xa0, 0x01), 0x01)\n        /* \"RamzSwapRouter.sol\":19663:19679  tokenA == token0 */\n      and\n        /* \"RamzSwapRouter.sol\":19663:19669  tokenA */\n      dup15\n      sub(shl(0xa0, 0x01), 0x01)\n        /* \"RamzSwapRouter.sol\":19663:19679  tokenA == token0 */\n      and\n      eq\n        /* \"RamzSwapRouter.sol\":19663:19721  tokenA == token0 ? (amount0, amount1) : (amount1, amount0) */\n      tag_396\n      jumpi\n        /* \"RamzSwapRouter.sol\":19704:19711  amount1 */\n      dup2\n        /* \"RamzSwapRouter.sol\":19713:19720  amount0 */\n      dup4\n        /* \"RamzSwapRouter.sol\":19663:19721  tokenA == token0 ? (amount0, amount1) : (amount1, amount0) */\n      jump(tag_397)\n    tag_396:\n        /* \"RamzSwapRouter.sol\":19683:19690  amount0 */\n      dup3\n        /* \"RamzSwapRouter.sol\":19692:19699  amount1 */\n      dup3\n        /* \"RamzSwapRouter.sol\":19663:19721  tokenA == token0 ? (amount0, amount1) : (amount1, amount0) */\n    tag_397:\n        /* \"RamzSwapRouter.sol\":19642:19721  (amountA, amountB) = tokenA == token0 ? (amount0, amount1) : (amount1, amount0) */\n      swap1\n      swap8\n      pop\n      swap6\n      pop\n        /* \"RamzSwapRouter.sol\":19739:19760  amountA >= amountAMin */\n      dup11\n      dup8\n      lt\n      iszero\n        /* \"RamzSwapRouter.sol\":19731:19802  require(amountA >= amountAMin, 'RamzSwapRouter: INSUFFICIENT_A_AMOUNT') */\n      tag_398\n      jumpi\n      mload(0x40)\n      shl(0xe5, 0x461bcd)\n      dup2\n      mstore\n      0x04\n      add\n      dup1\n      dup1\n      0x20\n      add\n      dup3\n      dup2\n      sub\n      dup3\n      mstore\n      0x25\n      dup2\n      mstore\n      0x20\n      add\n      dup1\n      data_d045037e664e0d3d8422ec04d5b3e5b23da316f1ecf642071d33771461071307\n      0x25\n      swap2\n      codecopy\n      0x40\n      add\n      swap2\n      pop\n      pop\n      mload(0x40)\n      dup1\n      swap2\n      sub\n      swap1\n      revert\n    tag_398:\n        /* \"RamzSwapRouter.sol\":19831:19841  amountBMin */\n      dup10\n        /* \"RamzSwapRouter.sol\":19820:19827  amountB */\n      dup7\n        /* \"RamzSwapRouter.sol\":19820:19841  amountB >= amountBMin */\n      lt\n      iszero\n        /* \"RamzSwapRouter.sol\":19812:19883  require(amountB >= amountBMin, 'RamzSwapRouter: INSUFFICIENT_B_AMOUNT') */\n      tag_399\n      jumpi\n      mload(0x40)\n      shl(0xe5, 0x461bcd)\n      dup2\n      mstore\n      0x04\n      add\n      dup1\n      dup1\n      0x20\n      add\n      dup3\n      dup2\n      sub\n      dup3\n      mstore\n      0x25\n      dup2\n      mstore\n      0x20\n      add\n      dup1\n      data_32056ae2c16675a1d24b9743904d1b5df1f95f447fbf7ff51f2857e09b63391a\n      0x25\n      swap2\n      codecopy\n      0x40\n      add\n      swap2\n      pop\n      pop\n      mload(0x40)\n      dup1\n      swap2\n      sub\n      swap1\n      revert\n    tag_399:\n        /* \"RamzSwapRouter.sol\":15657:15658  _ */\n      pop\n      pop\n      pop\n      pop\n        /* \"RamzSwapRouter.sol\":19047:19890  function removeLiquidity(... */\n      pop\n      swap8\n      pop\n      swap8\n      swap6\n      pop\n      pop\n      pop\n      pop\n      pop\n      pop\n      jump\t// out\n        /* \"RamzSwapRouter.sol\":21230:21891  function removeLiquidityMAALWithPermit(... */\n    tag_142:\n        /* \"RamzSwapRouter.sol\":21513:21529  uint amountToken */\n      0x00\n        /* \"RamzSwapRouter.sol\":21531:21546  uint amountMAAL */\n      dup1\n        /* \"RamzSwapRouter.sol\":21558:21570  address pair */\n      0x00\n        /* \"RamzSwapRouter.sol\":21573:21619  RamzSwapLibrary.pairFor(factory, token, WMAAL) */\n      tag_401\n        /* \"RamzSwapRouter.sol\":21597:21604  factory */\n      immutable(\"0x173bb80bf7ae3dde444a25d8c84de4e84891034d416e0f0ffbc56cab6043ec24\")\n        /* \"RamzSwapRouter.sol\":21606:21611  token */\n      dup15\n        /* \"RamzSwapRouter.sol\":21613:21618  WMAAL */\n      immutable(\"0x139b5474829a1a438527d6f3b7cb075ea9353c362b5b7082a6a6627c27b040e8\")\n        /* \"RamzSwapRouter.sol\":21573:21596  RamzSwapLibrary.pairFor */\n      tag_197\n        /* \"RamzSwapRouter.sol\":21573:21619  RamzSwapLibrary.pairFor(factory, token, WMAAL) */\n      jump\t// in\n    tag_401:\n        /* \"RamzSwapRouter.sol\":21558:21619  address pair = RamzSwapLibrary.pairFor(factory, token, WMAAL) */\n      swap1\n      pop\n        /* \"RamzSwapRouter.sol\":21629:21639  uint value */\n      0x00\n        /* \"RamzSwapRouter.sol\":21642:21652  approveMax */\n      dup8\n        /* \"RamzSwapRouter.sol\":21642:21675  approveMax ? uint(-1) : liquidity */\n      tag_402\n      jumpi\n        /* \"RamzSwapRouter.sol\":21666:21675  liquidity */\n      dup13\n        /* \"RamzSwapRouter.sol\":21642:21675  approveMax ? uint(-1) : liquidity */\n      jump(tag_403)\n    tag_402:\n      not(0x00)\n    tag_403:\n        /* \"RamzSwapRouter.sol\":21685:21764  IRamzSwapPair(pair).permit(msg.sender, address(this), value, deadline, v, r, s) */\n      0x40\n      dup1\n      mload\n      shl(0xe0, 0xd505accf)\n      dup2\n      mstore\n        /* \"RamzSwapRouter.sol\":21712:21722  msg.sender */\n      caller\n        /* \"RamzSwapRouter.sol\":21685:21764  IRamzSwapPair(pair).permit(msg.sender, address(this), value, deadline, v, r, s) */\n      0x04\n      dup3\n      add\n      mstore\n        /* \"RamzSwapRouter.sol\":21732:21736  this */\n      address\n        /* \"RamzSwapRouter.sol\":21685:21764  IRamzSwapPair(pair).permit(msg.sender, address(this), value, deadline, v, r, s) */\n      0x24\n      dup3\n      add\n      mstore\n      0x44\n      dup2\n      add\n      dup4\n      swap1\n      mstore\n      0x64\n      dup2\n      add\n      dup13\n      swap1\n      mstore\n      0xff\n      dup11\n      and\n      0x84\n      dup3\n      add\n      mstore\n      0xa4\n      dup2\n      add\n      dup10\n      swap1\n      mstore\n      0xc4\n      dup2\n      add\n      dup9\n      swap1\n      mstore\n      swap1\n      mload\n        /* \"RamzSwapRouter.sol\":21629:21675  uint value = approveMax ? uint(-1) : liquidity */\n      swap2\n      swap3\n      pop\n      sub(shl(0xa0, 0x01), 0x01)\n        /* \"RamzSwapRouter.sol\":21685:21711  IRamzSwapPair(pair).permit */\n      dup5\n      and\n      swap2\n      0xd505accf\n      swap2\n        /* \"RamzSwapRouter.sol\":21685:21764  IRamzSwapPair(pair).permit(msg.sender, address(this), value, deadline, v, r, s) */\n      0xe4\n      dup1\n      dup3\n      add\n      swap3\n      0x00\n      swap3\n      swap1\n      swap2\n      swap1\n      dup3\n      swap1\n      sub\n      add\n      dup2\n      dup4\n        /* \"RamzSwapRouter.sol\":21685:21711  IRamzSwapPair(pair).permit */\n      dup8\n        /* \"RamzSwapRouter.sol\":21685:21764  IRamzSwapPair(pair).permit(msg.sender, address(this), value, deadline, v, r, s) */\n      dup1\n      extcodesize\n      iszero\n        /* \"--CODEGEN--\":2:4   */\n      dup1\n      iszero\n      tag_404\n      jumpi\n        /* \"--CODEGEN--\":27:28   */\n      0x00\n        /* \"--CODEGEN--\":24:25   */\n      dup1\n        /* \"--CODEGEN--\":17:29   */\n      revert\n        /* \"--CODEGEN--\":2:4   */\n    tag_404:\n        /* \"RamzSwapRouter.sol\":21685:21764  IRamzSwapPair(pair).permit(msg.sender, address(this), value, deadline, v, r, s) */\n      pop\n      gas\n      call\n      iszero\n        /* \"--CODEGEN--\":8:17   */\n      dup1\n        /* \"--CODEGEN--\":5:7   */\n      iszero\n      tag_406\n      jumpi\n        /* \"--CODEGEN--\":45:61   */\n      returndatasize\n        /* \"--CODEGEN--\":42:43   */\n      0x00\n        /* \"--CODEGEN--\":39:40   */\n      dup1\n        /* \"--CODEGEN--\":24:62   */\n      returndatacopy\n        /* \"--CODEGEN--\":77:93   */\n      returndatasize\n        /* \"--CODEGEN--\":74:75   */\n      0x00\n        /* \"--CODEGEN--\":67:94   */\n      revert\n        /* \"--CODEGEN--\":5:7   */\n    tag_406:\n        /* \"RamzSwapRouter.sol\":21685:21764  IRamzSwapPair(pair).permit(msg.sender, address(this), value, deadline, v, r, s) */\n      pop\n      pop\n      pop\n      pop\n        /* \"RamzSwapRouter.sol\":21802:21884  removeLiquidityMAAL(token, liquidity, amountTokenMin, amountMAALMin, to, deadline) */\n      tag_407\n        /* \"RamzSwapRouter.sol\":21822:21827  token */\n      dup15\n        /* \"RamzSwapRouter.sol\":21829:21838  liquidity */\n      dup15\n        /* \"RamzSwapRouter.sol\":21840:21854  amountTokenMin */\n      dup15\n        /* \"RamzSwapRouter.sol\":21856:21869  amountMAALMin */\n      dup15\n        /* \"RamzSwapRouter.sol\":21871:21873  to */\n      dup15\n        /* \"RamzSwapRouter.sol\":21875:21883  deadline */\n      dup15\n        /* \"RamzSwapRouter.sol\":21802:21821  removeLiquidityMAAL */\n      tag_68\n        /* \"RamzSwapRouter.sol\":21802:21884  removeLiquidityMAAL(token, liquidity, amountTokenMin, amountMAALMin, to, deadline) */\n      jump\t// in\n    tag_407:\n        /* \"RamzSwapRouter.sol\":21774:21884  (amountToken, amountMAAL) = removeLiquidityMAAL(token, liquidity, amountTokenMin, amountMAALMin, to, deadline) */\n      swap1\n      swap16\n      swap1\n      swap15\n      pop\n        /* \"RamzSwapRouter.sol\":21230:21891  function removeLiquidityMAALWithPermit(... */\n      swap13\n      pop\n      pop\n      pop\n      pop\n      pop\n      pop\n      pop\n      pop\n      pop\n      pop\n      pop\n      pop\n      pop\n      jump\t// out\n        /* \"RamzSwapRouter.sol\":15450:15491  address public immutable override factory */\n    tag_145:\n      immutable(\"0x173bb80bf7ae3dde444a25d8c84de4e84891034d416e0f0ffbc56cab6043ec24\")\n      dup2\n      jump\t// out\n        /* \"RamzSwapRouter.sol\":26924:27759  function swapExactTokensForMAAL(uint amountIn, uint amountOutMin, address[] calldata path, address to, uint deadline)... */\n    tag_152:\n        /* \"RamzSwapRouter.sol\":27134:27155  uint[] memory amounts */\n      0x60\n        /* \"RamzSwapRouter.sol\":27107:27115  deadline */\n      dup2\n        /* \"RamzSwapRouter.sol\":15604:15619  block.timestamp */\n      timestamp\n        /* \"RamzSwapRouter.sol\":15592:15600  deadline */\n      dup2\n        /* \"RamzSwapRouter.sol\":15592:15619  deadline >= block.timestamp */\n      lt\n      iszero\n        /* \"RamzSwapRouter.sol\":15584:15647  require(deadline >= block.timestamp, 'RamzSwapRouter: EXPIRED') */\n      tag_409\n      jumpi\n      0x40\n      dup1\n      mload\n      shl(0xe5, 0x461bcd)\n      dup2\n      mstore\n      0x20\n      0x04\n      dup3\n      add\n      mstore\n      0x17\n      0x24\n      dup3\n      add\n      mstore\n      0x00\n      dup1\n      mload\n      0x20\n      data_abe419f277ac6b272f0968a9f490f07eeccba4f306ed4de5548b5f8f76aeb85a\n      dup4\n      codecopy\n      dup2\n      mload\n      swap2\n      mstore\n      0x44\n      dup3\n      add\n      mstore\n      swap1\n      mload\n      swap1\n      dup2\n      swap1\n      sub\n      0x64\n      add\n      swap1\n      revert\n    tag_409:\n      sub(shl(0xa0, 0x01), 0x01)\n        /* \"RamzSwapRouter.sol\":27204:27209  WMAAL */\n      immutable(\"0x139b5474829a1a438527d6f3b7cb075ea9353c362b5b7082a6a6627c27b040e8\")\n        /* \"RamzSwapRouter.sol\":27179:27209  path[path.length - 1] == WMAAL */\n      and\n        /* \"RamzSwapRouter.sol\":27179:27183  path */\n      dup7\n      dup7\n      not(0x00)\n        /* \"RamzSwapRouter.sol\":27184:27199  path.length - 1 */\n      dup2\n      add\n        /* \"RamzSwapRouter.sol\":27179:27200  path[path.length - 1] */\n      dup2\n      dup2\n      lt\n      tag_411\n      jumpi\n      invalid\n    tag_411:\n      swap1\n      pop\n      0x20\n      mul\n      add\n      calldataload\n      sub(shl(0xa0, 0x01), 0x01)\n      and\n      sub(shl(0xa0, 0x01), 0x01)\n        /* \"RamzSwapRouter.sol\":27179:27209  path[path.length - 1] == WMAAL */\n      and\n      eq\n        /* \"RamzSwapRouter.sol\":27171:27242  require(path[path.length - 1] == WMAAL, 'RamzSwapRouter: INVALID_PATH') */\n      tag_412\n      jumpi\n      0x40\n      dup1\n      mload\n      shl(0xe5, 0x461bcd)\n      dup2\n      mstore\n      0x20\n      0x04\n      dup3\n      add\n      mstore\n      0x1c\n      0x24\n      dup3\n      add\n      mstore\n      0x00\n      dup1\n      mload\n      0x20\n      data_a3f1373089ee7b4837b906391b8993e750ecc2d2c744f3f58b38560998fe2d12\n      dup4\n      codecopy\n      dup2\n      mload\n      swap2\n      mstore\n      0x44\n      dup3\n      add\n      mstore\n      swap1\n      mload\n      swap1\n      dup2\n      swap1\n      sub\n      0x64\n      add\n      swap1\n      revert\n    tag_412:\n        /* \"RamzSwapRouter.sol\":27262:27316  RamzSwapLibrary.getAmountsOut(factory, amountIn, path) */\n      tag_413\n        /* \"RamzSwapRouter.sol\":27292:27299  factory */\n      immutable(\"0x173bb80bf7ae3dde444a25d8c84de4e84891034d416e0f0ffbc56cab6043ec24\")\n        /* \"RamzSwapRouter.sol\":27301:27309  amountIn */\n      dup10\n        /* \"RamzSwapRouter.sol\":27311:27315  path */\n      dup9\n      dup9\n        /* \"RamzSwapRouter.sol\":27262:27316  RamzSwapLibrary.getAmountsOut(factory, amountIn, path) */\n      dup1\n      dup1\n      0x20\n      mul\n      0x20\n      add\n      mload(0x40)\n      swap1\n      dup2\n      add\n      0x40\n      mstore\n      dup1\n      swap4\n      swap3\n      swap2\n      swap1\n      dup2\n      dup2\n      mstore\n      0x20\n      add\n      dup4\n      dup4\n      0x20\n      mul\n        /* \"--CODEGEN--\":30:33   */\n      dup1\n        /* \"--CODEGEN--\":22:28   */\n      dup3\n        /* \"--CODEGEN--\":14:20   */\n      dup5\n        /* \"--CODEGEN--\":1:34   */\n      calldatacopy\n        /* \"--CODEGEN--\":99:100   */\n      0x00\n        /* \"--CODEGEN--\":81:97   */\n      swap3\n      add\n        /* \"--CODEGEN--\":74:101   */\n      swap2\n      swap1\n      swap2\n      mstore\n      pop\n        /* \"RamzSwapRouter.sol\":27262:27291  RamzSwapLibrary.getAmountsOut */\n      tag_262\n      swap3\n      pop\n      pop\n      pop\n        /* \"RamzSwapRouter.sol\":27262:27316  RamzSwapLibrary.getAmountsOut(factory, amountIn, path) */\n      jump\t// in\n    tag_413:\n        /* \"RamzSwapRouter.sol\":27252:27316  amounts = RamzSwapLibrary.getAmountsOut(factory, amountIn, path) */\n      swap2\n      pop\n        /* \"RamzSwapRouter.sol\":27365:27377  amountOutMin */\n      dup7\n        /* \"RamzSwapRouter.sol\":27334:27341  amounts */\n      dup3\n        /* \"RamzSwapRouter.sol\":27359:27360  1 */\n      0x01\n        /* \"RamzSwapRouter.sol\":27342:27349  amounts */\n      dup5\n        /* \"RamzSwapRouter.sol\":27342:27356  amounts.length */\n      mload\n        /* \"RamzSwapRouter.sol\":27342:27360  amounts.length - 1 */\n      sub\n        /* \"RamzSwapRouter.sol\":27334:27361  amounts[amounts.length - 1] */\n      dup2\n      mload\n      dup2\n      lt\n      tag_414\n      jumpi\n      invalid\n    tag_414:\n      0x20\n      mul\n      0x20\n      add\n      add\n      mload\n        /* \"RamzSwapRouter.sol\":27334:27377  amounts[amounts.length - 1] >= amountOutMin */\n      lt\n      iszero\n        /* \"RamzSwapRouter.sol\":27326:27424  require(amounts[amounts.length - 1] >= amountOutMin, 'RamzSwapRouter: INSUFFICIENT_OUTPUT_AMOUNT') */\n      tag_191\n      jumpi\n      mload(0x40)\n      shl(0xe5, 0x461bcd)\n      dup2\n      mstore\n      0x04\n      add\n      dup1\n      dup1\n      0x20\n      add\n      dup3\n      dup2\n      sub\n      dup3\n      mstore\n      0x2a\n      dup2\n      mstore\n      0x20\n      add\n      dup1\n      data_92bed72301af54fb94c0614e27e3644454feb1e53de0a0abd95beca76cd63fa9\n      0x2a\n      swap2\n      codecopy\n      0x40\n      add\n      swap2\n      pop\n      pop\n      mload(0x40)\n      dup1\n      swap2\n      sub\n      swap1\n      revert\n        /* \"RamzSwapRouter.sol\":33018:33262  function getAmountsOut(uint amountIn, address[] memory path)... */\n    tag_162:\n        /* \"RamzSwapRouter.sol\":33157:33178  uint[] memory amounts */\n      0x60\n        /* \"RamzSwapRouter.sol\":33201:33255  RamzSwapLibrary.getAmountsOut(factory, amountIn, path) */\n      tag_210\n        /* \"RamzSwapRouter.sol\":33231:33238  factory */\n      immutable(\"0x173bb80bf7ae3dde444a25d8c84de4e84891034d416e0f0ffbc56cab6043ec24\")\n        /* \"RamzSwapRouter.sol\":33240:33248  amountIn */\n      dup5\n        /* \"RamzSwapRouter.sol\":33250:33254  path */\n      dup5\n        /* \"RamzSwapRouter.sol\":33201:33230  RamzSwapLibrary.getAmountsOut */\n      tag_262\n        /* \"RamzSwapRouter.sol\":33201:33255  RamzSwapLibrary.getAmountsOut(factory, amountIn, path) */\n      jump\t// in\n        /* \"RamzSwapRouter.sol\":30605:31438  function swapExactMAALForTokensSupportingFeeOnTransferTokens(... */\n    tag_171:\n        /* \"RamzSwapRouter.sol\":30856:30864  deadline */\n      dup1\n        /* \"RamzSwapRouter.sol\":15604:15619  block.timestamp */\n      timestamp\n        /* \"RamzSwapRouter.sol\":15592:15600  deadline */\n      dup2\n        /* \"RamzSwapRouter.sol\":15592:15619  deadline >= block.timestamp */\n      lt\n      iszero\n        /* \"RamzSwapRouter.sol\":15584:15647  require(deadline >= block.timestamp, 'RamzSwapRouter: EXPIRED') */\n      tag_432\n      jumpi\n      0x40\n      dup1\n      mload\n      shl(0xe5, 0x461bcd)\n      dup2\n      mstore\n      0x20\n      0x04\n      dup3\n      add\n      mstore\n      0x17\n      0x24\n      dup3\n      add\n      mstore\n      0x00\n      dup1\n      mload\n      0x20\n      data_abe419f277ac6b272f0968a9f490f07eeccba4f306ed4de5548b5f8f76aeb85a\n      dup4\n      codecopy\n      dup2\n      mload\n      swap2\n      mstore\n      0x44\n      dup3\n      add\n      mstore\n      swap1\n      mload\n      swap1\n      dup2\n      swap1\n      sub\n      0x64\n      add\n      swap1\n      revert\n    tag_432:\n        /* \"RamzSwapRouter.sol\":30899:30904  WMAAL */\n      immutable(\"0x139b5474829a1a438527d6f3b7cb075ea9353c362b5b7082a6a6627c27b040e8\")\n      sub(shl(0xa0, 0x01), 0x01)\n        /* \"RamzSwapRouter.sol\":30888:30904  path[0] == WMAAL */\n      and\n        /* \"RamzSwapRouter.sol\":30888:30892  path */\n      dup6\n      dup6\n        /* \"RamzSwapRouter.sol\":30893:30894  0 */\n      0x00\n        /* \"RamzSwapRouter.sol\":30888:30895  path[0] */\n      dup2\n      dup2\n      lt\n      tag_434\n      jumpi\n      invalid\n    tag_434:\n      swap1\n      pop\n      0x20\n      mul\n      add\n      calldataload\n      sub(shl(0xa0, 0x01), 0x01)\n      and\n      sub(shl(0xa0, 0x01), 0x01)\n        /* \"RamzSwapRouter.sol\":30888:30904  path[0] == WMAAL */\n      and\n      eq\n        /* \"RamzSwapRouter.sol\":30880:30937  require(path[0] == WMAAL, 'RamzSwapRouter: INVALID_PATH') */\n      tag_435\n      jumpi\n      0x40\n      dup1\n      mload\n      shl(0xe5, 0x461bcd)\n      dup2\n      mstore\n      0x20\n      0x04\n      dup3\n      add\n      mstore\n      0x1c\n      0x24\n      dup3\n      add\n      mstore\n      0x00\n      dup1\n      mload\n      0x20\n      data_a3f1373089ee7b4837b906391b8993e750ecc2d2c744f3f58b38560998fe2d12\n      dup4\n      codecopy\n      dup2\n      mload\n      swap2\n      mstore\n      0x44\n      dup3\n      add\n      mstore\n      swap1\n      mload\n      swap1\n      dup2\n      swap1\n      sub\n      0x64\n      add\n      swap1\n      revert\n    tag_435:\n        /* \"RamzSwapRouter.sol\":30947:30960  uint amountIn */\n      0x00\n        /* \"RamzSwapRouter.sol\":30963:30972  msg.value */\n      callvalue\n        /* \"RamzSwapRouter.sol\":30947:30972  uint amountIn = msg.value */\n      swap1\n      pop\n        /* \"RamzSwapRouter.sol\":30989:30994  WMAAL */\n      immutable(\"0x139b5474829a1a438527d6f3b7cb075ea9353c362b5b7082a6a6627c27b040e8\")\n      sub(shl(0xa0, 0x01), 0x01)\n        /* \"RamzSwapRouter.sol\":30982:31003  IWMAAL(WMAAL).deposit */\n      and\n      0xd0e30db0\n        /* \"RamzSwapRouter.sol\":31011:31019  amountIn */\n      dup3\n        /* \"RamzSwapRouter.sol\":30982:31022  IWMAAL(WMAAL).deposit{value: amountIn}() */\n      mload(0x40)\n      dup3\n      0xffffffff\n      and\n      0xe0\n      shl\n      dup2\n      mstore\n      0x04\n      add\n      0x00\n      mload(0x40)\n      dup1\n      dup4\n      sub\n      dup2\n      dup6\n      dup9\n      dup1\n      extcodesize\n      iszero\n        /* \"--CODEGEN--\":5:14   */\n      dup1\n        /* \"--CODEGEN--\":2:4   */\n      iszero\n      tag_436\n      jumpi\n        /* \"--CODEGEN--\":27:28   */\n      0x00\n        /* \"--CODEGEN--\":24:25   */\n      dup1\n        /* \"--CODEGEN--\":17:29   */\n      revert\n        /* \"--CODEGEN--\":2:4   */\n    tag_436:\n        /* \"RamzSwapRouter.sol\":30982:31022  IWMAAL(WMAAL).deposit{value: amountIn}() */\n      pop\n      gas\n      call\n      iszero\n        /* \"--CODEGEN--\":8:17   */\n      dup1\n        /* \"--CODEGEN--\":5:7   */\n      iszero\n      tag_438\n      jumpi\n        /* \"--CODEGEN--\":45:61   */\n      returndatasize\n        /* \"--CODEGEN--\":42:43   */\n      0x00\n        /* \"--CODEGEN--\":39:40   */\n      dup1\n        /* \"--CODEGEN--\":24:62   */\n      returndatacopy\n        /* \"--CODEGEN--\":77:93   */\n      returndatasize\n        /* \"--CODEGEN--\":74:75   */\n      0x00\n        /* \"--CODEGEN--\":67:94   */\n      revert\n        /* \"--CODEGEN--\":5:7   */\n    tag_438:\n        /* \"RamzSwapRouter.sol\":30982:31022  IWMAAL(WMAAL).deposit{value: amountIn}() */\n      pop\n      pop\n      pop\n      pop\n      pop\n        /* \"RamzSwapRouter.sol\":31046:31051  WMAAL */\n      immutable(\"0x139b5474829a1a438527d6f3b7cb075ea9353c362b5b7082a6a6627c27b040e8\")\n      sub(shl(0xa0, 0x01), 0x01)\n        /* \"RamzSwapRouter.sol\":31039:31061  IWMAAL(WMAAL).transfer */\n      and\n      0xa9059cbb\n        /* \"RamzSwapRouter.sol\":31062:31112  RamzSwapLibrary.pairFor(factory, path[0], path[1]) */\n      tag_439\n        /* \"RamzSwapRouter.sol\":31086:31093  factory */\n      immutable(\"0x173bb80bf7ae3dde444a25d8c84de4e84891034d416e0f0ffbc56cab6043ec24\")\n        /* \"RamzSwapRouter.sol\":31095:31099  path */\n      dup10\n      dup10\n        /* \"RamzSwapRouter.sol\":31100:31101  0 */\n      0x00\n        /* \"RamzSwapRouter.sol\":31095:31102  path[0] */\n      dup2\n      dup2\n      lt\n      tag_245\n      jumpi\n      invalid\n        /* \"RamzSwapRouter.sol\":31062:31112  RamzSwapLibrary.pairFor(factory, path[0], path[1]) */\n    tag_439:\n        /* \"RamzSwapRouter.sol\":31114:31122  amountIn */\n      dup4\n        /* \"RamzSwapRouter.sol\":31039:31123  IWMAAL(WMAAL).transfer(RamzSwapLibrary.pairFor(factory, path[0], path[1]), amountIn) */\n      mload(0x40)\n      dup4\n      0xffffffff\n      and\n      0xe0\n      shl\n      dup2\n      mstore\n      0x04\n      add\n      dup1\n      dup4\n      sub(shl(0xa0, 0x01), 0x01)\n      and\n      sub(shl(0xa0, 0x01), 0x01)\n      and\n      dup2\n      mstore\n      0x20\n      add\n      dup3\n      dup2\n      mstore\n      0x20\n      add\n      swap3\n      pop\n      pop\n      pop\n      0x20\n      mload(0x40)\n      dup1\n      dup4\n      sub\n      dup2\n      0x00\n      dup8\n      dup1\n      extcodesize\n      iszero\n        /* \"--CODEGEN--\":5:14   */\n      dup1\n        /* \"--CODEGEN--\":2:4   */\n      iszero\n      tag_442\n      jumpi\n        /* \"--CODEGEN--\":27:28   */\n      0x00\n        /* \"--CODEGEN--\":24:25   */\n      dup1\n        /* \"--CODEGEN--\":17:29   */\n      revert\n        /* \"--CODEGEN--\":2:4   */\n    tag_442:\n        /* \"RamzSwapRouter.sol\":31039:31123  IWMAAL(WMAAL).transfer(RamzSwapLibrary.pairFor(factory, path[0], path[1]), amountIn) */\n      pop\n      gas\n      call\n      iszero\n        /* \"--CODEGEN--\":8:17   */\n      dup1\n        /* \"--CODEGEN--\":5:7   */\n      iszero\n      tag_444\n      jumpi\n        /* \"--CODEGEN--\":45:61   */\n      returndatasize\n        /* \"--CODEGEN--\":42:43   */\n      0x00\n        /* \"--CODEGEN--\":39:40   */\n      dup1\n        /* \"--CODEGEN--\":24:62   */\n      returndatacopy\n        /* \"--CODEGEN--\":77:93   */\n      returndatasize\n        /* \"--CODEGEN--\":74:75   */\n      0x00\n        /* \"--CODEGEN--\":67:94   */\n      revert\n        /* \"--CODEGEN--\":5:7   */\n    tag_444:\n        /* \"RamzSwapRouter.sol\":31039:31123  IWMAAL(WMAAL).transfer(RamzSwapLibrary.pairFor(factory, path[0], path[1]), amountIn) */\n      pop\n      pop\n      pop\n      pop\n      mload(0x40)\n      returndatasize\n        /* \"--CODEGEN--\":15:17   */\n      0x20\n        /* \"--CODEGEN--\":10:13   */\n      dup2\n        /* \"--CODEGEN--\":7:18   */\n      lt\n        /* \"--CODEGEN--\":4:6   */\n      iszero\n      tag_445\n      jumpi\n        /* \"--CODEGEN--\":31:32   */\n      0x00\n        /* \"--CODEGEN--\":28:29   */\n      dup1\n        /* \"--CODEGEN--\":21:33   */\n      revert\n        /* \"--CODEGEN--\":4:6   */\n    tag_445:\n      pop\n        /* \"RamzSwapRouter.sol\":31039:31123  IWMAAL(WMAAL).transfer(RamzSwapLibrary.pairFor(factory, path[0], path[1]), amountIn) */\n      mload\n        /* \"RamzSwapRouter.sol\":31032:31124  assert(IWMAAL(WMAAL).transfer(RamzSwapLibrary.pairFor(factory, path[0], path[1]), amountIn)) */\n      tag_446\n      jumpi\n      invalid\n    tag_446:\n        /* \"RamzSwapRouter.sol\":31134:31152  uint balanceBefore */\n      0x00\n        /* \"RamzSwapRouter.sol\":31163:31167  path */\n      dup7\n      dup7\n      not(0x00)\n        /* \"RamzSwapRouter.sol\":31168:31183  path.length - 1 */\n      dup2\n      add\n        /* \"RamzSwapRouter.sol\":31163:31184  path[path.length - 1] */\n      dup2\n      dup2\n      lt\n      tag_447\n      jumpi\n      invalid\n    tag_447:\n      swap1\n      pop\n      0x20\n      mul\n      add\n      calldataload\n      sub(shl(0xa0, 0x01), 0x01)\n      and\n      sub(shl(0xa0, 0x01), 0x01)\n        /* \"RamzSwapRouter.sol\":31155:31195  IMAAL20(path[path.length - 1]).balanceOf */\n      and\n      0x70a08231\n        /* \"RamzSwapRouter.sol\":31196:31198  to */\n      dup7\n        /* \"RamzSwapRouter.sol\":31155:31199  IMAAL20(path[path.length - 1]).balanceOf(to) */\n      mload(0x40)\n      dup3\n      0xffffffff\n      and\n      0xe0\n      shl\n      dup2\n      mstore\n      0x04\n      add\n      dup1\n      dup3\n      sub(shl(0xa0, 0x01), 0x01)\n      and\n      sub(shl(0xa0, 0x01), 0x01)\n      and\n      dup2\n      mstore\n      0x20\n      add\n      swap2\n      pop\n      pop\n      0x20\n      mload(0x40)\n      dup1\n      dup4\n      sub\n      dup2\n      dup7\n      dup1\n      extcodesize\n      iszero\n        /* \"--CODEGEN--\":5:14   */\n      dup1\n        /* \"--CODEGEN--\":2:4   */\n      iszero\n      tag_448\n      jumpi\n        /* \"--CODEGEN--\":27:28   */\n      0x00\n        /* \"--CODEGEN--\":24:25   */\n      dup1\n        /* \"--CODEGEN--\":17:29   */\n      revert\n        /* \"--CODEGEN--\":2:4   */\n    tag_448:\n        /* \"RamzSwapRouter.sol\":31155:31199  IMAAL20(path[path.length - 1]).balanceOf(to) */\n      pop\n      gas\n      staticcall\n      iszero\n        /* \"--CODEGEN--\":8:17   */\n      dup1\n        /* \"--CODEGEN--\":5:7   */\n      iszero\n      tag_450\n      jumpi\n        /* \"--CODEGEN--\":45:61   */\n      returndatasize\n        /* \"--CODEGEN--\":42:43   */\n      0x00\n        /* \"--CODEGEN--\":39:40   */\n      dup1\n        /* \"--CODEGEN--\":24:62   */\n      returndatacopy\n        /* \"--CODEGEN--\":77:93   */\n      returndatasize\n        /* \"--CODEGEN--\":74:75   */\n      0x00\n        /* \"--CODEGEN--\":67:94   */\n      revert\n        /* \"--CODEGEN--\":5:7   */\n    tag_450:\n        /* \"RamzSwapRouter.sol\":31155:31199  IMAAL20(path[path.length - 1]).balanceOf(to) */\n      pop\n      pop\n      pop\n      pop\n      mload(0x40)\n      returndatasize\n        /* \"--CODEGEN--\":15:17   */\n      0x20\n        /* \"--CODEGEN--\":10:13   */\n      dup2\n        /* \"--CODEGEN--\":7:18   */\n      lt\n        /* \"--CODEGEN--\":4:6   */\n      iszero\n      tag_451\n      jumpi\n        /* \"--CODEGEN--\":31:32   */\n      0x00\n        /* \"--CODEGEN--\":28:29   */\n      dup1\n        /* \"--CODEGEN--\":21:33   */\n      revert\n        /* \"--CODEGEN--\":4:6   */\n    tag_451:\n      pop\n        /* \"RamzSwapRouter.sol\":31155:31199  IMAAL20(path[path.length - 1]).balanceOf(to) */\n      mload\n        /* \"RamzSwapRouter.sol\":31209:31253  _swapSupportingFeeOnTransferTokens(path, to) */\n      0x40\n      dup1\n      mload\n        /* \"RamzSwapRouter.sol\":31155:31199  IMAAL20(path[path.length - 1]).balanceOf(to) */\n      0x20\n        /* \"RamzSwapRouter.sol\":31209:31253  _swapSupportingFeeOnTransferTokens(path, to) */\n      dup10\n      dup2\n      mul\n      dup3\n      dup2\n      add\n      dup3\n      add\n      swap1\n      swap4\n      mstore\n      dup10\n      dup3\n      mstore\n        /* \"RamzSwapRouter.sol\":31155:31199  IMAAL20(path[path.length - 1]).balanceOf(to) */\n      swap3\n      swap4\n      pop\n        /* \"RamzSwapRouter.sol\":31209:31253  _swapSupportingFeeOnTransferTokens(path, to) */\n      tag_452\n      swap3\n      swap1\n      swap2\n        /* \"RamzSwapRouter.sol\":31244:31248  path */\n      dup11\n      swap2\n      dup11\n      swap2\n      dup3\n      swap2\n        /* \"RamzSwapRouter.sol\":31209:31253  _swapSupportingFeeOnTransferTokens(path, to) */\n      dup6\n      add\n      swap1\n        /* \"RamzSwapRouter.sol\":31244:31248  path */\n      dup5\n      swap1\n        /* \"RamzSwapRouter.sol\":31209:31253  _swapSupportingFeeOnTransferTokens(path, to) */\n      dup1\n        /* \"RamzSwapRouter.sol\":31244:31248  path */\n      dup3\n        /* \"RamzSwapRouter.sol\":31209:31253  _swapSupportingFeeOnTransferTokens(path, to) */\n      dup5\n        /* \"--CODEGEN--\":1:34   */\n      calldatacopy\n        /* \"--CODEGEN--\":99:100   */\n      0x00\n        /* \"--CODEGEN--\":81:97   */\n      swap3\n      add\n        /* \"--CODEGEN--\":74:101   */\n      swap2\n      swap1\n      swap2\n      mstore\n      pop\n        /* \"RamzSwapRouter.sol\":31250:31252  to */\n      dup10\n      swap3\n      pop\n        /* \"RamzSwapRouter.sol\":31209:31243  _swapSupportingFeeOnTransferTokens */\n      tag_248\n      swap2\n      pop\n      pop\n        /* \"RamzSwapRouter.sol\":31209:31253  _swapSupportingFeeOnTransferTokens(path, to) */\n      jump\t// in\n    tag_452:\n        /* \"RamzSwapRouter.sol\":31351:31363  amountOutMin */\n      dup8\n        /* \"RamzSwapRouter.sol\":31284:31347  IMAAL20(path[path.length - 1]).balanceOf(to).sub(balanceBefore) */\n      tag_308\n        /* \"RamzSwapRouter.sol\":31333:31346  balanceBefore */\n      dup3\n        /* \"RamzSwapRouter.sol\":31292:31296  path */\n      dup10\n      dup10\n      not(0x00)\n        /* \"RamzSwapRouter.sol\":31297:31312  path.length - 1 */\n      dup2\n      add\n        /* \"RamzSwapRouter.sol\":31292:31313  path[path.length - 1] */\n      dup2\n      dup2\n      lt\n      tag_454\n      jumpi\n      invalid\n    tag_454:\n      swap1\n      pop\n      0x20\n      mul\n      add\n      calldataload\n      sub(shl(0xa0, 0x01), 0x01)\n      and\n      sub(shl(0xa0, 0x01), 0x01)\n        /* \"RamzSwapRouter.sol\":31284:31324  IMAAL20(path[path.length - 1]).balanceOf */\n      and\n      0x70a08231\n        /* \"RamzSwapRouter.sol\":31325:31327  to */\n      dup10\n        /* \"RamzSwapRouter.sol\":31284:31328  IMAAL20(path[path.length - 1]).balanceOf(to) */\n      mload(0x40)\n      dup3\n      0xffffffff\n      and\n      0xe0\n      shl\n      dup2\n      mstore\n      0x04\n      add\n      dup1\n      dup3\n      sub(shl(0xa0, 0x01), 0x01)\n      and\n      sub(shl(0xa0, 0x01), 0x01)\n      and\n      dup2\n      mstore\n      0x20\n      add\n      swap2\n      pop\n      pop\n      0x20\n      mload(0x40)\n      dup1\n      dup4\n      sub\n      dup2\n      dup7\n      dup1\n      extcodesize\n      iszero\n        /* \"--CODEGEN--\":5:14   */\n      dup1\n        /* \"--CODEGEN--\":2:4   */\n      iszero\n      tag_310\n      jumpi\n        /* \"--CODEGEN--\":27:28   */\n      0x00\n        /* \"--CODEGEN--\":24:25   */\n      dup1\n        /* \"--CODEGEN--\":17:29   */\n      revert\n        /* \"RamzSwapRouter.sol\":17315:18036  function addLiquidity(... */\n    tag_175:\n        /* \"RamzSwapRouter.sol\":17594:17606  uint amountA */\n      0x00\n        /* \"RamzSwapRouter.sol\":17608:17620  uint amountB */\n      dup1\n        /* \"RamzSwapRouter.sol\":17622:17636  uint liquidity */\n      0x00\n        /* \"RamzSwapRouter.sol\":17575:17583  deadline */\n      dup4\n        /* \"RamzSwapRouter.sol\":15604:15619  block.timestamp */\n      timestamp\n        /* \"RamzSwapRouter.sol\":15592:15600  deadline */\n      dup2\n        /* \"RamzSwapRouter.sol\":15592:15619  deadline >= block.timestamp */\n      lt\n      iszero\n        /* \"RamzSwapRouter.sol\":15584:15647  require(deadline >= block.timestamp, 'RamzSwapRouter: EXPIRED') */\n      tag_461\n      jumpi\n      0x40\n      dup1\n      mload\n      shl(0xe5, 0x461bcd)\n      dup2\n      mstore\n      0x20\n      0x04\n      dup3\n      add\n      mstore\n      0x17\n      0x24\n      dup3\n      add\n      mstore\n      0x00\n      dup1\n      mload\n      0x20\n      data_abe419f277ac6b272f0968a9f490f07eeccba4f306ed4de5548b5f8f76aeb85a\n      dup4\n      codecopy\n      dup2\n      mload\n      swap2\n      mstore\n      0x44\n      dup3\n      add\n      mstore\n      swap1\n      mload\n      swap1\n      dup2\n      swap1\n      sub\n      0x64\n      add\n      swap1\n      revert\n    tag_461:\n        /* \"RamzSwapRouter.sol\":17669:17754  _addLiquidity(tokenA, tokenB, amountADesired, amountBDesired, amountAMin, amountBMin) */\n      tag_463\n        /* \"RamzSwapRouter.sol\":17683:17689  tokenA */\n      dup13\n        /* \"RamzSwapRouter.sol\":17691:17697  tokenB */\n      dup13\n        /* \"RamzSwapRouter.sol\":17699:17713  amountADesired */\n      dup13\n        /* \"RamzSwapRouter.sol\":17715:17729  amountBDesired */\n      dup13\n        /* \"RamzSwapRouter.sol\":17731:17741  amountAMin */\n      dup13\n        /* \"RamzSwapRouter.sol\":17743:17753  amountBMin */\n      dup13\n        /* \"RamzSwapRouter.sol\":17669:17682  _addLiquidity */\n      tag_346\n        /* \"RamzSwapRouter.sol\":17669:17754  _addLiquidity(tokenA, tokenB, amountADesired, amountBDesired, amountAMin, amountBMin) */\n      jump\t// in\n    tag_463:\n        /* \"RamzSwapRouter.sol\":17648:17754  (amountA, amountB) = _addLiquidity(tokenA, tokenB, amountADesired, amountBDesired, amountAMin, amountBMin) */\n      swap1\n      swap5\n      pop\n      swap3\n      pop\n        /* \"RamzSwapRouter.sol\":17764:17776  address pair */\n      0x00\n        /* \"RamzSwapRouter.sol\":17779:17827  RamzSwapLibrary.pairFor(factory, tokenA, tokenB) */\n      tag_464\n        /* \"RamzSwapRouter.sol\":17803:17810  factory */\n      immutable(\"0x173bb80bf7ae3dde444a25d8c84de4e84891034d416e0f0ffbc56cab6043ec24\")\n        /* \"RamzSwapRouter.sol\":17812:17818  tokenA */\n      dup15\n        /* \"RamzSwapRouter.sol\":17820:17826  tokenB */\n      dup15\n        /* \"RamzSwapRouter.sol\":17779:17802  RamzSwapLibrary.pairFor */\n      tag_197\n        /* \"RamzSwapRouter.sol\":17779:17827  RamzSwapLibrary.pairFor(factory, tokenA, tokenB) */\n      jump\t// in\n    tag_464:\n        /* \"RamzSwapRouter.sol\":17764:17827  address pair = RamzSwapLibrary.pairFor(factory, tokenA, tokenB) */\n      swap1\n      pop\n        /* \"RamzSwapRouter.sol\":17837:17903  TransferHelper.safeTransferFrom(tokenA, msg.sender, pair, amountA) */\n      tag_465\n        /* \"RamzSwapRouter.sol\":17869:17875  tokenA */\n      dup14\n        /* \"RamzSwapRouter.sol\":17877:17887  msg.sender */\n      caller\n        /* \"RamzSwapRouter.sol\":17889:17893  pair */\n      dup4\n        /* \"RamzSwapRouter.sol\":17895:17902  amountA */\n      dup9\n        /* \"RamzSwapRouter.sol\":17837:17868  TransferHelper.safeTransferFrom */\n      tag_199\n        /* \"RamzSwapRouter.sol\":17837:17903  TransferHelper.safeTransferFrom(tokenA, msg.sender, pair, amountA) */\n      jump\t// in\n    tag_465:\n        /* \"RamzSwapRouter.sol\":17913:17979  TransferHelper.safeTransferFrom(tokenB, msg.sender, pair, amountB) */\n      tag_466\n        /* \"RamzSwapRouter.sol\":17945:17951  tokenB */\n      dup13\n        /* \"RamzSwapRouter.sol\":17953:17963  msg.sender */\n      caller\n        /* \"RamzSwapRouter.sol\":17965:17969  pair */\n      dup4\n        /* \"RamzSwapRouter.sol\":17971:17978  amountB */\n      dup8\n        /* \"RamzSwapRouter.sol\":17913:17944  TransferHelper.safeTransferFrom */\n      tag_199\n        /* \"RamzSwapRouter.sol\":17913:17979  TransferHelper.safeTransferFrom(tokenB, msg.sender, pair, amountB) */\n      jump\t// in\n    tag_466:\n        /* \"RamzSwapRouter.sol\":18015:18019  pair */\n      dup1\n      sub(shl(0xa0, 0x01), 0x01)\n        /* \"RamzSwapRouter.sol\":18001:18025  IRamzSwapPair(pair).mint */\n      and\n      0x6a627842\n        /* \"RamzSwapRouter.sol\":18026:18028  to */\n      dup9\n        /* \"RamzSwapRouter.sol\":18001:18029  IRamzSwapPair(pair).mint(to) */\n      mload(0x40)\n      dup3\n      0xffffffff\n      and\n      0xe0\n      shl\n      dup2\n      mstore\n      0x04\n      add\n      dup1\n      dup3\n      sub(shl(0xa0, 0x01), 0x01)\n      and\n      sub(shl(0xa0, 0x01), 0x01)\n      and\n      dup2\n      mstore\n      0x20\n      add\n      swap2\n      pop\n      pop\n      0x20\n      mload(0x40)\n      dup1\n      dup4\n      sub\n      dup2\n      0x00\n      dup8\n      dup1\n      extcodesize\n      iszero\n        /* \"--CODEGEN--\":5:14   */\n      dup1\n        /* \"--CODEGEN--\":2:4   */\n      iszero\n      tag_467\n      jumpi\n        /* \"--CODEGEN--\":27:28   */\n      0x00\n        /* \"--CODEGEN--\":24:25   */\n      dup1\n        /* \"--CODEGEN--\":17:29   */\n      revert\n        /* \"--CODEGEN--\":2:4   */\n    tag_467:\n        /* \"RamzSwapRouter.sol\":18001:18029  IRamzSwapPair(pair).mint(to) */\n      pop\n      gas\n      call\n      iszero\n        /* \"--CODEGEN--\":8:17   */\n      dup1\n        /* \"--CODEGEN--\":5:7   */\n      iszero\n      tag_469\n      jumpi\n        /* \"--CODEGEN--\":45:61   */\n      returndatasize\n        /* \"--CODEGEN--\":42:43   */\n      0x00\n        /* \"--CODEGEN--\":39:40   */\n      dup1\n        /* \"--CODEGEN--\":24:62   */\n      returndatacopy\n        /* \"--CODEGEN--\":77:93   */\n      returndatasize\n        /* \"--CODEGEN--\":74:75   */\n      0x00\n        /* \"--CODEGEN--\":67:94   */\n      revert\n        /* \"--CODEGEN--\":5:7   */\n    tag_469:\n        /* \"RamzSwapRouter.sol\":18001:18029  IRamzSwapPair(pair).mint(to) */\n      pop\n      pop\n      pop\n      pop\n      mload(0x40)\n      returndatasize\n        /* \"--CODEGEN--\":15:17   */\n      0x20\n        /* \"--CODEGEN--\":10:13   */\n      dup2\n        /* \"--CODEGEN--\":7:18   */\n      lt\n        /* \"--CODEGEN--\":4:6   */\n      iszero\n      tag_470\n      jumpi\n        /* \"--CODEGEN--\":31:32   */\n      0x00\n        /* \"--CODEGEN--\":28:29   */\n      dup1\n        /* \"--CODEGEN--\":21:33   */\n      revert\n        /* \"--CODEGEN--\":4:6   */\n    tag_470:\n      pop\n        /* \"RamzSwapRouter.sol\":18001:18029  IRamzSwapPair(pair).mint(to) */\n      mload\n        /* \"RamzSwapRouter.sol\":17315:18036  function addLiquidity(... */\n      swap5\n      swap14\n      swap4\n      swap13\n      pop\n        /* \"RamzSwapRouter.sol\":18001:18029  IRamzSwapPair(pair).mint(to) */\n      swap4\n      swap11\n      pop\n        /* \"RamzSwapRouter.sol\":17315:18036  function addLiquidity(... */\n      swap2\n      swap9\n      pop\n      pop\n      pop\n      pop\n      pop\n      pop\n      pop\n      pop\n      pop\n      jump\t// out\n        /* \"RamzSwapRouter.sol\":21967:22659  function removeLiquidityMAALSupportingFeeOnTransferTokens(... */\n    tag_179:\n        /* \"RamzSwapRouter.sol\":22228:22243  uint amountMAAL */\n      0x00\n        /* \"RamzSwapRouter.sol\":22209:22217  deadline */\n      dup2\n        /* \"RamzSwapRouter.sol\":15604:15619  block.timestamp */\n      timestamp\n        /* \"RamzSwapRouter.sol\":15592:15600  deadline */\n      dup2\n        /* \"RamzSwapRouter.sol\":15592:15619  deadline >= block.timestamp */\n      lt\n      iszero\n        /* \"RamzSwapRouter.sol\":15584:15647  require(deadline >= block.timestamp, 'RamzSwapRouter: EXPIRED') */\n      tag_472\n      jumpi\n      0x40\n      dup1\n      mload\n      shl(0xe5, 0x461bcd)\n      dup2\n      mstore\n      0x20\n      0x04\n      dup3\n      add\n      mstore\n      0x17\n      0x24\n      dup3\n      add\n      mstore\n      0x00\n      dup1\n      mload\n      0x20\n      data_abe419f277ac6b272f0968a9f490f07eeccba4f306ed4de5548b5f8f76aeb85a\n      dup4\n      codecopy\n      dup2\n      mload\n      swap2\n      mstore\n      0x44\n      dup3\n      add\n      mstore\n      swap1\n      mload\n      swap1\n      dup2\n      swap1\n      sub\n      0x64\n      add\n      swap1\n      revert\n    tag_472:\n        /* \"RamzSwapRouter.sol\":22272:22462  removeLiquidity(... */\n      tag_474\n        /* \"RamzSwapRouter.sol\":22301:22306  token */\n      dup9\n        /* \"RamzSwapRouter.sol\":22320:22325  WMAAL */\n      immutable(\"0x139b5474829a1a438527d6f3b7cb075ea9353c362b5b7082a6a6627c27b040e8\")\n        /* \"RamzSwapRouter.sol\":22339:22348  liquidity */\n      dup10\n        /* \"RamzSwapRouter.sol\":22362:22376  amountTokenMin */\n      dup10\n        /* \"RamzSwapRouter.sol\":22390:22403  amountMAALMin */\n      dup10\n        /* \"RamzSwapRouter.sol\":22425:22429  this */\n      address\n        /* \"RamzSwapRouter.sol\":22444:22452  deadline */\n      dup10\n        /* \"RamzSwapRouter.sol\":22272:22287  removeLiquidity */\n      tag_138\n        /* \"RamzSwapRouter.sol\":22272:22462  removeLiquidity(... */\n      jump\t// in\n    tag_474:\n        /* \"RamzSwapRouter.sol\":22511:22550  IMAAL20(token).balanceOf(address(this)) */\n      0x40\n      dup1\n      mload\n      shl(0xe0, 0x70a08231)\n      dup2\n      mstore\n        /* \"RamzSwapRouter.sol\":22544:22548  this */\n      address\n        /* \"RamzSwapRouter.sol\":22511:22550  IMAAL20(token).balanceOf(address(this)) */\n      0x04\n      dup3\n      add\n      mstore\n      swap1\n      mload\n        /* \"RamzSwapRouter.sol\":22255:22462  (, amountMAAL) = removeLiquidity(... */\n      swap2\n      swap5\n      pop\n        /* \"RamzSwapRouter.sol\":22472:22551  TransferHelper.safeTransfer(token, to, IMAAL20(token).balanceOf(address(this))) */\n      tag_475\n      swap3\n      pop\n        /* \"RamzSwapRouter.sol\":22500:22505  token */\n      dup11\n      swap2\n        /* \"RamzSwapRouter.sol\":22507:22509  to */\n      dup8\n      swap2\n      sub(shl(0xa0, 0x01), 0x01)\n        /* \"RamzSwapRouter.sol\":22511:22535  IMAAL20(token).balanceOf */\n      dup5\n      and\n      swap2\n      0x70a08231\n      swap2\n        /* \"RamzSwapRouter.sol\":22511:22550  IMAAL20(token).balanceOf(address(this)) */\n      0x24\n      dup1\n      dup3\n      add\n      swap3\n      0x20\n      swap3\n      swap1\n      swap2\n      swap1\n      dup3\n      swap1\n      sub\n      add\n      dup2\n        /* \"RamzSwapRouter.sol\":22511:22535  IMAAL20(token).balanceOf */\n      dup7\n        /* \"RamzSwapRouter.sol\":22511:22550  IMAAL20(token).balanceOf(address(this)) */\n      dup1\n      extcodesize\n      iszero\n        /* \"--CODEGEN--\":2:4   */\n      dup1\n      iszero\n      tag_476\n      jumpi\n        /* \"--CODEGEN--\":27:28   */\n      0x00\n        /* \"--CODEGEN--\":24:25   */\n      dup1\n        /* \"--CODEGEN--\":17:29   */\n      revert\n        /* \"--CODEGEN--\":2:4   */\n    tag_476:\n        /* \"RamzSwapRouter.sol\":22511:22550  IMAAL20(token).balanceOf(address(this)) */\n      pop\n      gas\n      staticcall\n      iszero\n        /* \"--CODEGEN--\":8:17   */\n      dup1\n        /* \"--CODEGEN--\":5:7   */\n      iszero\n      tag_478\n      jumpi\n        /* \"--CODEGEN--\":45:61   */\n      returndatasize\n        /* \"--CODEGEN--\":42:43   */\n      0x00\n        /* \"--CODEGEN--\":39:40   */\n      dup1\n        /* \"--CODEGEN--\":24:62   */\n      returndatacopy\n        /* \"--CODEGEN--\":77:93   */\n      returndatasize\n        /* \"--CODEGEN--\":74:75   */\n      0x00\n        /* \"--CODEGEN--\":67:94   */\n      revert\n        /* \"--CODEGEN--\":5:7   */\n    tag_478:\n        /* \"RamzSwapRouter.sol\":22511:22550  IMAAL20(token).balanceOf(address(this)) */\n      pop\n      pop\n      pop\n      pop\n      mload(0x40)\n      returndatasize\n        /* \"--CODEGEN--\":15:17   */\n      0x20\n        /* \"--CODEGEN--\":10:13   */\n      dup2\n        /* \"--CODEGEN--\":7:18   */\n      lt\n        /* \"--CODEGEN--\":4:6   */\n      iszero\n      tag_479\n      jumpi\n        /* \"--CODEGEN--\":31:32   */\n      0x00\n        /* \"--CODEGEN--\":28:29   */\n      dup1\n        /* \"--CODEGEN--\":21:33   */\n      revert\n        /* \"--CODEGEN--\":4:6   */\n    tag_479:\n      pop\n        /* \"RamzSwapRouter.sol\":22511:22550  IMAAL20(token).balanceOf(address(this)) */\n      mload\n        /* \"RamzSwapRouter.sol\":22472:22499  TransferHelper.safeTransfer */\n      tag_232\n        /* \"RamzSwapRouter.sol\":22472:22551  TransferHelper.safeTransfer(token, to, IMAAL20(token).balanceOf(address(this))) */\n      jump\t// in\n    tag_475:\n        /* \"RamzSwapRouter.sol\":22568:22573  WMAAL */\n      immutable(\"0x139b5474829a1a438527d6f3b7cb075ea9353c362b5b7082a6a6627c27b040e8\")\n      sub(shl(0xa0, 0x01), 0x01)\n        /* \"RamzSwapRouter.sol\":22561:22583  IWMAAL(WMAAL).withdraw */\n      and\n      0x2e1a7d4d\n        /* \"RamzSwapRouter.sol\":22584:22594  amountMAAL */\n      dup4\n        /* \"RamzSwapRouter.sol\":22561:22595  IWMAAL(WMAAL).withdraw(amountMAAL) */\n      mload(0x40)\n      dup3\n      0xffffffff\n      and\n      0xe0\n      shl\n      dup2\n      mstore\n      0x04\n      add\n      dup1\n      dup3\n      dup2\n      mstore\n      0x20\n      add\n      swap2\n      pop\n      pop\n      0x00\n      mload(0x40)\n      dup1\n      dup4\n      sub\n      dup2\n      0x00\n      dup8\n      dup1\n      extcodesize\n      iszero\n        /* \"--CODEGEN--\":5:14   */\n      dup1\n        /* \"--CODEGEN--\":2:4   */\n      iszero\n      tag_480\n      jumpi\n        /* \"--CODEGEN--\":27:28   */\n      0x00\n        /* \"--CODEGEN--\":24:25   */\n      dup1\n        /* \"--CODEGEN--\":17:29   */\n      revert\n        /* \"--CODEGEN--\":2:4   */\n    tag_480:\n        /* \"RamzSwapRouter.sol\":22561:22595  IWMAAL(WMAAL).withdraw(amountMAAL) */\n      pop\n      gas\n      call\n      iszero\n        /* \"--CODEGEN--\":8:17   */\n      dup1\n        /* \"--CODEGEN--\":5:7   */\n      iszero\n      tag_482\n      jumpi\n        /* \"--CODEGEN--\":45:61   */\n      returndatasize\n        /* \"--CODEGEN--\":42:43   */\n      0x00\n        /* \"--CODEGEN--\":39:40   */\n      dup1\n        /* \"--CODEGEN--\":24:62   */\n      returndatacopy\n        /* \"--CODEGEN--\":77:93   */\n      returndatasize\n        /* \"--CODEGEN--\":74:75   */\n      0x00\n        /* \"--CODEGEN--\":67:94   */\n      revert\n        /* \"--CODEGEN--\":5:7   */\n    tag_482:\n        /* \"RamzSwapRouter.sol\":22561:22595  IWMAAL(WMAAL).withdraw(amountMAAL) */\n      pop\n      pop\n      pop\n      pop\n        /* \"RamzSwapRouter.sol\":22605:22652  TransferHelper.safeTransferMAAL(to, amountMAAL) */\n      tag_206\n        /* \"RamzSwapRouter.sol\":22637:22639  to */\n      dup5\n        /* \"RamzSwapRouter.sol\":22641:22651  amountMAAL */\n      dup4\n        /* \"RamzSwapRouter.sol\":22605:22636  TransferHelper.safeTransferMAAL */\n      tag_208\n        /* \"RamzSwapRouter.sol\":22605:22652  TransferHelper.safeTransferMAAL(to, amountMAAL) */\n      jump\t// in\n        /* \"RamzSwapRouter.sol\":8352:8860  function getAmountOut(uint amountIn, uint reserveIn, uint reserveOut) internal pure returns (uint amountOut) {... */\n    tag_182:\n        /* \"RamzSwapRouter.sol\":8445:8459  uint amountOut */\n      0x00\n        /* \"RamzSwapRouter.sol\":8490:8491  0 */\n      dup1\n        /* \"RamzSwapRouter.sol\":8479:8487  amountIn */\n      dup5\n        /* \"RamzSwapRouter.sol\":8479:8491  amountIn > 0 */\n      gt\n        /* \"RamzSwapRouter.sol\":8471:8538  require(amountIn > 0, 'RamzSwapLibrary: INSUFFICIENT_INPUT_AMOUNT') */\n      tag_485\n      jumpi\n      mload(0x40)\n      shl(0xe5, 0x461bcd)\n      dup2\n      mstore\n      0x04\n      add\n      dup1\n      dup1\n      0x20\n      add\n      dup3\n      dup2\n      sub\n      dup3\n      mstore\n      0x2a\n      dup2\n      mstore\n      0x20\n      add\n      dup1\n      data_ab3f0f58adb5721a72b82ddabede1d890405a5922eabab472db664ffa233e201\n      0x2a\n      swap2\n      codecopy\n      0x40\n      add\n      swap2\n      pop\n      pop\n      mload(0x40)\n      dup1\n      swap2\n      sub\n      swap1\n      revert\n    tag_485:\n        /* \"RamzSwapRouter.sol\":8568:8569  0 */\n      0x00\n        /* \"RamzSwapRouter.sol\":8556:8565  reserveIn */\n      dup4\n        /* \"RamzSwapRouter.sol\":8556:8569  reserveIn > 0 */\n      gt\n        /* \"RamzSwapRouter.sol\":8556:8587  reserveIn > 0 && reserveOut > 0 */\n      dup1\n      iszero\n      tag_486\n      jumpi\n      pop\n        /* \"RamzSwapRouter.sol\":8586:8587  0 */\n      0x00\n        /* \"RamzSwapRouter.sol\":8573:8583  reserveOut */\n      dup3\n        /* \"RamzSwapRouter.sol\":8573:8587  reserveOut > 0 */\n      gt\n        /* \"RamzSwapRouter.sol\":8556:8587  reserveIn > 0 && reserveOut > 0 */\n    tag_486:\n        /* \"RamzSwapRouter.sol\":8548:8631  require(reserveIn > 0 && reserveOut > 0, 'RamzSwapLibrary: INSUFFICIENT_LIQUIDITY') */\n      tag_487\n      jumpi\n      mload(0x40)\n      shl(0xe5, 0x461bcd)\n      dup2\n      mstore\n      0x04\n      add\n      dup1\n      dup1\n      0x20\n      add\n      dup3\n      dup2\n      sub\n      dup3\n      mstore\n      0x27\n      dup2\n      mstore\n      0x20\n      add\n      dup1\n      data_b52214121bd9a7f266e2a49d2be26d2d7591a4c8cb33e3cce9ba3b94930dca8d\n      0x27\n      swap2\n      codecopy\n      0x40\n      add\n      swap2\n      pop\n      pop\n      mload(0x40)\n      dup1\n      swap2\n      sub\n      swap1\n      revert\n    tag_487:\n        /* \"RamzSwapRouter.sol\":8641:8661  uint amountInWithFee */\n      0x00\n        /* \"RamzSwapRouter.sol\":8664:8681  amountIn.mul(997) */\n      tag_488\n        /* \"RamzSwapRouter.sol\":8664:8672  amountIn */\n      dup6\n        /* \"RamzSwapRouter.sol\":8677:8680  997 */\n      0x03e5\n        /* \"RamzSwapRouter.sol\":8664:8681  amountIn.mul(997) */\n      0xffffffff\n        /* \"RamzSwapRouter.sol\":8664:8676  amountIn.mul */\n      tag_489\n        /* \"RamzSwapRouter.sol\":8664:8681  amountIn.mul(997) */\n      and\n      jump\t// in\n    tag_488:\n        /* \"RamzSwapRouter.sol\":8641:8681  uint amountInWithFee = amountIn.mul(997) */\n      swap1\n      pop\n        /* \"RamzSwapRouter.sol\":8691:8705  uint numerator */\n      0x00\n        /* \"RamzSwapRouter.sol\":8708:8739  amountInWithFee.mul(reserveOut) */\n      tag_490\n        /* \"RamzSwapRouter.sol\":8641:8681  uint amountInWithFee = amountIn.mul(997) */\n      dup3\n        /* \"RamzSwapRouter.sol\":8728:8738  reserveOut */\n      dup6\n        /* \"RamzSwapRouter.sol\":8708:8739  amountInWithFee.mul(reserveOut) */\n      0xffffffff\n        /* \"RamzSwapRouter.sol\":8708:8727  amountInWithFee.mul */\n      tag_489\n        /* \"RamzSwapRouter.sol\":8708:8739  amountInWithFee.mul(reserveOut) */\n      and\n      jump\t// in\n    tag_490:\n        /* \"RamzSwapRouter.sol\":8691:8739  uint numerator = amountInWithFee.mul(reserveOut) */\n      swap1\n      pop\n        /* \"RamzSwapRouter.sol\":8749:8765  uint denominator */\n      0x00\n        /* \"RamzSwapRouter.sol\":8768:8808  reserveIn.mul(1000).add(amountInWithFee) */\n      tag_491\n        /* \"RamzSwapRouter.sol\":8792:8807  amountInWithFee */\n      dup4\n        /* \"RamzSwapRouter.sol\":8768:8787  reserveIn.mul(1000) */\n      tag_492\n        /* \"RamzSwapRouter.sol\":8768:8777  reserveIn */\n      dup9\n        /* \"RamzSwapRouter.sol\":8782:8786  1000 */\n      0x03e8\n        /* \"RamzSwapRouter.sol\":8768:8787  reserveIn.mul(1000) */\n      0xffffffff\n        /* \"RamzSwapRouter.sol\":8768:8781  reserveIn.mul */\n      tag_489\n        /* \"RamzSwapRouter.sol\":8768:8787  reserveIn.mul(1000) */\n      and\n      jump\t// in\n    tag_492:\n        /* \"RamzSwapRouter.sol\":8768:8791  reserveIn.mul(1000).add */\n      swap1\n        /* \"RamzSwapRouter.sol\":8768:8808  reserveIn.mul(1000).add(amountInWithFee) */\n      0xffffffff\n        /* \"RamzSwapRouter.sol\":8768:8791  reserveIn.mul(1000).add */\n      tag_493\n        /* \"RamzSwapRouter.sol\":8768:8808  reserveIn.mul(1000).add(amountInWithFee) */\n      and\n      jump\t// in\n    tag_491:\n        /* \"RamzSwapRouter.sol\":8749:8808  uint denominator = reserveIn.mul(1000).add(amountInWithFee) */\n      swap1\n      pop\n        /* \"RamzSwapRouter.sol\":8842:8853  denominator */\n      dup1\n        /* \"RamzSwapRouter.sol\":8830:8839  numerator */\n      dup3\n        /* \"RamzSwapRouter.sol\":8830:8853  numerator / denominator */\n      dup2\n      tag_494\n      jumpi\n      invalid\n    tag_494:\n      div\n      swap8\n        /* \"RamzSwapRouter.sol\":8352:8860  function getAmountOut(uint amountIn, uint reserveIn, uint reserveOut) internal pure returns (uint amountOut) {... */\n      swap7\n      pop\n      pop\n      pop\n      pop\n      pop\n      pop\n      pop\n      jump\t// out\n        /* \"RamzSwapRouter.sol\":10101:10624  function getAmountsIn(address factory, uint amountOut, address[] memory path) internal view returns (uint[] memory amounts) {... */\n    tag_189:\n        /* \"RamzSwapRouter.sol\":10202:10223  uint[] memory amounts */\n      0x60\n        /* \"RamzSwapRouter.sol\":10258:10259  2 */\n      0x02\n        /* \"RamzSwapRouter.sol\":10243:10247  path */\n      dup3\n        /* \"RamzSwapRouter.sol\":10243:10254  path.length */\n      mload\n        /* \"RamzSwapRouter.sol\":10243:10259  path.length >= 2 */\n      lt\n      iszero\n        /* \"RamzSwapRouter.sol\":10235:10293  require(path.length >= 2, 'RamzSwapLibrary: INVALID_PATH') */\n      tag_496\n      jumpi\n      0x40\n      dup1\n      mload\n      shl(0xe5, 0x461bcd)\n      dup2\n      mstore\n      0x20\n      0x04\n      dup3\n      add\n      mstore\n      0x1d\n      0x24\n      dup3\n      add\n      mstore\n      0x52616d7a537761704c6962726172793a20494e56414c49445f50415448000000\n      0x44\n      dup3\n      add\n      mstore\n      swap1\n      mload\n      swap1\n      dup2\n      swap1\n      sub\n      0x64\n      add\n      swap1\n      revert\n    tag_496:\n        /* \"RamzSwapRouter.sol\":10324:10328  path */\n      dup2\n        /* \"RamzSwapRouter.sol\":10324:10335  path.length */\n      mload\n        /* \"RamzSwapRouter.sol\":10313:10336  new uint[](path.length) */\n      0xffffffffffffffff\n      dup2\n      gt\n        /* \"--CODEGEN--\":5:14   */\n      dup1\n        /* \"--CODEGEN--\":2:4   */\n      iszero\n      tag_497\n      jumpi\n        /* \"--CODEGEN--\":27:28   */\n      0x00\n        /* \"--CODEGEN--\":24:25   */\n      dup1\n        /* \"--CODEGEN--\":17:29   */\n      revert\n        /* \"--CODEGEN--\":2:4   */\n    tag_497:\n        /* \"RamzSwapRouter.sol\":10313:10336  new uint[](path.length) */\n      pop\n      mload(0x40)\n      swap1\n      dup1\n      dup3\n      mstore\n      dup1\n      0x20\n      mul\n      0x20\n      add\n      dup3\n      add\n      0x40\n      mstore\n      dup1\n      iszero\n      tag_498\n      jumpi\n      dup2\n      0x20\n      add\n        /* \"--CODEGEN--\":29:31   */\n      0x20\n        /* \"--CODEGEN--\":21:27   */\n      dup3\n        /* \"--CODEGEN--\":17:32   */\n      mul\n        /* \"--CODEGEN--\":125:129   */\n      dup1\n        /* \"--CODEGEN--\":109:123   */\n      calldatasize\n        /* \"--CODEGEN--\":101:107   */\n      dup4\n        /* \"--CODEGEN--\":88:130   */\n      calldatacopy\n        /* \"--CODEGEN--\":144:161   */\n      add\n      swap1\n      pop\n        /* \"RamzSwapRouter.sol\":10313:10336  new uint[](path.length) */\n    tag_498:\n      pop\n        /* \"RamzSwapRouter.sol\":10303:10336  amounts = new uint[](path.length) */\n      swap1\n      pop\n        /* \"RamzSwapRouter.sol\":10376:10385  amountOut */\n      dup3\n        /* \"RamzSwapRouter.sol\":10346:10353  amounts */\n      dup2\n        /* \"RamzSwapRouter.sol\":10371:10372  1 */\n      0x01\n        /* \"RamzSwapRouter.sol\":10354:10361  amounts */\n      dup4\n        /* \"RamzSwapRouter.sol\":10354:10368  amounts.length */\n      mload\n        /* \"RamzSwapRouter.sol\":10354:10372  amounts.length - 1 */\n      sub\n        /* \"RamzSwapRouter.sol\":10346:10373  amounts[amounts.length - 1] */\n      dup2\n      mload\n      dup2\n      lt\n      tag_499\n      jumpi\n      invalid\n    tag_499:\n      0x20\n      swap1\n      dup2\n      mul\n      swap2\n      swap1\n      swap2\n      add\n      add\n        /* \"RamzSwapRouter.sol\":10346:10385  amounts[amounts.length - 1] = amountOut */\n      mstore\n        /* \"RamzSwapRouter.sol\":10409:10420  path.length */\n      dup2\n      mload\n      not(0x00)\n        /* \"RamzSwapRouter.sol\":10409:10424  path.length - 1 */\n      add\n        /* \"RamzSwapRouter.sol\":10395:10618  for (uint i = path.length - 1; i > 0; i--) {... */\n    tag_500:\n        /* \"RamzSwapRouter.sol\":10426:10431  i > 0 */\n      dup1\n      iszero\n        /* \"RamzSwapRouter.sol\":10395:10618  for (uint i = path.length - 1; i > 0; i--) {... */\n      tag_501\n      jumpi\n        /* \"RamzSwapRouter.sol\":10453:10467  uint reserveIn */\n      0x00\n        /* \"RamzSwapRouter.sol\":10469:10484  uint reserveOut */\n      dup1\n        /* \"RamzSwapRouter.sol\":10488:10530  getReserves(factory, path[i - 1], path[i]) */\n      tag_503\n        /* \"RamzSwapRouter.sol\":10500:10507  factory */\n      dup8\n        /* \"RamzSwapRouter.sol\":10509:10513  path */\n      dup7\n        /* \"RamzSwapRouter.sol\":10518:10519  1 */\n      0x01\n        /* \"RamzSwapRouter.sol\":10514:10515  i */\n      dup7\n        /* \"RamzSwapRouter.sol\":10514:10519  i - 1 */\n      sub\n        /* \"RamzSwapRouter.sol\":10509:10520  path[i - 1] */\n      dup2\n      mload\n      dup2\n      lt\n      tag_504\n      jumpi\n      invalid\n    tag_504:\n      0x20\n      mul\n      0x20\n      add\n      add\n      mload\n        /* \"RamzSwapRouter.sol\":10522:10526  path */\n      dup8\n        /* \"RamzSwapRouter.sol\":10527:10528  i */\n      dup7\n        /* \"RamzSwapRouter.sol\":10522:10529  path[i] */\n      dup2\n      mload\n      dup2\n      lt\n      tag_505\n      jumpi\n      invalid\n    tag_505:\n      0x20\n      mul\n      0x20\n      add\n      add\n      mload\n        /* \"RamzSwapRouter.sol\":10488:10499  getReserves */\n      tag_506\n        /* \"RamzSwapRouter.sol\":10488:10530  getReserves(factory, path[i - 1], path[i]) */\n      jump\t// in\n    tag_503:\n        /* \"RamzSwapRouter.sol\":10452:10530  (uint reserveIn, uint reserveOut) = getReserves(factory, path[i - 1], path[i]) */\n      swap2\n      pop\n      swap2\n      pop\n        /* \"RamzSwapRouter.sol\":10561:10607  getAmountIn(amounts[i], reserveIn, reserveOut) */\n      tag_507\n        /* \"RamzSwapRouter.sol\":10573:10580  amounts */\n      dup5\n        /* \"RamzSwapRouter.sol\":10581:10582  i */\n      dup5\n        /* \"RamzSwapRouter.sol\":10573:10583  amounts[i] */\n      dup2\n      mload\n      dup2\n      lt\n      tag_508\n      jumpi\n      invalid\n    tag_508:\n      0x20\n      mul\n      0x20\n      add\n      add\n      mload\n        /* \"RamzSwapRouter.sol\":10585:10594  reserveIn */\n      dup4\n        /* \"RamzSwapRouter.sol\":10596:10606  reserveOut */\n      dup4\n        /* \"RamzSwapRouter.sol\":10561:10572  getAmountIn */\n      tag_365\n        /* \"RamzSwapRouter.sol\":10561:10607  getAmountIn(amounts[i], reserveIn, reserveOut) */\n      jump\t// in\n    tag_507:\n        /* \"RamzSwapRouter.sol\":10544:10551  amounts */\n      dup5\n        /* \"RamzSwapRouter.sol\":10556:10557  1 */\n      0x01\n        /* \"RamzSwapRouter.sol\":10552:10553  i */\n      dup6\n        /* \"RamzSwapRouter.sol\":10552:10557  i - 1 */\n      sub\n        /* \"RamzSwapRouter.sol\":10544:10558  amounts[i - 1] */\n      dup2\n      mload\n      dup2\n      lt\n      tag_509\n      jumpi\n      invalid\n    tag_509:\n      0x20\n      swap1\n      dup2\n      mul\n      swap2\n      swap1\n      swap2\n      add\n      add\n        /* \"RamzSwapRouter.sol\":10544:10607  amounts[i - 1] = getAmountIn(amounts[i], reserveIn, reserveOut) */\n      mstore\n      pop\n      pop\n      not(0x00)\n        /* \"RamzSwapRouter.sol\":10433:10436  i-- */\n      add\n        /* \"RamzSwapRouter.sol\":10395:10618  for (uint i = path.length - 1; i > 0; i--) {... */\n      jump(tag_500)\n    tag_501:\n      pop\n        /* \"RamzSwapRouter.sol\":10101:10624  function getAmountsIn(address factory, uint amountOut, address[] memory path) internal view returns (uint[] memory amounts) {... */\n      swap4\n      swap3\n      pop\n      pop\n      pop\n      jump\t// out\n        /* \"RamzSwapRouter.sol\":6897:7367  function pairFor(address factory, address tokenA, address tokenB) internal pure returns (address pair) {... */\n    tag_197:\n        /* \"RamzSwapRouter.sol\":6986:6998  address pair */\n      0x00\n        /* \"RamzSwapRouter.sol\":7011:7025  address token0 */\n      dup1\n        /* \"RamzSwapRouter.sol\":7027:7041  address token1 */\n      0x00\n        /* \"RamzSwapRouter.sol\":7045:7071  sortTokens(tokenA, tokenB) */\n      tag_511\n        /* \"RamzSwapRouter.sol\":7056:7062  tokenA */\n      dup6\n        /* \"RamzSwapRouter.sol\":7064:7070  tokenB */\n      dup6\n        /* \"RamzSwapRouter.sol\":7045:7055  sortTokens */\n      tag_395\n        /* \"RamzSwapRouter.sol\":7045:7071  sortTokens(tokenA, tokenB) */\n      jump\t// in\n    tag_511:\n        /* \"RamzSwapRouter.sol\":7205:7237  abi.encodePacked(token0, token1) */\n      0x40\n      dup1\n      mload\n      not(0xffffffffffffffffffffffff)\n      0x60\n      swap5\n      dup6\n      shl\n      dup2\n      and\n      0x20\n      dup1\n      dup5\n      add\n      swap2\n      swap1\n      swap2\n      mstore\n      swap4\n      dup6\n      shl\n      dup2\n      and\n      0x34\n      dup4\n      add\n      mstore\n      dup3\n      mload\n        /* \"--CODEGEN--\":22:54   */\n      0x28\n        /* \"--CODEGEN--\":26:47   */\n      dup2\n      dup5\n      sub\n        /* \"--CODEGEN--\":22:54   */\n      add\n        /* \"--CODEGEN--\":6:55   */\n      dup2\n      mstore\n        /* \"RamzSwapRouter.sol\":7205:7237  abi.encodePacked(token0, token1) */\n      0x48\n      dup4\n      add\n      dup5\n      mstore\n        /* \"RamzSwapRouter.sol\":7195:7238  keccak256(abi.encodePacked(token0, token1)) */\n      dup1\n      mload\n      swap1\n      dup6\n      add\n      keccak256\n      not(sub(shl(0xf8, 0x01), 0x01))\n        /* \"RamzSwapRouter.sol\":7111:7357  abi.encodePacked(... */\n      0x68\n      dup5\n      add\n      mstore\n      swap11\n      swap1\n      swap5\n      shl\n      swap1\n      swap4\n      and\n      0x69\n      dup5\n      add\n      mstore\n      0x7d\n      dup4\n      add\n      swap9\n      swap1\n      swap9\n      mstore\n      0x2c8834d5b43c053f2f3b100c32a41e6f5db856acc6661dc09582cb2cd4d7608e\n      0x9d\n      dup1\n      dup5\n      add\n      swap2\n      swap1\n      swap2\n      mstore\n      dup9\n      mload\n        /* \"--CODEGEN--\":26:47   */\n      dup1\n      dup5\n      sub\n        /* \"--CODEGEN--\":22:54   */\n      swap1\n      swap2\n      add\n        /* \"--CODEGEN--\":6:55   */\n      dup2\n      mstore\n        /* \"RamzSwapRouter.sol\":7111:7357  abi.encodePacked(... */\n      0xbd\n      swap1\n      swap3\n      add\n      swap1\n      swap8\n      mstore\n        /* \"RamzSwapRouter.sol\":7101:7358  keccak256(abi.encodePacked(... */\n      dup1\n      mload\n      swap7\n      add\n      swap6\n      swap1\n      swap6\n      keccak256\n      swap6\n        /* \"RamzSwapRouter.sol\":6897:7367  function pairFor(address factory, address tokenA, address tokenB) internal pure returns (address pair) {... */\n      swap5\n      pop\n      pop\n      pop\n      pop\n      pop\n      jump\t// out\n        /* \"RamzSwapRouter.sol\":1588:2074  function safeTransferFrom(... */\n    tag_199:\n        /* \"RamzSwapRouter.sol\":1852:1903  abi.encodeWithSelector(0x23b872dd, from, to, value) */\n      0x40\n      dup1\n      mload\n      sub(shl(0xa0, 0x01), 0x01)\n      dup6\n      dup2\n      and\n      0x24\n      dup4\n      add\n      mstore\n      dup5\n      dup2\n      and\n      0x44\n      dup4\n      add\n      mstore\n      0x64\n      dup1\n      dup4\n      add\n      dup6\n      swap1\n      mstore\n      dup4\n      mload\n        /* \"--CODEGEN--\":26:47   */\n      dup1\n      dup5\n      sub\n        /* \"--CODEGEN--\":22:54   */\n      swap1\n      swap2\n      add\n        /* \"--CODEGEN--\":6:55   */\n      dup2\n      mstore\n        /* \"RamzSwapRouter.sol\":1852:1903  abi.encodeWithSelector(0x23b872dd, from, to, value) */\n      0x84\n      swap1\n      swap3\n      add\n      dup4\n      mstore\n      0x20\n        /* \"--CODEGEN--\":25:43   */\n      dup3\n      add\n        /* \"--CODEGEN--\":61:78   */\n      dup1\n      mload\n      sub(shl(0xe0, 0x01), 0x01)\n        /* \"--CODEGEN--\":182:197   */\n      and\n      shl(0xe0, 0x23b872dd)\n        /* \"--CODEGEN--\":179:208   */\n      or\n        /* \"--CODEGEN--\":160:209   */\n      dup2\n      mstore\n        /* \"RamzSwapRouter.sol\":1841:1904  token.call(abi.encodeWithSelector(0x23b872dd, from, to, value)) */\n      swap3\n      mload\n      dup3\n      mload\n        /* \"RamzSwapRouter.sol\":1806:1818  bool success */\n      0x00\n      swap5\n        /* \"RamzSwapRouter.sol\":1820:1837  bytes memory data */\n      0x60\n      swap5\n        /* \"RamzSwapRouter.sol\":1841:1851  token.call */\n      swap4\n      dup11\n      and\n      swap4\n        /* \"RamzSwapRouter.sol\":1852:1903  abi.encodeWithSelector(0x23b872dd, from, to, value) */\n      swap3\n        /* \"RamzSwapRouter.sol\":1841:1904  token.call(abi.encodeWithSelector(0x23b872dd, from, to, value)) */\n      swap2\n      dup3\n      swap2\n        /* \"--CODEGEN--\":25:43   */\n      swap1\n        /* \"RamzSwapRouter.sol\":1841:1904  token.call(abi.encodeWithSelector(0x23b872dd, from, to, value)) */\n      dup1\n      dup4\n        /* \"--CODEGEN--\":25:43   */\n      dup4\n        /* \"--CODEGEN--\":36:189   */\n    tag_513:\n        /* \"--CODEGEN--\":66:68   */\n      0x20\n        /* \"--CODEGEN--\":61:64   */\n      dup4\n        /* \"--CODEGEN--\":58:69   */\n      lt\n        /* \"--CODEGEN--\":36:189   */\n      tag_515\n      jumpi\n        /* \"--CODEGEN--\":176:186   */\n      dup1\n      mload\n        /* \"--CODEGEN--\":164:187   */\n      dup3\n      mstore\n      not(0x1f)\n        /* \"--CODEGEN--\":139:151   */\n      swap1\n      swap3\n      add\n      swap2\n        /* \"--CODEGEN--\":98:100   */\n      0x20\n        /* \"--CODEGEN--\":89:101   */\n      swap2\n      dup3\n      add\n      swap2\n        /* \"--CODEGEN--\":114:126   */\n      add\n        /* \"--CODEGEN--\":36:189   */\n      jump(tag_513)\n    tag_515:\n        /* \"--CODEGEN--\":274:275   */\n      0x01\n        /* \"--CODEGEN--\":267:270   */\n      dup4\n        /* \"--CODEGEN--\":263:265   */\n      0x20\n        /* \"--CODEGEN--\":259:271   */\n      sub\n        /* \"--CODEGEN--\":254:257   */\n      0x0100\n        /* \"--CODEGEN--\":250:272   */\n      exp\n        /* \"--CODEGEN--\":246:276   */\n      sub\n        /* \"--CODEGEN--\":315:319   */\n      dup1\n        /* \"--CODEGEN--\":311:320   */\n      not\n        /* \"--CODEGEN--\":305:308   */\n      dup3\n        /* \"--CODEGEN--\":299:309   */\n      mload\n        /* \"--CODEGEN--\":295:321   */\n      and\n        /* \"--CODEGEN--\":356:360   */\n      dup2\n        /* \"--CODEGEN--\":350:353   */\n      dup5\n        /* \"--CODEGEN--\":344:354   */\n      mload\n        /* \"--CODEGEN--\":340:361   */\n      and\n        /* \"--CODEGEN--\":389:396   */\n      dup1\n        /* \"--CODEGEN--\":380:387   */\n      dup3\n        /* \"--CODEGEN--\":377:397   */\n      or\n        /* \"--CODEGEN--\":372:375   */\n      dup6\n        /* \"--CODEGEN--\":365:398   */\n      mstore\n        /* \"--CODEGEN--\":3:402   */\n      pop\n      pop\n      pop\n        /* \"RamzSwapRouter.sol\":1841:1904  token.call(abi.encodeWithSelector(0x23b872dd, from, to, value)) */\n      pop\n      pop\n      pop\n      swap1\n      pop\n      add\n      swap2\n      pop\n      pop\n      0x00\n      mload(0x40)\n      dup1\n      dup4\n      sub\n      dup2\n      0x00\n      dup7\n      gas\n      call\n      swap2\n      pop\n      pop\n      returndatasize\n        /* \"--CODEGEN--\":12:13   */\n      dup1\n        /* \"--CODEGEN--\":19:20   */\n      0x00\n        /* \"--CODEGEN--\":14:41   */\n      dup2\n      eq\n      tag_518\n      jumpi\n        /* \"--CODEGEN--\":67:71   */\n      0x40\n        /* \"--CODEGEN--\":61:72   */\n      mload\n        /* \"--CODEGEN--\":56:72   */\n      swap2\n      pop\n        /* \"--CODEGEN--\":134:138   */\n      0x1f\n        /* \"--CODEGEN--\":130:139   */\n      not\n        /* \"--CODEGEN--\":123:127   */\n      0x3f\n        /* \"--CODEGEN--\":105:121   */\n      returndatasize\n        /* \"--CODEGEN--\":101:128   */\n      add\n        /* \"--CODEGEN--\":97:140   */\n      and\n        /* \"--CODEGEN--\":94:95   */\n      dup3\n        /* \"--CODEGEN--\":90:141   */\n      add\n        /* \"--CODEGEN--\":84:88   */\n      0x40\n        /* \"--CODEGEN--\":77:142   */\n      mstore\n        /* \"--CODEGEN--\":157:173   */\n      returndatasize\n        /* \"--CODEGEN--\":154:155   */\n      dup3\n        /* \"--CODEGEN--\":147:174   */\n      mstore\n        /* \"--CODEGEN--\":211:227   */\n      returndatasize\n        /* \"--CODEGEN--\":208:209   */\n      0x00\n        /* \"--CODEGEN--\":201:205   */\n      0x20\n        /* \"--CODEGEN--\":198:199   */\n      dup5\n        /* \"--CODEGEN--\":194:206   */\n      add\n        /* \"--CODEGEN--\":179:228   */\n      returndatacopy\n        /* \"--CODEGEN--\":5:233   */\n      jump(tag_517)\n        /* \"--CODEGEN--\":14:41   */\n    tag_518:\n        /* \"--CODEGEN--\":32:36   */\n      0x60\n        /* \"--CODEGEN--\":27:36   */\n      swap2\n      pop\n        /* \"--CODEGEN--\":5:233   */\n    tag_517:\n      pop\n        /* \"RamzSwapRouter.sol\":1805:1904  (bool success, bytes memory data) = token.call(abi.encodeWithSelector(0x23b872dd, from, to, value)) */\n      swap2\n      pop\n      swap2\n      pop\n        /* \"RamzSwapRouter.sol\":1935:1942  success */\n      dup2\n        /* \"RamzSwapRouter.sol\":1935:1992  success && (data.length == 0 || abi.decode(data, (bool))) */\n      dup1\n      iszero\n      tag_520\n      jumpi\n      pop\n        /* \"RamzSwapRouter.sol\":1947:1958  data.length */\n      dup1\n      mload\n        /* \"RamzSwapRouter.sol\":1947:1963  data.length == 0 */\n      iszero\n      dup1\n        /* \"RamzSwapRouter.sol\":1947:1991  data.length == 0 || abi.decode(data, (bool)) */\n      tag_520\n      jumpi\n      pop\n        /* \"RamzSwapRouter.sol\":1978:1982  data */\n      dup1\n        /* \"RamzSwapRouter.sol\":1967:1991  abi.decode(data, (bool)) */\n      dup1\n      0x20\n      add\n      swap1\n      mload\n        /* \"--CODEGEN--\":15:17   */\n      0x20\n        /* \"--CODEGEN--\":10:13   */\n      dup2\n        /* \"--CODEGEN--\":7:18   */\n      lt\n        /* \"--CODEGEN--\":4:6   */\n      iszero\n      tag_521\n      jumpi\n        /* \"--CODEGEN--\":31:32   */\n      0x00\n        /* \"--CODEGEN--\":28:29   */\n      dup1\n        /* \"--CODEGEN--\":21:33   */\n      revert\n        /* \"--CODEGEN--\":4:6   */\n    tag_521:\n      pop\n        /* \"RamzSwapRouter.sol\":1967:1991  abi.decode(data, (bool)) */\n      mload\n        /* \"RamzSwapRouter.sol\":1947:1991  data.length == 0 || abi.decode(data, (bool)) */\n    tag_520:\n        /* \"RamzSwapRouter.sol\":1914:2067  require(... */\n      tag_522\n      jumpi\n      mload(0x40)\n      shl(0xe5, 0x461bcd)\n      dup2\n      mstore\n      0x04\n      add\n      dup1\n      dup1\n      0x20\n      add\n      dup3\n      dup2\n      sub\n      dup3\n      mstore\n      0x31\n      dup2\n      mstore\n      0x20\n      add\n      dup1\n      data_3f8faf98afe9344b6d4b0e75b0101259bf282914b3b5a9320c6918b6e27ede1c\n      0x31\n      swap2\n      codecopy\n      0x40\n      add\n      swap2\n      pop\n      pop\n      mload(0x40)\n      dup1\n      swap2\n      sub\n      swap1\n      revert\n    tag_522:\n        /* \"RamzSwapRouter.sol\":1588:2074  function safeTransferFrom(... */\n      pop\n      pop\n      pop\n      pop\n      pop\n      pop\n      jump\t// out\n        /* \"RamzSwapRouter.sol\":23479:24199  function _swap(uint[] memory amounts, address[] memory path, address _to) internal virtual {... */\n    tag_201:\n        /* \"RamzSwapRouter.sol\":23585:23591  uint i */\n      0x00\n        /* \"RamzSwapRouter.sol\":23580:24193  for (uint i; i < path.length - 1; i++) {... */\n    tag_524:\n        /* \"RamzSwapRouter.sol\":23611:23612  1 */\n      0x01\n        /* \"RamzSwapRouter.sol\":23597:23601  path */\n      dup4\n        /* \"RamzSwapRouter.sol\":23597:23608  path.length */\n      mload\n        /* \"RamzSwapRouter.sol\":23597:23612  path.length - 1 */\n      sub\n        /* \"RamzSwapRouter.sol\":23593:23594  i */\n      dup2\n        /* \"RamzSwapRouter.sol\":23593:23612  i < path.length - 1 */\n      lt\n        /* \"RamzSwapRouter.sol\":23580:24193  for (uint i; i < path.length - 1; i++) {... */\n      iszero\n      tag_525\n      jumpi\n        /* \"RamzSwapRouter.sol\":23634:23647  address input */\n      0x00\n        /* \"RamzSwapRouter.sol\":23649:23663  address output */\n      dup1\n        /* \"RamzSwapRouter.sol\":23668:23672  path */\n      dup5\n        /* \"RamzSwapRouter.sol\":23673:23674  i */\n      dup4\n        /* \"RamzSwapRouter.sol\":23668:23675  path[i] */\n      dup2\n      mload\n      dup2\n      lt\n      tag_527\n      jumpi\n      invalid\n    tag_527:\n      0x20\n      mul\n      0x20\n      add\n      add\n      mload\n        /* \"RamzSwapRouter.sol\":23677:23681  path */\n      dup6\n        /* \"RamzSwapRouter.sol\":23682:23683  i */\n      dup5\n        /* \"RamzSwapRouter.sol\":23686:23687  1 */\n      0x01\n        /* \"RamzSwapRouter.sol\":23682:23687  i + 1 */\n      add\n        /* \"RamzSwapRouter.sol\":23677:23688  path[i + 1] */\n      dup2\n      mload\n      dup2\n      lt\n      tag_528\n      jumpi\n      invalid\n    tag_528:\n      0x20\n      mul\n      0x20\n      add\n      add\n      mload\n        /* \"RamzSwapRouter.sol\":23633:23689  (address input, address output) = (path[i], path[i + 1]) */\n      swap2\n      pop\n      swap2\n      pop\n        /* \"RamzSwapRouter.sol\":23704:23718  address token0 */\n      0x00\n        /* \"RamzSwapRouter.sol\":23723:23764  RamzSwapLibrary.sortTokens(input, output) */\n      tag_529\n        /* \"RamzSwapRouter.sol\":23750:23755  input */\n      dup4\n        /* \"RamzSwapRouter.sol\":23757:23763  output */\n      dup4\n        /* \"RamzSwapRouter.sol\":23723:23749  RamzSwapLibrary.sortTokens */\n      tag_395\n        /* \"RamzSwapRouter.sol\":23723:23764  RamzSwapLibrary.sortTokens(input, output) */\n      jump\t// in\n    tag_529:\n        /* \"RamzSwapRouter.sol\":23703:23764  (address token0,) = RamzSwapLibrary.sortTokens(input, output) */\n      pop\n      swap1\n      pop\n        /* \"RamzSwapRouter.sol\":23778:23792  uint amountOut */\n      0x00\n        /* \"RamzSwapRouter.sol\":23795:23802  amounts */\n      dup8\n        /* \"RamzSwapRouter.sol\":23803:23804  i */\n      dup6\n        /* \"RamzSwapRouter.sol\":23807:23808  1 */\n      0x01\n        /* \"RamzSwapRouter.sol\":23803:23808  i + 1 */\n      add\n        /* \"RamzSwapRouter.sol\":23795:23809  amounts[i + 1] */\n      dup2\n      mload\n      dup2\n      lt\n      tag_530\n      jumpi\n      invalid\n    tag_530:\n      0x20\n      mul\n      0x20\n      add\n      add\n      mload\n        /* \"RamzSwapRouter.sol\":23778:23809  uint amountOut = amounts[i + 1] */\n      swap1\n      pop\n        /* \"RamzSwapRouter.sol\":23824:23839  uint amount0Out */\n      0x00\n        /* \"RamzSwapRouter.sol\":23841:23856  uint amount1Out */\n      dup1\n        /* \"RamzSwapRouter.sol\":23869:23875  token0 */\n      dup4\n      sub(shl(0xa0, 0x01), 0x01)\n        /* \"RamzSwapRouter.sol\":23860:23875  input == token0 */\n      and\n        /* \"RamzSwapRouter.sol\":23860:23865  input */\n      dup7\n      sub(shl(0xa0, 0x01), 0x01)\n        /* \"RamzSwapRouter.sol\":23860:23875  input == token0 */\n      and\n      eq\n        /* \"RamzSwapRouter.sol\":23860:23921  input == token0 ? (uint(0), amountOut) : (amountOut, uint(0)) */\n      tag_531\n      jumpi\n        /* \"RamzSwapRouter.sol\":23902:23911  amountOut */\n      dup3\n        /* \"RamzSwapRouter.sol\":23918:23919  0 */\n      0x00\n        /* \"RamzSwapRouter.sol\":23860:23921  input == token0 ? (uint(0), amountOut) : (amountOut, uint(0)) */\n      jump(tag_532)\n    tag_531:\n        /* \"RamzSwapRouter.sol\":23884:23885  0 */\n      0x00\n        /* \"RamzSwapRouter.sol\":23888:23897  amountOut */\n      dup4\n        /* \"RamzSwapRouter.sol\":23860:23921  input == token0 ? (uint(0), amountOut) : (amountOut, uint(0)) */\n    tag_532:\n        /* \"RamzSwapRouter.sol\":23823:23921  (uint amount0Out, uint amount1Out) = input == token0 ? (uint(0), amountOut) : (amountOut, uint(0)) */\n      swap2\n      pop\n      swap2\n      pop\n        /* \"RamzSwapRouter.sol\":23935:23945  address to */\n      0x00\n        /* \"RamzSwapRouter.sol\":23966:23967  2 */\n      0x02\n        /* \"RamzSwapRouter.sol\":23952:23956  path */\n      dup11\n        /* \"RamzSwapRouter.sol\":23952:23963  path.length */\n      mload\n        /* \"RamzSwapRouter.sol\":23952:23967  path.length - 2 */\n      sub\n        /* \"RamzSwapRouter.sol\":23948:23949  i */\n      dup9\n        /* \"RamzSwapRouter.sol\":23948:23967  i < path.length - 2 */\n      lt\n        /* \"RamzSwapRouter.sol\":23948:24029  i < path.length - 2 ? RamzSwapLibrary.pairFor(factory, output, path[i + 2]) : _to */\n      tag_533\n      jumpi\n        /* \"RamzSwapRouter.sol\":24026:24029  _to */\n      dup9\n        /* \"RamzSwapRouter.sol\":23948:24029  i < path.length - 2 ? RamzSwapLibrary.pairFor(factory, output, path[i + 2]) : _to */\n      jump(tag_535)\n    tag_533:\n        /* \"RamzSwapRouter.sol\":23970:24023  RamzSwapLibrary.pairFor(factory, output, path[i + 2]) */\n      tag_535\n        /* \"RamzSwapRouter.sol\":23994:24001  factory */\n      immutable(\"0x173bb80bf7ae3dde444a25d8c84de4e84891034d416e0f0ffbc56cab6043ec24\")\n        /* \"RamzSwapRouter.sol\":24003:24009  output */\n      dup8\n        /* \"RamzSwapRouter.sol\":24011:24015  path */\n      dup13\n        /* \"RamzSwapRouter.sol\":24016:24017  i */\n      dup12\n        /* \"RamzSwapRouter.sol\":24020:24021  2 */\n      0x02\n        /* \"RamzSwapRouter.sol\":24016:24021  i + 2 */\n      add\n        /* \"RamzSwapRouter.sol\":24011:24022  path[i + 2] */\n      dup2\n      mload\n      dup2\n      lt\n      tag_536\n      jumpi\n      invalid\n    tag_536:\n      0x20\n      mul\n      0x20\n      add\n      add\n      mload\n        /* \"RamzSwapRouter.sol\":23970:23993  RamzSwapLibrary.pairFor */\n      tag_197\n        /* \"RamzSwapRouter.sol\":23970:24023  RamzSwapLibrary.pairFor(factory, output, path[i + 2]) */\n      jump\t// in\n    tag_535:\n        /* \"RamzSwapRouter.sol\":23935:24029  address to = i < path.length - 2 ? RamzSwapLibrary.pairFor(factory, output, path[i + 2]) : _to */\n      swap1\n      pop\n        /* \"RamzSwapRouter.sol\":24057:24104  RamzSwapLibrary.pairFor(factory, input, output) */\n      tag_537\n        /* \"RamzSwapRouter.sol\":24081:24088  factory */\n      immutable(\"0x173bb80bf7ae3dde444a25d8c84de4e84891034d416e0f0ffbc56cab6043ec24\")\n        /* \"RamzSwapRouter.sol\":24090:24095  input */\n      dup9\n        /* \"RamzSwapRouter.sol\":24097:24103  output */\n      dup9\n        /* \"RamzSwapRouter.sol\":24057:24080  RamzSwapLibrary.pairFor */\n      tag_197\n        /* \"RamzSwapRouter.sol\":24057:24104  RamzSwapLibrary.pairFor(factory, input, output) */\n      jump\t// in\n    tag_537:\n      sub(shl(0xa0, 0x01), 0x01)\n        /* \"RamzSwapRouter.sol\":24043:24110  IRamzSwapPair(RamzSwapLibrary.pairFor(factory, input, output)).swap */\n      and\n      0x022c0d9f\n        /* \"RamzSwapRouter.sol\":24128:24138  amount0Out */\n      dup5\n        /* \"RamzSwapRouter.sol\":24140:24150  amount1Out */\n      dup5\n        /* \"RamzSwapRouter.sol\":24152:24154  to */\n      dup5\n        /* \"RamzSwapRouter.sol\":24166:24167  0 */\n      0x00\n        /* \"RamzSwapRouter.sol\":24156:24168  new bytes(0) */\n      mload(0x40)\n      swap1\n      dup1\n      dup3\n      mstore\n      dup1\n      0x1f\n      add\n      not(0x1f)\n      and\n      0x20\n      add\n      dup3\n      add\n      0x40\n      mstore\n      dup1\n      iszero\n      tag_539\n      jumpi\n      0x20\n      dup3\n      add\n        /* \"--CODEGEN--\":21:27   */\n      dup2\n      dup1\n        /* \"--CODEGEN--\":108:122   */\n      calldatasize\n        /* \"RamzSwapRouter.sol\":24156:24168  new bytes(0) */\n      dup4\n        /* \"--CODEGEN--\":87:129   */\n      calldatacopy\n        /* \"--CODEGEN--\":143:160   */\n      add\n      swap1\n      pop\n        /* \"RamzSwapRouter.sol\":24156:24168  new bytes(0) */\n    tag_539:\n      pop\n        /* \"RamzSwapRouter.sol\":24043:24182  IRamzSwapPair(RamzSwapLibrary.pairFor(factory, input, output)).swap(... */\n      mload(0x40)\n      dup6\n      0xffffffff\n      and\n      0xe0\n      shl\n      dup2\n      mstore\n      0x04\n      add\n      dup1\n      dup6\n      dup2\n      mstore\n      0x20\n      add\n      dup5\n      dup2\n      mstore\n      0x20\n      add\n      dup4\n      sub(shl(0xa0, 0x01), 0x01)\n      and\n      sub(shl(0xa0, 0x01), 0x01)\n      and\n      dup2\n      mstore\n      0x20\n      add\n      dup1\n      0x20\n      add\n      dup3\n      dup2\n      sub\n      dup3\n      mstore\n      dup4\n      dup2\n      dup2\n      mload\n      dup2\n      mstore\n      0x20\n      add\n      swap2\n      pop\n      dup1\n      mload\n      swap1\n      0x20\n      add\n      swap1\n      dup1\n      dup4\n      dup4\n        /* \"--CODEGEN--\":23:24   */\n      0x00\n        /* \"--CODEGEN--\":8:108   */\n    tag_540:\n        /* \"--CODEGEN--\":33:36   */\n      dup4\n        /* \"--CODEGEN--\":30:31   */\n      dup2\n        /* \"--CODEGEN--\":27:37   */\n      lt\n        /* \"--CODEGEN--\":8:108   */\n      iszero\n      tag_542\n      jumpi\n        /* \"--CODEGEN--\":90:101   */\n      dup2\n      dup2\n      add\n        /* \"--CODEGEN--\":84:102   */\n      mload\n        /* \"--CODEGEN--\":71:82   */\n      dup4\n      dup3\n      add\n        /* \"--CODEGEN--\":64:103   */\n      mstore\n        /* \"--CODEGEN--\":52:54   */\n      0x20\n        /* \"--CODEGEN--\":45:55   */\n      add\n        /* \"--CODEGEN--\":8:108   */\n      jump(tag_540)\n    tag_542:\n        /* \"--CODEGEN--\":12:26   */\n      pop\n        /* \"RamzSwapRouter.sol\":24043:24182  IRamzSwapPair(RamzSwapLibrary.pairFor(factory, input, output)).swap(... */\n      pop\n      pop\n      pop\n      swap1\n      pop\n      swap1\n      dup2\n      add\n      swap1\n      0x1f\n      and\n      dup1\n      iszero\n      tag_543\n      jumpi\n      dup1\n      dup3\n      sub\n      dup1\n      mload\n      0x01\n      dup4\n      0x20\n      sub\n      0x0100\n      exp\n      sub\n      not\n      and\n      dup2\n      mstore\n      0x20\n      add\n      swap2\n      pop\n    tag_543:\n      pop\n      swap6\n      pop\n      pop\n      pop\n      pop\n      pop\n      pop\n      0x00\n      mload(0x40)\n      dup1\n      dup4\n      sub\n      dup2\n      0x00\n      dup8\n      dup1\n      extcodesize\n      iszero\n        /* \"--CODEGEN--\":5:14   */\n      dup1\n        /* \"--CODEGEN--\":2:4   */\n      iszero\n      tag_544\n      jumpi\n        /* \"--CODEGEN--\":27:28   */\n      0x00\n        /* \"--CODEGEN--\":24:25   */\n      dup1\n        /* \"--CODEGEN--\":17:29   */\n      revert\n        /* \"--CODEGEN--\":2:4   */\n    tag_544:\n        /* \"RamzSwapRouter.sol\":24043:24182  IRamzSwapPair(RamzSwapLibrary.pairFor(factory, input, output)).swap(... */\n      pop\n      gas\n      call\n      iszero\n        /* \"--CODEGEN--\":8:17   */\n      dup1\n        /* \"--CODEGEN--\":5:7   */\n      iszero\n      tag_546\n      jumpi\n        /* \"--CODEGEN--\":45:61   */\n      returndatasize\n        /* \"--CODEGEN--\":42:43   */\n      0x00\n        /* \"--CODEGEN--\":39:40   */\n      dup1\n        /* \"--CODEGEN--\":24:62   */\n      returndatacopy\n        /* \"--CODEGEN--\":77:93   */\n      returndatasize\n        /* \"--CODEGEN--\":74:75   */\n      0x00\n        /* \"--CODEGEN--\":67:94   */\n      revert\n        /* \"--CODEGEN--\":5:7   */\n    tag_546:\n      pop\n      pop\n        /* \"RamzSwapRouter.sol\":23614:23617  i++ */\n      0x01\n      swap1\n      swap10\n      add\n      swap9\n      pop\n        /* \"RamzSwapRouter.sol\":23580:24193  for (uint i; i < path.length - 1; i++) {... */\n      tag_524\n      swap8\n      pop\n      pop\n      pop\n      pop\n      pop\n      pop\n      pop\n      pop\n      jump\n    tag_525:\n      pop\n        /* \"RamzSwapRouter.sol\":23479:24199  function _swap(uint[] memory amounts, address[] memory path, address _to) internal virtual {... */\n      pop\n      pop\n      pop\n      jump\t// out\n        /* \"RamzSwapRouter.sol\":2080:2297  function safeTransferMAAL(address to, uint256 value) internal {... */\n    tag_208:\n        /* \"RamzSwapRouter.sol\":2193:2205  new bytes(0) */\n      0x40\n      dup1\n      mload\n        /* \"RamzSwapRouter.sol\":2153:2165  bool success */\n      0x00\n        /* \"RamzSwapRouter.sol\":2193:2205  new bytes(0) */\n      dup1\n      dup3\n      mstore\n      0x20\n      dup3\n      add\n      swap1\n      swap3\n      mstore\n      sub(shl(0xa0, 0x01), 0x01)\n        /* \"RamzSwapRouter.sol\":2171:2178  to.call */\n      dup5\n      and\n      swap1\n        /* \"RamzSwapRouter.sol\":2186:2191  value */\n      dup4\n      swap1\n        /* \"RamzSwapRouter.sol\":2171:2206  to.call{value: value}(new bytes(0)) */\n      mload(0x40)\n      dup1\n      dup3\n      dup1\n      mload\n      swap1\n      0x20\n      add\n      swap1\n      dup1\n      dup4\n      dup4\n        /* \"--CODEGEN--\":36:189   */\n    tag_550:\n        /* \"--CODEGEN--\":66:68   */\n      0x20\n        /* \"--CODEGEN--\":61:64   */\n      dup4\n        /* \"--CODEGEN--\":58:69   */\n      lt\n        /* \"--CODEGEN--\":36:189   */\n      tag_552\n      jumpi\n        /* \"--CODEGEN--\":176:186   */\n      dup1\n      mload\n        /* \"--CODEGEN--\":164:187   */\n      dup3\n      mstore\n      not(0x1f)\n        /* \"--CODEGEN--\":139:151   */\n      swap1\n      swap3\n      add\n      swap2\n        /* \"--CODEGEN--\":98:100   */\n      0x20\n        /* \"--CODEGEN--\":89:101   */\n      swap2\n      dup3\n      add\n      swap2\n        /* \"--CODEGEN--\":114:126   */\n      add\n        /* \"--CODEGEN--\":36:189   */\n      jump(tag_550)\n    tag_552:\n        /* \"--CODEGEN--\":274:275   */\n      0x01\n        /* \"--CODEGEN--\":267:270   */\n      dup4\n        /* \"--CODEGEN--\":263:265   */\n      0x20\n        /* \"--CODEGEN--\":259:271   */\n      sub\n        /* \"--CODEGEN--\":254:257   */\n      0x0100\n        /* \"--CODEGEN--\":250:272   */\n      exp\n        /* \"--CODEGEN--\":246:276   */\n      sub\n        /* \"--CODEGEN--\":315:319   */\n      dup1\n        /* \"--CODEGEN--\":311:320   */\n      not\n        /* \"--CODEGEN--\":305:308   */\n      dup3\n        /* \"--CODEGEN--\":299:309   */\n      mload\n        /* \"--CODEGEN--\":295:321   */\n      and\n        /* \"--CODEGEN--\":356:360   */\n      dup2\n        /* \"--CODEGEN--\":350:353   */\n      dup5\n        /* \"--CODEGEN--\":344:354   */\n      mload\n        /* \"--CODEGEN--\":340:361   */\n      and\n        /* \"--CODEGEN--\":389:396   */\n      dup1\n        /* \"--CODEGEN--\":380:387   */\n      dup3\n        /* \"--CODEGEN--\":377:397   */\n      or\n        /* \"--CODEGEN--\":372:375   */\n      dup6\n        /* \"--CODEGEN--\":365:398   */\n      mstore\n        /* \"--CODEGEN--\":3:402   */\n      pop\n      pop\n      pop\n        /* \"RamzSwapRouter.sol\":2171:2206  to.call{value: value}(new bytes(0)) */\n      pop\n      pop\n      pop\n      swap1\n      pop\n      add\n      swap2\n      pop\n      pop\n      0x00\n      mload(0x40)\n      dup1\n      dup4\n      sub\n      dup2\n      dup6\n      dup8\n      gas\n      call\n      swap3\n      pop\n      pop\n      pop\n      returndatasize\n        /* \"--CODEGEN--\":12:13   */\n      dup1\n        /* \"--CODEGEN--\":19:20   */\n      0x00\n        /* \"--CODEGEN--\":14:41   */\n      dup2\n      eq\n      tag_555\n      jumpi\n        /* \"--CODEGEN--\":67:71   */\n      0x40\n        /* \"--CODEGEN--\":61:72   */\n      mload\n        /* \"--CODEGEN--\":56:72   */\n      swap2\n      pop\n        /* \"--CODEGEN--\":134:138   */\n      0x1f\n        /* \"--CODEGEN--\":130:139   */\n      not\n        /* \"--CODEGEN--\":123:127   */\n      0x3f\n        /* \"--CODEGEN--\":105:121   */\n      returndatasize\n        /* \"--CODEGEN--\":101:128   */\n      add\n        /* \"--CODEGEN--\":97:140   */\n      and\n        /* \"--CODEGEN--\":94:95   */\n      dup3\n        /* \"--CODEGEN--\":90:141   */\n      add\n        /* \"--CODEGEN--\":84:88   */\n      0x40\n        /* \"--CODEGEN--\":77:142   */\n      mstore\n        /* \"--CODEGEN--\":157:173   */\n      returndatasize\n        /* \"--CODEGEN--\":154:155   */\n      dup3\n        /* \"--CODEGEN--\":147:174   */\n      mstore\n        /* \"--CODEGEN--\":211:227   */\n      returndatasize\n        /* \"--CODEGEN--\":208:209   */\n      0x00\n        /* \"--CODEGEN--\":201:205   */\n      0x20\n        /* \"--CODEGEN--\":198:199   */\n      dup5\n        /* \"--CODEGEN--\":194:206   */\n      add\n        /* \"--CODEGEN--\":179:228   */\n      returndatacopy\n        /* \"--CODEGEN--\":5:233   */\n      jump(tag_554)\n        /* \"--CODEGEN--\":14:41   */\n    tag_555:\n        /* \"--CODEGEN--\":32:36   */\n      0x60\n        /* \"--CODEGEN--\":27:36   */\n      swap2\n      pop\n        /* \"--CODEGEN--\":5:233   */\n    tag_554:\n      pop\n        /* \"RamzSwapRouter.sol\":2152:2206  (bool success, ) = to.call{value: value}(new bytes(0)) */\n      pop\n      swap1\n      pop\n        /* \"RamzSwapRouter.sol\":2224:2231  success */\n      dup1\n        /* \"RamzSwapRouter.sol\":2216:2290  require(success, 'TransferHelper::safeTransferMAAL: MAAL transfer failed') */\n      tag_556\n      jumpi\n      mload(0x40)\n      shl(0xe5, 0x461bcd)\n      dup2\n      mstore\n      0x04\n      add\n      dup1\n      dup1\n      0x20\n      add\n      dup3\n      dup2\n      sub\n      dup3\n      mstore\n      0x36\n      dup2\n      mstore\n      0x20\n      add\n      dup1\n      data_78b0a74c5e41b267c0a4b62ae10d97fea57d8c1299672445ea846f63a0e96971\n      0x36\n      swap2\n      codecopy\n      0x40\n      add\n      swap2\n      pop\n      pop\n      mload(0x40)\n      dup1\n      swap2\n      sub\n      swap1\n      revert\n    tag_556:\n        /* \"RamzSwapRouter.sol\":2080:2297  function safeTransferMAAL(address to, uint256 value) internal {... */\n      pop\n      pop\n      pop\n      jump\t// out\n        /* \"RamzSwapRouter.sol\":1144:1582  function safeTransfer(... */\n    tag_232:\n        /* \"RamzSwapRouter.sol\":1370:1415  abi.encodeWithSelector(0xa9059cbb, to, value) */\n      0x40\n      dup1\n      mload\n      sub(shl(0xa0, 0x01), 0x01)\n      dup5\n      dup2\n      and\n      0x24\n      dup4\n      add\n      mstore\n      0x44\n      dup1\n      dup4\n      add\n      dup6\n      swap1\n      mstore\n      dup4\n      mload\n        /* \"--CODEGEN--\":26:47   */\n      dup1\n      dup5\n      sub\n        /* \"--CODEGEN--\":22:54   */\n      swap1\n      swap2\n      add\n        /* \"--CODEGEN--\":6:55   */\n      dup2\n      mstore\n        /* \"RamzSwapRouter.sol\":1370:1415  abi.encodeWithSelector(0xa9059cbb, to, value) */\n      0x64\n      swap1\n      swap3\n      add\n      dup4\n      mstore\n      0x20\n        /* \"--CODEGEN--\":25:43   */\n      dup3\n      add\n        /* \"--CODEGEN--\":61:78   */\n      dup1\n      mload\n      sub(shl(0xe0, 0x01), 0x01)\n        /* \"--CODEGEN--\":182:197   */\n      and\n      shl(0xe0, 0xa9059cbb)\n        /* \"--CODEGEN--\":179:208   */\n      or\n        /* \"--CODEGEN--\":160:209   */\n      dup2\n      mstore\n        /* \"RamzSwapRouter.sol\":1359:1416  token.call(abi.encodeWithSelector(0xa9059cbb, to, value)) */\n      swap3\n      mload\n      dup3\n      mload\n        /* \"RamzSwapRouter.sol\":1324:1336  bool success */\n      0x00\n      swap5\n        /* \"RamzSwapRouter.sol\":1338:1355  bytes memory data */\n      0x60\n      swap5\n        /* \"RamzSwapRouter.sol\":1359:1369  token.call */\n      swap4\n      dup10\n      and\n      swap4\n        /* \"RamzSwapRouter.sol\":1370:1415  abi.encodeWithSelector(0xa9059cbb, to, value) */\n      swap3\n        /* \"RamzSwapRouter.sol\":1359:1416  token.call(abi.encodeWithSelector(0xa9059cbb, to, value)) */\n      swap2\n      dup3\n      swap2\n        /* \"--CODEGEN--\":25:43   */\n      swap1\n        /* \"RamzSwapRouter.sol\":1359:1416  token.call(abi.encodeWithSelector(0xa9059cbb, to, value)) */\n      dup1\n      dup4\n        /* \"--CODEGEN--\":25:43   */\n      dup4\n        /* \"--CODEGEN--\":36:189   */\n    tag_558:\n        /* \"--CODEGEN--\":66:68   */\n      0x20\n        /* \"--CODEGEN--\":61:64   */\n      dup4\n        /* \"--CODEGEN--\":58:69   */\n      lt\n        /* \"--CODEGEN--\":36:189   */\n      tag_560\n      jumpi\n        /* \"--CODEGEN--\":176:186   */\n      dup1\n      mload\n        /* \"--CODEGEN--\":164:187   */\n      dup3\n      mstore\n      not(0x1f)\n        /* \"--CODEGEN--\":139:151   */\n      swap1\n      swap3\n      add\n      swap2\n        /* \"--CODEGEN--\":98:100   */\n      0x20\n        /* \"--CODEGEN--\":89:101   */\n      swap2\n      dup3\n      add\n      swap2\n        /* \"--CODEGEN--\":114:126   */\n      add\n        /* \"--CODEGEN--\":36:189   */\n      jump(tag_558)\n    tag_560:\n        /* \"--CODEGEN--\":274:275   */\n      0x01\n        /* \"--CODEGEN--\":267:270   */\n      dup4\n        /* \"--CODEGEN--\":263:265   */\n      0x20\n        /* \"--CODEGEN--\":259:271   */\n      sub\n        /* \"--CODEGEN--\":254:257   */\n      0x0100\n        /* \"--CODEGEN--\":250:272   */\n      exp\n        /* \"--CODEGEN--\":246:276   */\n      sub\n        /* \"--CODEGEN--\":315:319   */\n      dup1\n        /* \"--CODEGEN--\":311:320   */\n      not\n        /* \"--CODEGEN--\":305:308   */\n      dup3\n        /* \"--CODEGEN--\":299:309   */\n      mload\n        /* \"--CODEGEN--\":295:321   */\n      and\n        /* \"--CODEGEN--\":356:360   */\n      dup2\n        /* \"--CODEGEN--\":350:353   */\n      dup5\n        /* \"--CODEGEN--\":344:354   */\n      mload\n        /* \"--CODEGEN--\":340:361   */\n      and\n        /* \"--CODEGEN--\":389:396   */\n      dup1\n        /* \"--CODEGEN--\":380:387   */\n      dup3\n        /* \"--CODEGEN--\":377:397   */\n      or\n        /* \"--CODEGEN--\":372:375   */\n      dup6\n        /* \"--CODEGEN--\":365:398   */\n      mstore\n        /* \"--CODEGEN--\":3:402   */\n      pop\n      pop\n      pop\n        /* \"RamzSwapRouter.sol\":1359:1416  token.call(abi.encodeWithSelector(0xa9059cbb, to, value)) */\n      pop\n      pop\n      pop\n      swap1\n      pop\n      add\n      swap2\n      pop\n      pop\n      0x00\n      mload(0x40)\n      dup1\n      dup4\n      sub\n      dup2\n      0x00\n      dup7\n      gas\n      call\n      swap2\n      pop\n      pop\n      returndatasize\n        /* \"--CODEGEN--\":12:13   */\n      dup1\n        /* \"--CODEGEN--\":19:20   */\n      0x00\n        /* \"--CODEGEN--\":14:41   */\n      dup2\n      eq\n      tag_563\n      jumpi\n        /* \"--CODEGEN--\":67:71   */\n      0x40\n        /* \"--CODEGEN--\":61:72   */\n      mload\n        /* \"--CODEGEN--\":56:72   */\n      swap2\n      pop\n        /* \"--CODEGEN--\":134:138   */\n      0x1f\n        /* \"--CODEGEN--\":130:139   */\n      not\n        /* \"--CODEGEN--\":123:127   */\n      0x3f\n        /* \"--CODEGEN--\":105:121   */\n      returndatasize\n        /* \"--CODEGEN--\":101:128   */\n      add\n        /* \"--CODEGEN--\":97:140   */\n      and\n        /* \"--CODEGEN--\":94:95   */\n      dup3\n        /* \"--CODEGEN--\":90:141   */\n      add\n        /* \"--CODEGEN--\":84:88   */\n      0x40\n        /* \"--CODEGEN--\":77:142   */\n      mstore\n        /* \"--CODEGEN--\":157:173   */\n      returndatasize\n        /* \"--CODEGEN--\":154:155   */\n      dup3\n        /* \"--CODEGEN--\":147:174   */\n      mstore\n        /* \"--CODEGEN--\":211:227   */\n      returndatasize\n        /* \"--CODEGEN--\":208:209   */\n      0x00\n        /* \"--CODEGEN--\":201:205   */\n      0x20\n        /* \"--CODEGEN--\":198:199   */\n      dup5\n        /* \"--CODEGEN--\":194:206   */\n      add\n        /* \"--CODEGEN--\":179:228   */\n      returndatacopy\n        /* \"--CODEGEN--\":5:233   */\n      jump(tag_562)\n        /* \"--CODEGEN--\":14:41   */\n    tag_563:\n        /* \"--CODEGEN--\":32:36   */\n      0x60\n        /* \"--CODEGEN--\":27:36   */\n      swap2\n      pop\n        /* \"--CODEGEN--\":5:233   */\n    tag_562:\n      pop\n        /* \"RamzSwapRouter.sol\":1323:1416  (bool success, bytes memory data) = token.call(abi.encodeWithSelector(0xa9059cbb, to, value)) */\n      swap2\n      pop\n      swap2\n      pop\n        /* \"RamzSwapRouter.sol\":1447:1454  success */\n      dup2\n        /* \"RamzSwapRouter.sol\":1447:1504  success && (data.length == 0 || abi.decode(data, (bool))) */\n      dup1\n      iszero\n      tag_565\n      jumpi\n      pop\n        /* \"RamzSwapRouter.sol\":1459:1470  data.length */\n      dup1\n      mload\n        /* \"RamzSwapRouter.sol\":1459:1475  data.length == 0 */\n      iszero\n      dup1\n        /* \"RamzSwapRouter.sol\":1459:1503  data.length == 0 || abi.decode(data, (bool)) */\n      tag_565\n      jumpi\n      pop\n        /* \"RamzSwapRouter.sol\":1490:1494  data */\n      dup1\n        /* \"RamzSwapRouter.sol\":1479:1503  abi.decode(data, (bool)) */\n      dup1\n      0x20\n      add\n      swap1\n      mload\n        /* \"--CODEGEN--\":15:17   */\n      0x20\n        /* \"--CODEGEN--\":10:13   */\n      dup2\n        /* \"--CODEGEN--\":7:18   */\n      lt\n        /* \"--CODEGEN--\":4:6   */\n      iszero\n      tag_566\n      jumpi\n        /* \"--CODEGEN--\":31:32   */\n      0x00\n        /* \"--CODEGEN--\":28:29   */\n      dup1\n        /* \"--CODEGEN--\":21:33   */\n      revert\n        /* \"--CODEGEN--\":4:6   */\n    tag_566:\n      pop\n        /* \"RamzSwapRouter.sol\":1479:1503  abi.decode(data, (bool)) */\n      mload\n        /* \"RamzSwapRouter.sol\":1459:1503  data.length == 0 || abi.decode(data, (bool)) */\n    tag_565:\n        /* \"RamzSwapRouter.sol\":1426:1575  require(... */\n      tag_567\n      jumpi\n      mload(0x40)\n      shl(0xe5, 0x461bcd)\n      dup2\n      mstore\n      0x04\n      add\n      dup1\n      dup1\n      0x20\n      add\n      dup3\n      dup2\n      sub\n      dup3\n      mstore\n      0x2d\n      dup2\n      mstore\n      0x20\n      add\n      dup1\n      data_daea69421eeb1164e163c36f3d4349f0db3ec4e0d1381bd5bf4faf53496c2611\n      0x2d\n      swap2\n      codecopy\n      0x40\n      add\n      swap2\n      pop\n      pop\n      mload(0x40)\n      dup1\n      swap2\n      sub\n      swap1\n      revert\n    tag_567:\n        /* \"RamzSwapRouter.sol\":1144:1582  function safeTransfer(... */\n      pop\n      pop\n      pop\n      pop\n      pop\n      jump\t// out\n        /* \"RamzSwapRouter.sol\":28705:29897  function _swapSupportingFeeOnTransferTokens(address[] memory path, address _to) internal virtual {... */\n    tag_248:\n        /* \"RamzSwapRouter.sol\":28817:28823  uint i */\n      0x00\n        /* \"RamzSwapRouter.sol\":28812:29891  for (uint i; i < path.length - 1; i++) {... */\n    tag_569:\n        /* \"RamzSwapRouter.sol\":28843:28844  1 */\n      0x01\n        /* \"RamzSwapRouter.sol\":28829:28833  path */\n      dup4\n        /* \"RamzSwapRouter.sol\":28829:28840  path.length */\n      mload\n        /* \"RamzSwapRouter.sol\":28829:28844  path.length - 1 */\n      sub\n        /* \"RamzSwapRouter.sol\":28825:28826  i */\n      dup2\n        /* \"RamzSwapRouter.sol\":28825:28844  i < path.length - 1 */\n      lt\n        /* \"RamzSwapRouter.sol\":28812:29891  for (uint i; i < path.length - 1; i++) {... */\n      iszero\n      tag_556\n      jumpi\n        /* \"RamzSwapRouter.sol\":28866:28879  address input */\n      0x00\n        /* \"RamzSwapRouter.sol\":28881:28895  address output */\n      dup1\n        /* \"RamzSwapRouter.sol\":28900:28904  path */\n      dup5\n        /* \"RamzSwapRouter.sol\":28905:28906  i */\n      dup4\n        /* \"RamzSwapRouter.sol\":28900:28907  path[i] */\n      dup2\n      mload\n      dup2\n      lt\n      tag_572\n      jumpi\n      invalid\n    tag_572:\n      0x20\n      mul\n      0x20\n      add\n      add\n      mload\n        /* \"RamzSwapRouter.sol\":28909:28913  path */\n      dup6\n        /* \"RamzSwapRouter.sol\":28914:28915  i */\n      dup5\n        /* \"RamzSwapRouter.sol\":28918:28919  1 */\n      0x01\n        /* \"RamzSwapRouter.sol\":28914:28919  i + 1 */\n      add\n        /* \"RamzSwapRouter.sol\":28909:28920  path[i + 1] */\n      dup2\n      mload\n      dup2\n      lt\n      tag_573\n      jumpi\n      invalid\n    tag_573:\n      0x20\n      mul\n      0x20\n      add\n      add\n      mload\n        /* \"RamzSwapRouter.sol\":28865:28921  (address input, address output) = (path[i], path[i + 1]) */\n      swap2\n      pop\n      swap2\n      pop\n        /* \"RamzSwapRouter.sol\":28936:28950  address token0 */\n      0x00\n        /* \"RamzSwapRouter.sol\":28955:28996  RamzSwapLibrary.sortTokens(input, output) */\n      tag_574\n        /* \"RamzSwapRouter.sol\":28982:28987  input */\n      dup4\n        /* \"RamzSwapRouter.sol\":28989:28995  output */\n      dup4\n        /* \"RamzSwapRouter.sol\":28955:28981  RamzSwapLibrary.sortTokens */\n      tag_395\n        /* \"RamzSwapRouter.sol\":28955:28996  RamzSwapLibrary.sortTokens(input, output) */\n      jump\t// in\n    tag_574:\n        /* \"RamzSwapRouter.sol\":28935:28996  (address token0,) = RamzSwapLibrary.sortTokens(input, output) */\n      pop\n      swap1\n      pop\n        /* \"RamzSwapRouter.sol\":29010:29028  IRamzSwapPair pair */\n      0x00\n        /* \"RamzSwapRouter.sol\":29045:29092  RamzSwapLibrary.pairFor(factory, input, output) */\n      tag_575\n        /* \"RamzSwapRouter.sol\":29069:29076  factory */\n      immutable(\"0x173bb80bf7ae3dde444a25d8c84de4e84891034d416e0f0ffbc56cab6043ec24\")\n        /* \"RamzSwapRouter.sol\":29078:29083  input */\n      dup6\n        /* \"RamzSwapRouter.sol\":29085:29091  output */\n      dup6\n        /* \"RamzSwapRouter.sol\":29045:29068  RamzSwapLibrary.pairFor */\n      tag_197\n        /* \"RamzSwapRouter.sol\":29045:29092  RamzSwapLibrary.pairFor(factory, input, output) */\n      jump\t// in\n    tag_575:\n        /* \"RamzSwapRouter.sol\":29010:29093  IRamzSwapPair pair = IRamzSwapPair(RamzSwapLibrary.pairFor(factory, input, output)) */\n      swap1\n      pop\n        /* \"RamzSwapRouter.sol\":29107:29123  uint amountInput */\n      0x00\n        /* \"RamzSwapRouter.sol\":29137:29154  uint amountOutput */\n      dup1\n        /* \"RamzSwapRouter.sol\":29223:29236  uint reserve0 */\n      0x00\n        /* \"RamzSwapRouter.sol\":29238:29251  uint reserve1 */\n      dup1\n        /* \"RamzSwapRouter.sol\":29256:29260  pair */\n      dup5\n      sub(shl(0xa0, 0x01), 0x01)\n        /* \"RamzSwapRouter.sol\":29256:29272  pair.getReserves */\n      and\n      0x0902f1ac\n        /* \"RamzSwapRouter.sol\":29256:29274  pair.getReserves() */\n      mload(0x40)\n      dup2\n      0xffffffff\n      and\n      0xe0\n      shl\n      dup2\n      mstore\n      0x04\n      add\n      0x60\n      mload(0x40)\n      dup1\n      dup4\n      sub\n      dup2\n      dup7\n      dup1\n      extcodesize\n      iszero\n        /* \"--CODEGEN--\":5:14   */\n      dup1\n        /* \"--CODEGEN--\":2:4   */\n      iszero\n      tag_576\n      jumpi\n        /* \"--CODEGEN--\":27:28   */\n      0x00\n        /* \"--CODEGEN--\":24:25   */\n      dup1\n        /* \"--CODEGEN--\":17:29   */\n      revert\n        /* \"--CODEGEN--\":2:4   */\n    tag_576:\n        /* \"RamzSwapRouter.sol\":29256:29274  pair.getReserves() */\n      pop\n      gas\n      staticcall\n      iszero\n        /* \"--CODEGEN--\":8:17   */\n      dup1\n        /* \"--CODEGEN--\":5:7   */\n      iszero\n      tag_578\n      jumpi\n        /* \"--CODEGEN--\":45:61   */\n      returndatasize\n        /* \"--CODEGEN--\":42:43   */\n      0x00\n        /* \"--CODEGEN--\":39:40   */\n      dup1\n        /* \"--CODEGEN--\":24:62   */\n      returndatacopy\n        /* \"--CODEGEN--\":77:93   */\n      returndatasize\n        /* \"--CODEGEN--\":74:75   */\n      0x00\n        /* \"--CODEGEN--\":67:94   */\n      revert\n        /* \"--CODEGEN--\":5:7   */\n    tag_578:\n        /* \"RamzSwapRouter.sol\":29256:29274  pair.getReserves() */\n      pop\n      pop\n      pop\n      pop\n      mload(0x40)\n      returndatasize\n        /* \"--CODEGEN--\":15:17   */\n      0x60\n        /* \"--CODEGEN--\":10:13   */\n      dup2\n        /* \"--CODEGEN--\":7:18   */\n      lt\n        /* \"--CODEGEN--\":4:6   */\n      iszero\n      tag_579\n      jumpi\n        /* \"--CODEGEN--\":31:32   */\n      0x00\n        /* \"--CODEGEN--\":28:29   */\n      dup1\n        /* \"--CODEGEN--\":21:33   */\n      revert\n        /* \"--CODEGEN--\":4:6   */\n    tag_579:\n      pop\n        /* \"RamzSwapRouter.sol\":29256:29274  pair.getReserves() */\n      dup1\n      mload\n      0x20\n      swap1\n      swap2\n      add\n      mload\n      sub(shl(0x70, 0x01), 0x01)\n        /* \"RamzSwapRouter.sol\":29222:29274  (uint reserve0, uint reserve1,) = pair.getReserves() */\n      swap2\n      dup3\n      and\n      swap4\n      pop\n      and\n      swap1\n      pop\n        /* \"RamzSwapRouter.sol\":29289:29306  uint reserveInput */\n      0x00\n      dup1\n      sub(shl(0xa0, 0x01), 0x01)\n        /* \"RamzSwapRouter.sol\":29330:29345  input == token0 */\n      dup11\n      dup2\n      and\n      swap1\n      dup10\n      and\n      eq\n        /* \"RamzSwapRouter.sol\":29330:29391  input == token0 ? (reserve0, reserve1) : (reserve1, reserve0) */\n      tag_580\n      jumpi\n        /* \"RamzSwapRouter.sol\":29372:29380  reserve1 */\n      dup3\n        /* \"RamzSwapRouter.sol\":29382:29390  reserve0 */\n      dup5\n        /* \"RamzSwapRouter.sol\":29330:29391  input == token0 ? (reserve0, reserve1) : (reserve1, reserve0) */\n      jump(tag_581)\n    tag_580:\n        /* \"RamzSwapRouter.sol\":29349:29357  reserve0 */\n      dup4\n        /* \"RamzSwapRouter.sol\":29359:29367  reserve1 */\n      dup4\n        /* \"RamzSwapRouter.sol\":29330:29391  input == token0 ? (reserve0, reserve1) : (reserve1, reserve0) */\n    tag_581:\n        /* \"RamzSwapRouter.sol\":29288:29391  (uint reserveInput, uint reserveOutput) = input == token0 ? (reserve0, reserve1) : (reserve1, reserve0) */\n      swap2\n      pop\n      swap2\n      pop\n        /* \"RamzSwapRouter.sol\":29419:29476  IMAAL20(input).balanceOf(address(pair)).sub(reserveInput) */\n      tag_582\n        /* \"RamzSwapRouter.sol\":29463:29475  reserveInput */\n      dup3\n        /* \"RamzSwapRouter.sol\":29427:29432  input */\n      dup12\n      sub(shl(0xa0, 0x01), 0x01)\n        /* \"RamzSwapRouter.sol\":29419:29443  IMAAL20(input).balanceOf */\n      and\n      0x70a08231\n        /* \"RamzSwapRouter.sol\":29452:29456  pair */\n      dup11\n        /* \"RamzSwapRouter.sol\":29419:29458  IMAAL20(input).balanceOf(address(pair)) */\n      mload(0x40)\n      dup3\n      0xffffffff\n      and\n      0xe0\n      shl\n      dup2\n      mstore\n      0x04\n      add\n      dup1\n      dup3\n      sub(shl(0xa0, 0x01), 0x01)\n      and\n      sub(shl(0xa0, 0x01), 0x01)\n      and\n      dup2\n      mstore\n      0x20\n      add\n      swap2\n      pop\n      pop\n      0x20\n      mload(0x40)\n      dup1\n      dup4\n      sub\n      dup2\n      dup7\n      dup1\n      extcodesize\n      iszero\n        /* \"--CODEGEN--\":5:14   */\n      dup1\n        /* \"--CODEGEN--\":2:4   */\n      iszero\n      tag_310\n      jumpi\n        /* \"--CODEGEN--\":27:28   */\n      0x00\n        /* \"--CODEGEN--\":24:25   */\n      dup1\n        /* \"--CODEGEN--\":17:29   */\n      revert\n        /* \"RamzSwapRouter.sol\":29419:29476  IMAAL20(input).balanceOf(address(pair)).sub(reserveInput) */\n    tag_582:\n        /* \"RamzSwapRouter.sol\":29405:29476  amountInput = IMAAL20(input).balanceOf(address(pair)).sub(reserveInput) */\n      swap6\n      pop\n        /* \"RamzSwapRouter.sol\":29505:29575  RamzSwapLibrary.getAmountOut(amountInput, reserveInput, reserveOutput) */\n      tag_587\n        /* \"RamzSwapRouter.sol\":29534:29545  amountInput */\n      dup7\n        /* \"RamzSwapRouter.sol\":29547:29559  reserveInput */\n      dup4\n        /* \"RamzSwapRouter.sol\":29561:29574  reserveOutput */\n      dup4\n        /* \"RamzSwapRouter.sol\":29505:29533  RamzSwapLibrary.getAmountOut */\n      tag_182\n        /* \"RamzSwapRouter.sol\":29505:29575  RamzSwapLibrary.getAmountOut(amountInput, reserveInput, reserveOutput) */\n      jump\t// in\n    tag_587:\n        /* \"RamzSwapRouter.sol\":29490:29575  amountOutput = RamzSwapLibrary.getAmountOut(amountInput, reserveInput, reserveOutput) */\n      swap5\n      pop\n        /* \"RamzSwapRouter.sol\":28812:29891  for (uint i; i < path.length - 1; i++) {... */\n      pop\n      pop\n      pop\n      pop\n        /* \"RamzSwapRouter.sol\":29604:29619  uint amount0Out */\n      0x00\n        /* \"RamzSwapRouter.sol\":29621:29636  uint amount1Out */\n      dup1\n        /* \"RamzSwapRouter.sol\":29649:29655  token0 */\n      dup6\n      sub(shl(0xa0, 0x01), 0x01)\n        /* \"RamzSwapRouter.sol\":29640:29655  input == token0 */\n      and\n        /* \"RamzSwapRouter.sol\":29640:29645  input */\n      dup9\n      sub(shl(0xa0, 0x01), 0x01)\n        /* \"RamzSwapRouter.sol\":29640:29655  input == token0 */\n      and\n      eq\n        /* \"RamzSwapRouter.sol\":29640:29707  input == token0 ? (uint(0), amountOutput) : (amountOutput, uint(0)) */\n      tag_588\n      jumpi\n        /* \"RamzSwapRouter.sol\":29685:29697  amountOutput */\n      dup3\n        /* \"RamzSwapRouter.sol\":29704:29705  0 */\n      0x00\n        /* \"RamzSwapRouter.sol\":29640:29707  input == token0 ? (uint(0), amountOutput) : (amountOutput, uint(0)) */\n      jump(tag_589)\n    tag_588:\n        /* \"RamzSwapRouter.sol\":29664:29665  0 */\n      0x00\n        /* \"RamzSwapRouter.sol\":29668:29680  amountOutput */\n      dup4\n        /* \"RamzSwapRouter.sol\":29640:29707  input == token0 ? (uint(0), amountOutput) : (amountOutput, uint(0)) */\n    tag_589:\n        /* \"RamzSwapRouter.sol\":29603:29707  (uint amount0Out, uint amount1Out) = input == token0 ? (uint(0), amountOutput) : (amountOutput, uint(0)) */\n      swap2\n      pop\n      swap2\n      pop\n        /* \"RamzSwapRouter.sol\":29721:29731  address to */\n      0x00\n        /* \"RamzSwapRouter.sol\":29752:29753  2 */\n      0x02\n        /* \"RamzSwapRouter.sol\":29738:29742  path */\n      dup13\n        /* \"RamzSwapRouter.sol\":29738:29749  path.length */\n      mload\n        /* \"RamzSwapRouter.sol\":29738:29753  path.length - 2 */\n      sub\n        /* \"RamzSwapRouter.sol\":29734:29735  i */\n      dup11\n        /* \"RamzSwapRouter.sol\":29734:29753  i < path.length - 2 */\n      lt\n        /* \"RamzSwapRouter.sol\":29734:29815  i < path.length - 2 ? RamzSwapLibrary.pairFor(factory, output, path[i + 2]) : _to */\n      tag_590\n      jumpi\n        /* \"RamzSwapRouter.sol\":29812:29815  _to */\n      dup11\n        /* \"RamzSwapRouter.sol\":29734:29815  i < path.length - 2 ? RamzSwapLibrary.pairFor(factory, output, path[i + 2]) : _to */\n      jump(tag_592)\n    tag_590:\n        /* \"RamzSwapRouter.sol\":29756:29809  RamzSwapLibrary.pairFor(factory, output, path[i + 2]) */\n      tag_592\n        /* \"RamzSwapRouter.sol\":29780:29787  factory */\n      immutable(\"0x173bb80bf7ae3dde444a25d8c84de4e84891034d416e0f0ffbc56cab6043ec24\")\n        /* \"RamzSwapRouter.sol\":29789:29795  output */\n      dup10\n        /* \"RamzSwapRouter.sol\":29797:29801  path */\n      dup15\n        /* \"RamzSwapRouter.sol\":29802:29803  i */\n      dup14\n        /* \"RamzSwapRouter.sol\":29806:29807  2 */\n      0x02\n        /* \"RamzSwapRouter.sol\":29802:29807  i + 2 */\n      add\n        /* \"RamzSwapRouter.sol\":29797:29808  path[i + 2] */\n      dup2\n      mload\n      dup2\n      lt\n      tag_536\n      jumpi\n      invalid\n        /* \"RamzSwapRouter.sol\":29756:29809  RamzSwapLibrary.pairFor(factory, output, path[i + 2]) */\n    tag_592:\n        /* \"RamzSwapRouter.sol\":29867:29879  new bytes(0) */\n      0x40\n      dup1\n      mload\n        /* \"RamzSwapRouter.sol\":29877:29878  0 */\n      0x00\n        /* \"RamzSwapRouter.sol\":29867:29879  new bytes(0) */\n      dup1\n      dup3\n      mstore\n      0x20\n      dup3\n      add\n      swap3\n      dup4\n      swap1\n      mstore\n      shl(0xe0, 0x022c0d9f)\n        /* \"RamzSwapRouter.sol\":29829:29880  pair.swap(amount0Out, amount1Out, to, new bytes(0)) */\n      dup4\n      mstore\n      0x24\n      dup3\n      add\n      dup8\n      dup2\n      mstore\n      0x44\n      dup4\n      add\n      dup8\n      swap1\n      mstore\n      sub(shl(0xa0, 0x01), 0x01)\n      dup1\n      dup7\n      and\n      0x64\n      dup6\n      add\n      mstore\n      0x80\n      0x84\n      dup6\n      add\n      swap1\n      dup2\n      mstore\n      dup5\n      mload\n      0xa4\n      dup7\n      add\n      dup2\n      swap1\n      mstore\n        /* \"RamzSwapRouter.sol\":29721:29815  address to = i < path.length - 2 ? RamzSwapLibrary.pairFor(factory, output, path[i + 2]) : _to */\n      swap7\n      swap8\n      pop\n        /* \"RamzSwapRouter.sol\":29829:29838  pair.swap */\n      swap1\n      dup13\n      and\n      swap6\n      0x022c0d9f\n      swap6\n        /* \"RamzSwapRouter.sol\":29839:29849  amount0Out */\n      dup11\n      swap6\n        /* \"RamzSwapRouter.sol\":29851:29861  amount1Out */\n      dup11\n      swap6\n        /* \"RamzSwapRouter.sol\":29721:29815  address to = i < path.length - 2 ? RamzSwapLibrary.pairFor(factory, output, path[i + 2]) : _to */\n      dup11\n      swap6\n        /* \"RamzSwapRouter.sol\":29867:29879  new bytes(0) */\n      swap2\n      swap5\n        /* \"RamzSwapRouter.sol\":29829:29880  pair.swap(amount0Out, amount1Out, to, new bytes(0)) */\n      swap2\n      swap4\n      swap2\n      swap3\n      0xc4\n      dup7\n      add\n      swap3\n        /* \"RamzSwapRouter.sol\":29867:29879  new bytes(0) */\n      swap1\n      swap2\n        /* \"RamzSwapRouter.sol\":29829:29880  pair.swap(amount0Out, amount1Out, to, new bytes(0)) */\n      dup2\n      swap1\n      dup5\n      swap1\n        /* \"RamzSwapRouter.sol\":29867:29879  new bytes(0) */\n      dup5\n      swap1\n        /* \"--CODEGEN--\":8:108   */\n    tag_596:\n        /* \"--CODEGEN--\":33:36   */\n      dup4\n        /* \"--CODEGEN--\":30:31   */\n      dup2\n        /* \"--CODEGEN--\":27:37   */\n      lt\n        /* \"--CODEGEN--\":8:108   */\n      iszero\n      tag_598\n      jumpi\n        /* \"--CODEGEN--\":90:101   */\n      dup2\n      dup2\n      add\n        /* \"--CODEGEN--\":84:102   */\n      mload\n        /* \"--CODEGEN--\":71:82   */\n      dup4\n      dup3\n      add\n        /* \"--CODEGEN--\":64:103   */\n      mstore\n        /* \"--CODEGEN--\":52:54   */\n      0x20\n        /* \"--CODEGEN--\":45:55   */\n      add\n        /* \"--CODEGEN--\":8:108   */\n      jump(tag_596)\n    tag_598:\n        /* \"--CODEGEN--\":12:26   */\n      pop\n        /* \"RamzSwapRouter.sol\":29829:29880  pair.swap(amount0Out, amount1Out, to, new bytes(0)) */\n      pop\n      pop\n      pop\n      swap1\n      pop\n      swap1\n      dup2\n      add\n      swap1\n      0x1f\n      and\n      dup1\n      iszero\n      tag_599\n      jumpi\n      dup1\n      dup3\n      sub\n      dup1\n      mload\n      0x01\n      dup4\n      0x20\n      sub\n      0x0100\n      exp\n      sub\n      not\n      and\n      dup2\n      mstore\n      0x20\n      add\n      swap2\n      pop\n    tag_599:\n      pop\n      swap6\n      pop\n      pop\n      pop\n      pop\n      pop\n      pop\n      0x00\n      mload(0x40)\n      dup1\n      dup4\n      sub\n      dup2\n      0x00\n      dup8\n      dup1\n      extcodesize\n      iszero\n        /* \"--CODEGEN--\":5:14   */\n      dup1\n        /* \"--CODEGEN--\":2:4   */\n      iszero\n      tag_600\n      jumpi\n        /* \"--CODEGEN--\":27:28   */\n      0x00\n        /* \"--CODEGEN--\":24:25   */\n      dup1\n        /* \"--CODEGEN--\":17:29   */\n      revert\n        /* \"--CODEGEN--\":2:4   */\n    tag_600:\n        /* \"RamzSwapRouter.sol\":29829:29880  pair.swap(amount0Out, amount1Out, to, new bytes(0)) */\n      pop\n      gas\n      call\n      iszero\n        /* \"--CODEGEN--\":8:17   */\n      dup1\n        /* \"--CODEGEN--\":5:7   */\n      iszero\n      tag_602\n      jumpi\n        /* \"--CODEGEN--\":45:61   */\n      returndatasize\n        /* \"--CODEGEN--\":42:43   */\n      0x00\n        /* \"--CODEGEN--\":39:40   */\n      dup1\n        /* \"--CODEGEN--\":24:62   */\n      returndatacopy\n        /* \"--CODEGEN--\":77:93   */\n      returndatasize\n        /* \"--CODEGEN--\":74:75   */\n      0x00\n        /* \"--CODEGEN--\":67:94   */\n      revert\n        /* \"--CODEGEN--\":5:7   */\n    tag_602:\n      pop\n      pop\n        /* \"RamzSwapRouter.sol\":28846:28849  i++ */\n      0x01\n      swap1\n      swap12\n      add\n      swap11\n      pop\n        /* \"RamzSwapRouter.sol\":28812:29891  for (uint i; i < path.length - 1; i++) {... */\n      tag_569\n      swap10\n      pop\n      pop\n      pop\n      pop\n      pop\n      pop\n      pop\n      pop\n      pop\n      pop\n      jump\n        /* \"RamzSwapRouter.sol\":9521:10023  function getAmountsOut(address factory, uint amountIn, address[] memory path) internal view returns (uint[] memory amounts) {... */\n    tag_262:\n        /* \"RamzSwapRouter.sol\":9622:9643  uint[] memory amounts */\n      0x60\n        /* \"RamzSwapRouter.sol\":9678:9679  2 */\n      0x02\n        /* \"RamzSwapRouter.sol\":9663:9667  path */\n      dup3\n        /* \"RamzSwapRouter.sol\":9663:9674  path.length */\n      mload\n        /* \"RamzSwapRouter.sol\":9663:9679  path.length >= 2 */\n      lt\n      iszero\n        /* \"RamzSwapRouter.sol\":9655:9713  require(path.length >= 2, 'RamzSwapLibrary: INVALID_PATH') */\n      tag_604\n      jumpi\n      0x40\n      dup1\n      mload\n      shl(0xe5, 0x461bcd)\n      dup2\n      mstore\n      0x20\n      0x04\n      dup3\n      add\n      mstore\n      0x1d\n      0x24\n      dup3\n      add\n      mstore\n      0x52616d7a537761704c6962726172793a20494e56414c49445f50415448000000\n      0x44\n      dup3\n      add\n      mstore\n      swap1\n      mload\n      swap1\n      dup2\n      swap1\n      sub\n      0x64\n      add\n      swap1\n      revert\n    tag_604:\n        /* \"RamzSwapRouter.sol\":9744:9748  path */\n      dup2\n        /* \"RamzSwapRouter.sol\":9744:9755  path.length */\n      mload\n        /* \"RamzSwapRouter.sol\":9733:9756  new uint[](path.length) */\n      0xffffffffffffffff\n      dup2\n      gt\n        /* \"--CODEGEN--\":5:14   */\n      dup1\n        /* \"--CODEGEN--\":2:4   */\n      iszero\n      tag_605\n      jumpi\n        /* \"--CODEGEN--\":27:28   */\n      0x00\n        /* \"--CODEGEN--\":24:25   */\n      dup1\n        /* \"--CODEGEN--\":17:29   */\n      revert\n        /* \"--CODEGEN--\":2:4   */\n    tag_605:\n        /* \"RamzSwapRouter.sol\":9733:9756  new uint[](path.length) */\n      pop\n      mload(0x40)\n      swap1\n      dup1\n      dup3\n      mstore\n      dup1\n      0x20\n      mul\n      0x20\n      add\n      dup3\n      add\n      0x40\n      mstore\n      dup1\n      iszero\n      tag_606\n      jumpi\n      dup2\n      0x20\n      add\n        /* \"--CODEGEN--\":29:31   */\n      0x20\n        /* \"--CODEGEN--\":21:27   */\n      dup3\n        /* \"--CODEGEN--\":17:32   */\n      mul\n        /* \"--CODEGEN--\":125:129   */\n      dup1\n        /* \"--CODEGEN--\":109:123   */\n      calldatasize\n        /* \"--CODEGEN--\":101:107   */\n      dup4\n        /* \"--CODEGEN--\":88:130   */\n      calldatacopy\n        /* \"--CODEGEN--\":144:161   */\n      add\n      swap1\n      pop\n        /* \"RamzSwapRouter.sol\":9733:9756  new uint[](path.length) */\n    tag_606:\n      pop\n        /* \"RamzSwapRouter.sol\":9723:9756  amounts = new uint[](path.length) */\n      swap1\n      pop\n        /* \"RamzSwapRouter.sol\":9779:9787  amountIn */\n      dup3\n        /* \"RamzSwapRouter.sol\":9766:9773  amounts */\n      dup2\n        /* \"RamzSwapRouter.sol\":9774:9775  0 */\n      0x00\n        /* \"RamzSwapRouter.sol\":9766:9776  amounts[0] */\n      dup2\n      mload\n      dup2\n      lt\n      tag_607\n      jumpi\n      invalid\n    tag_607:\n      0x20\n      mul\n      0x20\n      add\n      add\n        /* \"RamzSwapRouter.sol\":9766:9787  amounts[0] = amountIn */\n      dup2\n      dup2\n      mstore\n      pop\n      pop\n        /* \"RamzSwapRouter.sol\":9802:9808  uint i */\n      0x00\n        /* \"RamzSwapRouter.sol\":9797:10017  for (uint i; i < path.length - 1; i++) {... */\n    tag_608:\n        /* \"RamzSwapRouter.sol\":9828:9829  1 */\n      0x01\n        /* \"RamzSwapRouter.sol\":9814:9818  path */\n      dup4\n        /* \"RamzSwapRouter.sol\":9814:9825  path.length */\n      mload\n        /* \"RamzSwapRouter.sol\":9814:9829  path.length - 1 */\n      sub\n        /* \"RamzSwapRouter.sol\":9810:9811  i */\n      dup2\n        /* \"RamzSwapRouter.sol\":9810:9829  i < path.length - 1 */\n      lt\n        /* \"RamzSwapRouter.sol\":9797:10017  for (uint i; i < path.length - 1; i++) {... */\n      iszero\n      tag_501\n      jumpi\n        /* \"RamzSwapRouter.sol\":9851:9865  uint reserveIn */\n      0x00\n        /* \"RamzSwapRouter.sol\":9867:9882  uint reserveOut */\n      dup1\n        /* \"RamzSwapRouter.sol\":9886:9928  getReserves(factory, path[i], path[i + 1]) */\n      tag_611\n        /* \"RamzSwapRouter.sol\":9898:9905  factory */\n      dup8\n        /* \"RamzSwapRouter.sol\":9907:9911  path */\n      dup7\n        /* \"RamzSwapRouter.sol\":9912:9913  i */\n      dup6\n        /* \"RamzSwapRouter.sol\":9907:9914  path[i] */\n      dup2\n      mload\n      dup2\n      lt\n      tag_612\n      jumpi\n      invalid\n    tag_612:\n      0x20\n      mul\n      0x20\n      add\n      add\n      mload\n        /* \"RamzSwapRouter.sol\":9916:9920  path */\n      dup8\n        /* \"RamzSwapRouter.sol\":9921:9922  i */\n      dup7\n        /* \"RamzSwapRouter.sol\":9925:9926  1 */\n      0x01\n        /* \"RamzSwapRouter.sol\":9921:9926  i + 1 */\n      add\n        /* \"RamzSwapRouter.sol\":9916:9927  path[i + 1] */\n      dup2\n      mload\n      dup2\n      lt\n      tag_505\n      jumpi\n      invalid\n        /* \"RamzSwapRouter.sol\":9886:9928  getReserves(factory, path[i], path[i + 1]) */\n    tag_611:\n        /* \"RamzSwapRouter.sol\":9850:9928  (uint reserveIn, uint reserveOut) = getReserves(factory, path[i], path[i + 1]) */\n      swap2\n      pop\n      swap2\n      pop\n        /* \"RamzSwapRouter.sol\":9959:10006  getAmountOut(amounts[i], reserveIn, reserveOut) */\n      tag_614\n        /* \"RamzSwapRouter.sol\":9972:9979  amounts */\n      dup5\n        /* \"RamzSwapRouter.sol\":9980:9981  i */\n      dup5\n        /* \"RamzSwapRouter.sol\":9972:9982  amounts[i] */\n      dup2\n      mload\n      dup2\n      lt\n      tag_615\n      jumpi\n      invalid\n    tag_615:\n      0x20\n      mul\n      0x20\n      add\n      add\n      mload\n        /* \"RamzSwapRouter.sol\":9984:9993  reserveIn */\n      dup4\n        /* \"RamzSwapRouter.sol\":9995:10005  reserveOut */\n      dup4\n        /* \"RamzSwapRouter.sol\":9959:9971  getAmountOut */\n      tag_182\n        /* \"RamzSwapRouter.sol\":9959:10006  getAmountOut(amounts[i], reserveIn, reserveOut) */\n      jump\t// in\n    tag_614:\n        /* \"RamzSwapRouter.sol\":9942:9949  amounts */\n      dup5\n        /* \"RamzSwapRouter.sol\":9950:9951  i */\n      dup5\n        /* \"RamzSwapRouter.sol\":9954:9955  1 */\n      0x01\n        /* \"RamzSwapRouter.sol\":9950:9955  i + 1 */\n      add\n        /* \"RamzSwapRouter.sol\":9942:9956  amounts[i + 1] */\n      dup2\n      mload\n      dup2\n      lt\n      tag_616\n      jumpi\n      invalid\n    tag_616:\n      0x20\n      swap1\n      dup2\n      mul\n      swap2\n      swap1\n      swap2\n      add\n      add\n        /* \"RamzSwapRouter.sol\":9942:10006  amounts[i + 1] = getAmountOut(amounts[i], reserveIn, reserveOut) */\n      mstore\n      pop\n      pop\n        /* \"RamzSwapRouter.sol\":9831:9834  i++ */\n      0x01\n      add\n        /* \"RamzSwapRouter.sol\":9797:10017  for (uint i; i < path.length - 1; i++) {... */\n      jump(tag_608)\n        /* \"RamzSwapRouter.sol\":286:413  function sub(uint x, uint y) internal pure returns (uint z) {... */\n    tag_314:\n        /* \"RamzSwapRouter.sol\":369:374  x - y */\n      dup1\n      dup3\n      sub\n        /* \"RamzSwapRouter.sol\":364:380  (z = x - y) <= x */\n      dup3\n      dup2\n      gt\n      iszero\n        /* \"RamzSwapRouter.sol\":356:406  require((z = x - y) <= x, 'ds-math-sub-underflow') */\n      tag_209\n      jumpi\n      0x40\n      dup1\n      mload\n      shl(0xe5, 0x461bcd)\n      dup2\n      mstore\n      0x20\n      0x04\n      dup3\n      add\n      mstore\n      0x15\n      0x24\n      dup3\n      add\n      mstore\n      shl(0x58, 0x64732d6d6174682d7375622d756e646572666c6f77)\n      0x44\n      dup3\n      add\n      mstore\n      swap1\n      mload\n      swap1\n      dup2\n      swap1\n      sub\n      0x64\n      add\n      swap1\n      revert\n        /* \"RamzSwapRouter.sol\":15954:17310  function _addLiquidity(... */\n    tag_346:\n        /* \"RamzSwapRouter.sol\":16258:16307  IRamzSwapFactory(factory).getPair(tokenA, tokenB) */\n      0x40\n      dup1\n      mload\n      shl(0xe0, 0xe6a43905)\n      dup2\n      mstore\n      sub(shl(0xa0, 0x01), 0x01)\n      dup9\n      dup2\n      and\n      0x04\n      dup4\n      add\n      mstore\n      dup8\n      dup2\n      and\n      0x24\n      dup4\n      add\n      mstore\n      swap2\n      mload\n        /* \"RamzSwapRouter.sol\":16165:16177  uint amountA */\n      0x00\n      swap3\n      dup4\n      swap3\n      dup4\n      swap3\n        /* \"RamzSwapRouter.sol\":16275:16282  factory */\n      immutable(\"0x173bb80bf7ae3dde444a25d8c84de4e84891034d416e0f0ffbc56cab6043ec24\")\n        /* \"RamzSwapRouter.sol\":16258:16291  IRamzSwapFactory(factory).getPair */\n      swap1\n      swap3\n      and\n      swap2\n      0xe6a43905\n      swap2\n        /* \"RamzSwapRouter.sol\":16258:16307  IRamzSwapFactory(factory).getPair(tokenA, tokenB) */\n      0x44\n      dup1\n      dup3\n      add\n      swap3\n      0x20\n      swap3\n      swap1\n      swap2\n      swap1\n      dup3\n      swap1\n      sub\n      add\n      dup2\n        /* \"RamzSwapRouter.sol\":16258:16291  IRamzSwapFactory(factory).getPair */\n      dup7\n        /* \"RamzSwapRouter.sol\":16258:16307  IRamzSwapFactory(factory).getPair(tokenA, tokenB) */\n      dup1\n      extcodesize\n      iszero\n        /* \"--CODEGEN--\":2:4   */\n      dup1\n      iszero\n      tag_620\n      jumpi\n        /* \"--CODEGEN--\":27:28   */\n      0x00\n        /* \"--CODEGEN--\":24:25   */\n      dup1\n        /* \"--CODEGEN--\":17:29   */\n      revert\n        /* \"--CODEGEN--\":2:4   */\n    tag_620:\n        /* \"RamzSwapRouter.sol\":16258:16307  IRamzSwapFactory(factory).getPair(tokenA, tokenB) */\n      pop\n      gas\n      staticcall\n      iszero\n        /* \"--CODEGEN--\":8:17   */\n      dup1\n        /* \"--CODEGEN--\":5:7   */\n      iszero\n      tag_622\n      jumpi\n        /* \"--CODEGEN--\":45:61   */\n      returndatasize\n        /* \"--CODEGEN--\":42:43   */\n      0x00\n        /* \"--CODEGEN--\":39:40   */\n      dup1\n        /* \"--CODEGEN--\":24:62   */\n      returndatacopy\n        /* \"--CODEGEN--\":77:93   */\n      returndatasize\n        /* \"--CODEGEN--\":74:75   */\n      0x00\n        /* \"--CODEGEN--\":67:94   */\n      revert\n        /* \"--CODEGEN--\":5:7   */\n    tag_622:\n        /* \"RamzSwapRouter.sol\":16258:16307  IRamzSwapFactory(factory).getPair(tokenA, tokenB) */\n      pop\n      pop\n      pop\n      pop\n      mload(0x40)\n      returndatasize\n        /* \"--CODEGEN--\":15:17   */\n      0x20\n        /* \"--CODEGEN--\":10:13   */\n      dup2\n        /* \"--CODEGEN--\":7:18   */\n      lt\n        /* \"--CODEGEN--\":4:6   */\n      iszero\n      tag_623\n      jumpi\n        /* \"--CODEGEN--\":31:32   */\n      0x00\n        /* \"--CODEGEN--\":28:29   */\n      dup1\n        /* \"--CODEGEN--\":21:33   */\n      revert\n        /* \"--CODEGEN--\":4:6   */\n    tag_623:\n      pop\n        /* \"RamzSwapRouter.sol\":16258:16307  IRamzSwapFactory(factory).getPair(tokenA, tokenB) */\n      mload\n      sub(shl(0xa0, 0x01), 0x01)\n        /* \"RamzSwapRouter.sol\":16258:16321  IRamzSwapFactory(factory).getPair(tokenA, tokenB) == address(0) */\n      and\n      eq\n        /* \"RamzSwapRouter.sol\":16254:16400  if (IRamzSwapFactory(factory).getPair(tokenA, tokenB) == address(0)) {... */\n      iszero\n      tag_624\n      jumpi\n        /* \"RamzSwapRouter.sol\":16337:16389  IRamzSwapFactory(factory).createPair(tokenA, tokenB) */\n      0x40\n      dup1\n      mload\n      shl(0xe1, 0x64e329cb)\n      dup2\n      mstore\n      sub(shl(0xa0, 0x01), 0x01)\n      dup11\n      dup2\n      and\n      0x04\n      dup4\n      add\n      mstore\n      dup10\n      dup2\n      and\n      0x24\n      dup4\n      add\n      mstore\n      swap2\n      mload\n        /* \"RamzSwapRouter.sol\":16354:16361  factory */\n      immutable(\"0x173bb80bf7ae3dde444a25d8c84de4e84891034d416e0f0ffbc56cab6043ec24\")\n        /* \"RamzSwapRouter.sol\":16337:16373  IRamzSwapFactory(factory).createPair */\n      swap1\n      swap3\n      and\n      swap2\n      0xc9c65396\n      swap2\n        /* \"RamzSwapRouter.sol\":16337:16389  IRamzSwapFactory(factory).createPair(tokenA, tokenB) */\n      0x44\n      dup1\n      dup3\n      add\n      swap3\n      0x20\n      swap3\n      swap1\n      swap2\n      swap1\n      dup3\n      swap1\n      sub\n      add\n      dup2\n      0x00\n        /* \"RamzSwapRouter.sol\":16337:16373  IRamzSwapFactory(factory).createPair */\n      dup8\n        /* \"RamzSwapRouter.sol\":16337:16389  IRamzSwapFactory(factory).createPair(tokenA, tokenB) */\n      dup1\n      extcodesize\n      iszero\n        /* \"--CODEGEN--\":2:4   */\n      dup1\n      iszero\n      tag_625\n      jumpi\n        /* \"--CODEGEN--\":27:28   */\n      0x00\n        /* \"--CODEGEN--\":24:25   */\n      dup1\n        /* \"--CODEGEN--\":17:29   */\n      revert\n        /* \"--CODEGEN--\":2:4   */\n    tag_625:\n        /* \"RamzSwapRouter.sol\":16337:16389  IRamzSwapFactory(factory).createPair(tokenA, tokenB) */\n      pop\n      gas\n      call\n      iszero\n        /* \"--CODEGEN--\":8:17   */\n      dup1\n        /* \"--CODEGEN--\":5:7   */\n      iszero\n      tag_627\n      jumpi\n        /* \"--CODEGEN--\":45:61   */\n      returndatasize\n        /* \"--CODEGEN--\":42:43   */\n      0x00\n        /* \"--CODEGEN--\":39:40   */\n      dup1\n        /* \"--CODEGEN--\":24:62   */\n      returndatacopy\n        /* \"--CODEGEN--\":77:93   */\n      returndatasize\n        /* \"--CODEGEN--\":74:75   */\n      0x00\n        /* \"--CODEGEN--\":67:94   */\n      revert\n        /* \"--CODEGEN--\":5:7   */\n    tag_627:\n        /* \"RamzSwapRouter.sol\":16337:16389  IRamzSwapFactory(factory).createPair(tokenA, tokenB) */\n      pop\n      pop\n      pop\n      pop\n      mload(0x40)\n      returndatasize\n        /* \"--CODEGEN--\":15:17   */\n      0x20\n        /* \"--CODEGEN--\":10:13   */\n      dup2\n        /* \"--CODEGEN--\":7:18   */\n      lt\n        /* \"--CODEGEN--\":4:6   */\n      iszero\n      tag_628\n      jumpi\n        /* \"--CODEGEN--\":31:32   */\n      0x00\n        /* \"--CODEGEN--\":28:29   */\n      dup1\n        /* \"--CODEGEN--\":21:33   */\n      revert\n        /* \"--CODEGEN--\":4:6   */\n    tag_628:\n      pop\n      pop\n        /* \"RamzSwapRouter.sol\":16254:16400  if (IRamzSwapFactory(factory).getPair(tokenA, tokenB) == address(0)) {... */\n    tag_624:\n        /* \"RamzSwapRouter.sol\":16410:16423  uint reserveA */\n      0x00\n        /* \"RamzSwapRouter.sol\":16425:16438  uint reserveB */\n      dup1\n        /* \"RamzSwapRouter.sol\":16442:16494  RamzSwapLibrary.getReserves(factory, tokenA, tokenB) */\n      tag_629\n        /* \"RamzSwapRouter.sol\":16470:16477  factory */\n      immutable(\"0x173bb80bf7ae3dde444a25d8c84de4e84891034d416e0f0ffbc56cab6043ec24\")\n        /* \"RamzSwapRouter.sol\":16479:16485  tokenA */\n      dup12\n        /* \"RamzSwapRouter.sol\":16487:16493  tokenB */\n      dup12\n        /* \"RamzSwapRouter.sol\":16442:16469  RamzSwapLibrary.getReserves */\n      tag_506\n        /* \"RamzSwapRouter.sol\":16442:16494  RamzSwapLibrary.getReserves(factory, tokenA, tokenB) */\n      jump\t// in\n    tag_629:\n        /* \"RamzSwapRouter.sol\":16409:16494  (uint reserveA, uint reserveB) = RamzSwapLibrary.getReserves(factory, tokenA, tokenB) */\n      swap2\n      pop\n      swap2\n      pop\n        /* \"RamzSwapRouter.sol\":16508:16516  reserveA */\n      dup2\n        /* \"RamzSwapRouter.sol\":16520:16521  0 */\n      0x00\n        /* \"RamzSwapRouter.sol\":16508:16521  reserveA == 0 */\n      eq\n        /* \"RamzSwapRouter.sol\":16508:16538  reserveA == 0 && reserveB == 0 */\n      dup1\n      iszero\n      tag_630\n      jumpi\n      pop\n        /* \"RamzSwapRouter.sol\":16525:16538  reserveB == 0 */\n      dup1\n      iszero\n        /* \"RamzSwapRouter.sol\":16508:16538  reserveA == 0 && reserveB == 0 */\n    tag_630:\n        /* \"RamzSwapRouter.sol\":16504:17304  if (reserveA == 0 && reserveB == 0) {... */\n      iszero\n      tag_631\n      jumpi\n        /* \"RamzSwapRouter.sol\":16576:16590  amountADesired */\n      dup8\n      swap4\n      pop\n        /* \"RamzSwapRouter.sol\":16592:16606  amountBDesired */\n      dup7\n      swap3\n      pop\n        /* \"RamzSwapRouter.sol\":16504:17304  if (reserveA == 0 && reserveB == 0) {... */\n      jump(tag_632)\n    tag_631:\n        /* \"RamzSwapRouter.sol\":16638:16657  uint amountBOptimal */\n      0x00\n        /* \"RamzSwapRouter.sol\":16660:16717  RamzSwapLibrary.quote(amountADesired, reserveA, reserveB) */\n      tag_633\n        /* \"RamzSwapRouter.sol\":16682:16696  amountADesired */\n      dup10\n        /* \"RamzSwapRouter.sol\":16698:16706  reserveA */\n      dup5\n        /* \"RamzSwapRouter.sol\":16708:16716  reserveB */\n      dup5\n        /* \"RamzSwapRouter.sol\":16660:16681  RamzSwapLibrary.quote */\n      tag_381\n        /* \"RamzSwapRouter.sol\":16660:16717  RamzSwapLibrary.quote(amountADesired, reserveA, reserveB) */\n      jump\t// in\n    tag_633:\n        /* \"RamzSwapRouter.sol\":16638:16717  uint amountBOptimal = RamzSwapLibrary.quote(amountADesired, reserveA, reserveB) */\n      swap1\n      pop\n        /* \"RamzSwapRouter.sol\":16753:16767  amountBDesired */\n      dup8\n        /* \"RamzSwapRouter.sol\":16735:16749  amountBOptimal */\n      dup2\n        /* \"RamzSwapRouter.sol\":16735:16767  amountBOptimal <= amountBDesired */\n      gt\n        /* \"RamzSwapRouter.sol\":16731:17294  if (amountBOptimal <= amountBDesired) {... */\n      tag_634\n      jumpi\n        /* \"RamzSwapRouter.sol\":16813:16823  amountBMin */\n      dup6\n        /* \"RamzSwapRouter.sol\":16795:16809  amountBOptimal */\n      dup2\n        /* \"RamzSwapRouter.sol\":16795:16823  amountBOptimal >= amountBMin */\n      lt\n      iszero\n        /* \"RamzSwapRouter.sol\":16787:16865  require(amountBOptimal >= amountBMin, 'RamzSwapRouter: INSUFFICIENT_B_AMOUNT') */\n      tag_635\n      jumpi\n      mload(0x40)\n      shl(0xe5, 0x461bcd)\n      dup2\n      mstore\n      0x04\n      add\n      dup1\n      dup1\n      0x20\n      add\n      dup3\n      dup2\n      sub\n      dup3\n      mstore\n      0x25\n      dup2\n      mstore\n      0x20\n      add\n      dup1\n      data_32056ae2c16675a1d24b9743904d1b5df1f95f447fbf7ff51f2857e09b63391a\n      0x25\n      swap2\n      codecopy\n      0x40\n      add\n      swap2\n      pop\n      pop\n      mload(0x40)\n      dup1\n      swap2\n      sub\n      swap1\n      revert\n    tag_635:\n        /* \"RamzSwapRouter.sol\":16905:16919  amountADesired */\n      dup9\n      swap5\n      pop\n        /* \"RamzSwapRouter.sol\":16921:16935  amountBOptimal */\n      swap3\n      pop\n      dup3\n        /* \"RamzSwapRouter.sol\":16731:17294  if (amountBOptimal <= amountBDesired) {... */\n      jump(tag_636)\n    tag_634:\n        /* \"RamzSwapRouter.sol\":16975:16994  uint amountAOptimal */\n      0x00\n        /* \"RamzSwapRouter.sol\":16997:17054  RamzSwapLibrary.quote(amountBDesired, reserveB, reserveA) */\n      tag_637\n        /* \"RamzSwapRouter.sol\":17019:17033  amountBDesired */\n      dup10\n        /* \"RamzSwapRouter.sol\":17035:17043  reserveB */\n      dup5\n        /* \"RamzSwapRouter.sol\":17045:17053  reserveA */\n      dup7\n        /* \"RamzSwapRouter.sol\":16997:17018  RamzSwapLibrary.quote */\n      tag_381\n        /* \"RamzSwapRouter.sol\":16997:17054  RamzSwapLibrary.quote(amountBDesired, reserveB, reserveA) */\n      jump\t// in\n    tag_637:\n        /* \"RamzSwapRouter.sol\":16975:17054  uint amountAOptimal = RamzSwapLibrary.quote(amountBDesired, reserveB, reserveA) */\n      swap1\n      pop\n        /* \"RamzSwapRouter.sol\":17097:17111  amountADesired */\n      dup10\n        /* \"RamzSwapRouter.sol\":17079:17093  amountAOptimal */\n      dup2\n        /* \"RamzSwapRouter.sol\":17079:17111  amountAOptimal <= amountADesired */\n      gt\n      iszero\n        /* \"RamzSwapRouter.sol\":17072:17112  assert(amountAOptimal <= amountADesired) */\n      tag_638\n      jumpi\n      invalid\n    tag_638:\n        /* \"RamzSwapRouter.sol\":17156:17166  amountAMin */\n      dup8\n        /* \"RamzSwapRouter.sol\":17138:17152  amountAOptimal */\n      dup2\n        /* \"RamzSwapRouter.sol\":17138:17166  amountAOptimal >= amountAMin */\n      lt\n      iszero\n        /* \"RamzSwapRouter.sol\":17130:17208  require(amountAOptimal >= amountAMin, 'RamzSwapRouter: INSUFFICIENT_A_AMOUNT') */\n      tag_639\n      jumpi\n      mload(0x40)\n      shl(0xe5, 0x461bcd)\n      dup2\n      mstore\n      0x04\n      add\n      dup1\n      dup1\n      0x20\n      add\n      dup3\n      dup2\n      sub\n      dup3\n      mstore\n      0x25\n      dup2\n      mstore\n      0x20\n      add\n      dup1\n      data_d045037e664e0d3d8422ec04d5b3e5b23da316f1ecf642071d33771461071307\n      0x25\n      swap2\n      codecopy\n      0x40\n      add\n      swap2\n      pop\n      pop\n      mload(0x40)\n      dup1\n      swap2\n      sub\n      swap1\n      revert\n    tag_639:\n        /* \"RamzSwapRouter.sol\":17248:17262  amountAOptimal */\n      swap5\n      pop\n        /* \"RamzSwapRouter.sol\":17264:17278  amountBDesired */\n      dup8\n      swap4\n      pop\n        /* \"RamzSwapRouter.sol\":16731:17294  if (amountBOptimal <= amountBDesired) {... */\n    tag_636:\n        /* \"RamzSwapRouter.sol\":16504:17304  if (reserveA == 0 && reserveB == 0) {... */\n      pop\n    tag_632:\n        /* \"RamzSwapRouter.sol\":15954:17310  function _addLiquidity(... */\n      pop\n      pop\n      swap7\n      pop\n      swap7\n      swap5\n      pop\n      pop\n      pop\n      pop\n      pop\n      jump\t// out\n        /* \"RamzSwapRouter.sol\":8978:9442  function getAmountIn(uint amountOut, uint reserveIn, uint reserveOut) internal pure returns (uint amountIn) {... */\n    tag_365:\n        /* \"RamzSwapRouter.sol\":9071:9084  uint amountIn */\n      0x00\n        /* \"RamzSwapRouter.sol\":9116:9117  0 */\n      dup1\n        /* \"RamzSwapRouter.sol\":9104:9113  amountOut */\n      dup5\n        /* \"RamzSwapRouter.sol\":9104:9117  amountOut > 0 */\n      gt\n        /* \"RamzSwapRouter.sol\":9096:9165  require(amountOut > 0, 'RamzSwapLibrary: INSUFFICIENT_OUTPUT_AMOUNT') */\n      tag_641\n      jumpi\n      mload(0x40)\n      shl(0xe5, 0x461bcd)\n      dup2\n      mstore\n      0x04\n      add\n      dup1\n      dup1\n      0x20\n      add\n      dup3\n      dup2\n      sub\n      dup3\n      mstore\n      0x2b\n      dup2\n      mstore\n      0x20\n      add\n      dup1\n      data_172ca57a4dbcc1e5389f92cbf7fbcc29ad207a881f5082d9108c79ebebff0656\n      0x2b\n      swap2\n      codecopy\n      0x40\n      add\n      swap2\n      pop\n      pop\n      mload(0x40)\n      dup1\n      swap2\n      sub\n      swap1\n      revert\n    tag_641:\n        /* \"RamzSwapRouter.sol\":9195:9196  0 */\n      0x00\n        /* \"RamzSwapRouter.sol\":9183:9192  reserveIn */\n      dup4\n        /* \"RamzSwapRouter.sol\":9183:9196  reserveIn > 0 */\n      gt\n        /* \"RamzSwapRouter.sol\":9183:9214  reserveIn > 0 && reserveOut > 0 */\n      dup1\n      iszero\n      tag_642\n      jumpi\n      pop\n        /* \"RamzSwapRouter.sol\":9213:9214  0 */\n      0x00\n        /* \"RamzSwapRouter.sol\":9200:9210  reserveOut */\n      dup3\n        /* \"RamzSwapRouter.sol\":9200:9214  reserveOut > 0 */\n      gt\n        /* \"RamzSwapRouter.sol\":9183:9214  reserveIn > 0 && reserveOut > 0 */\n    tag_642:\n        /* \"RamzSwapRouter.sol\":9175:9258  require(reserveIn > 0 && reserveOut > 0, 'RamzSwapLibrary: INSUFFICIENT_LIQUIDITY') */\n      tag_643\n      jumpi\n      mload(0x40)\n      shl(0xe5, 0x461bcd)\n      dup2\n      mstore\n      0x04\n      add\n      dup1\n      dup1\n      0x20\n      add\n      dup3\n      dup2\n      sub\n      dup3\n      mstore\n      0x27\n      dup2\n      mstore\n      0x20\n      add\n      dup1\n      data_b52214121bd9a7f266e2a49d2be26d2d7591a4c8cb33e3cce9ba3b94930dca8d\n      0x27\n      swap2\n      codecopy\n      0x40\n      add\n      swap2\n      pop\n      pop\n      mload(0x40)\n      dup1\n      swap2\n      sub\n      swap1\n      revert\n    tag_643:\n        /* \"RamzSwapRouter.sol\":9268:9282  uint numerator */\n      0x00\n        /* \"RamzSwapRouter.sol\":9285:9319  reserveIn.mul(amountOut).mul(1000) */\n      tag_644\n        /* \"RamzSwapRouter.sol\":9314:9318  1000 */\n      0x03e8\n        /* \"RamzSwapRouter.sol\":9285:9309  reserveIn.mul(amountOut) */\n      tag_645\n        /* \"RamzSwapRouter.sol\":9285:9294  reserveIn */\n      dup7\n        /* \"RamzSwapRouter.sol\":9299:9308  amountOut */\n      dup9\n        /* \"RamzSwapRouter.sol\":9285:9309  reserveIn.mul(amountOut) */\n      0xffffffff\n        /* \"RamzSwapRouter.sol\":9285:9298  reserveIn.mul */\n      tag_489\n        /* \"RamzSwapRouter.sol\":9285:9309  reserveIn.mul(amountOut) */\n      and\n      jump\t// in\n    tag_645:\n        /* \"RamzSwapRouter.sol\":9285:9313  reserveIn.mul(amountOut).mul */\n      swap1\n        /* \"RamzSwapRouter.sol\":9285:9319  reserveIn.mul(amountOut).mul(1000) */\n      0xffffffff\n        /* \"RamzSwapRouter.sol\":9285:9313  reserveIn.mul(amountOut).mul */\n      tag_489\n        /* \"RamzSwapRouter.sol\":9285:9319  reserveIn.mul(amountOut).mul(1000) */\n      and\n      jump\t// in\n    tag_644:\n        /* \"RamzSwapRouter.sol\":9268:9319  uint numerator = reserveIn.mul(amountOut).mul(1000) */\n      swap1\n      pop\n        /* \"RamzSwapRouter.sol\":9329:9345  uint denominator */\n      0x00\n        /* \"RamzSwapRouter.sol\":9348:9382  reserveOut.sub(amountOut).mul(997) */\n      tag_646\n        /* \"RamzSwapRouter.sol\":9378:9381  997 */\n      0x03e5\n        /* \"RamzSwapRouter.sol\":9348:9373  reserveOut.sub(amountOut) */\n      tag_645\n        /* \"RamzSwapRouter.sol\":9348:9358  reserveOut */\n      dup7\n        /* \"RamzSwapRouter.sol\":9363:9372  amountOut */\n      dup10\n        /* \"RamzSwapRouter.sol\":9348:9373  reserveOut.sub(amountOut) */\n      0xffffffff\n        /* \"RamzSwapRouter.sol\":9348:9362  reserveOut.sub */\n      tag_314\n        /* \"RamzSwapRouter.sol\":9348:9373  reserveOut.sub(amountOut) */\n      and\n      jump\t// in\n        /* \"RamzSwapRouter.sol\":9348:9382  reserveOut.sub(amountOut).mul(997) */\n    tag_646:\n        /* \"RamzSwapRouter.sol\":9329:9382  uint denominator = reserveOut.sub(amountOut).mul(997) */\n      swap1\n      pop\n        /* \"RamzSwapRouter.sol\":9403:9435  (numerator / denominator).add(1) */\n      tag_648\n        /* \"RamzSwapRouter.sol\":9433:9434  1 */\n      0x01\n        /* \"RamzSwapRouter.sol\":9416:9427  denominator */\n      dup3\n        /* \"RamzSwapRouter.sol\":9404:9413  numerator */\n      dup5\n        /* \"RamzSwapRouter.sol\":9404:9427  numerator / denominator */\n      dup2\n      tag_649\n      jumpi\n      invalid\n    tag_649:\n      div\n      swap1\n        /* \"RamzSwapRouter.sol\":9403:9435  (numerator / denominator).add(1) */\n      0xffffffff\n        /* \"RamzSwapRouter.sol\":9403:9432  (numerator / denominator).add */\n      tag_493\n        /* \"RamzSwapRouter.sol\":9403:9435  (numerator / denominator).add(1) */\n      and\n      jump\t// in\n    tag_648:\n        /* \"RamzSwapRouter.sol\":9392:9435  amountIn = (numerator / denominator).add(1) */\n      swap7\n        /* \"RamzSwapRouter.sol\":8978:9442  function getAmountIn(uint amountOut, uint reserveIn, uint reserveOut) internal pure returns (uint amountIn) {... */\n      swap6\n      pop\n      pop\n      pop\n      pop\n      pop\n      pop\n      jump\t// out\n        /* \"RamzSwapRouter.sol\":7918:8233  function quote(uint amountA, uint reserveA, uint reserveB) internal pure returns (uint amountB) {... */\n    tag_381:\n        /* \"RamzSwapRouter.sol\":8000:8012  uint amountB */\n      0x00\n        /* \"RamzSwapRouter.sol\":8042:8043  0 */\n      dup1\n        /* \"RamzSwapRouter.sol\":8032:8039  amountA */\n      dup5\n        /* \"RamzSwapRouter.sol\":8032:8043  amountA > 0 */\n      gt\n        /* \"RamzSwapRouter.sol\":8024:8084  require(amountA > 0, 'RamzSwapLibrary: INSUFFICIENT_AMOUNT') */\n      tag_651\n      jumpi\n      mload(0x40)\n      shl(0xe5, 0x461bcd)\n      dup2\n      mstore\n      0x04\n      add\n      dup1\n      dup1\n      0x20\n      add\n      dup3\n      dup2\n      sub\n      dup3\n      mstore\n      0x24\n      dup2\n      mstore\n      0x20\n      add\n      dup1\n      data_d069a21363f648c9c786f099ffabca174c290c50846867b02e0a31df0399e8aa\n      0x24\n      swap2\n      codecopy\n      0x40\n      add\n      swap2\n      pop\n      pop\n      mload(0x40)\n      dup1\n      swap2\n      sub\n      swap1\n      revert\n    tag_651:\n        /* \"RamzSwapRouter.sol\":8113:8114  0 */\n      0x00\n        /* \"RamzSwapRouter.sol\":8102:8110  reserveA */\n      dup4\n        /* \"RamzSwapRouter.sol\":8102:8114  reserveA > 0 */\n      gt\n        /* \"RamzSwapRouter.sol\":8102:8130  reserveA > 0 && reserveB > 0 */\n      dup1\n      iszero\n      tag_652\n      jumpi\n      pop\n        /* \"RamzSwapRouter.sol\":8129:8130  0 */\n      0x00\n        /* \"RamzSwapRouter.sol\":8118:8126  reserveB */\n      dup3\n        /* \"RamzSwapRouter.sol\":8118:8130  reserveB > 0 */\n      gt\n        /* \"RamzSwapRouter.sol\":8102:8130  reserveA > 0 && reserveB > 0 */\n    tag_652:\n        /* \"RamzSwapRouter.sol\":8094:8174  require(reserveA > 0 && reserveB > 0, 'RamzSwapLibrary: INSUFFICIENT_LIQUIDITY') */\n      tag_653\n      jumpi\n      mload(0x40)\n      shl(0xe5, 0x461bcd)\n      dup2\n      mstore\n      0x04\n      add\n      dup1\n      dup1\n      0x20\n      add\n      dup3\n      dup2\n      sub\n      dup3\n      mstore\n      0x27\n      dup2\n      mstore\n      0x20\n      add\n      dup1\n      data_b52214121bd9a7f266e2a49d2be26d2d7591a4c8cb33e3cce9ba3b94930dca8d\n      0x27\n      swap2\n      codecopy\n      0x40\n      add\n      swap2\n      pop\n      pop\n      mload(0x40)\n      dup1\n      swap2\n      sub\n      swap1\n      revert\n    tag_653:\n        /* \"RamzSwapRouter.sol\":8218:8226  reserveA */\n      dup3\n        /* \"RamzSwapRouter.sol\":8194:8215  amountA.mul(reserveB) */\n      tag_654\n        /* \"RamzSwapRouter.sol\":8194:8201  amountA */\n      dup6\n        /* \"RamzSwapRouter.sol\":8206:8214  reserveB */\n      dup5\n        /* \"RamzSwapRouter.sol\":8194:8215  amountA.mul(reserveB) */\n      0xffffffff\n        /* \"RamzSwapRouter.sol\":8194:8205  amountA.mul */\n      tag_489\n        /* \"RamzSwapRouter.sol\":8194:8215  amountA.mul(reserveB) */\n      and\n      jump\t// in\n    tag_654:\n        /* \"RamzSwapRouter.sol\":8194:8226  amountA.mul(reserveB) / reserveA */\n      dup2\n      tag_655\n      jumpi\n      invalid\n    tag_655:\n      div\n      swap5\n        /* \"RamzSwapRouter.sol\":7918:8233  function quote(uint amountA, uint reserveA, uint reserveB) internal pure returns (uint amountB) {... */\n      swap4\n      pop\n      pop\n      pop\n      pop\n      jump\t// out\n        /* \"RamzSwapRouter.sol\":6465:6808  function sortTokens(address tokenA, address tokenB) internal pure returns (address token0, address token1) {... */\n    tag_395:\n        /* \"RamzSwapRouter.sol\":6540:6554  address token0 */\n      0x00\n        /* \"RamzSwapRouter.sol\":6556:6570  address token1 */\n      dup1\n        /* \"RamzSwapRouter.sol\":6600:6606  tokenB */\n      dup3\n      sub(shl(0xa0, 0x01), 0x01)\n        /* \"RamzSwapRouter.sol\":6590:6606  tokenA != tokenB */\n      and\n        /* \"RamzSwapRouter.sol\":6590:6596  tokenA */\n      dup5\n      sub(shl(0xa0, 0x01), 0x01)\n        /* \"RamzSwapRouter.sol\":6590:6606  tokenA != tokenB */\n      and\n      eq\n      iszero\n        /* \"RamzSwapRouter.sol\":6582:6647  require(tokenA != tokenB, 'RamzSwapLibrary: IDENTICAL_ADDRESSES') */\n      tag_657\n      jumpi\n      mload(0x40)\n      shl(0xe5, 0x461bcd)\n      dup2\n      mstore\n      0x04\n      add\n      dup1\n      dup1\n      0x20\n      add\n      dup3\n      dup2\n      sub\n      dup3\n      mstore\n      0x24\n      dup2\n      mstore\n      0x20\n      add\n      dup1\n      data_0287825460ae1e58fe1652c5ba2405fe45389a78b59693d424789bdfacfa8934\n      0x24\n      swap2\n      codecopy\n      0x40\n      add\n      swap2\n      pop\n      pop\n      mload(0x40)\n      dup1\n      swap2\n      sub\n      swap1\n      revert\n    tag_657:\n        /* \"RamzSwapRouter.sol\":6685:6691  tokenB */\n      dup3\n      sub(shl(0xa0, 0x01), 0x01)\n        /* \"RamzSwapRouter.sol\":6676:6691  tokenA < tokenB */\n      and\n        /* \"RamzSwapRouter.sol\":6676:6682  tokenA */\n      dup5\n      sub(shl(0xa0, 0x01), 0x01)\n        /* \"RamzSwapRouter.sol\":6676:6691  tokenA < tokenB */\n      and\n      lt\n        /* \"RamzSwapRouter.sol\":6676:6729  tokenA < tokenB ? (tokenA, tokenB) : (tokenB, tokenA) */\n      tag_658\n      jumpi\n        /* \"RamzSwapRouter.sol\":6714:6720  tokenB */\n      dup3\n        /* \"RamzSwapRouter.sol\":6722:6728  tokenA */\n      dup5\n        /* \"RamzSwapRouter.sol\":6676:6729  tokenA < tokenB ? (tokenA, tokenB) : (tokenB, tokenA) */\n      jump(tag_659)\n    tag_658:\n        /* \"RamzSwapRouter.sol\":6695:6701  tokenA */\n      dup4\n        /* \"RamzSwapRouter.sol\":6703:6709  tokenB */\n      dup4\n        /* \"RamzSwapRouter.sol\":6676:6729  tokenA < tokenB ? (tokenA, tokenB) : (tokenB, tokenA) */\n    tag_659:\n        /* \"RamzSwapRouter.sol\":6657:6729  (token0, token1) = tokenA < tokenB ? (tokenA, tokenB) : (tokenB, tokenA) */\n      swap1\n      swap3\n      pop\n      swap1\n      pop\n      sub(shl(0xa0, 0x01), 0x01)\n        /* \"RamzSwapRouter.sol\":6747:6767  token0 != address(0) */\n      dup3\n      and\n        /* \"RamzSwapRouter.sol\":6739:6801  require(token0 != address(0), 'RamzSwapLibrary: ZERO_ADDRESS') */\n      tag_660\n      jumpi\n      0x40\n      dup1\n      mload\n      shl(0xe5, 0x461bcd)\n      dup2\n      mstore\n      0x20\n      0x04\n      dup3\n      add\n      mstore\n      0x1d\n      0x24\n      dup3\n      add\n      mstore\n      0x52616d7a537761704c6962726172793a205a45524f5f41444452455353000000\n      0x44\n      dup3\n      add\n      mstore\n      swap1\n      mload\n      swap1\n      dup2\n      swap1\n      sub\n      0x64\n      add\n      swap1\n      revert\n    tag_660:\n        /* \"RamzSwapRouter.sol\":6465:6808  function sortTokens(address tokenA, address tokenB) internal pure returns (address token0, address token1) {... */\n      swap3\n      pop\n      swap3\n      swap1\n      pop\n      jump\t// out\n        /* \"RamzSwapRouter.sol\":419:559  function mul(uint x, uint y) internal pure returns (uint z) {... */\n    tag_489:\n        /* \"RamzSwapRouter.sol\":471:477  uint z */\n      0x00\n        /* \"RamzSwapRouter.sol\":497:503  y == 0 */\n      dup2\n      iszero\n      dup1\n        /* \"RamzSwapRouter.sol\":497:527  y == 0 || (z = x * y) / y == x */\n      tag_662\n      jumpi\n      pop\n      pop\n        /* \"RamzSwapRouter.sol\":512:517  x * y */\n      dup1\n      dup3\n      mul\n        /* \"RamzSwapRouter.sol\":526:527  x */\n      dup3\n        /* \"RamzSwapRouter.sol\":521:522  y */\n      dup3\n        /* \"RamzSwapRouter.sol\":512:517  x * y */\n      dup3\n        /* \"RamzSwapRouter.sol\":521:522  y */\n      dup2\n        /* \"RamzSwapRouter.sol\":507:522  (z = x * y) / y */\n      tag_663\n      jumpi\n      invalid\n    tag_663:\n      div\n        /* \"RamzSwapRouter.sol\":507:527  (z = x * y) / y == x */\n      eq\n        /* \"RamzSwapRouter.sol\":497:527  y == 0 || (z = x * y) / y == x */\n    tag_662:\n        /* \"RamzSwapRouter.sol\":489:552  require(y == 0 || (z = x * y) / y == x, 'ds-math-mul-overflow') */\n      tag_209\n      jumpi\n      0x40\n      dup1\n      mload\n      shl(0xe5, 0x461bcd)\n      dup2\n      mstore\n      0x20\n      0x04\n      dup3\n      add\n      mstore\n      0x14\n      0x24\n      dup3\n      add\n      mstore\n      shl(0x60, 0x64732d6d6174682d6d756c2d6f766572666c6f77)\n      0x44\n      dup3\n      add\n      mstore\n      swap1\n      mload\n      swap1\n      dup2\n      swap1\n      sub\n      0x64\n      add\n      swap1\n      revert\n        /* \"RamzSwapRouter.sol\":154:280  function add(uint x, uint y) internal pure returns (uint z) {... */\n    tag_493:\n        /* \"RamzSwapRouter.sol\":237:242  x + y */\n      dup1\n      dup3\n      add\n        /* \"RamzSwapRouter.sol\":232:248  (z = x + y) >= x */\n      dup3\n      dup2\n      lt\n      iszero\n        /* \"RamzSwapRouter.sol\":224:273  require((z = x + y) >= x, 'ds-math-add-overflow') */\n      tag_209\n      jumpi\n      0x40\n      dup1\n      mload\n      shl(0xe5, 0x461bcd)\n      dup2\n      mstore\n      0x20\n      0x04\n      dup3\n      add\n      mstore\n      0x14\n      0x24\n      dup3\n      add\n      mstore\n      shl(0x60, 0x64732d6d6174682d6164642d6f766572666c6f77)\n      0x44\n      dup3\n      add\n      mstore\n      swap1\n      mload\n      swap1\n      dup2\n      swap1\n      sub\n      0x64\n      add\n      swap1\n      revert\n        /* \"RamzSwapRouter.sol\":7422:7808  function getReserves(address factory, address tokenA, address tokenB) internal view returns (uint reserveA, uint reserveB) {... */\n    tag_506:\n        /* \"RamzSwapRouter.sol\":7515:7528  uint reserveA */\n      0x00\n        /* \"RamzSwapRouter.sol\":7530:7543  uint reserveB */\n      dup1\n        /* \"RamzSwapRouter.sol\":7556:7570  address token0 */\n      0x00\n        /* \"RamzSwapRouter.sol\":7575:7601  sortTokens(tokenA, tokenB) */\n      tag_668\n        /* \"RamzSwapRouter.sol\":7586:7592  tokenA */\n      dup6\n        /* \"RamzSwapRouter.sol\":7594:7600  tokenB */\n      dup6\n        /* \"RamzSwapRouter.sol\":7575:7585  sortTokens */\n      tag_395\n        /* \"RamzSwapRouter.sol\":7575:7601  sortTokens(tokenA, tokenB) */\n      jump\t// in\n    tag_668:\n        /* \"RamzSwapRouter.sol\":7555:7601  (address token0,) = sortTokens(tokenA, tokenB) */\n      pop\n      swap1\n      pop\n        /* \"RamzSwapRouter.sol\":7612:7625  uint reserve0 */\n      0x00\n        /* \"RamzSwapRouter.sol\":7627:7640  uint reserve1 */\n      dup1\n        /* \"RamzSwapRouter.sol\":7659:7691  pairFor(factory, tokenA, tokenB) */\n      tag_669\n        /* \"RamzSwapRouter.sol\":7667:7674  factory */\n      dup9\n        /* \"RamzSwapRouter.sol\":7676:7682  tokenA */\n      dup9\n        /* \"RamzSwapRouter.sol\":7684:7690  tokenB */\n      dup9\n        /* \"RamzSwapRouter.sol\":7659:7666  pairFor */\n      tag_197\n        /* \"RamzSwapRouter.sol\":7659:7691  pairFor(factory, tokenA, tokenB) */\n      jump\t// in\n    tag_669:\n      sub(shl(0xa0, 0x01), 0x01)\n        /* \"RamzSwapRouter.sol\":7645:7704  IRamzSwapPair(pairFor(factory, tokenA, tokenB)).getReserves */\n      and\n      0x0902f1ac\n        /* \"RamzSwapRouter.sol\":7645:7706  IRamzSwapPair(pairFor(factory, tokenA, tokenB)).getReserves() */\n      mload(0x40)\n      dup2\n      0xffffffff\n      and\n      0xe0\n      shl\n      dup2\n      mstore\n      0x04\n      add\n      0x60\n      mload(0x40)\n      dup1\n      dup4\n      sub\n      dup2\n      dup7\n      dup1\n      extcodesize\n      iszero\n        /* \"--CODEGEN--\":5:14   */\n      dup1\n        /* \"--CODEGEN--\":2:4   */\n      iszero\n      tag_670\n      jumpi\n        /* \"--CODEGEN--\":27:28   */\n      0x00\n        /* \"--CODEGEN--\":24:25   */\n      dup1\n        /* \"--CODEGEN--\":17:29   */\n      revert\n        /* \"--CODEGEN--\":2:4   */\n    tag_670:\n        /* \"RamzSwapRouter.sol\":7645:7706  IRamzSwapPair(pairFor(factory, tokenA, tokenB)).getReserves() */\n      pop\n      gas\n      staticcall\n      iszero\n        /* \"--CODEGEN--\":8:17   */\n      dup1\n        /* \"--CODEGEN--\":5:7   */\n      iszero\n      tag_672\n      jumpi\n        /* \"--CODEGEN--\":45:61   */\n      returndatasize\n        /* \"--CODEGEN--\":42:43   */\n      0x00\n        /* \"--CODEGEN--\":39:40   */\n      dup1\n        /* \"--CODEGEN--\":24:62   */\n      returndatacopy\n        /* \"--CODEGEN--\":77:93   */\n      returndatasize\n        /* \"--CODEGEN--\":74:75   */\n      0x00\n        /* \"--CODEGEN--\":67:94   */\n      revert\n        /* \"--CODEGEN--\":5:7   */\n    tag_672:\n        /* \"RamzSwapRouter.sol\":7645:7706  IRamzSwapPair(pairFor(factory, tokenA, tokenB)).getReserves() */\n      pop\n      pop\n      pop\n      pop\n      mload(0x40)\n      returndatasize\n        /* \"--CODEGEN--\":15:17   */\n      0x60\n        /* \"--CODEGEN--\":10:13   */\n      dup2\n        /* \"--CODEGEN--\":7:18   */\n      lt\n        /* \"--CODEGEN--\":4:6   */\n      iszero\n      tag_673\n      jumpi\n        /* \"--CODEGEN--\":31:32   */\n      0x00\n        /* \"--CODEGEN--\":28:29   */\n      dup1\n        /* \"--CODEGEN--\":21:33   */\n      revert\n        /* \"--CODEGEN--\":4:6   */\n    tag_673:\n      pop\n        /* \"RamzSwapRouter.sol\":7645:7706  IRamzSwapPair(pairFor(factory, tokenA, tokenB)).getReserves() */\n      dup1\n      mload\n      0x20\n      swap1\n      swap2\n      add\n      mload\n      sub(shl(0x70, 0x01), 0x01)\n        /* \"RamzSwapRouter.sol\":7611:7706  (uint reserve0, uint reserve1,) = IRamzSwapPair(pairFor(factory, tokenA, tokenB)).getReserves() */\n      swap2\n      dup3\n      and\n      swap4\n      pop\n      and\n      swap1\n      pop\n      sub(shl(0xa0, 0x01), 0x01)\n        /* \"RamzSwapRouter.sol\":7739:7755  tokenA == token0 */\n      dup8\n      dup2\n      and\n      swap1\n      dup5\n      and\n      eq\n        /* \"RamzSwapRouter.sol\":7739:7801  tokenA == token0 ? (reserve0, reserve1) : (reserve1, reserve0) */\n      tag_674\n      jumpi\n        /* \"RamzSwapRouter.sol\":7782:7790  reserve1 */\n      dup1\n        /* \"RamzSwapRouter.sol\":7792:7800  reserve0 */\n      dup3\n        /* \"RamzSwapRouter.sol\":7739:7801  tokenA == token0 ? (reserve0, reserve1) : (reserve1, reserve0) */\n      jump(tag_675)\n    tag_674:\n        /* \"RamzSwapRouter.sol\":7759:7767  reserve0 */\n      dup2\n        /* \"RamzSwapRouter.sol\":7769:7777  reserve1 */\n      dup2\n        /* \"RamzSwapRouter.sol\":7739:7801  tokenA == token0 ? (reserve0, reserve1) : (reserve1, reserve0) */\n    tag_675:\n        /* \"RamzSwapRouter.sol\":7716:7801  (reserveA, reserveB) = tokenA == token0 ? (reserve0, reserve1) : (reserve1, reserve0) */\n      swap1\n      swap10\n      swap1\n      swap9\n      pop\n        /* \"RamzSwapRouter.sol\":7422:7808  function getReserves(address factory, address tokenA, address tokenB) internal view returns (uint reserveA, uint reserveB) {... */\n      swap7\n      pop\n      pop\n      pop\n      pop\n      pop\n      pop\n      pop\n      jump\t// out\n    stop\n    data_0287825460ae1e58fe1652c5ba2405fe45389a78b59693d424789bdfacfa8934 52616d7a537761704c6962726172793a204944454e544943414c5f414444524553534553\n    data_172ca57a4dbcc1e5389f92cbf7fbcc29ad207a881f5082d9108c79ebebff0656 52616d7a537761704c6962726172793a20494e53554646494349454e545f4f55545055545f414d4f554e54\n    data_32056ae2c16675a1d24b9743904d1b5df1f95f447fbf7ff51f2857e09b63391a 52616d7a53776170526f757465723a20494e53554646494349454e545f425f414d4f554e54\n    data_3f8faf98afe9344b6d4b0e75b0101259bf282914b3b5a9320c6918b6e27ede1c 5472616e7366657248656c7065723a3a7472616e7366657246726f6d3a207472616e7366657246726f6d206661696c6564\n    data_5e897f34b03c6c0a30277e01a5a4f60eb9482a487ba0f763282084ccb4259511 52616d7a53776170526f757465723a204558434553534956455f494e5055545f414d4f554e54\n    data_78b0a74c5e41b267c0a4b62ae10d97fea57d8c1299672445ea846f63a0e96971 5472616e7366657248656c7065723a3a736166655472616e736665724d41414c3a204d41414c207472616e73666572206661696c6564\n    data_92bed72301af54fb94c0614e27e3644454feb1e53de0a0abd95beca76cd63fa9 52616d7a53776170526f757465723a20494e53554646494349454e545f4f55545055545f414d4f554e54\n    data_a3f1373089ee7b4837b906391b8993e750ecc2d2c744f3f58b38560998fe2d12 52616d7a53776170526f757465723a20494e56414c49445f5041544800000000\n    data_ab3f0f58adb5721a72b82ddabede1d890405a5922eabab472db664ffa233e201 52616d7a537761704c6962726172793a20494e53554646494349454e545f494e5055545f414d4f554e54\n    data_abe419f277ac6b272f0968a9f490f07eeccba4f306ed4de5548b5f8f76aeb85a 52616d7a53776170526f757465723a2045585049524544000000000000000000\n    data_b52214121bd9a7f266e2a49d2be26d2d7591a4c8cb33e3cce9ba3b94930dca8d 52616d7a537761704c6962726172793a20494e53554646494349454e545f4c4951554944495459\n    data_d045037e664e0d3d8422ec04d5b3e5b23da316f1ecf642071d33771461071307 52616d7a53776170526f757465723a20494e53554646494349454e545f415f414d4f554e54\n    data_d069a21363f648c9c786f099ffabca174c290c50846867b02e0a31df0399e8aa 52616d7a537761704c6962726172793a20494e53554646494349454e545f414d4f554e54\n    data_daea69421eeb1164e163c36f3d4349f0db3ec4e0d1381bd5bf4faf53496c2611 5472616e7366657248656c7065723a3a736166655472616e736665723a207472616e73666572206661696c6564\n\n    auxdata: 0xa2646970667358221220a32ce8d7932dead3d70a31e4c2e4ec5bdd9508a1b9f9f0b8dc3994392b036a8a64736f6c63430006060033\n}\n",
				"bytecode": {
					"linkReferences": {},
					"object": "60c060405234801561001057600080fd5b5060405162004796380380620047968339818101604052604081101561003557600080fd5b5080516020909101516001600160601b0319606092831b8116608052911b1660a05260805160601c60a05160601c614611620001856000398061015f5280610cfc5280610f1752806111305280611261528061129c528061137c52806114db528061159152806117b452806118fa52806119825280611d2d5280611e705280611ef852806120b6528061210c528061214052806121b4528061230e52806126b3528061280f52806129c15280612a565280612aca5280612e8f5280612f3e525080610d8a5280610e5e5280610fdd5280611016528061110e528061142b528061166c528061184752806119b45280611dc05280611f2a52806120ea528061238852806124915280612691528061279d528061289d52806129555280612afc5280612d6a52806134cd528061351052806139075280613a865280613d735280613e215280613ea152506146116000f3fe60806040526004361061014f5760003560e01c806375075a06116100b6578063c45a01551161006f578063c45a0155146109fe578063c4eab65c14610a13578063d06ca61f14610aa9578063e5e481e614610b5e578063e8e3370014610be2578063ef08efd014610c4457610188565b806375075a06146107fb57806385f8c2591461082c5780638803dbee14610862578063ad615dec146108f8578063baa2abde1461092e578063bfb8b7231461098b57610188565b806332c46c911161010857806332c46c91146104cd57806338ed17391461056357806351a5114e146105f95780635c11d7951461067d57806363e700ce146107135780636b3b35761461079757610188565b8063054d50d41461018d578063161a1994146101d55780631f00ca74146102bb5780632195995c146103705780632b4b3835146104075780632d9fc6d91461047a57610188565b3661018857336001600160a01b037f0000000000000000000000000000000000000000000000000000000000000000161461018657fe5b005b600080fd5b34801561019957600080fd5b506101c3600480360360608110156101b057600080fd5b5080359060208101359060400135610c97565b60408051918252519081900360200190f35b3480156101e157600080fd5b5061026b600480360360a08110156101f857600080fd5b813591602081013591810190606081016040820135600160201b81111561021e57600080fd5b82018360208201111561023057600080fd5b803590602001918460208302840111600160201b8311171561025157600080fd5b91935091506001600160a01b038135169060200135610cac565b60408051602080825283518183015283519192839290830191858101910280838360005b838110156102a757818101518382015260200161028f565b505050509050019250505060405180910390f35b3480156102c757600080fd5b5061026b600480360360408110156102de57600080fd5b81359190810190604081016020820135600160201b8111156102ff57600080fd5b82018360208201111561031157600080fd5b803590602001918460208302840111600160201b8311171561033257600080fd5b919080806020026020016040519081016040528093929190818152602001838360200280828437600092019190915250929550610fd6945050505050565b34801561037c57600080fd5b506103ee600480360361016081101561039457600080fd5b506001600160a01b038135811691602081013582169160408201359160608101359160808201359160a08101359091169060c08101359060e081013515159060ff610100820135169061012081013590610140013561100c565b6040805192835260208301919091528051918290030190f35b34801561041357600080fd5b506101c3600480360361014081101561042b57600080fd5b506001600160a01b0381358116916020810135916040820135916060810135916080820135169060a08101359060c081013515159060ff60e08201351690610100810135906101200135611106565b34801561048657600080fd5b506103ee600480360360c081101561049d57600080fd5b506001600160a01b0381358116916020810135916040820135916060810135916080820135169060a00135611214565b3480156104d957600080fd5b50610186600480360360a08110156104f057600080fd5b813591602081013591810190606081016040820135600160201b81111561051657600080fd5b82018360208201111561052857600080fd5b803590602001918460208302840111600160201b8311171561054957600080fd5b91935091506001600160a01b03813516906020013561132e565b34801561056f57600080fd5b5061026b600480360360a081101561058657600080fd5b813591602081013591810190606081016040820135600160201b8111156105ac57600080fd5b8201836020820111156105be57600080fd5b803590602001918460208302840111600160201b831117156105df57600080fd5b91935091506001600160a01b038135169060200135611621565b61026b6004803603608081101561060f57600080fd5b81359190810190604081016020820135600160201b81111561063057600080fd5b82018360208201111561064257600080fd5b803590602001918460208302840111600160201b8311171561066357600080fd5b91935091506001600160a01b03813516906020013561176c565b34801561068957600080fd5b50610186600480360360a08110156106a057600080fd5b813591602081013591810190606081016040820135600160201b8111156106c657600080fd5b8201836020820111156106d857600080fd5b803590602001918460208302840111600160201b831117156106f957600080fd5b91935091506001600160a01b038135169060200135611abf565b61026b6004803603608081101561072957600080fd5b81359190810190604081016020820135600160201b81111561074a57600080fd5b82018360208201111561075c57600080fd5b803590602001918460208302840111600160201b8311171561077d57600080fd5b91935091506001600160a01b038135169060200135611ce5565b6107dd600480360360c08110156107ad57600080fd5b506001600160a01b0381358116916020810135916040820135916060810135916080820135169060a00135612067565b60408051938452602084019290925282820152519081900360600190f35b34801561080757600080fd5b5061081061230c565b604080516001600160a01b039092168252519081900360200190f35b34801561083857600080fd5b506101c36004803603606081101561084f57600080fd5b5080359060208101359060400135612330565b34801561086e57600080fd5b5061026b600480360360a081101561088557600080fd5b813591602081013591810190606081016040820135600160201b8111156108ab57600080fd5b8201836020820111156108bd57600080fd5b803590602001918460208302840111600160201b831117156108de57600080fd5b91935091506001600160a01b03813516906020013561233d565b34801561090457600080fd5b506101c36004803603606081101561091b57600080fd5b5080359060208101359060400135612436565b34801561093a57600080fd5b506103ee600480360360e081101561095157600080fd5b506001600160a01b038135811691602081013582169160408201359160608101359160808201359160a08101359091169060c00135612443565b34801561099757600080fd5b506103ee60048036036101408110156109af57600080fd5b506001600160a01b0381358116916020810135916040820135916060810135916080820135169060a08101359060c081013515159060ff60e08201351690610100810135906101200135612687565b348015610a0a57600080fd5b5061081061279b565b348015610a1f57600080fd5b5061026b600480360360a0811015610a3657600080fd5b813591602081013591810190606081016040820135600160201b811115610a5c57600080fd5b820183602082011115610a6e57600080fd5b803590602001918460208302840111600160201b83111715610a8f57600080fd5b91935091506001600160a01b0381351690602001356127bf565b348015610ab557600080fd5b5061026b60048036036040811015610acc57600080fd5b81359190810190604081016020820135600160201b811115610aed57600080fd5b820183602082011115610aff57600080fd5b803590602001918460208302840111600160201b83111715610b2057600080fd5b91908080602002602001604051908101604052809392919081815260200183836020028082843760009201919091525092955061294e945050505050565b61018660048036036080811015610b7457600080fd5b81359190810190604081016020820135600160201b811115610b9557600080fd5b820183602082011115610ba757600080fd5b803590602001918460208302840111600160201b83111715610bc857600080fd5b91935091506001600160a01b03813516906020013561297b565b348015610bee57600080fd5b506107dd6004803603610100811015610c0657600080fd5b506001600160a01b038135811691602081013582169160408201359160608101359160808201359160a08101359160c0820135169060e00135612d07565b348015610c5057600080fd5b506101c3600480360360c0811015610c6757600080fd5b506001600160a01b0381358116916020810135916040820135916060810135916080820135169060a00135612e43565b6000610ca4848484612fc4565b949350505050565b60608142811015610cf2576040805162461bcd60e51b8152602060048201526017602482015260008051602061451f833981519152604482015290519081900360640190fd5b6001600160a01b037f00000000000000000000000000000000000000000000000000000000000000001686866000198101818110610d2c57fe5b905060200201356001600160a01b03166001600160a01b031614610d85576040805162461bcd60e51b815260206004820152601c60248201526000805160206144d5833981519152604482015290519081900360640190fd5b610de37f0000000000000000000000000000000000000000000000000000000000000000898888808060200260200160405190810160405280939291908181526020018383602002808284376000920191909152506130b492505050565b91508682600081518110610df357fe5b60200260200101511115610e385760405162461bcd60e51b815260040180806020018281038252602681526020018061444f6026913960400191505060405180910390fd5b610ed686866000818110610e4857fe5b905060200201356001600160a01b031633610ebc7f00000000000000000000000000000000000000000000000000000000000000008a8a6000818110610e8a57fe5b905060200201356001600160a01b03168b8b6001818110610ea757fe5b905060200201356001600160a01b0316613201565b85600081518110610ec957fe5b60200260200101516132c1565b610f158287878080602002602001604051908101604052809392919081815260200183836020028082843760009201919091525030925061341e915050565b7f00000000000000000000000000000000000000000000000000000000000000006001600160a01b0316632e1a7d4d83600185510381518110610f5457fe5b60200260200101516040518263ffffffff1660e01b815260040180828152602001915050600060405180830381600087803b158015610f9257600080fd5b505af1158015610fa6573d6000803e3d6000fd5b50505050610fcb8483600185510381518110610fbe57fe5b6020026020010151613664565b509695505050505050565b60606110037f000000000000000000000000000000000000000000000000000000000000000084846130b4565b90505b92915050565b600080600061103c7f00000000000000000000000000000000000000000000000000000000000000008f8f613201565b905060008761104b578c61104f565b6000195b6040805163d505accf60e01b815233600482015230602482015260448101839052606481018c905260ff8a16608482015260a4810189905260c4810188905290519192506001600160a01b0384169163d505accf9160e48082019260009290919082900301818387803b1580156110c557600080fd5b505af11580156110d9573d6000803e3d6000fd5b505050506110ec8f8f8f8f8f8f8f612443565b809450819550505050509b509b9950505050505050505050565b6000806111547f00000000000000000000000000000000000000000000000000000000000000008d7f0000000000000000000000000000000000000000000000000000000000000000613201565b9050600086611163578b611167565b6000195b6040805163d505accf60e01b815233600482015230602482015260448101839052606481018b905260ff8916608482015260a4810188905260c4810187905290519192506001600160a01b0384169163d505accf9160e48082019260009290919082900301818387803b1580156111dd57600080fd5b505af11580156111f1573d6000803e3d6000fd5b505050506112038d8d8d8d8d8d612e43565b9d9c50505050505050505050505050565b600080824281101561125b576040805162461bcd60e51b8152602060048201526017602482015260008051602061451f833981519152604482015290519081900360640190fd5b61128a897f00000000000000000000000000000000000000000000000000000000000000008a8a8a308a612443565b909350915061129a89868561375c565b7f00000000000000000000000000000000000000000000000000000000000000006001600160a01b0316632e1a7d4d836040518263ffffffff1660e01b815260040180828152602001915050600060405180830381600087803b15801561130057600080fd5b505af1158015611314573d6000803e3d6000fd5b505050506113228583613664565b50965096945050505050565b8042811015611372576040805162461bcd60e51b8152602060048201526017602482015260008051602061451f833981519152604482015290519081900360640190fd5b6001600160a01b037f000000000000000000000000000000000000000000000000000000000000000016858560001981018181106113ac57fe5b905060200201356001600160a01b03166001600160a01b031614611405576040805162461bcd60e51b815260206004820152601c60248201526000805160206144d5833981519152604482015290519081900360640190fd5b61147a8585600081811061141557fe5b905060200201356001600160a01b0316336114747f00000000000000000000000000000000000000000000000000000000000000008989600081811061145757fe5b905060200201356001600160a01b03168a8a6001818110610ea757fe5b8a6132c1565b6114b88585808060200260200160405190810160405280939291908181526020018383602002808284376000920191909152503092506138b0915050565b604080516370a0823160e01b815230600482015290516000916001600160a01b037f000000000000000000000000000000000000000000000000000000000000000016916370a0823191602480820192602092909190829003018186803b15801561152257600080fd5b505afa158015611536573d6000803e3d6000fd5b505050506040513d602081101561154c57600080fd5b505190508681101561158f5760405162461bcd60e51b815260040180806020018281038252602a8152602001806144ab602a913960400191505060405180910390fd5b7f00000000000000000000000000000000000000000000000000000000000000006001600160a01b0316632e1a7d4d826040518263ffffffff1660e01b815260040180828152602001915050600060405180830381600087803b1580156115f557600080fd5b505af1158015611609573d6000803e3d6000fd5b505050506116178482613664565b5050505050505050565b60608142811015611667576040805162461bcd60e51b8152602060048201526017602482015260008051602061451f833981519152604482015290519081900360640190fd5b6116c57f000000000000000000000000000000000000000000000000000000000000000089888880806020026020016040519081016040528093929190818152602001838360200280828437600092019190915250613bbb92505050565b915086826001845103815181106116d857fe5b6020026020010151101561171d5760405162461bcd60e51b815260040180806020018281038252602a8152602001806144ab602a913960400191505060405180910390fd5b61172d86866000818110610e4857fe5b610fcb8287878080602002602001604051908101604052809392919081815260200183836020028082843760009201919091525089925061341e915050565b606081428110156117b2576040805162461bcd60e51b8152602060048201526017602482015260008051602061451f833981519152604482015290519081900360640190fd5b7f00000000000000000000000000000000000000000000000000000000000000006001600160a01b0316868660008181106117e957fe5b905060200201356001600160a01b03166001600160a01b031614611842576040805162461bcd60e51b815260206004820152601c60248201526000805160206144d5833981519152604482015290519081900360640190fd5b6118a07f000000000000000000000000000000000000000000000000000000000000000034888880806020026020016040519081016040528093929190818152602001838360200280828437600092019190915250613bbb92505050565b915086826001845103815181106118b357fe5b602002602001015110156118f85760405162461bcd60e51b815260040180806020018281038252602a8152602001806144ab602a913960400191505060405180910390fd5b7f00000000000000000000000000000000000000000000000000000000000000006001600160a01b031663d0e30db08360008151811061193457fe5b60200260200101516040518263ffffffff1660e01b81526004016000604051808303818588803b15801561196757600080fd5b505af115801561197b573d6000803e3d6000fd5b50505050507f00000000000000000000000000000000000000000000000000000000000000006001600160a01b031663a9059cbb6119e07f00000000000000000000000000000000000000000000000000000000000000008989600081811061145757fe5b846000815181106119ed57fe5b60200260200101516040518363ffffffff1660e01b815260040180836001600160a01b03166001600160a01b0316815260200182815260200192505050602060405180830381600087803b158015611a4457600080fd5b505af1158015611a58573d6000803e3d6000fd5b505050506040513d6020811015611a6e57600080fd5b5051611a7657fe5b611ab58287878080602002602001604051908101604052809392919081815260200183836020028082843760009201919091525089925061341e915050565b5095945050505050565b8042811015611b03576040805162461bcd60e51b8152602060048201526017602482015260008051602061451f833981519152604482015290519081900360640190fd5b611b138585600081811061141557fe5b600085856000198101818110611b2557fe5b905060200201356001600160a01b03166001600160a01b03166370a08231856040518263ffffffff1660e01b815260040180826001600160a01b03166001600160a01b0316815260200191505060206040518083038186803b158015611b8a57600080fd5b505afa158015611b9e573d6000803e3d6000fd5b505050506040513d6020811015611bb457600080fd5b50516040805160208881028281018201909352888252929350611bf69290918991899182918501908490808284376000920191909152508892506138b0915050565b86611ca88288886000198101818110611c0b57fe5b905060200201356001600160a01b03166001600160a01b03166370a08231886040518263ffffffff1660e01b815260040180826001600160a01b03166001600160a01b0316815260200191505060206040518083038186803b158015611c7057600080fd5b505afa158015611c84573d6000803e3d6000fd5b505050506040513d6020811015611c9a57600080fd5b50519063ffffffff613cf216565b10156116175760405162461bcd60e51b815260040180806020018281038252602a8152602001806144ab602a913960400191505060405180910390fd5b60608142811015611d2b576040805162461bcd60e51b8152602060048201526017602482015260008051602061451f833981519152604482015290519081900360640190fd5b7f00000000000000000000000000000000000000000000000000000000000000006001600160a01b031686866000818110611d6257fe5b905060200201356001600160a01b03166001600160a01b031614611dbb576040805162461bcd60e51b815260206004820152601c60248201526000805160206144d5833981519152604482015290519081900360640190fd5b611e197f0000000000000000000000000000000000000000000000000000000000000000888888808060200260200160405190810160405280939291908181526020018383602002808284376000920191909152506130b492505050565b91503482600081518110611e2957fe5b60200260200101511115611e6e5760405162461bcd60e51b815260040180806020018281038252602681526020018061444f6026913960400191505060405180910390fd5b7f00000000000000000000000000000000000000000000000000000000000000006001600160a01b031663d0e30db083600081518110611eaa57fe5b60200260200101516040518263ffffffff1660e01b81526004016000604051808303818588803b158015611edd57600080fd5b505af1158015611ef1573d6000803e3d6000fd5b50505050507f00000000000000000000000000000000000000000000000000000000000000006001600160a01b031663a9059cbb611f567f00000000000000000000000000000000000000000000000000000000000000008989600081811061145757fe5b84600081518110611f6357fe5b60200260200101516040518363ffffffff1660e01b815260040180836001600160a01b03166001600160a01b0316815260200182815260200192505050602060405180830381600087803b158015611fba57600080fd5b505af1158015611fce573d6000803e3d6000fd5b505050506040513d6020811015611fe457600080fd5b5051611fec57fe5b61202b8287878080602002602001604051908101604052809392919081815260200183836020028082843760009201919091525089925061341e915050565b8160008151811061203857fe5b6020026020010151341115611ab557611ab5338360008151811061205857fe5b60200260200101513403613664565b600080600083428110156120b0576040805162461bcd60e51b8152602060048201526017602482015260008051602061451f833981519152604482015290519081900360640190fd5b6120de8a7f00000000000000000000000000000000000000000000000000000000000000008b348c8c613d42565b909450925060006121307f00000000000000000000000000000000000000000000000000000000000000008c7f0000000000000000000000000000000000000000000000000000000000000000613201565b905061213e8b3383886132c1565b7f00000000000000000000000000000000000000000000000000000000000000006001600160a01b031663d0e30db0856040518263ffffffff1660e01b81526004016000604051808303818588803b15801561219957600080fd5b505af11580156121ad573d6000803e3d6000fd5b50505050507f00000000000000000000000000000000000000000000000000000000000000006001600160a01b031663a9059cbb82866040518363ffffffff1660e01b815260040180836001600160a01b03166001600160a01b0316815260200182815260200192505050602060405180830381600087803b15801561223257600080fd5b505af1158015612246573d6000803e3d6000fd5b505050506040513d602081101561225c57600080fd5b505161226457fe5b806001600160a01b0316636a627842886040518263ffffffff1660e01b815260040180826001600160a01b03166001600160a01b03168152602001915050602060405180830381600087803b1580156122bc57600080fd5b505af11580156122d0573d6000803e3d6000fd5b505050506040513d60208110156122e657600080fd5b50519250348410156122fe576122fe33853403613664565b505096509650969350505050565b7f000000000000000000000000000000000000000000000000000000000000000081565b6000610ca4848484613fb6565b60608142811015612383576040805162461bcd60e51b8152602060048201526017602482015260008051602061451f833981519152604482015290519081900360640190fd5b6123e17f0000000000000000000000000000000000000000000000000000000000000000898888808060200260200160405190810160405280939291908181526020018383602002808284376000920191909152506130b492505050565b915086826000815181106123f157fe5b6020026020010151111561171d5760405162461bcd60e51b815260040180806020018281038252602681526020018061444f6026913960400191505060405180910390fd5b6000610ca48484846140a6565b600080824281101561248a576040805162461bcd60e51b8152602060048201526017602482015260008051602061451f833981519152604482015290519081900360640190fd5b60006124b77f00000000000000000000000000000000000000000000000000000000000000008c8c613201565b604080516323b872dd60e01b81523360048201526001600160a01b03831660248201819052604482018d9052915192935090916323b872dd916064808201926020929091908290030181600087803b15801561251257600080fd5b505af1158015612526573d6000803e3d6000fd5b505050506040513d602081101561253c57600080fd5b50506040805163226bf2d160e21b81526001600160a01b03888116600483015282516000938493928616926389afcb44926024808301939282900301818787803b15801561258957600080fd5b505af115801561259d573d6000803e3d6000fd5b505050506040513d60408110156125b357600080fd5b508051602090910151909250905060006125cd8e8e614152565b509050806001600160a01b03168e6001600160a01b0316146125f05781836125f3565b82825b90975095508a8710156126375760405162461bcd60e51b81526004018080602001828103825260258152602001806145666025913960400191505060405180910390fd5b898610156126765760405162461bcd60e51b81526004018080602001828103825260258152602001806143f96025913960400191505060405180910390fd5b505050505097509795505050505050565b60008060006126d77f00000000000000000000000000000000000000000000000000000000000000008e7f0000000000000000000000000000000000000000000000000000000000000000613201565b90506000876126e6578c6126ea565b6000195b6040805163d505accf60e01b815233600482015230602482015260448101839052606481018c905260ff8a16608482015260a4810189905260c4810188905290519192506001600160a01b0384169163d505accf9160e48082019260009290919082900301818387803b15801561276057600080fd5b505af1158015612774573d6000803e3d6000fd5b505050506127868e8e8e8e8e8e611214565b909f909e509c50505050505050505050505050565b7f000000000000000000000000000000000000000000000000000000000000000081565b60608142811015612805576040805162461bcd60e51b8152602060048201526017602482015260008051602061451f833981519152604482015290519081900360640190fd5b6001600160a01b037f0000000000000000000000000000000000000000000000000000000000000000168686600019810181811061283f57fe5b905060200201356001600160a01b03166001600160a01b031614612898576040805162461bcd60e51b815260206004820152601c60248201526000805160206144d5833981519152604482015290519081900360640190fd5b6128f67f000000000000000000000000000000000000000000000000000000000000000089888880806020026020016040519081016040528093929190818152602001838360200280828437600092019190915250613bbb92505050565b9150868260018451038151811061290957fe5b60200260200101511015610e385760405162461bcd60e51b815260040180806020018281038252602a8152602001806144ab602a913960400191505060405180910390fd5b60606110037f00000000000000000000000000000000000000000000000000000000000000008484613bbb565b80428110156129bf576040805162461bcd60e51b8152602060048201526017602482015260008051602061451f833981519152604482015290519081900360640190fd5b7f00000000000000000000000000000000000000000000000000000000000000006001600160a01b0316858560008181106129f657fe5b905060200201356001600160a01b03166001600160a01b031614612a4f576040805162461bcd60e51b815260206004820152601c60248201526000805160206144d5833981519152604482015290519081900360640190fd5b60003490507f00000000000000000000000000000000000000000000000000000000000000006001600160a01b031663d0e30db0826040518263ffffffff1660e01b81526004016000604051808303818588803b158015612aaf57600080fd5b505af1158015612ac3573d6000803e3d6000fd5b50505050507f00000000000000000000000000000000000000000000000000000000000000006001600160a01b031663a9059cbb612b287f00000000000000000000000000000000000000000000000000000000000000008989600081811061145757fe5b836040518363ffffffff1660e01b815260040180836001600160a01b03166001600160a01b0316815260200182815260200192505050602060405180830381600087803b158015612b7857600080fd5b505af1158015612b8c573d6000803e3d6000fd5b505050506040513d6020811015612ba257600080fd5b5051612baa57fe5b600086866000198101818110612bbc57fe5b905060200201356001600160a01b03166001600160a01b03166370a08231866040518263ffffffff1660e01b815260040180826001600160a01b03166001600160a01b0316815260200191505060206040518083038186803b158015612c2157600080fd5b505afa158015612c35573d6000803e3d6000fd5b505050506040513d6020811015612c4b57600080fd5b50516040805160208981028281018201909352898252929350612c8d9290918a918a9182918501908490808284376000920191909152508992506138b0915050565b87611ca88289896000198101818110612ca257fe5b905060200201356001600160a01b03166001600160a01b03166370a08231896040518263ffffffff1660e01b815260040180826001600160a01b03166001600160a01b0316815260200191505060206040518083038186803b158015611c7057600080fd5b60008060008342811015612d50576040805162461bcd60e51b8152602060048201526017602482015260008051602061451f833981519152604482015290519081900360640190fd5b612d5e8c8c8c8c8c8c613d42565b90945092506000612d907f00000000000000000000000000000000000000000000000000000000000000008e8e613201565b9050612d9e8d3383886132c1565b612daa8c3383876132c1565b806001600160a01b0316636a627842886040518263ffffffff1660e01b815260040180826001600160a01b03166001600160a01b03168152602001915050602060405180830381600087803b158015612e0257600080fd5b505af1158015612e16573d6000803e3d6000fd5b505050506040513d6020811015612e2c57600080fd5b5051949d939c50939a509198505050505050505050565b60008142811015612e89576040805162461bcd60e51b8152602060048201526017602482015260008051602061451f833981519152604482015290519081900360640190fd5b612eb8887f00000000000000000000000000000000000000000000000000000000000000008989893089612443565b604080516370a0823160e01b81523060048201529051919450612f3c92508a9187916001600160a01b038416916370a0823191602480820192602092909190829003018186803b158015612f0b57600080fd5b505afa158015612f1f573d6000803e3d6000fd5b505050506040513d6020811015612f3557600080fd5b505161375c565b7f00000000000000000000000000000000000000000000000000000000000000006001600160a01b0316632e1a7d4d836040518263ffffffff1660e01b815260040180828152602001915050600060405180830381600087803b158015612fa257600080fd5b505af1158015612fb6573d6000803e3d6000fd5b50505050610fcb8483613664565b60008084116130045760405162461bcd60e51b815260040180806020018281038252602a8152602001806144f5602a913960400191505060405180910390fd5b6000831180156130145750600082115b61304f5760405162461bcd60e51b815260040180806020018281038252602781526020018061453f6027913960400191505060405180910390fd5b6000613063856103e563ffffffff61423016565b90506000613077828563ffffffff61423016565b9050600061309d83613091886103e863ffffffff61423016565b9063ffffffff61429316565b90508082816130a857fe5b04979650505050505050565b606060028251101561310d576040805162461bcd60e51b815260206004820152601d60248201527f52616d7a537761704c6962726172793a20494e56414c49445f50415448000000604482015290519081900360640190fd5b815167ffffffffffffffff8111801561312557600080fd5b5060405190808252806020026020018201604052801561314f578160200160208202803683370190505b509050828160018351038151811061316357fe5b60209081029190910101528151600019015b80156131f9576000806131b28786600186038151811061319157fe5b60200260200101518786815181106131a557fe5b60200260200101516142e2565b915091506131d48484815181106131c557fe5b60200260200101518383613fb6565b8460018503815181106131e357fe5b6020908102919091010152505060001901613175565b509392505050565b60008060006132108585614152565b604080516bffffffffffffffffffffffff19606094851b811660208084019190915293851b81166034830152825160288184030181526048830184528051908501206001600160f81b031960688401529a90941b9093166069840152607d8301989098527f2c8834d5b43c053f2f3b100c32a41e6f5db856acc6661dc09582cb2cd4d7608e609d808401919091528851808403909101815260bd909201909752805196019590952095945050505050565b604080516001600160a01b0385811660248301528481166044830152606480830185905283518084039091018152608490920183526020820180516001600160e01b03166323b872dd60e01b17815292518251600094606094938a169392918291908083835b602083106133465780518252601f199092019160209182019101613327565b6001836020036101000a0380198251168184511680821785525050505050509050019150506000604051808303816000865af19150503d80600081146133a8576040519150601f19603f3d011682016040523d82523d6000602084013e6133ad565b606091505b50915091508180156133db5750805115806133db57508080602001905160208110156133d857600080fd5b50515b6134165760405162461bcd60e51b815260040180806020018281038252603181526020018061441e6031913960400191505060405180910390fd5b505050505050565b60005b600183510381101561365e5760008084838151811061343c57fe5b602002602001015185846001018151811061345357fe5b602002602001015191509150600061346b8383614152565b509050600087856001018151811061347f57fe5b60200260200101519050600080836001600160a01b0316866001600160a01b0316146134ad578260006134b1565b6000835b91509150600060028a510388106134c85788613509565b6135097f0000000000000000000000000000000000000000000000000000000000000000878c8b600201815181106134fc57fe5b6020026020010151613201565b90506135367f00000000000000000000000000000000000000000000000000000000000000008888613201565b6001600160a01b031663022c0d9f84848460006040519080825280601f01601f191660200182016040528015613573576020820181803683370190505b506040518563ffffffff1660e01b815260040180858152602001848152602001836001600160a01b03166001600160a01b0316815260200180602001828103825283818151815260200191508051906020019080838360005b838110156135e45781810151838201526020016135cc565b50505050905090810190601f1680156136115780820380516001836020036101000a031916815260200191505b5095505050505050600060405180830381600087803b15801561363357600080fd5b505af1158015613647573d6000803e3d6000fd5b505060019099019850613421975050505050505050565b50505050565b604080516000808252602082019092526001600160a01b0384169083906040518082805190602001908083835b602083106136b05780518252601f199092019160209182019101613691565b6001836020036101000a03801982511681845116808217855250505050505090500191505060006040518083038185875af1925050503d8060008114613712576040519150601f19603f3d011682016040523d82523d6000602084013e613717565b606091505b50509050806137575760405162461bcd60e51b81526004018080602001828103825260368152602001806144756036913960400191505060405180910390fd5b505050565b604080516001600160a01b038481166024830152604480830185905283518084039091018152606490920183526020820180516001600160e01b031663a9059cbb60e01b178152925182516000946060949389169392918291908083835b602083106137d95780518252601f1990920191602091820191016137ba565b6001836020036101000a0380198251168184511680821785525050505050509050019150506000604051808303816000865af19150503d806000811461383b576040519150601f19603f3d011682016040523d82523d6000602084013e613840565b606091505b509150915081801561386e57508051158061386e575080806020019051602081101561386b57600080fd5b50515b6138a95760405162461bcd60e51b815260040180806020018281038252602d8152602001806145af602d913960400191505060405180910390fd5b5050505050565b60005b6001835103811015613757576000808483815181106138ce57fe5b60200260200101518584600101815181106138e557fe5b60200260200101519150915060006138fd8383614152565b509050600061392d7f00000000000000000000000000000000000000000000000000000000000000008585613201565b9050600080600080846001600160a01b0316630902f1ac6040518163ffffffff1660e01b815260040160606040518083038186803b15801561396e57600080fd5b505afa158015613982573d6000803e3d6000fd5b505050506040513d606081101561399857600080fd5b5080516020909101516001600160701b0391821693501690506000806001600160a01b038a8116908916146139ce5782846139d1565b83835b91509150613a2f828b6001600160a01b03166370a082318a6040518263ffffffff1660e01b815260040180826001600160a01b03166001600160a01b0316815260200191505060206040518083038186803b158015611c7057600080fd5b9550613a3c868383612fc4565b945050505050600080856001600160a01b0316886001600160a01b031614613a6657826000613a6a565b6000835b91509150600060028c51038a10613a81578a613ab5565b613ab57f0000000000000000000000000000000000000000000000000000000000000000898e8d600201815181106134fc57fe5b604080516000808252602082019283905263022c0d9f60e01b835260248201878152604483018790526001600160a01b038086166064850152608060848501908152845160a48601819052969750908c169563022c0d9f958a958a958a9591949193919260c486019290918190849084905b83811015613b3f578181015183820152602001613b27565b50505050905090810190601f168015613b6c5780820380516001836020036101000a031916815260200191505b5095505050505050600060405180830381600087803b158015613b8e57600080fd5b505af1158015613ba2573d6000803e3d6000fd5b50506001909b019a506138b39950505050505050505050565b6060600282511015613c14576040805162461bcd60e51b815260206004820152601d60248201527f52616d7a537761704c6962726172793a20494e56414c49445f50415448000000604482015290519081900360640190fd5b815167ffffffffffffffff81118015613c2c57600080fd5b50604051908082528060200260200182016040528015613c56578160200160208202803683370190505b5090508281600081518110613c6757fe5b60200260200101818152505060005b60018351038110156131f957600080613cac87868581518110613c9557fe5b60200260200101518786600101815181106131a557fe5b91509150613cce848481518110613cbf57fe5b60200260200101518383612fc4565b848460010181518110613cdd57fe5b60209081029190910101525050600101613c76565b80820382811115611006576040805162461bcd60e51b815260206004820152601560248201527464732d6d6174682d7375622d756e646572666c6f7760581b604482015290519081900360640190fd5b6040805163e6a4390560e01b81526001600160a01b03888116600483015287811660248301529151600092839283927f00000000000000000000000000000000000000000000000000000000000000009092169163e6a4390591604480820192602092909190829003018186803b158015613dbc57600080fd5b505afa158015613dd0573d6000803e3d6000fd5b505050506040513d6020811015613de657600080fd5b50516001600160a01b03161415613e9957604080516364e329cb60e11b81526001600160a01b038a81166004830152898116602483015291517f00000000000000000000000000000000000000000000000000000000000000009092169163c9c65396916044808201926020929091908290030181600087803b158015613e6c57600080fd5b505af1158015613e80573d6000803e3d6000fd5b505050506040513d6020811015613e9657600080fd5b50505b600080613ec77f00000000000000000000000000000000000000000000000000000000000000008b8b6142e2565b91509150816000148015613ed9575080155b15613ee957879350869250613fa9565b6000613ef68984846140a6565b9050878111613f495785811015613f3e5760405162461bcd60e51b81526004018080602001828103825260258152602001806143f96025913960400191505060405180910390fd5b889450925082613fa7565b6000613f568984866140a6565b905089811115613f6257fe5b87811015613fa15760405162461bcd60e51b81526004018080602001828103825260258152602001806145666025913960400191505060405180910390fd5b94508793505b505b5050965096945050505050565b6000808411613ff65760405162461bcd60e51b815260040180806020018281038252602b8152602001806143ce602b913960400191505060405180910390fd5b6000831180156140065750600082115b6140415760405162461bcd60e51b815260040180806020018281038252602781526020018061453f6027913960400191505060405180910390fd5b60006140656103e8614059868863ffffffff61423016565b9063ffffffff61423016565b9050600061407f6103e5614059868963ffffffff613cf216565b905061409c600182848161408f57fe5b049063ffffffff61429316565b9695505050505050565b60008084116140e65760405162461bcd60e51b815260040180806020018281038252602481526020018061458b6024913960400191505060405180910390fd5b6000831180156140f65750600082115b6141315760405162461bcd60e51b815260040180806020018281038252602781526020018061453f6027913960400191505060405180910390fd5b82614142858463ffffffff61423016565b8161414957fe5b04949350505050565b600080826001600160a01b0316846001600160a01b031614156141a65760405162461bcd60e51b81526004018080602001828103825260248152602001806143aa6024913960400191505060405180910390fd5b826001600160a01b0316846001600160a01b0316106141c65782846141c9565b83835b90925090506001600160a01b038216614229576040805162461bcd60e51b815260206004820152601d60248201527f52616d7a537761704c6962726172793a205a45524f5f41444452455353000000604482015290519081900360640190fd5b9250929050565b600081158061424b5750508082028282828161424857fe5b04145b611006576040805162461bcd60e51b815260206004820152601460248201527364732d6d6174682d6d756c2d6f766572666c6f7760601b604482015290519081900360640190fd5b80820182811015611006576040805162461bcd60e51b815260206004820152601460248201527364732d6d6174682d6164642d6f766572666c6f7760601b604482015290519081900360640190fd5b60008060006142f18585614152565b509050600080614302888888613201565b6001600160a01b0316630902f1ac6040518163ffffffff1660e01b815260040160606040518083038186803b15801561433a57600080fd5b505afa15801561434e573d6000803e3d6000fd5b505050506040513d606081101561436457600080fd5b5080516020909101516001600160701b0391821693501690506001600160a01b038781169084161461439757808261439a565b81815b9099909850965050505050505056fe52616d7a537761704c6962726172793a204944454e544943414c5f41444452455353455352616d7a537761704c6962726172793a20494e53554646494349454e545f4f55545055545f414d4f554e5452616d7a53776170526f757465723a20494e53554646494349454e545f425f414d4f554e545472616e7366657248656c7065723a3a7472616e7366657246726f6d3a207472616e7366657246726f6d206661696c656452616d7a53776170526f757465723a204558434553534956455f494e5055545f414d4f554e545472616e7366657248656c7065723a3a736166655472616e736665724d41414c3a204d41414c207472616e73666572206661696c656452616d7a53776170526f757465723a20494e53554646494349454e545f4f55545055545f414d4f554e5452616d7a53776170526f757465723a20494e56414c49445f504154480000000052616d7a537761704c6962726172793a20494e53554646494349454e545f494e5055545f414d4f554e5452616d7a53776170526f757465723a204558504952454400000000000000000052616d7a537761704c6962726172793a20494e53554646494349454e545f4c495155494449545952616d7a53776170526f757465723a20494e53554646494349454e545f415f414d4f554e5452616d7a537761704c6962726172793a20494e53554646494349454e545f414d4f554e545472616e7366657248656c7065723a3a736166655472616e736665723a207472616e73666572206661696c6564a2646970667358221220a32ce8d7932dead3d70a31e4c2e4ec5bdd9508a1b9f9f0b8dc3994392b036a8a64736f6c63430006060033",
					"opcodes": "PUSH1 0xC0 PUSH1 0x40 MSTORE CALLVALUE DUP1 ISZERO PUSH2 0x10 JUMPI PUSH1 0x0 DUP1 REVERT JUMPDEST POP PUSH1 0x40 MLOAD PUSH3 0x4796 CODESIZE SUB DUP1 PUSH3 0x4796 DUP4 CODECOPY DUP2 DUP2 ADD PUSH1 0x40 MSTORE PUSH1 0x40 DUP2 LT ISZERO PUSH2 0x35 JUMPI PUSH1 0x0 DUP1 REVERT JUMPDEST POP DUP1 MLOAD PUSH1 0x20 SWAP1 SWAP2 ADD MLOAD PUSH1 0x1 PUSH1 0x1 PUSH1 0x60 SHL SUB NOT PUSH1 0x60 SWAP3 DUP4 SHL DUP2 AND PUSH1 0x80 MSTORE SWAP2 SHL AND PUSH1 0xA0 MSTORE PUSH1 0x80 MLOAD PUSH1 0x60 SHR PUSH1 0xA0 MLOAD PUSH1 0x60 SHR PUSH2 0x4611 PUSH3 0x185 PUSH1 0x0 CODECOPY DUP1 PUSH2 0x15F MSTORE DUP1 PUSH2 0xCFC MSTORE DUP1 PUSH2 0xF17 MSTORE DUP1 PUSH2 0x1130 MSTORE DUP1 PUSH2 0x1261 MSTORE DUP1 PUSH2 0x129C MSTORE DUP1 PUSH2 0x137C MSTORE DUP1 PUSH2 0x14DB MSTORE DUP1 PUSH2 0x1591 MSTORE DUP1 PUSH2 0x17B4 MSTORE DUP1 PUSH2 0x18FA MSTORE DUP1 PUSH2 0x1982 MSTORE DUP1 PUSH2 0x1D2D MSTORE DUP1 PUSH2 0x1E70 MSTORE DUP1 PUSH2 0x1EF8 MSTORE DUP1 PUSH2 0x20B6 MSTORE DUP1 PUSH2 0x210C MSTORE DUP1 PUSH2 0x2140 MSTORE DUP1 PUSH2 0x21B4 MSTORE DUP1 PUSH2 0x230E MSTORE DUP1 PUSH2 0x26B3 MSTORE DUP1 PUSH2 0x280F MSTORE DUP1 PUSH2 0x29C1 MSTORE DUP1 PUSH2 0x2A56 MSTORE DUP1 PUSH2 0x2ACA MSTORE DUP1 PUSH2 0x2E8F MSTORE DUP1 PUSH2 0x2F3E MSTORE POP DUP1 PUSH2 0xD8A MSTORE DUP1 PUSH2 0xE5E MSTORE DUP1 PUSH2 0xFDD MSTORE DUP1 PUSH2 0x1016 MSTORE DUP1 PUSH2 0x110E MSTORE DUP1 PUSH2 0x142B MSTORE DUP1 PUSH2 0x166C MSTORE DUP1 PUSH2 0x1847 MSTORE DUP1 PUSH2 0x19B4 MSTORE DUP1 PUSH2 0x1DC0 MSTORE DUP1 PUSH2 0x1F2A MSTORE DUP1 PUSH2 0x20EA MSTORE DUP1 PUSH2 0x2388 MSTORE DUP1 PUSH2 0x2491 MSTORE DUP1 PUSH2 0x2691 MSTORE DUP1 PUSH2 0x279D MSTORE DUP1 PUSH2 0x289D MSTORE DUP1 PUSH2 0x2955 MSTORE DUP1 PUSH2 0x2AFC MSTORE DUP1 PUSH2 0x2D6A MSTORE DUP1 PUSH2 0x34CD MSTORE DUP1 PUSH2 0x3510 MSTORE DUP1 PUSH2 0x3907 MSTORE DUP1 PUSH2 0x3A86 MSTORE DUP1 PUSH2 0x3D73 MSTORE DUP1 PUSH2 0x3E21 MSTORE DUP1 PUSH2 0x3EA1 MSTORE POP PUSH2 0x4611 PUSH1 0x0 RETURN INVALID PUSH1 0x80 PUSH1 0x40 MSTORE PUSH1 0x4 CALLDATASIZE LT PUSH2 0x14F JUMPI PUSH1 0x0 CALLDATALOAD PUSH1 0xE0 SHR DUP1 PUSH4 0x75075A06 GT PUSH2 0xB6 JUMPI DUP1 PUSH4 0xC45A0155 GT PUSH2 0x6F JUMPI DUP1 PUSH4 0xC45A0155 EQ PUSH2 0x9FE JUMPI DUP1 PUSH4 0xC4EAB65C EQ PUSH2 0xA13 JUMPI DUP1 PUSH4 0xD06CA61F EQ PUSH2 0xAA9 JUMPI DUP1 PUSH4 0xE5E481E6 EQ PUSH2 0xB5E JUMPI DUP1 PUSH4 0xE8E33700 EQ PUSH2 0xBE2 JUMPI DUP1 PUSH4 0xEF08EFD0 EQ PUSH2 0xC44 JUMPI PUSH2 0x188 JUMP JUMPDEST DUP1 PUSH4 0x75075A06 EQ PUSH2 0x7FB JUMPI DUP1 PUSH4 0x85F8C259 EQ PUSH2 0x82C JUMPI DUP1 PUSH4 0x8803DBEE EQ PUSH2 0x862 JUMPI DUP1 PUSH4 0xAD615DEC EQ PUSH2 0x8F8 JUMPI DUP1 PUSH4 0xBAA2ABDE EQ PUSH2 0x92E JUMPI DUP1 PUSH4 0xBFB8B723 EQ PUSH2 0x98B JUMPI PUSH2 0x188 JUMP JUMPDEST DUP1 PUSH4 0x32C46C91 GT PUSH2 0x108 JUMPI DUP1 PUSH4 0x32C46C91 EQ PUSH2 0x4CD JUMPI DUP1 PUSH4 0x38ED1739 EQ PUSH2 0x563 JUMPI DUP1 PUSH4 0x51A5114E EQ PUSH2 0x5F9 JUMPI DUP1 PUSH4 0x5C11D795 EQ PUSH2 0x67D JUMPI DUP1 PUSH4 0x63E700CE EQ PUSH2 0x713 JUMPI DUP1 PUSH4 0x6B3B3576 EQ PUSH2 0x797 JUMPI PUSH2 0x188 JUMP JUMPDEST DUP1 PUSH4 0x54D50D4 EQ PUSH2 0x18D JUMPI DUP1 PUSH4 0x161A1994 EQ PUSH2 0x1D5 JUMPI DUP1 PUSH4 0x1F00CA74 EQ PUSH2 0x2BB JUMPI DUP1 PUSH4 0x2195995C EQ PUSH2 0x370 JUMPI DUP1 PUSH4 0x2B4B3835 EQ PUSH2 0x407 JUMPI DUP1 PUSH4 0x2D9FC6D9 EQ PUSH2 0x47A JUMPI PUSH2 0x188 JUMP JUMPDEST CALLDATASIZE PUSH2 0x188 JUMPI CALLER PUSH1 0x1 PUSH1 0x1 PUSH1 0xA0 SHL SUB PUSH32 0x0 AND EQ PUSH2 0x186 JUMPI INVALID JUMPDEST STOP JUMPDEST PUSH1 0x0 DUP1 REVERT JUMPDEST CALLVALUE DUP1 ISZERO PUSH2 0x199 JUMPI PUSH1 0x0 DUP1 REVERT JUMPDEST POP PUSH2 0x1C3 PUSH1 0x4 DUP1 CALLDATASIZE SUB PUSH1 0x60 DUP2 LT ISZERO PUSH2 0x1B0 JUMPI PUSH1 0x0 DUP1 REVERT JUMPDEST POP DUP1 CALLDATALOAD SWAP1 PUSH1 0x20 DUP2 ADD CALLDATALOAD SWAP1 PUSH1 0x40 ADD CALLDATALOAD PUSH2 0xC97 JUMP JUMPDEST PUSH1 0x40 DUP1 MLOAD SWAP2 DUP3 MSTORE MLOAD SWAP1 DUP2 SWAP1 SUB PUSH1 0x20 ADD SWAP1 RETURN JUMPDEST CALLVALUE DUP1 ISZERO PUSH2 0x1E1 JUMPI PUSH1 0x0 DUP1 REVERT JUMPDEST POP PUSH2 0x26B PUSH1 0x4 DUP1 CALLDATASIZE SUB PUSH1 0xA0 DUP2 LT ISZERO PUSH2 0x1F8 JUMPI PUSH1 0x0 DUP1 REVERT JUMPDEST DUP2 CALLDATALOAD SWAP2 PUSH1 0x20 DUP2 ADD CALLDATALOAD SWAP2 DUP2 ADD SWAP1 PUSH1 0x60 DUP2 ADD PUSH1 0x40 DUP3 ADD CALLDATALOAD PUSH1 0x1 PUSH1 0x20 SHL DUP2 GT ISZERO PUSH2 0x21E JUMPI PUSH1 0x0 DUP1 REVERT JUMPDEST DUP3 ADD DUP4 PUSH1 0x20 DUP3 ADD GT ISZERO PUSH2 0x230 JUMPI PUSH1 0x0 DUP1 REVERT JUMPDEST DUP1 CALLDATALOAD SWAP1 PUSH1 0x20 ADD SWAP2 DUP5 PUSH1 0x20 DUP4 MUL DUP5 ADD GT PUSH1 0x1 PUSH1 0x20 SHL DUP4 GT OR ISZERO PUSH2 0x251 JUMPI PUSH1 0x0 DUP1 REVERT JUMPDEST SWAP2 SWAP4 POP SWAP2 POP PUSH1 0x1 PUSH1 0x1 PUSH1 0xA0 SHL SUB DUP2 CALLDATALOAD AND SWAP1 PUSH1 0x20 ADD CALLDATALOAD PUSH2 0xCAC JUMP JUMPDEST PUSH1 0x40 DUP1 MLOAD PUSH1 0x20 DUP1 DUP3 MSTORE DUP4 MLOAD DUP2 DUP4 ADD MSTORE DUP4 MLOAD SWAP2 SWAP3 DUP4 SWAP3 SWAP1 DUP4 ADD SWAP2 DUP6 DUP2 ADD SWAP2 MUL DUP1 DUP4 DUP4 PUSH1 0x0 JUMPDEST DUP4 DUP2 LT ISZERO PUSH2 0x2A7 JUMPI DUP2 DUP2 ADD MLOAD DUP4 DUP3 ADD MSTORE PUSH1 0x20 ADD PUSH2 0x28F JUMP JUMPDEST POP POP POP POP SWAP1 POP ADD SWAP3 POP POP POP PUSH1 0x40 MLOAD DUP1 SWAP2 SUB SWAP1 RETURN JUMPDEST CALLVALUE DUP1 ISZERO PUSH2 0x2C7 JUMPI PUSH1 0x0 DUP1 REVERT JUMPDEST POP PUSH2 0x26B PUSH1 0x4 DUP1 CALLDATASIZE SUB PUSH1 0x40 DUP2 LT ISZERO PUSH2 0x2DE JUMPI PUSH1 0x0 DUP1 REVERT JUMPDEST DUP2 CALLDATALOAD SWAP2 SWAP1 DUP2 ADD SWAP1 PUSH1 0x40 DUP2 ADD PUSH1 0x20 DUP3 ADD CALLDATALOAD PUSH1 0x1 PUSH1 0x20 SHL DUP2 GT ISZERO PUSH2 0x2FF JUMPI PUSH1 0x0 DUP1 REVERT JUMPDEST DUP3 ADD DUP4 PUSH1 0x20 DUP3 ADD GT ISZERO PUSH2 0x311 JUMPI PUSH1 0x0 DUP1 REVERT JUMPDEST DUP1 CALLDATALOAD SWAP1 PUSH1 0x20 ADD SWAP2 DUP5 PUSH1 0x20 DUP4 MUL DUP5 ADD GT PUSH1 0x1 PUSH1 0x20 SHL DUP4 GT OR ISZERO PUSH2 0x332 JUMPI PUSH1 0x0 DUP1 REVERT JUMPDEST SWAP2 SWAP1 DUP1 DUP1 PUSH1 0x20 MUL PUSH1 0x20 ADD PUSH1 0x40 MLOAD SWAP1 DUP2 ADD PUSH1 0x40 MSTORE DUP1 SWAP4 SWAP3 SWAP2 SWAP1 DUP2 DUP2 MSTORE PUSH1 0x20 ADD DUP4 DUP4 PUSH1 0x20 MUL DUP1 DUP3 DUP5 CALLDATACOPY PUSH1 0x0 SWAP3 ADD SWAP2 SWAP1 SWAP2 MSTORE POP SWAP3 SWAP6 POP PUSH2 0xFD6 SWAP5 POP POP POP POP POP JUMP JUMPDEST CALLVALUE DUP1 ISZERO PUSH2 0x37C JUMPI PUSH1 0x0 DUP1 REVERT JUMPDEST POP PUSH2 0x3EE PUSH1 0x4 DUP1 CALLDATASIZE SUB PUSH2 0x160 DUP2 LT ISZERO PUSH2 0x394 JUMPI PUSH1 0x0 DUP1 REVERT JUMPDEST POP PUSH1 0x1 PUSH1 0x1 PUSH1 0xA0 SHL SUB DUP2 CALLDATALOAD DUP2 AND SWAP2 PUSH1 0x20 DUP2 ADD CALLDATALOAD DUP3 AND SWAP2 PUSH1 0x40 DUP3 ADD CALLDATALOAD SWAP2 PUSH1 0x60 DUP2 ADD CALLDATALOAD SWAP2 PUSH1 0x80 DUP3 ADD CALLDATALOAD SWAP2 PUSH1 0xA0 DUP2 ADD CALLDATALOAD SWAP1 SWAP2 AND SWAP1 PUSH1 0xC0 DUP2 ADD CALLDATALOAD SWAP1 PUSH1 0xE0 DUP2 ADD CALLDATALOAD ISZERO ISZERO SWAP1 PUSH1 0xFF PUSH2 0x100 DUP3 ADD CALLDATALOAD AND SWAP1 PUSH2 0x120 DUP2 ADD CALLDATALOAD SWAP1 PUSH2 0x140 ADD CALLDATALOAD PUSH2 0x100C JUMP JUMPDEST PUSH1 0x40 DUP1 MLOAD SWAP3 DUP4 MSTORE PUSH1 0x20 DUP4 ADD SWAP2 SWAP1 SWAP2 MSTORE DUP1 MLOAD SWAP2 DUP3 SWAP1 SUB ADD SWAP1 RETURN JUMPDEST CALLVALUE DUP1 ISZERO PUSH2 0x413 JUMPI PUSH1 0x0 DUP1 REVERT JUMPDEST POP PUSH2 0x1C3 PUSH1 0x4 DUP1 CALLDATASIZE SUB PUSH2 0x140 DUP2 LT ISZERO PUSH2 0x42B JUMPI PUSH1 0x0 DUP1 REVERT JUMPDEST POP PUSH1 0x1 PUSH1 0x1 PUSH1 0xA0 SHL SUB DUP2 CALLDATALOAD DUP2 AND SWAP2 PUSH1 0x20 DUP2 ADD CALLDATALOAD SWAP2 PUSH1 0x40 DUP3 ADD CALLDATALOAD SWAP2 PUSH1 0x60 DUP2 ADD CALLDATALOAD SWAP2 PUSH1 0x80 DUP3 ADD CALLDATALOAD AND SWAP1 PUSH1 0xA0 DUP2 ADD CALLDATALOAD SWAP1 PUSH1 0xC0 DUP2 ADD CALLDATALOAD ISZERO ISZERO SWAP1 PUSH1 0xFF PUSH1 0xE0 DUP3 ADD CALLDATALOAD AND SWAP1 PUSH2 0x100 DUP2 ADD CALLDATALOAD SWAP1 PUSH2 0x120 ADD CALLDATALOAD PUSH2 0x1106 JUMP JUMPDEST CALLVALUE DUP1 ISZERO PUSH2 0x486 JUMPI PUSH1 0x0 DUP1 REVERT JUMPDEST POP PUSH2 0x3EE PUSH1 0x4 DUP1 CALLDATASIZE SUB PUSH1 0xC0 DUP2 LT ISZERO PUSH2 0x49D JUMPI PUSH1 0x0 DUP1 REVERT JUMPDEST POP PUSH1 0x1 PUSH1 0x1 PUSH1 0xA0 SHL SUB DUP2 CALLDATALOAD DUP2 AND SWAP2 PUSH1 0x20 DUP2 ADD CALLDATALOAD SWAP2 PUSH1 0x40 DUP3 ADD CALLDATALOAD SWAP2 PUSH1 0x60 DUP2 ADD CALLDATALOAD SWAP2 PUSH1 0x80 DUP3 ADD CALLDATALOAD AND SWAP1 PUSH1 0xA0 ADD CALLDATALOAD PUSH2 0x1214 JUMP JUMPDEST CALLVALUE DUP1 ISZERO PUSH2 0x4D9 JUMPI PUSH1 0x0 DUP1 REVERT JUMPDEST POP PUSH2 0x186 PUSH1 0x4 DUP1 CALLDATASIZE SUB PUSH1 0xA0 DUP2 LT ISZERO PUSH2 0x4F0 JUMPI PUSH1 0x0 DUP1 REVERT JUMPDEST DUP2 CALLDATALOAD SWAP2 PUSH1 0x20 DUP2 ADD CALLDATALOAD SWAP2 DUP2 ADD SWAP1 PUSH1 0x60 DUP2 ADD PUSH1 0x40 DUP3 ADD CALLDATALOAD PUSH1 0x1 PUSH1 0x20 SHL DUP2 GT ISZERO PUSH2 0x516 JUMPI PUSH1 0x0 DUP1 REVERT JUMPDEST DUP3 ADD DUP4 PUSH1 0x20 DUP3 ADD GT ISZERO PUSH2 0x528 JUMPI PUSH1 0x0 DUP1 REVERT JUMPDEST DUP1 CALLDATALOAD SWAP1 PUSH1 0x20 ADD SWAP2 DUP5 PUSH1 0x20 DUP4 MUL DUP5 ADD GT PUSH1 0x1 PUSH1 0x20 SHL DUP4 GT OR ISZERO PUSH2 0x549 JUMPI PUSH1 0x0 DUP1 REVERT JUMPDEST SWAP2 SWAP4 POP SWAP2 POP PUSH1 0x1 PUSH1 0x1 PUSH1 0xA0 SHL SUB DUP2 CALLDATALOAD AND SWAP1 PUSH1 0x20 ADD CALLDATALOAD PUSH2 0x132E JUMP JUMPDEST CALLVALUE DUP1 ISZERO PUSH2 0x56F JUMPI PUSH1 0x0 DUP1 REVERT JUMPDEST POP PUSH2 0x26B PUSH1 0x4 DUP1 CALLDATASIZE SUB PUSH1 0xA0 DUP2 LT ISZERO PUSH2 0x586 JUMPI PUSH1 0x0 DUP1 REVERT JUMPDEST DUP2 CALLDATALOAD SWAP2 PUSH1 0x20 DUP2 ADD CALLDATALOAD SWAP2 DUP2 ADD SWAP1 PUSH1 0x60 DUP2 ADD PUSH1 0x40 DUP3 ADD CALLDATALOAD PUSH1 0x1 PUSH1 0x20 SHL DUP2 GT ISZERO PUSH2 0x5AC JUMPI PUSH1 0x0 DUP1 REVERT JUMPDEST DUP3 ADD DUP4 PUSH1 0x20 DUP3 ADD GT ISZERO PUSH2 0x5BE JUMPI PUSH1 0x0 DUP1 REVERT JUMPDEST DUP1 CALLDATALOAD SWAP1 PUSH1 0x20 ADD SWAP2 DUP5 PUSH1 0x20 DUP4 MUL DUP5 ADD GT PUSH1 0x1 PUSH1 0x20 SHL DUP4 GT OR ISZERO PUSH2 0x5DF JUMPI PUSH1 0x0 DUP1 REVERT JUMPDEST SWAP2 SWAP4 POP SWAP2 POP PUSH1 0x1 PUSH1 0x1 PUSH1 0xA0 SHL SUB DUP2 CALLDATALOAD AND SWAP1 PUSH1 0x20 ADD CALLDATALOAD PUSH2 0x1621 JUMP JUMPDEST PUSH2 0x26B PUSH1 0x4 DUP1 CALLDATASIZE SUB PUSH1 0x80 DUP2 LT ISZERO PUSH2 0x60F JUMPI PUSH1 0x0 DUP1 REVERT JUMPDEST DUP2 CALLDATALOAD SWAP2 SWAP1 DUP2 ADD SWAP1 PUSH1 0x40 DUP2 ADD PUSH1 0x20 DUP3 ADD CALLDATALOAD PUSH1 0x1 PUSH1 0x20 SHL DUP2 GT ISZERO PUSH2 0x630 JUMPI PUSH1 0x0 DUP1 REVERT JUMPDEST DUP3 ADD DUP4 PUSH1 0x20 DUP3 ADD GT ISZERO PUSH2 0x642 JUMPI PUSH1 0x0 DUP1 REVERT JUMPDEST DUP1 CALLDATALOAD SWAP1 PUSH1 0x20 ADD SWAP2 DUP5 PUSH1 0x20 DUP4 MUL DUP5 ADD GT PUSH1 0x1 PUSH1 0x20 SHL DUP4 GT OR ISZERO PUSH2 0x663 JUMPI PUSH1 0x0 DUP1 REVERT JUMPDEST SWAP2 SWAP4 POP SWAP2 POP PUSH1 0x1 PUSH1 0x1 PUSH1 0xA0 SHL SUB DUP2 CALLDATALOAD AND SWAP1 PUSH1 0x20 ADD CALLDATALOAD PUSH2 0x176C JUMP JUMPDEST CALLVALUE DUP1 ISZERO PUSH2 0x689 JUMPI PUSH1 0x0 DUP1 REVERT JUMPDEST POP PUSH2 0x186 PUSH1 0x4 DUP1 CALLDATASIZE SUB PUSH1 0xA0 DUP2 LT ISZERO PUSH2 0x6A0 JUMPI PUSH1 0x0 DUP1 REVERT JUMPDEST DUP2 CALLDATALOAD SWAP2 PUSH1 0x20 DUP2 ADD CALLDATALOAD SWAP2 DUP2 ADD SWAP1 PUSH1 0x60 DUP2 ADD PUSH1 0x40 DUP3 ADD CALLDATALOAD PUSH1 0x1 PUSH1 0x20 SHL DUP2 GT ISZERO PUSH2 0x6C6 JUMPI PUSH1 0x0 DUP1 REVERT JUMPDEST DUP3 ADD DUP4 PUSH1 0x20 DUP3 ADD GT ISZERO PUSH2 0x6D8 JUMPI PUSH1 0x0 DUP1 REVERT JUMPDEST DUP1 CALLDATALOAD SWAP1 PUSH1 0x20 ADD SWAP2 DUP5 PUSH1 0x20 DUP4 MUL DUP5 ADD GT PUSH1 0x1 PUSH1 0x20 SHL DUP4 GT OR ISZERO PUSH2 0x6F9 JUMPI PUSH1 0x0 DUP1 REVERT JUMPDEST SWAP2 SWAP4 POP SWAP2 POP PUSH1 0x1 PUSH1 0x1 PUSH1 0xA0 SHL SUB DUP2 CALLDATALOAD AND SWAP1 PUSH1 0x20 ADD CALLDATALOAD PUSH2 0x1ABF JUMP JUMPDEST PUSH2 0x26B PUSH1 0x4 DUP1 CALLDATASIZE SUB PUSH1 0x80 DUP2 LT ISZERO PUSH2 0x729 JUMPI PUSH1 0x0 DUP1 REVERT JUMPDEST DUP2 CALLDATALOAD SWAP2 SWAP1 DUP2 ADD SWAP1 PUSH1 0x40 DUP2 ADD PUSH1 0x20 DUP3 ADD CALLDATALOAD PUSH1 0x1 PUSH1 0x20 SHL DUP2 GT ISZERO PUSH2 0x74A JUMPI PUSH1 0x0 DUP1 REVERT JUMPDEST DUP3 ADD DUP4 PUSH1 0x20 DUP3 ADD GT ISZERO PUSH2 0x75C JUMPI PUSH1 0x0 DUP1 REVERT JUMPDEST DUP1 CALLDATALOAD SWAP1 PUSH1 0x20 ADD SWAP2 DUP5 PUSH1 0x20 DUP4 MUL DUP5 ADD GT PUSH1 0x1 PUSH1 0x20 SHL DUP4 GT OR ISZERO PUSH2 0x77D JUMPI PUSH1 0x0 DUP1 REVERT JUMPDEST SWAP2 SWAP4 POP SWAP2 POP PUSH1 0x1 PUSH1 0x1 PUSH1 0xA0 SHL SUB DUP2 CALLDATALOAD AND SWAP1 PUSH1 0x20 ADD CALLDATALOAD PUSH2 0x1CE5 JUMP JUMPDEST PUSH2 0x7DD PUSH1 0x4 DUP1 CALLDATASIZE SUB PUSH1 0xC0 DUP2 LT ISZERO PUSH2 0x7AD JUMPI PUSH1 0x0 DUP1 REVERT JUMPDEST POP PUSH1 0x1 PUSH1 0x1 PUSH1 0xA0 SHL SUB DUP2 CALLDATALOAD DUP2 AND SWAP2 PUSH1 0x20 DUP2 ADD CALLDATALOAD SWAP2 PUSH1 0x40 DUP3 ADD CALLDATALOAD SWAP2 PUSH1 0x60 DUP2 ADD CALLDATALOAD SWAP2 PUSH1 0x80 DUP3 ADD CALLDATALOAD AND SWAP1 PUSH1 0xA0 ADD CALLDATALOAD PUSH2 0x2067 JUMP JUMPDEST PUSH1 0x40 DUP1 MLOAD SWAP4 DUP5 MSTORE PUSH1 0x20 DUP5 ADD SWAP3 SWAP1 SWAP3 MSTORE DUP3 DUP3 ADD MSTORE MLOAD SWAP1 DUP2 SWAP1 SUB PUSH1 0x60 ADD SWAP1 RETURN JUMPDEST CALLVALUE DUP1 ISZERO PUSH2 0x807 JUMPI PUSH1 0x0 DUP1 REVERT JUMPDEST POP PUSH2 0x810 PUSH2 0x230C JUMP JUMPDEST PUSH1 0x40 DUP1 MLOAD PUSH1 0x1 PUSH1 0x1 PUSH1 0xA0 SHL SUB SWAP1 SWAP3 AND DUP3 MSTORE MLOAD SWAP1 DUP2 SWAP1 SUB PUSH1 0x20 ADD SWAP1 RETURN JUMPDEST CALLVALUE DUP1 ISZERO PUSH2 0x838 JUMPI PUSH1 0x0 DUP1 REVERT JUMPDEST POP PUSH2 0x1C3 PUSH1 0x4 DUP1 CALLDATASIZE SUB PUSH1 0x60 DUP2 LT ISZERO PUSH2 0x84F JUMPI PUSH1 0x0 DUP1 REVERT JUMPDEST POP DUP1 CALLDATALOAD SWAP1 PUSH1 0x20 DUP2 ADD CALLDATALOAD SWAP1 PUSH1 0x40 ADD CALLDATALOAD PUSH2 0x2330 JUMP JUMPDEST CALLVALUE DUP1 ISZERO PUSH2 0x86E JUMPI PUSH1 0x0 DUP1 REVERT JUMPDEST POP PUSH2 0x26B PUSH1 0x4 DUP1 CALLDATASIZE SUB PUSH1 0xA0 DUP2 LT ISZERO PUSH2 0x885 JUMPI PUSH1 0x0 DUP1 REVERT JUMPDEST DUP2 CALLDATALOAD SWAP2 PUSH1 0x20 DUP2 ADD CALLDATALOAD SWAP2 DUP2 ADD SWAP1 PUSH1 0x60 DUP2 ADD PUSH1 0x40 DUP3 ADD CALLDATALOAD PUSH1 0x1 PUSH1 0x20 SHL DUP2 GT ISZERO PUSH2 0x8AB JUMPI PUSH1 0x0 DUP1 REVERT JUMPDEST DUP3 ADD DUP4 PUSH1 0x20 DUP3 ADD GT ISZERO PUSH2 0x8BD JUMPI PUSH1 0x0 DUP1 REVERT JUMPDEST DUP1 CALLDATALOAD SWAP1 PUSH1 0x20 ADD SWAP2 DUP5 PUSH1 0x20 DUP4 MUL DUP5 ADD GT PUSH1 0x1 PUSH1 0x20 SHL DUP4 GT OR ISZERO PUSH2 0x8DE JUMPI PUSH1 0x0 DUP1 REVERT JUMPDEST SWAP2 SWAP4 POP SWAP2 POP PUSH1 0x1 PUSH1 0x1 PUSH1 0xA0 SHL SUB DUP2 CALLDATALOAD AND SWAP1 PUSH1 0x20 ADD CALLDATALOAD PUSH2 0x233D JUMP JUMPDEST CALLVALUE DUP1 ISZERO PUSH2 0x904 JUMPI PUSH1 0x0 DUP1 REVERT JUMPDEST POP PUSH2 0x1C3 PUSH1 0x4 DUP1 CALLDATASIZE SUB PUSH1 0x60 DUP2 LT ISZERO PUSH2 0x91B JUMPI PUSH1 0x0 DUP1 REVERT JUMPDEST POP DUP1 CALLDATALOAD SWAP1 PUSH1 0x20 DUP2 ADD CALLDATALOAD SWAP1 PUSH1 0x40 ADD CALLDATALOAD PUSH2 0x2436 JUMP JUMPDEST CALLVALUE DUP1 ISZERO PUSH2 0x93A JUMPI PUSH1 0x0 DUP1 REVERT JUMPDEST POP PUSH2 0x3EE PUSH1 0x4 DUP1 CALLDATASIZE SUB PUSH1 0xE0 DUP2 LT ISZERO PUSH2 0x951 JUMPI PUSH1 0x0 DUP1 REVERT JUMPDEST POP PUSH1 0x1 PUSH1 0x1 PUSH1 0xA0 SHL SUB DUP2 CALLDATALOAD DUP2 AND SWAP2 PUSH1 0x20 DUP2 ADD CALLDATALOAD DUP3 AND SWAP2 PUSH1 0x40 DUP3 ADD CALLDATALOAD SWAP2 PUSH1 0x60 DUP2 ADD CALLDATALOAD SWAP2 PUSH1 0x80 DUP3 ADD CALLDATALOAD SWAP2 PUSH1 0xA0 DUP2 ADD CALLDATALOAD SWAP1 SWAP2 AND SWAP1 PUSH1 0xC0 ADD CALLDATALOAD PUSH2 0x2443 JUMP JUMPDEST CALLVALUE DUP1 ISZERO PUSH2 0x997 JUMPI PUSH1 0x0 DUP1 REVERT JUMPDEST POP PUSH2 0x3EE PUSH1 0x4 DUP1 CALLDATASIZE SUB PUSH2 0x140 DUP2 LT ISZERO PUSH2 0x9AF JUMPI PUSH1 0x0 DUP1 REVERT JUMPDEST POP PUSH1 0x1 PUSH1 0x1 PUSH1 0xA0 SHL SUB DUP2 CALLDATALOAD DUP2 AND SWAP2 PUSH1 0x20 DUP2 ADD CALLDATALOAD SWAP2 PUSH1 0x40 DUP3 ADD CALLDATALOAD SWAP2 PUSH1 0x60 DUP2 ADD CALLDATALOAD SWAP2 PUSH1 0x80 DUP3 ADD CALLDATALOAD AND SWAP1 PUSH1 0xA0 DUP2 ADD CALLDATALOAD SWAP1 PUSH1 0xC0 DUP2 ADD CALLDATALOAD ISZERO ISZERO SWAP1 PUSH1 0xFF PUSH1 0xE0 DUP3 ADD CALLDATALOAD AND SWAP1 PUSH2 0x100 DUP2 ADD CALLDATALOAD SWAP1 PUSH2 0x120 ADD CALLDATALOAD PUSH2 0x2687 JUMP JUMPDEST CALLVALUE DUP1 ISZERO PUSH2 0xA0A JUMPI PUSH1 0x0 DUP1 REVERT JUMPDEST POP PUSH2 0x810 PUSH2 0x279B JUMP JUMPDEST CALLVALUE DUP1 ISZERO PUSH2 0xA1F JUMPI PUSH1 0x0 DUP1 REVERT JUMPDEST POP PUSH2 0x26B PUSH1 0x4 DUP1 CALLDATASIZE SUB PUSH1 0xA0 DUP2 LT ISZERO PUSH2 0xA36 JUMPI PUSH1 0x0 DUP1 REVERT JUMPDEST DUP2 CALLDATALOAD SWAP2 PUSH1 0x20 DUP2 ADD CALLDATALOAD SWAP2 DUP2 ADD SWAP1 PUSH1 0x60 DUP2 ADD PUSH1 0x40 DUP3 ADD CALLDATALOAD PUSH1 0x1 PUSH1 0x20 SHL DUP2 GT ISZERO PUSH2 0xA5C JUMPI PUSH1 0x0 DUP1 REVERT JUMPDEST DUP3 ADD DUP4 PUSH1 0x20 DUP3 ADD GT ISZERO PUSH2 0xA6E JUMPI PUSH1 0x0 DUP1 REVERT JUMPDEST DUP1 CALLDATALOAD SWAP1 PUSH1 0x20 ADD SWAP2 DUP5 PUSH1 0x20 DUP4 MUL DUP5 ADD GT PUSH1 0x1 PUSH1 0x20 SHL DUP4 GT OR ISZERO PUSH2 0xA8F JUMPI PUSH1 0x0 DUP1 REVERT JUMPDEST SWAP2 SWAP4 POP SWAP2 POP PUSH1 0x1 PUSH1 0x1 PUSH1 0xA0 SHL SUB DUP2 CALLDATALOAD AND SWAP1 PUSH1 0x20 ADD CALLDATALOAD PUSH2 0x27BF JUMP JUMPDEST CALLVALUE DUP1 ISZERO PUSH2 0xAB5 JUMPI PUSH1 0x0 DUP1 REVERT JUMPDEST POP PUSH2 0x26B PUSH1 0x4 DUP1 CALLDATASIZE SUB PUSH1 0x40 DUP2 LT ISZERO PUSH2 0xACC JUMPI PUSH1 0x0 DUP1 REVERT JUMPDEST DUP2 CALLDATALOAD SWAP2 SWAP1 DUP2 ADD SWAP1 PUSH1 0x40 DUP2 ADD PUSH1 0x20 DUP3 ADD CALLDATALOAD PUSH1 0x1 PUSH1 0x20 SHL DUP2 GT ISZERO PUSH2 0xAED JUMPI PUSH1 0x0 DUP1 REVERT JUMPDEST DUP3 ADD DUP4 PUSH1 0x20 DUP3 ADD GT ISZERO PUSH2 0xAFF JUMPI PUSH1 0x0 DUP1 REVERT JUMPDEST DUP1 CALLDATALOAD SWAP1 PUSH1 0x20 ADD SWAP2 DUP5 PUSH1 0x20 DUP4 MUL DUP5 ADD GT PUSH1 0x1 PUSH1 0x20 SHL DUP4 GT OR ISZERO PUSH2 0xB20 JUMPI PUSH1 0x0 DUP1 REVERT JUMPDEST SWAP2 SWAP1 DUP1 DUP1 PUSH1 0x20 MUL PUSH1 0x20 ADD PUSH1 0x40 MLOAD SWAP1 DUP2 ADD PUSH1 0x40 MSTORE DUP1 SWAP4 SWAP3 SWAP2 SWAP1 DUP2 DUP2 MSTORE PUSH1 0x20 ADD DUP4 DUP4 PUSH1 0x20 MUL DUP1 DUP3 DUP5 CALLDATACOPY PUSH1 0x0 SWAP3 ADD SWAP2 SWAP1 SWAP2 MSTORE POP SWAP3 SWAP6 POP PUSH2 0x294E SWAP5 POP POP POP POP POP JUMP JUMPDEST PUSH2 0x186 PUSH1 0x4 DUP1 CALLDATASIZE SUB PUSH1 0x80 DUP2 LT ISZERO PUSH2 0xB74 JUMPI PUSH1 0x0 DUP1 REVERT JUMPDEST DUP2 CALLDATALOAD SWAP2 SWAP1 DUP2 ADD SWAP1 PUSH1 0x40 DUP2 ADD PUSH1 0x20 DUP3 ADD CALLDATALOAD PUSH1 0x1 PUSH1 0x20 SHL DUP2 GT ISZERO PUSH2 0xB95 JUMPI PUSH1 0x0 DUP1 REVERT JUMPDEST DUP3 ADD DUP4 PUSH1 0x20 DUP3 ADD GT ISZERO PUSH2 0xBA7 JUMPI PUSH1 0x0 DUP1 REVERT JUMPDEST DUP1 CALLDATALOAD SWAP1 PUSH1 0x20 ADD SWAP2 DUP5 PUSH1 0x20 DUP4 MUL DUP5 ADD GT PUSH1 0x1 PUSH1 0x20 SHL DUP4 GT OR ISZERO PUSH2 0xBC8 JUMPI PUSH1 0x0 DUP1 REVERT JUMPDEST SWAP2 SWAP4 POP SWAP2 POP PUSH1 0x1 PUSH1 0x1 PUSH1 0xA0 SHL SUB DUP2 CALLDATALOAD AND SWAP1 PUSH1 0x20 ADD CALLDATALOAD PUSH2 0x297B JUMP JUMPDEST CALLVALUE DUP1 ISZERO PUSH2 0xBEE JUMPI PUSH1 0x0 DUP1 REVERT JUMPDEST POP PUSH2 0x7DD PUSH1 0x4 DUP1 CALLDATASIZE SUB PUSH2 0x100 DUP2 LT ISZERO PUSH2 0xC06 JUMPI PUSH1 0x0 DUP1 REVERT JUMPDEST POP PUSH1 0x1 PUSH1 0x1 PUSH1 0xA0 SHL SUB DUP2 CALLDATALOAD DUP2 AND SWAP2 PUSH1 0x20 DUP2 ADD CALLDATALOAD DUP3 AND SWAP2 PUSH1 0x40 DUP3 ADD CALLDATALOAD SWAP2 PUSH1 0x60 DUP2 ADD CALLDATALOAD SWAP2 PUSH1 0x80 DUP3 ADD CALLDATALOAD SWAP2 PUSH1 0xA0 DUP2 ADD CALLDATALOAD SWAP2 PUSH1 0xC0 DUP3 ADD CALLDATALOAD AND SWAP1 PUSH1 0xE0 ADD CALLDATALOAD PUSH2 0x2D07 JUMP JUMPDEST CALLVALUE DUP1 ISZERO PUSH2 0xC50 JUMPI PUSH1 0x0 DUP1 REVERT JUMPDEST POP PUSH2 0x1C3 PUSH1 0x4 DUP1 CALLDATASIZE SUB PUSH1 0xC0 DUP2 LT ISZERO PUSH2 0xC67 JUMPI PUSH1 0x0 DUP1 REVERT JUMPDEST POP PUSH1 0x1 PUSH1 0x1 PUSH1 0xA0 SHL SUB DUP2 CALLDATALOAD DUP2 AND SWAP2 PUSH1 0x20 DUP2 ADD CALLDATALOAD SWAP2 PUSH1 0x40 DUP3 ADD CALLDATALOAD SWAP2 PUSH1 0x60 DUP2 ADD CALLDATALOAD SWAP2 PUSH1 0x80 DUP3 ADD CALLDATALOAD AND SWAP1 PUSH1 0xA0 ADD CALLDATALOAD PUSH2 0x2E43 JUMP JUMPDEST PUSH1 0x0 PUSH2 0xCA4 DUP5 DUP5 DUP5 PUSH2 0x2FC4 JUMP JUMPDEST SWAP5 SWAP4 POP POP POP POP JUMP JUMPDEST PUSH1 0x60 DUP2 TIMESTAMP DUP2 LT ISZERO PUSH2 0xCF2 JUMPI PUSH1 0x40 DUP1 MLOAD PUSH3 0x461BCD PUSH1 0xE5 SHL DUP2 MSTORE PUSH1 0x20 PUSH1 0x4 DUP3 ADD MSTORE PUSH1 0x17 PUSH1 0x24 DUP3 ADD MSTORE PUSH1 0x0 DUP1 MLOAD PUSH1 0x20 PUSH2 0x451F DUP4 CODECOPY DUP2 MLOAD SWAP2 MSTORE PUSH1 0x44 DUP3 ADD MSTORE SWAP1 MLOAD SWAP1 DUP2 SWAP1 SUB PUSH1 0x64 ADD SWAP1 REVERT JUMPDEST PUSH1 0x1 PUSH1 0x1 PUSH1 0xA0 SHL SUB PUSH32 0x0 AND DUP7 DUP7 PUSH1 0x0 NOT DUP2 ADD DUP2 DUP2 LT PUSH2 0xD2C JUMPI INVALID JUMPDEST SWAP1 POP PUSH1 0x20 MUL ADD CALLDATALOAD PUSH1 0x1 PUSH1 0x1 PUSH1 0xA0 SHL SUB AND PUSH1 0x1 PUSH1 0x1 PUSH1 0xA0 SHL SUB AND EQ PUSH2 0xD85 JUMPI PUSH1 0x40 DUP1 MLOAD PUSH3 0x461BCD PUSH1 0xE5 SHL DUP2 MSTORE PUSH1 0x20 PUSH1 0x4 DUP3 ADD MSTORE PUSH1 0x1C PUSH1 0x24 DUP3 ADD MSTORE PUSH1 0x0 DUP1 MLOAD PUSH1 0x20 PUSH2 0x44D5 DUP4 CODECOPY DUP2 MLOAD SWAP2 MSTORE PUSH1 0x44 DUP3 ADD MSTORE SWAP1 MLOAD SWAP1 DUP2 SWAP1 SUB PUSH1 0x64 ADD SWAP1 REVERT JUMPDEST PUSH2 0xDE3 PUSH32 0x0 DUP10 DUP9 DUP9 DUP1 DUP1 PUSH1 0x20 MUL PUSH1 0x20 ADD PUSH1 0x40 MLOAD SWAP1 DUP2 ADD PUSH1 0x40 MSTORE DUP1 SWAP4 SWAP3 SWAP2 SWAP1 DUP2 DUP2 MSTORE PUSH1 0x20 ADD DUP4 DUP4 PUSH1 0x20 MUL DUP1 DUP3 DUP5 CALLDATACOPY PUSH1 0x0 SWAP3 ADD SWAP2 SWAP1 SWAP2 MSTORE POP PUSH2 0x30B4 SWAP3 POP POP POP JUMP JUMPDEST SWAP2 POP DUP7 DUP3 PUSH1 0x0 DUP2 MLOAD DUP2 LT PUSH2 0xDF3 JUMPI INVALID JUMPDEST PUSH1 0x20 MUL PUSH1 0x20 ADD ADD MLOAD GT ISZERO PUSH2 0xE38 JUMPI PUSH1 0x40 MLOAD PUSH3 0x461BCD PUSH1 0xE5 SHL DUP2 MSTORE PUSH1 0x4 ADD DUP1 DUP1 PUSH1 0x20 ADD DUP3 DUP2 SUB DUP3 MSTORE PUSH1 0x26 DUP2 MSTORE PUSH1 0x20 ADD DUP1 PUSH2 0x444F PUSH1 0x26 SWAP2 CODECOPY PUSH1 0x40 ADD SWAP2 POP POP PUSH1 0x40 MLOAD DUP1 SWAP2 SUB SWAP1 REVERT JUMPDEST PUSH2 0xED6 DUP7 DUP7 PUSH1 0x0 DUP2 DUP2 LT PUSH2 0xE48 JUMPI INVALID JUMPDEST SWAP1 POP PUSH1 0x20 MUL ADD CALLDATALOAD PUSH1 0x1 PUSH1 0x1 PUSH1 0xA0 SHL SUB AND CALLER PUSH2 0xEBC PUSH32 0x0 DUP11 DUP11 PUSH1 0x0 DUP2 DUP2 LT PUSH2 0xE8A JUMPI INVALID JUMPDEST SWAP1 POP PUSH1 0x20 MUL ADD CALLDATALOAD PUSH1 0x1 PUSH1 0x1 PUSH1 0xA0 SHL SUB AND DUP12 DUP12 PUSH1 0x1 DUP2 DUP2 LT PUSH2 0xEA7 JUMPI INVALID JUMPDEST SWAP1 POP PUSH1 0x20 MUL ADD CALLDATALOAD PUSH1 0x1 PUSH1 0x1 PUSH1 0xA0 SHL SUB AND PUSH2 0x3201 JUMP JUMPDEST DUP6 PUSH1 0x0 DUP2 MLOAD DUP2 LT PUSH2 0xEC9 JUMPI INVALID JUMPDEST PUSH1 0x20 MUL PUSH1 0x20 ADD ADD MLOAD PUSH2 0x32C1 JUMP JUMPDEST PUSH2 0xF15 DUP3 DUP8 DUP8 DUP1 DUP1 PUSH1 0x20 MUL PUSH1 0x20 ADD PUSH1 0x40 MLOAD SWAP1 DUP2 ADD PUSH1 0x40 MSTORE DUP1 SWAP4 SWAP3 SWAP2 SWAP1 DUP2 DUP2 MSTORE PUSH1 0x20 ADD DUP4 DUP4 PUSH1 0x20 MUL DUP1 DUP3 DUP5 CALLDATACOPY PUSH1 0x0 SWAP3 ADD SWAP2 SWAP1 SWAP2 MSTORE POP ADDRESS SWAP3 POP PUSH2 0x341E SWAP2 POP POP JUMP JUMPDEST PUSH32 0x0 PUSH1 0x1 PUSH1 0x1 PUSH1 0xA0 SHL SUB AND PUSH4 0x2E1A7D4D DUP4 PUSH1 0x1 DUP6 MLOAD SUB DUP2 MLOAD DUP2 LT PUSH2 0xF54 JUMPI INVALID JUMPDEST PUSH1 0x20 MUL PUSH1 0x20 ADD ADD MLOAD PUSH1 0x40 MLOAD DUP3 PUSH4 0xFFFFFFFF AND PUSH1 0xE0 SHL DUP2 MSTORE PUSH1 0x4 ADD DUP1 DUP3 DUP2 MSTORE PUSH1 0x20 ADD SWAP2 POP POP PUSH1 0x0 PUSH1 0x40 MLOAD DUP1 DUP4 SUB DUP2 PUSH1 0x0 DUP8 DUP1 EXTCODESIZE ISZERO DUP1 ISZERO PUSH2 0xF92 JUMPI PUSH1 0x0 DUP1 REVERT JUMPDEST POP GAS CALL ISZERO DUP1 ISZERO PUSH2 0xFA6 JUMPI RETURNDATASIZE PUSH1 0x0 DUP1 RETURNDATACOPY RETURNDATASIZE PUSH1 0x0 REVERT JUMPDEST POP POP POP POP PUSH2 0xFCB DUP5 DUP4 PUSH1 0x1 DUP6 MLOAD SUB DUP2 MLOAD DUP2 LT PUSH2 0xFBE JUMPI INVALID JUMPDEST PUSH1 0x20 MUL PUSH1 0x20 ADD ADD MLOAD PUSH2 0x3664 JUMP JUMPDEST POP SWAP7 SWAP6 POP POP POP POP POP POP JUMP JUMPDEST PUSH1 0x60 PUSH2 0x1003 PUSH32 0x0 DUP5 DUP5 PUSH2 0x30B4 JUMP JUMPDEST SWAP1 POP JUMPDEST SWAP3 SWAP2 POP POP JUMP JUMPDEST PUSH1 0x0 DUP1 PUSH1 0x0 PUSH2 0x103C PUSH32 0x0 DUP16 DUP16 PUSH2 0x3201 JUMP JUMPDEST SWAP1 POP PUSH1 0x0 DUP8 PUSH2 0x104B JUMPI DUP13 PUSH2 0x104F JUMP JUMPDEST PUSH1 0x0 NOT JUMPDEST PUSH1 0x40 DUP1 MLOAD PUSH4 0xD505ACCF PUSH1 0xE0 SHL DUP2 MSTORE CALLER PUSH1 0x4 DUP3 ADD MSTORE ADDRESS PUSH1 0x24 DUP3 ADD MSTORE PUSH1 0x44 DUP2 ADD DUP4 SWAP1 MSTORE PUSH1 0x64 DUP2 ADD DUP13 SWAP1 MSTORE PUSH1 0xFF DUP11 AND PUSH1 0x84 DUP3 ADD MSTORE PUSH1 0xA4 DUP2 ADD DUP10 SWAP1 MSTORE PUSH1 0xC4 DUP2 ADD DUP9 SWAP1 MSTORE SWAP1 MLOAD SWAP2 SWAP3 POP PUSH1 0x1 PUSH1 0x1 PUSH1 0xA0 SHL SUB DUP5 AND SWAP2 PUSH4 0xD505ACCF SWAP2 PUSH1 0xE4 DUP1 DUP3 ADD SWAP3 PUSH1 0x0 SWAP3 SWAP1 SWAP2 SWAP1 DUP3 SWAP1 SUB ADD DUP2 DUP4 DUP8 DUP1 EXTCODESIZE ISZERO DUP1 ISZERO PUSH2 0x10C5 JUMPI PUSH1 0x0 DUP1 REVERT JUMPDEST POP GAS CALL ISZERO DUP1 ISZERO PUSH2 0x10D9 JUMPI RETURNDATASIZE PUSH1 0x0 DUP1 RETURNDATACOPY RETURNDATASIZE PUSH1 0x0 REVERT JUMPDEST POP POP POP POP PUSH2 0x10EC DUP16 DUP16 DUP16 DUP16 DUP16 DUP16 DUP16 PUSH2 0x2443 JUMP JUMPDEST DUP1 SWAP5 POP DUP2 SWAP6 POP POP POP POP POP SWAP12 POP SWAP12 SWAP10 POP POP POP POP POP POP POP POP POP POP JUMP JUMPDEST PUSH1 0x0 DUP1 PUSH2 0x1154 PUSH32 0x0 DUP14 PUSH32 0x0 PUSH2 0x3201 JUMP JUMPDEST SWAP1 POP PUSH1 0x0 DUP7 PUSH2 0x1163 JUMPI DUP12 PUSH2 0x1167 JUMP JUMPDEST PUSH1 0x0 NOT JUMPDEST PUSH1 0x40 DUP1 MLOAD PUSH4 0xD505ACCF PUSH1 0xE0 SHL DUP2 MSTORE CALLER PUSH1 0x4 DUP3 ADD MSTORE ADDRESS PUSH1 0x24 DUP3 ADD MSTORE PUSH1 0x44 DUP2 ADD DUP4 SWAP1 MSTORE PUSH1 0x64 DUP2 ADD DUP12 SWAP1 MSTORE PUSH1 0xFF DUP10 AND PUSH1 0x84 DUP3 ADD MSTORE PUSH1 0xA4 DUP2 ADD DUP9 SWAP1 MSTORE PUSH1 0xC4 DUP2 ADD DUP8 SWAP1 MSTORE SWAP1 MLOAD SWAP2 SWAP3 POP PUSH1 0x1 PUSH1 0x1 PUSH1 0xA0 SHL SUB DUP5 AND SWAP2 PUSH4 0xD505ACCF SWAP2 PUSH1 0xE4 DUP1 DUP3 ADD SWAP3 PUSH1 0x0 SWAP3 SWAP1 SWAP2 SWAP1 DUP3 SWAP1 SUB ADD DUP2 DUP4 DUP8 DUP1 EXTCODESIZE ISZERO DUP1 ISZERO PUSH2 0x11DD JUMPI PUSH1 0x0 DUP1 REVERT JUMPDEST POP GAS CALL ISZERO DUP1 ISZERO PUSH2 0x11F1 JUMPI RETURNDATASIZE PUSH1 0x0 DUP1 RETURNDATACOPY RETURNDATASIZE PUSH1 0x0 REVERT JUMPDEST POP POP POP POP PUSH2 0x1203 DUP14 DUP14 DUP14 DUP14 DUP14 DUP14 PUSH2 0x2E43 JUMP JUMPDEST SWAP14 SWAP13 POP POP POP POP POP POP POP POP POP POP POP POP POP JUMP JUMPDEST PUSH1 0x0 DUP1 DUP3 TIMESTAMP DUP2 LT ISZERO PUSH2 0x125B JUMPI PUSH1 0x40 DUP1 MLOAD PUSH3 0x461BCD PUSH1 0xE5 SHL DUP2 MSTORE PUSH1 0x20 PUSH1 0x4 DUP3 ADD MSTORE PUSH1 0x17 PUSH1 0x24 DUP3 ADD MSTORE PUSH1 0x0 DUP1 MLOAD PUSH1 0x20 PUSH2 0x451F DUP4 CODECOPY DUP2 MLOAD SWAP2 MSTORE PUSH1 0x44 DUP3 ADD MSTORE SWAP1 MLOAD SWAP1 DUP2 SWAP1 SUB PUSH1 0x64 ADD SWAP1 REVERT JUMPDEST PUSH2 0x128A DUP10 PUSH32 0x0 DUP11 DUP11 DUP11 ADDRESS DUP11 PUSH2 0x2443 JUMP JUMPDEST SWAP1 SWAP4 POP SWAP2 POP PUSH2 0x129A DUP10 DUP7 DUP6 PUSH2 0x375C JUMP JUMPDEST PUSH32 0x0 PUSH1 0x1 PUSH1 0x1 PUSH1 0xA0 SHL SUB AND PUSH4 0x2E1A7D4D DUP4 PUSH1 0x40 MLOAD DUP3 PUSH4 0xFFFFFFFF AND PUSH1 0xE0 SHL DUP2 MSTORE PUSH1 0x4 ADD DUP1 DUP3 DUP2 MSTORE PUSH1 0x20 ADD SWAP2 POP POP PUSH1 0x0 PUSH1 0x40 MLOAD DUP1 DUP4 SUB DUP2 PUSH1 0x0 DUP8 DUP1 EXTCODESIZE ISZERO DUP1 ISZERO PUSH2 0x1300 JUMPI PUSH1 0x0 DUP1 REVERT JUMPDEST POP GAS CALL ISZERO DUP1 ISZERO PUSH2 0x1314 JUMPI RETURNDATASIZE PUSH1 0x0 DUP1 RETURNDATACOPY RETURNDATASIZE PUSH1 0x0 REVERT JUMPDEST POP POP POP POP PUSH2 0x1322 DUP6 DUP4 PUSH2 0x3664 JUMP JUMPDEST POP SWAP7 POP SWAP7 SWAP5 POP POP POP POP POP JUMP JUMPDEST DUP1 TIMESTAMP DUP2 LT ISZERO PUSH2 0x1372 JUMPI PUSH1 0x40 DUP1 MLOAD PUSH3 0x461BCD PUSH1 0xE5 SHL DUP2 MSTORE PUSH1 0x20 PUSH1 0x4 DUP3 ADD MSTORE PUSH1 0x17 PUSH1 0x24 DUP3 ADD MSTORE PUSH1 0x0 DUP1 MLOAD PUSH1 0x20 PUSH2 0x451F DUP4 CODECOPY DUP2 MLOAD SWAP2 MSTORE PUSH1 0x44 DUP3 ADD MSTORE SWAP1 MLOAD SWAP1 DUP2 SWAP1 SUB PUSH1 0x64 ADD SWAP1 REVERT JUMPDEST PUSH1 0x1 PUSH1 0x1 PUSH1 0xA0 SHL SUB PUSH32 0x0 AND DUP6 DUP6 PUSH1 0x0 NOT DUP2 ADD DUP2 DUP2 LT PUSH2 0x13AC JUMPI INVALID JUMPDEST SWAP1 POP PUSH1 0x20 MUL ADD CALLDATALOAD PUSH1 0x1 PUSH1 0x1 PUSH1 0xA0 SHL SUB AND PUSH1 0x1 PUSH1 0x1 PUSH1 0xA0 SHL SUB AND EQ PUSH2 0x1405 JUMPI PUSH1 0x40 DUP1 MLOAD PUSH3 0x461BCD PUSH1 0xE5 SHL DUP2 MSTORE PUSH1 0x20 PUSH1 0x4 DUP3 ADD MSTORE PUSH1 0x1C PUSH1 0x24 DUP3 ADD MSTORE PUSH1 0x0 DUP1 MLOAD PUSH1 0x20 PUSH2 0x44D5 DUP4 CODECOPY DUP2 MLOAD SWAP2 MSTORE PUSH1 0x44 DUP3 ADD MSTORE SWAP1 MLOAD SWAP1 DUP2 SWAP1 SUB PUSH1 0x64 ADD SWAP1 REVERT JUMPDEST PUSH2 0x147A DUP6 DUP6 PUSH1 0x0 DUP2 DUP2 LT PUSH2 0x1415 JUMPI INVALID JUMPDEST SWAP1 POP PUSH1 0x20 MUL ADD CALLDATALOAD PUSH1 0x1 PUSH1 0x1 PUSH1 0xA0 SHL SUB AND CALLER PUSH2 0x1474 PUSH32 0x0 DUP10 DUP10 PUSH1 0x0 DUP2 DUP2 LT PUSH2 0x1457 JUMPI INVALID JUMPDEST SWAP1 POP PUSH1 0x20 MUL ADD CALLDATALOAD PUSH1 0x1 PUSH1 0x1 PUSH1 0xA0 SHL SUB AND DUP11 DUP11 PUSH1 0x1 DUP2 DUP2 LT PUSH2 0xEA7 JUMPI INVALID JUMPDEST DUP11 PUSH2 0x32C1 JUMP JUMPDEST PUSH2 0x14B8 DUP6 DUP6 DUP1 DUP1 PUSH1 0x20 MUL PUSH1 0x20 ADD PUSH1 0x40 MLOAD SWAP1 DUP2 ADD PUSH1 0x40 MSTORE DUP1 SWAP4 SWAP3 SWAP2 SWAP1 DUP2 DUP2 MSTORE PUSH1 0x20 ADD DUP4 DUP4 PUSH1 0x20 MUL DUP1 DUP3 DUP5 CALLDATACOPY PUSH1 0x0 SWAP3 ADD SWAP2 SWAP1 SWAP2 MSTORE POP ADDRESS SWAP3 POP PUSH2 0x38B0 SWAP2 POP POP JUMP JUMPDEST PUSH1 0x40 DUP1 MLOAD PUSH4 0x70A08231 PUSH1 0xE0 SHL DUP2 MSTORE ADDRESS PUSH1 0x4 DUP3 ADD MSTORE SWAP1 MLOAD PUSH1 0x0 SWAP2 PUSH1 0x1 PUSH1 0x1 PUSH1 0xA0 SHL SUB PUSH32 0x0 AND SWAP2 PUSH4 0x70A08231 SWAP2 PUSH1 0x24 DUP1 DUP3 ADD SWAP3 PUSH1 0x20 SWAP3 SWAP1 SWAP2 SWAP1 DUP3 SWAP1 SUB ADD DUP2 DUP7 DUP1 EXTCODESIZE ISZERO DUP1 ISZERO PUSH2 0x1522 JUMPI PUSH1 0x0 DUP1 REVERT JUMPDEST POP GAS STATICCALL ISZERO DUP1 ISZERO PUSH2 0x1536 JUMPI RETURNDATASIZE PUSH1 0x0 DUP1 RETURNDATACOPY RETURNDATASIZE PUSH1 0x0 REVERT JUMPDEST POP POP POP POP PUSH1 0x40 MLOAD RETURNDATASIZE PUSH1 0x20 DUP2 LT ISZERO PUSH2 0x154C JUMPI PUSH1 0x0 DUP1 REVERT JUMPDEST POP MLOAD SWAP1 POP DUP7 DUP2 LT ISZERO PUSH2 0x158F JUMPI PUSH1 0x40 MLOAD PUSH3 0x461BCD PUSH1 0xE5 SHL DUP2 MSTORE PUSH1 0x4 ADD DUP1 DUP1 PUSH1 0x20 ADD DUP3 DUP2 SUB DUP3 MSTORE PUSH1 0x2A DUP2 MSTORE PUSH1 0x20 ADD DUP1 PUSH2 0x44AB PUSH1 0x2A SWAP2 CODECOPY PUSH1 0x40 ADD SWAP2 POP POP PUSH1 0x40 MLOAD DUP1 SWAP2 SUB SWAP1 REVERT JUMPDEST PUSH32 0x0 PUSH1 0x1 PUSH1 0x1 PUSH1 0xA0 SHL SUB AND PUSH4 0x2E1A7D4D DUP3 PUSH1 0x40 MLOAD DUP3 PUSH4 0xFFFFFFFF AND PUSH1 0xE0 SHL DUP2 MSTORE PUSH1 0x4 ADD DUP1 DUP3 DUP2 MSTORE PUSH1 0x20 ADD SWAP2 POP POP PUSH1 0x0 PUSH1 0x40 MLOAD DUP1 DUP4 SUB DUP2 PUSH1 0x0 DUP8 DUP1 EXTCODESIZE ISZERO DUP1 ISZERO PUSH2 0x15F5 JUMPI PUSH1 0x0 DUP1 REVERT JUMPDEST POP GAS CALL ISZERO DUP1 ISZERO PUSH2 0x1609 JUMPI RETURNDATASIZE PUSH1 0x0 DUP1 RETURNDATACOPY RETURNDATASIZE PUSH1 0x0 REVERT JUMPDEST POP POP POP POP PUSH2 0x1617 DUP5 DUP3 PUSH2 0x3664 JUMP JUMPDEST POP POP POP POP POP POP POP POP JUMP JUMPDEST PUSH1 0x60 DUP2 TIMESTAMP DUP2 LT ISZERO PUSH2 0x1667 JUMPI PUSH1 0x40 DUP1 MLOAD PUSH3 0x461BCD PUSH1 0xE5 SHL DUP2 MSTORE PUSH1 0x20 PUSH1 0x4 DUP3 ADD MSTORE PUSH1 0x17 PUSH1 0x24 DUP3 ADD MSTORE PUSH1 0x0 DUP1 MLOAD PUSH1 0x20 PUSH2 0x451F DUP4 CODECOPY DUP2 MLOAD SWAP2 MSTORE PUSH1 0x44 DUP3 ADD MSTORE SWAP1 MLOAD SWAP1 DUP2 SWAP1 SUB PUSH1 0x64 ADD SWAP1 REVERT JUMPDEST PUSH2 0x16C5 PUSH32 0x0 DUP10 DUP9 DUP9 DUP1 DUP1 PUSH1 0x20 MUL PUSH1 0x20 ADD PUSH1 0x40 MLOAD SWAP1 DUP2 ADD PUSH1 0x40 MSTORE DUP1 SWAP4 SWAP3 SWAP2 SWAP1 DUP2 DUP2 MSTORE PUSH1 0x20 ADD DUP4 DUP4 PUSH1 0x20 MUL DUP1 DUP3 DUP5 CALLDATACOPY PUSH1 0x0 SWAP3 ADD SWAP2 SWAP1 SWAP2 MSTORE POP PUSH2 0x3BBB SWAP3 POP POP POP JUMP JUMPDEST SWAP2 POP DUP7 DUP3 PUSH1 0x1 DUP5 MLOAD SUB DUP2 MLOAD DUP2 LT PUSH2 0x16D8 JUMPI INVALID JUMPDEST PUSH1 0x20 MUL PUSH1 0x20 ADD ADD MLOAD LT ISZERO PUSH2 0x171D JUMPI PUSH1 0x40 MLOAD PUSH3 0x461BCD PUSH1 0xE5 SHL DUP2 MSTORE PUSH1 0x4 ADD DUP1 DUP1 PUSH1 0x20 ADD DUP3 DUP2 SUB DUP3 MSTORE PUSH1 0x2A DUP2 MSTORE PUSH1 0x20 ADD DUP1 PUSH2 0x44AB PUSH1 0x2A SWAP2 CODECOPY PUSH1 0x40 ADD SWAP2 POP POP PUSH1 0x40 MLOAD DUP1 SWAP2 SUB SWAP1 REVERT JUMPDEST PUSH2 0x172D DUP7 DUP7 PUSH1 0x0 DUP2 DUP2 LT PUSH2 0xE48 JUMPI INVALID JUMPDEST PUSH2 0xFCB DUP3 DUP8 DUP8 DUP1 DUP1 PUSH1 0x20 MUL PUSH1 0x20 ADD PUSH1 0x40 MLOAD SWAP1 DUP2 ADD PUSH1 0x40 MSTORE DUP1 SWAP4 SWAP3 SWAP2 SWAP1 DUP2 DUP2 MSTORE PUSH1 0x20 ADD DUP4 DUP4 PUSH1 0x20 MUL DUP1 DUP3 DUP5 CALLDATACOPY PUSH1 0x0 SWAP3 ADD SWAP2 SWAP1 SWAP2 MSTORE POP DUP10 SWAP3 POP PUSH2 0x341E SWAP2 POP POP JUMP JUMPDEST PUSH1 0x60 DUP2 TIMESTAMP DUP2 LT ISZERO PUSH2 0x17B2 JUMPI PUSH1 0x40 DUP1 MLOAD PUSH3 0x461BCD PUSH1 0xE5 SHL DUP2 MSTORE PUSH1 0x20 PUSH1 0x4 DUP3 ADD MSTORE PUSH1 0x17 PUSH1 0x24 DUP3 ADD MSTORE PUSH1 0x0 DUP1 MLOAD PUSH1 0x20 PUSH2 0x451F DUP4 CODECOPY DUP2 MLOAD SWAP2 MSTORE PUSH1 0x44 DUP3 ADD MSTORE SWAP1 MLOAD SWAP1 DUP2 SWAP1 SUB PUSH1 0x64 ADD SWAP1 REVERT JUMPDEST PUSH32 0x0 PUSH1 0x1 PUSH1 0x1 PUSH1 0xA0 SHL SUB AND DUP7 DUP7 PUSH1 0x0 DUP2 DUP2 LT PUSH2 0x17E9 JUMPI INVALID JUMPDEST SWAP1 POP PUSH1 0x20 MUL ADD CALLDATALOAD PUSH1 0x1 PUSH1 0x1 PUSH1 0xA0 SHL SUB AND PUSH1 0x1 PUSH1 0x1 PUSH1 0xA0 SHL SUB AND EQ PUSH2 0x1842 JUMPI PUSH1 0x40 DUP1 MLOAD PUSH3 0x461BCD PUSH1 0xE5 SHL DUP2 MSTORE PUSH1 0x20 PUSH1 0x4 DUP3 ADD MSTORE PUSH1 0x1C PUSH1 0x24 DUP3 ADD MSTORE PUSH1 0x0 DUP1 MLOAD PUSH1 0x20 PUSH2 0x44D5 DUP4 CODECOPY DUP2 MLOAD SWAP2 MSTORE PUSH1 0x44 DUP3 ADD MSTORE SWAP1 MLOAD SWAP1 DUP2 SWAP1 SUB PUSH1 0x64 ADD SWAP1 REVERT JUMPDEST PUSH2 0x18A0 PUSH32 0x0 CALLVALUE DUP9 DUP9 DUP1 DUP1 PUSH1 0x20 MUL PUSH1 0x20 ADD PUSH1 0x40 MLOAD SWAP1 DUP2 ADD PUSH1 0x40 MSTORE DUP1 SWAP4 SWAP3 SWAP2 SWAP1 DUP2 DUP2 MSTORE PUSH1 0x20 ADD DUP4 DUP4 PUSH1 0x20 MUL DUP1 DUP3 DUP5 CALLDATACOPY PUSH1 0x0 SWAP3 ADD SWAP2 SWAP1 SWAP2 MSTORE POP PUSH2 0x3BBB SWAP3 POP POP POP JUMP JUMPDEST SWAP2 POP DUP7 DUP3 PUSH1 0x1 DUP5 MLOAD SUB DUP2 MLOAD DUP2 LT PUSH2 0x18B3 JUMPI INVALID JUMPDEST PUSH1 0x20 MUL PUSH1 0x20 ADD ADD MLOAD LT ISZERO PUSH2 0x18F8 JUMPI PUSH1 0x40 MLOAD PUSH3 0x461BCD PUSH1 0xE5 SHL DUP2 MSTORE PUSH1 0x4 ADD DUP1 DUP1 PUSH1 0x20 ADD DUP3 DUP2 SUB DUP3 MSTORE PUSH1 0x2A DUP2 MSTORE PUSH1 0x20 ADD DUP1 PUSH2 0x44AB PUSH1 0x2A SWAP2 CODECOPY PUSH1 0x40 ADD SWAP2 POP POP PUSH1 0x40 MLOAD DUP1 SWAP2 SUB SWAP1 REVERT JUMPDEST PUSH32 0x0 PUSH1 0x1 PUSH1 0x1 PUSH1 0xA0 SHL SUB AND PUSH4 0xD0E30DB0 DUP4 PUSH1 0x0 DUP2 MLOAD DUP2 LT PUSH2 0x1934 JUMPI INVALID JUMPDEST PUSH1 0x20 MUL PUSH1 0x20 ADD ADD MLOAD PUSH1 0x40 MLOAD DUP3 PUSH4 0xFFFFFFFF AND PUSH1 0xE0 SHL DUP2 MSTORE PUSH1 0x4 ADD PUSH1 0x0 PUSH1 0x40 MLOAD DUP1 DUP4 SUB DUP2 DUP6 DUP9 DUP1 EXTCODESIZE ISZERO DUP1 ISZERO PUSH2 0x1967 JUMPI PUSH1 0x0 DUP1 REVERT JUMPDEST POP GAS CALL ISZERO DUP1 ISZERO PUSH2 0x197B JUMPI RETURNDATASIZE PUSH1 0x0 DUP1 RETURNDATACOPY RETURNDATASIZE PUSH1 0x0 REVERT JUMPDEST POP POP POP POP POP PUSH32 0x0 PUSH1 0x1 PUSH1 0x1 PUSH1 0xA0 SHL SUB AND PUSH4 0xA9059CBB PUSH2 0x19E0 PUSH32 0x0 DUP10 DUP10 PUSH1 0x0 DUP2 DUP2 LT PUSH2 0x1457 JUMPI INVALID JUMPDEST DUP5 PUSH1 0x0 DUP2 MLOAD DUP2 LT PUSH2 0x19ED JUMPI INVALID JUMPDEST PUSH1 0x20 MUL PUSH1 0x20 ADD ADD MLOAD PUSH1 0x40 MLOAD DUP4 PUSH4 0xFFFFFFFF AND PUSH1 0xE0 SHL DUP2 MSTORE PUSH1 0x4 ADD DUP1 DUP4 PUSH1 0x1 PUSH1 0x1 PUSH1 0xA0 SHL SUB AND PUSH1 0x1 PUSH1 0x1 PUSH1 0xA0 SHL SUB AND DUP2 MSTORE PUSH1 0x20 ADD DUP3 DUP2 MSTORE PUSH1 0x20 ADD SWAP3 POP POP POP PUSH1 0x20 PUSH1 0x40 MLOAD DUP1 DUP4 SUB DUP2 PUSH1 0x0 DUP8 DUP1 EXTCODESIZE ISZERO DUP1 ISZERO PUSH2 0x1A44 JUMPI PUSH1 0x0 DUP1 REVERT JUMPDEST POP GAS CALL ISZERO DUP1 ISZERO PUSH2 0x1A58 JUMPI RETURNDATASIZE PUSH1 0x0 DUP1 RETURNDATACOPY RETURNDATASIZE PUSH1 0x0 REVERT JUMPDEST POP POP POP POP PUSH1 0x40 MLOAD RETURNDATASIZE PUSH1 0x20 DUP2 LT ISZERO PUSH2 0x1A6E JUMPI PUSH1 0x0 DUP1 REVERT JUMPDEST POP MLOAD PUSH2 0x1A76 JUMPI INVALID JUMPDEST PUSH2 0x1AB5 DUP3 DUP8 DUP8 DUP1 DUP1 PUSH1 0x20 MUL PUSH1 0x20 ADD PUSH1 0x40 MLOAD SWAP1 DUP2 ADD PUSH1 0x40 MSTORE DUP1 SWAP4 SWAP3 SWAP2 SWAP1 DUP2 DUP2 MSTORE PUSH1 0x20 ADD DUP4 DUP4 PUSH1 0x20 MUL DUP1 DUP3 DUP5 CALLDATACOPY PUSH1 0x0 SWAP3 ADD SWAP2 SWAP1 SWAP2 MSTORE POP DUP10 SWAP3 POP PUSH2 0x341E SWAP2 POP POP JUMP JUMPDEST POP SWAP6 SWAP5 POP POP POP POP POP JUMP JUMPDEST DUP1 TIMESTAMP DUP2 LT ISZERO PUSH2 0x1B03 JUMPI PUSH1 0x40 DUP1 MLOAD PUSH3 0x461BCD PUSH1 0xE5 SHL DUP2 MSTORE PUSH1 0x20 PUSH1 0x4 DUP3 ADD MSTORE PUSH1 0x17 PUSH1 0x24 DUP3 ADD MSTORE PUSH1 0x0 DUP1 MLOAD PUSH1 0x20 PUSH2 0x451F DUP4 CODECOPY DUP2 MLOAD SWAP2 MSTORE PUSH1 0x44 DUP3 ADD MSTORE SWAP1 MLOAD SWAP1 DUP2 SWAP1 SUB PUSH1 0x64 ADD SWAP1 REVERT JUMPDEST PUSH2 0x1B13 DUP6 DUP6 PUSH1 0x0 DUP2 DUP2 LT PUSH2 0x1415 JUMPI INVALID JUMPDEST PUSH1 0x0 DUP6 DUP6 PUSH1 0x0 NOT DUP2 ADD DUP2 DUP2 LT PUSH2 0x1B25 JUMPI INVALID JUMPDEST SWAP1 POP PUSH1 0x20 MUL ADD CALLDATALOAD PUSH1 0x1 PUSH1 0x1 PUSH1 0xA0 SHL SUB AND PUSH1 0x1 PUSH1 0x1 PUSH1 0xA0 SHL SUB AND PUSH4 0x70A08231 DUP6 PUSH1 0x40 MLOAD DUP3 PUSH4 0xFFFFFFFF AND PUSH1 0xE0 SHL DUP2 MSTORE PUSH1 0x4 ADD DUP1 DUP3 PUSH1 0x1 PUSH1 0x1 PUSH1 0xA0 SHL SUB AND PUSH1 0x1 PUSH1 0x1 PUSH1 0xA0 SHL SUB AND DUP2 MSTORE PUSH1 0x20 ADD SWAP2 POP POP PUSH1 0x20 PUSH1 0x40 MLOAD DUP1 DUP4 SUB DUP2 DUP7 DUP1 EXTCODESIZE ISZERO DUP1 ISZERO PUSH2 0x1B8A JUMPI PUSH1 0x0 DUP1 REVERT JUMPDEST POP GAS STATICCALL ISZERO DUP1 ISZERO PUSH2 0x1B9E JUMPI RETURNDATASIZE PUSH1 0x0 DUP1 RETURNDATACOPY RETURNDATASIZE PUSH1 0x0 REVERT JUMPDEST POP POP POP POP PUSH1 0x40 MLOAD RETURNDATASIZE PUSH1 0x20 DUP2 LT ISZERO PUSH2 0x1BB4 JUMPI PUSH1 0x0 DUP1 REVERT JUMPDEST POP MLOAD PUSH1 0x40 DUP1 MLOAD PUSH1 0x20 DUP9 DUP2 MUL DUP3 DUP2 ADD DUP3 ADD SWAP1 SWAP4 MSTORE DUP9 DUP3 MSTORE SWAP3 SWAP4 POP PUSH2 0x1BF6 SWAP3 SWAP1 SWAP2 DUP10 SWAP2 DUP10 SWAP2 DUP3 SWAP2 DUP6 ADD SWAP1 DUP5 SWAP1 DUP1 DUP3 DUP5 CALLDATACOPY PUSH1 0x0 SWAP3 ADD SWAP2 SWAP1 SWAP2 MSTORE POP DUP9 SWAP3 POP PUSH2 0x38B0 SWAP2 POP POP JUMP JUMPDEST DUP7 PUSH2 0x1CA8 DUP3 DUP9 DUP9 PUSH1 0x0 NOT DUP2 ADD DUP2 DUP2 LT PUSH2 0x1C0B JUMPI INVALID JUMPDEST SWAP1 POP PUSH1 0x20 MUL ADD CALLDATALOAD PUSH1 0x1 PUSH1 0x1 PUSH1 0xA0 SHL SUB AND PUSH1 0x1 PUSH1 0x1 PUSH1 0xA0 SHL SUB AND PUSH4 0x70A08231 DUP9 PUSH1 0x40 MLOAD DUP3 PUSH4 0xFFFFFFFF AND PUSH1 0xE0 SHL DUP2 MSTORE PUSH1 0x4 ADD DUP1 DUP3 PUSH1 0x1 PUSH1 0x1 PUSH1 0xA0 SHL SUB AND PUSH1 0x1 PUSH1 0x1 PUSH1 0xA0 SHL SUB AND DUP2 MSTORE PUSH1 0x20 ADD SWAP2 POP POP PUSH1 0x20 PUSH1 0x40 MLOAD DUP1 DUP4 SUB DUP2 DUP7 DUP1 EXTCODESIZE ISZERO DUP1 ISZERO PUSH2 0x1C70 JUMPI PUSH1 0x0 DUP1 REVERT JUMPDEST POP GAS STATICCALL ISZERO DUP1 ISZERO PUSH2 0x1C84 JUMPI RETURNDATASIZE PUSH1 0x0 DUP1 RETURNDATACOPY RETURNDATASIZE PUSH1 0x0 REVERT JUMPDEST POP POP POP POP PUSH1 0x40 MLOAD RETURNDATASIZE PUSH1 0x20 DUP2 LT ISZERO PUSH2 0x1C9A JUMPI PUSH1 0x0 DUP1 REVERT JUMPDEST POP MLOAD SWAP1 PUSH4 0xFFFFFFFF PUSH2 0x3CF2 AND JUMP JUMPDEST LT ISZERO PUSH2 0x1617 JUMPI PUSH1 0x40 MLOAD PUSH3 0x461BCD PUSH1 0xE5 SHL DUP2 MSTORE PUSH1 0x4 ADD DUP1 DUP1 PUSH1 0x20 ADD DUP3 DUP2 SUB DUP3 MSTORE PUSH1 0x2A DUP2 MSTORE PUSH1 0x20 ADD DUP1 PUSH2 0x44AB PUSH1 0x2A SWAP2 CODECOPY PUSH1 0x40 ADD SWAP2 POP POP PUSH1 0x40 MLOAD DUP1 SWAP2 SUB SWAP1 REVERT JUMPDEST PUSH1 0x60 DUP2 TIMESTAMP DUP2 LT ISZERO PUSH2 0x1D2B JUMPI PUSH1 0x40 DUP1 MLOAD PUSH3 0x461BCD PUSH1 0xE5 SHL DUP2 MSTORE PUSH1 0x20 PUSH1 0x4 DUP3 ADD MSTORE PUSH1 0x17 PUSH1 0x24 DUP3 ADD MSTORE PUSH1 0x0 DUP1 MLOAD PUSH1 0x20 PUSH2 0x451F DUP4 CODECOPY DUP2 MLOAD SWAP2 MSTORE PUSH1 0x44 DUP3 ADD MSTORE SWAP1 MLOAD SWAP1 DUP2 SWAP1 SUB PUSH1 0x64 ADD SWAP1 REVERT JUMPDEST PUSH32 0x0 PUSH1 0x1 PUSH1 0x1 PUSH1 0xA0 SHL SUB AND DUP7 DUP7 PUSH1 0x0 DUP2 DUP2 LT PUSH2 0x1D62 JUMPI INVALID JUMPDEST SWAP1 POP PUSH1 0x20 MUL ADD CALLDATALOAD PUSH1 0x1 PUSH1 0x1 PUSH1 0xA0 SHL SUB AND PUSH1 0x1 PUSH1 0x1 PUSH1 0xA0 SHL SUB AND EQ PUSH2 0x1DBB JUMPI PUSH1 0x40 DUP1 MLOAD PUSH3 0x461BCD PUSH1 0xE5 SHL DUP2 MSTORE PUSH1 0x20 PUSH1 0x4 DUP3 ADD MSTORE PUSH1 0x1C PUSH1 0x24 DUP3 ADD MSTORE PUSH1 0x0 DUP1 MLOAD PUSH1 0x20 PUSH2 0x44D5 DUP4 CODECOPY DUP2 MLOAD SWAP2 MSTORE PUSH1 0x44 DUP3 ADD MSTORE SWAP1 MLOAD SWAP1 DUP2 SWAP1 SUB PUSH1 0x64 ADD SWAP1 REVERT JUMPDEST PUSH2 0x1E19 PUSH32 0x0 DUP9 DUP9 DUP9 DUP1 DUP1 PUSH1 0x20 MUL PUSH1 0x20 ADD PUSH1 0x40 MLOAD SWAP1 DUP2 ADD PUSH1 0x40 MSTORE DUP1 SWAP4 SWAP3 SWAP2 SWAP1 DUP2 DUP2 MSTORE PUSH1 0x20 ADD DUP4 DUP4 PUSH1 0x20 MUL DUP1 DUP3 DUP5 CALLDATACOPY PUSH1 0x0 SWAP3 ADD SWAP2 SWAP1 SWAP2 MSTORE POP PUSH2 0x30B4 SWAP3 POP POP POP JUMP JUMPDEST SWAP2 POP CALLVALUE DUP3 PUSH1 0x0 DUP2 MLOAD DUP2 LT PUSH2 0x1E29 JUMPI INVALID JUMPDEST PUSH1 0x20 MUL PUSH1 0x20 ADD ADD MLOAD GT ISZERO PUSH2 0x1E6E JUMPI PUSH1 0x40 MLOAD PUSH3 0x461BCD PUSH1 0xE5 SHL DUP2 MSTORE PUSH1 0x4 ADD DUP1 DUP1 PUSH1 0x20 ADD DUP3 DUP2 SUB DUP3 MSTORE PUSH1 0x26 DUP2 MSTORE PUSH1 0x20 ADD DUP1 PUSH2 0x444F PUSH1 0x26 SWAP2 CODECOPY PUSH1 0x40 ADD SWAP2 POP POP PUSH1 0x40 MLOAD DUP1 SWAP2 SUB SWAP1 REVERT JUMPDEST PUSH32 0x0 PUSH1 0x1 PUSH1 0x1 PUSH1 0xA0 SHL SUB AND PUSH4 0xD0E30DB0 DUP4 PUSH1 0x0 DUP2 MLOAD DUP2 LT PUSH2 0x1EAA JUMPI INVALID JUMPDEST PUSH1 0x20 MUL PUSH1 0x20 ADD ADD MLOAD PUSH1 0x40 MLOAD DUP3 PUSH4 0xFFFFFFFF AND PUSH1 0xE0 SHL DUP2 MSTORE PUSH1 0x4 ADD PUSH1 0x0 PUSH1 0x40 MLOAD DUP1 DUP4 SUB DUP2 DUP6 DUP9 DUP1 EXTCODESIZE ISZERO DUP1 ISZERO PUSH2 0x1EDD JUMPI PUSH1 0x0 DUP1 REVERT JUMPDEST POP GAS CALL ISZERO DUP1 ISZERO PUSH2 0x1EF1 JUMPI RETURNDATASIZE PUSH1 0x0 DUP1 RETURNDATACOPY RETURNDATASIZE PUSH1 0x0 REVERT JUMPDEST POP POP POP POP POP PUSH32 0x0 PUSH1 0x1 PUSH1 0x1 PUSH1 0xA0 SHL SUB AND PUSH4 0xA9059CBB PUSH2 0x1F56 PUSH32 0x0 DUP10 DUP10 PUSH1 0x0 DUP2 DUP2 LT PUSH2 0x1457 JUMPI INVALID JUMPDEST DUP5 PUSH1 0x0 DUP2 MLOAD DUP2 LT PUSH2 0x1F63 JUMPI INVALID JUMPDEST PUSH1 0x20 MUL PUSH1 0x20 ADD ADD MLOAD PUSH1 0x40 MLOAD DUP4 PUSH4 0xFFFFFFFF AND PUSH1 0xE0 SHL DUP2 MSTORE PUSH1 0x4 ADD DUP1 DUP4 PUSH1 0x1 PUSH1 0x1 PUSH1 0xA0 SHL SUB AND PUSH1 0x1 PUSH1 0x1 PUSH1 0xA0 SHL SUB AND DUP2 MSTORE PUSH1 0x20 ADD DUP3 DUP2 MSTORE PUSH1 0x20 ADD SWAP3 POP POP POP PUSH1 0x20 PUSH1 0x40 MLOAD DUP1 DUP4 SUB DUP2 PUSH1 0x0 DUP8 DUP1 EXTCODESIZE ISZERO DUP1 ISZERO PUSH2 0x1FBA JUMPI PUSH1 0x0 DUP1 REVERT JUMPDEST POP GAS CALL ISZERO DUP1 ISZERO PUSH2 0x1FCE JUMPI RETURNDATASIZE PUSH1 0x0 DUP1 RETURNDATACOPY RETURNDATASIZE PUSH1 0x0 REVERT JUMPDEST POP POP POP POP PUSH1 0x40 MLOAD RETURNDATASIZE PUSH1 0x20 DUP2 LT ISZERO PUSH2 0x1FE4 JUMPI PUSH1 0x0 DUP1 REVERT JUMPDEST POP MLOAD PUSH2 0x1FEC JUMPI INVALID JUMPDEST PUSH2 0x202B DUP3 DUP8 DUP8 DUP1 DUP1 PUSH1 0x20 MUL PUSH1 0x20 ADD PUSH1 0x40 MLOAD SWAP1 DUP2 ADD PUSH1 0x40 MSTORE DUP1 SWAP4 SWAP3 SWAP2 SWAP1 DUP2 DUP2 MSTORE PUSH1 0x20 ADD DUP4 DUP4 PUSH1 0x20 MUL DUP1 DUP3 DUP5 CALLDATACOPY PUSH1 0x0 SWAP3 ADD SWAP2 SWAP1 SWAP2 MSTORE POP DUP10 SWAP3 POP PUSH2 0x341E SWAP2 POP POP JUMP JUMPDEST DUP2 PUSH1 0x0 DUP2 MLOAD DUP2 LT PUSH2 0x2038 JUMPI INVALID JUMPDEST PUSH1 0x20 MUL PUSH1 0x20 ADD ADD MLOAD CALLVALUE GT ISZERO PUSH2 0x1AB5 JUMPI PUSH2 0x1AB5 CALLER DUP4 PUSH1 0x0 DUP2 MLOAD DUP2 LT PUSH2 0x2058 JUMPI INVALID JUMPDEST PUSH1 0x20 MUL PUSH1 0x20 ADD ADD MLOAD CALLVALUE SUB PUSH2 0x3664 JUMP JUMPDEST PUSH1 0x0 DUP1 PUSH1 0x0 DUP4 TIMESTAMP DUP2 LT ISZERO PUSH2 0x20B0 JUMPI PUSH1 0x40 DUP1 MLOAD PUSH3 0x461BCD PUSH1 0xE5 SHL DUP2 MSTORE PUSH1 0x20 PUSH1 0x4 DUP3 ADD MSTORE PUSH1 0x17 PUSH1 0x24 DUP3 ADD MSTORE PUSH1 0x0 DUP1 MLOAD PUSH1 0x20 PUSH2 0x451F DUP4 CODECOPY DUP2 MLOAD SWAP2 MSTORE PUSH1 0x44 DUP3 ADD MSTORE SWAP1 MLOAD SWAP1 DUP2 SWAP1 SUB PUSH1 0x64 ADD SWAP1 REVERT JUMPDEST PUSH2 0x20DE DUP11 PUSH32 0x0 DUP12 CALLVALUE DUP13 DUP13 PUSH2 0x3D42 JUMP JUMPDEST SWAP1 SWAP5 POP SWAP3 POP PUSH1 0x0 PUSH2 0x2130 PUSH32 0x0 DUP13 PUSH32 0x0 PUSH2 0x3201 JUMP JUMPDEST SWAP1 POP PUSH2 0x213E DUP12 CALLER DUP4 DUP9 PUSH2 0x32C1 JUMP JUMPDEST PUSH32 0x0 PUSH1 0x1 PUSH1 0x1 PUSH1 0xA0 SHL SUB AND PUSH4 0xD0E30DB0 DUP6 PUSH1 0x40 MLOAD DUP3 PUSH4 0xFFFFFFFF AND PUSH1 0xE0 SHL DUP2 MSTORE PUSH1 0x4 ADD PUSH1 0x0 PUSH1 0x40 MLOAD DUP1 DUP4 SUB DUP2 DUP6 DUP9 DUP1 EXTCODESIZE ISZERO DUP1 ISZERO PUSH2 0x2199 JUMPI PUSH1 0x0 DUP1 REVERT JUMPDEST POP GAS CALL ISZERO DUP1 ISZERO PUSH2 0x21AD JUMPI RETURNDATASIZE PUSH1 0x0 DUP1 RETURNDATACOPY RETURNDATASIZE PUSH1 0x0 REVERT JUMPDEST POP POP POP POP POP PUSH32 0x0 PUSH1 0x1 PUSH1 0x1 PUSH1 0xA0 SHL SUB AND PUSH4 0xA9059CBB DUP3 DUP7 PUSH1 0x40 MLOAD DUP4 PUSH4 0xFFFFFFFF AND PUSH1 0xE0 SHL DUP2 MSTORE PUSH1 0x4 ADD DUP1 DUP4 PUSH1 0x1 PUSH1 0x1 PUSH1 0xA0 SHL SUB AND PUSH1 0x1 PUSH1 0x1 PUSH1 0xA0 SHL SUB AND DUP2 MSTORE PUSH1 0x20 ADD DUP3 DUP2 MSTORE PUSH1 0x20 ADD SWAP3 POP POP POP PUSH1 0x20 PUSH1 0x40 MLOAD DUP1 DUP4 SUB DUP2 PUSH1 0x0 DUP8 DUP1 EXTCODESIZE ISZERO DUP1 ISZERO PUSH2 0x2232 JUMPI PUSH1 0x0 DUP1 REVERT JUMPDEST POP GAS CALL ISZERO DUP1 ISZERO PUSH2 0x2246 JUMPI RETURNDATASIZE PUSH1 0x0 DUP1 RETURNDATACOPY RETURNDATASIZE PUSH1 0x0 REVERT JUMPDEST POP POP POP POP PUSH1 0x40 MLOAD RETURNDATASIZE PUSH1 0x20 DUP2 LT ISZERO PUSH2 0x225C JUMPI PUSH1 0x0 DUP1 REVERT JUMPDEST POP MLOAD PUSH2 0x2264 JUMPI INVALID JUMPDEST DUP1 PUSH1 0x1 PUSH1 0x1 PUSH1 0xA0 SHL SUB AND PUSH4 0x6A627842 DUP9 PUSH1 0x40 MLOAD DUP3 PUSH4 0xFFFFFFFF AND PUSH1 0xE0 SHL DUP2 MSTORE PUSH1 0x4 ADD DUP1 DUP3 PUSH1 0x1 PUSH1 0x1 PUSH1 0xA0 SHL SUB AND PUSH1 0x1 PUSH1 0x1 PUSH1 0xA0 SHL SUB AND DUP2 MSTORE PUSH1 0x20 ADD SWAP2 POP POP PUSH1 0x20 PUSH1 0x40 MLOAD DUP1 DUP4 SUB DUP2 PUSH1 0x0 DUP8 DUP1 EXTCODESIZE ISZERO DUP1 ISZERO PUSH2 0x22BC JUMPI PUSH1 0x0 DUP1 REVERT JUMPDEST POP GAS CALL ISZERO DUP1 ISZERO PUSH2 0x22D0 JUMPI RETURNDATASIZE PUSH1 0x0 DUP1 RETURNDATACOPY RETURNDATASIZE PUSH1 0x0 REVERT JUMPDEST POP POP POP POP PUSH1 0x40 MLOAD RETURNDATASIZE PUSH1 0x20 DUP2 LT ISZERO PUSH2 0x22E6 JUMPI PUSH1 0x0 DUP1 REVERT JUMPDEST POP MLOAD SWAP3 POP CALLVALUE DUP5 LT ISZERO PUSH2 0x22FE JUMPI PUSH2 0x22FE CALLER DUP6 CALLVALUE SUB PUSH2 0x3664 JUMP JUMPDEST POP POP SWAP7 POP SWAP7 POP SWAP7 SWAP4 POP POP POP POP JUMP JUMPDEST PUSH32 0x0 DUP2 JUMP JUMPDEST PUSH1 0x0 PUSH2 0xCA4 DUP5 DUP5 DUP5 PUSH2 0x3FB6 JUMP JUMPDEST PUSH1 0x60 DUP2 TIMESTAMP DUP2 LT ISZERO PUSH2 0x2383 JUMPI PUSH1 0x40 DUP1 MLOAD PUSH3 0x461BCD PUSH1 0xE5 SHL DUP2 MSTORE PUSH1 0x20 PUSH1 0x4 DUP3 ADD MSTORE PUSH1 0x17 PUSH1 0x24 DUP3 ADD MSTORE PUSH1 0x0 DUP1 MLOAD PUSH1 0x20 PUSH2 0x451F DUP4 CODECOPY DUP2 MLOAD SWAP2 MSTORE PUSH1 0x44 DUP3 ADD MSTORE SWAP1 MLOAD SWAP1 DUP2 SWAP1 SUB PUSH1 0x64 ADD SWAP1 REVERT JUMPDEST PUSH2 0x23E1 PUSH32 0x0 DUP10 DUP9 DUP9 DUP1 DUP1 PUSH1 0x20 MUL PUSH1 0x20 ADD PUSH1 0x40 MLOAD SWAP1 DUP2 ADD PUSH1 0x40 MSTORE DUP1 SWAP4 SWAP3 SWAP2 SWAP1 DUP2 DUP2 MSTORE PUSH1 0x20 ADD DUP4 DUP4 PUSH1 0x20 MUL DUP1 DUP3 DUP5 CALLDATACOPY PUSH1 0x0 SWAP3 ADD SWAP2 SWAP1 SWAP2 MSTORE POP PUSH2 0x30B4 SWAP3 POP POP POP JUMP JUMPDEST SWAP2 POP DUP7 DUP3 PUSH1 0x0 DUP2 MLOAD DUP2 LT PUSH2 0x23F1 JUMPI INVALID JUMPDEST PUSH1 0x20 MUL PUSH1 0x20 ADD ADD MLOAD GT ISZERO PUSH2 0x171D JUMPI PUSH1 0x40 MLOAD PUSH3 0x461BCD PUSH1 0xE5 SHL DUP2 MSTORE PUSH1 0x4 ADD DUP1 DUP1 PUSH1 0x20 ADD DUP3 DUP2 SUB DUP3 MSTORE PUSH1 0x26 DUP2 MSTORE PUSH1 0x20 ADD DUP1 PUSH2 0x444F PUSH1 0x26 SWAP2 CODECOPY PUSH1 0x40 ADD SWAP2 POP POP PUSH1 0x40 MLOAD DUP1 SWAP2 SUB SWAP1 REVERT JUMPDEST PUSH1 0x0 PUSH2 0xCA4 DUP5 DUP5 DUP5 PUSH2 0x40A6 JUMP JUMPDEST PUSH1 0x0 DUP1 DUP3 TIMESTAMP DUP2 LT ISZERO PUSH2 0x248A JUMPI PUSH1 0x40 DUP1 MLOAD PUSH3 0x461BCD PUSH1 0xE5 SHL DUP2 MSTORE PUSH1 0x20 PUSH1 0x4 DUP3 ADD MSTORE PUSH1 0x17 PUSH1 0x24 DUP3 ADD MSTORE PUSH1 0x0 DUP1 MLOAD PUSH1 0x20 PUSH2 0x451F DUP4 CODECOPY DUP2 MLOAD SWAP2 MSTORE PUSH1 0x44 DUP3 ADD MSTORE SWAP1 MLOAD SWAP1 DUP2 SWAP1 SUB PUSH1 0x64 ADD SWAP1 REVERT JUMPDEST PUSH1 0x0 PUSH2 0x24B7 PUSH32 0x0 DUP13 DUP13 PUSH2 0x3201 JUMP JUMPDEST PUSH1 0x40 DUP1 MLOAD PUSH4 0x23B872DD PUSH1 0xE0 SHL DUP2 MSTORE CALLER PUSH1 0x4 DUP3 ADD MSTORE PUSH1 0x1 PUSH1 0x1 PUSH1 0xA0 SHL SUB DUP4 AND PUSH1 0x24 DUP3 ADD DUP2 SWAP1 MSTORE PUSH1 0x44 DUP3 ADD DUP14 SWAP1 MSTORE SWAP2 MLOAD SWAP3 SWAP4 POP SWAP1 SWAP2 PUSH4 0x23B872DD SWAP2 PUSH1 0x64 DUP1 DUP3 ADD SWAP3 PUSH1 0x20 SWAP3 SWAP1 SWAP2 SWAP1 DUP3 SWAP1 SUB ADD DUP2 PUSH1 0x0 DUP8 DUP1 EXTCODESIZE ISZERO DUP1 ISZERO PUSH2 0x2512 JUMPI PUSH1 0x0 DUP1 REVERT JUMPDEST POP GAS CALL ISZERO DUP1 ISZERO PUSH2 0x2526 JUMPI RETURNDATASIZE PUSH1 0x0 DUP1 RETURNDATACOPY RETURNDATASIZE PUSH1 0x0 REVERT JUMPDEST POP POP POP POP PUSH1 0x40 MLOAD RETURNDATASIZE PUSH1 0x20 DUP2 LT ISZERO PUSH2 0x253C JUMPI PUSH1 0x0 DUP1 REVERT JUMPDEST POP POP PUSH1 0x40 DUP1 MLOAD PUSH4 0x226BF2D1 PUSH1 0xE2 SHL DUP2 MSTORE PUSH1 0x1 PUSH1 0x1 PUSH1 0xA0 SHL SUB DUP9 DUP2 AND PUSH1 0x4 DUP4 ADD MSTORE DUP3 MLOAD PUSH1 0x0 SWAP4 DUP5 SWAP4 SWAP3 DUP7 AND SWAP3 PUSH4 0x89AFCB44 SWAP3 PUSH1 0x24 DUP1 DUP4 ADD SWAP4 SWAP3 DUP3 SWAP1 SUB ADD DUP2 DUP8 DUP8 DUP1 EXTCODESIZE ISZERO DUP1 ISZERO PUSH2 0x2589 JUMPI PUSH1 0x0 DUP1 REVERT JUMPDEST POP GAS CALL ISZERO DUP1 ISZERO PUSH2 0x259D JUMPI RETURNDATASIZE PUSH1 0x0 DUP1 RETURNDATACOPY RETURNDATASIZE PUSH1 0x0 REVERT JUMPDEST POP POP POP POP PUSH1 0x40 MLOAD RETURNDATASIZE PUSH1 0x40 DUP2 LT ISZERO PUSH2 0x25B3 JUMPI PUSH1 0x0 DUP1 REVERT JUMPDEST POP DUP1 MLOAD PUSH1 0x20 SWAP1 SWAP2 ADD MLOAD SWAP1 SWAP3 POP SWAP1 POP PUSH1 0x0 PUSH2 0x25CD DUP15 DUP15 PUSH2 0x4152 JUMP JUMPDEST POP SWAP1 POP DUP1 PUSH1 0x1 PUSH1 0x1 PUSH1 0xA0 SHL SUB AND DUP15 PUSH1 0x1 PUSH1 0x1 PUSH1 0xA0 SHL SUB AND EQ PUSH2 0x25F0 JUMPI DUP2 DUP4 PUSH2 0x25F3 JUMP JUMPDEST DUP3 DUP3 JUMPDEST SWAP1 SWAP8 POP SWAP6 POP DUP11 DUP8 LT ISZERO PUSH2 0x2637 JUMPI PUSH1 0x40 MLOAD PUSH3 0x461BCD PUSH1 0xE5 SHL DUP2 MSTORE PUSH1 0x4 ADD DUP1 DUP1 PUSH1 0x20 ADD DUP3 DUP2 SUB DUP3 MSTORE PUSH1 0x25 DUP2 MSTORE PUSH1 0x20 ADD DUP1 PUSH2 0x4566 PUSH1 0x25 SWAP2 CODECOPY PUSH1 0x40 ADD SWAP2 POP POP PUSH1 0x40 MLOAD DUP1 SWAP2 SUB SWAP1 REVERT JUMPDEST DUP10 DUP7 LT ISZERO PUSH2 0x2676 JUMPI PUSH1 0x40 MLOAD PUSH3 0x461BCD PUSH1 0xE5 SHL DUP2 MSTORE PUSH1 0x4 ADD DUP1 DUP1 PUSH1 0x20 ADD DUP3 DUP2 SUB DUP3 MSTORE PUSH1 0x25 DUP2 MSTORE PUSH1 0x20 ADD DUP1 PUSH2 0x43F9 PUSH1 0x25 SWAP2 CODECOPY PUSH1 0x40 ADD SWAP2 POP POP PUSH1 0x40 MLOAD DUP1 SWAP2 SUB SWAP1 REVERT JUMPDEST POP POP POP POP POP SWAP8 POP SWAP8 SWAP6 POP POP POP POP POP POP JUMP JUMPDEST PUSH1 0x0 DUP1 PUSH1 0x0 PUSH2 0x26D7 PUSH32 0x0 DUP15 PUSH32 0x0 PUSH2 0x3201 JUMP JUMPDEST SWAP1 POP PUSH1 0x0 DUP8 PUSH2 0x26E6 JUMPI DUP13 PUSH2 0x26EA JUMP JUMPDEST PUSH1 0x0 NOT JUMPDEST PUSH1 0x40 DUP1 MLOAD PUSH4 0xD505ACCF PUSH1 0xE0 SHL DUP2 MSTORE CALLER PUSH1 0x4 DUP3 ADD MSTORE ADDRESS PUSH1 0x24 DUP3 ADD MSTORE PUSH1 0x44 DUP2 ADD DUP4 SWAP1 MSTORE PUSH1 0x64 DUP2 ADD DUP13 SWAP1 MSTORE PUSH1 0xFF DUP11 AND PUSH1 0x84 DUP3 ADD MSTORE PUSH1 0xA4 DUP2 ADD DUP10 SWAP1 MSTORE PUSH1 0xC4 DUP2 ADD DUP9 SWAP1 MSTORE SWAP1 MLOAD SWAP2 SWAP3 POP PUSH1 0x1 PUSH1 0x1 PUSH1 0xA0 SHL SUB DUP5 AND SWAP2 PUSH4 0xD505ACCF SWAP2 PUSH1 0xE4 DUP1 DUP3 ADD SWAP3 PUSH1 0x0 SWAP3 SWAP1 SWAP2 SWAP1 DUP3 SWAP1 SUB ADD DUP2 DUP4 DUP8 DUP1 EXTCODESIZE ISZERO DUP1 ISZERO PUSH2 0x2760 JUMPI PUSH1 0x0 DUP1 REVERT JUMPDEST POP GAS CALL ISZERO DUP1 ISZERO PUSH2 0x2774 JUMPI RETURNDATASIZE PUSH1 0x0 DUP1 RETURNDATACOPY RETURNDATASIZE PUSH1 0x0 REVERT JUMPDEST POP POP POP POP PUSH2 0x2786 DUP15 DUP15 DUP15 DUP15 DUP15 DUP15 PUSH2 0x1214 JUMP JUMPDEST SWAP1 SWAP16 SWAP1 SWAP15 POP SWAP13 POP POP POP POP POP POP POP POP POP POP POP POP POP JUMP JUMPDEST PUSH32 0x0 DUP2 JUMP JUMPDEST PUSH1 0x60 DUP2 TIMESTAMP DUP2 LT ISZERO PUSH2 0x2805 JUMPI PUSH1 0x40 DUP1 MLOAD PUSH3 0x461BCD PUSH1 0xE5 SHL DUP2 MSTORE PUSH1 0x20 PUSH1 0x4 DUP3 ADD MSTORE PUSH1 0x17 PUSH1 0x24 DUP3 ADD MSTORE PUSH1 0x0 DUP1 MLOAD PUSH1 0x20 PUSH2 0x451F DUP4 CODECOPY DUP2 MLOAD SWAP2 MSTORE PUSH1 0x44 DUP3 ADD MSTORE SWAP1 MLOAD SWAP1 DUP2 SWAP1 SUB PUSH1 0x64 ADD SWAP1 REVERT JUMPDEST PUSH1 0x1 PUSH1 0x1 PUSH1 0xA0 SHL SUB PUSH32 0x0 AND DUP7 DUP7 PUSH1 0x0 NOT DUP2 ADD DUP2 DUP2 LT PUSH2 0x283F JUMPI INVALID JUMPDEST SWAP1 POP PUSH1 0x20 MUL ADD CALLDATALOAD PUSH1 0x1 PUSH1 0x1 PUSH1 0xA0 SHL SUB AND PUSH1 0x1 PUSH1 0x1 PUSH1 0xA0 SHL SUB AND EQ PUSH2 0x2898 JUMPI PUSH1 0x40 DUP1 MLOAD PUSH3 0x461BCD PUSH1 0xE5 SHL DUP2 MSTORE PUSH1 0x20 PUSH1 0x4 DUP3 ADD MSTORE PUSH1 0x1C PUSH1 0x24 DUP3 ADD MSTORE PUSH1 0x0 DUP1 MLOAD PUSH1 0x20 PUSH2 0x44D5 DUP4 CODECOPY DUP2 MLOAD SWAP2 MSTORE PUSH1 0x44 DUP3 ADD MSTORE SWAP1 MLOAD SWAP1 DUP2 SWAP1 SUB PUSH1 0x64 ADD SWAP1 REVERT JUMPDEST PUSH2 0x28F6 PUSH32 0x0 DUP10 DUP9 DUP9 DUP1 DUP1 PUSH1 0x20 MUL PUSH1 0x20 ADD PUSH1 0x40 MLOAD SWAP1 DUP2 ADD PUSH1 0x40 MSTORE DUP1 SWAP4 SWAP3 SWAP2 SWAP1 DUP2 DUP2 MSTORE PUSH1 0x20 ADD DUP4 DUP4 PUSH1 0x20 MUL DUP1 DUP3 DUP5 CALLDATACOPY PUSH1 0x0 SWAP3 ADD SWAP2 SWAP1 SWAP2 MSTORE POP PUSH2 0x3BBB SWAP3 POP POP POP JUMP JUMPDEST SWAP2 POP DUP7 DUP3 PUSH1 0x1 DUP5 MLOAD SUB DUP2 MLOAD DUP2 LT PUSH2 0x2909 JUMPI INVALID JUMPDEST PUSH1 0x20 MUL PUSH1 0x20 ADD ADD MLOAD LT ISZERO PUSH2 0xE38 JUMPI PUSH1 0x40 MLOAD PUSH3 0x461BCD PUSH1 0xE5 SHL DUP2 MSTORE PUSH1 0x4 ADD DUP1 DUP1 PUSH1 0x20 ADD DUP3 DUP2 SUB DUP3 MSTORE PUSH1 0x2A DUP2 MSTORE PUSH1 0x20 ADD DUP1 PUSH2 0x44AB PUSH1 0x2A SWAP2 CODECOPY PUSH1 0x40 ADD SWAP2 POP POP PUSH1 0x40 MLOAD DUP1 SWAP2 SUB SWAP1 REVERT JUMPDEST PUSH1 0x60 PUSH2 0x1003 PUSH32 0x0 DUP5 DUP5 PUSH2 0x3BBB JUMP JUMPDEST DUP1 TIMESTAMP DUP2 LT ISZERO PUSH2 0x29BF JUMPI PUSH1 0x40 DUP1 MLOAD PUSH3 0x461BCD PUSH1 0xE5 SHL DUP2 MSTORE PUSH1 0x20 PUSH1 0x4 DUP3 ADD MSTORE PUSH1 0x17 PUSH1 0x24 DUP3 ADD MSTORE PUSH1 0x0 DUP1 MLOAD PUSH1 0x20 PUSH2 0x451F DUP4 CODECOPY DUP2 MLOAD SWAP2 MSTORE PUSH1 0x44 DUP3 ADD MSTORE SWAP1 MLOAD SWAP1 DUP2 SWAP1 SUB PUSH1 0x64 ADD SWAP1 REVERT JUMPDEST PUSH32 0x0 PUSH1 0x1 PUSH1 0x1 PUSH1 0xA0 SHL SUB AND DUP6 DUP6 PUSH1 0x0 DUP2 DUP2 LT PUSH2 0x29F6 JUMPI INVALID JUMPDEST SWAP1 POP PUSH1 0x20 MUL ADD CALLDATALOAD PUSH1 0x1 PUSH1 0x1 PUSH1 0xA0 SHL SUB AND PUSH1 0x1 PUSH1 0x1 PUSH1 0xA0 SHL SUB AND EQ PUSH2 0x2A4F JUMPI PUSH1 0x40 DUP1 MLOAD PUSH3 0x461BCD PUSH1 0xE5 SHL DUP2 MSTORE PUSH1 0x20 PUSH1 0x4 DUP3 ADD MSTORE PUSH1 0x1C PUSH1 0x24 DUP3 ADD MSTORE PUSH1 0x0 DUP1 MLOAD PUSH1 0x20 PUSH2 0x44D5 DUP4 CODECOPY DUP2 MLOAD SWAP2 MSTORE PUSH1 0x44 DUP3 ADD MSTORE SWAP1 MLOAD SWAP1 DUP2 SWAP1 SUB PUSH1 0x64 ADD SWAP1 REVERT JUMPDEST PUSH1 0x0 CALLVALUE SWAP1 POP PUSH32 0x0 PUSH1 0x1 PUSH1 0x1 PUSH1 0xA0 SHL SUB AND PUSH4 0xD0E30DB0 DUP3 PUSH1 0x40 MLOAD DUP3 PUSH4 0xFFFFFFFF AND PUSH1 0xE0 SHL DUP2 MSTORE PUSH1 0x4 ADD PUSH1 0x0 PUSH1 0x40 MLOAD DUP1 DUP4 SUB DUP2 DUP6 DUP9 DUP1 EXTCODESIZE ISZERO DUP1 ISZERO PUSH2 0x2AAF JUMPI PUSH1 0x0 DUP1 REVERT JUMPDEST POP GAS CALL ISZERO DUP1 ISZERO PUSH2 0x2AC3 JUMPI RETURNDATASIZE PUSH1 0x0 DUP1 RETURNDATACOPY RETURNDATASIZE PUSH1 0x0 REVERT JUMPDEST POP POP POP POP POP PUSH32 0x0 PUSH1 0x1 PUSH1 0x1 PUSH1 0xA0 SHL SUB AND PUSH4 0xA9059CBB PUSH2 0x2B28 PUSH32 0x0 DUP10 DUP10 PUSH1 0x0 DUP2 DUP2 LT PUSH2 0x1457 JUMPI INVALID JUMPDEST DUP4 PUSH1 0x40 MLOAD DUP4 PUSH4 0xFFFFFFFF AND PUSH1 0xE0 SHL DUP2 MSTORE PUSH1 0x4 ADD DUP1 DUP4 PUSH1 0x1 PUSH1 0x1 PUSH1 0xA0 SHL SUB AND PUSH1 0x1 PUSH1 0x1 PUSH1 0xA0 SHL SUB AND DUP2 MSTORE PUSH1 0x20 ADD DUP3 DUP2 MSTORE PUSH1 0x20 ADD SWAP3 POP POP POP PUSH1 0x20 PUSH1 0x40 MLOAD DUP1 DUP4 SUB DUP2 PUSH1 0x0 DUP8 DUP1 EXTCODESIZE ISZERO DUP1 ISZERO PUSH2 0x2B78 JUMPI PUSH1 0x0 DUP1 REVERT JUMPDEST POP GAS CALL ISZERO DUP1 ISZERO PUSH2 0x2B8C JUMPI RETURNDATASIZE PUSH1 0x0 DUP1 RETURNDATACOPY RETURNDATASIZE PUSH1 0x0 REVERT JUMPDEST POP POP POP POP PUSH1 0x40 MLOAD RETURNDATASIZE PUSH1 0x20 DUP2 LT ISZERO PUSH2 0x2BA2 JUMPI PUSH1 0x0 DUP1 REVERT JUMPDEST POP MLOAD PUSH2 0x2BAA JUMPI INVALID JUMPDEST PUSH1 0x0 DUP7 DUP7 PUSH1 0x0 NOT DUP2 ADD DUP2 DUP2 LT PUSH2 0x2BBC JUMPI INVALID JUMPDEST SWAP1 POP PUSH1 0x20 MUL ADD CALLDATALOAD PUSH1 0x1 PUSH1 0x1 PUSH1 0xA0 SHL SUB AND PUSH1 0x1 PUSH1 0x1 PUSH1 0xA0 SHL SUB AND PUSH4 0x70A08231 DUP7 PUSH1 0x40 MLOAD DUP3 PUSH4 0xFFFFFFFF AND PUSH1 0xE0 SHL DUP2 MSTORE PUSH1 0x4 ADD DUP1 DUP3 PUSH1 0x1 PUSH1 0x1 PUSH1 0xA0 SHL SUB AND PUSH1 0x1 PUSH1 0x1 PUSH1 0xA0 SHL SUB AND DUP2 MSTORE PUSH1 0x20 ADD SWAP2 POP POP PUSH1 0x20 PUSH1 0x40 MLOAD DUP1 DUP4 SUB DUP2 DUP7 DUP1 EXTCODESIZE ISZERO DUP1 ISZERO PUSH2 0x2C21 JUMPI PUSH1 0x0 DUP1 REVERT JUMPDEST POP GAS STATICCALL ISZERO DUP1 ISZERO PUSH2 0x2C35 JUMPI RETURNDATASIZE PUSH1 0x0 DUP1 RETURNDATACOPY RETURNDATASIZE PUSH1 0x0 REVERT JUMPDEST POP POP POP POP PUSH1 0x40 MLOAD RETURNDATASIZE PUSH1 0x20 DUP2 LT ISZERO PUSH2 0x2C4B JUMPI PUSH1 0x0 DUP1 REVERT JUMPDEST POP MLOAD PUSH1 0x40 DUP1 MLOAD PUSH1 0x20 DUP10 DUP2 MUL DUP3 DUP2 ADD DUP3 ADD SWAP1 SWAP4 MSTORE DUP10 DUP3 MSTORE SWAP3 SWAP4 POP PUSH2 0x2C8D SWAP3 SWAP1 SWAP2 DUP11 SWAP2 DUP11 SWAP2 DUP3 SWAP2 DUP6 ADD SWAP1 DUP5 SWAP1 DUP1 DUP3 DUP5 CALLDATACOPY PUSH1 0x0 SWAP3 ADD SWAP2 SWAP1 SWAP2 MSTORE POP DUP10 SWAP3 POP PUSH2 0x38B0 SWAP2 POP POP JUMP JUMPDEST DUP8 PUSH2 0x1CA8 DUP3 DUP10 DUP10 PUSH1 0x0 NOT DUP2 ADD DUP2 DUP2 LT PUSH2 0x2CA2 JUMPI INVALID JUMPDEST SWAP1 POP PUSH1 0x20 MUL ADD CALLDATALOAD PUSH1 0x1 PUSH1 0x1 PUSH1 0xA0 SHL SUB AND PUSH1 0x1 PUSH1 0x1 PUSH1 0xA0 SHL SUB AND PUSH4 0x70A08231 DUP10 PUSH1 0x40 MLOAD DUP3 PUSH4 0xFFFFFFFF AND PUSH1 0xE0 SHL DUP2 MSTORE PUSH1 0x4 ADD DUP1 DUP3 PUSH1 0x1 PUSH1 0x1 PUSH1 0xA0 SHL SUB AND PUSH1 0x1 PUSH1 0x1 PUSH1 0xA0 SHL SUB AND DUP2 MSTORE PUSH1 0x20 ADD SWAP2 POP POP PUSH1 0x20 PUSH1 0x40 MLOAD DUP1 DUP4 SUB DUP2 DUP7 DUP1 EXTCODESIZE ISZERO DUP1 ISZERO PUSH2 0x1C70 JUMPI PUSH1 0x0 DUP1 REVERT JUMPDEST PUSH1 0x0 DUP1 PUSH1 0x0 DUP4 TIMESTAMP DUP2 LT ISZERO PUSH2 0x2D50 JUMPI PUSH1 0x40 DUP1 MLOAD PUSH3 0x461BCD PUSH1 0xE5 SHL DUP2 MSTORE PUSH1 0x20 PUSH1 0x4 DUP3 ADD MSTORE PUSH1 0x17 PUSH1 0x24 DUP3 ADD MSTORE PUSH1 0x0 DUP1 MLOAD PUSH1 0x20 PUSH2 0x451F DUP4 CODECOPY DUP2 MLOAD SWAP2 MSTORE PUSH1 0x44 DUP3 ADD MSTORE SWAP1 MLOAD SWAP1 DUP2 SWAP1 SUB PUSH1 0x64 ADD SWAP1 REVERT JUMPDEST PUSH2 0x2D5E DUP13 DUP13 DUP13 DUP13 DUP13 DUP13 PUSH2 0x3D42 JUMP JUMPDEST SWAP1 SWAP5 POP SWAP3 POP PUSH1 0x0 PUSH2 0x2D90 PUSH32 0x0 DUP15 DUP15 PUSH2 0x3201 JUMP JUMPDEST SWAP1 POP PUSH2 0x2D9E DUP14 CALLER DUP4 DUP9 PUSH2 0x32C1 JUMP JUMPDEST PUSH2 0x2DAA DUP13 CALLER DUP4 DUP8 PUSH2 0x32C1 JUMP JUMPDEST DUP1 PUSH1 0x1 PUSH1 0x1 PUSH1 0xA0 SHL SUB AND PUSH4 0x6A627842 DUP9 PUSH1 0x40 MLOAD DUP3 PUSH4 0xFFFFFFFF AND PUSH1 0xE0 SHL DUP2 MSTORE PUSH1 0x4 ADD DUP1 DUP3 PUSH1 0x1 PUSH1 0x1 PUSH1 0xA0 SHL SUB AND PUSH1 0x1 PUSH1 0x1 PUSH1 0xA0 SHL SUB AND DUP2 MSTORE PUSH1 0x20 ADD SWAP2 POP POP PUSH1 0x20 PUSH1 0x40 MLOAD DUP1 DUP4 SUB DUP2 PUSH1 0x0 DUP8 DUP1 EXTCODESIZE ISZERO DUP1 ISZERO PUSH2 0x2E02 JUMPI PUSH1 0x0 DUP1 REVERT JUMPDEST POP GAS CALL ISZERO DUP1 ISZERO PUSH2 0x2E16 JUMPI RETURNDATASIZE PUSH1 0x0 DUP1 RETURNDATACOPY RETURNDATASIZE PUSH1 0x0 REVERT JUMPDEST POP POP POP POP PUSH1 0x40 MLOAD RETURNDATASIZE PUSH1 0x20 DUP2 LT ISZERO PUSH2 0x2E2C JUMPI PUSH1 0x0 DUP1 REVERT JUMPDEST POP MLOAD SWAP5 SWAP14 SWAP4 SWAP13 POP SWAP4 SWAP11 POP SWAP2 SWAP9 POP POP POP POP POP POP POP POP POP JUMP JUMPDEST PUSH1 0x0 DUP2 TIMESTAMP DUP2 LT ISZERO PUSH2 0x2E89 JUMPI PUSH1 0x40 DUP1 MLOAD PUSH3 0x461BCD PUSH1 0xE5 SHL DUP2 MSTORE PUSH1 0x20 PUSH1 0x4 DUP3 ADD MSTORE PUSH1 0x17 PUSH1 0x24 DUP3 ADD MSTORE PUSH1 0x0 DUP1 MLOAD PUSH1 0x20 PUSH2 0x451F DUP4 CODECOPY DUP2 MLOAD SWAP2 MSTORE PUSH1 0x44 DUP3 ADD MSTORE SWAP1 MLOAD SWAP1 DUP2 SWAP1 SUB PUSH1 0x64 ADD SWAP1 REVERT JUMPDEST PUSH2 0x2EB8 DUP9 PUSH32 0x0 DUP10 DUP10 DUP10 ADDRESS DUP10 PUSH2 0x2443 JUMP JUMPDEST PUSH1 0x40 DUP1 MLOAD PUSH4 0x70A08231 PUSH1 0xE0 SHL DUP2 MSTORE ADDRESS PUSH1 0x4 DUP3 ADD MSTORE SWAP1 MLOAD SWAP2 SWAP5 POP PUSH2 0x2F3C SWAP3 POP DUP11 SWAP2 DUP8 SWAP2 PUSH1 0x1 PUSH1 0x1 PUSH1 0xA0 SHL SUB DUP5 AND SWAP2 PUSH4 0x70A08231 SWAP2 PUSH1 0x24 DUP1 DUP3 ADD SWAP3 PUSH1 0x20 SWAP3 SWAP1 SWAP2 SWAP1 DUP3 SWAP1 SUB ADD DUP2 DUP7 DUP1 EXTCODESIZE ISZERO DUP1 ISZERO PUSH2 0x2F0B JUMPI PUSH1 0x0 DUP1 REVERT JUMPDEST POP GAS STATICCALL ISZERO DUP1 ISZERO PUSH2 0x2F1F JUMPI RETURNDATASIZE PUSH1 0x0 DUP1 RETURNDATACOPY RETURNDATASIZE PUSH1 0x0 REVERT JUMPDEST POP POP POP POP PUSH1 0x40 MLOAD RETURNDATASIZE PUSH1 0x20 DUP2 LT ISZERO PUSH2 0x2F35 JUMPI PUSH1 0x0 DUP1 REVERT JUMPDEST POP MLOAD PUSH2 0x375C JUMP JUMPDEST PUSH32 0x0 PUSH1 0x1 PUSH1 0x1 PUSH1 0xA0 SHL SUB AND PUSH4 0x2E1A7D4D DUP4 PUSH1 0x40 MLOAD DUP3 PUSH4 0xFFFFFFFF AND PUSH1 0xE0 SHL DUP2 MSTORE PUSH1 0x4 ADD DUP1 DUP3 DUP2 MSTORE PUSH1 0x20 ADD SWAP2 POP POP PUSH1 0x0 PUSH1 0x40 MLOAD DUP1 DUP4 SUB DUP2 PUSH1 0x0 DUP8 DUP1 EXTCODESIZE ISZERO DUP1 ISZERO PUSH2 0x2FA2 JUMPI PUSH1 0x0 DUP1 REVERT JUMPDEST POP GAS CALL ISZERO DUP1 ISZERO PUSH2 0x2FB6 JUMPI RETURNDATASIZE PUSH1 0x0 DUP1 RETURNDATACOPY RETURNDATASIZE PUSH1 0x0 REVERT JUMPDEST POP POP POP POP PUSH2 0xFCB DUP5 DUP4 PUSH2 0x3664 JUMP JUMPDEST PUSH1 0x0 DUP1 DUP5 GT PUSH2 0x3004 JUMPI PUSH1 0x40 MLOAD PUSH3 0x461BCD PUSH1 0xE5 SHL DUP2 MSTORE PUSH1 0x4 ADD DUP1 DUP1 PUSH1 0x20 ADD DUP3 DUP2 SUB DUP3 MSTORE PUSH1 0x2A DUP2 MSTORE PUSH1 0x20 ADD DUP1 PUSH2 0x44F5 PUSH1 0x2A SWAP2 CODECOPY PUSH1 0x40 ADD SWAP2 POP POP PUSH1 0x40 MLOAD DUP1 SWAP2 SUB SWAP1 REVERT JUMPDEST PUSH1 0x0 DUP4 GT DUP1 ISZERO PUSH2 0x3014 JUMPI POP PUSH1 0x0 DUP3 GT JUMPDEST PUSH2 0x304F JUMPI PUSH1 0x40 MLOAD PUSH3 0x461BCD PUSH1 0xE5 SHL DUP2 MSTORE PUSH1 0x4 ADD DUP1 DUP1 PUSH1 0x20 ADD DUP3 DUP2 SUB DUP3 MSTORE PUSH1 0x27 DUP2 MSTORE PUSH1 0x20 ADD DUP1 PUSH2 0x453F PUSH1 0x27 SWAP2 CODECOPY PUSH1 0x40 ADD SWAP2 POP POP PUSH1 0x40 MLOAD DUP1 SWAP2 SUB SWAP1 REVERT JUMPDEST PUSH1 0x0 PUSH2 0x3063 DUP6 PUSH2 0x3E5 PUSH4 0xFFFFFFFF PUSH2 0x4230 AND JUMP JUMPDEST SWAP1 POP PUSH1 0x0 PUSH2 0x3077 DUP3 DUP6 PUSH4 0xFFFFFFFF PUSH2 0x4230 AND JUMP JUMPDEST SWAP1 POP PUSH1 0x0 PUSH2 0x309D DUP4 PUSH2 0x3091 DUP9 PUSH2 0x3E8 PUSH4 0xFFFFFFFF PUSH2 0x4230 AND JUMP JUMPDEST SWAP1 PUSH4 0xFFFFFFFF PUSH2 0x4293 AND JUMP JUMPDEST SWAP1 POP DUP1 DUP3 DUP2 PUSH2 0x30A8 JUMPI INVALID JUMPDEST DIV SWAP8 SWAP7 POP POP POP POP POP POP POP JUMP JUMPDEST PUSH1 0x60 PUSH1 0x2 DUP3 MLOAD LT ISZERO PUSH2 0x310D JUMPI PUSH1 0x40 DUP1 MLOAD PUSH3 0x461BCD PUSH1 0xE5 SHL DUP2 MSTORE PUSH1 0x20 PUSH1 0x4 DUP3 ADD MSTORE PUSH1 0x1D PUSH1 0x24 DUP3 ADD MSTORE PUSH32 0x52616D7A537761704C6962726172793A20494E56414C49445F50415448000000 PUSH1 0x44 DUP3 ADD MSTORE SWAP1 MLOAD SWAP1 DUP2 SWAP1 SUB PUSH1 0x64 ADD SWAP1 REVERT JUMPDEST DUP2 MLOAD PUSH8 0xFFFFFFFFFFFFFFFF DUP2 GT DUP1 ISZERO PUSH2 0x3125 JUMPI PUSH1 0x0 DUP1 REVERT JUMPDEST POP PUSH1 0x40 MLOAD SWAP1 DUP1 DUP3 MSTORE DUP1 PUSH1 0x20 MUL PUSH1 0x20 ADD DUP3 ADD PUSH1 0x40 MSTORE DUP1 ISZERO PUSH2 0x314F JUMPI DUP2 PUSH1 0x20 ADD PUSH1 0x20 DUP3 MUL DUP1 CALLDATASIZE DUP4 CALLDATACOPY ADD SWAP1 POP JUMPDEST POP SWAP1 POP DUP3 DUP2 PUSH1 0x1 DUP4 MLOAD SUB DUP2 MLOAD DUP2 LT PUSH2 0x3163 JUMPI INVALID JUMPDEST PUSH1 0x20 SWAP1 DUP2 MUL SWAP2 SWAP1 SWAP2 ADD ADD MSTORE DUP2 MLOAD PUSH1 0x0 NOT ADD JUMPDEST DUP1 ISZERO PUSH2 0x31F9 JUMPI PUSH1 0x0 DUP1 PUSH2 0x31B2 DUP8 DUP7 PUSH1 0x1 DUP7 SUB DUP2 MLOAD DUP2 LT PUSH2 0x3191 JUMPI INVALID JUMPDEST PUSH1 0x20 MUL PUSH1 0x20 ADD ADD MLOAD DUP8 DUP7 DUP2 MLOAD DUP2 LT PUSH2 0x31A5 JUMPI INVALID JUMPDEST PUSH1 0x20 MUL PUSH1 0x20 ADD ADD MLOAD PUSH2 0x42E2 JUMP JUMPDEST SWAP2 POP SWAP2 POP PUSH2 0x31D4 DUP5 DUP5 DUP2 MLOAD DUP2 LT PUSH2 0x31C5 JUMPI INVALID JUMPDEST PUSH1 0x20 MUL PUSH1 0x20 ADD ADD MLOAD DUP4 DUP4 PUSH2 0x3FB6 JUMP JUMPDEST DUP5 PUSH1 0x1 DUP6 SUB DUP2 MLOAD DUP2 LT PUSH2 0x31E3 JUMPI INVALID JUMPDEST PUSH1 0x20 SWAP1 DUP2 MUL SWAP2 SWAP1 SWAP2 ADD ADD MSTORE POP POP PUSH1 0x0 NOT ADD PUSH2 0x3175 JUMP JUMPDEST POP SWAP4 SWAP3 POP POP POP JUMP JUMPDEST PUSH1 0x0 DUP1 PUSH1 0x0 PUSH2 0x3210 DUP6 DUP6 PUSH2 0x4152 JUMP JUMPDEST PUSH1 0x40 DUP1 MLOAD PUSH12 0xFFFFFFFFFFFFFFFFFFFFFFFF NOT PUSH1 0x60 SWAP5 DUP6 SHL DUP2 AND PUSH1 0x20 DUP1 DUP5 ADD SWAP2 SWAP1 SWAP2 MSTORE SWAP4 DUP6 SHL DUP2 AND PUSH1 0x34 DUP4 ADD MSTORE DUP3 MLOAD PUSH1 0x28 DUP2 DUP5 SUB ADD DUP2 MSTORE PUSH1 0x48 DUP4 ADD DUP5 MSTORE DUP1 MLOAD SWAP1 DUP6 ADD KECCAK256 PUSH1 0x1 PUSH1 0x1 PUSH1 0xF8 SHL SUB NOT PUSH1 0x68 DUP5 ADD MSTORE SWAP11 SWAP1 SWAP5 SHL SWAP1 SWAP4 AND PUSH1 0x69 DUP5 ADD MSTORE PUSH1 0x7D DUP4 ADD SWAP9 SWAP1 SWAP9 MSTORE PUSH32 0x2C8834D5B43C053F2F3B100C32A41E6F5DB856ACC6661DC09582CB2CD4D7608E PUSH1 0x9D DUP1 DUP5 ADD SWAP2 SWAP1 SWAP2 MSTORE DUP9 MLOAD DUP1 DUP5 SUB SWAP1 SWAP2 ADD DUP2 MSTORE PUSH1 0xBD SWAP1 SWAP3 ADD SWAP1 SWAP8 MSTORE DUP1 MLOAD SWAP7 ADD SWAP6 SWAP1 SWAP6 KECCAK256 SWAP6 SWAP5 POP POP POP POP POP JUMP JUMPDEST PUSH1 0x40 DUP1 MLOAD PUSH1 0x1 PUSH1 0x1 PUSH1 0xA0 SHL SUB DUP6 DUP2 AND PUSH1 0x24 DUP4 ADD MSTORE DUP5 DUP2 AND PUSH1 0x44 DUP4 ADD MSTORE PUSH1 0x64 DUP1 DUP4 ADD DUP6 SWAP1 MSTORE DUP4 MLOAD DUP1 DUP5 SUB SWAP1 SWAP2 ADD DUP2 MSTORE PUSH1 0x84 SWAP1 SWAP3 ADD DUP4 MSTORE PUSH1 0x20 DUP3 ADD DUP1 MLOAD PUSH1 0x1 PUSH1 0x1 PUSH1 0xE0 SHL SUB AND PUSH4 0x23B872DD PUSH1 0xE0 SHL OR DUP2 MSTORE SWAP3 MLOAD DUP3 MLOAD PUSH1 0x0 SWAP5 PUSH1 0x60 SWAP5 SWAP4 DUP11 AND SWAP4 SWAP3 SWAP2 DUP3 SWAP2 SWAP1 DUP1 DUP4 DUP4 JUMPDEST PUSH1 0x20 DUP4 LT PUSH2 0x3346 JUMPI DUP1 MLOAD DUP3 MSTORE PUSH1 0x1F NOT SWAP1 SWAP3 ADD SWAP2 PUSH1 0x20 SWAP2 DUP3 ADD SWAP2 ADD PUSH2 0x3327 JUMP JUMPDEST PUSH1 0x1 DUP4 PUSH1 0x20 SUB PUSH2 0x100 EXP SUB DUP1 NOT DUP3 MLOAD AND DUP2 DUP5 MLOAD AND DUP1 DUP3 OR DUP6 MSTORE POP POP POP POP POP POP SWAP1 POP ADD SWAP2 POP POP PUSH1 0x0 PUSH1 0x40 MLOAD DUP1 DUP4 SUB DUP2 PUSH1 0x0 DUP7 GAS CALL SWAP2 POP POP RETURNDATASIZE DUP1 PUSH1 0x0 DUP2 EQ PUSH2 0x33A8 JUMPI PUSH1 0x40 MLOAD SWAP2 POP PUSH1 0x1F NOT PUSH1 0x3F RETURNDATASIZE ADD AND DUP3 ADD PUSH1 0x40 MSTORE RETURNDATASIZE DUP3 MSTORE RETURNDATASIZE PUSH1 0x0 PUSH1 0x20 DUP5 ADD RETURNDATACOPY PUSH2 0x33AD JUMP JUMPDEST PUSH1 0x60 SWAP2 POP JUMPDEST POP SWAP2 POP SWAP2 POP DUP2 DUP1 ISZERO PUSH2 0x33DB JUMPI POP DUP1 MLOAD ISZERO DUP1 PUSH2 0x33DB JUMPI POP DUP1 DUP1 PUSH1 0x20 ADD SWAP1 MLOAD PUSH1 0x20 DUP2 LT ISZERO PUSH2 0x33D8 JUMPI PUSH1 0x0 DUP1 REVERT JUMPDEST POP MLOAD JUMPDEST PUSH2 0x3416 JUMPI PUSH1 0x40 MLOAD PUSH3 0x461BCD PUSH1 0xE5 SHL DUP2 MSTORE PUSH1 0x4 ADD DUP1 DUP1 PUSH1 0x20 ADD DUP3 DUP2 SUB DUP3 MSTORE PUSH1 0x31 DUP2 MSTORE PUSH1 0x20 ADD DUP1 PUSH2 0x441E PUSH1 0x31 SWAP2 CODECOPY PUSH1 0x40 ADD SWAP2 POP POP PUSH1 0x40 MLOAD DUP1 SWAP2 SUB SWAP1 REVERT JUMPDEST POP POP POP POP POP POP JUMP JUMPDEST PUSH1 0x0 JUMPDEST PUSH1 0x1 DUP4 MLOAD SUB DUP2 LT ISZERO PUSH2 0x365E JUMPI PUSH1 0x0 DUP1 DUP5 DUP4 DUP2 MLOAD DUP2 LT PUSH2 0x343C JUMPI INVALID JUMPDEST PUSH1 0x20 MUL PUSH1 0x20 ADD ADD MLOAD DUP6 DUP5 PUSH1 0x1 ADD DUP2 MLOAD DUP2 LT PUSH2 0x3453 JUMPI INVALID JUMPDEST PUSH1 0x20 MUL PUSH1 0x20 ADD ADD MLOAD SWAP2 POP SWAP2 POP PUSH1 0x0 PUSH2 0x346B DUP4 DUP4 PUSH2 0x4152 JUMP JUMPDEST POP SWAP1 POP PUSH1 0x0 DUP8 DUP6 PUSH1 0x1 ADD DUP2 MLOAD DUP2 LT PUSH2 0x347F JUMPI INVALID JUMPDEST PUSH1 0x20 MUL PUSH1 0x20 ADD ADD MLOAD SWAP1 POP PUSH1 0x0 DUP1 DUP4 PUSH1 0x1 PUSH1 0x1 PUSH1 0xA0 SHL SUB AND DUP7 PUSH1 0x1 PUSH1 0x1 PUSH1 0xA0 SHL SUB AND EQ PUSH2 0x34AD JUMPI DUP3 PUSH1 0x0 PUSH2 0x34B1 JUMP JUMPDEST PUSH1 0x0 DUP4 JUMPDEST SWAP2 POP SWAP2 POP PUSH1 0x0 PUSH1 0x2 DUP11 MLOAD SUB DUP9 LT PUSH2 0x34C8 JUMPI DUP9 PUSH2 0x3509 JUMP JUMPDEST PUSH2 0x3509 PUSH32 0x0 DUP8 DUP13 DUP12 PUSH1 0x2 ADD DUP2 MLOAD DUP2 LT PUSH2 0x34FC JUMPI INVALID JUMPDEST PUSH1 0x20 MUL PUSH1 0x20 ADD ADD MLOAD PUSH2 0x3201 JUMP JUMPDEST SWAP1 POP PUSH2 0x3536 PUSH32 0x0 DUP9 DUP9 PUSH2 0x3201 JUMP JUMPDEST PUSH1 0x1 PUSH1 0x1 PUSH1 0xA0 SHL SUB AND PUSH4 0x22C0D9F DUP5 DUP5 DUP5 PUSH1 0x0 PUSH1 0x40 MLOAD SWAP1 DUP1 DUP3 MSTORE DUP1 PUSH1 0x1F ADD PUSH1 0x1F NOT AND PUSH1 0x20 ADD DUP3 ADD PUSH1 0x40 MSTORE DUP1 ISZERO PUSH2 0x3573 JUMPI PUSH1 0x20 DUP3 ADD DUP2 DUP1 CALLDATASIZE DUP4 CALLDATACOPY ADD SWAP1 POP JUMPDEST POP PUSH1 0x40 MLOAD DUP6 PUSH4 0xFFFFFFFF AND PUSH1 0xE0 SHL DUP2 MSTORE PUSH1 0x4 ADD DUP1 DUP6 DUP2 MSTORE PUSH1 0x20 ADD DUP5 DUP2 MSTORE PUSH1 0x20 ADD DUP4 PUSH1 0x1 PUSH1 0x1 PUSH1 0xA0 SHL SUB AND PUSH1 0x1 PUSH1 0x1 PUSH1 0xA0 SHL SUB AND DUP2 MSTORE PUSH1 0x20 ADD DUP1 PUSH1 0x20 ADD DUP3 DUP2 SUB DUP3 MSTORE DUP4 DUP2 DUP2 MLOAD DUP2 MSTORE PUSH1 0x20 ADD SWAP2 POP DUP1 MLOAD SWAP1 PUSH1 0x20 ADD SWAP1 DUP1 DUP4 DUP4 PUSH1 0x0 JUMPDEST DUP4 DUP2 LT ISZERO PUSH2 0x35E4 JUMPI DUP2 DUP2 ADD MLOAD DUP4 DUP3 ADD MSTORE PUSH1 0x20 ADD PUSH2 0x35CC JUMP JUMPDEST POP POP POP POP SWAP1 POP SWAP1 DUP2 ADD SWAP1 PUSH1 0x1F AND DUP1 ISZERO PUSH2 0x3611 JUMPI DUP1 DUP3 SUB DUP1 MLOAD PUSH1 0x1 DUP4 PUSH1 0x20 SUB PUSH2 0x100 EXP SUB NOT AND DUP2 MSTORE PUSH1 0x20 ADD SWAP2 POP JUMPDEST POP SWAP6 POP POP POP POP POP POP PUSH1 0x0 PUSH1 0x40 MLOAD DUP1 DUP4 SUB DUP2 PUSH1 0x0 DUP8 DUP1 EXTCODESIZE ISZERO DUP1 ISZERO PUSH2 0x3633 JUMPI PUSH1 0x0 DUP1 REVERT JUMPDEST POP GAS CALL ISZERO DUP1 ISZERO PUSH2 0x3647 JUMPI RETURNDATASIZE PUSH1 0x0 DUP1 RETURNDATACOPY RETURNDATASIZE PUSH1 0x0 REVERT JUMPDEST POP POP PUSH1 0x1 SWAP1 SWAP10 ADD SWAP9 POP PUSH2 0x3421 SWAP8 POP POP POP POP POP POP POP POP JUMP JUMPDEST POP POP POP POP JUMP JUMPDEST PUSH1 0x40 DUP1 MLOAD PUSH1 0x0 DUP1 DUP3 MSTORE PUSH1 0x20 DUP3 ADD SWAP1 SWAP3 MSTORE PUSH1 0x1 PUSH1 0x1 PUSH1 0xA0 SHL SUB DUP5 AND SWAP1 DUP4 SWAP1 PUSH1 0x40 MLOAD DUP1 DUP3 DUP1 MLOAD SWAP1 PUSH1 0x20 ADD SWAP1 DUP1 DUP4 DUP4 JUMPDEST PUSH1 0x20 DUP4 LT PUSH2 0x36B0 JUMPI DUP1 MLOAD DUP3 MSTORE PUSH1 0x1F NOT SWAP1 SWAP3 ADD SWAP2 PUSH1 0x20 SWAP2 DUP3 ADD SWAP2 ADD PUSH2 0x3691 JUMP JUMPDEST PUSH1 0x1 DUP4 PUSH1 0x20 SUB PUSH2 0x100 EXP SUB DUP1 NOT DUP3 MLOAD AND DUP2 DUP5 MLOAD AND DUP1 DUP3 OR DUP6 MSTORE POP POP POP POP POP POP SWAP1 POP ADD SWAP2 POP POP PUSH1 0x0 PUSH1 0x40 MLOAD DUP1 DUP4 SUB DUP2 DUP6 DUP8 GAS CALL SWAP3 POP POP POP RETURNDATASIZE DUP1 PUSH1 0x0 DUP2 EQ PUSH2 0x3712 JUMPI PUSH1 0x40 MLOAD SWAP2 POP PUSH1 0x1F NOT PUSH1 0x3F RETURNDATASIZE ADD AND DUP3 ADD PUSH1 0x40 MSTORE RETURNDATASIZE DUP3 MSTORE RETURNDATASIZE PUSH1 0x0 PUSH1 0x20 DUP5 ADD RETURNDATACOPY PUSH2 0x3717 JUMP JUMPDEST PUSH1 0x60 SWAP2 POP JUMPDEST POP POP SWAP1 POP DUP1 PUSH2 0x3757 JUMPI PUSH1 0x40 MLOAD PUSH3 0x461BCD PUSH1 0xE5 SHL DUP2 MSTORE PUSH1 0x4 ADD DUP1 DUP1 PUSH1 0x20 ADD DUP3 DUP2 SUB DUP3 MSTORE PUSH1 0x36 DUP2 MSTORE PUSH1 0x20 ADD DUP1 PUSH2 0x4475 PUSH1 0x36 SWAP2 CODECOPY PUSH1 0x40 ADD SWAP2 POP POP PUSH1 0x40 MLOAD DUP1 SWAP2 SUB SWAP1 REVERT JUMPDEST POP POP POP JUMP JUMPDEST PUSH1 0x40 DUP1 MLOAD PUSH1 0x1 PUSH1 0x1 PUSH1 0xA0 SHL SUB DUP5 DUP2 AND PUSH1 0x24 DUP4 ADD MSTORE PUSH1 0x44 DUP1 DUP4 ADD DUP6 SWAP1 MSTORE DUP4 MLOAD DUP1 DUP5 SUB SWAP1 SWAP2 ADD DUP2 MSTORE PUSH1 0x64 SWAP1 SWAP3 ADD DUP4 MSTORE PUSH1 0x20 DUP3 ADD DUP1 MLOAD PUSH1 0x1 PUSH1 0x1 PUSH1 0xE0 SHL SUB AND PUSH4 0xA9059CBB PUSH1 0xE0 SHL OR DUP2 MSTORE SWAP3 MLOAD DUP3 MLOAD PUSH1 0x0 SWAP5 PUSH1 0x60 SWAP5 SWAP4 DUP10 AND SWAP4 SWAP3 SWAP2 DUP3 SWAP2 SWAP1 DUP1 DUP4 DUP4 JUMPDEST PUSH1 0x20 DUP4 LT PUSH2 0x37D9 JUMPI DUP1 MLOAD DUP3 MSTORE PUSH1 0x1F NOT SWAP1 SWAP3 ADD SWAP2 PUSH1 0x20 SWAP2 DUP3 ADD SWAP2 ADD PUSH2 0x37BA JUMP JUMPDEST PUSH1 0x1 DUP4 PUSH1 0x20 SUB PUSH2 0x100 EXP SUB DUP1 NOT DUP3 MLOAD AND DUP2 DUP5 MLOAD AND DUP1 DUP3 OR DUP6 MSTORE POP POP POP POP POP POP SWAP1 POP ADD SWAP2 POP POP PUSH1 0x0 PUSH1 0x40 MLOAD DUP1 DUP4 SUB DUP2 PUSH1 0x0 DUP7 GAS CALL SWAP2 POP POP RETURNDATASIZE DUP1 PUSH1 0x0 DUP2 EQ PUSH2 0x383B JUMPI PUSH1 0x40 MLOAD SWAP2 POP PUSH1 0x1F NOT PUSH1 0x3F RETURNDATASIZE ADD AND DUP3 ADD PUSH1 0x40 MSTORE RETURNDATASIZE DUP3 MSTORE RETURNDATASIZE PUSH1 0x0 PUSH1 0x20 DUP5 ADD RETURNDATACOPY PUSH2 0x3840 JUMP JUMPDEST PUSH1 0x60 SWAP2 POP JUMPDEST POP SWAP2 POP SWAP2 POP DUP2 DUP1 ISZERO PUSH2 0x386E JUMPI POP DUP1 MLOAD ISZERO DUP1 PUSH2 0x386E JUMPI POP DUP1 DUP1 PUSH1 0x20 ADD SWAP1 MLOAD PUSH1 0x20 DUP2 LT ISZERO PUSH2 0x386B JUMPI PUSH1 0x0 DUP1 REVERT JUMPDEST POP MLOAD JUMPDEST PUSH2 0x38A9 JUMPI PUSH1 0x40 MLOAD PUSH3 0x461BCD PUSH1 0xE5 SHL DUP2 MSTORE PUSH1 0x4 ADD DUP1 DUP1 PUSH1 0x20 ADD DUP3 DUP2 SUB DUP3 MSTORE PUSH1 0x2D DUP2 MSTORE PUSH1 0x20 ADD DUP1 PUSH2 0x45AF PUSH1 0x2D SWAP2 CODECOPY PUSH1 0x40 ADD SWAP2 POP POP PUSH1 0x40 MLOAD DUP1 SWAP2 SUB SWAP1 REVERT JUMPDEST POP POP POP POP POP JUMP JUMPDEST PUSH1 0x0 JUMPDEST PUSH1 0x1 DUP4 MLOAD SUB DUP2 LT ISZERO PUSH2 0x3757 JUMPI PUSH1 0x0 DUP1 DUP5 DUP4 DUP2 MLOAD DUP2 LT PUSH2 0x38CE JUMPI INVALID JUMPDEST PUSH1 0x20 MUL PUSH1 0x20 ADD ADD MLOAD DUP6 DUP5 PUSH1 0x1 ADD DUP2 MLOAD DUP2 LT PUSH2 0x38E5 JUMPI INVALID JUMPDEST PUSH1 0x20 MUL PUSH1 0x20 ADD ADD MLOAD SWAP2 POP SWAP2 POP PUSH1 0x0 PUSH2 0x38FD DUP4 DUP4 PUSH2 0x4152 JUMP JUMPDEST POP SWAP1 POP PUSH1 0x0 PUSH2 0x392D PUSH32 0x0 DUP6 DUP6 PUSH2 0x3201 JUMP JUMPDEST SWAP1 POP PUSH1 0x0 DUP1 PUSH1 0x0 DUP1 DUP5 PUSH1 0x1 PUSH1 0x1 PUSH1 0xA0 SHL SUB AND PUSH4 0x902F1AC PUSH1 0x40 MLOAD DUP2 PUSH4 0xFFFFFFFF AND PUSH1 0xE0 SHL DUP2 MSTORE PUSH1 0x4 ADD PUSH1 0x60 PUSH1 0x40 MLOAD DUP1 DUP4 SUB DUP2 DUP7 DUP1 EXTCODESIZE ISZERO DUP1 ISZERO PUSH2 0x396E JUMPI PUSH1 0x0 DUP1 REVERT JUMPDEST POP GAS STATICCALL ISZERO DUP1 ISZERO PUSH2 0x3982 JUMPI RETURNDATASIZE PUSH1 0x0 DUP1 RETURNDATACOPY RETURNDATASIZE PUSH1 0x0 REVERT JUMPDEST POP POP POP POP PUSH1 0x40 MLOAD RETURNDATASIZE PUSH1 0x60 DUP2 LT ISZERO PUSH2 0x3998 JUMPI PUSH1 0x0 DUP1 REVERT JUMPDEST POP DUP1 MLOAD PUSH1 0x20 SWAP1 SWAP2 ADD MLOAD PUSH1 0x1 PUSH1 0x1 PUSH1 0x70 SHL SUB SWAP2 DUP3 AND SWAP4 POP AND SWAP1 POP PUSH1 0x0 DUP1 PUSH1 0x1 PUSH1 0x1 PUSH1 0xA0 SHL SUB DUP11 DUP2 AND SWAP1 DUP10 AND EQ PUSH2 0x39CE JUMPI DUP3 DUP5 PUSH2 0x39D1 JUMP JUMPDEST DUP4 DUP4 JUMPDEST SWAP2 POP SWAP2 POP PUSH2 0x3A2F DUP3 DUP12 PUSH1 0x1 PUSH1 0x1 PUSH1 0xA0 SHL SUB AND PUSH4 0x70A08231 DUP11 PUSH1 0x40 MLOAD DUP3 PUSH4 0xFFFFFFFF AND PUSH1 0xE0 SHL DUP2 MSTORE PUSH1 0x4 ADD DUP1 DUP3 PUSH1 0x1 PUSH1 0x1 PUSH1 0xA0 SHL SUB AND PUSH1 0x1 PUSH1 0x1 PUSH1 0xA0 SHL SUB AND DUP2 MSTORE PUSH1 0x20 ADD SWAP2 POP POP PUSH1 0x20 PUSH1 0x40 MLOAD DUP1 DUP4 SUB DUP2 DUP7 DUP1 EXTCODESIZE ISZERO DUP1 ISZERO PUSH2 0x1C70 JUMPI PUSH1 0x0 DUP1 REVERT JUMPDEST SWAP6 POP PUSH2 0x3A3C DUP7 DUP4 DUP4 PUSH2 0x2FC4 JUMP JUMPDEST SWAP5 POP POP POP POP POP PUSH1 0x0 DUP1 DUP6 PUSH1 0x1 PUSH1 0x1 PUSH1 0xA0 SHL SUB AND DUP9 PUSH1 0x1 PUSH1 0x1 PUSH1 0xA0 SHL SUB AND EQ PUSH2 0x3A66 JUMPI DUP3 PUSH1 0x0 PUSH2 0x3A6A JUMP JUMPDEST PUSH1 0x0 DUP4 JUMPDEST SWAP2 POP SWAP2 POP PUSH1 0x0 PUSH1 0x2 DUP13 MLOAD SUB DUP11 LT PUSH2 0x3A81 JUMPI DUP11 PUSH2 0x3AB5 JUMP JUMPDEST PUSH2 0x3AB5 PUSH32 0x0 DUP10 DUP15 DUP14 PUSH1 0x2 ADD DUP2 MLOAD DUP2 LT PUSH2 0x34FC JUMPI INVALID JUMPDEST PUSH1 0x40 DUP1 MLOAD PUSH1 0x0 DUP1 DUP3 MSTORE PUSH1 0x20 DUP3 ADD SWAP3 DUP4 SWAP1 MSTORE PUSH4 0x22C0D9F PUSH1 0xE0 SHL DUP4 MSTORE PUSH1 0x24 DUP3 ADD DUP8 DUP2 MSTORE PUSH1 0x44 DUP4 ADD DUP8 SWAP1 MSTORE PUSH1 0x1 PUSH1 0x1 PUSH1 0xA0 SHL SUB DUP1 DUP7 AND PUSH1 0x64 DUP6 ADD MSTORE PUSH1 0x80 PUSH1 0x84 DUP6 ADD SWAP1 DUP2 MSTORE DUP5 MLOAD PUSH1 0xA4 DUP7 ADD DUP2 SWAP1 MSTORE SWAP7 SWAP8 POP SWAP1 DUP13 AND SWAP6 PUSH4 0x22C0D9F SWAP6 DUP11 SWAP6 DUP11 SWAP6 DUP11 SWAP6 SWAP2 SWAP5 SWAP2 SWAP4 SWAP2 SWAP3 PUSH1 0xC4 DUP7 ADD SWAP3 SWAP1 SWAP2 DUP2 SWAP1 DUP5 SWAP1 DUP5 SWAP1 JUMPDEST DUP4 DUP2 LT ISZERO PUSH2 0x3B3F JUMPI DUP2 DUP2 ADD MLOAD DUP4 DUP3 ADD MSTORE PUSH1 0x20 ADD PUSH2 0x3B27 JUMP JUMPDEST POP POP POP POP SWAP1 POP SWAP1 DUP2 ADD SWAP1 PUSH1 0x1F AND DUP1 ISZERO PUSH2 0x3B6C JUMPI DUP1 DUP3 SUB DUP1 MLOAD PUSH1 0x1 DUP4 PUSH1 0x20 SUB PUSH2 0x100 EXP SUB NOT AND DUP2 MSTORE PUSH1 0x20 ADD SWAP2 POP JUMPDEST POP SWAP6 POP POP POP POP POP POP PUSH1 0x0 PUSH1 0x40 MLOAD DUP1 DUP4 SUB DUP2 PUSH1 0x0 DUP8 DUP1 EXTCODESIZE ISZERO DUP1 ISZERO PUSH2 0x3B8E JUMPI PUSH1 0x0 DUP1 REVERT JUMPDEST POP GAS CALL ISZERO DUP1 ISZERO PUSH2 0x3BA2 JUMPI RETURNDATASIZE PUSH1 0x0 DUP1 RETURNDATACOPY RETURNDATASIZE PUSH1 0x0 REVERT JUMPDEST POP POP PUSH1 0x1 SWAP1 SWAP12 ADD SWAP11 POP PUSH2 0x38B3 SWAP10 POP POP POP POP POP POP POP POP POP POP JUMP JUMPDEST PUSH1 0x60 PUSH1 0x2 DUP3 MLOAD LT ISZERO PUSH2 0x3C14 JUMPI PUSH1 0x40 DUP1 MLOAD PUSH3 0x461BCD PUSH1 0xE5 SHL DUP2 MSTORE PUSH1 0x20 PUSH1 0x4 DUP3 ADD MSTORE PUSH1 0x1D PUSH1 0x24 DUP3 ADD MSTORE PUSH32 0x52616D7A537761704C6962726172793A20494E56414C49445F50415448000000 PUSH1 0x44 DUP3 ADD MSTORE SWAP1 MLOAD SWAP1 DUP2 SWAP1 SUB PUSH1 0x64 ADD SWAP1 REVERT JUMPDEST DUP2 MLOAD PUSH8 0xFFFFFFFFFFFFFFFF DUP2 GT DUP1 ISZERO PUSH2 0x3C2C JUMPI PUSH1 0x0 DUP1 REVERT JUMPDEST POP PUSH1 0x40 MLOAD SWAP1 DUP1 DUP3 MSTORE DUP1 PUSH1 0x20 MUL PUSH1 0x20 ADD DUP3 ADD PUSH1 0x40 MSTORE DUP1 ISZERO PUSH2 0x3C56 JUMPI DUP2 PUSH1 0x20 ADD PUSH1 0x20 DUP3 MUL DUP1 CALLDATASIZE DUP4 CALLDATACOPY ADD SWAP1 POP JUMPDEST POP SWAP1 POP DUP3 DUP2 PUSH1 0x0 DUP2 MLOAD DUP2 LT PUSH2 0x3C67 JUMPI INVALID JUMPDEST PUSH1 0x20 MUL PUSH1 0x20 ADD ADD DUP2 DUP2 MSTORE POP POP PUSH1 0x0 JUMPDEST PUSH1 0x1 DUP4 MLOAD SUB DUP2 LT ISZERO PUSH2 0x31F9 JUMPI PUSH1 0x0 DUP1 PUSH2 0x3CAC DUP8 DUP7 DUP6 DUP2 MLOAD DUP2 LT PUSH2 0x3C95 JUMPI INVALID JUMPDEST PUSH1 0x20 MUL PUSH1 0x20 ADD ADD MLOAD DUP8 DUP7 PUSH1 0x1 ADD DUP2 MLOAD DUP2 LT PUSH2 0x31A5 JUMPI INVALID JUMPDEST SWAP2 POP SWAP2 POP PUSH2 0x3CCE DUP5 DUP5 DUP2 MLOAD DUP2 LT PUSH2 0x3CBF JUMPI INVALID JUMPDEST PUSH1 0x20 MUL PUSH1 0x20 ADD ADD MLOAD DUP4 DUP4 PUSH2 0x2FC4 JUMP JUMPDEST DUP5 DUP5 PUSH1 0x1 ADD DUP2 MLOAD DUP2 LT PUSH2 0x3CDD JUMPI INVALID JUMPDEST PUSH1 0x20 SWAP1 DUP2 MUL SWAP2 SWAP1 SWAP2 ADD ADD MSTORE POP POP PUSH1 0x1 ADD PUSH2 0x3C76 JUMP JUMPDEST DUP1 DUP3 SUB DUP3 DUP2 GT ISZERO PUSH2 0x1006 JUMPI PUSH1 0x40 DUP1 MLOAD PUSH3 0x461BCD PUSH1 0xE5 SHL DUP2 MSTORE PUSH1 0x20 PUSH1 0x4 DUP3 ADD MSTORE PUSH1 0x15 PUSH1 0x24 DUP3 ADD MSTORE PUSH21 0x64732D6D6174682D7375622D756E646572666C6F77 PUSH1 0x58 SHL PUSH1 0x44 DUP3 ADD MSTORE SWAP1 MLOAD SWAP1 DUP2 SWAP1 SUB PUSH1 0x64 ADD SWAP1 REVERT JUMPDEST PUSH1 0x40 DUP1 MLOAD PUSH4 0xE6A43905 PUSH1 0xE0 SHL DUP2 MSTORE PUSH1 0x1 PUSH1 0x1 PUSH1 0xA0 SHL SUB DUP9 DUP2 AND PUSH1 0x4 DUP4 ADD MSTORE DUP8 DUP2 AND PUSH1 0x24 DUP4 ADD MSTORE SWAP2 MLOAD PUSH1 0x0 SWAP3 DUP4 SWAP3 DUP4 SWAP3 PUSH32 0x0 SWAP1 SWAP3 AND SWAP2 PUSH4 0xE6A43905 SWAP2 PUSH1 0x44 DUP1 DUP3 ADD SWAP3 PUSH1 0x20 SWAP3 SWAP1 SWAP2 SWAP1 DUP3 SWAP1 SUB ADD DUP2 DUP7 DUP1 EXTCODESIZE ISZERO DUP1 ISZERO PUSH2 0x3DBC JUMPI PUSH1 0x0 DUP1 REVERT JUMPDEST POP GAS STATICCALL ISZERO DUP1 ISZERO PUSH2 0x3DD0 JUMPI RETURNDATASIZE PUSH1 0x0 DUP1 RETURNDATACOPY RETURNDATASIZE PUSH1 0x0 REVERT JUMPDEST POP POP POP POP PUSH1 0x40 MLOAD RETURNDATASIZE PUSH1 0x20 DUP2 LT ISZERO PUSH2 0x3DE6 JUMPI PUSH1 0x0 DUP1 REVERT JUMPDEST POP MLOAD PUSH1 0x1 PUSH1 0x1 PUSH1 0xA0 SHL SUB AND EQ ISZERO PUSH2 0x3E99 JUMPI PUSH1 0x40 DUP1 MLOAD PUSH4 0x64E329CB PUSH1 0xE1 SHL DUP2 MSTORE PUSH1 0x1 PUSH1 0x1 PUSH1 0xA0 SHL SUB DUP11 DUP2 AND PUSH1 0x4 DUP4 ADD MSTORE DUP10 DUP2 AND PUSH1 0x24 DUP4 ADD MSTORE SWAP2 MLOAD PUSH32 0x0 SWAP1 SWAP3 AND SWAP2 PUSH4 0xC9C65396 SWAP2 PUSH1 0x44 DUP1 DUP3 ADD SWAP3 PUSH1 0x20 SWAP3 SWAP1 SWAP2 SWAP1 DUP3 SWAP1 SUB ADD DUP2 PUSH1 0x0 DUP8 DUP1 EXTCODESIZE ISZERO DUP1 ISZERO PUSH2 0x3E6C JUMPI PUSH1 0x0 DUP1 REVERT JUMPDEST POP GAS CALL ISZERO DUP1 ISZERO PUSH2 0x3E80 JUMPI RETURNDATASIZE PUSH1 0x0 DUP1 RETURNDATACOPY RETURNDATASIZE PUSH1 0x0 REVERT JUMPDEST POP POP POP POP PUSH1 0x40 MLOAD RETURNDATASIZE PUSH1 0x20 DUP2 LT ISZERO PUSH2 0x3E96 JUMPI PUSH1 0x0 DUP1 REVERT JUMPDEST POP POP JUMPDEST PUSH1 0x0 DUP1 PUSH2 0x3EC7 PUSH32 0x0 DUP12 DUP12 PUSH2 0x42E2 JUMP JUMPDEST SWAP2 POP SWAP2 POP DUP2 PUSH1 0x0 EQ DUP1 ISZERO PUSH2 0x3ED9 JUMPI POP DUP1 ISZERO JUMPDEST ISZERO PUSH2 0x3EE9 JUMPI DUP8 SWAP4 POP DUP7 SWAP3 POP PUSH2 0x3FA9 JUMP JUMPDEST PUSH1 0x0 PUSH2 0x3EF6 DUP10 DUP5 DUP5 PUSH2 0x40A6 JUMP JUMPDEST SWAP1 POP DUP8 DUP2 GT PUSH2 0x3F49 JUMPI DUP6 DUP2 LT ISZERO PUSH2 0x3F3E JUMPI PUSH1 0x40 MLOAD PUSH3 0x461BCD PUSH1 0xE5 SHL DUP2 MSTORE PUSH1 0x4 ADD DUP1 DUP1 PUSH1 0x20 ADD DUP3 DUP2 SUB DUP3 MSTORE PUSH1 0x25 DUP2 MSTORE PUSH1 0x20 ADD DUP1 PUSH2 0x43F9 PUSH1 0x25 SWAP2 CODECOPY PUSH1 0x40 ADD SWAP2 POP POP PUSH1 0x40 MLOAD DUP1 SWAP2 SUB SWAP1 REVERT JUMPDEST DUP9 SWAP5 POP SWAP3 POP DUP3 PUSH2 0x3FA7 JUMP JUMPDEST PUSH1 0x0 PUSH2 0x3F56 DUP10 DUP5 DUP7 PUSH2 0x40A6 JUMP JUMPDEST SWAP1 POP DUP10 DUP2 GT ISZERO PUSH2 0x3F62 JUMPI INVALID JUMPDEST DUP8 DUP2 LT ISZERO PUSH2 0x3FA1 JUMPI PUSH1 0x40 MLOAD PUSH3 0x461BCD PUSH1 0xE5 SHL DUP2 MSTORE PUSH1 0x4 ADD DUP1 DUP1 PUSH1 0x20 ADD DUP3 DUP2 SUB DUP3 MSTORE PUSH1 0x25 DUP2 MSTORE PUSH1 0x20 ADD DUP1 PUSH2 0x4566 PUSH1 0x25 SWAP2 CODECOPY PUSH1 0x40 ADD SWAP2 POP POP PUSH1 0x40 MLOAD DUP1 SWAP2 SUB SWAP1 REVERT JUMPDEST SWAP5 POP DUP8 SWAP4 POP JUMPDEST POP JUMPDEST POP POP SWAP7 POP SWAP7 SWAP5 POP POP POP POP POP JUMP JUMPDEST PUSH1 0x0 DUP1 DUP5 GT PUSH2 0x3FF6 JUMPI PUSH1 0x40 MLOAD PUSH3 0x461BCD PUSH1 0xE5 SHL DUP2 MSTORE PUSH1 0x4 ADD DUP1 DUP1 PUSH1 0x20 ADD DUP3 DUP2 SUB DUP3 MSTORE PUSH1 0x2B DUP2 MSTORE PUSH1 0x20 ADD DUP1 PUSH2 0x43CE PUSH1 0x2B SWAP2 CODECOPY PUSH1 0x40 ADD SWAP2 POP POP PUSH1 0x40 MLOAD DUP1 SWAP2 SUB SWAP1 REVERT JUMPDEST PUSH1 0x0 DUP4 GT DUP1 ISZERO PUSH2 0x4006 JUMPI POP PUSH1 0x0 DUP3 GT JUMPDEST PUSH2 0x4041 JUMPI PUSH1 0x40 MLOAD PUSH3 0x461BCD PUSH1 0xE5 SHL DUP2 MSTORE PUSH1 0x4 ADD DUP1 DUP1 PUSH1 0x20 ADD DUP3 DUP2 SUB DUP3 MSTORE PUSH1 0x27 DUP2 MSTORE PUSH1 0x20 ADD DUP1 PUSH2 0x453F PUSH1 0x27 SWAP2 CODECOPY PUSH1 0x40 ADD SWAP2 POP POP PUSH1 0x40 MLOAD DUP1 SWAP2 SUB SWAP1 REVERT JUMPDEST PUSH1 0x0 PUSH2 0x4065 PUSH2 0x3E8 PUSH2 0x4059 DUP7 DUP9 PUSH4 0xFFFFFFFF PUSH2 0x4230 AND JUMP JUMPDEST SWAP1 PUSH4 0xFFFFFFFF PUSH2 0x4230 AND JUMP JUMPDEST SWAP1 POP PUSH1 0x0 PUSH2 0x407F PUSH2 0x3E5 PUSH2 0x4059 DUP7 DUP10 PUSH4 0xFFFFFFFF PUSH2 0x3CF2 AND JUMP JUMPDEST SWAP1 POP PUSH2 0x409C PUSH1 0x1 DUP3 DUP5 DUP2 PUSH2 0x408F JUMPI INVALID JUMPDEST DIV SWAP1 PUSH4 0xFFFFFFFF PUSH2 0x4293 AND JUMP JUMPDEST SWAP7 SWAP6 POP POP POP POP POP POP JUMP JUMPDEST PUSH1 0x0 DUP1 DUP5 GT PUSH2 0x40E6 JUMPI PUSH1 0x40 MLOAD PUSH3 0x461BCD PUSH1 0xE5 SHL DUP2 MSTORE PUSH1 0x4 ADD DUP1 DUP1 PUSH1 0x20 ADD DUP3 DUP2 SUB DUP3 MSTORE PUSH1 0x24 DUP2 MSTORE PUSH1 0x20 ADD DUP1 PUSH2 0x458B PUSH1 0x24 SWAP2 CODECOPY PUSH1 0x40 ADD SWAP2 POP POP PUSH1 0x40 MLOAD DUP1 SWAP2 SUB SWAP1 REVERT JUMPDEST PUSH1 0x0 DUP4 GT DUP1 ISZERO PUSH2 0x40F6 JUMPI POP PUSH1 0x0 DUP3 GT JUMPDEST PUSH2 0x4131 JUMPI PUSH1 0x40 MLOAD PUSH3 0x461BCD PUSH1 0xE5 SHL DUP2 MSTORE PUSH1 0x4 ADD DUP1 DUP1 PUSH1 0x20 ADD DUP3 DUP2 SUB DUP3 MSTORE PUSH1 0x27 DUP2 MSTORE PUSH1 0x20 ADD DUP1 PUSH2 0x453F PUSH1 0x27 SWAP2 CODECOPY PUSH1 0x40 ADD SWAP2 POP POP PUSH1 0x40 MLOAD DUP1 SWAP2 SUB SWAP1 REVERT JUMPDEST DUP3 PUSH2 0x4142 DUP6 DUP5 PUSH4 0xFFFFFFFF PUSH2 0x4230 AND JUMP JUMPDEST DUP2 PUSH2 0x4149 JUMPI INVALID JUMPDEST DIV SWAP5 SWAP4 POP POP POP POP JUMP JUMPDEST PUSH1 0x0 DUP1 DUP3 PUSH1 0x1 PUSH1 0x1 PUSH1 0xA0 SHL SUB AND DUP5 PUSH1 0x1 PUSH1 0x1 PUSH1 0xA0 SHL SUB AND EQ ISZERO PUSH2 0x41A6 JUMPI PUSH1 0x40 MLOAD PUSH3 0x461BCD PUSH1 0xE5 SHL DUP2 MSTORE PUSH1 0x4 ADD DUP1 DUP1 PUSH1 0x20 ADD DUP3 DUP2 SUB DUP3 MSTORE PUSH1 0x24 DUP2 MSTORE PUSH1 0x20 ADD DUP1 PUSH2 0x43AA PUSH1 0x24 SWAP2 CODECOPY PUSH1 0x40 ADD SWAP2 POP POP PUSH1 0x40 MLOAD DUP1 SWAP2 SUB SWAP1 REVERT JUMPDEST DUP3 PUSH1 0x1 PUSH1 0x1 PUSH1 0xA0 SHL SUB AND DUP5 PUSH1 0x1 PUSH1 0x1 PUSH1 0xA0 SHL SUB AND LT PUSH2 0x41C6 JUMPI DUP3 DUP5 PUSH2 0x41C9 JUMP JUMPDEST DUP4 DUP4 JUMPDEST SWAP1 SWAP3 POP SWAP1 POP PUSH1 0x1 PUSH1 0x1 PUSH1 0xA0 SHL SUB DUP3 AND PUSH2 0x4229 JUMPI PUSH1 0x40 DUP1 MLOAD PUSH3 0x461BCD PUSH1 0xE5 SHL DUP2 MSTORE PUSH1 0x20 PUSH1 0x4 DUP3 ADD MSTORE PUSH1 0x1D PUSH1 0x24 DUP3 ADD MSTORE PUSH32 0x52616D7A537761704C6962726172793A205A45524F5F41444452455353000000 PUSH1 0x44 DUP3 ADD MSTORE SWAP1 MLOAD SWAP1 DUP2 SWAP1 SUB PUSH1 0x64 ADD SWAP1 REVERT JUMPDEST SWAP3 POP SWAP3 SWAP1 POP JUMP JUMPDEST PUSH1 0x0 DUP2 ISZERO DUP1 PUSH2 0x424B JUMPI POP POP DUP1 DUP3 MUL DUP3 DUP3 DUP3 DUP2 PUSH2 0x4248 JUMPI INVALID JUMPDEST DIV EQ JUMPDEST PUSH2 0x1006 JUMPI PUSH1 0x40 DUP1 MLOAD PUSH3 0x461BCD PUSH1 0xE5 SHL DUP2 MSTORE PUSH1 0x20 PUSH1 0x4 DUP3 ADD MSTORE PUSH1 0x14 PUSH1 0x24 DUP3 ADD MSTORE PUSH20 0x64732D6D6174682D6D756C2D6F766572666C6F77 PUSH1 0x60 SHL PUSH1 0x44 DUP3 ADD MSTORE SWAP1 MLOAD SWAP1 DUP2 SWAP1 SUB PUSH1 0x64 ADD SWAP1 REVERT JUMPDEST DUP1 DUP3 ADD DUP3 DUP2 LT ISZERO PUSH2 0x1006 JUMPI PUSH1 0x40 DUP1 MLOAD PUSH3 0x461BCD PUSH1 0xE5 SHL DUP2 MSTORE PUSH1 0x20 PUSH1 0x4 DUP3 ADD MSTORE PUSH1 0x14 PUSH1 0x24 DUP3 ADD MSTORE PUSH20 0x64732D6D6174682D6164642D6F766572666C6F77 PUSH1 0x60 SHL PUSH1 0x44 DUP3 ADD MSTORE SWAP1 MLOAD SWAP1 DUP2 SWAP1 SUB PUSH1 0x64 ADD SWAP1 REVERT JUMPDEST PUSH1 0x0 DUP1 PUSH1 0x0 PUSH2 0x42F1 DUP6 DUP6 PUSH2 0x4152 JUMP JUMPDEST POP SWAP1 POP PUSH1 0x0 DUP1 PUSH2 0x4302 DUP9 DUP9 DUP9 PUSH2 0x3201 JUMP JUMPDEST PUSH1 0x1 PUSH1 0x1 PUSH1 0xA0 SHL SUB AND PUSH4 0x902F1AC PUSH1 0x40 MLOAD DUP2 PUSH4 0xFFFFFFFF AND PUSH1 0xE0 SHL DUP2 MSTORE PUSH1 0x4 ADD PUSH1 0x60 PUSH1 0x40 MLOAD DUP1 DUP4 SUB DUP2 DUP7 DUP1 EXTCODESIZE ISZERO DUP1 ISZERO PUSH2 0x433A JUMPI PUSH1 0x0 DUP1 REVERT JUMPDEST POP GAS STATICCALL ISZERO DUP1 ISZERO PUSH2 0x434E JUMPI RETURNDATASIZE PUSH1 0x0 DUP1 RETURNDATACOPY RETURNDATASIZE PUSH1 0x0 REVERT JUMPDEST POP POP POP POP PUSH1 0x40 MLOAD RETURNDATASIZE PUSH1 0x60 DUP2 LT ISZERO PUSH2 0x4364 JUMPI PUSH1 0x0 DUP1 REVERT JUMPDEST POP DUP1 MLOAD PUSH1 0x20 SWAP1 SWAP2 ADD MLOAD PUSH1 0x1 PUSH1 0x1 PUSH1 0x70 SHL SUB SWAP2 DUP3 AND SWAP4 POP AND SWAP1 POP PUSH1 0x1 PUSH1 0x1 PUSH1 0xA0 SHL SUB DUP8 DUP2 AND SWAP1 DUP5 AND EQ PUSH2 0x4397 JUMPI DUP1 DUP3 PUSH2 0x439A JUMP JUMPDEST DUP2 DUP2 JUMPDEST SWAP1 SWAP10 SWAP1 SWAP9 POP SWAP7 POP POP POP POP POP POP POP JUMP INVALID MSTORE PUSH2 0x6D7A MSTORE8 PUSH24 0x61704C6962726172793A204944454E544943414C5F414444 MSTORE GASLIMIT MSTORE8 MSTORE8 GASLIMIT MSTORE8 MSTORE PUSH2 0x6D7A MSTORE8 PUSH24 0x61704C6962726172793A20494E53554646494349454E545F 0x4F SSTORE SLOAD POP SSTORE SLOAD 0x5F COINBASE 0x4D 0x4F SSTORE 0x4E SLOAD MSTORE PUSH2 0x6D7A MSTORE8 PUSH24 0x6170526F757465723A20494E53554646494349454E545F42 0x5F COINBASE 0x4D 0x4F SSTORE 0x4E SLOAD SLOAD PUSH19 0x616E7366657248656C7065723A3A7472616E73 PUSH7 0x657246726F6D3A KECCAK256 PUSH21 0x72616E7366657246726F6D206661696C656452616D PUSH27 0x53776170526F757465723A204558434553534956455F494E505554 0x5F COINBASE 0x4D 0x4F SSTORE 0x4E SLOAD SLOAD PUSH19 0x616E7366657248656C7065723A3A7361666554 PUSH19 0x616E736665724D41414C3A204D41414C207472 PUSH2 0x6E73 PUSH7 0x6572206661696C PUSH6 0x6452616D7A53 PUSH24 0x6170526F757465723A20494E53554646494349454E545F4F SSTORE SLOAD POP SSTORE SLOAD 0x5F COINBASE 0x4D 0x4F SSTORE 0x4E SLOAD MSTORE PUSH2 0x6D7A MSTORE8 PUSH24 0x6170526F757465723A20494E56414C49445F504154480000 STOP STOP MSTORE PUSH2 0x6D7A MSTORE8 PUSH24 0x61704C6962726172793A20494E53554646494349454E545F 0x49 0x4E POP SSTORE SLOAD 0x5F COINBASE 0x4D 0x4F SSTORE 0x4E SLOAD MSTORE PUSH2 0x6D7A MSTORE8 PUSH24 0x6170526F757465723A204558504952454400000000000000 STOP STOP MSTORE PUSH2 0x6D7A MSTORE8 PUSH24 0x61704C6962726172793A20494E53554646494349454E545F 0x4C 0x49 MLOAD SSTORE 0x49 DIFFICULTY 0x49 SLOAD MSIZE MSTORE PUSH2 0x6D7A MSTORE8 PUSH24 0x6170526F757465723A20494E53554646494349454E545F41 0x5F COINBASE 0x4D 0x4F SSTORE 0x4E SLOAD MSTORE PUSH2 0x6D7A MSTORE8 PUSH24 0x61704C6962726172793A20494E53554646494349454E545F COINBASE 0x4D 0x4F SSTORE 0x4E SLOAD SLOAD PUSH19 0x616E7366657248656C7065723A3A7361666554 PUSH19 0x616E736665723A207472616E73666572206661 PUSH10 0x6C6564A2646970667358 0x22 SLT KECCAK256 LOG3 0x2C 0xE8 0xD7 SWAP4 0x2D 0xEA 0xD3 0xD7 EXP BALANCE 0xE4 0xC2 0xE4 0xEC JUMPDEST 0xDD SWAP6 ADDMOD LOG1 0xB9 0xF9 CREATE 0xB8 0xDC CODECOPY SWAP5 CODECOPY 0x2B SUB PUSH11 0x8A64736F6C634300060600 CALLER "
				},
				"gasEstimates": {
					"creation": {
						"codeDepositCost": "3587400",
						"executionCost": "infinite",
						"totalCost": "infinite"
					},
					"external": {
						"WMAAL()": "infinite",
						"addLiquidity(address,address,uint256,uint256,uint256,uint256,address,uint256)": "infinite",
						"addLiquidityMAAL(address,uint256,uint256,uint256,address,uint256)": "infinite",
						"factory()": "infinite",
						"getAmountIn(uint256,uint256,uint256)": "infinite",
						"getAmountOut(uint256,uint256,uint256)": "infinite",
						"getAmountsIn(uint256,address[])": "infinite",
						"getAmountsOut(uint256,address[])": "infinite",
						"quote(uint256,uint256,uint256)": "infinite",
						"removeLiquidity(address,address,uint256,uint256,uint256,address,uint256)": "infinite",
						"removeLiquidityMAAL(address,uint256,uint256,uint256,address,uint256)": "infinite",
						"removeLiquidityMAALSupportingFeeOnTransferTokens(address,uint256,uint256,uint256,address,uint256)": "infinite",
						"removeLiquidityMAALWithPermit(address,uint256,uint256,uint256,address,uint256,bool,uint8,bytes32,bytes32)": "infinite",
						"removeLiquidityMAALWithPermitSupportingFeeOnTransferTokens(address,uint256,uint256,uint256,address,uint256,bool,uint8,bytes32,bytes32)": "infinite",
						"removeLiquidityWithPermit(address,address,uint256,uint256,uint256,address,uint256,bool,uint8,bytes32,bytes32)": "infinite",
						"swapExactMAALForTokens(uint256,address[],address,uint256)": "infinite",
						"swapExactMAALForTokensSupportingFeeOnTransferTokens(uint256,address[],address,uint256)": "infinite",
						"swapExactTokensForMAAL(uint256,uint256,address[],address,uint256)": "infinite",
						"swapExactTokensForMAALSupportingFeeOnTransferTokens(uint256,uint256,address[],address,uint256)": "infinite",
						"swapExactTokensForTokens(uint256,uint256,address[],address,uint256)": "infinite",
						"swapExactTokensForTokensSupportingFeeOnTransferTokens(uint256,uint256,address[],address,uint256)": "infinite",
						"swapMAALForExactTokens(uint256,address[],address,uint256)": "infinite",
						"swapTokensForExactMAAL(uint256,uint256,address[],address,uint256)": "infinite",
						"swapTokensForExactTokens(uint256,uint256,address[],address,uint256)": "infinite"
					},
					"internal": {
						"_addLiquidity(address,address,uint256,uint256,uint256,uint256)": "infinite",
						"_swap(uint256[] memory,address[] memory,address)": "infinite",
						"_swapSupportingFeeOnTransferTokens(address[] memory,address)": "infinite"
					}
				},
				"methodIdentifiers": {
					"WMAAL()": "75075a06",
					"addLiquidity(address,address,uint256,uint256,uint256,uint256,address,uint256)": "e8e33700",
					"addLiquidityMAAL(address,uint256,uint256,uint256,address,uint256)": "6b3b3576",
					"factory()": "c45a0155",
					"getAmountIn(uint256,uint256,uint256)": "85f8c259",
					"getAmountOut(uint256,uint256,uint256)": "054d50d4",
					"getAmountsIn(uint256,address[])": "1f00ca74",
					"getAmountsOut(uint256,address[])": "d06ca61f",
					"quote(uint256,uint256,uint256)": "ad615dec",
					"removeLiquidity(address,address,uint256,uint256,uint256,address,uint256)": "baa2abde",
					"removeLiquidityMAAL(address,uint256,uint256,uint256,address,uint256)": "2d9fc6d9",
					"removeLiquidityMAALSupportingFeeOnTransferTokens(address,uint256,uint256,uint256,address,uint256)": "ef08efd0",
					"removeLiquidityMAALWithPermit(address,uint256,uint256,uint256,address,uint256,bool,uint8,bytes32,bytes32)": "bfb8b723",
					"removeLiquidityMAALWithPermitSupportingFeeOnTransferTokens(address,uint256,uint256,uint256,address,uint256,bool,uint8,bytes32,bytes32)": "2b4b3835",
					"removeLiquidityWithPermit(address,address,uint256,uint256,uint256,address,uint256,bool,uint8,bytes32,bytes32)": "2195995c",
					"swapExactMAALForTokens(uint256,address[],address,uint256)": "51a5114e",
					"swapExactMAALForTokensSupportingFeeOnTransferTokens(uint256,address[],address,uint256)": "e5e481e6",
					"swapExactTokensForMAAL(uint256,uint256,address[],address,uint256)": "c4eab65c",
					"swapExactTokensForMAALSupportingFeeOnTransferTokens(uint256,uint256,address[],address,uint256)": "32c46c91",
					"swapExactTokensForTokens(uint256,uint256,address[],address,uint256)": "38ed1739",
					"swapExactTokensForTokensSupportingFeeOnTransferTokens(uint256,uint256,address[],address,uint256)": "5c11d795",
					"swapMAALForExactTokens(uint256,address[],address,uint256)": "63e700ce",
					"swapTokensForExactMAAL(uint256,uint256,address[],address,uint256)": "161a1994",
					"swapTokensForExactTokens(uint256,uint256,address[],address,uint256)": "8803dbee"
				}
			},
			"storageLayout": {
				"storage": [],
				"types": null
			},
			"userdoc": {
				"methods": {}
			}
		}
	}
}